{
  "abi": [
    {
      "inputs": [],
      "name": "AlreadyMinted",
      "type": "error"
    },
    {
      "inputs": [],
      "name": "AssetOrder",
      "type": "error"
    },
    {
      "inputs": [],
      "name": "ExecuteFailed",
      "type": "error"
    },
    {
      "inputs": [],
      "name": "Forbidden",
      "type": "error"
    },
    {
      "inputs": [],
      "name": "Initialized",
      "type": "error"
    },
    {
      "inputs": [],
      "name": "InvalidRecipient",
      "type": "error"
    },
    {
      "inputs": [],
      "name": "InvalidSignature",
      "type": "error"
    },
    {
      "inputs": [],
      "name": "InvalidSigner",
      "type": "error"
    },
    {
      "inputs": [],
      "name": "NoArrayParity",
      "type": "error"
    },
    {
      "inputs": [],
      "name": "NotMinted",
      "type": "error"
    },
    {
      "inputs": [],
      "name": "NotOwner",
      "type": "error"
    },
    {
      "inputs": [],
      "name": "NotSigner",
      "type": "error"
    },
    {
      "inputs": [],
      "name": "Paused",
      "type": "error"
    },
    {
      "inputs": [],
      "name": "SigBounds",
      "type": "error"
    },
    {
      "inputs": [],
      "name": "SignatureExpired",
      "type": "error"
    },
    {
      "inputs": [],
      "name": "TransferFailed",
      "type": "error"
    },
    {
      "anonymous": false,
      "inputs": [
        {
          "indexed": true,
          "internalType": "address",
          "name": "owner",
          "type": "address"
        },
        {
          "indexed": true,
          "internalType": "address",
          "name": "spender",
          "type": "address"
        },
        {
          "indexed": true,
          "internalType": "uint256",
          "name": "id",
          "type": "uint256"
        }
      ],
      "name": "Approval",
      "type": "event"
    },
    {
      "anonymous": false,
      "inputs": [
        {
          "indexed": true,
          "internalType": "address",
          "name": "owner",
          "type": "address"
        },
        {
          "indexed": true,
          "internalType": "address",
          "name": "operator",
          "type": "address"
        },
        {
          "indexed": false,
          "internalType": "bool",
          "name": "approved",
          "type": "bool"
        }
      ],
      "name": "ApprovalForAll",
      "type": "event"
    },
    {
      "anonymous": false,
      "inputs": [
        {
          "indexed": true,
          "internalType": "address",
          "name": "target",
          "type": "address"
        },
        {
          "indexed": false,
          "internalType": "uint256",
          "name": "value",
          "type": "uint256"
        },
        {
          "indexed": false,
          "internalType": "bytes",
          "name": "payload",
          "type": "bytes"
        }
      ],
      "name": "Execute",
      "type": "event"
    },
    {
      "anonymous": false,
      "inputs": [
        {
          "components": [
            {
              "internalType": "address",
              "name": "signer",
              "type": "address"
            },
            {
              "internalType": "uint256",
              "name": "id",
              "type": "uint256"
            },
            {
              "internalType": "uint256",
              "name": "loot",
              "type": "uint256"
            }
          ],
          "indexed": false,
          "internalType": "struct ClubSig.Club[]",
          "name": "club",
          "type": "tuple[]"
        },
        {
          "indexed": false,
          "internalType": "bool[]",
          "name": "mints",
          "type": "bool[]"
        },
        {
          "indexed": false,
          "internalType": "uint256",
          "name": "quorum",
          "type": "uint256"
        }
      ],
      "name": "Govern",
      "type": "event"
    },
    {
      "anonymous": false,
      "inputs": [
        {
          "indexed": true,
          "internalType": "address",
          "name": "account",
          "type": "address"
        }
      ],
      "name": "GovernorFlipped",
      "type": "event"
    },
    {
      "anonymous": false,
      "inputs": [
        {
          "indexed": false,
          "internalType": "bool",
          "name": "paused",
          "type": "bool"
        }
      ],
      "name": "PauseFlipped",
      "type": "event"
    },
    {
      "anonymous": false,
      "inputs": [
        {
          "indexed": true,
          "internalType": "address",
          "name": "from",
          "type": "address"
        },
        {
          "indexed": true,
          "internalType": "address",
          "name": "to",
          "type": "address"
        },
        {
          "indexed": true,
          "internalType": "uint256",
          "name": "id",
          "type": "uint256"
        }
      ],
      "name": "Transfer",
      "type": "event"
    },
    {
      "anonymous": false,
      "inputs": [
        {
          "indexed": false,
          "internalType": "string",
          "name": "uri",
          "type": "string"
        }
      ],
      "name": "URIupdated",
      "type": "event"
    },
    {
      "inputs": [],
      "name": "DOMAIN_SEPARATOR",
      "outputs": [
        {
          "internalType": "bytes32",
          "name": "",
          "type": "bytes32"
        }
      ],
      "stateMutability": "view",
      "type": "function"
    },
    {
      "inputs": [
        {
          "internalType": "address",
          "name": "spender",
          "type": "address"
        },
        {
          "internalType": "uint256",
          "name": "id",
          "type": "uint256"
        }
      ],
      "name": "approve",
      "outputs": [],
      "stateMutability": "payable",
      "type": "function"
    },
    {
      "inputs": [
        {
          "internalType": "address",
          "name": "",
          "type": "address"
        }
      ],
      "name": "balanceOf",
      "outputs": [
        {
          "internalType": "uint256",
          "name": "",
          "type": "uint256"
        }
      ],
      "stateMutability": "view",
      "type": "function"
    },
    {
      "inputs": [],
      "name": "baseURI",
      "outputs": [
        {
          "internalType": "string",
          "name": "",
          "type": "string"
        }
      ],
      "stateMutability": "view",
      "type": "function"
    },
    {
      "inputs": [
        {
          "components": [
            {
              "internalType": "address",
              "name": "target",
              "type": "address"
            },
            {
              "internalType": "uint256",
              "name": "value",
              "type": "uint256"
            },
            {
              "internalType": "bytes",
              "name": "payload",
              "type": "bytes"
            },
            {
              "internalType": "bool",
              "name": "std",
              "type": "bool"
            }
          ],
          "internalType": "struct ClubSig.Call",
          "name": "call",
          "type": "tuple"
        },
        {
          "components": [
            {
              "internalType": "uint8",
              "name": "v",
              "type": "uint8"
            },
            {
              "internalType": "bytes32",
              "name": "r",
              "type": "bytes32"
            },
            {
              "internalType": "bytes32",
              "name": "s",
              "type": "bytes32"
            }
          ],
          "internalType": "struct ClubNFT.Signature[]",
          "name": "sigs",
          "type": "tuple[]"
        }
      ],
      "name": "execute",
      "outputs": [
        {
          "internalType": "bool",
          "name": "success",
          "type": "bool"
        },
        {
          "internalType": "bytes",
          "name": "result",
          "type": "bytes"
        }
      ],
      "stateMutability": "payable",
      "type": "function"
    },
    {
      "inputs": [
        {
          "internalType": "address",
          "name": "account",
          "type": "address"
        }
      ],
      "name": "flipGovernor",
      "outputs": [],
      "stateMutability": "payable",
      "type": "function"
    },
    {
      "inputs": [],
      "name": "flipPause",
      "outputs": [],
      "stateMutability": "payable",
      "type": "function"
    },
    {
      "inputs": [
        {
          "internalType": "uint256",
          "name": "",
          "type": "uint256"
        }
      ],
      "name": "getApproved",
      "outputs": [
        {
          "internalType": "address",
          "name": "",
          "type": "address"
        }
      ],
      "stateMutability": "view",
      "type": "function"
    },
    {
      "inputs": [
        {
          "components": [
            {
              "internalType": "address",
              "name": "signer",
              "type": "address"
            },
            {
              "internalType": "uint256",
              "name": "id",
              "type": "uint256"
            },
            {
              "internalType": "uint256",
              "name": "loot",
              "type": "uint256"
            }
          ],
          "internalType": "struct ClubSig.Club[]",
          "name": "club_",
          "type": "tuple[]"
        },
        {
          "internalType": "bool[]",
          "name": "mints_",
          "type": "bool[]"
        },
        {
          "internalType": "uint256",
          "name": "quorum_",
          "type": "uint256"
        }
      ],
      "name": "govern",
      "outputs": [],
      "stateMutability": "payable",
      "type": "function"
    },
    {
      "inputs": [
        {
          "internalType": "address",
          "name": "",
          "type": "address"
        }
      ],
      "name": "governor",
      "outputs": [
        {
          "internalType": "bool",
          "name": "",
          "type": "bool"
        }
      ],
      "stateMutability": "view",
      "type": "function"
    },
    {
      "inputs": [
        {
          "components": [
            {
              "internalType": "address",
              "name": "target",
              "type": "address"
            },
            {
              "internalType": "uint256",
              "name": "value",
              "type": "uint256"
            },
            {
              "internalType": "bytes",
              "name": "payload",
              "type": "bytes"
            },
            {
              "internalType": "bool",
              "name": "std",
              "type": "bool"
            }
          ],
          "internalType": "struct ClubSig.Call",
          "name": "call",
          "type": "tuple"
        }
      ],
      "name": "governorExecute",
      "outputs": [
        {
          "internalType": "bool",
          "name": "success",
          "type": "bool"
        },
        {
          "internalType": "bytes",
          "name": "result",
          "type": "bytes"
        }
      ],
      "stateMutability": "payable",
      "type": "function"
    },
    {
      "inputs": [
        {
          "components": [
            {
              "internalType": "address",
              "name": "signer",
              "type": "address"
            },
            {
              "internalType": "uint256",
              "name": "id",
              "type": "uint256"
            },
            {
              "internalType": "uint256",
              "name": "loot",
              "type": "uint256"
            }
          ],
          "internalType": "struct ClubSig.Club[]",
          "name": "club_",
          "type": "tuple[]"
        },
        {
          "internalType": "uint256",
          "name": "quorum_",
          "type": "uint256"
        },
        {
          "internalType": "bool",
          "name": "paused_",
          "type": "bool"
        },
        {
          "internalType": "string",
          "name": "baseURI_",
          "type": "string"
        }
      ],
      "name": "init",
      "outputs": [],
      "stateMutability": "payable",
      "type": "function"
    },
    {
      "inputs": [
        {
          "internalType": "address",
          "name": "",
          "type": "address"
        },
        {
          "internalType": "address",
          "name": "",
          "type": "address"
        }
      ],
      "name": "isApprovedForAll",
      "outputs": [
        {
          "internalType": "bool",
          "name": "",
          "type": "bool"
        }
      ],
      "stateMutability": "view",
      "type": "function"
    },
    {
      "inputs": [
        {
          "internalType": "address",
          "name": "",
          "type": "address"
        }
      ],
      "name": "lastClaim",
      "outputs": [
        {
          "internalType": "uint256",
          "name": "",
          "type": "uint256"
        }
      ],
      "stateMutability": "view",
      "type": "function"
    },
    {
      "inputs": [
        {
          "internalType": "address",
          "name": "",
          "type": "address"
        }
      ],
      "name": "loot",
      "outputs": [
        {
          "internalType": "uint256",
          "name": "",
          "type": "uint256"
        }
      ],
      "stateMutability": "view",
      "type": "function"
    },
    {
      "inputs": [
        {
          "internalType": "bytes[]",
          "name": "data",
          "type": "bytes[]"
        }
      ],
      "name": "multicall",
      "outputs": [
        {
          "internalType": "bytes[]",
          "name": "results",
          "type": "bytes[]"
        }
      ],
      "stateMutability": "payable",
      "type": "function"
    },
    {
      "inputs": [],
      "name": "name",
      "outputs": [
        {
          "internalType": "string",
          "name": "",
          "type": "string"
        }
      ],
      "stateMutability": "pure",
      "type": "function"
    },
    {
      "inputs": [],
      "name": "nonce",
      "outputs": [
        {
          "internalType": "uint256",
          "name": "",
          "type": "uint256"
        }
      ],
      "stateMutability": "view",
      "type": "function"
    },
    {
      "inputs": [
        {
          "internalType": "uint256",
          "name": "",
          "type": "uint256"
        }
      ],
      "name": "nonces",
      "outputs": [
        {
          "internalType": "uint256",
          "name": "",
          "type": "uint256"
        }
      ],
      "stateMutability": "view",
      "type": "function"
    },
    {
      "inputs": [
        {
          "internalType": "address",
          "name": "",
          "type": "address"
        }
      ],
      "name": "noncesForAll",
      "outputs": [
        {
          "internalType": "uint256",
          "name": "",
          "type": "uint256"
        }
      ],
      "stateMutability": "view",
      "type": "function"
    },
    {
      "inputs": [
        {
          "internalType": "uint256",
          "name": "",
          "type": "uint256"
        }
      ],
      "name": "ownerOf",
      "outputs": [
        {
          "internalType": "address",
          "name": "",
          "type": "address"
        }
      ],
      "stateMutability": "view",
      "type": "function"
    },
    {
      "inputs": [],
      "name": "paused",
      "outputs": [
        {
          "internalType": "bool",
          "name": "",
          "type": "bool"
        }
      ],
      "stateMutability": "view",
      "type": "function"
    },
    {
      "inputs": [
        {
          "internalType": "address",
          "name": "spender",
          "type": "address"
        },
        {
          "internalType": "uint256",
          "name": "id",
          "type": "uint256"
        },
        {
          "internalType": "uint256",
          "name": "deadline",
          "type": "uint256"
        },
        {
          "components": [
            {
              "internalType": "uint8",
              "name": "v",
              "type": "uint8"
            },
            {
              "internalType": "bytes32",
              "name": "r",
              "type": "bytes32"
            },
            {
              "internalType": "bytes32",
              "name": "s",
              "type": "bytes32"
            }
          ],
          "internalType": "struct ClubNFT.Signature",
          "name": "sig",
          "type": "tuple"
        }
      ],
      "name": "permit",
      "outputs": [],
      "stateMutability": "payable",
      "type": "function"
    },
    {
      "inputs": [
        {
          "internalType": "address",
          "name": "owner",
          "type": "address"
        },
        {
          "internalType": "address",
          "name": "operator",
          "type": "address"
        },
        {
          "internalType": "uint256",
          "name": "deadline",
          "type": "uint256"
        },
        {
          "components": [
            {
              "internalType": "uint8",
              "name": "v",
              "type": "uint8"
            },
            {
              "internalType": "bytes32",
              "name": "r",
              "type": "bytes32"
            },
            {
              "internalType": "bytes32",
              "name": "s",
              "type": "bytes32"
            }
          ],
          "internalType": "struct ClubNFT.Signature",
          "name": "sig",
          "type": "tuple"
        }
      ],
      "name": "permitAll",
      "outputs": [],
      "stateMutability": "payable",
      "type": "function"
    },
    {
      "inputs": [],
      "name": "quorum",
      "outputs": [
        {
          "internalType": "uint256",
          "name": "",
          "type": "uint256"
        }
      ],
      "stateMutability": "view",
      "type": "function"
    },
    {
      "inputs": [
        {
          "internalType": "address[]",
          "name": "assets",
          "type": "address[]"
        },
        {
          "internalType": "uint256",
          "name": "lootToBurn",
          "type": "uint256"
        }
      ],
      "name": "ragequit",
      "outputs": [],
      "stateMutability": "payable",
      "type": "function"
    },
    {
      "inputs": [
        {
          "internalType": "address",
          "name": "from",
          "type": "address"
        },
        {
          "internalType": "address",
          "name": "to",
          "type": "address"
        },
        {
          "internalType": "uint256",
          "name": "id",
          "type": "uint256"
        }
      ],
      "name": "safeTransferFrom",
      "outputs": [],
      "stateMutability": "payable",
      "type": "function"
    },
    {
      "inputs": [
        {
          "internalType": "address",
          "name": "from",
          "type": "address"
        },
        {
          "internalType": "address",
          "name": "to",
          "type": "address"
        },
        {
          "internalType": "uint256",
          "name": "id",
          "type": "uint256"
        },
        {
          "internalType": "bytes",
          "name": "data",
          "type": "bytes"
        }
      ],
      "name": "safeTransferFrom",
      "outputs": [],
      "stateMutability": "payable",
      "type": "function"
    },
    {
      "inputs": [
        {
          "internalType": "address",
          "name": "operator",
          "type": "address"
        },
        {
          "internalType": "bool",
          "name": "approved",
          "type": "bool"
        }
      ],
      "name": "setApprovalForAll",
      "outputs": [],
      "stateMutability": "payable",
      "type": "function"
    },
    {
      "inputs": [
        {
          "internalType": "bytes4",
          "name": "interfaceId",
          "type": "bytes4"
        }
      ],
      "name": "supportsInterface",
      "outputs": [
        {
          "internalType": "bool",
          "name": "",
          "type": "bool"
        }
      ],
      "stateMutability": "pure",
      "type": "function"
    },
    {
      "inputs": [],
      "name": "symbol",
      "outputs": [
        {
          "internalType": "string",
          "name": "",
          "type": "string"
        }
      ],
      "stateMutability": "pure",
      "type": "function"
    },
    {
      "inputs": [
        {
          "internalType": "uint256",
          "name": "id",
          "type": "uint256"
        }
      ],
      "name": "tokenURI",
      "outputs": [
        {
          "internalType": "string",
          "name": "",
          "type": "string"
        }
      ],
      "stateMutability": "view",
      "type": "function"
    },
    {
      "inputs": [],
      "name": "totalLoot",
      "outputs": [
        {
          "internalType": "uint256",
          "name": "",
          "type": "uint256"
        }
      ],
      "stateMutability": "view",
      "type": "function"
    },
    {
      "inputs": [],
      "name": "totalSupply",
      "outputs": [
        {
          "internalType": "uint256",
          "name": "",
          "type": "uint256"
        }
      ],
      "stateMutability": "view",
      "type": "function"
    },
    {
      "inputs": [
        {
          "internalType": "address",
          "name": "to",
          "type": "address"
        },
        {
          "internalType": "uint256",
          "name": "id",
          "type": "uint256"
        }
      ],
      "name": "transfer",
      "outputs": [
        {
          "internalType": "bool",
          "name": "",
          "type": "bool"
        }
      ],
      "stateMutability": "payable",
      "type": "function"
    },
    {
      "inputs": [
        {
          "internalType": "address",
          "name": "from",
          "type": "address"
        },
        {
          "internalType": "address",
          "name": "to",
          "type": "address"
        },
        {
          "internalType": "uint256",
          "name": "id",
          "type": "uint256"
        }
      ],
      "name": "transferFrom",
      "outputs": [],
      "stateMutability": "payable",
      "type": "function"
    },
    {
      "inputs": [
        {
          "internalType": "string",
          "name": "baseURI_",
          "type": "string"
        }
      ],
      "name": "updateURI",
      "outputs": [],
      "stateMutability": "payable",
      "type": "function"
    },
    {
      "stateMutability": "payable",
      "type": "receive"
    }
  ],
  "bytecode": {
    "object": "0x608060405234801561001057600080fd5b50613f45806100206000396000f3fe60806040526004361061026e5760003560e01c8063635e99aa11610153578063a9059cbb116100cb578063c87b56dd1161007f578063e985e9c511610064578063e985e9c51461065a578063f984f42514610695578063fa89f4fe146106a857600080fd5b8063c87b56dd14610627578063d9647e0b1461064757600080fd5b8063affed0e0116100b0578063affed0e0146105eb578063b88d4fde14610601578063c30f4a5a1461061457600080fd5b8063a9059cbb146105b8578063ac9650d8146105cb57600080fd5b80637287a1401161012257806395d89b411161010757806395d89b411461057d5780639a37695914610592578063a22cb465146105a557600080fd5b80637287a1401461053d578063904dfb8e1461055057600080fd5b8063635e99aa146104b55780636c0360eb146104cb57806370a08231146104e057806370ec42e81461050d57600080fd5b80632bf50383116101e6578063513de6cd116101b55780635c16e15e1161019a5780635c16e15e146104385780635c975abb146104655780636352211e1461047f57600080fd5b8063513de6cd146104125780635a0c1e681461042557600080fd5b80632bf50383146103cf5780633644e515146103e2578063385df649146103f757806342842e0e146103ff57600080fd5b8063095ea7b31161023d5780631703a018116102225780631703a0181461039057806318160ddd146103a657806323b872dd146103bc57600080fd5b8063095ea7b314610340578063141a468c1461035557600080fd5b806301ffc9a71461027a57806306fdde03146102af578063081812fc146102d157806308d4e4f01461031f57600080fd5b3661027557005b600080fd5b34801561028657600080fd5b5061029a610295366004612e28565b6106d5565b60405190151581526020015b60405180910390f35b3480156102bb57600080fd5b506102c4610772565b6040516102a69190612e9d565b3480156102dd57600080fd5b506103076102ec366004612eb0565b6006602052600090815260409020546001600160a01b031681565b6040516001600160a01b0390911681526020016102a6565b61033261032d366004612edb565b6107aa565b6040516102a6929190612f10565b61035361034e366004612f42565b6108ff565b005b34801561036157600080fd5b50610382610370366004612eb0565b60026020526000908152604090205481565b6040519081526020016102a6565b34801561039c57600080fd5b50610382600a5481565b3480156103b257600080fd5b50610382600c5481565b6103536103ca366004612f6c565b6109c5565b6103536103dd366004612fba565b610b57565b3480156103ee57600080fd5b50610382610d98565b610353610db6565b61035361040d366004612f6c565b610dfe565b610353610420366004613092565b610efc565b610332610433366004613106565b6111b8565b34801561044457600080fd5b5061038261045336600461316f565b600f6020526000908152604090205481565b34801561047157600080fd5b5060085461029a9060ff1681565b34801561048b57600080fd5b5061030761049a366004612eb0565b6005602052600090815260409020546001600160a01b031681565b3480156104c157600080fd5b50610382600d5481565b3480156104d757600080fd5b506102c46116fd565b3480156104ec57600080fd5b506103826104fb36600461316f565b60046020526000908152604090205481565b34801561051957600080fd5b5061029a61052836600461316f565b60106020526000908152604090205460ff1681565b61035361054b36600461318a565b61178b565b34801561055c57600080fd5b5061038261056b36600461316f565b60036020526000908152604090205481565b34801561058957600080fd5b506102c46119c8565b6103536105a036600461324c565b6119df565b6103536105b3366004613316565b611b32565b61029a6105c6366004612f42565b611b9e565b6105de6105d9366004613349565b611cb2565b6040516102a6919061338b565b3480156105f757600080fd5b5061038260095481565b61035361060f36600461342f565b611e22565b61035361062236600461349e565b611f10565b34801561063357600080fd5b506102c4610642366004612eb0565b611f98565b6103536106553660046134d4565b6120d4565b34801561066657600080fd5b5061029a610675366004613520565b600760209081526000928352604080842090915290825290205460ff1681565b6103536106a336600461316f565b6122da565b3480156106b457600080fd5b506103826106c336600461316f565b600e6020526000908152604090205481565b60007f01ffc9a7000000000000000000000000000000000000000000000000000000006001600160e01b03198316148061073857507f80ac58cd000000000000000000000000000000000000000000000000000000006001600160e01b03198316145b8061076c57507f5b5e139f000000000000000000000000000000000000000000000000000000006001600160e01b03198316145b92915050565b6060600119368181013560f01c900301355b60405160200161079691815260200190565b604051602081830303815290604052905090565b3360009081526010602052604081205460609060ff166107dd57604051631dd2188d60e31b815260040160405180910390fd5b6107ed608084016060850161354a565b15610893576107ff602084018461316f565b6001600160a01b0316602084013561081a6040860186613565565b6040516108289291906135ac565b60006040518083038185875af1925050503d8060008114610865576040519150601f19603f3d011682016040523d82523d6000602084013e61086a565b606091505b5090925090508161088e5760405163d6bed87360e01b815260040160405180910390fd5b915091565b6108a0602084018461316f565b6001600160a01b03166108b66040850185613565565b6040516108c49291906135ac565b600060405180830381855af49150503d8060008114610865576040519150601f19603f3d011682016040523d82523d6000602084013e61086a565b6000818152600560205260409020546001600160a01b031633811480159061094b57506001600160a01b038116600090815260076020908152604080832033845290915290205460ff16155b1561096957604051631dd2188d60e31b815260040160405180910390fd5b60008281526006602052604080822080546001600160a01b0319166001600160a01b0387811691821790925591518593918516917f8c5be1e5ebec7d5bd14f71427d1e84f3dd0314c0f7b2291e5b200ac8c7c3b92591a4505050565b60085460ff16156109e9576040516313d0ff5960e31b815260040160405180910390fd5b6000818152600560205260409020546001600160a01b03848116911614610a23576040516330cd747160e01b815260040160405180910390fd5b6001600160a01b038216610a4a57604051634e46966960e11b815260040160405180910390fd5b336001600160a01b03841614801590610a7a57506000818152600660205260409020546001600160a01b03163314155b8015610aaa57506001600160a01b038316600090815260076020908152604080832033845290915290205460ff16155b15610ac857604051631dd2188d60e31b815260040160405180910390fd5b6001600160a01b0380841660008181526004602090815260408083208054600019019055938616808352848320805460010190558583526006825284832080546001600160a01b03199081169091556005909252848320805490921681179091559251849392917fddf252ad1be2c89b69c2b068fc378daa952ba7f163c4a11628f55a4df523b3ef91a4505050565b81421115610b7857604051630819bdcd60e01b815260040160405180910390fd5b6000838152600560205260408120546001600160a01b031690610b99610d98565b60008681526002602090815260408083208054600180820190925582517ff01eb1ca10960d4c3e51084e76fe5255d292d4b84c5297cdd41025ecd1f10ead818601526001600160a01b038d1681850152606081018c9052608081019190915260a08082018b90528351808303909101815260c08201845280519085012061190160f01b60e083015260e282019690965261010280820196909652825180820390960186526101220190915283519382019390932093509091908390610c60908701876135bc565b604080516000815260208181018084529490945260ff9092168282015291870135606082015290860135608082015260a0016020604051602081039080840390855afa158015610cb4573d6000803e3d6000fd5b505050602060405103519050826001600160a01b0316816001600160a01b031614158015610d0857506001600160a01b0380841660009081526007602090815260408083209385168352929052205460ff16155b80610d1a57506001600160a01b038116155b15610d3857604051638baa579f60e01b815260040160405180910390fd5b505060008481526006602052604080822080546001600160a01b0319166001600160a01b0389811691821790925591518793918516917f8c5be1e5ebec7d5bd14f71427d1e84f3dd0314c0f7b2291e5b200ac8c7c3b92591a45050505050565b600080544614610daf57610daa612369565b905090565b5060015490565b333014801590610dd657503360009081526010602052604090205460ff16155b15610df457604051631dd2188d60e31b815260040160405180910390fd5b610dfc6123fe565b565b60085460ff1615610e22576040516313d0ff5960e31b815260040160405180910390fd5b610e2d8383836109c5565b6001600160a01b0382163b15801590610ed95750604051630a85bd0160e11b8082523360048301526001600160a01b03858116602484015260448301849052608060648401526000608484015290919084169063150b7a029060a4016020604051808303816000875af1158015610ea8573d6000803e3d6000fd5b505050506040513d601f19601f82011682018060405250810190610ecc91906135df565b6001600160e01b03191614155b15610ef757604051634e46966960e11b815260040160405180910390fd5b505050565b333014801590610f1c57503360009081526010602052604090205460ff16155b15610f3a57604051631dd2188d60e31b815260040160405180910390fd5b83828114610f74576040517f266c51bb00000000000000000000000000000000000000000000000000000000815260040160405180910390fd5b60008060005b8381101561110957868682818110610f9457610f946135fc565b9050602002016020810190610fa9919061354a565b1561100557610ffa898983818110610fc357610fc36135fc565b610fd9926020606090920201908101915061316f565b8a8a84818110610feb57610feb6135fc565b9050606002016020013561244b565b600190920191611037565b61102989898381811061101a5761101a6135fc565b905060600201602001356125f3565b8261103381613628565b9350505b888882818110611049576110496135fc565b905060600201604001356000146111015788888281811061106c5761106c6135fc565b90506060020160400135600e60008b8b8581811061108c5761108c6135fc565b6110a2926020606090920201908101915061316f565b6001600160a01b03166001600160a01b0316815260200190815260200160002060008282546110d1919061363f565b9091555089905088828181106110e9576110e96135fc565b90506060020160400135826110fe919061363f565b91505b600101610f7a565b5081156111285781600c6000828254611122919061363f565b90915550505b80156111465780600d6000828254611140919061363f565b90915550505b600c5484111561116957604051633f65b79560e01b815260040160405180910390fd5b600a8490556040517fe12b1187b552302833d30913c98376c2491a33ff74a01dcf02ad2fab87bfcd50906111a6908a908a908a908a908a90613657565b60405180910390a15050505050505050565b6000606060006111c6610d98565b7fff87d0f0280b5799311a7aed7e5d5321d2835110a6d3f8856333d5a9485ed2dc6111f4602089018961316f565b602089013561120660408b018b613565565b61121660808d0160608e0161354a565b6009805460018101909155604051611237979695949392919060200161372a565b6040516020818303038152906040528051906020012060405160200161127492919061190160f01b81526002810192909252602282015260420190565b60408051601f19818403018152919052805160209091012090506000805b600a548110156115465760006001848989858181106112b3576112b36135fc565b6112c992602060609092020190810191506135bc565b8a8a868181106112db576112db6135fc565b905060600201602001358b8b878181106112f7576112f76135fc565b9050606002016040013560405160008152602001604052604051611337949392919093845260ff9290921660208401526040830152606082015260800190565b6020604051602081039080840390855afa158015611359573d6000803e3d6000fd5b5050604051601f1901519150506001600160a01b0381163b158015906114c95750806001600160a01b0316631626ba7e858a8a8681811061139c5761139c6135fc565b905060600201602001358b8b878181106113b8576113b86135fc565b905060600201604001358c8c888181106113d4576113d46135fc565b6113ea92602060609092020190810191506135bc565b60405160200161143293929190928352602083019190915260f81b7fff0000000000000000000000000000000000000000000000000000000000000016604082015260410190565b6040516020818303038152906040526040518363ffffffff1660e01b815260040161145e92919061376f565b602060405180830381865afa15801561147b573d6000803e3d6000fd5b505050506040513d601f19601f8201168201806040525081019061149f91906135df565b7bffffffffffffffffffffffffffffffffffffffffffffffffffffffff1916631626ba7e60e01b14155b156114e757604051632057875960e21b815260040160405180910390fd5b6001600160a01b038116600090815260046020526040902054158061151e5750806001600160a01b0316836001600160a01b031610155b1561153c57604051632057875960e21b815260040160405180910390fd5b9150600101611292565b5061155a915050608086016060870161354a565b156116005761156c602086018661316f565b6001600160a01b031660208601356115876040880188613565565b6040516115959291906135ac565b60006040518083038185875af1925050503d80600081146115d2576040519150601f19603f3d011682016040523d82523d6000602084013e6115d7565b606091505b509092509050816115fb5760405163d6bed87360e01b815260040160405180910390fd5b611695565b61160d602086018661316f565b6001600160a01b03166116236040870187613565565b6040516116319291906135ac565b600060405180830381855af49150503d806000811461166c576040519150601f19603f3d011682016040523d82523d6000602084013e611671565b606091505b509092509050816116955760405163d6bed87360e01b815260040160405180910390fd5b6116a2602086018661316f565b6001600160a01b03167f4a0de09071d37e2800c1dcc9027a0030cd5202f3a5a766952307470adc640c5760208701356116de6040890189613565565b6040516116ed93929190613788565b60405180910390a2935093915050565b600b805461170a906137ab565b80601f0160208091040260200160405190810160405280929190818152602001828054611736906137ab565b80156117835780601f1061175857610100808354040283529160200191611783565b820191906000526020600020905b81548152906001019060200180831161176657829003601f168201915b505050505081565b814211156117ac57604051630819bdcd60e01b815260040160405180910390fd5b60006117b6610d98565b6001600160a01b0386811660008181526003602090815260408083208054600180820190925582517f16efd59368a9abbac9954a7e691dd7d75c14d374c4fd2e0ea5eb8eebe3cfc3fd8186015280840196909652958b166060860152608085019590955260a08085018a90528151808603909101815260c08501825280519083012061190160f01b60e086015260e2850196909652610102808501969096528051808503909601865261012290930190925283519382019390932093508390611881908601866135bc565b604080516000815260208181018084529490945260ff9092168282015291860135606082015290850135608082015260a0016020604051602081039080840390855afa1580156118d5573d6000803e3d6000fd5b505050602060405103519050856001600160a01b0316816001600160a01b03161415801561192957506001600160a01b0380871660009081526007602090815260408083209385168352929052205460ff16155b8061193b57506001600160a01b038116155b1561195957604051638baa579f60e01b815260040160405180910390fd5b50506001600160a01b03848116600081815260076020908152604080832094881680845294825291829020805460ff1916600190811790915591519182527f17307eab39ab6107e8899845ad3d59bd9653f200f220920489ca2b5937696c31910160405180910390a350505050565b6060601e3660011981013560f01c90030135610784565b60095415611a19576040517f5daa87a000000000000000000000000000000000000000000000000000000000815260040160405180910390fd5b611a22826126bd565b8380841115611a4457604051633f65b79560e01b815260040160405180910390fd5b60008060005b83811015611aff57611a67898983818110610fc357610fc36135fc565b888882818110611a7957611a796135fc565b90506060020160400135600e60008b8b85818110611a9957611a996135fc565b611aaf926020606090920201908101915061316f565b6001600160a01b03168152602081019190915260400160002055888882818110611adb57611adb6135fc565b9050606002016040013582611af0919061363f565b60019384019390925001611a4a565b50600c829055600d8190556001600955600a8690558351611b2790600b906020870190612d02565b505050505050505050565b3360008181526007602090815260408083206001600160a01b03871680855290835292819020805460ff191686151590811790915590519081529192917f17307eab39ab6107e8899845ad3d59bd9653f200f220920489ca2b5937696c31910160405180910390a35050565b60085460009060ff1615611bc5576040516313d0ff5960e31b815260040160405180910390fd5b6000828152600560205260409020546001600160a01b03163314611bfc576040516330cd747160e01b815260040160405180910390fd5b6001600160a01b038316611c2357604051634e46966960e11b815260040160405180910390fd5b33600081815260046020908152604080832080546000190190556001600160a01b038716808452818420805460010190558684526006835281842080546001600160a01b031990811690915560059093528184208054909316811790925551859391927fddf252ad1be2c89b69c2b068fc378daa952ba7f163c4a11628f55a4df523b3ef91a450600192915050565b60608167ffffffffffffffff811115611ccd57611ccd6131dd565b604051908082528060200260200182016040528015611d0057816020015b6060815260200190600190039081611ceb5790505b50905060005b82811015611e1b5760008030868685818110611d2457611d246135fc565b9050602002810190611d369190613565565b604051611d449291906135ac565b600060405180830381855af49150503d8060008114611d7f576040519150601f19603f3d011682016040523d82523d6000602084013e611d84565b606091505b509150915081611df357604481511015611d9d57600080fd5b60048101905080806020019051810190611db791906137e0565b6040517f08c379a0000000000000000000000000000000000000000000000000000000008152600401611dea9190612e9d565b60405180910390fd5b80848481518110611e0657611e066135fc565b60209081029190910101525050600101611d06565b5092915050565b60085460ff1615611e46576040516313d0ff5960e31b815260040160405180910390fd5b611e518585856109c5565b6001600160a01b0384163b15801590611eeb5750604051630a85bd0160e11b808252906001600160a01b0386169063150b7a0290611e9b9033908a9089908990899060040161384e565b6020604051808303816000875af1158015611eba573d6000803e3d6000fd5b505050506040513d601f19601f82011682018060405250810190611ede91906135df565b6001600160e01b03191614155b15611f0957604051634e46966960e11b815260040160405180910390fd5b5050505050565b333014801590611f3057503360009081526010602052604090205460ff16155b15611f4e57604051631dd2188d60e31b815260040160405180910390fd5b611f5a600b8383612d86565b507fe1ef6a38379af51d9b4ed4a0464fb7299395dc22a902e19ff32fcc69c3b08a158282604051611f8c92919061388c565b60405180910390a15050565b60606000600b8054611fa9906137ab565b80601f0160208091040260200160405190810160405280929190818152602001828054611fd5906137ab565b80156120225780601f10611ff757610100808354040283529160200191612022565b820191906000526020600020905b81548152906001019060200180831161200557829003601f168201915b505050505090508051600014156120415761203c836126dd565b6120cd565b600b805461204e906137ab565b80601f016020809104026020016040519081016040528092919081815260200182805461207a906137ab565b80156120c75780601f1061209c576101008083540402835291602001916120c7565b820191906000526020600020905b8154815290600101906020018083116120aa57829003601f168201915b50505050505b9392505050565b8160005b81811015612188578015612180578484600183038181106120fb576120fb6135fc565b9050602002016020810190612110919061316f565b6001600160a01b031685858381811061212b5761212b6135fc565b9050602002016020810190612140919061316f565b6001600160a01b031611612180576040517f02aac90c00000000000000000000000000000000000000000000000000000000815260040160405180910390fd5b6001016120d8565b50600d54336000908152600e6020526040812080548592906121ab9084906138a0565b9091555050600d8054849003905560005b828110156122d2576000828787848181106121d9576121d96135fc565b90506020020160208101906121ee919061316f565b6040517f70a082310000000000000000000000000000000000000000000000000000000081523060048201526001600160a01b0391909116906370a0823190602401602060405180830381865afa15801561224d573d6000803e3d6000fd5b505050506040513d601f19601f8201168201806040525081019061227191906138b7565b61227b90876138d0565b6122859190613905565b905080156122c9576122c933828989868181106122a4576122a46135fc565b90506020020160208101906122b9919061316f565b6001600160a01b031691906127f3565b506001016121bc565b505050505050565b3330148015906122fa57503360009081526010602052604090205460ff16155b1561231857604051631dd2188d60e31b815260040160405180910390fd5b6001600160a01b038116600081815260106020526040808220805460ff19811660ff90911615179055517f34d3d976ee8e279d32998ac2dc88aa297fdaac240bc8b2dd9d5b65a7c2e8c5129190a250565b60007f8b73c3c69bb8fe3d512ecc4cf759cc79239f7b179b0ffacaa9a75d522b39400f612394610772565b80516020918201206040805192830193909352918101919091527fc89efdaa54c0f20c7adf612882df0950f5a951637e0307cdcb4c672f298b8bc660608201524660808201523060a082015260c00160405160208183030381529060405280519060200120905090565b6008805460ff8082161560ff1990921682179092556040519116151581527f28ef61d7a1c224006e6530d510be74c9c673f4a9896202105e3d4f60511779d19060200160405180910390a1565b6001600160a01b03821661247257604051634e46966960e11b815260040160405180910390fd5b6000818152600560205260409020546001600160a01b0316156124c1576040517fddefae2800000000000000000000000000000000000000000000000000000000815260040160405180910390fd5b6001600160a01b038216600081815260046020908152604080832080546001019055848352600590915280822080546001600160a01b0319168417905551839291907fddf252ad1be2c89b69c2b068fc378daa952ba7f163c4a11628f55a4df523b3ef908290a46001600160a01b0382163b158015906125d15750604051630a85bd0160e11b80825233600483015260006024830181905260448301849052608060648401526084830152906001600160a01b0384169063150b7a029060a4016020604051808303816000875af11580156125a0573d6000803e3d6000fd5b505050506040513d601f19601f820116820180604052508101906125c491906135df565b6001600160e01b03191614155b156125ef57604051634e46966960e11b815260040160405180910390fd5b5050565b6000818152600560205260409020546001600160a01b031680612642576040517f4d5e5fb300000000000000000000000000000000000000000000000000000000815260040160405180910390fd5b6001600160a01b038116600081815260046020908152604080832080546000190190558583526005825280832080546001600160a01b031990811690915560069092528083208054909216909155518492907fddf252ad1be2c89b69c2b068fc378daa952ba7f163c4a11628f55a4df523b3ef908390a45050565b6008805460ff1916821515179055466000556126d7612369565b60015550565b6000818152600560205260408120546060916001600160a01b039091169061270482612883565b6001600160a01b0383166000908152600e6020526040902054612726906129c3565b604051602001612737929190613919565b604051602081830303815290604052905060008160405160200161275b9190613a7a565b6040516020818303038152906040529050600061277782612ae5565b6040516020016127879190613ba4565b60405160208183030381529060405290506127c96127a3610772565b826040516020016127b5929190613be9565b604051602081830303815290604052612ae5565b6040516020016127d99190613ce0565b604051602081830303815290604052945050505050919050565b60006040517fa9059cbb0000000000000000000000000000000000000000000000000000000081526001600160a01b03841660048201528260248201526000806044836000895af191505061284781612c82565b61287d576040517f90b8ec1800000000000000000000000000000000000000000000000000000000815260040160405180910390fd5b50505050565b60408051602880825260608281019093526000919060208201818036833701905050905060005b6014811015611e1b5760006128c08260136138a0565b6128cb9060086138d0565b6128d6906002613e09565b6128e9906001600160a01b038716613905565b60f81b9050600060108260f81c6129009190613e15565b60f81b905060008160f81c60106129179190613e37565b8360f81c6129259190613e58565b60f81b905061293382612cc7565b8561293f8660026138d0565b8151811061294f5761294f6135fc565b60200101906001600160f81b031916908160001a90535061296f81612cc7565b8561297b8660026138d0565b61298690600161363f565b81518110612996576129966135fc565b60200101906001600160f81b031916908160001a90535050505080806129bb90613e7b565b9150506128aa565b606081612a0357505060408051808201909152600181527f3000000000000000000000000000000000000000000000000000000000000000602082015290565b8160005b8115612a2d5780612a1781613e7b565b9150612a269050600a83613905565b9150612a07565b60008167ffffffffffffffff811115612a4857612a486131dd565b6040519080825280601f01601f191660200182016040528015612a72576020820181803683370190505b5090505b8415612add57612a876001836138a0565b9150612a94600a86613e96565b612a9f90603061363f565b60f81b818381518110612ab457612ab46135fc565b60200101906001600160f81b031916908160001a905350612ad6600a86613905565b9450612a76565b949350505050565b805160609080612b05575050604080516020810190915260008152919050565b60006003612b1483600261363f565b612b1e9190613905565b612b299060046138d0565b90506000612b3882602061363f565b67ffffffffffffffff811115612b5057612b506131dd565b6040519080825280601f01601f191660200182016040528015612b7a576020820181803683370190505b5090506000604051806060016040528060408152602001613ed0604091399050600181016020830160005b86811015612c06576003818a01810151603f601282901c8116860151600c83901c8216870151600684901c831688015192909316870151600891821b60ff94851601821b92841692909201901b91160160e01b835260049092019101612ba5565b506003860660018114612c205760028114612c4c57612c74565b7f3d3d000000000000000000000000000000000000000000000000000000000000600119830152612c74565b7f3d000000000000000000000000000000000000000000000000000000000000006000198301525b505050918152949350505050565b600081612c93573d6000803e3d6000fd5b3d60208114612cab578015612cbc5760009150612cc1565b3d6000803e60005115159150612cc1565b600191505b50919050565b6000600a60f883901c1015612cee57612ce560f883901c6030613eaa565b60f81b92915050565b612ce560f883901c6057613eaa565b919050565b828054612d0e906137ab565b90600052602060002090601f016020900481019282612d305760008555612d76565b82601f10612d4957805160ff1916838001178555612d76565b82800160010185558215612d76579182015b82811115612d76578251825591602001919060010190612d5b565b50612d82929150612dfa565b5090565b828054612d92906137ab565b90600052602060002090601f016020900481019282612db45760008555612d76565b82601f10612dcd5782800160ff19823516178555612d76565b82800160010185558215612d76579182015b82811115612d76578235825591602001919060010190612ddf565b5b80821115612d825760008155600101612dfb565b6001600160e01b031981168114612e2557600080fd5b50565b600060208284031215612e3a57600080fd5b81356120cd81612e0f565b60005b83811015612e60578181015183820152602001612e48565b8381111561287d5750506000910152565b60008151808452612e89816020860160208601612e45565b601f01601f19169290920160200192915050565b6020815260006120cd6020830184612e71565b600060208284031215612ec257600080fd5b5035919050565b600060808284031215612cc157600080fd5b600060208284031215612eed57600080fd5b813567ffffffffffffffff811115612f0457600080fd5b612add84828501612ec9565b8215158152604060208201526000612add6040830184612e71565b80356001600160a01b0381168114612cfd57600080fd5b60008060408385031215612f5557600080fd5b612f5e83612f2b565b946020939093013593505050565b600080600060608486031215612f8157600080fd5b612f8a84612f2b565b9250612f9860208501612f2b565b9150604084013590509250925092565b600060608284031215612cc157600080fd5b60008060008060c08587031215612fd057600080fd5b612fd985612f2b565b93506020850135925060408501359150612ff68660608701612fa8565b905092959194509250565b60008083601f84011261301357600080fd5b50813567ffffffffffffffff81111561302b57600080fd5b60208301915083602060608302850101111561304657600080fd5b9250929050565b60008083601f84011261305f57600080fd5b50813567ffffffffffffffff81111561307757600080fd5b6020830191508360208260051b850101111561304657600080fd5b6000806000806000606086880312156130aa57600080fd5b853567ffffffffffffffff808211156130c257600080fd5b6130ce89838a01613001565b909750955060208801359150808211156130e757600080fd5b506130f48882890161304d565b96999598509660400135949350505050565b60008060006040848603121561311b57600080fd5b833567ffffffffffffffff8082111561313357600080fd5b61313f87838801612ec9565b9450602086013591508082111561315557600080fd5b5061316286828701613001565b9497909650939450505050565b60006020828403121561318157600080fd5b6120cd82612f2b565b60008060008060c085870312156131a057600080fd5b6131a985612f2b565b93506131b760208601612f2b565b925060408501359150612ff68660608701612fa8565b80358015158114612cfd57600080fd5b634e487b7160e01b600052604160045260246000fd5b604051601f8201601f1916810167ffffffffffffffff8111828210171561321c5761321c6131dd565b604052919050565b600067ffffffffffffffff82111561323e5761323e6131dd565b50601f01601f191660200190565b60008060008060006080868803121561326457600080fd5b853567ffffffffffffffff8082111561327c57600080fd5b61328889838a01613001565b9097509550602088013594508591506132a3604089016131cd565b935060608801359150808211156132b957600080fd5b508601601f810188136132cb57600080fd5b80356132de6132d982613224565b6131f3565b8181528960208385010111156132f357600080fd5b816020840160208301376000602083830101528093505050509295509295909350565b6000806040838503121561332957600080fd5b61333283612f2b565b9150613340602084016131cd565b90509250929050565b6000806020838503121561335c57600080fd5b823567ffffffffffffffff81111561337357600080fd5b61337f8582860161304d565b90969095509350505050565b6000602080830181845280855180835260408601915060408160051b870101925083870160005b828110156133e057603f198886030184526133ce858351612e71565b945092850192908501906001016133b2565b5092979650505050505050565b60008083601f8401126133ff57600080fd5b50813567ffffffffffffffff81111561341757600080fd5b60208301915083602082850101111561304657600080fd5b60008060008060006080868803121561344757600080fd5b61345086612f2b565b945061345e60208701612f2b565b935060408601359250606086013567ffffffffffffffff81111561348157600080fd5b61348d888289016133ed565b969995985093965092949392505050565b600080602083850312156134b157600080fd5b823567ffffffffffffffff8111156134c857600080fd5b61337f858286016133ed565b6000806000604084860312156134e957600080fd5b833567ffffffffffffffff81111561350057600080fd5b61350c8682870161304d565b909790965060209590950135949350505050565b6000806040838503121561353357600080fd5b61353c83612f2b565b915061334060208401612f2b565b60006020828403121561355c57600080fd5b6120cd826131cd565b6000808335601e1984360301811261357c57600080fd5b83018035915067ffffffffffffffff82111561359757600080fd5b60200191503681900382131561304657600080fd5b8183823760009101908152919050565b6000602082840312156135ce57600080fd5b813560ff811681146120cd57600080fd5b6000602082840312156135f157600080fd5b81516120cd81612e0f565b634e487b7160e01b600052603260045260246000fd5b634e487b7160e01b600052601160045260246000fd5b60008161363757613637613612565b506000190190565b6000821982111561365257613652613612565b500190565b60608082528181018690526000908760808401835b898110156136ac576001600160a01b0361368584612f2b565b1682526020838101359083015260408084013590830152918301919083019060010161366c565b508481036020868101919091528782529250820190508660005b878110156136eb576136d7826131cd565b1515835291830191908301906001016136c6565b5050604093909301939093525095945050505050565b81835281816020850137506000828201602090810191909152601f909101601f19169091010190565b8781526001600160a01b038716602082015285604082015260c06060820152600061375960c083018688613701565b93151560808301525060a0015295945050505050565b828152604060208201526000612add6040830184612e71565b8381526040602082015260006137a2604083018486613701565b95945050505050565b600181811c908216806137bf57607f821691505b60208210811415612cc157634e487b7160e01b600052602260045260246000fd5b6000602082840312156137f257600080fd5b815167ffffffffffffffff81111561380957600080fd5b8201601f8101841361381a57600080fd5b80516138286132d982613224565b81815285602083850101111561383d57600080fd5b6137a2826020830160208601612e45565b60006001600160a01b03808816835280871660208401525084604083015260806060830152613881608083018486613701565b979650505050505050565b602081526000612add602083018486613701565b6000828210156138b2576138b2613612565b500390565b6000602082840312156138c957600080fd5b5051919050565b60008160001904831182151516156138ea576138ea613612565b500290565b634e487b7160e01b600052601260045260246000fd5b600082613914576139146138ef565b500490565b60007f3c7465787420646f6d696e616e742d626173656c696e653d226d6964646c65228083527f20746578742d616e63686f723d226d6964646c65222066696c6c3d22776869748060208501527f652220783d223530252220793d2239307078223e00000000000000000000000060408501527f3078000000000000000000000000000000000000000000000000000000000000605485015285516139c5816056870160208a01612e45565b80850190507f3c2f746578743e0000000000000000000000000000000000000000000000000080605683015283605d83015282607d8301527f652220783d22313030252220793d223138307078223e00000000000000000000609d83015286519350613a388460b3840160208a01612e45565b83820193507f204c6f6f7400000000000000000000000000000000000000000000000000000060b38501528060b885015250505060bf81019150509392505050565b7f3c73766720786d6c6e733d22687474703a2f2f7777772e77332e6f72672f323081527f30302f737667222076696577426f783d2230203020343030203430302220707260208201527f657365727665417370656374526174696f3d22784d6964594d6964206d65657460408201527f22207374796c653d22666f6e743a31347078207365726966223e3c726563742060608201527f77696474683d2234303022206865696768743d22343030222066696c6c3d226260808201527f6c61636b22202f3e00000000000000000000000000000000000000000000000060a082015260008251613b708160a8850160208701612e45565b7f3c2f7376673e000000000000000000000000000000000000000000000000000060a893909101928301525060ae01919050565b7f646174613a696d6167652f7376672b786d6c3b6261736536342c000000000000815260008251613bdc81601a850160208701612e45565b91909101601a0192915050565b7f7b226e616d65223a220000000000000000000000000000000000000000000000815260008351613c21816009850160208801612e45565b7f222c2022696d616765223a2200000000000000000000000000000000000000006009918401918201528351613c5e816015840160208801612e45565b7f222c20226465736372697074696f6e223a202254686520686f6c646572206f66601592909101918201527f2074686973204e4654206973206120636c7562206b6579207369676e6572207760358201527f69746820696d7065636361626c652074617374652e227d0000000000000000006055820152606c01949350505050565b7f646174613a6170706c69636174696f6e2f6a736f6e3b6261736536342c000000815260008251613d1881601d850160208701612e45565b91909101601d0192915050565b600181815b80851115613d60578160001904821115613d4657613d46613612565b80851615613d5357918102915b93841c9390800290613d2a565b509250929050565b600082613d775750600161076c565b81613d845750600061076c565b8160018114613d9a5760028114613da457613dc0565b600191505061076c565b60ff841115613db557613db5613612565b50506001821b61076c565b5060208310610133831016604e8410600b8410161715613de3575081810a61076c565b613ded8383613d25565b8060001904821115613e0157613e01613612565b029392505050565b60006120cd8383613d68565b600060ff831680613e2857613e286138ef565b8060ff84160491505092915050565b600060ff821660ff84168160ff0481118215151615613e0157613e01613612565b600060ff821660ff841680821015613e7257613e72613612565b90039392505050565b6000600019821415613e8f57613e8f613612565b5060010190565b600082613ea557613ea56138ef565b500690565b600060ff821660ff84168060ff03821115613ec757613ec7613612565b01939250505056fe4142434445464748494a4b4c4d4e4f505152535455565758595a6162636465666768696a6b6c6d6e6f707172737475767778797a303132333435363738392b2fa2646970667358221220f401d926dc0b8d08c25381da57d4847a2459a6560663caf11c7f8f5bd5ff11ba64736f6c634300080c0033",
    "linkReferences": {}
  }
}