{
  "abi": [
    {
      "inputs": [
        {
          "internalType": "contract Keep",
          "name": "_keepTemplate",
          "type": "address"
        }
      ],
      "stateMutability": "payable",
      "type": "constructor"
    },
    {
      "anonymous": false,
      "inputs": [
        {
          "components": [
            {
              "internalType": "enum Operation",
              "name": "op",
              "type": "uint8"
            },
            {
              "internalType": "address",
              "name": "to",
              "type": "address"
            },
            {
              "internalType": "uint256",
              "name": "value",
              "type": "uint256"
            },
            {
              "internalType": "bytes",
              "name": "data",
              "type": "bytes"
            }
          ],
          "indexed": false,
          "internalType": "struct Call[]",
          "name": "calls",
          "type": "tuple[]"
        },
        {
          "indexed": false,
          "internalType": "address[]",
          "name": "signers",
          "type": "address[]"
        },
        {
          "indexed": false,
          "internalType": "uint256",
          "name": "threshold",
          "type": "uint256"
        },
        {
          "indexed": false,
          "internalType": "bytes32",
          "name": "name",
          "type": "bytes32"
        }
      ],
      "name": "Deployed",
      "type": "event"
    },
    {
      "inputs": [
        {
          "components": [
            {
              "internalType": "enum Operation",
              "name": "op",
              "type": "uint8"
            },
            {
              "internalType": "address",
              "name": "to",
              "type": "address"
            },
            {
              "internalType": "uint256",
              "name": "value",
              "type": "uint256"
            },
            {
              "internalType": "bytes",
              "name": "data",
              "type": "bytes"
            }
          ],
          "internalType": "struct Call[]",
          "name": "calls",
          "type": "tuple[]"
        },
        {
          "internalType": "address[]",
          "name": "signers",
          "type": "address[]"
        },
        {
          "internalType": "uint256",
          "name": "threshold",
          "type": "uint256"
        },
        {
          "internalType": "bytes32",
          "name": "name",
          "type": "bytes32"
        }
      ],
      "name": "deployKeep",
      "outputs": [],
      "stateMutability": "payable",
      "type": "function"
    },
    {
      "inputs": [
        {
          "internalType": "bytes32",
          "name": "name",
          "type": "bytes32"
        }
      ],
      "name": "determineKeep",
      "outputs": [
        {
          "internalType": "address",
          "name": "keep",
          "type": "address"
        }
      ],
      "stateMutability": "view",
      "type": "function"
    },
    {
      "inputs": [
        {
          "internalType": "bytes[]",
          "name": "data",
          "type": "bytes[]"
        }
      ],
      "name": "multicall",
      "outputs": [
        {
          "internalType": "bytes[]",
          "name": "results",
          "type": "bytes[]"
        }
      ],
      "stateMutability": "payable",
      "type": "function"
    }
  ],
  "bytecode": {
    "object": "0x60a06040526040516108b03803806108b083398101604081905261002291610033565b6001600160a01b0316608052610063565b60006020828403121561004557600080fd5b81516001600160a01b038116811461005c57600080fd5b9392505050565b60805161082b6100856000396000818161010f01526102c8015261082b6000f3fe6080604052600436106100345760003560e01c80639ed9358114610039578063ac9650d81461004e578063e6d3d4d014610077575b600080fd5b61004c61004736600461049a565b6100af565b005b61006161005c366004610518565b6101e9565b60405161006e919061055a565b60405180910390f35b34801561008357600080fd5b506100976100923660046105ec565b610268565b6040516001600160a01b03909116815260200161006e565b600061013682466040516020016100f592919091825260d81b7fffffffffff00000000000000000000000000000000000000000000000000000016602082015260250190565b60408051601f198184030181529190526001600160a01b037f00000000000000000000000000000000000000000000000000000000000000001690846102f0565b9050806001600160a01b0316633d30ef473489898989896040518763ffffffff1660e01b815260040161016d95949392919061077e565b6000604051808303818588803b15801561018657600080fd5b505af115801561019a573d6000803e3d6000fd5b50505050507f2a4d399ece8af0eafff4a81c27531a6b6d3027eed8efd2e85cd03294939404a38787878787876040516101d8969594939291906107b8565b60405180910390a150505050505050565b606081156102625750604051818152602001600582901b808483378101805b825185018035602082018337600080823584305af461022b573d6000803e3d6000fd5b508083526020830192503d81523d6000602083013e3d01603f0167ffffffffffffffe0168183106102085760405192508060405250505b92915050565b600061026282466040516020016102ae92919091825260d81b7fffffffffff00000000000000000000000000000000000000000000000000000016602082015260250190565b60408051601f198184030181529190526001600160a01b037f00000000000000000000000000000000000000000000000000000000000000001690843061039b565b6000604083035160208403518451806020870101805160028301603f8101600a81036c5af43d3d93803e603357fd5bf38b528b600d8c03528260481b8160d81b177d6100003d81600a3d39f3363d3d373d3d3d3d610000806035363936013d731760218c0352508160f01b84528881601f8c036000f5975050508561037d5763301164256000526004601cfd5b82885283602089035284604089035280825250505050509392505050565b6000604084035160208503518551806020880101805160028301603f8101600a81036c5af43d3d93803e603357fd5bf38c528c600d8d03528260481b8160d81b177d6100003d81600a3d39f3363d3d373d3d3d3d610000806035363936013d731760218d0352508160f01b845280601f8c0320603552505060ff6000538660601b600152876015526055600020955060006035528289528360208a03528460408a03528082525050505050949350505050565b60008083601f84011261046057600080fd5b50813567ffffffffffffffff81111561047857600080fd5b6020830191508360208260051b850101111561049357600080fd5b9250929050565b600080600080600080608087890312156104b357600080fd5b863567ffffffffffffffff808211156104cb57600080fd5b6104d78a838b0161044e565b909850965060208901359150808211156104f057600080fd5b506104fd89828a0161044e565b979a9699509760408101359660609091013595509350505050565b6000806020838503121561052b57600080fd5b823567ffffffffffffffff81111561054257600080fd5b61054e8582860161044e565b90969095509350505050565b6000602080830181845280855180835260408601915060408160051b87010192508387016000805b838110156105de57888603603f1901855282518051808852835b818110156105b7578281018a01518982018b0152890161059c565b508781018901849052601f01601f1916909601870195509386019391860191600101610582565b509398975050505050505050565b6000602082840312156105fe57600080fd5b5035919050565b80356001600160a01b038116811461061c57600080fd5b919050565b81835281816020850137506000828201602090810191909152601f909101601f19169091010190565b81835260006020808501808196508560051b810191508460005b8781101561072a5782840389528135607e1988360301811261068557600080fd5b8701608081356004811061069857600080fd5b86526001600160a01b036106ad838901610605565b16868801526040828101359087015260608083013536849003601e190181126106d557600080fd5b90920187810192903567ffffffffffffffff8111156106f357600080fd5b80360384131561070257600080fd5b82828901526107148389018286610621565b9c89019c97505050928601925050600101610664565b5091979650505050505050565b8183526000602080850194508260005b85811015610773576001600160a01b0361076083610605565b1687529582019590820190600101610747565b509495945050505050565b60608152600061079260608301878961064a565b82810360208401526107a5818688610737565b9150508260408301529695505050505050565b6080815260006107cc60808301888a61064a565b82810360208401526107df818789610737565b604084019590955250506060015294935050505056fea2646970667358221220fb8ae55e5a8f21eee90786d5c361ec7a58f298ec0be0554f4c61a42f55ea6e6d64736f6c63430008110033",
    "linkReferences": {}
  },
  "methodIdentifiers": {
    "deployKeep((uint8,address,uint256,bytes)[],address[],uint256,bytes32)": "9ed93581",
    "determineKeep(bytes32)": "e6d3d4d0",
    "multicall(bytes[])": "ac9650d8"
  },
  "id": 17
}