{
  "abi": [
    {
      "inputs": [
        {
          "internalType": "contract Keep",
          "name": "_keepTemplate",
          "type": "address"
        }
      ],
      "stateMutability": "payable",
      "type": "constructor"
    },
    {
      "anonymous": false,
      "inputs": [
        {
          "indexed": false,
          "internalType": "contract Keep",
          "name": "keep",
          "type": "address"
        },
        {
          "indexed": false,
          "internalType": "bytes32",
          "name": "name",
          "type": "bytes32"
        },
        {
          "indexed": false,
          "internalType": "address[]",
          "name": "signers",
          "type": "address[]"
        },
        {
          "indexed": false,
          "internalType": "uint256",
          "name": "threshold",
          "type": "uint256"
        }
      ],
      "name": "Deployed",
      "type": "event"
    },
    {
      "inputs": [
        {
          "internalType": "bytes32",
          "name": "name",
          "type": "bytes32"
        },
        {
          "components": [
            {
              "internalType": "enum Operation",
              "name": "op",
              "type": "uint8"
            },
            {
              "internalType": "address",
              "name": "to",
              "type": "address"
            },
            {
              "internalType": "uint256",
              "name": "value",
              "type": "uint256"
            },
            {
              "internalType": "bytes",
              "name": "data",
              "type": "bytes"
            }
          ],
          "internalType": "struct Call[]",
          "name": "calls",
          "type": "tuple[]"
        },
        {
          "internalType": "address[]",
          "name": "signers",
          "type": "address[]"
        },
        {
          "internalType": "uint256",
          "name": "threshold",
          "type": "uint256"
        }
      ],
      "name": "deployKeep",
      "outputs": [],
      "stateMutability": "payable",
      "type": "function"
    },
    {
      "inputs": [
        {
          "internalType": "bytes32",
          "name": "name",
          "type": "bytes32"
        }
      ],
      "name": "determineKeep",
      "outputs": [
        {
          "internalType": "address",
          "name": "",
          "type": "address"
        }
      ],
      "stateMutability": "view",
      "type": "function"
    },
    {
      "inputs": [
        {
          "internalType": "bytes[]",
          "name": "data",
          "type": "bytes[]"
        }
      ],
      "name": "multicall",
      "outputs": [
        {
          "internalType": "bytes[]",
          "name": "results",
          "type": "bytes[]"
        }
      ],
      "stateMutability": "payable",
      "type": "function"
    }
  ],
  "bytecode": {
    "object": "0x60a0604052604051610aa2380380610aa283398101604081905261002291610033565b6001600160a01b0316608052610063565b60006020828403121561004557600080fd5b81516001600160a01b038116811461005c57600080fd5b9392505050565b608051610a1d6100856000396000818161014701526103360152610a1d6000f3fe6080604052600436106100345760003560e01c80630d0ed91114610039578063ac9650d81461004e578063e6d3d4d014610077575b600080fd5b61004c6100473660046105df565b6100bc565b005b61006161005c366004610661565b61022c565b60405161006e91906106a3565b60405180910390f35b34801561008357600080fd5b50610097610092366004610771565b6102ab565b60405173ffffffffffffffffffffffffffffffffffffffff909116815260200161006e565b600061016e874660405160200161010292919091825260d81b7fffffffffff00000000000000000000000000000000000000000000000000000016602082015260250190565b604080517fffffffffffffffffffffffffffffffffffffffffffffffffffffffffffffffe081840301815291905273ffffffffffffffffffffffffffffffffffffffff7f000000000000000000000000000000000000000000000000000000000000000016908961035e565b90508073ffffffffffffffffffffffffffffffffffffffff16633d30ef473488888888886040518763ffffffff1660e01b81526004016101b2959493929190610850565b6000604051808303818588803b1580156101cb57600080fd5b505af11580156101df573d6000803e3d6000fd5b50505050507f47bb209bef49387cab85cf8aa2da1b89438cf8d38792d22ab38093b70c607468818886868660405161021b9594939291906109c8565b60405180910390a150505050505050565b606081156102a55750604051818152602001600582901b808483378101805b825185018035602082018337600080823584305af461026e573d6000803e3d6000fd5b508083526020830192503d81523d6000602083013e3d01603f0167ffffffffffffffe01681831061024b5760405192508060405250505b92915050565b60006102a582466040516020016102f192919091825260d81b7fffffffffff00000000000000000000000000000000000000000000000000000016602082015260250190565b604080517fffffffffffffffffffffffffffffffffffffffffffffffffffffffffffffffe081840301815291905273ffffffffffffffffffffffffffffffffffffffff7f00000000000000000000000000000000000000000000000000000000000000001690843061049f565b600060608303516040840351602085035185518060208801018051600283016c5af43d3d93803e606057fd5bf38a528a600d8b035278593da1005b363d3d373d3d3d3d610000806062363936013d738160481b1760218b03527f9e4ac34f21c619cefc926c8bd93b54bf5a39c7ab2127a895af1cc0691d7e3dff603a8b0352716100003d81600a3d39f336602c57343d527f6062820160781b17605a8b03528060f01b835288606c8201604c8c036000f5975050866104255763301164256000526004601cfd5b905286527fffffffffffffffffffffffffffffffffffffffffffffffffffffffffffffffe08601527fffffffffffffffffffffffffffffffffffffffffffffffffffffffffffffffc08501527fffffffffffffffffffffffffffffffffffffffffffffffffffffffffffffffa09093019290925250919050565b600060608403516040850351602086035186518060208901018051600283016c5af43d3d93803e606057fd5bf38b528b600d8c035278593da1005b363d3d373d3d3d3d610000806062363936013d738160481b1760218c03527f9e4ac34f21c619cefc926c8bd93b54bf5a39c7ab2127a895af1cc0691d7e3dff603a8c0352716100003d81600a3d39f336602c57343d527f6062820160781b17605a8c03528060f01b8352606c8101604c8c03206035525060ff6000538760601b60015288601552605560002096506000603552808252505080885250806020880352508060408703525080606086035250949350505050565b60008083601f8401126105a557600080fd5b50813567ffffffffffffffff8111156105bd57600080fd5b6020830191508360208260051b85010111156105d857600080fd5b9250929050565b600080600080600080608087890312156105f857600080fd5b86359550602087013567ffffffffffffffff8082111561061757600080fd5b6106238a838b01610593565b9097509550604089013591508082111561063c57600080fd5b5061064989828a01610593565b979a9699509497949695606090950135949350505050565b6000806020838503121561067457600080fd5b823567ffffffffffffffff81111561068b57600080fd5b61069785828601610593565b90969095509350505050565b6000602080830181845280855180835260408601915060408160051b87010192508387016000805b83811015610763577fffffffffffffffffffffffffffffffffffffffffffffffffffffffffffffffc089870301855282518051808852835b8181101561071e578281018a01518982018b01528901610703565b508781018901849052601f017fffffffffffffffffffffffffffffffffffffffffffffffffffffffffffffffe0169096018701955093860193918601916001016106cb565b509398975050505050505050565b60006020828403121561078357600080fd5b5035919050565b803573ffffffffffffffffffffffffffffffffffffffff811681146107ae57600080fd5b919050565b8183528181602085013750600060208284010152600060207fffffffffffffffffffffffffffffffffffffffffffffffffffffffffffffffe0601f840116840101905092915050565b8183526000602080850194508260005b858110156108455773ffffffffffffffffffffffffffffffffffffffff6108328361078a565b168752958201959082019060010161080c565b509495945050505050565b60608082528181018690526000906080808401600589901b850182018a855b8b81101561099d577fffffffffffffffffffffffffffffffffffffffffffffffffffffffffffffff8088840301845281357fffffffffffffffffffffffffffffffffffffffffffffffffffffffffffffff818e36030181126108d057600080fd5b8d018035600481106108e157600080fd5b8452602073ffffffffffffffffffffffffffffffffffffffff61090583830161078a565b16818601526040808301358187015250878201357fffffffffffffffffffffffffffffffffffffffffffffffffffffffffffffffe183360301811261094957600080fd5b90910181810191903567ffffffffffffffff81111561096757600080fd5b80360383131561097657600080fd5b878987015261098888870182856107b3565b9682019695505092909201915060010161086f565b505085810360208701526109b281898b6107fc565b9450505050508260408301529695505050505050565b73ffffffffffffffffffffffffffffffffffffffff861681528460208201526080604082015260006109fe6080830185876107fc565b9050826060830152969550505050505056fea164736f6c6343000811000a",
    "linkReferences": {}
  },
  "methodIdentifiers": {
    "deployKeep(bytes32,(uint8,address,uint256,bytes)[],address[],uint256)": "0d0ed911",
    "determineKeep(bytes32)": "e6d3d4d0",
    "multicall(bytes[])": "ac9650d8"
  },
  "id": 20
}