{
  "abi": [
    {
      "inputs": [
        {
          "internalType": "contract Keep",
          "name": "_keepMaster",
          "type": "address"
        }
      ],
      "stateMutability": "payable",
      "type": "constructor"
    },
    {
      "inputs": [],
      "name": "CREATE2_FAILED",
      "type": "error"
    },
    {
      "anonymous": false,
      "inputs": [
        {
          "components": [
            {
              "internalType": "enum Operation",
              "name": "op",
              "type": "uint8"
            },
            {
              "internalType": "address",
              "name": "to",
              "type": "address"
            },
            {
              "internalType": "uint256",
              "name": "value",
              "type": "uint256"
            },
            {
              "internalType": "bytes",
              "name": "data",
              "type": "bytes"
            }
          ],
          "indexed": false,
          "internalType": "struct Call[]",
          "name": "calls",
          "type": "tuple[]"
        },
        {
          "indexed": false,
          "internalType": "address[]",
          "name": "signers",
          "type": "address[]"
        },
        {
          "indexed": false,
          "internalType": "uint256",
          "name": "threshold",
          "type": "uint256"
        },
        {
          "indexed": false,
          "internalType": "bytes32",
          "name": "name",
          "type": "bytes32"
        }
      ],
      "name": "Deployed",
      "type": "event"
    },
    {
      "inputs": [
        {
          "components": [
            {
              "internalType": "enum Operation",
              "name": "op",
              "type": "uint8"
            },
            {
              "internalType": "address",
              "name": "to",
              "type": "address"
            },
            {
              "internalType": "uint256",
              "name": "value",
              "type": "uint256"
            },
            {
              "internalType": "bytes",
              "name": "data",
              "type": "bytes"
            }
          ],
          "internalType": "struct Call[]",
          "name": "calls",
          "type": "tuple[]"
        },
        {
          "internalType": "address[]",
          "name": "signers",
          "type": "address[]"
        },
        {
          "internalType": "uint256",
          "name": "threshold",
          "type": "uint256"
        },
        {
          "internalType": "bytes32",
          "name": "name",
          "type": "bytes32"
        }
      ],
      "name": "deploy",
      "outputs": [],
      "stateMutability": "payable",
      "type": "function"
    },
    {
      "inputs": [
        {
          "internalType": "bytes32",
          "name": "name",
          "type": "bytes32"
        }
      ],
      "name": "determine",
      "outputs": [
        {
          "internalType": "address",
          "name": "keep",
          "type": "address"
        },
        {
          "internalType": "bool",
          "name": "deployed",
          "type": "bool"
        }
      ],
      "stateMutability": "view",
      "type": "function"
    },
    {
      "inputs": [
        {
          "internalType": "bytes[]",
          "name": "data",
          "type": "bytes[]"
        }
      ],
      "name": "multicall",
      "outputs": [
        {
          "internalType": "bytes[]",
          "name": "results",
          "type": "bytes[]"
        }
      ],
      "stateMutability": "payable",
      "type": "function"
    }
  ],
  "bytecode": {
    "object": "0x60a0604052604051610b8a380380610b8a83398101604081905261002291610033565b6001600160a01b0316608052610063565b60006020828403121561004557600080fd5b81516001600160a01b038116811461005c57600080fd5b9392505050565b608051610b056100856000396000818161011401526103160152610b056000f3fe6080604052600436106100345760003560e01c80631b53e1e214610039578063ac9650d81461007d578063b2ed740c1461009d575b600080fd5b34801561004557600080fd5b506100596100543660046105b2565b6100b2565b604080516001600160a01b0390931683529015156020830152015b60405180910390f35b61009061008b366004610617565b610145565b60405161007491906106b5565b6100b06100ab366004610717565b6102b5565b005b60008061013b8384466040516020016100fa92919091825260d81b7fffffffffff00000000000000000000000000000000000000000000000000000016602082015260250190565b60408051601f198184030181529190526001600160a01b037f00000000000000000000000000000000000000000000000000000000000000001691906103f0565b9094909350915050565b60608167ffffffffffffffff81111561016057610160610795565b60405190808252806020026020018201604052801561019357816020015b606081526020019060019003908161017e5790505b50905060005b828110156102ae57600080308686858181106101b7576101b76107ab565b90506020028101906101c991906107c1565b6040516101d7929190610808565b600060405180830381855af49150503d8060008114610212576040519150601f19603f3d011682016040523d82523d6000602084013e610217565b606091505b5091509150816102865760448151101561023057600080fd5b6004810190508080602001905181019061024a9190610818565b6040517f08c379a000000000000000000000000000000000000000000000000000000000815260040161027d91906108c5565b60405180910390fd5b80848481518110610299576102996107ab565b60209081029190910101525050600101610199565b5092915050565b600061033d8283466040516020016102fc92919091825260d81b7fffffffffff00000000000000000000000000000000000000000000000000000016602082015260250190565b60408051601f198184030181529190526001600160a01b037f0000000000000000000000000000000000000000000000000000000000000000169190610488565b9050806001600160a01b031663c590e89f3489898989896040518763ffffffff1660e01b8152600401610374959493929190610a58565b6000604051808303818588803b15801561038d57600080fd5b505af11580156103a1573d6000803e3d6000fd5b50505050507f2a4d399ece8af0eafff4a81c27531a6b6d3027eed8efd2e85cd03294939404a38787878787876040516103df96959493929190610a92565b60405180910390a150505050505050565b60008060008061040087866104ec565b9020604080517fff000000000000000000000000000000000000000000000000000000000000006020808301919091523060601b6bffffffffffffffffffffffff1916602183015260358201999099526055808201939093528151808203909301835260750190528051960195909520966001600160a01b0388163b15159650945050505050565b600080600061049786856104ec565b915091508481836000f592506001600160a01b0383166104e3576040517f6f99b0fc00000000000000000000000000000000000000000000000000000000815260040160405180910390fd5b50509392505050565b6000806002835101603f81019150600a820360405193508160581b8160e81b177f6100003d81600a3d39f3363d3d373d3d3d3d610000806035363936013d730000178452508460601b601e8401527f5af43d3d93803e603357fd5bf30000000000000000000000000000000000000060328401528351603f8401602086015b6020831061058a5780518252601f19909201916020918201910161056b565b5160001960086020859003021b16815260f09290921b91015281810160405290939092509050565b6000602082840312156105c457600080fd5b5035919050565b60008083601f8401126105dd57600080fd5b50813567ffffffffffffffff8111156105f557600080fd5b6020830191508360208260051b850101111561061057600080fd5b9250929050565b6000806020838503121561062a57600080fd5b823567ffffffffffffffff81111561064157600080fd5b61064d858286016105cb565b90969095509350505050565b60005b8381101561067457818101518382015260200161065c565b83811115610683576000848401525b50505050565b600081518084526106a1816020860160208601610659565b601f01601f19169290920160200192915050565b6000602080830181845280855180835260408601915060408160051b870101925083870160005b8281101561070a57603f198886030184526106f8858351610689565b945092850192908501906001016106dc565b5092979650505050505050565b6000806000806000806080878903121561073057600080fd5b863567ffffffffffffffff8082111561074857600080fd5b6107548a838b016105cb565b9098509650602089013591508082111561076d57600080fd5b5061077a89828a016105cb565b979a9699509760408101359660609091013595509350505050565b634e487b7160e01b600052604160045260246000fd5b634e487b7160e01b600052603260045260246000fd5b6000808335601e198436030181126107d857600080fd5b83018035915067ffffffffffffffff8211156107f357600080fd5b60200191503681900382131561061057600080fd5b8183823760009101908152919050565b60006020828403121561082a57600080fd5b815167ffffffffffffffff8082111561084257600080fd5b818401915084601f83011261085657600080fd5b81518181111561086857610868610795565b604051601f8201601f19908116603f0116810190838211818310171561089057610890610795565b816040528281528760208487010111156108a957600080fd5b6108ba836020830160208801610659565b979650505050505050565b6020815260006108d86020830184610689565b9392505050565b80356001600160a01b03811681146108f657600080fd5b919050565b81835281816020850137506000828201602090810191909152601f909101601f19169091010190565b81835260006020808501808196508560051b810191508460005b87811015610a045782840389528135607e1988360301811261095f57600080fd5b8701608081356004811061097257600080fd5b86526001600160a01b036109878389016108df565b16868801526040828101359087015260608083013536849003601e190181126109af57600080fd5b90920187810192903567ffffffffffffffff8111156109cd57600080fd5b8036038413156109dc57600080fd5b82828901526109ee83890182866108fb565b9c89019c9750505092860192505060010161093e565b5091979650505050505050565b8183526000602080850194508260005b85811015610a4d576001600160a01b03610a3a836108df565b1687529582019590820190600101610a21565b509495945050505050565b606081526000610a6c606083018789610924565b8281036020840152610a7f818688610a11565b9150508260408301529695505050505050565b608081526000610aa660808301888a610924565b8281036020840152610ab9818789610a11565b604084019590955250506060015294935050505056fea2646970667358221220d68b94909d40e4ec90055030af869c680d6edd8a2a19708b049a9008b0fdcbfc64736f6c634300080f0033",
    "linkReferences": {}
  }
}