{
  "abi": [
    {
      "anonymous": false,
      "inputs": [
        {
          "indexed": false,
          "internalType": "address",
          "name": "who",
          "type": "address"
        },
        {
          "indexed": false,
          "internalType": "bytes4",
          "name": "fsig",
          "type": "bytes4"
        },
        {
          "indexed": false,
          "internalType": "bytes32",
          "name": "keysHash",
          "type": "bytes32"
        },
        {
          "indexed": false,
          "internalType": "uint256",
          "name": "slot",
          "type": "uint256"
        }
      ],
      "name": "SlotFound",
      "type": "event"
    },
    {
      "anonymous": false,
      "inputs": [
        {
          "indexed": false,
          "internalType": "address",
          "name": "who",
          "type": "address"
        },
        {
          "indexed": false,
          "internalType": "uint256",
          "name": "slot",
          "type": "uint256"
        }
      ],
      "name": "WARNING_UninitedSlot",
      "type": "event"
    },
    {
      "inputs": [
        {
          "internalType": "bytes",
          "name": "b",
          "type": "bytes"
        },
        {
          "internalType": "uint256",
          "name": "offset",
          "type": "uint256"
        }
      ],
      "name": "bytesToBytes32",
      "outputs": [
        {
          "internalType": "bytes32",
          "name": "",
          "type": "bytes32"
        }
      ],
      "stateMutability": "pure",
      "type": "function"
    }
  ],
  "bytecode": {
    "object": "0x61025b61003a600b82828239805160001a60731461002d57634e487b7160e01b600052600060045260246000fd5b30600052607381538281f3fe73000000000000000000000000000000000000000030146080604052600436106100355760003560e01c8063535849391461003a575b600080fd5b61004d6100483660046100f2565b61005f565b60405190815260200160405180910390f35b60008060005b60208110156100d4576100798160086101bd565b8561008483876101dc565b81518110610094576100946101f4565b01602001517fff0000000000000000000000000000000000000000000000000000000000000016901c9190911790806100cc8161020a565b915050610065565b509392505050565b634e487b7160e01b600052604160045260246000fd5b6000806040838503121561010557600080fd5b823567ffffffffffffffff8082111561011d57600080fd5b818501915085601f83011261013157600080fd5b813581811115610143576101436100dc565b604051601f8201601f19908116603f0116810190838211818310171561016b5761016b6100dc565b8160405282815288602084870101111561018457600080fd5b826020860160208301376000602093820184015298969091013596505050505050565b634e487b7160e01b600052601160045260246000fd5b60008160001904831182151516156101d7576101d76101a7565b500290565b600082198211156101ef576101ef6101a7565b500190565b634e487b7160e01b600052603260045260246000fd5b600060001982141561021e5761021e6101a7565b506001019056fea2646970667358221220c0df02520408c8e7798b3fc8251e939fce13f50c201794aa96966b21823c89c864736f6c634300080c0033",
    "linkReferences": {}
  }
}