{
  "abi": [
    {
      "inputs": [
        {
          "internalType": "address",
          "name": "signer_",
          "type": "address"
        }
      ],
      "stateMutability": "nonpayable",
      "type": "constructor"
    },
    {
      "inputs": [
        {
          "internalType": "bytes32",
          "name": "hash",
          "type": "bytes32"
        },
        {
          "internalType": "bytes",
          "name": "signature",
          "type": "bytes"
        }
      ],
      "name": "isValidSignature",
      "outputs": [
        {
          "internalType": "bytes4",
          "name": "",
          "type": "bytes4"
        }
      ],
      "stateMutability": "view",
      "type": "function"
    },
    {
      "inputs": [
        {
          "internalType": "address",
          "name": "",
          "type": "address"
        },
        {
          "internalType": "address",
          "name": "",
          "type": "address"
        },
        {
          "internalType": "uint256[]",
          "name": "",
          "type": "uint256[]"
        },
        {
          "internalType": "uint256[]",
          "name": "",
          "type": "uint256[]"
        },
        {
          "internalType": "bytes",
          "name": "",
          "type": "bytes"
        }
      ],
      "name": "onERC1155BatchReceived",
      "outputs": [
        {
          "internalType": "bytes4",
          "name": "",
          "type": "bytes4"
        }
      ],
      "stateMutability": "payable",
      "type": "function"
    },
    {
      "inputs": [
        {
          "internalType": "address",
          "name": "",
          "type": "address"
        },
        {
          "internalType": "address",
          "name": "",
          "type": "address"
        },
        {
          "internalType": "uint256",
          "name": "",
          "type": "uint256"
        },
        {
          "internalType": "uint256",
          "name": "",
          "type": "uint256"
        },
        {
          "internalType": "bytes",
          "name": "",
          "type": "bytes"
        }
      ],
      "name": "onERC1155Received",
      "outputs": [
        {
          "internalType": "bytes4",
          "name": "",
          "type": "bytes4"
        }
      ],
      "stateMutability": "payable",
      "type": "function"
    }
  ],
  "bytecode": {
    "object": "0x608060405234801561001057600080fd5b506040516104ba3803806104ba83398101604081905261002f91610054565b600080546001600160a01b0319166001600160a01b0392909216919091179055610084565b60006020828403121561006657600080fd5b81516001600160a01b038116811461007d57600080fd5b9392505050565b610427806100936000396000f3fe6080604052600436106100345760003560e01c80631626ba7e14610039578063bc197c811461008e578063f23a6e61146100c9575b600080fd5b34801561004557600080fd5b5061005961005436600461022d565b610102565b6040517fffffffff00000000000000000000000000000000000000000000000000000000909116815260200160405180910390f35b61005961009c3660046102e7565b7fbc197c810000000000000000000000000000000000000000000000000000000098975050505050505050565b6100596100d73660046103a2565b7ff23a6e61000000000000000000000000000000000000000000000000000000009695505050505050565b6000805473ffffffffffffffffffffffffffffffffffffffff16610127858585610175565b73ffffffffffffffffffffffffffffffffffffffff161461014957600061016b565b7f1626ba7e000000000000000000000000000000000000000000000000000000005b90505b9392505050565b60006041820361016e576040516040846040377f7fffffffffffffffffffffffffffffff5d576e7357a4501ddfe92f46681b20a0606051116101da5784600052604084013560001a602052602060406080600060015afa5060006060523d6060035191505b6040529392505050565b60008083601f8401126101f657600080fd5b50813567ffffffffffffffff81111561020e57600080fd5b60208301915083602082850101111561022657600080fd5b9250929050565b60008060006040848603121561024257600080fd5b83359250602084013567ffffffffffffffff81111561026057600080fd5b61026c868287016101e4565b9497909650939450505050565b803573ffffffffffffffffffffffffffffffffffffffff8116811461029d57600080fd5b919050565b60008083601f8401126102b457600080fd5b50813567ffffffffffffffff8111156102cc57600080fd5b6020830191508360208260051b850101111561022657600080fd5b60008060008060008060008060a0898b03121561030357600080fd5b61030c89610279565b975061031a60208a01610279565b9650604089013567ffffffffffffffff8082111561033757600080fd5b6103438c838d016102a2565b909850965060608b013591508082111561035c57600080fd5b6103688c838d016102a2565b909650945060808b013591508082111561038157600080fd5b5061038e8b828c016101e4565b999c989b5096995094979396929594505050565b60008060008060008060a087890312156103bb57600080fd5b6103c487610279565b95506103d260208801610279565b94506040870135935060608701359250608087013567ffffffffffffffff8111156103fc57600080fd5b61040889828a016101e4565b979a969950949750929593949250505056fea164736f6c6343000811000a",
    "linkReferences": {}
  },
  "methodIdentifiers": {
    "isValidSignature(bytes32,bytes)": "1626ba7e",
    "onERC1155BatchReceived(address,address,uint256[],uint256[],bytes)": "bc197c81",
    "onERC1155Received(address,address,uint256,uint256,bytes)": "f23a6e61"
  },
  "id": 31
}