{
  "abi": [
    {
      "inputs": [],
      "name": "INVALID_ASSET_ORDER",
      "type": "error"
    },
    {
      "inputs": [],
      "name": "NOT_STARTED",
      "type": "error"
    },
    {
      "anonymous": false,
      "inputs": [
        {
          "indexed": true,
          "internalType": "address",
          "name": "redeemer",
          "type": "address"
        },
        {
          "indexed": true,
          "internalType": "address",
          "name": "treasury",
          "type": "address"
        },
        {
          "indexed": false,
          "internalType": "address[]",
          "name": "assets",
          "type": "address[]"
        },
        {
          "indexed": false,
          "internalType": "uint256",
          "name": "id",
          "type": "uint256"
        },
        {
          "indexed": false,
          "internalType": "uint256",
          "name": "redemption",
          "type": "uint256"
        }
      ],
      "name": "Redeemed",
      "type": "event"
    },
    {
      "anonymous": false,
      "inputs": [
        {
          "indexed": true,
          "internalType": "address",
          "name": "treasury",
          "type": "address"
        },
        {
          "indexed": false,
          "internalType": "uint256",
          "name": "id",
          "type": "uint256"
        },
        {
          "indexed": false,
          "internalType": "uint256",
          "name": "redemptionStart",
          "type": "uint256"
        }
      ],
      "name": "RedemptionStartSet",
      "type": "event"
    },
    {
      "inputs": [
        {
          "internalType": "bytes[]",
          "name": "data",
          "type": "bytes[]"
        }
      ],
      "name": "multicall",
      "outputs": [
        {
          "internalType": "bytes[]",
          "name": "results",
          "type": "bytes[]"
        }
      ],
      "stateMutability": "payable",
      "type": "function"
    },
    {
      "inputs": [
        {
          "internalType": "address",
          "name": "",
          "type": "address"
        },
        {
          "internalType": "address",
          "name": "",
          "type": "address"
        },
        {
          "internalType": "uint256[]",
          "name": "",
          "type": "uint256[]"
        },
        {
          "internalType": "uint256[]",
          "name": "",
          "type": "uint256[]"
        },
        {
          "internalType": "bytes",
          "name": "",
          "type": "bytes"
        }
      ],
      "name": "onERC1155BatchReceived",
      "outputs": [
        {
          "internalType": "bytes4",
          "name": "",
          "type": "bytes4"
        }
      ],
      "stateMutability": "payable",
      "type": "function"
    },
    {
      "inputs": [
        {
          "internalType": "address",
          "name": "",
          "type": "address"
        },
        {
          "internalType": "address",
          "name": "",
          "type": "address"
        },
        {
          "internalType": "uint256",
          "name": "",
          "type": "uint256"
        },
        {
          "internalType": "uint256",
          "name": "",
          "type": "uint256"
        },
        {
          "internalType": "bytes",
          "name": "",
          "type": "bytes"
        }
      ],
      "name": "onERC1155Received",
      "outputs": [
        {
          "internalType": "bytes4",
          "name": "",
          "type": "bytes4"
        }
      ],
      "stateMutability": "payable",
      "type": "function"
    },
    {
      "inputs": [
        {
          "internalType": "address",
          "name": "treasury",
          "type": "address"
        },
        {
          "internalType": "address[]",
          "name": "assets",
          "type": "address[]"
        },
        {
          "internalType": "uint256",
          "name": "id",
          "type": "uint256"
        },
        {
          "internalType": "uint256",
          "name": "redemption",
          "type": "uint256"
        }
      ],
      "name": "redeem",
      "outputs": [],
      "stateMutability": "payable",
      "type": "function"
    },
    {
      "inputs": [
        {
          "internalType": "address",
          "name": "",
          "type": "address"
        },
        {
          "internalType": "uint256",
          "name": "",
          "type": "uint256"
        }
      ],
      "name": "redemptionStarts",
      "outputs": [
        {
          "internalType": "uint256",
          "name": "",
          "type": "uint256"
        }
      ],
      "stateMutability": "view",
      "type": "function"
    },
    {
      "inputs": [
        {
          "internalType": "uint256",
          "name": "id",
          "type": "uint256"
        },
        {
          "internalType": "uint256",
          "name": "redemptionStart",
          "type": "uint256"
        }
      ],
      "name": "setRedemptionStart",
      "outputs": [],
      "stateMutability": "payable",
      "type": "function"
    }
  ],
  "bytecode": {
    "object": "0x608060405234801561001057600080fd5b50610cf7806100206000396000f3fe6080604052600436106100655760003560e01c8063f23a6e6111610043578063f23a6e611461013e578063f9757e4814610177578063fd0c2b551461018c57600080fd5b8063838cc6441461006a578063ac9650d8146100b2578063bc197c81146100d2575b600080fd5b34801561007657600080fd5b5061009f61008536600461077b565b600060208181529281526040808220909352908152205481565b6040519081526020015b60405180910390f35b6100c56100c03660046107f1565b61019f565b6040516100a9919061088f565b61010d6100e0366004610933565b7fbc197c810000000000000000000000000000000000000000000000000000000098975050505050505050565b6040517fffffffff0000000000000000000000000000000000000000000000000000000090911681526020016100a9565b61010d61014c3660046109ee565b7ff23a6e61000000000000000000000000000000000000000000000000000000009695505050505050565b61018a610185366004610a66565b6102f5565b005b61018a61019a366004610a88565b61034b565b60608167ffffffffffffffff8111156101ba576101ba610aed565b6040519080825280602002602001820160405280156101ed57816020015b60608152602001906001900390816101d85790505b50905060005b828110156102ee576000803086868581811061021157610211610b03565b90506020028101906102239190610b19565b604051610231929190610b60565b600060405180830381855af49150503d806000811461026c576040519150601f19603f3d011682016040523d82523d6000602084013e610271565b606091505b5091509150816102c65760448151101561028a57600080fd5b600481019050808060200190518101906102a49190610b70565b60405162461bcd60e51b81526004016102bd9190610c1d565b60405180910390fd5b808484815181106102d9576102d9610b03565b602090810291909101015250506001016101f3565b5092915050565b3360008181526020818152604080832086845282529182902084905581518581529081018490527fb79fdd8dc002d97f6a61f3dcbde85ddcd69c9cb3cf7ac385b5326181fca129bb910160405180910390a25050565b6001600160a01b03851660009081526020818152604080832085845290915290205480158061037957508042105b156103b0576040517f545df3e400000000000000000000000000000000000000000000000000000000815260040160405180910390fd5b6040517fbd85b039000000000000000000000000000000000000000000000000000000008152600481018490526000906001600160a01b0388169063bd85b03990602401602060405180830381865afa158015610411573d6000803e3d6000fd5b505050506040513d601f19601f820116820180604052508101906104359190610c37565b6040517ff5298aca00000000000000000000000000000000000000000000000000000000815233600482015260248101869052604481018590529091506001600160a01b0388169063f5298aca90606401600060405180830381600087803b1580156104a057600080fd5b505af11580156104b4573d6000803e3d6000fd5b505050506000805b86811015610666578787828181106104d6576104d6610b03565b90506020020160208101906104eb9190610c50565b6001600160a01b0316826001600160a01b031610610535576040517f063ec6a800000000000000000000000000000000000000000000000000000000815260040160405180910390fd5b87878281811061054757610547610b03565b905060200201602081019061055c9190610c50565b9150600061061789898481811061057557610575610b03565b905060200201602081019061058a9190610c50565b6040517f70a082310000000000000000000000000000000000000000000000000000000081526001600160a01b038d8116600483015291909116906370a0823190602401602060405180830381865afa1580156105eb573d6000803e3d6000fd5b505050506040513d601f19601f8201168201806040525081019061060f9190610c37565b8790866106c2565b9050801561065d5761065d8a33838c8c8781811061063757610637610b03565b905060200201602081019061064c9190610c50565b6001600160a01b03169291906106e1565b506001016104bc565b50876001600160a01b0316336001600160a01b03167fe62c4c5a80f97671986a3c55df2b979fcd460e4d6e426c165b8be7186f50d02c898989896040516106b09493929190610c6b565b60405180910390a35050505050505050565b8282028115158415858304851417166106da57600080fd5b0492915050565b6040516323b872dd600052836020528260405281606052602060006064601c6000895af13d1560016000511417166107515762461bcd60e51b600052602060045260146024527f5452414e534645525f46524f4d5f4641494c454400000000000000000000000060445260646000fd5b600060605260405250505050565b80356001600160a01b038116811461077657600080fd5b919050565b6000806040838503121561078e57600080fd5b6107978361075f565b946020939093013593505050565b60008083601f8401126107b757600080fd5b50813567ffffffffffffffff8111156107cf57600080fd5b6020830191508360208260051b85010111156107ea57600080fd5b9250929050565b6000806020838503121561080457600080fd5b823567ffffffffffffffff81111561081b57600080fd5b610827858286016107a5565b90969095509350505050565b60005b8381101561084e578181015183820152602001610836565b8381111561085d576000848401525b50505050565b6000815180845261087b816020860160208601610833565b601f01601f19169290920160200192915050565b6000602080830181845280855180835260408601915060408160051b870101925083870160005b828110156108e457603f198886030184526108d2858351610863565b945092850192908501906001016108b6565b5092979650505050505050565b60008083601f84011261090357600080fd5b50813567ffffffffffffffff81111561091b57600080fd5b6020830191508360208285010111156107ea57600080fd5b60008060008060008060008060a0898b03121561094f57600080fd5b6109588961075f565b975061096660208a0161075f565b9650604089013567ffffffffffffffff8082111561098357600080fd5b61098f8c838d016107a5565b909850965060608b01359150808211156109a857600080fd5b6109b48c838d016107a5565b909650945060808b01359150808211156109cd57600080fd5b506109da8b828c016108f1565b999c989b5096995094979396929594505050565b60008060008060008060a08789031215610a0757600080fd5b610a108761075f565b9550610a1e6020880161075f565b94506040870135935060608701359250608087013567ffffffffffffffff811115610a4857600080fd5b610a5489828a016108f1565b979a9699509497509295939492505050565b60008060408385031215610a7957600080fd5b50508035926020909101359150565b600080600080600060808688031215610aa057600080fd5b610aa98661075f565b9450602086013567ffffffffffffffff811115610ac557600080fd5b610ad1888289016107a5565b9699909850959660408101359660609091013595509350505050565b634e487b7160e01b600052604160045260246000fd5b634e487b7160e01b600052603260045260246000fd5b6000808335601e19843603018112610b3057600080fd5b83018035915067ffffffffffffffff821115610b4b57600080fd5b6020019150368190038213156107ea57600080fd5b8183823760009101908152919050565b600060208284031215610b8257600080fd5b815167ffffffffffffffff80821115610b9a57600080fd5b818401915084601f830112610bae57600080fd5b815181811115610bc057610bc0610aed565b604051601f8201601f19908116603f01168101908382118183101715610be857610be8610aed565b81604052828152876020848701011115610c0157600080fd5b610c12836020830160208801610833565b979650505050505050565b602081526000610c306020830184610863565b9392505050565b600060208284031215610c4957600080fd5b5051919050565b600060208284031215610c6257600080fd5b610c308261075f565b6060808252810184905260008560808301825b87811015610cac576001600160a01b03610c978461075f565b16825260209283019290910190600101610c7e565b5060208401959095525050604001529291505056fea26469706673582212201a91a633969838af218bd3c8fa9c9ea956cf1b74e741359d05d10396214117c964736f6c634300080f0033",
    "linkReferences": {}
  }
}