{
  "abi": [
    {
      "inputs": [],
      "name": "INVALID_ASSET_ORDER",
      "type": "error"
    },
    {
      "inputs": [],
      "name": "NOT_STARTED",
      "type": "error"
    },
    {
      "anonymous": false,
      "inputs": [
        {
          "indexed": true,
          "internalType": "address",
          "name": "redeemer",
          "type": "address"
        },
        {
          "indexed": true,
          "internalType": "address",
          "name": "treasury",
          "type": "address"
        },
        {
          "indexed": false,
          "internalType": "address[]",
          "name": "assets",
          "type": "address[]"
        }
      ],
      "name": "Redeemed",
      "type": "event"
    },
    {
      "anonymous": false,
      "inputs": [
        {
          "indexed": true,
          "internalType": "address",
          "name": "treasury",
          "type": "address"
        },
        {
          "indexed": false,
          "internalType": "uint256",
          "name": "id",
          "type": "uint256"
        },
        {
          "indexed": false,
          "internalType": "uint256",
          "name": "redemptionStart",
          "type": "uint256"
        }
      ],
      "name": "RedemptionStartSet",
      "type": "event"
    },
    {
      "inputs": [
        {
          "internalType": "bytes[]",
          "name": "data",
          "type": "bytes[]"
        }
      ],
      "name": "multicall",
      "outputs": [
        {
          "internalType": "bytes[]",
          "name": "results",
          "type": "bytes[]"
        }
      ],
      "stateMutability": "payable",
      "type": "function"
    },
    {
      "inputs": [
        {
          "internalType": "address",
          "name": "",
          "type": "address"
        },
        {
          "internalType": "address",
          "name": "",
          "type": "address"
        },
        {
          "internalType": "uint256[]",
          "name": "",
          "type": "uint256[]"
        },
        {
          "internalType": "uint256[]",
          "name": "",
          "type": "uint256[]"
        },
        {
          "internalType": "bytes",
          "name": "",
          "type": "bytes"
        }
      ],
      "name": "onERC1155BatchReceived",
      "outputs": [
        {
          "internalType": "bytes4",
          "name": "",
          "type": "bytes4"
        }
      ],
      "stateMutability": "payable",
      "type": "function"
    },
    {
      "inputs": [
        {
          "internalType": "address",
          "name": "",
          "type": "address"
        },
        {
          "internalType": "address",
          "name": "",
          "type": "address"
        },
        {
          "internalType": "uint256",
          "name": "",
          "type": "uint256"
        },
        {
          "internalType": "uint256",
          "name": "",
          "type": "uint256"
        },
        {
          "internalType": "bytes",
          "name": "",
          "type": "bytes"
        }
      ],
      "name": "onERC1155Received",
      "outputs": [
        {
          "internalType": "bytes4",
          "name": "",
          "type": "bytes4"
        }
      ],
      "stateMutability": "payable",
      "type": "function"
    },
    {
      "inputs": [
        {
          "internalType": "address",
          "name": "treasury",
          "type": "address"
        },
        {
          "internalType": "address[]",
          "name": "assets",
          "type": "address[]"
        },
        {
          "internalType": "uint256",
          "name": "id",
          "type": "uint256"
        },
        {
          "internalType": "uint256",
          "name": "redemption",
          "type": "uint256"
        }
      ],
      "name": "redeem",
      "outputs": [],
      "stateMutability": "payable",
      "type": "function"
    },
    {
      "inputs": [
        {
          "internalType": "address",
          "name": "",
          "type": "address"
        },
        {
          "internalType": "uint256",
          "name": "",
          "type": "uint256"
        }
      ],
      "name": "redemptionStarts",
      "outputs": [
        {
          "internalType": "uint256",
          "name": "",
          "type": "uint256"
        }
      ],
      "stateMutability": "view",
      "type": "function"
    },
    {
      "inputs": [
        {
          "internalType": "uint256",
          "name": "id",
          "type": "uint256"
        },
        {
          "internalType": "uint256",
          "name": "redemptionStart",
          "type": "uint256"
        }
      ],
      "name": "setRedemptionStart",
      "outputs": [],
      "stateMutability": "payable",
      "type": "function"
    }
  ],
  "bytecode": {
    "object": "0x608060405234801561001057600080fd5b50610a9f806100206000396000f3fe6080604052600436106100655760003560e01c8063f23a6e6111610043578063f23a6e611461013e578063f9757e4814610177578063fd0c2b551461018c57600080fd5b8063838cc6441461006a578063ac9650d8146100b2578063bc197c81146100d2575b600080fd5b34801561007657600080fd5b5061009f61008536600461066d565b600060208181529281526040808220909352908152205481565b6040519081526020015b60405180910390f35b6100c56100c03660046106e3565b61019f565b6040516100a99190610725565b61010d6100e03660046107f9565b7fbc197c810000000000000000000000000000000000000000000000000000000098975050505050505050565b6040517fffffffff0000000000000000000000000000000000000000000000000000000090911681526020016100a9565b61010d61014c3660046108b4565b7ff23a6e61000000000000000000000000000000000000000000000000000000009695505050505050565b61018a61018536600461092c565b61021e565b005b61018a61019a36600461094e565b610274565b606081156102185750604051818152602001600582901b808483378101805b825185018035602082018337600080823584305af46101e1573d6000803e3d6000fd5b508083526020830192503d81523d6000602083013e3d01603f0167ffffffffffffffe0168183106101be5760405192508060405250505b92915050565b3360008181526020818152604080832086845282529182902084905581518581529081018490527fb79fdd8dc002d97f6a61f3dcbde85ddcd69c9cb3cf7ac385b5326181fca129bb910160405180910390a25050565b6001600160a01b0385166000908152602081815260408083208584529091529020544210156102cf576040517f545df3e400000000000000000000000000000000000000000000000000000000815260040160405180910390fd5b6040517fbd85b039000000000000000000000000000000000000000000000000000000008152600481018390526000906001600160a01b0387169063bd85b03990602401602060405180830381865afa158015610330573d6000803e3d6000fd5b505050506040513d601f19601f8201168201806040525081019061035491906109b3565b6040517ff5298aca00000000000000000000000000000000000000000000000000000000815233600482015260248101859052604481018490529091506001600160a01b0387169063f5298aca90606401600060405180830381600087803b1580156103bf57600080fd5b505af11580156103d3573d6000803e3d6000fd5b505050506000805b85811015610585578686828181106103f5576103f56109cc565b905060200201602081019061040a91906109fb565b6001600160a01b0316826001600160a01b031610610454576040517f063ec6a800000000000000000000000000000000000000000000000000000000815260040160405180910390fd5b868682818110610466576104666109cc565b905060200201602081019061047b91906109fb565b91506000610536888884818110610494576104946109cc565b90506020020160208101906104a991906109fb565b6040517f70a082310000000000000000000000000000000000000000000000000000000081526001600160a01b038c8116600483015291909116906370a0823190602401602060405180830381865afa15801561050a573d6000803e3d6000fd5b505050506040513d601f19601f8201168201806040525081019061052e91906109b3565b8690866105dc565b9050801561057c5761057c8933838b8b87818110610556576105566109cc565b905060200201602081019061056b91906109fb565b6001600160a01b0316929190610603565b506001016103db565b50866001600160a01b0316336001600160a01b03167f12f917bbb096adad36b461aeef96796929ad8327524aa5703655ed39659ce09088886040516105cb929190610a1d565b60405180910390a350505050505050565b60008260001904841183021582026105fc5763ad251c276000526004601cfd5b5091020490565b6040516323b872dd600052836020528260405281606052602060006064601c6000895af13d15600160005114171661064357637939f4246000526004601cfd5b600060605260405250505050565b80356001600160a01b038116811461066857600080fd5b919050565b6000806040838503121561068057600080fd5b61068983610651565b946020939093013593505050565b60008083601f8401126106a957600080fd5b50813567ffffffffffffffff8111156106c157600080fd5b6020830191508360208260051b85010111156106dc57600080fd5b9250929050565b600080602083850312156106f657600080fd5b823567ffffffffffffffff81111561070d57600080fd5b61071985828601610697565b90969095509350505050565b6000602080830181845280855180835260408601915060408160051b87010192508387016000805b838110156107a957888603603f1901855282518051808852835b81811015610782578281018a01518982018b01528901610767565b508781018901849052601f01601f191690960187019550938601939186019160010161074d565b509398975050505050505050565b60008083601f8401126107c957600080fd5b50813567ffffffffffffffff8111156107e157600080fd5b6020830191508360208285010111156106dc57600080fd5b60008060008060008060008060a0898b03121561081557600080fd5b61081e89610651565b975061082c60208a01610651565b9650604089013567ffffffffffffffff8082111561084957600080fd5b6108558c838d01610697565b909850965060608b013591508082111561086e57600080fd5b61087a8c838d01610697565b909650945060808b013591508082111561089357600080fd5b506108a08b828c016107b7565b999c989b5096995094979396929594505050565b60008060008060008060a087890312156108cd57600080fd5b6108d687610651565b95506108e460208801610651565b94506040870135935060608701359250608087013567ffffffffffffffff81111561090e57600080fd5b61091a89828a016107b7565b979a9699509497509295939492505050565b6000806040838503121561093f57600080fd5b50508035926020909101359150565b60008060008060006080868803121561096657600080fd5b61096f86610651565b9450602086013567ffffffffffffffff81111561098b57600080fd5b61099788828901610697565b9699909850959660408101359660609091013595509350505050565b6000602082840312156109c557600080fd5b5051919050565b7f4e487b7100000000000000000000000000000000000000000000000000000000600052603260045260246000fd5b600060208284031215610a0d57600080fd5b610a1682610651565b9392505050565b60208082528181018390526000908460408401835b86811015610a5e576001600160a01b03610a4b84610651565b1682529183019190830190600101610a32565b50969550505050505056fea26469706673582212202d12930b0cc642e98472db6bb762090076a0d67fa79a0a797dc2c3445260e72a64736f6c63430008110033",
    "linkReferences": {}
  },
  "methodIdentifiers": {
    "multicall(bytes[])": "ac9650d8",
    "onERC1155BatchReceived(address,address,uint256[],uint256[],bytes)": "bc197c81",
    "onERC1155Received(address,address,uint256,uint256,bytes)": "f23a6e61",
    "redeem(address,address[],uint256,uint256)": "fd0c2b55",
    "redemptionStarts(address,uint256)": "838cc644",
    "setRedemptionStart(uint256,uint256)": "f9757e48"
  },
  "id": 18
}