{
  "abi": [
    {
      "inputs": [],
      "name": "INVALID_ASSET_ORDER",
      "type": "error"
    },
    {
      "inputs": [],
      "name": "NOT_STARTED",
      "type": "error"
    },
    {
      "anonymous": false,
      "inputs": [
        {
          "indexed": true,
          "internalType": "address",
          "name": "redeemer",
          "type": "address"
        },
        {
          "indexed": true,
          "internalType": "address",
          "name": "club",
          "type": "address"
        },
        {
          "indexed": false,
          "internalType": "address[]",
          "name": "assets",
          "type": "address[]"
        },
        {
          "indexed": false,
          "internalType": "uint256",
          "name": "id",
          "type": "uint256"
        },
        {
          "indexed": false,
          "internalType": "uint256",
          "name": "burnAmount",
          "type": "uint256"
        }
      ],
      "name": "Redeemed",
      "type": "event"
    },
    {
      "anonymous": false,
      "inputs": [
        {
          "indexed": true,
          "internalType": "address",
          "name": "club",
          "type": "address"
        },
        {
          "indexed": false,
          "internalType": "uint256",
          "name": "id",
          "type": "uint256"
        },
        {
          "indexed": false,
          "internalType": "uint256",
          "name": "redemptionStart",
          "type": "uint256"
        }
      ],
      "name": "RedemptionStartSet",
      "type": "event"
    },
    {
      "inputs": [
        {
          "internalType": "bytes[]",
          "name": "data",
          "type": "bytes[]"
        }
      ],
      "name": "multicall",
      "outputs": [
        {
          "internalType": "bytes[]",
          "name": "results",
          "type": "bytes[]"
        }
      ],
      "stateMutability": "payable",
      "type": "function"
    },
    {
      "inputs": [
        {
          "internalType": "address",
          "name": "club",
          "type": "address"
        },
        {
          "internalType": "address[]",
          "name": "assets",
          "type": "address[]"
        },
        {
          "internalType": "uint256",
          "name": "id",
          "type": "uint256"
        },
        {
          "internalType": "uint256",
          "name": "burnAmount",
          "type": "uint256"
        }
      ],
      "name": "redeem",
      "outputs": [],
      "stateMutability": "payable",
      "type": "function"
    },
    {
      "inputs": [
        {
          "internalType": "address",
          "name": "",
          "type": "address"
        },
        {
          "internalType": "uint256",
          "name": "",
          "type": "uint256"
        }
      ],
      "name": "redemptionStarts",
      "outputs": [
        {
          "internalType": "uint256",
          "name": "",
          "type": "uint256"
        }
      ],
      "stateMutability": "view",
      "type": "function"
    },
    {
      "inputs": [
        {
          "internalType": "uint256",
          "name": "id",
          "type": "uint256"
        },
        {
          "internalType": "uint256",
          "name": "redemptionStart",
          "type": "uint256"
        }
      ],
      "name": "setRedemptionStart",
      "outputs": [],
      "stateMutability": "payable",
      "type": "function"
    }
  ],
  "bytecode": {
    "object": "0x608060405234801561001057600080fd5b50610ab6806100206000396000f3fe60806040526004361061003f5760003560e01c8063838cc64414610044578063ac9650d81461008c578063f9757e48146100ac578063fd0c2b55146100c1575b600080fd5b34801561005057600080fd5b5061007961005f3660046106af565b600060208181529281526040808220909352908152205481565b6040519081526020015b60405180910390f35b61009f61009a366004610725565b6100d4565b60405161008391906107c3565b6100bf6100ba366004610825565b61022a565b005b6100bf6100cf366004610847565b610280565b60608167ffffffffffffffff8111156100ef576100ef6108ac565b60405190808252806020026020018201604052801561012257816020015b606081526020019060019003908161010d5790505b50905060005b828110156102235760008030868685818110610146576101466108c2565b905060200281019061015891906108d8565b60405161016692919061091f565b600060405180830381855af49150503d80600081146101a1576040519150601f19603f3d011682016040523d82523d6000602084013e6101a6565b606091505b5091509150816101fb576044815110156101bf57600080fd5b600481019050808060200190518101906101d9919061092f565b60405162461bcd60e51b81526004016101f291906109dc565b60405180910390fd5b8084848151811061020e5761020e6108c2565b60209081029190910101525050600101610128565b5092915050565b3360008181526020818152604080832086845282529182902084905581518581529081018490527fb79fdd8dc002d97f6a61f3dcbde85ddcd69c9cb3cf7ac385b5326181fca129bb910160405180910390a25050565b6001600160a01b0385166000908152602081815260408083208584529091529020548015806102ae57508042105b156102e5576040517f545df3e400000000000000000000000000000000000000000000000000000000815260040160405180910390fd5b6040517fbd85b039000000000000000000000000000000000000000000000000000000008152600481018490526000906001600160a01b0388169063bd85b03990602401602060405180830381865afa158015610346573d6000803e3d6000fd5b505050506040513d601f19601f8201168201806040525081019061036a91906109f6565b6040517ff5298aca00000000000000000000000000000000000000000000000000000000815233600482015260248101869052604481018590529091506001600160a01b0388169063f5298aca90606401600060405180830381600087803b1580156103d557600080fd5b505af11580156103e9573d6000803e3d6000fd5b505050506000805b8681101561059a5787878281811061040b5761040b6108c2565b90506020020160208101906104209190610a0f565b6001600160a01b0316826001600160a01b03161061046a576040517f063ec6a800000000000000000000000000000000000000000000000000000000815260040160405180910390fd5b87878281811061047c5761047c6108c2565b90506020020160208101906104919190610a0f565b9150600061054b868a8a858181106104ab576104ab6108c2565b90506020020160208101906104c09190610a0f565b6040517f70a082310000000000000000000000000000000000000000000000000000000081526001600160a01b038e8116600483015291909116906370a0823190602401602060405180830381865afa158015610521573d6000803e3d6000fd5b505050506040513d601f19601f8201168201806040525081019061054591906109f6565b866105f6565b90508015610591576105918a33838c8c8781811061056b5761056b6108c2565b90506020020160208101906105809190610a0f565b6001600160a01b0316929190610615565b506001016103f1565b50876001600160a01b0316336001600160a01b03167fe62c4c5a80f97671986a3c55df2b979fcd460e4d6e426c165b8be7186f50d02c898989896040516105e49493929190610a2a565b60405180910390a35050505050505050565b82820281151584158583048514171661060e57600080fd5b0492915050565b6040516323b872dd600052836020528260405281606052602060006064601c6000895af13d1560016000511417166106855762461bcd60e51b600052602060045260146024527f5452414e534645525f46524f4d5f4641494c454400000000000000000000000060445260646000fd5b600060605260405250505050565b80356001600160a01b03811681146106aa57600080fd5b919050565b600080604083850312156106c257600080fd5b6106cb83610693565b946020939093013593505050565b60008083601f8401126106eb57600080fd5b50813567ffffffffffffffff81111561070357600080fd5b6020830191508360208260051b850101111561071e57600080fd5b9250929050565b6000806020838503121561073857600080fd5b823567ffffffffffffffff81111561074f57600080fd5b61075b858286016106d9565b90969095509350505050565b60005b8381101561078257818101518382015260200161076a565b83811115610791576000848401525b50505050565b600081518084526107af816020860160208601610767565b601f01601f19169290920160200192915050565b6000602080830181845280855180835260408601915060408160051b870101925083870160005b8281101561081857603f19888603018452610806858351610797565b945092850192908501906001016107ea565b5092979650505050505050565b6000806040838503121561083857600080fd5b50508035926020909101359150565b60008060008060006080868803121561085f57600080fd5b61086886610693565b9450602086013567ffffffffffffffff81111561088457600080fd5b610890888289016106d9565b9699909850959660408101359660609091013595509350505050565b634e487b7160e01b600052604160045260246000fd5b634e487b7160e01b600052603260045260246000fd5b6000808335601e198436030181126108ef57600080fd5b83018035915067ffffffffffffffff82111561090a57600080fd5b60200191503681900382131561071e57600080fd5b8183823760009101908152919050565b60006020828403121561094157600080fd5b815167ffffffffffffffff8082111561095957600080fd5b818401915084601f83011261096d57600080fd5b81518181111561097f5761097f6108ac565b604051601f8201601f19908116603f011681019083821181831017156109a7576109a76108ac565b816040528281528760208487010111156109c057600080fd5b6109d1836020830160208801610767565b979650505050505050565b6020815260006109ef6020830184610797565b9392505050565b600060208284031215610a0857600080fd5b5051919050565b600060208284031215610a2157600080fd5b6109ef82610693565b6060808252810184905260008560808301825b87811015610a6b576001600160a01b03610a5684610693565b16825260209283019290910190600101610a3d565b5060208401959095525050604001529291505056fea2646970667358221220100723c06c97a0264f10142bec7415f8c98b501ec3bb79c8b71e12e007f3a72f64736f6c634300080f0033",
    "linkReferences": {}
  }
}