{
  "abi": [
    {
      "inputs": [
        {
          "internalType": "string",
          "name": "_name",
          "type": "string"
        },
        {
          "internalType": "string",
          "name": "_symbol",
          "type": "string"
        }
      ],
      "stateMutability": "nonpayable",
      "type": "constructor"
    },
    {
      "inputs": [],
      "name": "AlreadyMinted",
      "type": "error"
    },
    {
      "inputs": [],
      "name": "InvalidRecipient",
      "type": "error"
    },
    {
      "inputs": [],
      "name": "InvalidSigner",
      "type": "error"
    },
    {
      "inputs": [],
      "name": "NotMinted",
      "type": "error"
    },
    {
      "inputs": [],
      "name": "PermitExpired",
      "type": "error"
    },
    {
      "inputs": [],
      "name": "Unauthorized",
      "type": "error"
    },
    {
      "inputs": [],
      "name": "UnsafeRecipient",
      "type": "error"
    },
    {
      "inputs": [],
      "name": "WrongFrom",
      "type": "error"
    },
    {
      "inputs": [],
      "name": "ZeroAddress",
      "type": "error"
    },
    {
      "anonymous": false,
      "inputs": [
        {
          "indexed": true,
          "internalType": "address",
          "name": "owner",
          "type": "address"
        },
        {
          "indexed": true,
          "internalType": "address",
          "name": "spender",
          "type": "address"
        },
        {
          "indexed": true,
          "internalType": "uint256",
          "name": "id",
          "type": "uint256"
        }
      ],
      "name": "Approval",
      "type": "event"
    },
    {
      "anonymous": false,
      "inputs": [
        {
          "indexed": true,
          "internalType": "address",
          "name": "owner",
          "type": "address"
        },
        {
          "indexed": true,
          "internalType": "address",
          "name": "operator",
          "type": "address"
        },
        {
          "indexed": false,
          "internalType": "bool",
          "name": "approved",
          "type": "bool"
        }
      ],
      "name": "ApprovalForAll",
      "type": "event"
    },
    {
      "anonymous": false,
      "inputs": [
        {
          "indexed": true,
          "internalType": "address",
          "name": "from",
          "type": "address"
        },
        {
          "indexed": true,
          "internalType": "address",
          "name": "to",
          "type": "address"
        },
        {
          "indexed": true,
          "internalType": "uint256",
          "name": "id",
          "type": "uint256"
        }
      ],
      "name": "Transfer",
      "type": "event"
    },
    {
      "inputs": [],
      "name": "DOMAIN_SEPARATOR",
      "outputs": [
        {
          "internalType": "bytes32",
          "name": "",
          "type": "bytes32"
        }
      ],
      "stateMutability": "view",
      "type": "function"
    },
    {
      "inputs": [],
      "name": "PERMIT_TYPEHASH",
      "outputs": [
        {
          "internalType": "bytes32",
          "name": "",
          "type": "bytes32"
        }
      ],
      "stateMutability": "view",
      "type": "function"
    },
    {
      "inputs": [
        {
          "internalType": "address",
          "name": "spender",
          "type": "address"
        },
        {
          "internalType": "uint256",
          "name": "id",
          "type": "uint256"
        }
      ],
      "name": "approve",
      "outputs": [],
      "stateMutability": "nonpayable",
      "type": "function"
    },
    {
      "inputs": [
        {
          "internalType": "address",
          "name": "owner",
          "type": "address"
        }
      ],
      "name": "balanceOf",
      "outputs": [
        {
          "internalType": "uint256",
          "name": "",
          "type": "uint256"
        }
      ],
      "stateMutability": "view",
      "type": "function"
    },
    {
      "inputs": [
        {
          "internalType": "uint256",
          "name": "tokenId",
          "type": "uint256"
        }
      ],
      "name": "burn",
      "outputs": [],
      "stateMutability": "nonpayable",
      "type": "function"
    },
    {
      "inputs": [
        {
          "internalType": "uint256",
          "name": "",
          "type": "uint256"
        }
      ],
      "name": "getApproved",
      "outputs": [
        {
          "internalType": "address",
          "name": "",
          "type": "address"
        }
      ],
      "stateMutability": "view",
      "type": "function"
    },
    {
      "inputs": [
        {
          "internalType": "address",
          "name": "",
          "type": "address"
        },
        {
          "internalType": "address",
          "name": "",
          "type": "address"
        }
      ],
      "name": "isApprovedForAll",
      "outputs": [
        {
          "internalType": "bool",
          "name": "",
          "type": "bool"
        }
      ],
      "stateMutability": "view",
      "type": "function"
    },
    {
      "inputs": [
        {
          "internalType": "address",
          "name": "to",
          "type": "address"
        },
        {
          "internalType": "uint256",
          "name": "tokenId",
          "type": "uint256"
        }
      ],
      "name": "mint",
      "outputs": [],
      "stateMutability": "nonpayable",
      "type": "function"
    },
    {
      "inputs": [],
      "name": "name",
      "outputs": [
        {
          "internalType": "string",
          "name": "",
          "type": "string"
        }
      ],
      "stateMutability": "view",
      "type": "function"
    },
    {
      "inputs": [
        {
          "internalType": "uint256",
          "name": "",
          "type": "uint256"
        }
      ],
      "name": "nonces",
      "outputs": [
        {
          "internalType": "uint256",
          "name": "",
          "type": "uint256"
        }
      ],
      "stateMutability": "view",
      "type": "function"
    },
    {
      "inputs": [
        {
          "internalType": "uint256",
          "name": "id",
          "type": "uint256"
        }
      ],
      "name": "ownerOf",
      "outputs": [
        {
          "internalType": "address",
          "name": "owner",
          "type": "address"
        }
      ],
      "stateMutability": "view",
      "type": "function"
    },
    {
      "inputs": [
        {
          "internalType": "address",
          "name": "owner",
          "type": "address"
        },
        {
          "internalType": "address",
          "name": "spender",
          "type": "address"
        },
        {
          "internalType": "uint256",
          "name": "id",
          "type": "uint256"
        },
        {
          "internalType": "uint256",
          "name": "deadline",
          "type": "uint256"
        },
        {
          "internalType": "uint8",
          "name": "v",
          "type": "uint8"
        },
        {
          "internalType": "bytes32",
          "name": "r",
          "type": "bytes32"
        },
        {
          "internalType": "bytes32",
          "name": "s",
          "type": "bytes32"
        }
      ],
      "name": "permit",
      "outputs": [],
      "stateMutability": "nonpayable",
      "type": "function"
    },
    {
      "inputs": [
        {
          "internalType": "address",
          "name": "to",
          "type": "address"
        },
        {
          "internalType": "uint256",
          "name": "tokenId",
          "type": "uint256"
        },
        {
          "internalType": "bytes",
          "name": "data",
          "type": "bytes"
        }
      ],
      "name": "safeMint",
      "outputs": [],
      "stateMutability": "nonpayable",
      "type": "function"
    },
    {
      "inputs": [
        {
          "internalType": "address",
          "name": "to",
          "type": "address"
        },
        {
          "internalType": "uint256",
          "name": "tokenId",
          "type": "uint256"
        }
      ],
      "name": "safeMint",
      "outputs": [],
      "stateMutability": "nonpayable",
      "type": "function"
    },
    {
      "inputs": [
        {
          "internalType": "address",
          "name": "from",
          "type": "address"
        },
        {
          "internalType": "address",
          "name": "to",
          "type": "address"
        },
        {
          "internalType": "uint256",
          "name": "id",
          "type": "uint256"
        }
      ],
      "name": "safeTransferFrom",
      "outputs": [],
      "stateMutability": "nonpayable",
      "type": "function"
    },
    {
      "inputs": [
        {
          "internalType": "address",
          "name": "from",
          "type": "address"
        },
        {
          "internalType": "address",
          "name": "to",
          "type": "address"
        },
        {
          "internalType": "uint256",
          "name": "id",
          "type": "uint256"
        },
        {
          "internalType": "bytes",
          "name": "data",
          "type": "bytes"
        }
      ],
      "name": "safeTransferFrom",
      "outputs": [],
      "stateMutability": "nonpayable",
      "type": "function"
    },
    {
      "inputs": [
        {
          "internalType": "address",
          "name": "operator",
          "type": "address"
        },
        {
          "internalType": "bool",
          "name": "approved",
          "type": "bool"
        }
      ],
      "name": "setApprovalForAll",
      "outputs": [],
      "stateMutability": "nonpayable",
      "type": "function"
    },
    {
      "inputs": [
        {
          "internalType": "bytes4",
          "name": "interfaceId",
          "type": "bytes4"
        }
      ],
      "name": "supportsInterface",
      "outputs": [
        {
          "internalType": "bool",
          "name": "",
          "type": "bool"
        }
      ],
      "stateMutability": "view",
      "type": "function"
    },
    {
      "inputs": [],
      "name": "symbol",
      "outputs": [
        {
          "internalType": "string",
          "name": "",
          "type": "string"
        }
      ],
      "stateMutability": "view",
      "type": "function"
    },
    {
      "inputs": [
        {
          "internalType": "uint256",
          "name": "",
          "type": "uint256"
        }
      ],
      "name": "tokenURI",
      "outputs": [
        {
          "internalType": "string",
          "name": "",
          "type": "string"
        }
      ],
      "stateMutability": "pure",
      "type": "function"
    },
    {
      "inputs": [
        {
          "internalType": "address",
          "name": "from",
          "type": "address"
        },
        {
          "internalType": "address",
          "name": "to",
          "type": "address"
        },
        {
          "internalType": "uint256",
          "name": "id",
          "type": "uint256"
        }
      ],
      "name": "transferFrom",
      "outputs": [],
      "stateMutability": "nonpayable",
      "type": "function"
    }
  ],
  "bytecode": {
    "object": "0x6101006040523480156200001257600080fd5b5060405162001e5b38038062001e5b8339810160408190526200003591620001c6565b818181604051806040016040528060018152602001603160f81b81525083838160009081620000659190620002bf565b506001620000748282620002bf565b50508251602093840120608081815283519385019390932060a0818152604080517f8b73c3c69bb8fe3d512ecc4cf759cc79239f7b179b0ffacaa9a75d522b39400f818901528082019490945260608401929092524694830185905230838201528151808403909101815260c0928301909152805194019390932090925260e052506200038b9350505050565b634e487b7160e01b600052604160045260246000fd5b600082601f8301126200012957600080fd5b81516001600160401b038082111562000146576200014662000101565b604051601f8301601f19908116603f0116810190828211818310171562000171576200017162000101565b816040528381526020925086838588010111156200018e57600080fd5b600091505b83821015620001b2578582018301518183018401529082019062000193565b600093810190920192909252949350505050565b60008060408385031215620001da57600080fd5b82516001600160401b0380821115620001f257600080fd5b620002008683870162000117565b935060208501519150808211156200021757600080fd5b50620002268582860162000117565b9150509250929050565b600181811c908216806200024557607f821691505b6020821081036200026657634e487b7160e01b600052602260045260246000fd5b50919050565b601f821115620002ba57600081815260208120601f850160051c81016020861015620002955750805b601f850160051c820191505b81811015620002b657828155600101620002a1565b5050505b505050565b81516001600160401b03811115620002db57620002db62000101565b620002f381620002ec845462000230565b846200026c565b602080601f8311600181146200032b5760008415620003125750858301515b600019600386901b1c1916600185901b178555620002b6565b600085815260208120601f198616915b828110156200035c578886015182559484019460019091019084016200033b565b50858210156200037b5787850151600019600388901b60f8161c191681555b5050505050600190811b01905550565b60805160a05160c05160e051611a96620003c5600039600061087301526000610948015260006108ef015260006108c70152611a966000f3fe608060405234801561001057600080fd5b50600436106101775760003560e01c806342966c68116100d8578063a14481941161008c578063c87b56dd11610066578063c87b56dd1461034c578063d505accf14610360578063e985e9c51461037357600080fd5b8063a144819414610313578063a22cb46514610326578063b88d4fde1461033957600080fd5b806370a08231116100bd57806370a08231146102e55780638832e6e3146102f857806395d89b411461030b57600080fd5b806342966c68146102bf5780636352211e146102d257600080fd5b806323b872dd1161012f5780633644e515116101145780633644e5151461029157806340c10f191461029957806342842e0e146102ac57600080fd5b806323b872dd1461025757806330adf81f1461026a57600080fd5b8063081812fc11610160578063081812fc146101b9578063095ea7b314610214578063141a468c1461022957600080fd5b806301ffc9a71461017c57806306fdde03146101a4575b600080fd5b61018f61018a366004611563565b6103a1565b60405190151581526020015b60405180910390f35b6101ac610486565b60405161019b91906115eb565b6101ef6101c73660046115fe565b60046020526000908152604090205473ffffffffffffffffffffffffffffffffffffffff1681565b60405173ffffffffffffffffffffffffffffffffffffffff909116815260200161019b565b61022761022236600461163b565b610514565b005b6102496102373660046115fe565b60066020526000908152604090205481565b60405190815260200161019b565b610227610265366004611665565b610632565b6102497f29da74a9365f97c3d77de334aec5c720e44b0c8a6e640ceb375e27a8ab7acadd81565b61024961086f565b6102276102a736600461163b565b61096a565b6102276102ba366004611665565b610978565b6102276102cd3660046115fe565b610ab0565b6101ef6102e03660046115fe565b610abc565b6102496102f33660046116a1565b610b1d565b6102276103063660046116eb565b610b95565b6101ac610ba0565b61022761032136600461163b565b610bad565b6102276103343660046117d4565b610bb7565b610227610347366004611810565b610c4e565b6101ac61035a3660046115fe565b50606090565b61022761036e3660046118ab565b610d75565b61018f61038136600461191e565b600560209081526000928352604080842090915290825290205460ff1681565b60007f01ffc9a7000000000000000000000000000000000000000000000000000000007fffffffff000000000000000000000000000000000000000000000000000000008316148061043457507f80ac58cd000000000000000000000000000000000000000000000000000000007fffffffff000000000000000000000000000000000000000000000000000000008316145b8061048057507f5b5e139f000000000000000000000000000000000000000000000000000000007fffffffff000000000000000000000000000000000000000000000000000000008316145b92915050565b6000805461049390611951565b80601f01602080910402602001604051908101604052809291908181526020018280546104bf90611951565b801561050c5780601f106104e15761010080835404028352916020019161050c565b820191906000526020600020905b8154815290600101906020018083116104ef57829003601f168201915b505050505081565b60008181526002602052604090205473ffffffffffffffffffffffffffffffffffffffff1633811480159061057a575073ffffffffffffffffffffffffffffffffffffffff8116600090815260056020908152604080832033845290915290205460ff16155b156105b1576040517f82b4290000000000000000000000000000000000000000000000000000000000815260040160405180910390fd5b60008281526004602052604080822080547fffffffffffffffffffffffff00000000000000000000000000000000000000001673ffffffffffffffffffffffffffffffffffffffff87811691821790925591518593918516917f8c5be1e5ebec7d5bd14f71427d1e84f3dd0314c0f7b2291e5b200ac8c7c3b92591a4505050565b60008181526002602052604090205473ffffffffffffffffffffffffffffffffffffffff848116911614610692576040517fc6de3f2500000000000000000000000000000000000000000000000000000000815260040160405180910390fd5b73ffffffffffffffffffffffffffffffffffffffff82166106df576040517f9c8d2cd200000000000000000000000000000000000000000000000000000000815260040160405180910390fd5b3373ffffffffffffffffffffffffffffffffffffffff841614801590610736575073ffffffffffffffffffffffffffffffffffffffff8316600090815260056020908152604080832033845290915290205460ff16155b8015610766575060008181526004602052604090205473ffffffffffffffffffffffffffffffffffffffff163314155b1561079d576040517f82b4290000000000000000000000000000000000000000000000000000000000815260040160405180910390fd5b73ffffffffffffffffffffffffffffffffffffffff808416600081815260036020908152604080832080547fffffffffffffffffffffffffffffffffffffffffffffffffffffffffffffffff019055938616808352848320805460010190558583526002825284832080547fffffffffffffffffffffffff00000000000000000000000000000000000000009081168317909155600490925284832080549092169091559251849392917fddf252ad1be2c89b69c2b068fc378daa952ba7f163c4a11628f55a4df523b3ef91a4505050565b60007f0000000000000000000000000000000000000000000000000000000000000000461461094557610940604080517f8b73c3c69bb8fe3d512ecc4cf759cc79239f7b179b0ffacaa9a75d522b39400f60208201527f0000000000000000000000000000000000000000000000000000000000000000918101919091527f000000000000000000000000000000000000000000000000000000000000000060608201524660808201523060a082015260009060c00160405160208183030381529060405280519060200120905090565b905090565b507f000000000000000000000000000000000000000000000000000000000000000090565b61097482826110d0565b5050565b610983838383610632565b73ffffffffffffffffffffffffffffffffffffffff82163b15610aab576040517f150b7a020000000000000000000000000000000000000000000000000000000080825233600483015273ffffffffffffffffffffffffffffffffffffffff858116602484015260448301849052608060648401526000608484015290919084169063150b7a029060a4015b6020604051808303816000875af1158015610a2e573d6000803e3d6000fd5b505050506040513d601f19601f82011682018060405250810190610a5291906119a4565b7fffffffff000000000000000000000000000000000000000000000000000000001614610aab576040517f3da6393100000000000000000000000000000000000000000000000000000000815260040160405180910390fd5b505050565b610ab981611209565b50565b60008181526002602052604090205473ffffffffffffffffffffffffffffffffffffffff1680610b18576040517f4d5e5fb300000000000000000000000000000000000000000000000000000000815260040160405180910390fd5b919050565b600073ffffffffffffffffffffffffffffffffffffffff8216610b6c576040517fd92e233d00000000000000000000000000000000000000000000000000000000815260040160405180910390fd5b5073ffffffffffffffffffffffffffffffffffffffff1660009081526003602052604090205490565b610aab838383611323565b6001805461049390611951565b61097482826113a5565b33600081815260056020908152604080832073ffffffffffffffffffffffffffffffffffffffff87168085529083529281902080547fffffffffffffffffffffffffffffffffffffffffffffffffffffffffffffff001686151590811790915590519081529192917f17307eab39ab6107e8899845ad3d59bd9653f200f220920489ca2b5937696c31910160405180910390a35050565b610c59858585610632565b73ffffffffffffffffffffffffffffffffffffffff84163b15610d6e576040517f150b7a02000000000000000000000000000000000000000000000000000000008082529073ffffffffffffffffffffffffffffffffffffffff86169063150b7a0290610cd29033908a908990899089906004016119c1565b6020604051808303816000875af1158015610cf1573d6000803e3d6000fd5b505050506040513d601f19601f82011682018060405250810190610d1591906119a4565b7fffffffff000000000000000000000000000000000000000000000000000000001614610d6e576040517f3da6393100000000000000000000000000000000000000000000000000000000815260040160405180910390fd5b5050505050565b83421115610daf576040517f1a15a3cc00000000000000000000000000000000000000000000000000000000815260040160405180910390fd5b60008581526006602090815260408083208054600180820190925582517f29da74a9365f97c3d77de334aec5c720e44b0c8a6e640ceb375e27a8ab7acadd8186015273ffffffffffffffffffffffffffffffffffffffff8d8116828601528c166060820152608081018b905260a081019190915260c08082018a90528351808303909101815260e090910190925281519190920120610e4d906114d3565b6040805160008152602081018083529290925260ff871690820152606081018590526080810184905260a0016020604051602081039080840390855afa158015610e9b573d6000803e3d6000fd5b50506040517fffffffffffffffffffffffffffffffffffffffffffffffffffffffffffffffe001519150507fffffffffffffffffffffffffffffffffffffffffffffffffffffffffffffffff8614801581610f1d575060008781526002602052604090205473ffffffffffffffffffffffffffffffffffffffff838116911614155b8015610f3d575073ffffffffffffffffffffffffffffffffffffffff8216155b80610f7457508873ffffffffffffffffffffffffffffffffffffffff168273ffffffffffffffffffffffffffffffffffffffff1614155b15610fab576040517f815e1d6400000000000000000000000000000000000000000000000000000000815260040160405180910390fd5b80156110485773ffffffffffffffffffffffffffffffffffffffff8281166000818152600560209081526040808320948d168084529482529182902080547fffffffffffffffffffffffffffffffffffffffffffffffffffffffffffffff0016600190811790915591519182527f17307eab39ab6107e8899845ad3d59bd9653f200f220920489ca2b5937696c31910160405180910390a36110c5565b60008781526004602052604080822080547fffffffffffffffffffffffff00000000000000000000000000000000000000001673ffffffffffffffffffffffffffffffffffffffff8c811691821790925591518a93918616917f8c5be1e5ebec7d5bd14f71427d1e84f3dd0314c0f7b2291e5b200ac8c7c3b92591a45b505050505050505050565b73ffffffffffffffffffffffffffffffffffffffff821661111d576040517f9c8d2cd200000000000000000000000000000000000000000000000000000000815260040160405180910390fd5b60008181526002602052604090205473ffffffffffffffffffffffffffffffffffffffff1615611179576040517fddefae2800000000000000000000000000000000000000000000000000000000815260040160405180910390fd5b73ffffffffffffffffffffffffffffffffffffffff8216600081815260036020908152604080832080546001019055848352600290915280822080547fffffffffffffffffffffffff0000000000000000000000000000000000000000168417905551839291907fddf252ad1be2c89b69c2b068fc378daa952ba7f163c4a11628f55a4df523b3ef908290a45050565b60008181526002602052604090205473ffffffffffffffffffffffffffffffffffffffff1680611265576040517f4d5e5fb300000000000000000000000000000000000000000000000000000000815260040160405180910390fd5b73ffffffffffffffffffffffffffffffffffffffff8116600081815260036020908152604080832080547fffffffffffffffffffffffffffffffffffffffffffffffffffffffffffffffff0190558583526002825280832080547fffffffffffffffffffffffff000000000000000000000000000000000000000090811690915560049092528083208054909216909155518492907fddf252ad1be2c89b69c2b068fc378daa952ba7f163c4a11628f55a4df523b3ef908390a45050565b61132d83836110d0565b73ffffffffffffffffffffffffffffffffffffffff83163b15610aab576040517f150b7a02000000000000000000000000000000000000000000000000000000008082529073ffffffffffffffffffffffffffffffffffffffff85169063150b7a0290610a0f90339060009088908890600401611a40565b6113af82826110d0565b73ffffffffffffffffffffffffffffffffffffffff82163b15610974576040517f150b7a0200000000000000000000000000000000000000000000000000000000808252336004830152600060248301819052604483018490526080606484015260848301529073ffffffffffffffffffffffffffffffffffffffff84169063150b7a029060a4016020604051808303816000875af1158015611456573d6000803e3d6000fd5b505050506040513d601f19601f8201168201806040525081019061147a91906119a4565b7fffffffff000000000000000000000000000000000000000000000000000000001614610974576040517f3da6393100000000000000000000000000000000000000000000000000000000815260040160405180910390fd5b60006114dd61086f565b6040517f19010000000000000000000000000000000000000000000000000000000000006020820152602281019190915260428101839052606201604051602081830303815290604052805190602001209050919050565b7fffffffff0000000000000000000000000000000000000000000000000000000081168114610ab957600080fd5b60006020828403121561157557600080fd5b813561158081611535565b9392505050565b6000815180845260005b818110156115ad57602081850181015186830182015201611591565b5060006020828601015260207fffffffffffffffffffffffffffffffffffffffffffffffffffffffffffffffe0601f83011685010191505092915050565b6020815260006115806020830184611587565b60006020828403121561161057600080fd5b5035919050565b803573ffffffffffffffffffffffffffffffffffffffff81168114610b1857600080fd5b6000806040838503121561164e57600080fd5b61165783611617565b946020939093013593505050565b60008060006060848603121561167a57600080fd5b61168384611617565b925061169160208501611617565b9150604084013590509250925092565b6000602082840312156116b357600080fd5b61158082611617565b7f4e487b7100000000000000000000000000000000000000000000000000000000600052604160045260246000fd5b60008060006060848603121561170057600080fd5b61170984611617565b925060208401359150604084013567ffffffffffffffff8082111561172d57600080fd5b818601915086601f83011261174157600080fd5b813581811115611753576117536116bc565b604051601f82017fffffffffffffffffffffffffffffffffffffffffffffffffffffffffffffffe0908116603f01168101908382118183101715611799576117996116bc565b816040528281528960208487010111156117b257600080fd5b8260208601602083013760006020848301015280955050505050509250925092565b600080604083850312156117e757600080fd5b6117f083611617565b91506020830135801515811461180557600080fd5b809150509250929050565b60008060008060006080868803121561182857600080fd5b61183186611617565b945061183f60208701611617565b935060408601359250606086013567ffffffffffffffff8082111561186357600080fd5b818801915088601f83011261187757600080fd5b81358181111561188657600080fd5b89602082850101111561189857600080fd5b9699959850939650602001949392505050565b600080600080600080600060e0888a0312156118c657600080fd5b6118cf88611617565b96506118dd60208901611617565b95506040880135945060608801359350608088013560ff8116811461190157600080fd5b9699959850939692959460a0840135945060c09093013592915050565b6000806040838503121561193157600080fd5b61193a83611617565b915061194860208401611617565b90509250929050565b600181811c9082168061196557607f821691505b60208210810361199e577f4e487b7100000000000000000000000000000000000000000000000000000000600052602260045260246000fd5b50919050565b6000602082840312156119b657600080fd5b815161158081611535565b600073ffffffffffffffffffffffffffffffffffffffff808816835280871660208401525084604083015260806060830152826080830152828460a0840137600060a0848401015260a07fffffffffffffffffffffffffffffffffffffffffffffffffffffffffffffffe0601f85011683010190509695505050505050565b600073ffffffffffffffffffffffffffffffffffffffff808716835280861660208401525083604083015260806060830152611a7f6080830184611587565b969550505050505056fea164736f6c6343000811000a",
    "linkReferences": {}
  },
  "methodIdentifiers": {
    "DOMAIN_SEPARATOR()": "3644e515",
    "PERMIT_TYPEHASH()": "30adf81f",
    "approve(address,uint256)": "095ea7b3",
    "balanceOf(address)": "70a08231",
    "burn(uint256)": "42966c68",
    "getApproved(uint256)": "081812fc",
    "isApprovedForAll(address,address)": "e985e9c5",
    "mint(address,uint256)": "40c10f19",
    "name()": "06fdde03",
    "nonces(uint256)": "141a468c",
    "ownerOf(uint256)": "6352211e",
    "permit(address,address,uint256,uint256,uint8,bytes32,bytes32)": "d505accf",
    "safeMint(address,uint256)": "a1448194",
    "safeMint(address,uint256,bytes)": "8832e6e3",
    "safeTransferFrom(address,address,uint256)": "42842e0e",
    "safeTransferFrom(address,address,uint256,bytes)": "b88d4fde",
    "setApprovalForAll(address,bool)": "a22cb465",
    "supportsInterface(bytes4)": "01ffc9a7",
    "symbol()": "95d89b41",
    "tokenURI(uint256)": "c87b56dd",
    "transferFrom(address,address,uint256)": "23b872dd"
  },
  "id": 23
}