{
  "abi": [
    {
      "inputs": [
        {
          "internalType": "address",
          "name": "signer_",
          "type": "address"
        }
      ],
      "stateMutability": "nonpayable",
      "type": "constructor"
    },
    {
      "inputs": [
        {
          "internalType": "bytes32",
          "name": "hash",
          "type": "bytes32"
        },
        {
          "internalType": "bytes",
          "name": "signature",
          "type": "bytes"
        }
      ],
      "name": "isValidSignature",
      "outputs": [
        {
          "internalType": "bytes4",
          "name": "",
          "type": "bytes4"
        }
      ],
      "stateMutability": "view",
      "type": "function"
    },
    {
      "inputs": [
        {
          "internalType": "address",
          "name": "",
          "type": "address"
        },
        {
          "internalType": "address",
          "name": "",
          "type": "address"
        },
        {
          "internalType": "uint256[]",
          "name": "",
          "type": "uint256[]"
        },
        {
          "internalType": "uint256[]",
          "name": "",
          "type": "uint256[]"
        },
        {
          "internalType": "bytes",
          "name": "",
          "type": "bytes"
        }
      ],
      "name": "onERC1155BatchReceived",
      "outputs": [
        {
          "internalType": "bytes4",
          "name": "",
          "type": "bytes4"
        }
      ],
      "stateMutability": "nonpayable",
      "type": "function"
    },
    {
      "inputs": [
        {
          "internalType": "address",
          "name": "",
          "type": "address"
        },
        {
          "internalType": "address",
          "name": "",
          "type": "address"
        },
        {
          "internalType": "uint256",
          "name": "",
          "type": "uint256"
        },
        {
          "internalType": "uint256",
          "name": "",
          "type": "uint256"
        },
        {
          "internalType": "bytes",
          "name": "",
          "type": "bytes"
        }
      ],
      "name": "onERC1155Received",
      "outputs": [
        {
          "internalType": "bytes4",
          "name": "",
          "type": "bytes4"
        }
      ],
      "stateMutability": "nonpayable",
      "type": "function"
    },
    {
      "inputs": [
        {
          "internalType": "address",
          "name": "",
          "type": "address"
        },
        {
          "internalType": "address",
          "name": "",
          "type": "address"
        },
        {
          "internalType": "uint256",
          "name": "",
          "type": "uint256"
        },
        {
          "internalType": "bytes",
          "name": "",
          "type": "bytes"
        }
      ],
      "name": "onERC721Received",
      "outputs": [
        {
          "internalType": "bytes4",
          "name": "",
          "type": "bytes4"
        }
      ],
      "stateMutability": "nonpayable",
      "type": "function"
    }
  ],
  "bytecode": {
    "object": "0x608060405234801561001057600080fd5b5060405161056c38038061056c83398101604081905261002f91610054565b600080546001600160a01b0319166001600160a01b0392909216919091179055610084565b60006020828403121561006657600080fd5b81516001600160a01b038116811461007d57600080fd5b9392505050565b6104d9806100936000396000f3fe608060405234801561001057600080fd5b506004361061004c5760003560e01c8063150b7a02146100515780631626ba7e146100be578063bc197c81146100d1578063f23a6e611461010c575b600080fd5b61008961005f366004610299565b7f150b7a020000000000000000000000000000000000000000000000000000000095945050505050565b6040517fffffffff00000000000000000000000000000000000000000000000000000000909116815260200160405180910390f35b6100896100cc366004610308565b610145565b6100896100df366004610399565b7fbc197c810000000000000000000000000000000000000000000000000000000098975050505050505050565b61008961011a366004610454565b7ff23a6e61000000000000000000000000000000000000000000000000000000009695505050505050565b6000805473ffffffffffffffffffffffffffffffffffffffff1661016a8585856101b8565b73ffffffffffffffffffffffffffffffffffffffff161461018c5760006101ae565b7f1626ba7e000000000000000000000000000000000000000000000000000000005b90505b9392505050565b6000604182036101b1576040516040846040377f7fffffffffffffffffffffffffffffff5d576e7357a4501ddfe92f46681b20a06060511161021d5784600052604084013560001a602052602060406080600060015afa5060006060523d6060035191505b6040529392505050565b803573ffffffffffffffffffffffffffffffffffffffff8116811461024b57600080fd5b919050565b60008083601f84011261026257600080fd5b50813567ffffffffffffffff81111561027a57600080fd5b60208301915083602082850101111561029257600080fd5b9250929050565b6000806000806000608086880312156102b157600080fd5b6102ba86610227565b94506102c860208701610227565b935060408601359250606086013567ffffffffffffffff8111156102eb57600080fd5b6102f788828901610250565b969995985093965092949392505050565b60008060006040848603121561031d57600080fd5b83359250602084013567ffffffffffffffff81111561033b57600080fd5b61034786828701610250565b9497909650939450505050565b60008083601f84011261036657600080fd5b50813567ffffffffffffffff81111561037e57600080fd5b6020830191508360208260051b850101111561029257600080fd5b60008060008060008060008060a0898b0312156103b557600080fd5b6103be89610227565b97506103cc60208a01610227565b9650604089013567ffffffffffffffff808211156103e957600080fd5b6103f58c838d01610354565b909850965060608b013591508082111561040e57600080fd5b61041a8c838d01610354565b909650945060808b013591508082111561043357600080fd5b506104408b828c01610250565b999c989b5096995094979396929594505050565b60008060008060008060a0878903121561046d57600080fd5b61047687610227565b955061048460208801610227565b94506040870135935060608701359250608087013567ffffffffffffffff8111156104ae57600080fd5b6104ba89828a01610250565b979a969950949750929593949250505056fea164736f6c6343000811000a",
    "linkReferences": {}
  },
  "methodIdentifiers": {
    "isValidSignature(bytes32,bytes)": "1626ba7e",
    "onERC1155BatchReceived(address,address,uint256[],uint256[],bytes)": "bc197c81",
    "onERC1155Received(address,address,uint256,uint256,bytes)": "f23a6e61",
    "onERC721Received(address,address,uint256,bytes)": "150b7a02"
  },
  "id": 21
}