{
  "abi": [
    {
      "inputs": [
        {
          "internalType": "address",
          "name": "signer_",
          "type": "address"
        }
      ],
      "stateMutability": "nonpayable",
      "type": "constructor"
    },
    {
      "inputs": [
        {
          "internalType": "bytes32",
          "name": "hash",
          "type": "bytes32"
        },
        {
          "internalType": "bytes",
          "name": "signature",
          "type": "bytes"
        }
      ],
      "name": "isValidSignature",
      "outputs": [
        {
          "internalType": "bytes4",
          "name": "",
          "type": "bytes4"
        }
      ],
      "stateMutability": "view",
      "type": "function"
    }
  ],
  "bytecode": {
    "object": "0x608060405234801561001057600080fd5b5060405161027638038061027683398101604081905261002f91610054565b600080546001600160a01b0319166001600160a01b0392909216919091179055610084565b60006020828403121561006657600080fd5b81516001600160a01b038116811461007d57600080fd5b9392505050565b6101e3806100936000396000f3fe608060405234801561001057600080fd5b506004361061002b5760003560e01c80631626ba7e14610030575b600080fd5b61004361003e36600461015a565b610078565b6040517fffffffff00000000000000000000000000000000000000000000000000000000909116815260200160405180910390f35b6000805473ffffffffffffffffffffffffffffffffffffffff1661009d8585856100eb565b73ffffffffffffffffffffffffffffffffffffffff16146100bf5760006100e1565b7f1626ba7e000000000000000000000000000000000000000000000000000000005b90505b9392505050565b6000604182036100e4576040516040846040377f7fffffffffffffffffffffffffffffff5d576e7357a4501ddfe92f46681b20a0606051116101505784600052604084013560001a602052602060406080600060015afa5060006060523d6060035191505b6040529392505050565b60008060006040848603121561016f57600080fd5b83359250602084013567ffffffffffffffff8082111561018e57600080fd5b818601915086601f8301126101a257600080fd5b8135818111156101b157600080fd5b8760208285010111156101c357600080fd5b602083019450809350505050925092509256fea164736f6c6343000811000a",
    "linkReferences": {}
  },
  "methodIdentifiers": {
    "isValidSignature(bytes32,bytes)": "1626ba7e"
  },
  "id": 16
}