{
  "abi": [
    {
      "inputs": [],
      "stateMutability": "nonpayable",
      "type": "constructor"
    },
    {
      "anonymous": false,
      "inputs": [
        {
          "indexed": true,
          "internalType": "address",
          "name": "owner",
          "type": "address"
        },
        {
          "indexed": true,
          "internalType": "address",
          "name": "operator",
          "type": "address"
        },
        {
          "indexed": false,
          "internalType": "bool",
          "name": "approved",
          "type": "bool"
        }
      ],
      "name": "ApprovalForAll",
      "type": "event"
    },
    {
      "anonymous": false,
      "inputs": [
        {
          "indexed": true,
          "internalType": "address",
          "name": "operator",
          "type": "address"
        },
        {
          "indexed": true,
          "internalType": "address",
          "name": "from",
          "type": "address"
        },
        {
          "indexed": true,
          "internalType": "address",
          "name": "to",
          "type": "address"
        },
        {
          "indexed": false,
          "internalType": "uint256[]",
          "name": "ids",
          "type": "uint256[]"
        },
        {
          "indexed": false,
          "internalType": "uint256[]",
          "name": "amounts",
          "type": "uint256[]"
        }
      ],
      "name": "TransferBatch",
      "type": "event"
    },
    {
      "anonymous": false,
      "inputs": [
        {
          "indexed": true,
          "internalType": "address",
          "name": "operator",
          "type": "address"
        },
        {
          "indexed": true,
          "internalType": "address",
          "name": "from",
          "type": "address"
        },
        {
          "indexed": true,
          "internalType": "address",
          "name": "to",
          "type": "address"
        },
        {
          "indexed": false,
          "internalType": "uint256",
          "name": "id",
          "type": "uint256"
        },
        {
          "indexed": false,
          "internalType": "uint256",
          "name": "amount",
          "type": "uint256"
        }
      ],
      "name": "TransferSingle",
      "type": "event"
    },
    {
      "anonymous": false,
      "inputs": [
        {
          "indexed": false,
          "internalType": "string",
          "name": "value",
          "type": "string"
        },
        {
          "indexed": true,
          "internalType": "uint256",
          "name": "id",
          "type": "uint256"
        }
      ],
      "name": "URI",
      "type": "event"
    },
    {
      "inputs": [],
      "name": "DOMAIN_SEPARATOR",
      "outputs": [
        {
          "internalType": "bytes32",
          "name": "",
          "type": "bytes32"
        }
      ],
      "stateMutability": "view",
      "type": "function"
    },
    {
      "inputs": [],
      "name": "PERMIT_TYPEHASH",
      "outputs": [
        {
          "internalType": "bytes32",
          "name": "",
          "type": "bytes32"
        }
      ],
      "stateMutability": "view",
      "type": "function"
    },
    {
      "inputs": [
        {
          "internalType": "address",
          "name": "",
          "type": "address"
        },
        {
          "internalType": "uint256",
          "name": "",
          "type": "uint256"
        }
      ],
      "name": "balanceOf",
      "outputs": [
        {
          "internalType": "uint256",
          "name": "",
          "type": "uint256"
        }
      ],
      "stateMutability": "view",
      "type": "function"
    },
    {
      "inputs": [
        {
          "internalType": "address[]",
          "name": "owners",
          "type": "address[]"
        },
        {
          "internalType": "uint256[]",
          "name": "ids",
          "type": "uint256[]"
        }
      ],
      "name": "balanceOfBatch",
      "outputs": [
        {
          "internalType": "uint256[]",
          "name": "balances",
          "type": "uint256[]"
        }
      ],
      "stateMutability": "view",
      "type": "function"
    },
    {
      "inputs": [
        {
          "internalType": "address",
          "name": "from",
          "type": "address"
        },
        {
          "internalType": "uint256[]",
          "name": "ids",
          "type": "uint256[]"
        },
        {
          "internalType": "uint256[]",
          "name": "amounts",
          "type": "uint256[]"
        }
      ],
      "name": "batchBurn",
      "outputs": [],
      "stateMutability": "nonpayable",
      "type": "function"
    },
    {
      "inputs": [
        {
          "internalType": "address",
          "name": "to",
          "type": "address"
        },
        {
          "internalType": "uint256[]",
          "name": "ids",
          "type": "uint256[]"
        },
        {
          "internalType": "uint256[]",
          "name": "amounts",
          "type": "uint256[]"
        },
        {
          "internalType": "bytes",
          "name": "data",
          "type": "bytes"
        }
      ],
      "name": "batchMint",
      "outputs": [],
      "stateMutability": "nonpayable",
      "type": "function"
    },
    {
      "inputs": [
        {
          "internalType": "address",
          "name": "from",
          "type": "address"
        },
        {
          "internalType": "uint256",
          "name": "id",
          "type": "uint256"
        },
        {
          "internalType": "uint256",
          "name": "amount",
          "type": "uint256"
        }
      ],
      "name": "burn",
      "outputs": [],
      "stateMutability": "nonpayable",
      "type": "function"
    },
    {
      "inputs": [
        {
          "internalType": "address",
          "name": "",
          "type": "address"
        },
        {
          "internalType": "address",
          "name": "",
          "type": "address"
        }
      ],
      "name": "isApprovedForAll",
      "outputs": [
        {
          "internalType": "bool",
          "name": "",
          "type": "bool"
        }
      ],
      "stateMutability": "view",
      "type": "function"
    },
    {
      "inputs": [
        {
          "internalType": "address",
          "name": "to",
          "type": "address"
        },
        {
          "internalType": "uint256",
          "name": "id",
          "type": "uint256"
        },
        {
          "internalType": "uint256",
          "name": "amount",
          "type": "uint256"
        },
        {
          "internalType": "bytes",
          "name": "data",
          "type": "bytes"
        }
      ],
      "name": "mint",
      "outputs": [],
      "stateMutability": "nonpayable",
      "type": "function"
    },
    {
      "inputs": [
        {
          "internalType": "address",
          "name": "",
          "type": "address"
        },
        {
          "internalType": "uint256",
          "name": "",
          "type": "uint256"
        }
      ],
      "name": "nonces",
      "outputs": [
        {
          "internalType": "uint256",
          "name": "",
          "type": "uint256"
        }
      ],
      "stateMutability": "view",
      "type": "function"
    },
    {
      "inputs": [
        {
          "internalType": "address",
          "name": "owner",
          "type": "address"
        },
        {
          "internalType": "address",
          "name": "spender",
          "type": "address"
        },
        {
          "internalType": "uint256",
          "name": "id",
          "type": "uint256"
        },
        {
          "internalType": "uint256",
          "name": "deadline",
          "type": "uint256"
        },
        {
          "internalType": "uint8",
          "name": "v",
          "type": "uint8"
        },
        {
          "internalType": "bytes32",
          "name": "r",
          "type": "bytes32"
        },
        {
          "internalType": "bytes32",
          "name": "s",
          "type": "bytes32"
        }
      ],
      "name": "permit",
      "outputs": [],
      "stateMutability": "nonpayable",
      "type": "function"
    },
    {
      "inputs": [
        {
          "internalType": "address",
          "name": "from",
          "type": "address"
        },
        {
          "internalType": "address",
          "name": "to",
          "type": "address"
        },
        {
          "internalType": "uint256[]",
          "name": "ids",
          "type": "uint256[]"
        },
        {
          "internalType": "uint256[]",
          "name": "amounts",
          "type": "uint256[]"
        },
        {
          "internalType": "bytes",
          "name": "data",
          "type": "bytes"
        }
      ],
      "name": "safeBatchTransferFrom",
      "outputs": [],
      "stateMutability": "nonpayable",
      "type": "function"
    },
    {
      "inputs": [
        {
          "internalType": "address",
          "name": "from",
          "type": "address"
        },
        {
          "internalType": "address",
          "name": "to",
          "type": "address"
        },
        {
          "internalType": "uint256",
          "name": "id",
          "type": "uint256"
        },
        {
          "internalType": "uint256",
          "name": "amount",
          "type": "uint256"
        },
        {
          "internalType": "bytes",
          "name": "data",
          "type": "bytes"
        }
      ],
      "name": "safeTransferFrom",
      "outputs": [],
      "stateMutability": "nonpayable",
      "type": "function"
    },
    {
      "inputs": [
        {
          "internalType": "address",
          "name": "operator",
          "type": "address"
        },
        {
          "internalType": "bool",
          "name": "approved",
          "type": "bool"
        }
      ],
      "name": "setApprovalForAll",
      "outputs": [],
      "stateMutability": "nonpayable",
      "type": "function"
    },
    {
      "inputs": [
        {
          "internalType": "bytes4",
          "name": "interfaceId",
          "type": "bytes4"
        }
      ],
      "name": "supportsInterface",
      "outputs": [
        {
          "internalType": "bool",
          "name": "",
          "type": "bool"
        }
      ],
      "stateMutability": "view",
      "type": "function"
    },
    {
      "inputs": [
        {
          "internalType": "uint256",
          "name": "",
          "type": "uint256"
        }
      ],
      "name": "uri",
      "outputs": [
        {
          "internalType": "string",
          "name": "",
          "type": "string"
        }
      ],
      "stateMutability": "pure",
      "type": "function"
    }
  ],
  "bytecode": {
    "object": "0x61010060405234801561001157600080fd5b50604080518082018252600c81526b4578616d706c65206e616d6560a01b60208083019182528351808501855260018152603160f81b81830190815293519092206080818152925190932060a081815285517f8b73c3c69bb8fe3d512ecc4cf759cc79239f7b179b0ffacaa9a75d522b39400f8185015280870195909552606085019190915246848401819052308583015285518086038301815260c0958601909652855195909201949094209283905260e08190529051925191906123106100fa60003960006107a40152600061087901526000610820015260006107f801526123106000f3fe608060405234801561001057600080fd5b50600436106100ff5760003560e01c8063731133e911610097578063e985e9c511610066578063e985e9c51461025e578063f242432a1461028c578063f5298aca1461029f578063f6eb127a146102b257600080fd5b8063731133e914610212578063a22cb46514610225578063b48ab8b614610238578063d505accf1461024b57600080fd5b806330adf81f116100d357806330adf81f146101985780633644e515146101bf5780634e1273f4146101c7578063502e1a16146101e757600080fd5b8062fdd58e1461010457806301ffc9a71461013f5780630e89341c146101625780632eb2c2d614610183575b600080fd5b61012c61011236600461186a565b600060208181529281526040808220909352908152205481565b6040519081526020015b60405180910390f35b61015261014d3660046118c5565b6102c5565b6040519015158152602001610136565b6101766101703660046118e9565b50606090565b6040516101369190611966565b610196610191366004611a07565b6103aa565b005b61012c7f29da74a9365f97c3d77de334aec5c720e44b0c8a6e640ceb375e27a8ab7acadd81565b61012c6107a0565b6101da6101d5366004611ac2565b61089b565b6040516101369190611b69565b61012c6101f536600461186a565b600260209081526000928352604080842090915290825290205481565b610196610220366004611c88565b610a12565b610196610233366004611ce9565b610a24565b610196610246366004611da5565b610abb565b610196610259366004611e32565b610ac7565b61015261026c366004611ea5565b600160209081526000928352604080842090915290825290205460ff1681565b61019661029a366004611ed8565b610d86565b6101966102ad366004611f50565b61108c565b6101966102c0366004611f83565b61109c565b60007f01ffc9a7000000000000000000000000000000000000000000000000000000007fffffffff000000000000000000000000000000000000000000000000000000008316148061035857507fd9b67a26000000000000000000000000000000000000000000000000000000007fffffffff000000000000000000000000000000000000000000000000000000008316145b806103a457507f0e89341c000000000000000000000000000000000000000000000000000000007fffffffff000000000000000000000000000000000000000000000000000000008316145b92915050565b848314610418576040517f08c379a000000000000000000000000000000000000000000000000000000000815260206004820152600f60248201527f4c454e4754485f4d49534d41544348000000000000000000000000000000000060448201526064015b60405180910390fd5b3373ffffffffffffffffffffffffffffffffffffffff8916148061046c575073ffffffffffffffffffffffffffffffffffffffff8816600090815260016020908152604080832033845290915290205460ff165b6104d2576040517f08c379a000000000000000000000000000000000000000000000000000000000815260206004820152600e60248201527f4e4f545f415554484f52495a4544000000000000000000000000000000000000604482015260640161040f565b60008060005b878110156105a7578888828181106104f2576104f2611ff7565b90506020020135925086868281811061050d5761050d611ff7565b73ffffffffffffffffffffffffffffffffffffffff8e1660009081526020818152604080832089845282528220805493909102949094013595508593925090610557908490612055565b909155505073ffffffffffffffffffffffffffffffffffffffff8a166000908152602081815260408083208684529091528120805484929061059a908490612068565b90915550506001016104d8565b508873ffffffffffffffffffffffffffffffffffffffff168a73ffffffffffffffffffffffffffffffffffffffff163373ffffffffffffffffffffffffffffffffffffffff167f4a39dc06d4c0dbc64b70af90fd698a233a518aa5d07e595d983b8c0526c8f7fb8b8b8b8b60405161062294939291906120c6565b60405180910390a473ffffffffffffffffffffffffffffffffffffffff89163b15610714576040517fbc197c81000000000000000000000000000000000000000000000000000000008082529073ffffffffffffffffffffffffffffffffffffffff8b169063bc197c81906106a99033908f908e908e908e908e908e908e90600401612136565b6020604051808303816000875af11580156106c8573d6000803e3d6000fd5b505050506040513d601f19601f820116820180604052508101906106ec91906121a7565b7fffffffff00000000000000000000000000000000000000000000000000000000161461072e565b73ffffffffffffffffffffffffffffffffffffffff891615155b610794576040517f08c379a000000000000000000000000000000000000000000000000000000000815260206004820152601060248201527f554e534146455f524543495049454e5400000000000000000000000000000000604482015260640161040f565b50505050505050505050565b60007f0000000000000000000000000000000000000000000000000000000000000000461461087657610871604080517f8b73c3c69bb8fe3d512ecc4cf759cc79239f7b179b0ffacaa9a75d522b39400f60208201527f0000000000000000000000000000000000000000000000000000000000000000918101919091527f000000000000000000000000000000000000000000000000000000000000000060608201524660808201523060a082015260009060c00160405160208183030381529060405280519060200120905090565b905090565b507f000000000000000000000000000000000000000000000000000000000000000090565b6060838214610906576040517f08c379a000000000000000000000000000000000000000000000000000000000815260206004820152600f60248201527f4c454e4754485f4d49534d415443480000000000000000000000000000000000604482015260640161040f565b8367ffffffffffffffff81111561091f5761091f611b7c565b604051908082528060200260200182016040528015610948578160200160208202803683370190505b50905060005b84811015610a095760008087878481811061096b5761096b611ff7565b905060200201602081019061098091906121c4565b73ffffffffffffffffffffffffffffffffffffffff1673ffffffffffffffffffffffffffffffffffffffff16815260200190815260200160002060008585848181106109ce576109ce611ff7565b905060200201358152602001908152602001600020548282815181106109f6576109f6611ff7565b602090810291909101015260010161094e565b50949350505050565b610a1e848484846110a7565b50505050565b33600081815260016020908152604080832073ffffffffffffffffffffffffffffffffffffffff87168085529083529281902080547fffffffffffffffffffffffffffffffffffffffffffffffffffffffffffffff001686151590811790915590519081529192917f17307eab39ab6107e8899845ad3d59bd9653f200f220920489ca2b5937696c31910160405180910390a35050565b610a1e848484846112a5565b42841015610b31576040517f08c379a000000000000000000000000000000000000000000000000000000000815260206004820152601760248201527f5045524d49545f444541444c494e455f45585049524544000000000000000000604482015260640161040f565b73ffffffffffffffffffffffffffffffffffffffff87811660008181526002602090815260408083208a845282528083208054600180820190925582517f29da74a9365f97c3d77de334aec5c720e44b0c8a6e640ceb375e27a8ab7acadd9481019490945291830194909452938a1660608201526080810189905260a081019390935260c0830187905291610bde9060e001604051602081830303815290604052805190602001206115a6565b6040805160008152602081018083529290925260ff871690820152606081018590526080810184905260a0016020604051602081039080840390855afa158015610c2c573d6000803e3d6000fd5b5050506020604051035190508773ffffffffffffffffffffffffffffffffffffffff168173ffffffffffffffffffffffffffffffffffffffff16148015610c88575073ffffffffffffffffffffffffffffffffffffffff811615155b610cee576040517f08c379a000000000000000000000000000000000000000000000000000000000815260206004820152600e60248201527f494e56414c49445f5349474e4552000000000000000000000000000000000000604482015260640161040f565b73ffffffffffffffffffffffffffffffffffffffff8881166000818152600160208181526040808420958d168085529582529283902080547fffffffffffffffffffffffffffffffffffffffffffffffffffffffffffffff00168317905591519081527f17307eab39ab6107e8899845ad3d59bd9653f200f220920489ca2b5937696c31910160405180910390a35050505050505050565b3373ffffffffffffffffffffffffffffffffffffffff87161480610dda575073ffffffffffffffffffffffffffffffffffffffff8616600090815260016020908152604080832033845290915290205460ff165b610e40576040517f08c379a000000000000000000000000000000000000000000000000000000000815260206004820152600e60248201527f4e4f545f415554484f52495a4544000000000000000000000000000000000000604482015260640161040f565b73ffffffffffffffffffffffffffffffffffffffff861660009081526020818152604080832087845290915281208054859290610e7e908490612055565b909155505073ffffffffffffffffffffffffffffffffffffffff851660009081526020818152604080832087845290915281208054859290610ec1908490612068565b9091555050604080518581526020810185905273ffffffffffffffffffffffffffffffffffffffff808816929089169133917fc3d58168c5ae7397731d063d5bbf3d657854427343f4c083240f7aacaa2d0f62910160405180910390a473ffffffffffffffffffffffffffffffffffffffff85163b15611004576040517ff23a6e61000000000000000000000000000000000000000000000000000000008082529073ffffffffffffffffffffffffffffffffffffffff87169063f23a6e6190610f999033908b908a908a908a908a906004016121df565b6020604051808303816000875af1158015610fb8573d6000803e3d6000fd5b505050506040513d601f19601f82011682018060405250810190610fdc91906121a7565b7fffffffff00000000000000000000000000000000000000000000000000000000161461101e565b73ffffffffffffffffffffffffffffffffffffffff851615155b611084576040517f08c379a000000000000000000000000000000000000000000000000000000000815260206004820152601060248201527f554e534146455f524543495049454e5400000000000000000000000000000000604482015260640161040f565b505050505050565b611097838383611608565b505050565b6110978383836116a6565b73ffffffffffffffffffffffffffffffffffffffff8416600090815260208181526040808320868452909152812080548492906110e5908490612068565b9091555050604080518481526020810184905273ffffffffffffffffffffffffffffffffffffffff86169160009133917fc3d58168c5ae7397731d063d5bbf3d657854427343f4c083240f7aacaa2d0f62910160405180910390a473ffffffffffffffffffffffffffffffffffffffff84163b15611225576040517ff23a6e61000000000000000000000000000000000000000000000000000000008082529073ffffffffffffffffffffffffffffffffffffffff86169063f23a6e61906111ba903390600090899089908990600401612231565b6020604051808303816000875af11580156111d9573d6000803e3d6000fd5b505050506040513d601f19601f820116820180604052508101906111fd91906121a7565b7fffffffff00000000000000000000000000000000000000000000000000000000161461123f565b73ffffffffffffffffffffffffffffffffffffffff841615155b610a1e576040517f08c379a000000000000000000000000000000000000000000000000000000000815260206004820152601060248201527f554e534146455f524543495049454e5400000000000000000000000000000000604482015260640161040f565b825182518114611311576040517f08c379a000000000000000000000000000000000000000000000000000000000815260206004820152600f60248201527f4c454e4754485f4d49534d415443480000000000000000000000000000000000604482015260640161040f565b60005b818110156113ba5783818151811061132e5761132e611ff7565b60200260200101516000808873ffffffffffffffffffffffffffffffffffffffff1673ffffffffffffffffffffffffffffffffffffffff168152602001908152602001600020600087848151811061138857611388611ff7565b6020026020010151815260200190815260200160002060008282546113ad9190612068565b9091555050600101611314565b508473ffffffffffffffffffffffffffffffffffffffff16600073ffffffffffffffffffffffffffffffffffffffff163373ffffffffffffffffffffffffffffffffffffffff167f4a39dc06d4c0dbc64b70af90fd698a233a518aa5d07e595d983b8c0526c8f7fb8787604051611432929190612276565b60405180910390a473ffffffffffffffffffffffffffffffffffffffff85163b1561151f576040517fbc197c81000000000000000000000000000000000000000000000000000000008082529073ffffffffffffffffffffffffffffffffffffffff87169063bc197c81906114b49033906000908a908a908a906004016122a4565b6020604051808303816000875af11580156114d3573d6000803e3d6000fd5b505050506040513d601f19601f820116820180604052508101906114f791906121a7565b7fffffffff000000000000000000000000000000000000000000000000000000001614611539565b73ffffffffffffffffffffffffffffffffffffffff851615155b61159f576040517f08c379a000000000000000000000000000000000000000000000000000000000815260206004820152601060248201527f554e534146455f524543495049454e5400000000000000000000000000000000604482015260640161040f565b5050505050565b60006115b06107a0565b6040517f19010000000000000000000000000000000000000000000000000000000000006020820152602281019190915260428101839052606201604051602081830303815290604052805190602001209050919050565b73ffffffffffffffffffffffffffffffffffffffff831660009081526020818152604080832085845290915281208054839290611646908490612055565b9091555050604080518381526020810183905260009173ffffffffffffffffffffffffffffffffffffffff86169133917fc3d58168c5ae7397731d063d5bbf3d657854427343f4c083240f7aacaa2d0f62910160405180910390a4505050565b815181518114611712576040517f08c379a000000000000000000000000000000000000000000000000000000000815260206004820152600f60248201527f4c454e4754485f4d49534d415443480000000000000000000000000000000000604482015260640161040f565b60005b818110156117bb5782818151811061172f5761172f611ff7565b60200260200101516000808773ffffffffffffffffffffffffffffffffffffffff1673ffffffffffffffffffffffffffffffffffffffff168152602001908152602001600020600086848151811061178957611789611ff7565b6020026020010151815260200190815260200160002060008282546117ae9190612055565b9091555050600101611715565b50600073ffffffffffffffffffffffffffffffffffffffff168473ffffffffffffffffffffffffffffffffffffffff163373ffffffffffffffffffffffffffffffffffffffff167f4a39dc06d4c0dbc64b70af90fd698a233a518aa5d07e595d983b8c0526c8f7fb8686604051611833929190612276565b60405180910390a450505050565b803573ffffffffffffffffffffffffffffffffffffffff8116811461186557600080fd5b919050565b6000806040838503121561187d57600080fd5b61188683611841565b946020939093013593505050565b7fffffffff00000000000000000000000000000000000000000000000000000000811681146118c257600080fd5b50565b6000602082840312156118d757600080fd5b81356118e281611894565b9392505050565b6000602082840312156118fb57600080fd5b5035919050565b6000815180845260005b818110156119285760208185018101518683018201520161190c565b5060006020828601015260207fffffffffffffffffffffffffffffffffffffffffffffffffffffffffffffffe0601f83011685010191505092915050565b6020815260006118e26020830184611902565b60008083601f84011261198b57600080fd5b50813567ffffffffffffffff8111156119a357600080fd5b6020830191508360208260051b85010111156119be57600080fd5b9250929050565b60008083601f8401126119d757600080fd5b50813567ffffffffffffffff8111156119ef57600080fd5b6020830191508360208285010111156119be57600080fd5b60008060008060008060008060a0898b031215611a2357600080fd5b611a2c89611841565b9750611a3a60208a01611841565b9650604089013567ffffffffffffffff80821115611a5757600080fd5b611a638c838d01611979565b909850965060608b0135915080821115611a7c57600080fd5b611a888c838d01611979565b909650945060808b0135915080821115611aa157600080fd5b50611aae8b828c016119c5565b999c989b5096995094979396929594505050565b60008060008060408587031215611ad857600080fd5b843567ffffffffffffffff80821115611af057600080fd5b611afc88838901611979565b90965094506020870135915080821115611b1557600080fd5b50611b2287828801611979565b95989497509550505050565b600081518084526020808501945080840160005b83811015611b5e57815187529582019590820190600101611b42565b509495945050505050565b6020815260006118e26020830184611b2e565b7f4e487b7100000000000000000000000000000000000000000000000000000000600052604160045260246000fd5b604051601f82017fffffffffffffffffffffffffffffffffffffffffffffffffffffffffffffffe016810167ffffffffffffffff81118282101715611bf257611bf2611b7c565b604052919050565b600082601f830112611c0b57600080fd5b813567ffffffffffffffff811115611c2557611c25611b7c565b611c5660207fffffffffffffffffffffffffffffffffffffffffffffffffffffffffffffffe0601f84011601611bab565b818152846020838601011115611c6b57600080fd5b816020850160208301376000918101602001919091529392505050565b60008060008060808587031215611c9e57600080fd5b611ca785611841565b93506020850135925060408501359150606085013567ffffffffffffffff811115611cd157600080fd5b611cdd87828801611bfa565b91505092959194509250565b60008060408385031215611cfc57600080fd5b611d0583611841565b915060208301358015158114611d1a57600080fd5b809150509250929050565b600082601f830112611d3657600080fd5b8135602067ffffffffffffffff821115611d5257611d52611b7c565b8160051b611d61828201611bab565b9283528481018201928281019087851115611d7b57600080fd5b83870192505b84831015611d9a57823582529183019190830190611d81565b979650505050505050565b60008060008060808587031215611dbb57600080fd5b611dc485611841565b9350602085013567ffffffffffffffff80821115611de157600080fd5b611ded88838901611d25565b94506040870135915080821115611e0357600080fd5b611e0f88838901611d25565b93506060870135915080821115611e2557600080fd5b50611cdd87828801611bfa565b600080600080600080600060e0888a031215611e4d57600080fd5b611e5688611841565b9650611e6460208901611841565b95506040880135945060608801359350608088013560ff81168114611e8857600080fd5b9699959850939692959460a0840135945060c09093013592915050565b60008060408385031215611eb857600080fd5b611ec183611841565b9150611ecf60208401611841565b90509250929050565b60008060008060008060a08789031215611ef157600080fd5b611efa87611841565b9550611f0860208801611841565b94506040870135935060608701359250608087013567ffffffffffffffff811115611f3257600080fd5b611f3e89828a016119c5565b979a9699509497509295939492505050565b600080600060608486031215611f6557600080fd5b611f6e84611841565b95602085013595506040909401359392505050565b600080600060608486031215611f9857600080fd5b611fa184611841565b9250602084013567ffffffffffffffff80821115611fbe57600080fd5b611fca87838801611d25565b93506040860135915080821115611fe057600080fd5b50611fed86828701611d25565b9150509250925092565b7f4e487b7100000000000000000000000000000000000000000000000000000000600052603260045260246000fd5b7f4e487b7100000000000000000000000000000000000000000000000000000000600052601160045260246000fd5b818103818111156103a4576103a4612026565b808201808211156103a4576103a4612026565b81835260007f07ffffffffffffffffffffffffffffffffffffffffffffffffffffffffffffff8311156120ad57600080fd5b8260051b80836020870137939093016020019392505050565b6040815260006120da60408301868861207b565b8281036020840152611d9a81858761207b565b8183528181602085013750600060208284010152600060207fffffffffffffffffffffffffffffffffffffffffffffffffffffffffffffffe0601f840116840101905092915050565b600073ffffffffffffffffffffffffffffffffffffffff808b168352808a1660208401525060a0604083015261217060a08301888a61207b565b828103606084015261218381878961207b565b905082810360808401526121988185876120ed565b9b9a5050505050505050505050565b6000602082840312156121b957600080fd5b81516118e281611894565b6000602082840312156121d657600080fd5b6118e282611841565b600073ffffffffffffffffffffffffffffffffffffffff808916835280881660208401525085604083015284606083015260a0608083015261222560a0830184866120ed565b98975050505050505050565b600073ffffffffffffffffffffffffffffffffffffffff808816835280871660208401525084604083015283606083015260a06080830152611d9a60a0830184611902565b6040815260006122896040830185611b2e565b828103602084015261229b8185611b2e565b95945050505050565b600073ffffffffffffffffffffffffffffffffffffffff808816835280871660208401525060a060408301526122dd60a0830186611b2e565b82810360608401526122ef8186611b2e565b90508281036080840152612225818561190256fea164736f6c6343000811000a",
    "linkReferences": {}
  },
  "methodIdentifiers": {
    "DOMAIN_SEPARATOR()": "3644e515",
    "PERMIT_TYPEHASH()": "30adf81f",
    "balanceOf(address,uint256)": "00fdd58e",
    "balanceOfBatch(address[],uint256[])": "4e1273f4",
    "batchBurn(address,uint256[],uint256[])": "f6eb127a",
    "batchMint(address,uint256[],uint256[],bytes)": "b48ab8b6",
    "burn(address,uint256,uint256)": "f5298aca",
    "isApprovedForAll(address,address)": "e985e9c5",
    "mint(address,uint256,uint256,bytes)": "731133e9",
    "nonces(address,uint256)": "502e1a16",
    "permit(address,address,uint256,uint256,uint8,bytes32,bytes32)": "d505accf",
    "safeBatchTransferFrom(address,address,uint256[],uint256[],bytes)": "2eb2c2d6",
    "safeTransferFrom(address,address,uint256,uint256,bytes)": "f242432a",
    "setApprovalForAll(address,bool)": "a22cb465",
    "supportsInterface(bytes4)": "01ffc9a7",
    "uri(uint256)": "0e89341c"
  },
  "id": 15
}