{
  "abi": [
    {
      "inputs": [],
      "stateMutability": "nonpayable",
      "type": "constructor"
    },
    {
      "inputs": [],
      "name": "InvalidRecipient",
      "type": "error"
    },
    {
      "inputs": [],
      "name": "InvalidSigner",
      "type": "error"
    },
    {
      "inputs": [],
      "name": "LengthMismatch",
      "type": "error"
    },
    {
      "inputs": [],
      "name": "PermitExpired",
      "type": "error"
    },
    {
      "inputs": [],
      "name": "Unauthorized",
      "type": "error"
    },
    {
      "inputs": [],
      "name": "UnsafeRecipient",
      "type": "error"
    },
    {
      "anonymous": false,
      "inputs": [
        {
          "indexed": true,
          "internalType": "address",
          "name": "owner",
          "type": "address"
        },
        {
          "indexed": true,
          "internalType": "address",
          "name": "operator",
          "type": "address"
        },
        {
          "indexed": false,
          "internalType": "bool",
          "name": "approved",
          "type": "bool"
        }
      ],
      "name": "ApprovalForAll",
      "type": "event"
    },
    {
      "anonymous": false,
      "inputs": [
        {
          "indexed": true,
          "internalType": "address",
          "name": "operator",
          "type": "address"
        },
        {
          "indexed": true,
          "internalType": "address",
          "name": "from",
          "type": "address"
        },
        {
          "indexed": true,
          "internalType": "address",
          "name": "to",
          "type": "address"
        },
        {
          "indexed": false,
          "internalType": "uint256[]",
          "name": "ids",
          "type": "uint256[]"
        },
        {
          "indexed": false,
          "internalType": "uint256[]",
          "name": "amounts",
          "type": "uint256[]"
        }
      ],
      "name": "TransferBatch",
      "type": "event"
    },
    {
      "anonymous": false,
      "inputs": [
        {
          "indexed": true,
          "internalType": "address",
          "name": "operator",
          "type": "address"
        },
        {
          "indexed": true,
          "internalType": "address",
          "name": "from",
          "type": "address"
        },
        {
          "indexed": true,
          "internalType": "address",
          "name": "to",
          "type": "address"
        },
        {
          "indexed": false,
          "internalType": "uint256",
          "name": "id",
          "type": "uint256"
        },
        {
          "indexed": false,
          "internalType": "uint256",
          "name": "amount",
          "type": "uint256"
        }
      ],
      "name": "TransferSingle",
      "type": "event"
    },
    {
      "anonymous": false,
      "inputs": [
        {
          "indexed": false,
          "internalType": "string",
          "name": "value",
          "type": "string"
        },
        {
          "indexed": true,
          "internalType": "uint256",
          "name": "id",
          "type": "uint256"
        }
      ],
      "name": "URI",
      "type": "event"
    },
    {
      "inputs": [],
      "name": "DOMAIN_SEPARATOR",
      "outputs": [
        {
          "internalType": "bytes32",
          "name": "",
          "type": "bytes32"
        }
      ],
      "stateMutability": "view",
      "type": "function"
    },
    {
      "inputs": [],
      "name": "PERMIT_TYPEHASH",
      "outputs": [
        {
          "internalType": "bytes32",
          "name": "",
          "type": "bytes32"
        }
      ],
      "stateMutability": "view",
      "type": "function"
    },
    {
      "inputs": [
        {
          "internalType": "address",
          "name": "",
          "type": "address"
        },
        {
          "internalType": "uint256",
          "name": "",
          "type": "uint256"
        }
      ],
      "name": "balanceOf",
      "outputs": [
        {
          "internalType": "uint256",
          "name": "",
          "type": "uint256"
        }
      ],
      "stateMutability": "view",
      "type": "function"
    },
    {
      "inputs": [
        {
          "internalType": "address[]",
          "name": "owners",
          "type": "address[]"
        },
        {
          "internalType": "uint256[]",
          "name": "ids",
          "type": "uint256[]"
        }
      ],
      "name": "balanceOfBatch",
      "outputs": [
        {
          "internalType": "uint256[]",
          "name": "balances",
          "type": "uint256[]"
        }
      ],
      "stateMutability": "view",
      "type": "function"
    },
    {
      "inputs": [
        {
          "internalType": "address",
          "name": "from",
          "type": "address"
        },
        {
          "internalType": "uint256[]",
          "name": "ids",
          "type": "uint256[]"
        },
        {
          "internalType": "uint256[]",
          "name": "amounts",
          "type": "uint256[]"
        }
      ],
      "name": "batchBurn",
      "outputs": [],
      "stateMutability": "nonpayable",
      "type": "function"
    },
    {
      "inputs": [
        {
          "internalType": "address",
          "name": "to",
          "type": "address"
        },
        {
          "internalType": "uint256[]",
          "name": "ids",
          "type": "uint256[]"
        },
        {
          "internalType": "uint256[]",
          "name": "amounts",
          "type": "uint256[]"
        },
        {
          "internalType": "bytes",
          "name": "data",
          "type": "bytes"
        }
      ],
      "name": "batchMint",
      "outputs": [],
      "stateMutability": "nonpayable",
      "type": "function"
    },
    {
      "inputs": [
        {
          "internalType": "address",
          "name": "from",
          "type": "address"
        },
        {
          "internalType": "uint256",
          "name": "id",
          "type": "uint256"
        },
        {
          "internalType": "uint256",
          "name": "amount",
          "type": "uint256"
        }
      ],
      "name": "burn",
      "outputs": [],
      "stateMutability": "nonpayable",
      "type": "function"
    },
    {
      "inputs": [
        {
          "internalType": "address",
          "name": "",
          "type": "address"
        },
        {
          "internalType": "address",
          "name": "",
          "type": "address"
        }
      ],
      "name": "isApprovedForAll",
      "outputs": [
        {
          "internalType": "bool",
          "name": "",
          "type": "bool"
        }
      ],
      "stateMutability": "view",
      "type": "function"
    },
    {
      "inputs": [
        {
          "internalType": "address",
          "name": "to",
          "type": "address"
        },
        {
          "internalType": "uint256",
          "name": "id",
          "type": "uint256"
        },
        {
          "internalType": "uint256",
          "name": "amount",
          "type": "uint256"
        },
        {
          "internalType": "bytes",
          "name": "data",
          "type": "bytes"
        }
      ],
      "name": "mint",
      "outputs": [],
      "stateMutability": "nonpayable",
      "type": "function"
    },
    {
      "inputs": [
        {
          "internalType": "address",
          "name": "",
          "type": "address"
        },
        {
          "internalType": "uint256",
          "name": "",
          "type": "uint256"
        }
      ],
      "name": "nonces",
      "outputs": [
        {
          "internalType": "uint256",
          "name": "",
          "type": "uint256"
        }
      ],
      "stateMutability": "view",
      "type": "function"
    },
    {
      "inputs": [
        {
          "internalType": "address",
          "name": "owner",
          "type": "address"
        },
        {
          "internalType": "address",
          "name": "spender",
          "type": "address"
        },
        {
          "internalType": "uint256",
          "name": "id",
          "type": "uint256"
        },
        {
          "internalType": "uint256",
          "name": "deadline",
          "type": "uint256"
        },
        {
          "internalType": "uint8",
          "name": "v",
          "type": "uint8"
        },
        {
          "internalType": "bytes32",
          "name": "r",
          "type": "bytes32"
        },
        {
          "internalType": "bytes32",
          "name": "s",
          "type": "bytes32"
        }
      ],
      "name": "permit",
      "outputs": [],
      "stateMutability": "nonpayable",
      "type": "function"
    },
    {
      "inputs": [
        {
          "internalType": "address",
          "name": "from",
          "type": "address"
        },
        {
          "internalType": "address",
          "name": "to",
          "type": "address"
        },
        {
          "internalType": "uint256[]",
          "name": "ids",
          "type": "uint256[]"
        },
        {
          "internalType": "uint256[]",
          "name": "amounts",
          "type": "uint256[]"
        },
        {
          "internalType": "bytes",
          "name": "data",
          "type": "bytes"
        }
      ],
      "name": "safeBatchTransferFrom",
      "outputs": [],
      "stateMutability": "nonpayable",
      "type": "function"
    },
    {
      "inputs": [
        {
          "internalType": "address",
          "name": "from",
          "type": "address"
        },
        {
          "internalType": "address",
          "name": "to",
          "type": "address"
        },
        {
          "internalType": "uint256",
          "name": "id",
          "type": "uint256"
        },
        {
          "internalType": "uint256",
          "name": "amount",
          "type": "uint256"
        },
        {
          "internalType": "bytes",
          "name": "data",
          "type": "bytes"
        }
      ],
      "name": "safeTransferFrom",
      "outputs": [],
      "stateMutability": "nonpayable",
      "type": "function"
    },
    {
      "inputs": [
        {
          "internalType": "address",
          "name": "operator",
          "type": "address"
        },
        {
          "internalType": "bool",
          "name": "approved",
          "type": "bool"
        }
      ],
      "name": "setApprovalForAll",
      "outputs": [],
      "stateMutability": "nonpayable",
      "type": "function"
    },
    {
      "inputs": [
        {
          "internalType": "bytes4",
          "name": "interfaceId",
          "type": "bytes4"
        }
      ],
      "name": "supportsInterface",
      "outputs": [
        {
          "internalType": "bool",
          "name": "",
          "type": "bool"
        }
      ],
      "stateMutability": "view",
      "type": "function"
    },
    {
      "inputs": [
        {
          "internalType": "uint256",
          "name": "",
          "type": "uint256"
        }
      ],
      "name": "uri",
      "outputs": [
        {
          "internalType": "string",
          "name": "",
          "type": "string"
        }
      ],
      "stateMutability": "pure",
      "type": "function"
    }
  ],
  "bytecode": {
    "object": "0x61010060405234801561001157600080fd5b50604080518082018252600c81526b4578616d706c65206e616d6560a01b60208083019182528351808501855260018152603160f81b81830190815293519092206080818152925190932060a081815285517f8b73c3c69bb8fe3d512ecc4cf759cc79239f7b179b0ffacaa9a75d522b39400f8185015280870195909552606085019190915246848401819052308583015285518086038301815260c0958601909652855195909201949094209283905260e081905290519251919061219f6100fa60003960006107460152600061081b015260006107c20152600061079a015261219f6000f3fe608060405234801561001057600080fd5b50600436106100ff5760003560e01c8063731133e911610097578063e985e9c511610066578063e985e9c51461025e578063f242432a1461028c578063f5298aca1461029f578063f6eb127a146102b257600080fd5b8063731133e914610212578063a22cb46514610225578063b48ab8b614610238578063d505accf1461024b57600080fd5b806330adf81f116100d357806330adf81f146101985780633644e515146101bf5780634e1273f4146101c7578063502e1a16146101e757600080fd5b8062fdd58e1461010457806301ffc9a71461013f5780630e89341c146101625780632eb2c2d614610183575b600080fd5b61012c6101123660046116f9565b600060208181529281526040808220909352908152205481565b6040519081526020015b60405180910390f35b61015261014d366004611754565b6102c5565b6040519015158152602001610136565b610176610170366004611778565b50606090565b60405161013691906117f5565b610196610191366004611896565b6103aa565b005b61012c7f29da74a9365f97c3d77de334aec5c720e44b0c8a6e640ceb375e27a8ab7acadd81565b61012c610742565b6101da6101d5366004611951565b61083d565b60405161013691906119f8565b61012c6101f53660046116f9565b600260209081526000928352604080842090915290825290205481565b610196610220366004611b17565b610984565b610196610233366004611b78565b610996565b610196610246366004611c34565b610a2d565b610196610259366004611cc1565b610a39565b61015261026c366004611d34565b600160209081526000928352604080842090915290825290205460ff1681565b61019661029a366004611d67565b610c98565b6101966102ad366004611ddf565b610f75565b6101966102c0366004611e12565b610f85565b60007f01ffc9a7000000000000000000000000000000000000000000000000000000007fffffffff000000000000000000000000000000000000000000000000000000008316148061035857507fd9b67a26000000000000000000000000000000000000000000000000000000007fffffffff000000000000000000000000000000000000000000000000000000008316145b806103a457507f0e89341c000000000000000000000000000000000000000000000000000000007fffffffff000000000000000000000000000000000000000000000000000000008316145b92915050565b8483146103e3576040517fff633a3800000000000000000000000000000000000000000000000000000000815260040160405180910390fd5b3373ffffffffffffffffffffffffffffffffffffffff89161480159061043a575073ffffffffffffffffffffffffffffffffffffffff8816600090815260016020908152604080832033845290915290205460ff16155b15610471576040517f82b4290000000000000000000000000000000000000000000000000000000000815260040160405180910390fd5b60008060005b878110156105465788888281811061049157610491611e86565b9050602002013592508686828181106104ac576104ac611e86565b73ffffffffffffffffffffffffffffffffffffffff8e16600090815260208181526040808320898452825282208054939091029490940135955085939250906104f6908490611ee4565b909155505073ffffffffffffffffffffffffffffffffffffffff8a1660009081526020818152604080832086845290915281208054849290610539908490611ef7565b9091555050600101610477565b508873ffffffffffffffffffffffffffffffffffffffff168a73ffffffffffffffffffffffffffffffffffffffff163373ffffffffffffffffffffffffffffffffffffffff167f4a39dc06d4c0dbc64b70af90fd698a233a518aa5d07e595d983b8c0526c8f7fb8b8b8b8b6040516105c19493929190611f55565b60405180910390a473ffffffffffffffffffffffffffffffffffffffff89163b156106e9576040517fbc197c81000000000000000000000000000000000000000000000000000000008082529073ffffffffffffffffffffffffffffffffffffffff8b169063bc197c81906106489033908f908e908e908e908e908e908e90600401611fc5565b6020604051808303816000875af1158015610667573d6000803e3d6000fd5b505050506040513d601f19601f8201168201806040525081019061068b9190612036565b7fffffffff0000000000000000000000000000000000000000000000000000000016146106e4576040517f3da6393100000000000000000000000000000000000000000000000000000000815260040160405180910390fd5b610736565b73ffffffffffffffffffffffffffffffffffffffff8916610736576040517f9c8d2cd200000000000000000000000000000000000000000000000000000000815260040160405180910390fd5b50505050505050505050565b60007f0000000000000000000000000000000000000000000000000000000000000000461461081857610813604080517f8b73c3c69bb8fe3d512ecc4cf759cc79239f7b179b0ffacaa9a75d522b39400f60208201527f0000000000000000000000000000000000000000000000000000000000000000918101919091527f000000000000000000000000000000000000000000000000000000000000000060608201524660808201523060a082015260009060c00160405160208183030381529060405280519060200120905090565b905090565b507f000000000000000000000000000000000000000000000000000000000000000090565b6060818414610878576040517fff633a3800000000000000000000000000000000000000000000000000000000815260040160405180910390fd5b8367ffffffffffffffff81111561089157610891611a0b565b6040519080825280602002602001820160405280156108ba578160200160208202803683370190505b50905060005b8481101561097b576000808787848181106108dd576108dd611e86565b90506020020160208101906108f29190612053565b73ffffffffffffffffffffffffffffffffffffffff1673ffffffffffffffffffffffffffffffffffffffff168152602001908152602001600020600085858481811061094057610940611e86565b9050602002013581526020019081526020016000205482828151811061096857610968611e86565b60209081029190910101526001016108c0565b50949350505050565b61099084848484610f90565b50505050565b33600081815260016020908152604080832073ffffffffffffffffffffffffffffffffffffffff87168085529083529281902080547fffffffffffffffffffffffffffffffffffffffffffffffffffffffffffffff001686151590811790915590519081529192917f17307eab39ab6107e8899845ad3d59bd9653f200f220920489ca2b5937696c31910160405180910390a35050565b61099084848484611191565b83421115610a73576040517f1a15a3cc00000000000000000000000000000000000000000000000000000000815260040160405180910390fd5b73ffffffffffffffffffffffffffffffffffffffff87811660008181526002602090815260408083208a845282528083208054600180820190925582517f29da74a9365f97c3d77de334aec5c720e44b0c8a6e640ceb375e27a8ab7acadd9481019490945291830194909452938a1660608201526080810189905260a081019390935260c0830187905291610b209060e00160405160208183030381529060405280519060200120611465565b6040805160008152602081018083529290925260ff871690820152606081018590526080810184905260a0016020604051602081039080840390855afa158015610b6e573d6000803e3d6000fd5b5050506020604051035190508773ffffffffffffffffffffffffffffffffffffffff168173ffffffffffffffffffffffffffffffffffffffff16141580610bc9575073ffffffffffffffffffffffffffffffffffffffff8116155b15610c00576040517f815e1d6400000000000000000000000000000000000000000000000000000000815260040160405180910390fd5b73ffffffffffffffffffffffffffffffffffffffff8881166000818152600160208181526040808420958d168085529582529283902080547fffffffffffffffffffffffffffffffffffffffffffffffffffffffffffffff00168317905591519081527f17307eab39ab6107e8899845ad3d59bd9653f200f220920489ca2b5937696c31910160405180910390a35050505050505050565b3373ffffffffffffffffffffffffffffffffffffffff871614801590610cef575073ffffffffffffffffffffffffffffffffffffffff8616600090815260016020908152604080832033845290915290205460ff16155b15610d26576040517f82b4290000000000000000000000000000000000000000000000000000000000815260040160405180910390fd5b73ffffffffffffffffffffffffffffffffffffffff861660009081526020818152604080832087845290915281208054859290610d64908490611ee4565b909155505073ffffffffffffffffffffffffffffffffffffffff851660009081526020818152604080832087845290915281208054859290610da7908490611ef7565b9091555050604080518581526020810185905273ffffffffffffffffffffffffffffffffffffffff808816929089169133917fc3d58168c5ae7397731d063d5bbf3d657854427343f4c083240f7aacaa2d0f62910160405180910390a473ffffffffffffffffffffffffffffffffffffffff85163b15610f20576040517ff23a6e61000000000000000000000000000000000000000000000000000000008082529073ffffffffffffffffffffffffffffffffffffffff87169063f23a6e6190610e7f9033908b908a908a908a908a9060040161206e565b6020604051808303816000875af1158015610e9e573d6000803e3d6000fd5b505050506040513d601f19601f82011682018060405250810190610ec29190612036565b7fffffffff000000000000000000000000000000000000000000000000000000001614610f1b576040517f3da6393100000000000000000000000000000000000000000000000000000000815260040160405180910390fd5b610f6d565b73ffffffffffffffffffffffffffffffffffffffff8516610f6d576040517f9c8d2cd200000000000000000000000000000000000000000000000000000000815260040160405180910390fd5b505050505050565b610f808383836114c7565b505050565b610f80838383611565565b73ffffffffffffffffffffffffffffffffffffffff841660009081526020818152604080832086845290915281208054849290610fce908490611ef7565b9091555050604080518481526020810184905273ffffffffffffffffffffffffffffffffffffffff86169160009133917fc3d58168c5ae7397731d063d5bbf3d657854427343f4c083240f7aacaa2d0f62910160405180910390a473ffffffffffffffffffffffffffffffffffffffff84163b15611144576040517ff23a6e61000000000000000000000000000000000000000000000000000000008082529073ffffffffffffffffffffffffffffffffffffffff86169063f23a6e61906110a39033906000908990899089906004016120c0565b6020604051808303816000875af11580156110c2573d6000803e3d6000fd5b505050506040513d601f19601f820116820180604052508101906110e69190612036565b7fffffffff00000000000000000000000000000000000000000000000000000000161461113f576040517f3da6393100000000000000000000000000000000000000000000000000000000815260040160405180910390fd5b610990565b73ffffffffffffffffffffffffffffffffffffffff8416610990576040517f9c8d2cd200000000000000000000000000000000000000000000000000000000815260040160405180910390fd5b8251825181146111cd576040517fff633a3800000000000000000000000000000000000000000000000000000000815260040160405180910390fd5b60005b81811015611276578381815181106111ea576111ea611e86565b60200260200101516000808873ffffffffffffffffffffffffffffffffffffffff1673ffffffffffffffffffffffffffffffffffffffff168152602001908152602001600020600087848151811061124457611244611e86565b6020026020010151815260200190815260200160002060008282546112699190611ef7565b90915550506001016111d0565b508473ffffffffffffffffffffffffffffffffffffffff16600073ffffffffffffffffffffffffffffffffffffffff163373ffffffffffffffffffffffffffffffffffffffff167f4a39dc06d4c0dbc64b70af90fd698a233a518aa5d07e595d983b8c0526c8f7fb87876040516112ee929190612105565b60405180910390a473ffffffffffffffffffffffffffffffffffffffff85163b15611411576040517fbc197c81000000000000000000000000000000000000000000000000000000008082529073ffffffffffffffffffffffffffffffffffffffff87169063bc197c81906113709033906000908a908a908a90600401612133565b6020604051808303816000875af115801561138f573d6000803e3d6000fd5b505050506040513d601f19601f820116820180604052508101906113b39190612036565b7fffffffff00000000000000000000000000000000000000000000000000000000161461140c576040517f3da6393100000000000000000000000000000000000000000000000000000000815260040160405180910390fd5b61145e565b73ffffffffffffffffffffffffffffffffffffffff851661145e576040517f9c8d2cd200000000000000000000000000000000000000000000000000000000815260040160405180910390fd5b5050505050565b600061146f610742565b6040517f19010000000000000000000000000000000000000000000000000000000000006020820152602281019190915260428101839052606201604051602081830303815290604052805190602001209050919050565b73ffffffffffffffffffffffffffffffffffffffff831660009081526020818152604080832085845290915281208054839290611505908490611ee4565b9091555050604080518381526020810183905260009173ffffffffffffffffffffffffffffffffffffffff86169133917fc3d58168c5ae7397731d063d5bbf3d657854427343f4c083240f7aacaa2d0f62910160405180910390a4505050565b8151815181146115a1576040517fff633a3800000000000000000000000000000000000000000000000000000000815260040160405180910390fd5b60005b8181101561164a578281815181106115be576115be611e86565b60200260200101516000808773ffffffffffffffffffffffffffffffffffffffff1673ffffffffffffffffffffffffffffffffffffffff168152602001908152602001600020600086848151811061161857611618611e86565b60200260200101518152602001908152602001600020600082825461163d9190611ee4565b90915550506001016115a4565b50600073ffffffffffffffffffffffffffffffffffffffff168473ffffffffffffffffffffffffffffffffffffffff163373ffffffffffffffffffffffffffffffffffffffff167f4a39dc06d4c0dbc64b70af90fd698a233a518aa5d07e595d983b8c0526c8f7fb86866040516116c2929190612105565b60405180910390a450505050565b803573ffffffffffffffffffffffffffffffffffffffff811681146116f457600080fd5b919050565b6000806040838503121561170c57600080fd5b611715836116d0565b946020939093013593505050565b7fffffffff000000000000000000000000000000000000000000000000000000008116811461175157600080fd5b50565b60006020828403121561176657600080fd5b813561177181611723565b9392505050565b60006020828403121561178a57600080fd5b5035919050565b6000815180845260005b818110156117b75760208185018101518683018201520161179b565b5060006020828601015260207fffffffffffffffffffffffffffffffffffffffffffffffffffffffffffffffe0601f83011685010191505092915050565b6020815260006117716020830184611791565b60008083601f84011261181a57600080fd5b50813567ffffffffffffffff81111561183257600080fd5b6020830191508360208260051b850101111561184d57600080fd5b9250929050565b60008083601f84011261186657600080fd5b50813567ffffffffffffffff81111561187e57600080fd5b60208301915083602082850101111561184d57600080fd5b60008060008060008060008060a0898b0312156118b257600080fd5b6118bb896116d0565b97506118c960208a016116d0565b9650604089013567ffffffffffffffff808211156118e657600080fd5b6118f28c838d01611808565b909850965060608b013591508082111561190b57600080fd5b6119178c838d01611808565b909650945060808b013591508082111561193057600080fd5b5061193d8b828c01611854565b999c989b5096995094979396929594505050565b6000806000806040858703121561196757600080fd5b843567ffffffffffffffff8082111561197f57600080fd5b61198b88838901611808565b909650945060208701359150808211156119a457600080fd5b506119b187828801611808565b95989497509550505050565b600081518084526020808501945080840160005b838110156119ed578151875295820195908201906001016119d1565b509495945050505050565b60208152600061177160208301846119bd565b7f4e487b7100000000000000000000000000000000000000000000000000000000600052604160045260246000fd5b604051601f82017fffffffffffffffffffffffffffffffffffffffffffffffffffffffffffffffe016810167ffffffffffffffff81118282101715611a8157611a81611a0b565b604052919050565b600082601f830112611a9a57600080fd5b813567ffffffffffffffff811115611ab457611ab4611a0b565b611ae560207fffffffffffffffffffffffffffffffffffffffffffffffffffffffffffffffe0601f84011601611a3a565b818152846020838601011115611afa57600080fd5b816020850160208301376000918101602001919091529392505050565b60008060008060808587031215611b2d57600080fd5b611b36856116d0565b93506020850135925060408501359150606085013567ffffffffffffffff811115611b6057600080fd5b611b6c87828801611a89565b91505092959194509250565b60008060408385031215611b8b57600080fd5b611b94836116d0565b915060208301358015158114611ba957600080fd5b809150509250929050565b600082601f830112611bc557600080fd5b8135602067ffffffffffffffff821115611be157611be1611a0b565b8160051b611bf0828201611a3a565b9283528481018201928281019087851115611c0a57600080fd5b83870192505b84831015611c2957823582529183019190830190611c10565b979650505050505050565b60008060008060808587031215611c4a57600080fd5b611c53856116d0565b9350602085013567ffffffffffffffff80821115611c7057600080fd5b611c7c88838901611bb4565b94506040870135915080821115611c9257600080fd5b611c9e88838901611bb4565b93506060870135915080821115611cb457600080fd5b50611b6c87828801611a89565b600080600080600080600060e0888a031215611cdc57600080fd5b611ce5886116d0565b9650611cf3602089016116d0565b95506040880135945060608801359350608088013560ff81168114611d1757600080fd5b9699959850939692959460a0840135945060c09093013592915050565b60008060408385031215611d4757600080fd5b611d50836116d0565b9150611d5e602084016116d0565b90509250929050565b60008060008060008060a08789031215611d8057600080fd5b611d89876116d0565b9550611d97602088016116d0565b94506040870135935060608701359250608087013567ffffffffffffffff811115611dc157600080fd5b611dcd89828a01611854565b979a9699509497509295939492505050565b600080600060608486031215611df457600080fd5b611dfd846116d0565b95602085013595506040909401359392505050565b600080600060608486031215611e2757600080fd5b611e30846116d0565b9250602084013567ffffffffffffffff80821115611e4d57600080fd5b611e5987838801611bb4565b93506040860135915080821115611e6f57600080fd5b50611e7c86828701611bb4565b9150509250925092565b7f4e487b7100000000000000000000000000000000000000000000000000000000600052603260045260246000fd5b7f4e487b7100000000000000000000000000000000000000000000000000000000600052601160045260246000fd5b818103818111156103a4576103a4611eb5565b808201808211156103a4576103a4611eb5565b81835260007f07ffffffffffffffffffffffffffffffffffffffffffffffffffffffffffffff831115611f3c57600080fd5b8260051b80836020870137939093016020019392505050565b604081526000611f69604083018688611f0a565b8281036020840152611c29818587611f0a565b8183528181602085013750600060208284010152600060207fffffffffffffffffffffffffffffffffffffffffffffffffffffffffffffffe0601f840116840101905092915050565b600073ffffffffffffffffffffffffffffffffffffffff808b168352808a1660208401525060a06040830152611fff60a08301888a611f0a565b8281036060840152612012818789611f0a565b90508281036080840152612027818587611f7c565b9b9a5050505050505050505050565b60006020828403121561204857600080fd5b815161177181611723565b60006020828403121561206557600080fd5b611771826116d0565b600073ffffffffffffffffffffffffffffffffffffffff808916835280881660208401525085604083015284606083015260a060808301526120b460a083018486611f7c565b98975050505050505050565b600073ffffffffffffffffffffffffffffffffffffffff808816835280871660208401525084604083015283606083015260a06080830152611c2960a0830184611791565b60408152600061211860408301856119bd565b828103602084015261212a81856119bd565b95945050505050565b600073ffffffffffffffffffffffffffffffffffffffff808816835280871660208401525060a0604083015261216c60a08301866119bd565b828103606084015261217e81866119bd565b905082810360808401526120b4818561179156fea164736f6c6343000811000a",
    "linkReferences": {}
  },
  "methodIdentifiers": {
    "DOMAIN_SEPARATOR()": "3644e515",
    "PERMIT_TYPEHASH()": "30adf81f",
    "balanceOf(address,uint256)": "00fdd58e",
    "balanceOfBatch(address[],uint256[])": "4e1273f4",
    "batchBurn(address,uint256[],uint256[])": "f6eb127a",
    "batchMint(address,uint256[],uint256[],bytes)": "b48ab8b6",
    "burn(address,uint256,uint256)": "f5298aca",
    "isApprovedForAll(address,address)": "e985e9c5",
    "mint(address,uint256,uint256,bytes)": "731133e9",
    "nonces(address,uint256)": "502e1a16",
    "permit(address,address,uint256,uint256,uint8,bytes32,bytes32)": "d505accf",
    "safeBatchTransferFrom(address,address,uint256[],uint256[],bytes)": "2eb2c2d6",
    "safeTransferFrom(address,address,uint256,uint256,bytes)": "f242432a",
    "setApprovalForAll(address,bool)": "a22cb465",
    "supportsInterface(bytes4)": "01ffc9a7",
    "uri(uint256)": "0e89341c"
  },
  "id": 20
}