{
  "abi": [
    {
      "inputs": [
        {
          "internalType": "contract Kali",
          "name": "_kaliTemplate",
          "type": "address"
        }
      ],
      "stateMutability": "payable",
      "type": "constructor"
    },
    {
      "anonymous": false,
      "inputs": [
        {
          "indexed": false,
          "internalType": "contract Kali",
          "name": "kali",
          "type": "address"
        },
        {
          "indexed": false,
          "internalType": "contract KeepTokenBalances",
          "name": "token",
          "type": "address"
        },
        {
          "indexed": false,
          "internalType": "bytes32",
          "name": "name",
          "type": "bytes32"
        },
        {
          "indexed": false,
          "internalType": "string",
          "name": "daoURI",
          "type": "string"
        },
        {
          "indexed": false,
          "internalType": "address[]",
          "name": "extensions",
          "type": "address[]"
        },
        {
          "indexed": false,
          "internalType": "bytes[]",
          "name": "extensionsData",
          "type": "bytes[]"
        },
        {
          "indexed": false,
          "internalType": "uint64[5]",
          "name": "govSettings",
          "type": "uint64[5]"
        }
      ],
      "name": "Deployed",
      "type": "event"
    },
    {
      "inputs": [
        {
          "internalType": "contract KeepTokenBalances",
          "name": "_token",
          "type": "address"
        },
        {
          "internalType": "bytes32",
          "name": "_name",
          "type": "bytes32"
        },
        {
          "internalType": "string",
          "name": "_daoURI",
          "type": "string"
        },
        {
          "internalType": "address[]",
          "name": "_extensions",
          "type": "address[]"
        },
        {
          "internalType": "bytes[]",
          "name": "_extensionsData",
          "type": "bytes[]"
        },
        {
          "internalType": "uint64[5]",
          "name": "_govSettings",
          "type": "uint64[5]"
        }
      ],
      "name": "deployKali",
      "outputs": [],
      "stateMutability": "payable",
      "type": "function"
    },
    {
      "inputs": [
        {
          "internalType": "bytes32",
          "name": "name",
          "type": "bytes32"
        }
      ],
      "name": "determineKali",
      "outputs": [
        {
          "internalType": "address",
          "name": "",
          "type": "address"
        }
      ],
      "stateMutability": "view",
      "type": "function"
    },
    {
      "inputs": [
        {
          "internalType": "bytes[]",
          "name": "data",
          "type": "bytes[]"
        }
      ],
      "name": "multicall",
      "outputs": [
        {
          "internalType": "bytes[]",
          "name": "results",
          "type": "bytes[]"
        }
      ],
      "stateMutability": "payable",
      "type": "function"
    }
  ],
  "bytecode": {
    "object": "0x60a0604052604051610b6d380380610b6d83398101604081905261002291610033565b6001600160a01b0316608052610063565b60006020828403121561004557600080fd5b81516001600160a01b038116811461005c57600080fd5b9392505050565b608051610ae86100856000396000818161014701526103490152610ae86000f3fe6080604052600436106100345760003560e01c80633f7927fe14610039578063ac9650d81461004e578063f598599f14610077575b600080fd5b61004c610047366004610628565b6100bc565b005b61006161005c36600461071e565b61023f565b60405161006e9190610760565b60405180910390f35b34801561008357600080fd5b5061009761009236600461082e565b6102be565b60405173ffffffffffffffffffffffffffffffffffffffff909116815260200161006e565b600061016e894660405160200161010292919091825260d81b7fffffffffff00000000000000000000000000000000000000000000000000000016602082015260250190565b604080517fffffffffffffffffffffffffffffffffffffffffffffffffffffffffffffffe081840301815291905273ffffffffffffffffffffffffffffffffffffffff7f000000000000000000000000000000000000000000000000000000000000000016908b610371565b90508073ffffffffffffffffffffffffffffffffffffffff1663db34d2db348c8b8b8b8b8b8b8b6040518a63ffffffff1660e01b81526004016101b89897969594939291906109d9565b6000604051808303818588803b1580156101d157600080fd5b505af11580156101e5573d6000803e3d6000fd5b50505050507fbf47c3d25b939053f5003efd9f2e7546e55a57558f41ed57eba8ac61656fe965818b8b8b8b8b8b8b8b8b60405161022b9a99989796959493929190610a51565b60405180910390a150505050505050505050565b606081156102b85750604051818152602001600582901b808483378101805b825185018035602082018337600080823584305af4610281573d6000803e3d6000fd5b508083526020830192503d81523d6000602083013e3d01603f0167ffffffffffffffe01681831061025e5760405192508060405250505b92915050565b60006102b8824660405160200161030492919091825260d81b7fffffffffff00000000000000000000000000000000000000000000000000000016602082015260250190565b604080517fffffffffffffffffffffffffffffffffffffffffffffffffffffffffffffffe081840301815291905273ffffffffffffffffffffffffffffffffffffffff7f0000000000000000000000000000000000000000000000000000000000000000169084306104b2565b600060608303516040840351602085035185518060208801018051600283016c5af43d3d93803e606057fd5bf38a528a600d8b035278593da1005b363d3d373d3d3d3d610000806062363936013d738160481b1760218b03527f9e4ac34f21c619cefc926c8bd93b54bf5a39c7ab2127a895af1cc0691d7e3dff603a8b0352716100003d81600a3d39f336602c57343d527f6062820160781b17605a8b03528060f01b835288606c8201604c8c036000f5975050866104385763301164256000526004601cfd5b905286527fffffffffffffffffffffffffffffffffffffffffffffffffffffffffffffffe08601527fffffffffffffffffffffffffffffffffffffffffffffffffffffffffffffffc08501527fffffffffffffffffffffffffffffffffffffffffffffffffffffffffffffffa09093019290925250919050565b600060608403516040850351602086035186518060208901018051600283016c5af43d3d93803e606057fd5bf38b528b600d8c035278593da1005b363d3d373d3d3d3d610000806062363936013d738160481b1760218c03527f9e4ac34f21c619cefc926c8bd93b54bf5a39c7ab2127a895af1cc0691d7e3dff603a8c0352716100003d81600a3d39f336602c57343d527f6062820160781b17605a8c03528060f01b8352606c8101604c8c03206035525060ff6000538760601b60015288601552605560002096506000603552808252505080885250806020880352508060408703525080606086035250949350505050565b73ffffffffffffffffffffffffffffffffffffffff811681146105c857600080fd5b50565b60008083601f8401126105dd57600080fd5b50813567ffffffffffffffff8111156105f557600080fd5b6020830191508360208260051b850101111561061057600080fd5b9250929050565b8060a081018310156102b857600080fd5b60008060008060008060008060006101408a8c03121561064757600080fd5b8935610652816105a6565b985060208a0135975060408a013567ffffffffffffffff8082111561067657600080fd5b818c0191508c601f83011261068a57600080fd5b81358181111561069957600080fd5b8d60208285010111156106ab57600080fd5b6020830199508098505060608c01359150808211156106c957600080fd5b6106d58d838e016105cb565b909750955060808c01359150808211156106ee57600080fd5b506106fb8c828d016105cb565b909450925061070f90508b60a08c01610617565b90509295985092959850929598565b6000806020838503121561073157600080fd5b823567ffffffffffffffff81111561074857600080fd5b610754858286016105cb565b90969095509350505050565b6000602080830181845280855180835260408601915060408160051b87010192508387016000805b83811015610820577fffffffffffffffffffffffffffffffffffffffffffffffffffffffffffffffc089870301855282518051808852835b818110156107db578281018a01518982018b015289016107c0565b508781018901849052601f017fffffffffffffffffffffffffffffffffffffffffffffffffffffffffffffffe016909601870195509386019391860191600101610788565b509398975050505050505050565b60006020828403121561084057600080fd5b5035919050565b8183528181602085013750600060208284010152600060207fffffffffffffffffffffffffffffffffffffffffffffffffffffffffffffffe0601f840116840101905092915050565b8183526000602080850194508260005b858110156108db5781356108b3816105a6565b73ffffffffffffffffffffffffffffffffffffffff16875295820195908201906001016108a0565b509495945050505050565b81835260006020808501808196508560051b810191508460005b8781101561098957828403895281357fffffffffffffffffffffffffffffffffffffffffffffffffffffffffffffffe188360301811261093f57600080fd5b8701858101903567ffffffffffffffff81111561095b57600080fd5b80360382131561096a57600080fd5b610975868284610847565b9a87019a9550505090840190600101610900565b5091979650505050505050565b806000805b60058110156109d257823567ffffffffffffffff81168082146109bc578384fd5b865250602094850194929092019160010161099b565b5050505050565b600061012073ffffffffffffffffffffffffffffffffffffffff8b168352806020840152610a0a8184018a8c610847565b90508281036040840152610a1f81888a610890565b90508281036060840152610a348186886108e6565b915050610a446080830184610996565b9998505050505050505050565b600061016073ffffffffffffffffffffffffffffffffffffffff808e168452808d166020850152508a6040840152806060840152610a928184018a8c610847565b90508281036080840152610aa781888a610890565b905082810360a0840152610abc8186886108e6565b915050610acc60c0830184610996565b9b9a505050505050505050505056fea164736f6c6343000811000a",
    "linkReferences": {}
  },
  "methodIdentifiers": {
    "deployKali(address,bytes32,string,address[],bytes[],uint64[5])": "3f7927fe",
    "determineKali(bytes32)": "f598599f",
    "multicall(bytes[])": "ac9650d8"
  },
  "id": 30
}