{
  "abi": [
    {
      "inputs": [
        {
          "internalType": "address",
          "name": "_owner",
          "type": "address"
        }
      ],
      "stateMutability": "payable",
      "type": "constructor"
    },
    {
      "inputs": [],
      "name": "Unauthorized",
      "type": "error"
    },
    {
      "anonymous": false,
      "inputs": [
        {
          "indexed": false,
          "internalType": "string",
          "name": "alphaURI",
          "type": "string"
        }
      ],
      "name": "AlphaURISet",
      "type": "event"
    },
    {
      "anonymous": false,
      "inputs": [
        {
          "indexed": true,
          "internalType": "address",
          "name": "origin",
          "type": "address"
        },
        {
          "indexed": false,
          "internalType": "string",
          "name": "betaURI",
          "type": "string"
        }
      ],
      "name": "BetaURISet",
      "type": "event"
    },
    {
      "anonymous": false,
      "inputs": [
        {
          "indexed": true,
          "internalType": "address",
          "name": "user",
          "type": "address"
        },
        {
          "indexed": true,
          "internalType": "address",
          "name": "newOwner",
          "type": "address"
        }
      ],
      "name": "OwnershipTransferred",
      "type": "event"
    },
    {
      "anonymous": false,
      "inputs": [
        {
          "indexed": true,
          "internalType": "address",
          "name": "origin",
          "type": "address"
        },
        {
          "indexed": true,
          "internalType": "uint256",
          "name": "id",
          "type": "uint256"
        },
        {
          "indexed": false,
          "internalType": "string",
          "name": "uri",
          "type": "string"
        }
      ],
      "name": "URISet",
      "type": "event"
    },
    {
      "anonymous": false,
      "inputs": [
        {
          "indexed": true,
          "internalType": "address",
          "name": "origin",
          "type": "address"
        },
        {
          "indexed": true,
          "internalType": "address",
          "name": "user",
          "type": "address"
        },
        {
          "indexed": true,
          "internalType": "uint256",
          "name": "id",
          "type": "uint256"
        },
        {
          "indexed": false,
          "internalType": "string",
          "name": "uri",
          "type": "string"
        }
      ],
      "name": "UserIdURISet",
      "type": "event"
    },
    {
      "anonymous": false,
      "inputs": [
        {
          "indexed": true,
          "internalType": "address",
          "name": "origin",
          "type": "address"
        },
        {
          "indexed": true,
          "internalType": "address",
          "name": "user",
          "type": "address"
        },
        {
          "indexed": false,
          "internalType": "string",
          "name": "uri",
          "type": "string"
        }
      ],
      "name": "UserURISet",
      "type": "event"
    },
    {
      "inputs": [],
      "name": "alphaURI",
      "outputs": [
        {
          "internalType": "string",
          "name": "",
          "type": "string"
        }
      ],
      "stateMutability": "view",
      "type": "function"
    },
    {
      "inputs": [
        {
          "internalType": "address",
          "name": "",
          "type": "address"
        }
      ],
      "name": "betaURI",
      "outputs": [
        {
          "internalType": "string",
          "name": "",
          "type": "string"
        }
      ],
      "stateMutability": "view",
      "type": "function"
    },
    {
      "inputs": [
        {
          "internalType": "address",
          "name": "origin",
          "type": "address"
        },
        {
          "internalType": "uint256",
          "name": "id",
          "type": "uint256"
        }
      ],
      "name": "fetchURI",
      "outputs": [
        {
          "internalType": "string",
          "name": "",
          "type": "string"
        }
      ],
      "stateMutability": "view",
      "type": "function"
    },
    {
      "inputs": [],
      "name": "owner",
      "outputs": [
        {
          "internalType": "address",
          "name": "",
          "type": "address"
        }
      ],
      "stateMutability": "view",
      "type": "function"
    },
    {
      "inputs": [
        {
          "internalType": "string",
          "name": "_alphaURI",
          "type": "string"
        }
      ],
      "name": "setAlphaURI",
      "outputs": [],
      "stateMutability": "payable",
      "type": "function"
    },
    {
      "inputs": [
        {
          "internalType": "address",
          "name": "origin",
          "type": "address"
        },
        {
          "internalType": "string",
          "name": "beta",
          "type": "string"
        }
      ],
      "name": "setBetaURI",
      "outputs": [],
      "stateMutability": "payable",
      "type": "function"
    },
    {
      "inputs": [
        {
          "internalType": "address",
          "name": "origin",
          "type": "address"
        },
        {
          "internalType": "uint256",
          "name": "id",
          "type": "uint256"
        },
        {
          "internalType": "string",
          "name": "uri",
          "type": "string"
        }
      ],
      "name": "setURI",
      "outputs": [],
      "stateMutability": "payable",
      "type": "function"
    },
    {
      "inputs": [
        {
          "internalType": "address",
          "name": "origin",
          "type": "address"
        },
        {
          "internalType": "address",
          "name": "user",
          "type": "address"
        },
        {
          "internalType": "uint256",
          "name": "id",
          "type": "uint256"
        },
        {
          "internalType": "string",
          "name": "uri",
          "type": "string"
        }
      ],
      "name": "setUserIdURI",
      "outputs": [],
      "stateMutability": "payable",
      "type": "function"
    },
    {
      "inputs": [
        {
          "internalType": "address",
          "name": "origin",
          "type": "address"
        },
        {
          "internalType": "address",
          "name": "user",
          "type": "address"
        },
        {
          "internalType": "string",
          "name": "uri",
          "type": "string"
        }
      ],
      "name": "setUserURI",
      "outputs": [],
      "stateMutability": "payable",
      "type": "function"
    },
    {
      "inputs": [
        {
          "internalType": "address",
          "name": "newOwner",
          "type": "address"
        }
      ],
      "name": "transferOwnership",
      "outputs": [],
      "stateMutability": "payable",
      "type": "function"
    },
    {
      "inputs": [
        {
          "internalType": "address",
          "name": "",
          "type": "address"
        },
        {
          "internalType": "uint256",
          "name": "",
          "type": "uint256"
        }
      ],
      "name": "uris",
      "outputs": [
        {
          "internalType": "string",
          "name": "",
          "type": "string"
        }
      ],
      "stateMutability": "view",
      "type": "function"
    },
    {
      "inputs": [
        {
          "internalType": "address",
          "name": "",
          "type": "address"
        },
        {
          "internalType": "address",
          "name": "",
          "type": "address"
        },
        {
          "internalType": "uint256",
          "name": "",
          "type": "uint256"
        }
      ],
      "name": "userIdUris",
      "outputs": [
        {
          "internalType": "string",
          "name": "",
          "type": "string"
        }
      ],
      "stateMutability": "view",
      "type": "function"
    },
    {
      "inputs": [
        {
          "internalType": "address",
          "name": "",
          "type": "address"
        },
        {
          "internalType": "address",
          "name": "",
          "type": "address"
        }
      ],
      "name": "userUris",
      "outputs": [
        {
          "internalType": "string",
          "name": "",
          "type": "string"
        }
      ],
      "stateMutability": "view",
      "type": "function"
    }
  ],
  "bytecode": {
    "object": "0x608060405260405161111938038061111983398101604081905261002291610071565b600080546001600160a01b0319166001600160a01b03831690811782556040518392907f8be0079c531659141344cd1fd0a4f28419497f9722a3daafe3b4186f6b6457e0908290a350506100a1565b60006020828403121561008357600080fd5b81516001600160a01b038116811461009a57600080fd5b9392505050565b611069806100b06000396000f3fe6080604052600436106100d25760003560e01c806346b814981161007f5780638da5cb5b116100595780638da5cb5b146101dd578063a805f6641461022f578063d2cf2cc214610242578063f2fde38b1461025557600080fd5b806346b81498146101955780634cc75cb6146101aa578063685e8247146101ca57600080fd5b806333310a2f116100b057806333310a2f1461014d5780633716d1c4146101625780633d3be3311461018257600080fd5b806304add0dd146100d7578063147de2581461010d5780631bde33971461012d575b600080fd5b3480156100e357600080fd5b506100f76100f2366004610b0c565b610268565b6040516101049190610b36565b60405180910390f35b34801561011957600080fd5b506100f7610128366004610ba2565b6104be565b34801561013957600080fd5b506100f7610148366004610bde565b610569565b61016061015b366004610c5a565b61058d565b005b34801561016e57600080fd5b506100f761017d366004610cc9565b610693565b610160610190366004610ceb565b6106ac565b3480156101a157600080fd5b506100f7610783565b3480156101b657600080fd5b506100f76101c5366004610b0c565b610790565b6101606101d8366004610d3e565b6107b4565b3480156101e957600080fd5b5060005461020a9073ffffffffffffffffffffffffffffffffffffffff1681565b60405173ffffffffffffffffffffffffffffffffffffffff9091168152602001610104565b61016061023d366004610d98565b610898565b610160610250366004610de1565b610986565b610160610263366004610cc9565b610a22565b606060006001805461027990610e23565b80601f01602080910402602001604051908101604052809291908181526020018280546102a590610e23565b80156102f25780601f106102c7576101008083540402835291602001916102f2565b820191906000526020600020905b8154815290600101906020018083116102d557829003601f168201915b50505073ffffffffffffffffffffffffffffffffffffffff871660009081526002602052604081208054949550909390925061032e9150610e23565b80601f016020809104026020016040519081016040528092919081815260200182805461035a90610e23565b80156103a75780601f1061037c576101008083540402835291602001916103a7565b820191906000526020600020905b81548152906001019060200180831161038a57829003601f168201915b50505073ffffffffffffffffffffffffffffffffffffffff881660009081526003602090815260408083208a84529091528120805494955090939092506103ee9150610e23565b80601f016020809104026020016040519081016040528092919081815260200182805461041a90610e23565b80156104675780601f1061043c57610100808354040283529160200191610467565b820191906000526020600020905b81548152906001019060200180831161044a57829003601f168201915b5050505050905080516000146104815792506104b8915050565b815115610492575091506104b89050565b82516000036104b057604051806020016040528060008152506104b2565b825b93505050505b92915050565b6005602090815260009384526040808520825292845282842090528252902080546104e890610e23565b80601f016020809104026020016040519081016040528092919081815260200182805461051490610e23565b80156105615780601f1061053657610100808354040283529160200191610561565b820191906000526020600020905b81548152906001019060200180831161054457829003601f168201915b505050505081565b6004602090815260009283526040808420909152908252902080546104e890610e23565b60005473ffffffffffffffffffffffffffffffffffffffff1633146105de576040517f82b4290000000000000000000000000000000000000000000000000000000000815260040160405180910390fd5b73ffffffffffffffffffffffffffffffffffffffff80861660009081526005602090815260408083209388168352928152828220868352905220610623828483610ef4565b50828473ffffffffffffffffffffffffffffffffffffffff168673ffffffffffffffffffffffffffffffffffffffff167fe648f3fd14f74989a165a1a3325521af339d472faea9aa634d422ddcafd981f6858560405161068492919061100f565b60405180910390a45050505050565b600260205260009081526040902080546104e890610e23565b60005473ffffffffffffffffffffffffffffffffffffffff1633146106fd576040517f82b4290000000000000000000000000000000000000000000000000000000000815260040160405180910390fd5b73ffffffffffffffffffffffffffffffffffffffff8316600090815260026020526040902061072d828483610ef4565b508273ffffffffffffffffffffffffffffffffffffffff167fca7c77ef62e4b2d64f13a0fcff258d7bc49cec41e8692a77460949ea61644580838360405161077692919061100f565b60405180910390a2505050565b600180546104e890610e23565b6003602090815260009283526040808420909152908252902080546104e890610e23565b60005473ffffffffffffffffffffffffffffffffffffffff163314610805576040517f82b4290000000000000000000000000000000000000000000000000000000000815260040160405180910390fd5b73ffffffffffffffffffffffffffffffffffffffff841660009081526003602090815260408083208684529091529020610840828483610ef4565b50828473ffffffffffffffffffffffffffffffffffffffff167f3d8203c9091dafcc15e28d09c9128d5f35fa8c2dec986dffc18b02c3a156f44f848460405161088a92919061100f565b60405180910390a350505050565b60005473ffffffffffffffffffffffffffffffffffffffff1633146108e9576040517f82b4290000000000000000000000000000000000000000000000000000000000815260040160405180910390fd5b73ffffffffffffffffffffffffffffffffffffffff8085166000908152600460209081526040808320938716835292905220610926828483610ef4565b508273ffffffffffffffffffffffffffffffffffffffff168473ffffffffffffffffffffffffffffffffffffffff167f7305bb7b0d3dd5db496f22a9ee27c100bf864f0969e1be096ddc290ad52222c7848460405161088a92919061100f565b60005473ffffffffffffffffffffffffffffffffffffffff1633146109d7576040517f82b4290000000000000000000000000000000000000000000000000000000000815260040160405180910390fd5b60016109e4828483610ef4565b507f71f55c701590c8da9d26804d1e056ab706c5f19d3ac1b9b4fac63581bd0bc9b68282604051610a1692919061100f565b60405180910390a15050565b60005473ffffffffffffffffffffffffffffffffffffffff163314610a73576040517f82b4290000000000000000000000000000000000000000000000000000000000815260040160405180910390fd5b600080547fffffffffffffffffffffffff00000000000000000000000000000000000000001673ffffffffffffffffffffffffffffffffffffffff83169081178255604051909133917f8be0079c531659141344cd1fd0a4f28419497f9722a3daafe3b4186f6b6457e09190a350565b803573ffffffffffffffffffffffffffffffffffffffff81168114610b0757600080fd5b919050565b60008060408385031215610b1f57600080fd5b610b2883610ae3565b946020939093013593505050565b600060208083528351808285015260005b81811015610b6357858101830151858201604001528201610b47565b5060006040828601015260407fffffffffffffffffffffffffffffffffffffffffffffffffffffffffffffffe0601f8301168501019250505092915050565b600080600060608486031215610bb757600080fd5b610bc084610ae3565b9250610bce60208501610ae3565b9150604084013590509250925092565b60008060408385031215610bf157600080fd5b610bfa83610ae3565b9150610c0860208401610ae3565b90509250929050565b60008083601f840112610c2357600080fd5b50813567ffffffffffffffff811115610c3b57600080fd5b602083019150836020828501011115610c5357600080fd5b9250929050565b600080600080600060808688031215610c7257600080fd5b610c7b86610ae3565b9450610c8960208701610ae3565b935060408601359250606086013567ffffffffffffffff811115610cac57600080fd5b610cb888828901610c11565b969995985093965092949392505050565b600060208284031215610cdb57600080fd5b610ce482610ae3565b9392505050565b600080600060408486031215610d0057600080fd5b610d0984610ae3565b9250602084013567ffffffffffffffff811115610d2557600080fd5b610d3186828701610c11565b9497909650939450505050565b60008060008060608587031215610d5457600080fd5b610d5d85610ae3565b935060208501359250604085013567ffffffffffffffff811115610d8057600080fd5b610d8c87828801610c11565b95989497509550505050565b60008060008060608587031215610dae57600080fd5b610db785610ae3565b9350610dc560208601610ae3565b9250604085013567ffffffffffffffff811115610d8057600080fd5b60008060208385031215610df457600080fd5b823567ffffffffffffffff811115610e0b57600080fd5b610e1785828601610c11565b90969095509350505050565b600181811c90821680610e3757607f821691505b602082108103610e70577f4e487b7100000000000000000000000000000000000000000000000000000000600052602260045260246000fd5b50919050565b7f4e487b7100000000000000000000000000000000000000000000000000000000600052604160045260246000fd5b601f821115610eef57600081815260208120601f850160051c81016020861015610ecc5750805b601f850160051c820191505b81811015610eeb57828155600101610ed8565b5050505b505050565b67ffffffffffffffff831115610f0c57610f0c610e76565b610f2083610f1a8354610e23565b83610ea5565b6000601f841160018114610f725760008515610f3c5750838201355b7fffffffffffffffffffffffffffffffffffffffffffffffffffffffffffffffff600387901b1c1916600186901b178355611008565b6000838152602090207fffffffffffffffffffffffffffffffffffffffffffffffffffffffffffffffe0861690835b82811015610fc15786850135825560209485019460019092019101610fa1565b5086821015610ffc577fffffffffffffffffffffffffffffffffffffffffffffffffffffffffffffffff60f88860031b161c19848701351681555b505060018560011b0183555b5050505050565b60208152816020820152818360408301376000818301604090810191909152601f9092017fffffffffffffffffffffffffffffffffffffffffffffffffffffffffffffffe016010191905056fea164736f6c6343000811000a",
    "linkReferences": {}
  },
  "methodIdentifiers": {
    "alphaURI()": "46b81498",
    "betaURI(address)": "3716d1c4",
    "fetchURI(address,uint256)": "04add0dd",
    "owner()": "8da5cb5b",
    "setAlphaURI(string)": "d2cf2cc2",
    "setBetaURI(address,string)": "3d3be331",
    "setURI(address,uint256,string)": "685e8247",
    "setUserIdURI(address,address,uint256,string)": "33310a2f",
    "setUserURI(address,address,string)": "a805f664",
    "transferOwnership(address)": "f2fde38b",
    "uris(address,uint256)": "4cc75cb6",
    "userIdUris(address,address,uint256)": "147de258",
    "userUris(address,address)": "1bde3397"
  },
  "id": 34
}