{
  "abi": [
    {
      "inputs": [
        {
          "internalType": "address",
          "name": "_owner",
          "type": "address"
        }
      ],
      "stateMutability": "payable",
      "type": "constructor"
    },
    {
      "inputs": [],
      "name": "Unauthorized",
      "type": "error"
    },
    {
      "anonymous": false,
      "inputs": [
        {
          "indexed": true,
          "internalType": "address",
          "name": "user",
          "type": "address"
        },
        {
          "indexed": true,
          "internalType": "string",
          "name": "alphaURI",
          "type": "string"
        }
      ],
      "name": "AlphaURISet",
      "type": "event"
    },
    {
      "anonymous": false,
      "inputs": [
        {
          "indexed": true,
          "internalType": "address",
          "name": "user",
          "type": "address"
        },
        {
          "indexed": true,
          "internalType": "string",
          "name": "baseURI",
          "type": "string"
        }
      ],
      "name": "BaseURISet",
      "type": "event"
    },
    {
      "anonymous": false,
      "inputs": [
        {
          "indexed": true,
          "internalType": "address",
          "name": "user",
          "type": "address"
        },
        {
          "indexed": true,
          "internalType": "address",
          "name": "newOwner",
          "type": "address"
        }
      ],
      "name": "OwnerUpdated",
      "type": "event"
    },
    {
      "anonymous": false,
      "inputs": [
        {
          "indexed": true,
          "internalType": "address",
          "name": "user",
          "type": "address"
        },
        {
          "indexed": true,
          "internalType": "address",
          "name": "origin",
          "type": "address"
        },
        {
          "indexed": true,
          "internalType": "uint256",
          "name": "id",
          "type": "uint256"
        },
        {
          "indexed": false,
          "internalType": "string",
          "name": "uri",
          "type": "string"
        }
      ],
      "name": "URISet",
      "type": "event"
    },
    {
      "inputs": [],
      "name": "alphaURI",
      "outputs": [
        {
          "internalType": "string",
          "name": "",
          "type": "string"
        }
      ],
      "stateMutability": "view",
      "type": "function"
    },
    {
      "inputs": [],
      "name": "baseURI",
      "outputs": [
        {
          "internalType": "string",
          "name": "",
          "type": "string"
        }
      ],
      "stateMutability": "view",
      "type": "function"
    },
    {
      "inputs": [
        {
          "internalType": "address",
          "name": "origin",
          "type": "address"
        },
        {
          "internalType": "uint256",
          "name": "id",
          "type": "uint256"
        }
      ],
      "name": "fetchURI",
      "outputs": [
        {
          "internalType": "string",
          "name": "",
          "type": "string"
        }
      ],
      "stateMutability": "view",
      "type": "function"
    },
    {
      "inputs": [],
      "name": "owner",
      "outputs": [
        {
          "internalType": "address",
          "name": "",
          "type": "address"
        }
      ],
      "stateMutability": "view",
      "type": "function"
    },
    {
      "inputs": [
        {
          "internalType": "string",
          "name": "_alphaURI",
          "type": "string"
        }
      ],
      "name": "setAlphaURI",
      "outputs": [],
      "stateMutability": "payable",
      "type": "function"
    },
    {
      "inputs": [
        {
          "internalType": "string",
          "name": "_baseURI",
          "type": "string"
        }
      ],
      "name": "setBaseURI",
      "outputs": [],
      "stateMutability": "payable",
      "type": "function"
    },
    {
      "inputs": [
        {
          "internalType": "address",
          "name": "newOwner",
          "type": "address"
        }
      ],
      "name": "setOwner",
      "outputs": [],
      "stateMutability": "nonpayable",
      "type": "function"
    },
    {
      "inputs": [
        {
          "internalType": "address",
          "name": "origin",
          "type": "address"
        },
        {
          "internalType": "uint256",
          "name": "id",
          "type": "uint256"
        },
        {
          "internalType": "string",
          "name": "uri",
          "type": "string"
        }
      ],
      "name": "setURI",
      "outputs": [],
      "stateMutability": "payable",
      "type": "function"
    },
    {
      "inputs": [
        {
          "internalType": "address",
          "name": "",
          "type": "address"
        },
        {
          "internalType": "uint256",
          "name": "",
          "type": "uint256"
        }
      ],
      "name": "uris",
      "outputs": [
        {
          "internalType": "string",
          "name": "",
          "type": "string"
        }
      ],
      "stateMutability": "view",
      "type": "function"
    }
  ],
  "bytecode": {
    "object": "0x6080604052604051610d4b380380610d4b83398101604081905261002291610071565b600080546001600160a01b0319166001600160a01b03831690811782556040518392907f8292fce18fa69edf4db7b94ea2e58241df0ae57f97e0a6c9b29067028bf92d76908290a350506100a1565b60006020828403121561008357600080fd5b81516001600160a01b038116811461009a57600080fd5b9392505050565b610c9b806100b06000396000f3fe6080604052600436106100965760003560e01c806355f804b3116100695780636c0360eb1161004e5780636c0360eb1461014e5780638da5cb5b14610163578063d2cf2cc2146101b557600080fd5b806355f804b314610128578063685e82471461013b57600080fd5b806304add0dd1461009b57806313af4035146100d157806346b81498146100f35780634cc75cb614610108575b600080fd5b3480156100a757600080fd5b506100bb6100b6366004610870565b6101c8565b6040516100c891906108be565b60405180910390f35b3480156100dd57600080fd5b506100f16100ec36600461090f565b610420565b005b3480156100ff57600080fd5b506100bb6104e1565b34801561011457600080fd5b506100bb610123366004610870565b61056f565b6100f161013636600461097a565b610593565b6100f16101493660046109bc565b610638565b34801561015a57600080fd5b506100bb610733565b34801561016f57600080fd5b506000546101909073ffffffffffffffffffffffffffffffffffffffff1681565b60405173ffffffffffffffffffffffffffffffffffffffff90911681526020016100c8565b6100f16101c336600461097a565b610740565b73ffffffffffffffffffffffffffffffffffffffff8216600090815260036020908152604080832084845290915281208054606092919061020890610a16565b80601f016020809104026020016040519081016040528092919081815260200182805461023490610a16565b80156102815780601f1061025657610100808354040283529160200191610281565b820191906000526020600020905b81548152906001019060200180831161026457829003601f168201915b5050505050905060006001805461029790610a16565b80601f01602080910402602001604051908101604052809291908181526020018280546102c390610a16565b80156103105780601f106102e557610100808354040283529160200191610310565b820191906000526020600020905b8154815290600101906020018083116102f357829003601f168201915b5050505050905060006002805461032690610a16565b80601f016020809104026020016040519081016040528092919081815260200182805461035290610a16565b801561039f5780601f106103745761010080835404028352916020019161039f565b820191906000526020600020905b81548152906001019060200180831161038257829003601f168201915b5050505050905082516000146103ba5782935050505061041a565b8151156103cb5750915061041a9050565b80516000036103e95760405180602001604052806000815250610414565b806103f3866107e5565b604051602001610404929190610a69565b6040516020818303038152906040525b93505050505b92915050565b60005473ffffffffffffffffffffffffffffffffffffffff163314610471576040517f82b4290000000000000000000000000000000000000000000000000000000000815260040160405180910390fd5b600080547fffffffffffffffffffffffff00000000000000000000000000000000000000001673ffffffffffffffffffffffffffffffffffffffff83169081178255604051909133917f8292fce18fa69edf4db7b94ea2e58241df0ae57f97e0a6c9b29067028bf92d769190a350565b600180546104ee90610a16565b80601f016020809104026020016040519081016040528092919081815260200182805461051a90610a16565b80156105675780601f1061053c57610100808354040283529160200191610567565b820191906000526020600020905b81548152906001019060200180831161054a57829003601f168201915b505050505081565b6003602090815260009283526040808420909152908252902080546104ee90610a16565b60005473ffffffffffffffffffffffffffffffffffffffff1633146105e4576040517f82b4290000000000000000000000000000000000000000000000000000000000815260040160405180910390fd5b60026105f1828483610b16565b508181604051610602929190610c31565b6040519081900381209033907fd0f9271e9e796a7b8f77b63551ed743e1ceae7110305203384861c2d5c6cb4ac90600090a35050565b60005473ffffffffffffffffffffffffffffffffffffffff163314610689576040517f82b4290000000000000000000000000000000000000000000000000000000000815260040160405180910390fd5b73ffffffffffffffffffffffffffffffffffffffff8416600090815260036020908152604080832086845290915290206106c4828483610b16565b50828473ffffffffffffffffffffffffffffffffffffffff163373ffffffffffffffffffffffffffffffffffffffff167fdd7f1e46a828ea127fac02e886eb658a920234585c4ff460fad651d26f8aea628585604051610725929190610c41565b60405180910390a450505050565b600280546104ee90610a16565b60005473ffffffffffffffffffffffffffffffffffffffff163314610791576040517f82b4290000000000000000000000000000000000000000000000000000000000815260040160405180910390fd5b600161079e828483610b16565b5081816040516107af929190610c31565b6040519081900381209033907f2b582a56619f247f32bce2554cf2e45a399b4df526cb25311788be51452be42890600090a35050565b606060a06040510180604052602081039150506000815280825b600183039250600a81066030018353600a9004806107ff57508190037fffffffffffffffffffffffffffffffffffffffffffffffffffffffffffffffe0909101908152919050565b803573ffffffffffffffffffffffffffffffffffffffff8116811461086b57600080fd5b919050565b6000806040838503121561088357600080fd5b61088c83610847565b946020939093013593505050565b60005b838110156108b557818101518382015260200161089d565b50506000910152565b60208152600082518060208401526108dd81604085016020870161089a565b601f017fffffffffffffffffffffffffffffffffffffffffffffffffffffffffffffffe0169190910160400192915050565b60006020828403121561092157600080fd5b61092a82610847565b9392505050565b60008083601f84011261094357600080fd5b50813567ffffffffffffffff81111561095b57600080fd5b60208301915083602082850101111561097357600080fd5b9250929050565b6000806020838503121561098d57600080fd5b823567ffffffffffffffff8111156109a457600080fd5b6109b085828601610931565b90969095509350505050565b600080600080606085870312156109d257600080fd5b6109db85610847565b935060208501359250604085013567ffffffffffffffff8111156109fe57600080fd5b610a0a87828801610931565b95989497509550505050565b600181811c90821680610a2a57607f821691505b602082108103610a63577f4e487b7100000000000000000000000000000000000000000000000000000000600052602260045260246000fd5b50919050565b60008351610a7b81846020880161089a565b835190830190610a8f81836020880161089a565b01949350505050565b7f4e487b7100000000000000000000000000000000000000000000000000000000600052604160045260246000fd5b601f821115610b1157600081815260208120601f850160051c81016020861015610aee5750805b601f850160051c820191505b81811015610b0d57828155600101610afa565b5050505b505050565b67ffffffffffffffff831115610b2e57610b2e610a98565b610b4283610b3c8354610a16565b83610ac7565b6000601f841160018114610b945760008515610b5e5750838201355b7fffffffffffffffffffffffffffffffffffffffffffffffffffffffffffffffff600387901b1c1916600186901b178355610c2a565b6000838152602090207fffffffffffffffffffffffffffffffffffffffffffffffffffffffffffffffe0861690835b82811015610be35786850135825560209485019460019092019101610bc3565b5086821015610c1e577fffffffffffffffffffffffffffffffffffffffffffffffffffffffffffffffff60f88860031b161c19848701351681555b505060018560011b0183555b5050505050565b8183823760009101908152919050565b60208152816020820152818360408301376000818301604090810191909152601f9092017fffffffffffffffffffffffffffffffffffffffffffffffffffffffffffffffe016010191905056fea164736f6c6343000811000a",
    "linkReferences": {}
  },
  "methodIdentifiers": {
    "alphaURI()": "46b81498",
    "baseURI()": "6c0360eb",
    "fetchURI(address,uint256)": "04add0dd",
    "owner()": "8da5cb5b",
    "setAlphaURI(string)": "d2cf2cc2",
    "setBaseURI(string)": "55f804b3",
    "setOwner(address)": "13af4035",
    "setURI(address,uint256,string)": "685e8247",
    "uris(address,uint256)": "4cc75cb6"
  },
  "id": 23
}