{
  "abi": [
    {
      "inputs": [
        {
          "internalType": "address",
          "name": "_owner",
          "type": "address"
        }
      ],
      "stateMutability": "payable",
      "type": "constructor"
    },
    {
      "inputs": [],
      "name": "NotAuthorized",
      "type": "error"
    },
    {
      "anonymous": false,
      "inputs": [
        {
          "indexed": true,
          "internalType": "address",
          "name": "user",
          "type": "address"
        },
        {
          "indexed": true,
          "internalType": "string",
          "name": "alphaURI",
          "type": "string"
        }
      ],
      "name": "AlphaURISet",
      "type": "event"
    },
    {
      "anonymous": false,
      "inputs": [
        {
          "indexed": true,
          "internalType": "address",
          "name": "user",
          "type": "address"
        },
        {
          "indexed": true,
          "internalType": "address",
          "name": "origin",
          "type": "address"
        },
        {
          "indexed": true,
          "internalType": "string",
          "name": "betaURI",
          "type": "string"
        }
      ],
      "name": "BetaURISet",
      "type": "event"
    },
    {
      "anonymous": false,
      "inputs": [
        {
          "indexed": true,
          "internalType": "address",
          "name": "user",
          "type": "address"
        },
        {
          "indexed": true,
          "internalType": "address",
          "name": "newOwner",
          "type": "address"
        }
      ],
      "name": "OwnerUpdated",
      "type": "event"
    },
    {
      "anonymous": false,
      "inputs": [
        {
          "indexed": true,
          "internalType": "address",
          "name": "user",
          "type": "address"
        },
        {
          "indexed": true,
          "internalType": "address",
          "name": "origin",
          "type": "address"
        },
        {
          "indexed": true,
          "internalType": "uint256",
          "name": "id",
          "type": "uint256"
        },
        {
          "indexed": false,
          "internalType": "string",
          "name": "uri",
          "type": "string"
        }
      ],
      "name": "URISet",
      "type": "event"
    },
    {
      "inputs": [],
      "name": "alphaURI",
      "outputs": [
        {
          "internalType": "string",
          "name": "",
          "type": "string"
        }
      ],
      "stateMutability": "view",
      "type": "function"
    },
    {
      "inputs": [
        {
          "internalType": "address",
          "name": "",
          "type": "address"
        }
      ],
      "name": "betaURI",
      "outputs": [
        {
          "internalType": "string",
          "name": "",
          "type": "string"
        }
      ],
      "stateMutability": "view",
      "type": "function"
    },
    {
      "inputs": [
        {
          "internalType": "address",
          "name": "origin",
          "type": "address"
        },
        {
          "internalType": "uint256",
          "name": "id",
          "type": "uint256"
        }
      ],
      "name": "fetchURI",
      "outputs": [
        {
          "internalType": "string",
          "name": "",
          "type": "string"
        }
      ],
      "stateMutability": "view",
      "type": "function"
    },
    {
      "inputs": [],
      "name": "owner",
      "outputs": [
        {
          "internalType": "address",
          "name": "",
          "type": "address"
        }
      ],
      "stateMutability": "view",
      "type": "function"
    },
    {
      "inputs": [
        {
          "internalType": "string",
          "name": "_alphaURI",
          "type": "string"
        }
      ],
      "name": "setAlphaURI",
      "outputs": [],
      "stateMutability": "payable",
      "type": "function"
    },
    {
      "inputs": [
        {
          "internalType": "address",
          "name": "origin",
          "type": "address"
        },
        {
          "internalType": "string",
          "name": "beta",
          "type": "string"
        }
      ],
      "name": "setBetaURI",
      "outputs": [],
      "stateMutability": "payable",
      "type": "function"
    },
    {
      "inputs": [
        {
          "internalType": "address",
          "name": "newOwner",
          "type": "address"
        }
      ],
      "name": "setOwner",
      "outputs": [],
      "stateMutability": "nonpayable",
      "type": "function"
    },
    {
      "inputs": [
        {
          "internalType": "address",
          "name": "origin",
          "type": "address"
        },
        {
          "internalType": "uint256",
          "name": "id",
          "type": "uint256"
        },
        {
          "internalType": "string",
          "name": "uri",
          "type": "string"
        }
      ],
      "name": "setURI",
      "outputs": [],
      "stateMutability": "payable",
      "type": "function"
    },
    {
      "inputs": [
        {
          "internalType": "address",
          "name": "",
          "type": "address"
        },
        {
          "internalType": "uint256",
          "name": "",
          "type": "uint256"
        }
      ],
      "name": "uris",
      "outputs": [
        {
          "internalType": "string",
          "name": "",
          "type": "string"
        }
      ],
      "stateMutability": "view",
      "type": "function"
    }
  ],
  "bytecode": {
    "object": "0x6080604052604051610d55380380610d5583398101604081905261002291610071565b600080546001600160a01b0319166001600160a01b03831690811782556040518392907f8292fce18fa69edf4db7b94ea2e58241df0ae57f97e0a6c9b29067028bf92d76908290a350506100a1565b60006020828403121561008357600080fd5b81516001600160a01b038116811461009a57600080fd5b9392505050565b610ca5806100b06000396000f3fe6080604052600436106100965760003560e01c806346b8149811610069578063685e82471161004e578063685e82471461015b5780638da5cb5b1461016e578063d2cf2cc2146101c057600080fd5b806346b81498146101265780634cc75cb61461013b57600080fd5b806304add0dd1461009b57806313af4035146100d15780633716d1c4146100f35780633d3be33114610113575b600080fd5b3480156100a757600080fd5b506100bb6100b636600461085f565b6101d3565b6040516100c89190610889565b60405180910390f35b3480156100dd57600080fd5b506100f16100ec3660046108f5565b610429565b005b3480156100ff57600080fd5b506100bb61010e3660046108f5565b6104ea565b6100f1610121366004610960565b610584565b34801561013257600080fd5b506100bb610665565b34801561014757600080fd5b506100bb61015636600461085f565b610672565b6100f16101693660046109b3565b610696565b34801561017a57600080fd5b5060005461019b9073ffffffffffffffffffffffffffffffffffffffff1681565b60405173ffffffffffffffffffffffffffffffffffffffff90911681526020016100c8565b6100f16101ce366004610a0d565b610791565b60606000600180546101e490610a4f565b80601f016020809104026020016040519081016040528092919081815260200182805461021090610a4f565b801561025d5780601f106102325761010080835404028352916020019161025d565b820191906000526020600020905b81548152906001019060200180831161024057829003601f168201915b50505073ffffffffffffffffffffffffffffffffffffffff87166000908152600260205260408120805494955090939092506102999150610a4f565b80601f01602080910402602001604051908101604052809291908181526020018280546102c590610a4f565b80156103125780601f106102e757610100808354040283529160200191610312565b820191906000526020600020905b8154815290600101906020018083116102f557829003601f168201915b50505073ffffffffffffffffffffffffffffffffffffffff881660009081526003602090815260408083208a84529091528120805494955090939092506103599150610a4f565b80601f016020809104026020016040519081016040528092919081815260200182805461038590610a4f565b80156103d25780601f106103a7576101008083540402835291602001916103d2565b820191906000526020600020905b8154815290600101906020018083116103b557829003601f168201915b5050505050905080516000146103ec579250610423915050565b8151156103fd575091506104239050565b825160000361041b576040518060200160405280600081525061041d565b825b93505050505b92915050565b60005473ffffffffffffffffffffffffffffffffffffffff16331461047a576040517fea8e4eb500000000000000000000000000000000000000000000000000000000815260040160405180910390fd5b600080547fffffffffffffffffffffffff00000000000000000000000000000000000000001673ffffffffffffffffffffffffffffffffffffffff83169081178255604051909133917f8292fce18fa69edf4db7b94ea2e58241df0ae57f97e0a6c9b29067028bf92d769190a350565b6002602052600090815260409020805461050390610a4f565b80601f016020809104026020016040519081016040528092919081815260200182805461052f90610a4f565b801561057c5780601f106105515761010080835404028352916020019161057c565b820191906000526020600020905b81548152906001019060200180831161055f57829003601f168201915b505050505081565b60005473ffffffffffffffffffffffffffffffffffffffff1633146105d5576040517fea8e4eb500000000000000000000000000000000000000000000000000000000815260040160405180910390fd5b73ffffffffffffffffffffffffffffffffffffffff83166000908152600260205260409020610605828483610b20565b508181604051610616929190610c3b565b6040519081900381209073ffffffffffffffffffffffffffffffffffffffff85169033907fec63f303852486acca6f3ec82d2a065ae7ae0a45d53e147dc6278b1f1aab2aa490600090a4505050565b6001805461050390610a4f565b60036020908152600092835260408084209091529082529020805461050390610a4f565b60005473ffffffffffffffffffffffffffffffffffffffff1633146106e7576040517fea8e4eb500000000000000000000000000000000000000000000000000000000815260040160405180910390fd5b73ffffffffffffffffffffffffffffffffffffffff841660009081526003602090815260408083208684529091529020610722828483610b20565b50828473ffffffffffffffffffffffffffffffffffffffff163373ffffffffffffffffffffffffffffffffffffffff167fdd7f1e46a828ea127fac02e886eb658a920234585c4ff460fad651d26f8aea628585604051610783929190610c4b565b60405180910390a450505050565b60005473ffffffffffffffffffffffffffffffffffffffff1633146107e2576040517fea8e4eb500000000000000000000000000000000000000000000000000000000815260040160405180910390fd5b60016107ef828483610b20565b508181604051610800929190610c3b565b6040519081900381209033907f2b582a56619f247f32bce2554cf2e45a399b4df526cb25311788be51452be42890600090a35050565b803573ffffffffffffffffffffffffffffffffffffffff8116811461085a57600080fd5b919050565b6000806040838503121561087257600080fd5b61087b83610836565b946020939093013593505050565b600060208083528351808285015260005b818110156108b65785810183015185820160400152820161089a565b5060006040828601015260407fffffffffffffffffffffffffffffffffffffffffffffffffffffffffffffffe0601f8301168501019250505092915050565b60006020828403121561090757600080fd5b61091082610836565b9392505050565b60008083601f84011261092957600080fd5b50813567ffffffffffffffff81111561094157600080fd5b60208301915083602082850101111561095957600080fd5b9250929050565b60008060006040848603121561097557600080fd5b61097e84610836565b9250602084013567ffffffffffffffff81111561099a57600080fd5b6109a686828701610917565b9497909650939450505050565b600080600080606085870312156109c957600080fd5b6109d285610836565b935060208501359250604085013567ffffffffffffffff8111156109f557600080fd5b610a0187828801610917565b95989497509550505050565b60008060208385031215610a2057600080fd5b823567ffffffffffffffff811115610a3757600080fd5b610a4385828601610917565b90969095509350505050565b600181811c90821680610a6357607f821691505b602082108103610a9c577f4e487b7100000000000000000000000000000000000000000000000000000000600052602260045260246000fd5b50919050565b7f4e487b7100000000000000000000000000000000000000000000000000000000600052604160045260246000fd5b601f821115610b1b57600081815260208120601f850160051c81016020861015610af85750805b601f850160051c820191505b81811015610b1757828155600101610b04565b5050505b505050565b67ffffffffffffffff831115610b3857610b38610aa2565b610b4c83610b468354610a4f565b83610ad1565b6000601f841160018114610b9e5760008515610b685750838201355b7fffffffffffffffffffffffffffffffffffffffffffffffffffffffffffffffff600387901b1c1916600186901b178355610c34565b6000838152602090207fffffffffffffffffffffffffffffffffffffffffffffffffffffffffffffffe0861690835b82811015610bed5786850135825560209485019460019092019101610bcd565b5086821015610c28577fffffffffffffffffffffffffffffffffffffffffffffffffffffffffffffffff60f88860031b161c19848701351681555b505060018560011b0183555b5050505050565b8183823760009101908152919050565b60208152816020820152818360408301376000818301604090810191909152601f9092017fffffffffffffffffffffffffffffffffffffffffffffffffffffffffffffffe016010191905056fea164736f6c6343000811000a",
    "linkReferences": {}
  },
  "methodIdentifiers": {
    "alphaURI()": "46b81498",
    "betaURI(address)": "3716d1c4",
    "fetchURI(address,uint256)": "04add0dd",
    "owner()": "8da5cb5b",
    "setAlphaURI(string)": "d2cf2cc2",
    "setBetaURI(address,string)": "3d3be331",
    "setOwner(address)": "13af4035",
    "setURI(address,uint256,string)": "685e8247",
    "uris(address,uint256)": "4cc75cb6"
  },
  "id": 23
}