{
  "abi": [
    {
      "inputs": [
        {
          "internalType": "address",
          "name": "_owner",
          "type": "address"
        }
      ],
      "stateMutability": "payable",
      "type": "constructor"
    },
    {
      "inputs": [],
      "name": "NotAuthorized",
      "type": "error"
    },
    {
      "anonymous": false,
      "inputs": [
        {
          "indexed": true,
          "internalType": "address",
          "name": "user",
          "type": "address"
        },
        {
          "indexed": false,
          "internalType": "string",
          "name": "alphaURI",
          "type": "string"
        }
      ],
      "name": "AlphaURISet",
      "type": "event"
    },
    {
      "anonymous": false,
      "inputs": [
        {
          "indexed": true,
          "internalType": "address",
          "name": "user",
          "type": "address"
        },
        {
          "indexed": true,
          "internalType": "address",
          "name": "origin",
          "type": "address"
        },
        {
          "indexed": false,
          "internalType": "string",
          "name": "betaURI",
          "type": "string"
        }
      ],
      "name": "BetaURISet",
      "type": "event"
    },
    {
      "anonymous": false,
      "inputs": [
        {
          "indexed": true,
          "internalType": "address",
          "name": "user",
          "type": "address"
        },
        {
          "indexed": true,
          "internalType": "address",
          "name": "newOwner",
          "type": "address"
        }
      ],
      "name": "OwnerUpdated",
      "type": "event"
    },
    {
      "anonymous": false,
      "inputs": [
        {
          "indexed": true,
          "internalType": "address",
          "name": "user",
          "type": "address"
        },
        {
          "indexed": true,
          "internalType": "address",
          "name": "origin",
          "type": "address"
        },
        {
          "indexed": true,
          "internalType": "uint256",
          "name": "id",
          "type": "uint256"
        },
        {
          "indexed": false,
          "internalType": "string",
          "name": "uri",
          "type": "string"
        }
      ],
      "name": "URISet",
      "type": "event"
    },
    {
      "inputs": [],
      "name": "alphaURI",
      "outputs": [
        {
          "internalType": "string",
          "name": "",
          "type": "string"
        }
      ],
      "stateMutability": "view",
      "type": "function"
    },
    {
      "inputs": [
        {
          "internalType": "address",
          "name": "",
          "type": "address"
        }
      ],
      "name": "betaURI",
      "outputs": [
        {
          "internalType": "string",
          "name": "",
          "type": "string"
        }
      ],
      "stateMutability": "view",
      "type": "function"
    },
    {
      "inputs": [
        {
          "internalType": "address",
          "name": "origin",
          "type": "address"
        },
        {
          "internalType": "uint256",
          "name": "id",
          "type": "uint256"
        }
      ],
      "name": "fetchURI",
      "outputs": [
        {
          "internalType": "string",
          "name": "",
          "type": "string"
        }
      ],
      "stateMutability": "view",
      "type": "function"
    },
    {
      "inputs": [],
      "name": "owner",
      "outputs": [
        {
          "internalType": "address",
          "name": "",
          "type": "address"
        }
      ],
      "stateMutability": "view",
      "type": "function"
    },
    {
      "inputs": [
        {
          "internalType": "string",
          "name": "_alphaURI",
          "type": "string"
        }
      ],
      "name": "setAlphaURI",
      "outputs": [],
      "stateMutability": "payable",
      "type": "function"
    },
    {
      "inputs": [
        {
          "internalType": "address",
          "name": "origin",
          "type": "address"
        },
        {
          "internalType": "string",
          "name": "beta",
          "type": "string"
        }
      ],
      "name": "setBetaURI",
      "outputs": [],
      "stateMutability": "payable",
      "type": "function"
    },
    {
      "inputs": [
        {
          "internalType": "address",
          "name": "newOwner",
          "type": "address"
        }
      ],
      "name": "setOwner",
      "outputs": [],
      "stateMutability": "payable",
      "type": "function"
    },
    {
      "inputs": [
        {
          "internalType": "address",
          "name": "origin",
          "type": "address"
        },
        {
          "internalType": "uint256",
          "name": "id",
          "type": "uint256"
        },
        {
          "internalType": "string",
          "name": "uri",
          "type": "string"
        }
      ],
      "name": "setURI",
      "outputs": [],
      "stateMutability": "payable",
      "type": "function"
    },
    {
      "inputs": [
        {
          "internalType": "address",
          "name": "",
          "type": "address"
        },
        {
          "internalType": "uint256",
          "name": "",
          "type": "uint256"
        }
      ],
      "name": "uris",
      "outputs": [
        {
          "internalType": "string",
          "name": "",
          "type": "string"
        }
      ],
      "stateMutability": "view",
      "type": "function"
    }
  ],
  "bytecode": {
    "object": "0x6080604052604051610d53380380610d5383398101604081905261002291610071565b600080546001600160a01b0319166001600160a01b03831690811782556040518392907f8292fce18fa69edf4db7b94ea2e58241df0ae57f97e0a6c9b29067028bf92d76908290a350506100a1565b60006020828403121561008357600080fd5b81516001600160a01b038116811461009a57600080fd5b9392505050565b610ca3806100b06000396000f3fe6080604052600436106100965760003560e01c806346b8149811610069578063685e82471161004e578063685e82471461014e5780638da5cb5b14610161578063d2cf2cc2146101b357600080fd5b806346b81498146101195780634cc75cb61461012e57600080fd5b806304add0dd1461009b57806313af4035146100d15780633716d1c4146100e65780633d3be33114610106575b600080fd5b3480156100a757600080fd5b506100bb6100b636600461086d565b6101c6565b6040516100c89190610897565b60405180910390f35b6100e46100df366004610903565b61041c565b005b3480156100f257600080fd5b506100bb610101366004610903565b6104dd565b6100e461011436600461096e565b610577565b34801561012557600080fd5b506100bb610665565b34801561013a57600080fd5b506100bb61014936600461086d565b610672565b6100e461015c3660046109c1565b610696565b34801561016d57600080fd5b5060005461018e9073ffffffffffffffffffffffffffffffffffffffff1681565b60405173ffffffffffffffffffffffffffffffffffffffff90911681526020016100c8565b6100e46101c1366004610a1b565b610791565b60606000600180546101d790610a5d565b80601f016020809104026020016040519081016040528092919081815260200182805461020390610a5d565b80156102505780601f1061022557610100808354040283529160200191610250565b820191906000526020600020905b81548152906001019060200180831161023357829003601f168201915b50505073ffffffffffffffffffffffffffffffffffffffff871660009081526002602052604081208054949550909390925061028c9150610a5d565b80601f01602080910402602001604051908101604052809291908181526020018280546102b890610a5d565b80156103055780601f106102da57610100808354040283529160200191610305565b820191906000526020600020905b8154815290600101906020018083116102e857829003601f168201915b50505073ffffffffffffffffffffffffffffffffffffffff881660009081526003602090815260408083208a845290915281208054949550909390925061034c9150610a5d565b80601f016020809104026020016040519081016040528092919081815260200182805461037890610a5d565b80156103c55780601f1061039a576101008083540402835291602001916103c5565b820191906000526020600020905b8154815290600101906020018083116103a857829003601f168201915b5050505050905080516000146103df579250610416915050565b8151156103f0575091506104169050565b825160000361040e5760405180602001604052806000815250610410565b825b93505050505b92915050565b60005473ffffffffffffffffffffffffffffffffffffffff16331461046d576040517fea8e4eb500000000000000000000000000000000000000000000000000000000815260040160405180910390fd5b600080547fffffffffffffffffffffffff00000000000000000000000000000000000000001673ffffffffffffffffffffffffffffffffffffffff83169081178255604051909133917f8292fce18fa69edf4db7b94ea2e58241df0ae57f97e0a6c9b29067028bf92d769190a350565b600260205260009081526040902080546104f690610a5d565b80601f016020809104026020016040519081016040528092919081815260200182805461052290610a5d565b801561056f5780601f106105445761010080835404028352916020019161056f565b820191906000526020600020905b81548152906001019060200180831161055257829003601f168201915b505050505081565b60005473ffffffffffffffffffffffffffffffffffffffff1633146105c8576040517fea8e4eb500000000000000000000000000000000000000000000000000000000815260040160405180910390fd5b73ffffffffffffffffffffffffffffffffffffffff831660009081526002602052604090206105f8828483610b2e565b508273ffffffffffffffffffffffffffffffffffffffff163373ffffffffffffffffffffffffffffffffffffffff167fec63f303852486acca6f3ec82d2a065ae7ae0a45d53e147dc6278b1f1aab2aa48484604051610658929190610c49565b60405180910390a3505050565b600180546104f690610a5d565b6003602090815260009283526040808420909152908252902080546104f690610a5d565b60005473ffffffffffffffffffffffffffffffffffffffff1633146106e7576040517fea8e4eb500000000000000000000000000000000000000000000000000000000815260040160405180910390fd5b73ffffffffffffffffffffffffffffffffffffffff841660009081526003602090815260408083208684529091529020610722828483610b2e565b50828473ffffffffffffffffffffffffffffffffffffffff163373ffffffffffffffffffffffffffffffffffffffff167fdd7f1e46a828ea127fac02e886eb658a920234585c4ff460fad651d26f8aea628585604051610783929190610c49565b60405180910390a450505050565b60005473ffffffffffffffffffffffffffffffffffffffff1633146107e2576040517fea8e4eb500000000000000000000000000000000000000000000000000000000815260040160405180910390fd5b60016107ef828483610b2e565b503373ffffffffffffffffffffffffffffffffffffffff167f2b582a56619f247f32bce2554cf2e45a399b4df526cb25311788be51452be4288383604051610838929190610c49565b60405180910390a25050565b803573ffffffffffffffffffffffffffffffffffffffff8116811461086857600080fd5b919050565b6000806040838503121561088057600080fd5b61088983610844565b946020939093013593505050565b600060208083528351808285015260005b818110156108c4578581018301518582016040015282016108a8565b5060006040828601015260407fffffffffffffffffffffffffffffffffffffffffffffffffffffffffffffffe0601f8301168501019250505092915050565b60006020828403121561091557600080fd5b61091e82610844565b9392505050565b60008083601f84011261093757600080fd5b50813567ffffffffffffffff81111561094f57600080fd5b60208301915083602082850101111561096757600080fd5b9250929050565b60008060006040848603121561098357600080fd5b61098c84610844565b9250602084013567ffffffffffffffff8111156109a857600080fd5b6109b486828701610925565b9497909650939450505050565b600080600080606085870312156109d757600080fd5b6109e085610844565b935060208501359250604085013567ffffffffffffffff811115610a0357600080fd5b610a0f87828801610925565b95989497509550505050565b60008060208385031215610a2e57600080fd5b823567ffffffffffffffff811115610a4557600080fd5b610a5185828601610925565b90969095509350505050565b600181811c90821680610a7157607f821691505b602082108103610aaa577f4e487b7100000000000000000000000000000000000000000000000000000000600052602260045260246000fd5b50919050565b7f4e487b7100000000000000000000000000000000000000000000000000000000600052604160045260246000fd5b601f821115610b2957600081815260208120601f850160051c81016020861015610b065750805b601f850160051c820191505b81811015610b2557828155600101610b12565b5050505b505050565b67ffffffffffffffff831115610b4657610b46610ab0565b610b5a83610b548354610a5d565b83610adf565b6000601f841160018114610bac5760008515610b765750838201355b7fffffffffffffffffffffffffffffffffffffffffffffffffffffffffffffffff600387901b1c1916600186901b178355610c42565b6000838152602090207fffffffffffffffffffffffffffffffffffffffffffffffffffffffffffffffe0861690835b82811015610bfb5786850135825560209485019460019092019101610bdb565b5086821015610c36577fffffffffffffffffffffffffffffffffffffffffffffffffffffffffffffffff60f88860031b161c19848701351681555b505060018560011b0183555b5050505050565b60208152816020820152818360408301376000818301604090810191909152601f9092017fffffffffffffffffffffffffffffffffffffffffffffffffffffffffffffffe016010191905056fea164736f6c6343000811000a",
    "linkReferences": {}
  },
  "methodIdentifiers": {
    "alphaURI()": "46b81498",
    "betaURI(address)": "3716d1c4",
    "fetchURI(address,uint256)": "04add0dd",
    "owner()": "8da5cb5b",
    "setAlphaURI(string)": "d2cf2cc2",
    "setBetaURI(address,string)": "3d3be331",
    "setOwner(address)": "13af4035",
    "setURI(address,uint256,string)": "685e8247",
    "uris(address,uint256)": "4cc75cb6"
  },
  "id": 23
}