{
  "abi": [
    {
      "inputs": [
        {
          "internalType": "contract Keep",
          "name": "_uriFetcher",
          "type": "address"
        }
      ],
      "stateMutability": "payable",
      "type": "constructor"
    },
    {
      "inputs": [],
      "name": "AlreadyInit",
      "type": "error"
    },
    {
      "inputs": [],
      "name": "ExecuteFailed",
      "type": "error"
    },
    {
      "inputs": [],
      "name": "ExpiredSig",
      "type": "error"
    },
    {
      "inputs": [],
      "name": "InvalidRecipient",
      "type": "error"
    },
    {
      "inputs": [],
      "name": "InvalidSig",
      "type": "error"
    },
    {
      "inputs": [],
      "name": "LengthMismatch",
      "type": "error"
    },
    {
      "inputs": [],
      "name": "NonTransferable",
      "type": "error"
    },
    {
      "inputs": [],
      "name": "NotAuthorized",
      "type": "error"
    },
    {
      "inputs": [],
      "name": "NotPermitted",
      "type": "error"
    },
    {
      "inputs": [],
      "name": "Overflow",
      "type": "error"
    },
    {
      "inputs": [],
      "name": "QuorumOverSupply",
      "type": "error"
    },
    {
      "inputs": [],
      "name": "Undetermined",
      "type": "error"
    },
    {
      "inputs": [],
      "name": "UnsafeRecipient",
      "type": "error"
    },
    {
      "anonymous": false,
      "inputs": [
        {
          "indexed": true,
          "internalType": "address",
          "name": "owner",
          "type": "address"
        },
        {
          "indexed": true,
          "internalType": "address",
          "name": "operator",
          "type": "address"
        },
        {
          "indexed": false,
          "internalType": "bool",
          "name": "approved",
          "type": "bool"
        }
      ],
      "name": "ApprovalForAll",
      "type": "event"
    },
    {
      "anonymous": false,
      "inputs": [
        {
          "indexed": true,
          "internalType": "address",
          "name": "delegator",
          "type": "address"
        },
        {
          "indexed": true,
          "internalType": "address",
          "name": "fromDelegate",
          "type": "address"
        },
        {
          "indexed": true,
          "internalType": "address",
          "name": "toDelegate",
          "type": "address"
        },
        {
          "indexed": false,
          "internalType": "uint256",
          "name": "id",
          "type": "uint256"
        }
      ],
      "name": "DelegateChanged",
      "type": "event"
    },
    {
      "anonymous": false,
      "inputs": [
        {
          "indexed": true,
          "internalType": "address",
          "name": "delegate",
          "type": "address"
        },
        {
          "indexed": true,
          "internalType": "uint256",
          "name": "id",
          "type": "uint256"
        },
        {
          "indexed": false,
          "internalType": "uint256",
          "name": "previousBalance",
          "type": "uint256"
        },
        {
          "indexed": false,
          "internalType": "uint256",
          "name": "newBalance",
          "type": "uint256"
        }
      ],
      "name": "DelegateVotesChanged",
      "type": "event"
    },
    {
      "anonymous": false,
      "inputs": [
        {
          "indexed": false,
          "internalType": "enum Operation",
          "name": "op",
          "type": "uint8"
        },
        {
          "indexed": true,
          "internalType": "address",
          "name": "to",
          "type": "address"
        },
        {
          "indexed": false,
          "internalType": "uint256",
          "name": "value",
          "type": "uint256"
        },
        {
          "indexed": false,
          "internalType": "bytes",
          "name": "data",
          "type": "bytes"
        }
      ],
      "name": "Executed",
      "type": "event"
    },
    {
      "anonymous": false,
      "inputs": [
        {
          "indexed": true,
          "internalType": "address",
          "name": "operator",
          "type": "address"
        },
        {
          "indexed": true,
          "internalType": "uint256",
          "name": "id",
          "type": "uint256"
        },
        {
          "indexed": false,
          "internalType": "bool",
          "name": "set",
          "type": "bool"
        }
      ],
      "name": "PermissionSet",
      "type": "event"
    },
    {
      "anonymous": false,
      "inputs": [
        {
          "indexed": true,
          "internalType": "address",
          "name": "operator",
          "type": "address"
        },
        {
          "indexed": false,
          "internalType": "uint256",
          "name": "threshold",
          "type": "uint256"
        }
      ],
      "name": "QuorumSet",
      "type": "event"
    },
    {
      "anonymous": false,
      "inputs": [
        {
          "indexed": true,
          "internalType": "address",
          "name": "operator",
          "type": "address"
        },
        {
          "indexed": true,
          "internalType": "address",
          "name": "from",
          "type": "address"
        },
        {
          "indexed": true,
          "internalType": "address",
          "name": "to",
          "type": "address"
        },
        {
          "indexed": false,
          "internalType": "uint256[]",
          "name": "ids",
          "type": "uint256[]"
        },
        {
          "indexed": false,
          "internalType": "uint256[]",
          "name": "amounts",
          "type": "uint256[]"
        }
      ],
      "name": "TransferBatch",
      "type": "event"
    },
    {
      "anonymous": false,
      "inputs": [
        {
          "indexed": true,
          "internalType": "address",
          "name": "operator",
          "type": "address"
        },
        {
          "indexed": true,
          "internalType": "address",
          "name": "from",
          "type": "address"
        },
        {
          "indexed": true,
          "internalType": "address",
          "name": "to",
          "type": "address"
        },
        {
          "indexed": false,
          "internalType": "uint256",
          "name": "id",
          "type": "uint256"
        },
        {
          "indexed": false,
          "internalType": "uint256",
          "name": "amount",
          "type": "uint256"
        }
      ],
      "name": "TransferSingle",
      "type": "event"
    },
    {
      "anonymous": false,
      "inputs": [
        {
          "indexed": true,
          "internalType": "address",
          "name": "operator",
          "type": "address"
        },
        {
          "indexed": true,
          "internalType": "uint256",
          "name": "id",
          "type": "uint256"
        },
        {
          "indexed": false,
          "internalType": "bool",
          "name": "set",
          "type": "bool"
        }
      ],
      "name": "TransferabilitySet",
      "type": "event"
    },
    {
      "anonymous": false,
      "inputs": [
        {
          "indexed": false,
          "internalType": "string",
          "name": "value",
          "type": "string"
        },
        {
          "indexed": true,
          "internalType": "uint256",
          "name": "id",
          "type": "uint256"
        }
      ],
      "name": "URI",
      "type": "event"
    },
    {
      "anonymous": false,
      "inputs": [
        {
          "indexed": true,
          "internalType": "address",
          "name": "operator",
          "type": "address"
        },
        {
          "indexed": true,
          "internalType": "address",
          "name": "to",
          "type": "address"
        },
        {
          "indexed": true,
          "internalType": "uint256",
          "name": "id",
          "type": "uint256"
        },
        {
          "indexed": false,
          "internalType": "bool",
          "name": "set",
          "type": "bool"
        }
      ],
      "name": "UserPermissionSet",
      "type": "event"
    },
    {
      "inputs": [],
      "name": "DOMAIN_SEPARATOR",
      "outputs": [
        {
          "internalType": "bytes32",
          "name": "",
          "type": "bytes32"
        }
      ],
      "stateMutability": "view",
      "type": "function"
    },
    {
      "inputs": [
        {
          "internalType": "address",
          "name": "",
          "type": "address"
        },
        {
          "internalType": "uint256",
          "name": "",
          "type": "uint256"
        }
      ],
      "name": "balanceOf",
      "outputs": [
        {
          "internalType": "uint256",
          "name": "",
          "type": "uint256"
        }
      ],
      "stateMutability": "view",
      "type": "function"
    },
    {
      "inputs": [
        {
          "internalType": "address[]",
          "name": "owners",
          "type": "address[]"
        },
        {
          "internalType": "uint256[]",
          "name": "ids",
          "type": "uint256[]"
        }
      ],
      "name": "balanceOfBatch",
      "outputs": [
        {
          "internalType": "uint256[]",
          "name": "balances",
          "type": "uint256[]"
        }
      ],
      "stateMutability": "view",
      "type": "function"
    },
    {
      "inputs": [
        {
          "internalType": "address",
          "name": "from",
          "type": "address"
        },
        {
          "internalType": "uint256",
          "name": "id",
          "type": "uint256"
        },
        {
          "internalType": "uint256",
          "name": "amount",
          "type": "uint256"
        }
      ],
      "name": "burn",
      "outputs": [],
      "stateMutability": "payable",
      "type": "function"
    },
    {
      "inputs": [
        {
          "internalType": "address",
          "name": "",
          "type": "address"
        },
        {
          "internalType": "uint256",
          "name": "",
          "type": "uint256"
        },
        {
          "internalType": "uint256",
          "name": "",
          "type": "uint256"
        }
      ],
      "name": "checkpoints",
      "outputs": [
        {
          "internalType": "uint40",
          "name": "fromTimestamp",
          "type": "uint40"
        },
        {
          "internalType": "uint216",
          "name": "votes",
          "type": "uint216"
        }
      ],
      "stateMutability": "view",
      "type": "function"
    },
    {
      "inputs": [
        {
          "internalType": "address",
          "name": "delegatee",
          "type": "address"
        },
        {
          "internalType": "uint256",
          "name": "id",
          "type": "uint256"
        }
      ],
      "name": "delegate",
      "outputs": [],
      "stateMutability": "payable",
      "type": "function"
    },
    {
      "inputs": [
        {
          "internalType": "address",
          "name": "delegatee",
          "type": "address"
        },
        {
          "internalType": "uint256",
          "name": "nonce",
          "type": "uint256"
        },
        {
          "internalType": "uint256",
          "name": "deadline",
          "type": "uint256"
        },
        {
          "internalType": "uint256",
          "name": "id",
          "type": "uint256"
        },
        {
          "internalType": "uint8",
          "name": "v",
          "type": "uint8"
        },
        {
          "internalType": "bytes32",
          "name": "r",
          "type": "bytes32"
        },
        {
          "internalType": "bytes32",
          "name": "s",
          "type": "bytes32"
        }
      ],
      "name": "delegateBySig",
      "outputs": [],
      "stateMutability": "payable",
      "type": "function"
    },
    {
      "inputs": [
        {
          "internalType": "address",
          "name": "account",
          "type": "address"
        },
        {
          "internalType": "uint256",
          "name": "id",
          "type": "uint256"
        }
      ],
      "name": "delegates",
      "outputs": [
        {
          "internalType": "address",
          "name": "",
          "type": "address"
        }
      ],
      "stateMutability": "view",
      "type": "function"
    },
    {
      "inputs": [
        {
          "internalType": "enum Operation",
          "name": "op",
          "type": "uint8"
        },
        {
          "internalType": "address",
          "name": "to",
          "type": "address"
        },
        {
          "internalType": "uint256",
          "name": "value",
          "type": "uint256"
        },
        {
          "internalType": "bytes",
          "name": "data",
          "type": "bytes"
        },
        {
          "components": [
            {
              "internalType": "address",
              "name": "user",
              "type": "address"
            },
            {
              "internalType": "uint8",
              "name": "v",
              "type": "uint8"
            },
            {
              "internalType": "bytes32",
              "name": "r",
              "type": "bytes32"
            },
            {
              "internalType": "bytes32",
              "name": "s",
              "type": "bytes32"
            }
          ],
          "internalType": "struct Signature[]",
          "name": "sigs",
          "type": "tuple[]"
        }
      ],
      "name": "execute",
      "outputs": [
        {
          "internalType": "bool",
          "name": "success",
          "type": "bool"
        }
      ],
      "stateMutability": "payable",
      "type": "function"
    },
    {
      "inputs": [
        {
          "internalType": "address",
          "name": "account",
          "type": "address"
        },
        {
          "internalType": "uint256",
          "name": "id",
          "type": "uint256"
        }
      ],
      "name": "getCurrentVotes",
      "outputs": [
        {
          "internalType": "uint256",
          "name": "",
          "type": "uint256"
        }
      ],
      "stateMutability": "view",
      "type": "function"
    },
    {
      "inputs": [
        {
          "internalType": "address",
          "name": "account",
          "type": "address"
        },
        {
          "internalType": "uint256",
          "name": "id",
          "type": "uint256"
        },
        {
          "internalType": "uint256",
          "name": "timestamp",
          "type": "uint256"
        }
      ],
      "name": "getPastVotes",
      "outputs": [
        {
          "internalType": "uint256",
          "name": "",
          "type": "uint256"
        }
      ],
      "stateMutability": "view",
      "type": "function"
    },
    {
      "inputs": [
        {
          "internalType": "address",
          "name": "account",
          "type": "address"
        },
        {
          "internalType": "uint256",
          "name": "id",
          "type": "uint256"
        },
        {
          "internalType": "uint256",
          "name": "timestamp",
          "type": "uint256"
        }
      ],
      "name": "getPriorVotes",
      "outputs": [
        {
          "internalType": "uint256",
          "name": "",
          "type": "uint256"
        }
      ],
      "stateMutability": "view",
      "type": "function"
    },
    {
      "inputs": [
        {
          "internalType": "address",
          "name": "account",
          "type": "address"
        },
        {
          "internalType": "uint256",
          "name": "id",
          "type": "uint256"
        }
      ],
      "name": "getVotes",
      "outputs": [
        {
          "internalType": "uint256",
          "name": "",
          "type": "uint256"
        }
      ],
      "stateMutability": "view",
      "type": "function"
    },
    {
      "inputs": [
        {
          "components": [
            {
              "internalType": "enum Operation",
              "name": "op",
              "type": "uint8"
            },
            {
              "internalType": "address",
              "name": "to",
              "type": "address"
            },
            {
              "internalType": "uint256",
              "name": "value",
              "type": "uint256"
            },
            {
              "internalType": "bytes",
              "name": "data",
              "type": "bytes"
            }
          ],
          "internalType": "struct Call[]",
          "name": "calls",
          "type": "tuple[]"
        },
        {
          "internalType": "address[]",
          "name": "signers",
          "type": "address[]"
        },
        {
          "internalType": "uint256",
          "name": "threshold",
          "type": "uint256"
        }
      ],
      "name": "initialize",
      "outputs": [],
      "stateMutability": "payable",
      "type": "function"
    },
    {
      "inputs": [
        {
          "internalType": "address",
          "name": "",
          "type": "address"
        },
        {
          "internalType": "address",
          "name": "",
          "type": "address"
        }
      ],
      "name": "isApprovedForAll",
      "outputs": [
        {
          "internalType": "bool",
          "name": "",
          "type": "bool"
        }
      ],
      "stateMutability": "view",
      "type": "function"
    },
    {
      "inputs": [
        {
          "internalType": "address",
          "name": "to",
          "type": "address"
        },
        {
          "internalType": "uint256",
          "name": "id",
          "type": "uint256"
        },
        {
          "internalType": "uint256",
          "name": "amount",
          "type": "uint256"
        },
        {
          "internalType": "bytes",
          "name": "data",
          "type": "bytes"
        }
      ],
      "name": "mint",
      "outputs": [],
      "stateMutability": "payable",
      "type": "function"
    },
    {
      "inputs": [
        {
          "components": [
            {
              "internalType": "enum Operation",
              "name": "op",
              "type": "uint8"
            },
            {
              "internalType": "address",
              "name": "to",
              "type": "address"
            },
            {
              "internalType": "uint256",
              "name": "value",
              "type": "uint256"
            },
            {
              "internalType": "bytes",
              "name": "data",
              "type": "bytes"
            }
          ],
          "internalType": "struct Call[]",
          "name": "calls",
          "type": "tuple[]"
        }
      ],
      "name": "multiExecute",
      "outputs": [
        {
          "internalType": "bool[]",
          "name": "successes",
          "type": "bool[]"
        }
      ],
      "stateMutability": "payable",
      "type": "function"
    },
    {
      "inputs": [
        {
          "internalType": "bytes[]",
          "name": "data",
          "type": "bytes[]"
        }
      ],
      "name": "multicall",
      "outputs": [
        {
          "internalType": "bytes[]",
          "name": "results",
          "type": "bytes[]"
        }
      ],
      "stateMutability": "payable",
      "type": "function"
    },
    {
      "inputs": [],
      "name": "name",
      "outputs": [
        {
          "internalType": "string",
          "name": "",
          "type": "string"
        }
      ],
      "stateMutability": "pure",
      "type": "function"
    },
    {
      "inputs": [],
      "name": "nonce",
      "outputs": [
        {
          "internalType": "uint120",
          "name": "",
          "type": "uint120"
        }
      ],
      "stateMutability": "view",
      "type": "function"
    },
    {
      "inputs": [
        {
          "internalType": "address",
          "name": "",
          "type": "address"
        }
      ],
      "name": "nonces",
      "outputs": [
        {
          "internalType": "uint256",
          "name": "",
          "type": "uint256"
        }
      ],
      "stateMutability": "view",
      "type": "function"
    },
    {
      "inputs": [
        {
          "internalType": "address",
          "name": "",
          "type": "address"
        },
        {
          "internalType": "uint256",
          "name": "",
          "type": "uint256"
        }
      ],
      "name": "numCheckpoints",
      "outputs": [
        {
          "internalType": "uint256",
          "name": "",
          "type": "uint256"
        }
      ],
      "stateMutability": "view",
      "type": "function"
    },
    {
      "inputs": [
        {
          "internalType": "address",
          "name": "",
          "type": "address"
        },
        {
          "internalType": "address",
          "name": "",
          "type": "address"
        },
        {
          "internalType": "uint256[]",
          "name": "",
          "type": "uint256[]"
        },
        {
          "internalType": "uint256[]",
          "name": "",
          "type": "uint256[]"
        },
        {
          "internalType": "bytes",
          "name": "",
          "type": "bytes"
        }
      ],
      "name": "onERC1155BatchReceived",
      "outputs": [
        {
          "internalType": "bytes4",
          "name": "",
          "type": "bytes4"
        }
      ],
      "stateMutability": "payable",
      "type": "function"
    },
    {
      "inputs": [
        {
          "internalType": "address",
          "name": "",
          "type": "address"
        },
        {
          "internalType": "address",
          "name": "",
          "type": "address"
        },
        {
          "internalType": "uint256",
          "name": "",
          "type": "uint256"
        },
        {
          "internalType": "uint256",
          "name": "",
          "type": "uint256"
        },
        {
          "internalType": "bytes",
          "name": "",
          "type": "bytes"
        }
      ],
      "name": "onERC1155Received",
      "outputs": [
        {
          "internalType": "bytes4",
          "name": "",
          "type": "bytes4"
        }
      ],
      "stateMutability": "payable",
      "type": "function"
    },
    {
      "inputs": [
        {
          "internalType": "address",
          "name": "",
          "type": "address"
        },
        {
          "internalType": "address",
          "name": "",
          "type": "address"
        },
        {
          "internalType": "uint256",
          "name": "",
          "type": "uint256"
        },
        {
          "internalType": "bytes",
          "name": "",
          "type": "bytes"
        }
      ],
      "name": "onERC721Received",
      "outputs": [
        {
          "internalType": "bytes4",
          "name": "",
          "type": "bytes4"
        }
      ],
      "stateMutability": "payable",
      "type": "function"
    },
    {
      "inputs": [
        {
          "internalType": "uint256",
          "name": "",
          "type": "uint256"
        }
      ],
      "name": "permissioned",
      "outputs": [
        {
          "internalType": "bool",
          "name": "",
          "type": "bool"
        }
      ],
      "stateMutability": "view",
      "type": "function"
    },
    {
      "inputs": [
        {
          "internalType": "address",
          "name": "owner",
          "type": "address"
        },
        {
          "internalType": "address",
          "name": "operator",
          "type": "address"
        },
        {
          "internalType": "bool",
          "name": "approved",
          "type": "bool"
        },
        {
          "internalType": "uint256",
          "name": "deadline",
          "type": "uint256"
        },
        {
          "internalType": "uint8",
          "name": "v",
          "type": "uint8"
        },
        {
          "internalType": "bytes32",
          "name": "r",
          "type": "bytes32"
        },
        {
          "internalType": "bytes32",
          "name": "s",
          "type": "bytes32"
        }
      ],
      "name": "permit",
      "outputs": [],
      "stateMutability": "payable",
      "type": "function"
    },
    {
      "inputs": [],
      "name": "quorum",
      "outputs": [
        {
          "internalType": "uint120",
          "name": "",
          "type": "uint120"
        }
      ],
      "stateMutability": "view",
      "type": "function"
    },
    {
      "inputs": [
        {
          "internalType": "address",
          "name": "from",
          "type": "address"
        },
        {
          "internalType": "address",
          "name": "to",
          "type": "address"
        },
        {
          "internalType": "uint256[]",
          "name": "ids",
          "type": "uint256[]"
        },
        {
          "internalType": "uint256[]",
          "name": "amounts",
          "type": "uint256[]"
        },
        {
          "internalType": "bytes",
          "name": "data",
          "type": "bytes"
        }
      ],
      "name": "safeBatchTransferFrom",
      "outputs": [],
      "stateMutability": "payable",
      "type": "function"
    },
    {
      "inputs": [
        {
          "internalType": "address",
          "name": "from",
          "type": "address"
        },
        {
          "internalType": "address",
          "name": "to",
          "type": "address"
        },
        {
          "internalType": "uint256",
          "name": "id",
          "type": "uint256"
        },
        {
          "internalType": "uint256",
          "name": "amount",
          "type": "uint256"
        },
        {
          "internalType": "bytes",
          "name": "data",
          "type": "bytes"
        }
      ],
      "name": "safeTransferFrom",
      "outputs": [],
      "stateMutability": "payable",
      "type": "function"
    },
    {
      "inputs": [
        {
          "internalType": "address",
          "name": "operator",
          "type": "address"
        },
        {
          "internalType": "bool",
          "name": "approved",
          "type": "bool"
        }
      ],
      "name": "setApprovalForAll",
      "outputs": [],
      "stateMutability": "payable",
      "type": "function"
    },
    {
      "inputs": [
        {
          "internalType": "uint256",
          "name": "id",
          "type": "uint256"
        },
        {
          "internalType": "bool",
          "name": "set",
          "type": "bool"
        }
      ],
      "name": "setPermission",
      "outputs": [],
      "stateMutability": "payable",
      "type": "function"
    },
    {
      "inputs": [
        {
          "internalType": "uint256",
          "name": "threshold",
          "type": "uint256"
        }
      ],
      "name": "setQuorum",
      "outputs": [],
      "stateMutability": "payable",
      "type": "function"
    },
    {
      "inputs": [
        {
          "internalType": "uint256",
          "name": "id",
          "type": "uint256"
        },
        {
          "internalType": "bool",
          "name": "transferability",
          "type": "bool"
        }
      ],
      "name": "setTransferability",
      "outputs": [],
      "stateMutability": "payable",
      "type": "function"
    },
    {
      "inputs": [
        {
          "internalType": "uint256",
          "name": "id",
          "type": "uint256"
        },
        {
          "internalType": "string",
          "name": "tokenURI",
          "type": "string"
        }
      ],
      "name": "setURI",
      "outputs": [],
      "stateMutability": "payable",
      "type": "function"
    },
    {
      "inputs": [
        {
          "internalType": "address",
          "name": "to",
          "type": "address"
        },
        {
          "internalType": "uint256",
          "name": "id",
          "type": "uint256"
        },
        {
          "internalType": "bool",
          "name": "set",
          "type": "bool"
        }
      ],
      "name": "setUserPermission",
      "outputs": [],
      "stateMutability": "payable",
      "type": "function"
    },
    {
      "inputs": [
        {
          "internalType": "bytes4",
          "name": "interfaceId",
          "type": "bytes4"
        }
      ],
      "name": "supportsInterface",
      "outputs": [
        {
          "internalType": "bool",
          "name": "",
          "type": "bool"
        }
      ],
      "stateMutability": "view",
      "type": "function"
    },
    {
      "inputs": [
        {
          "internalType": "uint256",
          "name": "",
          "type": "uint256"
        }
      ],
      "name": "totalSupply",
      "outputs": [
        {
          "internalType": "uint256",
          "name": "",
          "type": "uint256"
        }
      ],
      "stateMutability": "view",
      "type": "function"
    },
    {
      "inputs": [
        {
          "internalType": "uint256",
          "name": "",
          "type": "uint256"
        }
      ],
      "name": "transferable",
      "outputs": [
        {
          "internalType": "bool",
          "name": "",
          "type": "bool"
        }
      ],
      "stateMutability": "view",
      "type": "function"
    },
    {
      "inputs": [
        {
          "internalType": "uint256",
          "name": "id",
          "type": "uint256"
        }
      ],
      "name": "uri",
      "outputs": [
        {
          "internalType": "string",
          "name": "tokenURI",
          "type": "string"
        }
      ],
      "stateMutability": "view",
      "type": "function"
    },
    {
      "inputs": [
        {
          "internalType": "address",
          "name": "",
          "type": "address"
        },
        {
          "internalType": "uint256",
          "name": "",
          "type": "uint256"
        }
      ],
      "name": "userPermissioned",
      "outputs": [
        {
          "internalType": "bool",
          "name": "",
          "type": "bool"
        }
      ],
      "stateMutability": "view",
      "type": "function"
    }
  ],
  "bytecode": {
    "object": "0x60c06040819052633d264f3960805262004dd6388190039081908339810160408190526200002d916200003f565b6001600160a01b031660a05262000071565b6000602082840312156200005257600080fd5b81516001600160a01b03811681146200006a57600080fd5b9392505050565b60805160a051614d386200009e6000396000610b3c015260008181613c1f0152613c720152614d386000f3fe6080604052600436106102c55760003560e01c80637ecebe0011610179578063bd85b039116100d6578063f23a6e611161008a578063f51cc7dd11610064578063f51cc7dd14610902578063f5298aca14610915578063fc95ba431461092857600080fd5b8063f23a6e6114610886578063f242432a146108bf578063f4c3b4d7146108d257600080fd5b8063e63a562e116100bb578063e63a562e14610818578063e985e9c51461082b578063eb9019d41461086657600080fd5b8063bd85b039146107d8578063c1ba4e591461080557600080fd5b8063a22cb4651161012d578063afa88bca11610112578063afa88bca1461073d578063affed0e014610775578063bc197c811461079d57600080fd5b8063a22cb4651461070a578063ac9650d81461071d57600080fd5b8063836eebee1161015e578063836eebee146106b7578063862440e2146106d75780638cb18c12146106ea57600080fd5b80637ecebe001461066a578063807df56d1461069757600080fd5b80633644e515116102275780634e1273f4116101db5780637140d960116101c05780637140d96014610631578063731133e9146106445780637769ea0b1461065757600080fd5b80634e1273f4146105f15780636c4b55461461061e57600080fd5b80633d30ef471161020c5780633d30ef47146105ab57806349e5078c146105be5780634d6fb775146105d157600080fd5b80633644e515146104f0578063387bbabd1461050557600080fd5b8063121566911161027e5780631703a018116102635780631703a0181461043d57806327dd1b00146104985780632eb2c2d6146104dd57600080fd5b80631215669114610399578063150b7a02146103d457600080fd5b8063026e402b116102af578063026e402b1461034257806306fdde03146103575780630e89341c1461037957600080fd5b8062fdd58e146102ca57806301ffc9a714610312575b600080fd5b3480156102d657600080fd5b506102ff6102e5366004613d5e565b600060208181529281526040808220909352908152205481565b6040519081526020015b60405180910390f35b34801561031e57600080fd5b5061033261032d366004613db9565b610958565b6040519015158152602001610309565b610355610350366004613d5e565b610a00565b005b34801561036357600080fd5b5061036c610a0f565b6040516103099190613e44565b34801561038557600080fd5b5061036c610394366004613e57565b610a62565b3480156103a557600080fd5b506103326103b4366004613d5e565b600760209081526000928352604080842090915290825290205460ff1681565b61040c6103e2366004613eb9565b7f150b7a020000000000000000000000000000000000000000000000000000000095945050505050565b6040517fffffffff000000000000000000000000000000000000000000000000000000009091168152602001610309565b34801561044957600080fd5b50600b54610478906f0100000000000000000000000000000090046effffffffffffffffffffffffffffff1681565b6040516effffffffffffffffffffffffffffff9091168152602001610309565b3480156104a457600080fd5b506104b86104b3366004613d5e565b610be3565b60405173ffffffffffffffffffffffffffffffffffffffff9091168152602001610309565b6103556104eb366004613f6d565b610c2e565b3480156104fc57600080fd5b506102ff6110e8565b34801561051157600080fd5b50610572610520366004614028565b600a60209081526000938452604080852082529284528284209052825290205464ffffffffff8116906501000000000090047affffffffffffffffffffffffffffffffffffffffffffffffffffff1682565b6040805164ffffffffff90931683527affffffffffffffffffffffffffffffffffffffffffffffffffffff909116602083015201610309565b6103556105b936600461405b565b6111fb565b6103556105cc3660046140df565b611641565b3480156105dd57600080fd5b506102ff6105ec366004614028565b61165a565b3480156105fd57600080fd5b5061061161060c36600461411b565b611671565b6040516103099190614187565b61033261062c3660046141da565b6117b8565b61035561063f3660046142a5565b611a6f565b6103556106523660046142d1565b611a82565b6103556106653660046142a5565b611a9f565b34801561067657600080fd5b506102ff61068536600461431c565b60036020526000908152604090205481565b3480156106a357600080fd5b506102ff6106b2366004613d5e565b611ab2565b3480156106c357600080fd5b506102ff6106d2366004614028565b611b98565b6103556106e5366004614337565b611e8f565b6106fd6106f8366004614383565b611ef1565b60405161030991906143c5565b6103556107183660046143ff565b612021565b61073061072b366004614383565b6120b9565b6040516103099190614429565b34801561074957600080fd5b506102ff610758366004613d5e565b600960209081526000928352604080842090915290825290205481565b34801561078157600080fd5b50600b54610478906effffffffffffffffffffffffffffff1681565b61040c6107ab366004613f6d565b7fbc197c810000000000000000000000000000000000000000000000000000000098975050505050505050565b3480156107e457600080fd5b506102ff6107f3366004613e57565b60046020526000908152604090205481565b610355610813366004613e57565b612135565b6103556108263660046144ba565b612235565b34801561083757600080fd5b5061033261084636600461451d565b600160209081526000928352604080842090915290825290205460ff1681565b34801561087257600080fd5b506102ff610881366004613d5e565b612498565b61040c610894366004614547565b7ff23a6e61000000000000000000000000000000000000000000000000000000009695505050505050565b6103556108cd366004614547565b6124a4565b3480156108de57600080fd5b506103326108ed366004613e57565b60056020526000908152604090205460ff1681565b6103556109103660046145bf565b612889565b610355610923366004614028565b612ba0565b34801561093457600080fd5b50610332610943366004613e57565b60066020526000908152604090205460ff1681565b60007fffffffff0000000000000000000000000000000000000000000000000000000082167f150b7a020000000000000000000000000000000000000000000000000000000014806109eb57507fffffffff0000000000000000000000000000000000000000000000000000000082167f4e2312e000000000000000000000000000000000000000000000000000000000145b806109fa57506109fa82612cff565b92915050565b610a0b338383612de0565b5050565b6060367ffffffffffffffffffffffffffffffffffffffffffffffffffffffffffffffffe81013560f01c900335604051602001610a4e91815260200190565b604051602081830303815290604052905090565b6000818152600c60205260409020805460609190610a7f90614614565b80601f0160208091040260200160405190810160405280929190818152602001828054610aab90614614565b8015610af85780601f10610acd57610100808354040283529160200191610af8565b820191906000526020600020905b815481529060010190602001808311610adb57829003601f168201915b505050505090508051600014610b0d57919050565b6040517f0e89341c000000000000000000000000000000000000000000000000000000008152600481018390527f000000000000000000000000000000000000000000000000000000000000000073ffffffffffffffffffffffffffffffffffffffff1690630e89341c90602401600060405180830381865afa158015610b98573d6000803e3d6000fd5b505050506040513d6000823e601f3d9081017fffffffffffffffffffffffffffffffffffffffffffffffffffffffffffffffe01682016040526109fa9190810190614696565b919050565b73ffffffffffffffffffffffffffffffffffffffff80831660009081526008602090815260408083208584529091528120549091168015610c245780610c26565b835b949350505050565b848314610c67576040517fff633a3800000000000000000000000000000000000000000000000000000000815260040160405180910390fd5b3373ffffffffffffffffffffffffffffffffffffffff891614801590610cbe575073ffffffffffffffffffffffffffffffffffffffff8816600090815260016020908152604080832033845290915290205460ff16155b15610cf5576040517fea8e4eb500000000000000000000000000000000000000000000000000000000815260040160405180910390fd5b60008060005b87811015610eec57888882818110610d1557610d15614761565b905060200201359250868682818110610d3057610d30614761565b6000868152600560209081526040909120549102929092013593505060ff16610d85576040517f9cbe235700000000000000000000000000000000000000000000000000000000815260040160405180910390fd5b60008381526006602052604090205460ff1615610e445773ffffffffffffffffffffffffffffffffffffffff8b16600090815260076020908152604080832086845290915290205460ff161580610e0d575073ffffffffffffffffffffffffffffffffffffffff8a16600090815260076020908152604080832086845290915290205460ff16155b15610e44576040517f39218f3b00000000000000000000000000000000000000000000000000000000815260040160405180910390fd5b73ffffffffffffffffffffffffffffffffffffffff8b1660009081526020818152604080832086845290915281208054849290610e829084906147bf565b909155505073ffffffffffffffffffffffffffffffffffffffff8a166000908152602081815260408083208684529091529020805483019055636c4b55468314610ee457610ee4610ed38c85610be3565b610edd8c86610be3565b8585612ec8565b600101610cfb565b508873ffffffffffffffffffffffffffffffffffffffff168a73ffffffffffffffffffffffffffffffffffffffff163373ffffffffffffffffffffffffffffffffffffffff167f4a39dc06d4c0dbc64b70af90fd698a233a518aa5d07e595d983b8c0526c8f7fb8b8b8b8b604051610f67949392919061481d565b60405180910390a473ffffffffffffffffffffffffffffffffffffffff89163b1561108f576040517fbc197c81000000000000000000000000000000000000000000000000000000008082529073ffffffffffffffffffffffffffffffffffffffff8b169063bc197c8190610fee9033908f908e908e908e908e908e908e9060040161488d565b6020604051808303816000875af115801561100d573d6000803e3d6000fd5b505050506040513d601f19601f8201168201806040525081019061103191906148fe565b7fffffffff00000000000000000000000000000000000000000000000000000000161461108a576040517f3da6393100000000000000000000000000000000000000000000000000000000815260040160405180910390fd5b6110dc565b73ffffffffffffffffffffffffffffffffffffffff89166110dc576040517f9c8d2cd200000000000000000000000000000000000000000000000000000000815260040160405180910390fd5b50505050505050505050565b60006005367ffffffffffffffffffffffffffffffffffffffffffffffffffffffffffffffffe81013560f01c9003013546146111f45750604080518082018252600481527f4b6565700000000000000000000000000000000000000000000000000000000060209182015281517f8b73c3c69bb8fe3d512ecc4cf759cc79239f7b179b0ffacaa9a75d522b39400f818301527f21d66785fec14e4da3d76f3866cf99a28f4da49ec8782c3cab7cf79c1b6fa66b818401527fc89efdaa54c0f20c7adf612882df0950f5a951637e0307cdcb4c672f298b8bc660608201524660808201523060a0808301919091528351808303909101815260c0909101909252815191012090565b905090565b5060025490565b600b546f0100000000000000000000000000000090046effffffffffffffffffffffffffffff1615611259576040517fef34ca5c00000000000000000000000000000000000000000000000000000000815260040160405180910390fd5b8061126357600080fd5b8181111561129d576040517f7870f01300000000000000000000000000000000000000000000000000000000815260040160405180910390fd5b83156113b75760005b848110156113b5576113ac8686838181106112c3576112c3614761565b90506020028101906112d5919061491b565b6112e3906020810190614959565b8787848181106112f5576112f5614761565b9050602002810190611307919061491b565b61131890604081019060200161431c565b88888581811061132a5761132a614761565b905060200281019061133c919061491b565b6040013589898681811061135257611352614761565b9050602002810190611364919061491b565b611372906060810190614974565b8080601f01602080910402602001604051908101604052809392919081815260200183838082843760009201919091525061312c92505050565b506001016112a6565b505b6000806000805b858110156114e3578686828181106113d8576113d8614761565b90506020020160208101906113ed919061431c565b92508273ffffffffffffffffffffffffffffffffffffffff168473ffffffffffffffffffffffffffffffffffffffff1610611454576040517fc90c66b500000000000000000000000000000000000000000000000000000000815260040160405180910390fd5b73ffffffffffffffffffffffffffffffffffffffff8316600081815260208181526040808320636c4b554680855292528083208054600190810190915590519697508796958101959481019433927fc3d58168c5ae7397731d063d5bbf3d657854427343f4c083240f7aacaa2d0f62926114d692918252602082015260400190565b60405180910390a46113be565b50636c4b554660005260046020527fec16534cbd522d95a8d304a7b706628849f9d6fcd5d1abf57d513ce9b55ee8a9819055600b80547fffff000000000000000000000000000000ffffffffffffffffffffffffffffff166f010000000000000000000000000000006effffffffffffffffffffffffffffff871602179055611637604080518082018252600481527f4b6565700000000000000000000000000000000000000000000000000000000060209182015281517f8b73c3c69bb8fe3d512ecc4cf759cc79239f7b179b0ffacaa9a75d522b39400f818301527f21d66785fec14e4da3d76f3866cf99a28f4da49ec8782c3cab7cf79c1b6fa66b818401527fc89efdaa54c0f20c7adf612882df0950f5a951637e0307cdcb4c672f298b8bc660608201524660808201523060a0808301919091528351808303909101815260c09091019092528151910120600255565b5050505050505050565b61164961341a565b50611655838383613487565b505050565b6000611667848484611b98565b90505b9392505050565b60608382146116ac576040517fff633a3800000000000000000000000000000000000000000000000000000000815260040160405180910390fd5b8367ffffffffffffffff8111156116c5576116c5614667565b6040519080825280602002602001820160405280156116ee578160200160208202803683370190505b50905060005b848110156117af5760008087878481811061171157611711614761565b9050602002016020810190611726919061431c565b73ffffffffffffffffffffffffffffffffffffffff1673ffffffffffffffffffffffffffffffffffffffff168152602001908152602001600020600085858481811061177457611774614761565b9050602002013581526020019081526020016000205482828151811061179c5761179c614761565b60209081029190910101526001016116f4565b50949350505050565b6000806117c36110e8565b600b54604051611813917f7a41bb8eed3a04b9ccfc055b3e6b3247171ef52d9f9a1242a8f6a4bd2b40ed9e918d918d918d918d918d916effffffffffffffffffffffffffffff1690602001614a43565b6040516020818303038152906040528051906020012060405160200161186b9291907f190100000000000000000000000000000000000000000000000000000000000081526002810192909252602282015260420190565b604080518083037fffffffffffffffffffffffffffffffffffffffffffffffffffffffffffffffe00181528282528051602091820120600b546080850184526000808652928501839052928401829052606084018290529350916f010000000000000000000000000000009091046effffffffffffffffffffffffffffff169060005b82811015611a1c5787878281811061190857611908614761565b90506080020180360381019061191e9190614ab1565b9150600082600001519050611942868285602001518660400151876060015161351f565b73ffffffffffffffffffffffffffffffffffffffff8116600090815260208181526040808320636c4b5546845290915281205490036119ad576040517fc90c66b500000000000000000000000000000000000000000000000000000000815260040160405180910390fd5b8073ffffffffffffffffffffffffffffffffffffffff168573ffffffffffffffffffffffffffffffffffffffff1610611a12576040517fc90c66b500000000000000000000000000000000000000000000000000000000815260040160405180910390fd5b93506001016118ee565b50611a5f8c8c8c8c8c8080601f01602080910402602001604051908101604052809392919081815260200183838082843760009201919091525061312c92505050565b9c9b505050505050505050505050565b611a7761341a565b50610a0b8282613627565b611a8a61341a565b50611a988585858585613697565b5050505050565b611aa761341a565b50610a0b82826138b5565b73ffffffffffffffffffffffffffffffffffffffff82166000908152600960209081526040808320848452909152812054808203611af1576000611b73565b73ffffffffffffffffffffffffffffffffffffffff84166000908152600a6020908152604080832086845282528083207fffffffffffffffffffffffffffffffffffffffffffffffffffffffffffffffff850184529091529020546501000000000090047affffffffffffffffffffffffffffffffffffffffffffffffffffff165b7affffffffffffffffffffffffffffffffffffffffffffffffffffff16949350505050565b6000814211611bd3576040517f2db2ae9900000000000000000000000000000000000000000000000000000000815260040160405180910390fd5b73ffffffffffffffffffffffffffffffffffffffff8416600090815260096020908152604080832086845290915281205490819003611c1657600091505061166a565b73ffffffffffffffffffffffffffffffffffffffff85166000908152600a6020908152604080832087845282528083207fffffffffffffffffffffffffffffffffffffffffffffffffffffffffffffffff850180855292529091205464ffffffffff168410611ce65773ffffffffffffffffffffffffffffffffffffffff86166000908152600a60209081526040808320888452825280832093835292905220546501000000000090047affffffffffffffffffffffffffffffffffffffffffffffffffffff16915061166a9050565b73ffffffffffffffffffffffffffffffffffffffff86166000908152600a60209081526040808320888452825280832083805290915290205464ffffffffff16841015611d385760009250505061166a565b6000815b81811115611e245773ffffffffffffffffffffffffffffffffffffffff88166000908152600a602090815260408083208a8452825280832060028686030485038085529083529281902081518083019092525464ffffffffff8116808352650100000000009091047affffffffffffffffffffffffffffffffffffffffffffffffffffff169282019290925290889003611dfe57602001517affffffffffffffffffffffffffffffffffffffffffffffffffffff16955061166a945050505050565b805164ffffffffff16881115611e1657819350611e1d565b6001820392505b5050611d3c565b5073ffffffffffffffffffffffffffffffffffffffff87166000908152600a60209081526040808320898452825280832093835292905220547affffffffffffffffffffffffffffffffffffffffffffffffffffff6501000000000090910416925050509392505050565b611e9761341a565b506000838152600c60205260409020611eb1828483614b69565b50827f6bb7ff708619ba0610cba295a58592e0451dee2622938c8755667688daf3529b8383604051611ee4929190614c83565b60405180910390a2505050565b6060611efb61341a565b508167ffffffffffffffff811115611f1557611f15614667565b604051908082528060200260200182016040528015611f3e578160200160208202803683370190505b50905060005b8281101561201a57611ff0848483818110611f6157611f61614761565b9050602002810190611f73919061491b565b611f81906020810190614959565b858584818110611f9357611f93614761565b9050602002810190611fa5919061491b565b611fb690604081019060200161431c565b868685818110611fc857611fc8614761565b9050602002810190611fda919061491b565b6040013587878681811061135257611352614761565b82828151811061200257612002614761565b91151560209283029190910190910152600101611f44565b5092915050565b33600081815260016020908152604080832073ffffffffffffffffffffffffffffffffffffffff87168085529083529281902080547fffffffffffffffffffffffffffffffffffffffffffffffffffffffffffffff001686151590811790915590519081529192917f17307eab39ab6107e8899845ad3d59bd9653f200f220920489ca2b5937696c3191015b60405180910390a35050565b606081156109fa5750604051818152602001600582901b808483378101805b825185018035602082018337600080823584305af46120fb573d6000803e3d6000fd5b508083526020830192503d81523d6000602083013e3d01603f0167ffffffffffffffe0168183106120d85760408051919052949350505050565b61213d61341a565b508061214857600080fd5b636c4b554660005260046020527fec16534cbd522d95a8d304a7b706628849f9d6fcd5d1abf57d513ce9b55ee8a9548111156121b0576040517f7870f01300000000000000000000000000000000000000000000000000000000815260040160405180910390fd5b600b80547fffff000000000000000000000000000000ffffffffffffffffffffffffffffff166f010000000000000000000000000000006effffffffffffffffffffffffffffff84160217905560405181815233907fc8bdbc84626c082832bea9ab3c3626d6941b91b2df27cc2f8b621597415e4d869060200160405180910390a250565b8442111561226f576040517fdb5ef3ff00000000000000000000000000000000000000000000000000000000815260040160405180910390fd5b6000600161227b6110e8565b604080517f6cbc5a524b1126d061ad7096b321232bc521d16153a9fd94383ceca0c153e343602082015273ffffffffffffffffffffffffffffffffffffffff8c1691810191909152606081018a90526080810189905260a0810188905260c001604051602081830303815290604052805190602001206040516020016123339291907f190100000000000000000000000000000000000000000000000000000000000081526002810192909252602282015260420190565b604080517fffffffffffffffffffffffffffffffffffffffffffffffffffffffffffffffe08184030181528282528051602091820120600084529083018083525260ff871690820152606081018590526080810184905260a0016020604051602081039080840390855afa1580156123af573d6000803e3d6000fd5b50506040517fffffffffffffffffffffffffffffffffffffffffffffffffffffffffffffffe0015191505073ffffffffffffffffffffffffffffffffffffffff8116612427576040517fc90c66b500000000000000000000000000000000000000000000000000000000815260040160405180910390fd5b73ffffffffffffffffffffffffffffffffffffffff81166000908152600360205260409020805460018101909155871461248d576040517fc90c66b500000000000000000000000000000000000000000000000000000000815260040160405180910390fd5b611637818987612de0565b600061166a8383611ab2565b3373ffffffffffffffffffffffffffffffffffffffff8716148015906124fb575073ffffffffffffffffffffffffffffffffffffffff8616600090815260016020908152604080832033845290915290205460ff16155b15612532576040517fea8e4eb500000000000000000000000000000000000000000000000000000000815260040160405180910390fd5b60008481526005602052604090205460ff1661257a576040517f9cbe235700000000000000000000000000000000000000000000000000000000815260040160405180910390fd5b60008481526006602052604090205460ff16156126395773ffffffffffffffffffffffffffffffffffffffff8616600090815260076020908152604080832087845290915290205460ff161580612602575073ffffffffffffffffffffffffffffffffffffffff8516600090815260076020908152604080832087845290915290205460ff16155b15612639576040517f39218f3b00000000000000000000000000000000000000000000000000000000815260040160405180910390fd5b73ffffffffffffffffffffffffffffffffffffffff8616600090815260208181526040808320878452909152812080548592906126779084906147bf565b909155505073ffffffffffffffffffffffffffffffffffffffff8581166000818152602081815260408083208984528252918290208054880190558151888152908101879052919289169133917fc3d58168c5ae7397731d063d5bbf3d657854427343f4c083240f7aacaa2d0f62910160405180910390a473ffffffffffffffffffffffffffffffffffffffff85163b1561280b576040517ff23a6e61000000000000000000000000000000000000000000000000000000008082529073ffffffffffffffffffffffffffffffffffffffff87169063f23a6e619061276a9033908b908a908a908a908a90600401614c97565b6020604051808303816000875af1158015612789573d6000803e3d6000fd5b505050506040513d601f19601f820116820180604052508101906127ad91906148fe565b7fffffffff000000000000000000000000000000000000000000000000000000001614612806576040517f3da6393100000000000000000000000000000000000000000000000000000000815260040160405180910390fd5b612858565b73ffffffffffffffffffffffffffffffffffffffff8516612858576040517f9c8d2cd200000000000000000000000000000000000000000000000000000000815260040160405180910390fd5b636c4b55468414612881576128816128708786610be3565b61287a8787610be3565b8686612ec8565b505050505050565b834211156128c3576040517fdb5ef3ff00000000000000000000000000000000000000000000000000000000815260040160405180910390fd5b600060016128cf6110e8565b73ffffffffffffffffffffffffffffffffffffffff8a811660008181526003602090815260409182902080546001810190915582517f7bf72c3e57bc00556754c7454ead7d72d1c0e263909e7c643fbc0d1e0f3c3e748184015280840194909452938d1660608401528b1515608084015260a083019390935260c08083018b90528151808403909101815260e0830190915280519201919091207f190100000000000000000000000000000000000000000000000000000000000061010083015261010282019290925261012281019190915261014201604080517fffffffffffffffffffffffffffffffffffffffffffffffffffffffffffffffe08184030181528282528051602091820120600084529083018083525260ff871690820152606081018590526080810184905260a0016020604051602081039080840390855afa158015612a22573d6000803e3d6000fd5b50506040517fffffffffffffffffffffffffffffffffffffffffffffffffffffffffffffffe0015191505073ffffffffffffffffffffffffffffffffffffffff8116612a9a576040517fc90c66b500000000000000000000000000000000000000000000000000000000815260040160405180910390fd5b8773ffffffffffffffffffffffffffffffffffffffff168173ffffffffffffffffffffffffffffffffffffffff1614612aff576040517fc90c66b500000000000000000000000000000000000000000000000000000000815260040160405180910390fd5b73ffffffffffffffffffffffffffffffffffffffff90811660009081526001602090815260408083208a85168085529083529281902080547fffffffffffffffffffffffffffffffffffffffffffffffffffffffffffffff00168a1515908117909155905190815291928a16917f17307eab39ab6107e8899845ad3d59bd9653f200f220920489ca2b5937696c31910160405180910390a350505050505050565b3373ffffffffffffffffffffffffffffffffffffffff841614801590612bf7575073ffffffffffffffffffffffffffffffffffffffff8316600090815260016020908152604080832033845290915290205460ff16155b8015612c085750612c0661341a565b155b15612c3f576040517fea8e4eb500000000000000000000000000000000000000000000000000000000815260040160405180910390fd5b612c4a838383613925565b7fffffffffffffffffffffffffffffffffffffffffffffffffffffffff93b4aaba820161165557636c4b554660005260046020527fec16534cbd522d95a8d304a7b706628849f9d6fcd5d1abf57d513ce9b55ee8a954600b546f0100000000000000000000000000000090046effffffffffffffffffffffffffffff161115611655576040517f7870f01300000000000000000000000000000000000000000000000000000000815260040160405180910390fd5b60007fffffffff0000000000000000000000000000000000000000000000000000000082167f01ffc9a7000000000000000000000000000000000000000000000000000000001480612d9257507fd9b67a26000000000000000000000000000000000000000000000000000000007fffffffff000000000000000000000000000000000000000000000000000000008316145b806109fa5750507fffffffff00000000000000000000000000000000000000000000000000000000167f0e89341c000000000000000000000000000000000000000000000000000000001490565b6000612dec8483610be3565b73ffffffffffffffffffffffffffffffffffffffff858116600081815260086020908152604080832088845282529182902080547fffffffffffffffffffffffff00000000000000000000000000000000000000001689861690811790915591518781529495509093928516927f287e04de574701d97a55bd9ea85b32defecf76a607b8007ee9ae8c126bf7a746910160405180910390a473ffffffffffffffffffffffffffffffffffffffff8416600090815260208181526040808320858452909152902054612ec290829085908590612ec8565b50505050565b8273ffffffffffffffffffffffffffffffffffffffff168473ffffffffffffffffffffffffffffffffffffffff1614158015612f0357508015155b15612ec25773ffffffffffffffffffffffffffffffffffffffff84161561301e5773ffffffffffffffffffffffffffffffffffffffff8416600090815260096020908152604080832085845290915281205490818103612f64576000612fe6565b73ffffffffffffffffffffffffffffffffffffffff86166000908152600a6020908152604080832087845282528083207fffffffffffffffffffffffffffffffffffffffffffffffffffffffffffffffff860184529091529020546501000000000090047affffffffffffffffffffffffffffffffffffffffffffffffffffff165b7affffffffffffffffffffffffffffffffffffffffffffffffffffff16905061301b8685848461301688826147bf565b6139f1565b50505b73ffffffffffffffffffffffffffffffffffffffff831615612ec25773ffffffffffffffffffffffffffffffffffffffff831660009081526009602090815260408083208584529091528120549081810361307a5760006130fc565b73ffffffffffffffffffffffffffffffffffffffff85166000908152600a6020908152604080832087845282528083207fffffffffffffffffffffffffffffffffffffffffffffffffffffffffffffffff860184529091529020546501000000000090047affffffffffffffffffffffffffffffffffffffffffffffffffffff165b7affffffffffffffffffffffffffffffffffffffffffffffffffffff169050612881858584846130168882614ce9565b600b80546effffffffffffffffffffffffffffff808216600101167fffffffffffffffffffffffffffffffffff000000000000000000000000000000909116179055600080856003811115613183576131836149d9565b036132255760008083516020850186885af19050806131ce576040517fd6bed87300000000000000000000000000000000000000000000000000000000815260040160405180910390fd5b8373ffffffffffffffffffffffffffffffffffffffff167ffa3c55dc43f5cfdeb2abee243c63ad490db2fee39fd127076ed9e7afa15ad63886858560405161321893929190614cfc565b60405180910390a2610c26565b6001856003811115613239576132396149d9565b0361328357600080835160208501875af49050806131ce576040517fd6bed87300000000000000000000000000000000000000000000000000000000815260040160405180910390fd5b6002856003811115613297576132976149d9565b0361334d57600082516020840185f0905073ffffffffffffffffffffffffffffffffffffffff81166132f5576040517fd6bed87300000000000000000000000000000000000000000000000000000000815260040160405180910390fd5b8073ffffffffffffffffffffffffffffffffffffffff167ffa3c55dc43f5cfdeb2abee243c63ad490db2fee39fd127076ed9e7afa15ad63887868660405161333f93929190614cfc565b60405180910390a250610c26565b600b5482516000916effffffffffffffffffffffffffffff169081906020860187f5915073ffffffffffffffffffffffffffffffffffffffff82166133be576040517fd6bed87300000000000000000000000000000000000000000000000000000000815260040160405180910390fd5b8173ffffffffffffffffffffffffffffffffffffffff167ffa3c55dc43f5cfdeb2abee243c63ad490db2fee39fd127076ed9e7afa15ad63888878760405161340893929190614cfc565b60405180910390a25050949350505050565b6000613424613c1d565b8061344a575033600090815260208181526040808320833560e01c845290915290205415155b156134555750600190565b6040517fea8e4eb500000000000000000000000000000000000000000000000000000000815260040160405180910390fd5b73ffffffffffffffffffffffffffffffffffffffff8316600081815260076020908152604080832086845282529182902080547fffffffffffffffffffffffffffffffffffffffffffffffffffffffffffffff0016851515908117909155915191825284929133917feddd965981459de97ba24736b7f86682d883ccd91dd7216e944bf3461bd342ac910160405180910390a4505050565b60006040517f7fffffffffffffffffffffffffffffff5d576e7357a4501ddfe92f46681b20a083116135755786600052846020528360405282606052602060406080600060015afa5060006060523d6060035191505b60405273ffffffffffffffffffffffffffffffffffffffff85811690821614612881576000604051631626ba7e60e01b80825288600483015260406024830152604160448301528560648301528460848301528660a48301536020600060a5848b5afa60203d1482600051141616925050508061361e576040517fc90c66b500000000000000000000000000000000000000000000000000000000815260040160405180910390fd5b50505050505050565b60008281526005602090815260409182902080547fffffffffffffffffffffffffffffffffffffffffffffffffffffffffffffff00168415159081179091559151918252839133917f030b8b6f293952c4e53cc2ac59481057844588ce19c7d10ca5468e4d6938f19591016120ad565b600084815260046020526040812080546136c4928692916136b9908490614ce9565b925050819055613c9e565b5073ffffffffffffffffffffffffffffffffffffffff85166000818152602081815260408083208884528252808320805488019055805188815291820187905233917fc3d58168c5ae7397731d063d5bbf3d657854427343f4c083240f7aacaa2d0f62910160405180910390a473ffffffffffffffffffffffffffffffffffffffff85163b1561384e576040517ff23a6e61000000000000000000000000000000000000000000000000000000008082529073ffffffffffffffffffffffffffffffffffffffff87169063f23a6e61906137ad9033906000908a908a908a908a90600401614c97565b6020604051808303816000875af11580156137cc573d6000803e3d6000fd5b505050506040513d601f19601f820116820180604052508101906137f091906148fe565b7fffffffff000000000000000000000000000000000000000000000000000000001614613849576040517f3da6393100000000000000000000000000000000000000000000000000000000815260040160405180910390fd5b61389b565b73ffffffffffffffffffffffffffffffffffffffff851661389b576040517f9c8d2cd200000000000000000000000000000000000000000000000000000000815260040160405180910390fd5b636c4b55468414611a9857611a98600061287a8787610be3565b60008281526006602090815260409182902080547fffffffffffffffffffffffffffffffffffffffffffffffffffffffffffffff00168415159081179091559151918252839133917fe5718fbb4306c0fd3ddee9c0c5459ee4b1a1dc19271ce6bd9447c6938e544af491016120ad565b73ffffffffffffffffffffffffffffffffffffffff8316600090815260208181526040808320858452909152812080548392906139639084906147bf565b9091555050600082815260046020908152604080832080548590039055805185815291820184905273ffffffffffffffffffffffffffffffffffffffff86169133917fc3d58168c5ae7397731d063d5bbf3d657854427343f4c083240f7aacaa2d0f62910160405180910390a4636c4b55468214611655576116556139e88484610be3565b60008484612ec8565b8215801590613a60575073ffffffffffffffffffffffffffffffffffffffff85166000908152600a6020908152604080832087845282528083207fffffffffffffffffffffffffffffffffffffffffffffffffffffffffffffffff8701845290915290205464ffffffffff1642145b15613b0657613a6e81613c9e565b73ffffffffffffffffffffffffffffffffffffffff86166000908152600a6020908152604080832088845282528083207fffffffffffffffffffffffffffffffffffffffffffffffffffffffffffffffff88018452909152902080547affffffffffffffffffffffffffffffffffffffffffffffffffffff92909216650100000000000264ffffffffff909216919091179055613bc3565b6040518060400160405280613b1a42613cf9565b64ffffffffff168152602001613b2f83613c9e565b7affffffffffffffffffffffffffffffffffffffffffffffffffffff90811690915273ffffffffffffffffffffffffffffffffffffffff87166000818152600a602090815260408083208a845282528083208984528252808320865196830151909516650100000000000264ffffffffff909616959095179093559081526009825282812087825290915220805460010190555b6040805183815260208101839052859173ffffffffffffffffffffffffffffffffffffffff8816917f21a99d51b8a0a2e2ead709843a1ecfaab977908135cf1c085c0a6246eea6e0f0910160405180910390a35050505050565b7f0000000000000000000000000000000000000000000000000000000000000000600090815260046020526040812054158015613c5957503330145b806111ef575050336000908152602081815260408083207f00000000000000000000000000000000000000000000000000000000000000008452909152902054151590565b60007b010000000000000000000000000000000000000000000000000000008210613cf5576040517f35278d1200000000000000000000000000000000000000000000000000000000815260040160405180910390fd5b5090565b6000650100000000008210613cf5576040517f35278d1200000000000000000000000000000000000000000000000000000000815260040160405180910390fd5b803573ffffffffffffffffffffffffffffffffffffffff81168114610bde57600080fd5b60008060408385031215613d7157600080fd5b613d7a83613d3a565b946020939093013593505050565b7fffffffff0000000000000000000000000000000000000000000000000000000081168114613db657600080fd5b50565b600060208284031215613dcb57600080fd5b813561166a81613d88565b60005b83811015613df1578181015183820152602001613dd9565b50506000910152565b60008151808452613e12816020860160208601613dd6565b601f017fffffffffffffffffffffffffffffffffffffffffffffffffffffffffffffffe0169290920160200192915050565b60208152600061166a6020830184613dfa565b600060208284031215613e6957600080fd5b5035919050565b60008083601f840112613e8257600080fd5b50813567ffffffffffffffff811115613e9a57600080fd5b602083019150836020828501011115613eb257600080fd5b9250929050565b600080600080600060808688031215613ed157600080fd5b613eda86613d3a565b9450613ee860208701613d3a565b935060408601359250606086013567ffffffffffffffff811115613f0b57600080fd5b613f1788828901613e70565b969995985093965092949392505050565b60008083601f840112613f3a57600080fd5b50813567ffffffffffffffff811115613f5257600080fd5b6020830191508360208260051b8501011115613eb257600080fd5b60008060008060008060008060a0898b031215613f8957600080fd5b613f9289613d3a565b9750613fa060208a01613d3a565b9650604089013567ffffffffffffffff80821115613fbd57600080fd5b613fc98c838d01613f28565b909850965060608b0135915080821115613fe257600080fd5b613fee8c838d01613f28565b909650945060808b013591508082111561400757600080fd5b506140148b828c01613e70565b999c989b5096995094979396929594505050565b60008060006060848603121561403d57600080fd5b61404684613d3a565b95602085013595506040909401359392505050565b60008060008060006060868803121561407357600080fd5b853567ffffffffffffffff8082111561408b57600080fd5b61409789838a01613f28565b909750955060208801359150808211156140b057600080fd5b506140bd88828901613f28565b96999598509660400135949350505050565b80358015158114610bde57600080fd5b6000806000606084860312156140f457600080fd5b6140fd84613d3a565b925060208401359150614112604085016140cf565b90509250925092565b6000806000806040858703121561413157600080fd5b843567ffffffffffffffff8082111561414957600080fd5b61415588838901613f28565b9096509450602087013591508082111561416e57600080fd5b5061417b87828801613f28565b95989497509550505050565b6020808252825182820181905260009190848201906040850190845b818110156141bf578351835292840192918401916001016141a3565b50909695505050505050565b803560048110610bde57600080fd5b600080600080600080600060a0888a0312156141f557600080fd5b6141fe886141cb565b965061420c60208901613d3a565b955060408801359450606088013567ffffffffffffffff8082111561423057600080fd5b61423c8b838c01613e70565b909650945060808a013591508082111561425557600080fd5b818a0191508a601f83011261426957600080fd5b81358181111561427857600080fd5b8b60208260071b850101111561428d57600080fd5b60208301945080935050505092959891949750929550565b600080604083850312156142b857600080fd5b823591506142c8602084016140cf565b90509250929050565b6000806000806000608086880312156142e957600080fd5b6142f286613d3a565b94506020860135935060408601359250606086013567ffffffffffffffff811115613f0b57600080fd5b60006020828403121561432e57600080fd5b61166a82613d3a565b60008060006040848603121561434c57600080fd5b83359250602084013567ffffffffffffffff81111561436a57600080fd5b61437686828701613e70565b9497909650939450505050565b6000806020838503121561439657600080fd5b823567ffffffffffffffff8111156143ad57600080fd5b6143b985828601613f28565b90969095509350505050565b6020808252825182820181905260009190848201906040850190845b818110156141bf5783511515835292840192918401916001016143e1565b6000806040838503121561441257600080fd5b61441b83613d3a565b91506142c8602084016140cf565b6000602080830181845280855180835260408601915060408160051b870101925083870160005b8281101561449c577fffffffffffffffffffffffffffffffffffffffffffffffffffffffffffffffc088860301845261448a858351613dfa565b94509285019290850190600101614450565b5092979650505050505050565b803560ff81168114610bde57600080fd5b600080600080600080600060e0888a0312156144d557600080fd5b6144de88613d3a565b9650602088013595506040880135945060608801359350614501608089016144a9565b925060a0880135915060c0880135905092959891949750929550565b6000806040838503121561453057600080fd5b61453983613d3a565b91506142c860208401613d3a565b60008060008060008060a0878903121561456057600080fd5b61456987613d3a565b955061457760208801613d3a565b94506040870135935060608701359250608087013567ffffffffffffffff8111156145a157600080fd5b6145ad89828a01613e70565b979a9699509497509295939492505050565b600080600080600080600060e0888a0312156145da57600080fd5b6145e388613d3a565b96506145f160208901613d3a565b95506145ff604089016140cf565b945060608801359350614501608089016144a9565b600181811c9082168061462857607f821691505b602082108103614661577f4e487b7100000000000000000000000000000000000000000000000000000000600052602260045260246000fd5b50919050565b7f4e487b7100000000000000000000000000000000000000000000000000000000600052604160045260246000fd5b6000602082840312156146a857600080fd5b815167ffffffffffffffff808211156146c057600080fd5b818401915084601f8301126146d457600080fd5b8151818111156146e6576146e6614667565b604051601f82017fffffffffffffffffffffffffffffffffffffffffffffffffffffffffffffffe0908116603f0116810190838211818310171561472c5761472c614667565b8160405282815287602084870101111561474557600080fd5b614756836020830160208801613dd6565b979650505050505050565b7f4e487b7100000000000000000000000000000000000000000000000000000000600052603260045260246000fd5b7f4e487b7100000000000000000000000000000000000000000000000000000000600052601160045260246000fd5b818103818111156109fa576109fa614790565b81835260007f07ffffffffffffffffffffffffffffffffffffffffffffffffffffffffffffff83111561480457600080fd5b8260051b80836020870137939093016020019392505050565b6040815260006148316040830186886147d2565b82810360208401526147568185876147d2565b8183528181602085013750600060208284010152600060207fffffffffffffffffffffffffffffffffffffffffffffffffffffffffffffffe0601f840116840101905092915050565b600073ffffffffffffffffffffffffffffffffffffffff808b168352808a1660208401525060a060408301526148c760a08301888a6147d2565b82810360608401526148da8187896147d2565b905082810360808401526148ef818587614844565b9b9a5050505050505050505050565b60006020828403121561491057600080fd5b815161166a81613d88565b600082357fffffffffffffffffffffffffffffffffffffffffffffffffffffffffffffff8183360301811261494f57600080fd5b9190910192915050565b60006020828403121561496b57600080fd5b61166a826141cb565b60008083357fffffffffffffffffffffffffffffffffffffffffffffffffffffffffffffffe18436030181126149a957600080fd5b83018035915067ffffffffffffffff8211156149c457600080fd5b602001915036819003821315613eb257600080fd5b7f4e487b7100000000000000000000000000000000000000000000000000000000600052602160045260246000fd5b60048110614a3f577f4e487b7100000000000000000000000000000000000000000000000000000000600052602160045260246000fd5b9052565b878152614a536020820188614a08565b73ffffffffffffffffffffffffffffffffffffffff8616604082015284606082015260c060808201526000614a8c60c083018587614844565b90506effffffffffffffffffffffffffffff831660a083015298975050505050505050565b600060808284031215614ac357600080fd5b6040516080810181811067ffffffffffffffff82111715614ae657614ae6614667565b604052614af283613d3a565b8152614b00602084016144a9565b602082015260408301356040820152606083013560608201528091505092915050565b601f82111561165557600081815260208120601f850160051c81016020861015614b4a5750805b601f850160051c820191505b8181101561288157828155600101614b56565b67ffffffffffffffff831115614b8157614b81614667565b614b9583614b8f8354614614565b83614b23565b6000601f841160018114614be75760008515614bb15750838201355b7fffffffffffffffffffffffffffffffffffffffffffffffffffffffffffffffff600387901b1c1916600186901b178355611a98565b6000838152602090207fffffffffffffffffffffffffffffffffffffffffffffffffffffffffffffffe0861690835b82811015614c365786850135825560209485019460019092019101614c16565b5086821015614c71577fffffffffffffffffffffffffffffffffffffffffffffffffffffffffffffffff60f88860031b161c19848701351681555b505060018560011b0183555050505050565b602081526000611667602083018486614844565b600073ffffffffffffffffffffffffffffffffffffffff808916835280881660208401525085604083015284606083015260a06080830152614cdd60a083018486614844565b98975050505050505050565b808201808211156109fa576109fa614790565b614d068185614a08565b826020820152606060408201526000614d226060830184613dfa565b9594505050505056fea164736f6c6343000811000a",
    "linkReferences": {}
  },
  "methodIdentifiers": {
    "DOMAIN_SEPARATOR()": "3644e515",
    "balanceOf(address,uint256)": "00fdd58e",
    "balanceOfBatch(address[],uint256[])": "4e1273f4",
    "burn(address,uint256,uint256)": "f5298aca",
    "checkpoints(address,uint256,uint256)": "387bbabd",
    "delegate(address,uint256)": "026e402b",
    "delegateBySig(address,uint256,uint256,uint256,uint8,bytes32,bytes32)": "e63a562e",
    "delegates(address,uint256)": "27dd1b00",
    "execute(uint8,address,uint256,bytes,(address,uint8,bytes32,bytes32)[])": "6c4b5546",
    "getCurrentVotes(address,uint256)": "807df56d",
    "getPastVotes(address,uint256,uint256)": "4d6fb775",
    "getPriorVotes(address,uint256,uint256)": "836eebee",
    "getVotes(address,uint256)": "eb9019d4",
    "initialize((uint8,address,uint256,bytes)[],address[],uint256)": "3d30ef47",
    "isApprovedForAll(address,address)": "e985e9c5",
    "mint(address,uint256,uint256,bytes)": "731133e9",
    "multiExecute((uint8,address,uint256,bytes)[])": "8cb18c12",
    "multicall(bytes[])": "ac9650d8",
    "name()": "06fdde03",
    "nonce()": "affed0e0",
    "nonces(address)": "7ecebe00",
    "numCheckpoints(address,uint256)": "afa88bca",
    "onERC1155BatchReceived(address,address,uint256[],uint256[],bytes)": "bc197c81",
    "onERC1155Received(address,address,uint256,uint256,bytes)": "f23a6e61",
    "onERC721Received(address,address,uint256,bytes)": "150b7a02",
    "permissioned(uint256)": "fc95ba43",
    "permit(address,address,bool,uint256,uint8,bytes32,bytes32)": "f51cc7dd",
    "quorum()": "1703a018",
    "safeBatchTransferFrom(address,address,uint256[],uint256[],bytes)": "2eb2c2d6",
    "safeTransferFrom(address,address,uint256,uint256,bytes)": "f242432a",
    "setApprovalForAll(address,bool)": "a22cb465",
    "setPermission(uint256,bool)": "7769ea0b",
    "setQuorum(uint256)": "c1ba4e59",
    "setTransferability(uint256,bool)": "7140d960",
    "setURI(uint256,string)": "862440e2",
    "setUserPermission(address,uint256,bool)": "49e5078c",
    "supportsInterface(bytes4)": "01ffc9a7",
    "totalSupply(uint256)": "bd85b039",
    "transferable(uint256)": "f4c3b4d7",
    "uri(uint256)": "0e89341c",
    "userPermissioned(address,uint256)": "12156691"
  },
  "id": 19
}