{
  "abi": [
    {
      "inputs": [
        {
          "internalType": "contract Keep",
          "name": "_uriFetcher",
          "type": "address"
        }
      ],
      "stateMutability": "payable",
      "type": "constructor"
    },
    {
      "inputs": [],
      "name": "AlreadyInit",
      "type": "error"
    },
    {
      "inputs": [],
      "name": "ExecuteFailed",
      "type": "error"
    },
    {
      "inputs": [],
      "name": "ExpiredSig",
      "type": "error"
    },
    {
      "inputs": [],
      "name": "InvalidRecipient",
      "type": "error"
    },
    {
      "inputs": [],
      "name": "InvalidSig",
      "type": "error"
    },
    {
      "inputs": [],
      "name": "LengthMismatch",
      "type": "error"
    },
    {
      "inputs": [],
      "name": "NonTransferable",
      "type": "error"
    },
    {
      "inputs": [],
      "name": "NotPermitted",
      "type": "error"
    },
    {
      "inputs": [],
      "name": "Overflow",
      "type": "error"
    },
    {
      "inputs": [],
      "name": "QuorumOverSupply",
      "type": "error"
    },
    {
      "inputs": [],
      "name": "Unauthorized",
      "type": "error"
    },
    {
      "inputs": [],
      "name": "Undetermined",
      "type": "error"
    },
    {
      "inputs": [],
      "name": "UnsafeRecipient",
      "type": "error"
    },
    {
      "anonymous": false,
      "inputs": [
        {
          "indexed": true,
          "internalType": "address",
          "name": "owner",
          "type": "address"
        },
        {
          "indexed": true,
          "internalType": "address",
          "name": "operator",
          "type": "address"
        },
        {
          "indexed": false,
          "internalType": "bool",
          "name": "approved",
          "type": "bool"
        }
      ],
      "name": "ApprovalForAll",
      "type": "event"
    },
    {
      "anonymous": false,
      "inputs": [
        {
          "indexed": true,
          "internalType": "address",
          "name": "delegator",
          "type": "address"
        },
        {
          "indexed": true,
          "internalType": "address",
          "name": "fromDelegate",
          "type": "address"
        },
        {
          "indexed": true,
          "internalType": "address",
          "name": "toDelegate",
          "type": "address"
        },
        {
          "indexed": false,
          "internalType": "uint256",
          "name": "id",
          "type": "uint256"
        }
      ],
      "name": "DelegateChanged",
      "type": "event"
    },
    {
      "anonymous": false,
      "inputs": [
        {
          "indexed": true,
          "internalType": "address",
          "name": "delegate",
          "type": "address"
        },
        {
          "indexed": true,
          "internalType": "uint256",
          "name": "id",
          "type": "uint256"
        },
        {
          "indexed": false,
          "internalType": "uint256",
          "name": "previousBalance",
          "type": "uint256"
        },
        {
          "indexed": false,
          "internalType": "uint256",
          "name": "newBalance",
          "type": "uint256"
        }
      ],
      "name": "DelegateVotesChanged",
      "type": "event"
    },
    {
      "anonymous": false,
      "inputs": [
        {
          "indexed": false,
          "internalType": "enum Operation",
          "name": "op",
          "type": "uint8"
        },
        {
          "indexed": true,
          "internalType": "address",
          "name": "to",
          "type": "address"
        },
        {
          "indexed": false,
          "internalType": "uint256",
          "name": "value",
          "type": "uint256"
        },
        {
          "indexed": false,
          "internalType": "bytes",
          "name": "data",
          "type": "bytes"
        }
      ],
      "name": "Executed",
      "type": "event"
    },
    {
      "anonymous": false,
      "inputs": [
        {
          "indexed": true,
          "internalType": "address",
          "name": "operator",
          "type": "address"
        },
        {
          "indexed": true,
          "internalType": "uint256",
          "name": "id",
          "type": "uint256"
        },
        {
          "indexed": false,
          "internalType": "bool",
          "name": "on",
          "type": "bool"
        }
      ],
      "name": "PermissionSet",
      "type": "event"
    },
    {
      "anonymous": false,
      "inputs": [
        {
          "indexed": true,
          "internalType": "address",
          "name": "operator",
          "type": "address"
        },
        {
          "indexed": false,
          "internalType": "uint256",
          "name": "threshold",
          "type": "uint256"
        }
      ],
      "name": "QuorumSet",
      "type": "event"
    },
    {
      "anonymous": false,
      "inputs": [
        {
          "indexed": true,
          "internalType": "address",
          "name": "operator",
          "type": "address"
        },
        {
          "indexed": true,
          "internalType": "address",
          "name": "from",
          "type": "address"
        },
        {
          "indexed": true,
          "internalType": "address",
          "name": "to",
          "type": "address"
        },
        {
          "indexed": false,
          "internalType": "uint256[]",
          "name": "ids",
          "type": "uint256[]"
        },
        {
          "indexed": false,
          "internalType": "uint256[]",
          "name": "amounts",
          "type": "uint256[]"
        }
      ],
      "name": "TransferBatch",
      "type": "event"
    },
    {
      "anonymous": false,
      "inputs": [
        {
          "indexed": true,
          "internalType": "address",
          "name": "operator",
          "type": "address"
        },
        {
          "indexed": true,
          "internalType": "address",
          "name": "from",
          "type": "address"
        },
        {
          "indexed": true,
          "internalType": "address",
          "name": "to",
          "type": "address"
        },
        {
          "indexed": false,
          "internalType": "uint256",
          "name": "id",
          "type": "uint256"
        },
        {
          "indexed": false,
          "internalType": "uint256",
          "name": "amount",
          "type": "uint256"
        }
      ],
      "name": "TransferSingle",
      "type": "event"
    },
    {
      "anonymous": false,
      "inputs": [
        {
          "indexed": true,
          "internalType": "address",
          "name": "operator",
          "type": "address"
        },
        {
          "indexed": true,
          "internalType": "uint256",
          "name": "id",
          "type": "uint256"
        },
        {
          "indexed": false,
          "internalType": "bool",
          "name": "on",
          "type": "bool"
        }
      ],
      "name": "TransferabilitySet",
      "type": "event"
    },
    {
      "anonymous": false,
      "inputs": [
        {
          "indexed": false,
          "internalType": "string",
          "name": "value",
          "type": "string"
        },
        {
          "indexed": true,
          "internalType": "uint256",
          "name": "id",
          "type": "uint256"
        }
      ],
      "name": "URI",
      "type": "event"
    },
    {
      "anonymous": false,
      "inputs": [
        {
          "indexed": true,
          "internalType": "address",
          "name": "operator",
          "type": "address"
        },
        {
          "indexed": true,
          "internalType": "address",
          "name": "to",
          "type": "address"
        },
        {
          "indexed": true,
          "internalType": "uint256",
          "name": "id",
          "type": "uint256"
        },
        {
          "indexed": false,
          "internalType": "bool",
          "name": "on",
          "type": "bool"
        }
      ],
      "name": "UserPermissionSet",
      "type": "event"
    },
    {
      "inputs": [],
      "name": "DOMAIN_SEPARATOR",
      "outputs": [
        {
          "internalType": "bytes32",
          "name": "",
          "type": "bytes32"
        }
      ],
      "stateMutability": "view",
      "type": "function"
    },
    {
      "inputs": [
        {
          "internalType": "address",
          "name": "",
          "type": "address"
        },
        {
          "internalType": "uint256",
          "name": "",
          "type": "uint256"
        }
      ],
      "name": "balanceOf",
      "outputs": [
        {
          "internalType": "uint256",
          "name": "",
          "type": "uint256"
        }
      ],
      "stateMutability": "view",
      "type": "function"
    },
    {
      "inputs": [
        {
          "internalType": "address[]",
          "name": "owners",
          "type": "address[]"
        },
        {
          "internalType": "uint256[]",
          "name": "ids",
          "type": "uint256[]"
        }
      ],
      "name": "balanceOfBatch",
      "outputs": [
        {
          "internalType": "uint256[]",
          "name": "balances",
          "type": "uint256[]"
        }
      ],
      "stateMutability": "view",
      "type": "function"
    },
    {
      "inputs": [
        {
          "internalType": "address",
          "name": "from",
          "type": "address"
        },
        {
          "internalType": "uint256",
          "name": "id",
          "type": "uint256"
        },
        {
          "internalType": "uint256",
          "name": "amount",
          "type": "uint256"
        }
      ],
      "name": "burn",
      "outputs": [],
      "stateMutability": "payable",
      "type": "function"
    },
    {
      "inputs": [
        {
          "internalType": "address",
          "name": "",
          "type": "address"
        },
        {
          "internalType": "uint256",
          "name": "",
          "type": "uint256"
        },
        {
          "internalType": "uint256",
          "name": "",
          "type": "uint256"
        }
      ],
      "name": "checkpoints",
      "outputs": [
        {
          "internalType": "uint40",
          "name": "fromTimestamp",
          "type": "uint40"
        },
        {
          "internalType": "uint216",
          "name": "votes",
          "type": "uint216"
        }
      ],
      "stateMutability": "view",
      "type": "function"
    },
    {
      "inputs": [
        {
          "internalType": "address",
          "name": "delegatee",
          "type": "address"
        },
        {
          "internalType": "uint256",
          "name": "id",
          "type": "uint256"
        }
      ],
      "name": "delegate",
      "outputs": [],
      "stateMutability": "payable",
      "type": "function"
    },
    {
      "inputs": [
        {
          "internalType": "address",
          "name": "delegatee",
          "type": "address"
        },
        {
          "internalType": "uint256",
          "name": "nonce",
          "type": "uint256"
        },
        {
          "internalType": "uint256",
          "name": "deadline",
          "type": "uint256"
        },
        {
          "internalType": "uint256",
          "name": "id",
          "type": "uint256"
        },
        {
          "internalType": "uint8",
          "name": "v",
          "type": "uint8"
        },
        {
          "internalType": "bytes32",
          "name": "r",
          "type": "bytes32"
        },
        {
          "internalType": "bytes32",
          "name": "s",
          "type": "bytes32"
        }
      ],
      "name": "delegateBySig",
      "outputs": [],
      "stateMutability": "payable",
      "type": "function"
    },
    {
      "inputs": [
        {
          "internalType": "address",
          "name": "account",
          "type": "address"
        },
        {
          "internalType": "uint256",
          "name": "id",
          "type": "uint256"
        }
      ],
      "name": "delegates",
      "outputs": [
        {
          "internalType": "address",
          "name": "",
          "type": "address"
        }
      ],
      "stateMutability": "view",
      "type": "function"
    },
    {
      "inputs": [
        {
          "internalType": "enum Operation",
          "name": "op",
          "type": "uint8"
        },
        {
          "internalType": "address",
          "name": "to",
          "type": "address"
        },
        {
          "internalType": "uint256",
          "name": "value",
          "type": "uint256"
        },
        {
          "internalType": "bytes",
          "name": "data",
          "type": "bytes"
        },
        {
          "components": [
            {
              "internalType": "address",
              "name": "user",
              "type": "address"
            },
            {
              "internalType": "uint8",
              "name": "v",
              "type": "uint8"
            },
            {
              "internalType": "bytes32",
              "name": "r",
              "type": "bytes32"
            },
            {
              "internalType": "bytes32",
              "name": "s",
              "type": "bytes32"
            }
          ],
          "internalType": "struct Signature[]",
          "name": "sigs",
          "type": "tuple[]"
        }
      ],
      "name": "execute",
      "outputs": [
        {
          "internalType": "bool",
          "name": "success",
          "type": "bool"
        }
      ],
      "stateMutability": "payable",
      "type": "function"
    },
    {
      "inputs": [
        {
          "internalType": "address",
          "name": "account",
          "type": "address"
        },
        {
          "internalType": "uint256",
          "name": "id",
          "type": "uint256"
        }
      ],
      "name": "getCurrentVotes",
      "outputs": [
        {
          "internalType": "uint256",
          "name": "",
          "type": "uint256"
        }
      ],
      "stateMutability": "view",
      "type": "function"
    },
    {
      "inputs": [
        {
          "internalType": "address",
          "name": "account",
          "type": "address"
        },
        {
          "internalType": "uint256",
          "name": "id",
          "type": "uint256"
        },
        {
          "internalType": "uint256",
          "name": "timestamp",
          "type": "uint256"
        }
      ],
      "name": "getPastVotes",
      "outputs": [
        {
          "internalType": "uint256",
          "name": "",
          "type": "uint256"
        }
      ],
      "stateMutability": "view",
      "type": "function"
    },
    {
      "inputs": [
        {
          "internalType": "address",
          "name": "account",
          "type": "address"
        },
        {
          "internalType": "uint256",
          "name": "id",
          "type": "uint256"
        },
        {
          "internalType": "uint256",
          "name": "timestamp",
          "type": "uint256"
        }
      ],
      "name": "getPriorVotes",
      "outputs": [
        {
          "internalType": "uint256",
          "name": "",
          "type": "uint256"
        }
      ],
      "stateMutability": "view",
      "type": "function"
    },
    {
      "inputs": [
        {
          "internalType": "address",
          "name": "account",
          "type": "address"
        },
        {
          "internalType": "uint256",
          "name": "id",
          "type": "uint256"
        }
      ],
      "name": "getVotes",
      "outputs": [
        {
          "internalType": "uint256",
          "name": "",
          "type": "uint256"
        }
      ],
      "stateMutability": "view",
      "type": "function"
    },
    {
      "inputs": [
        {
          "components": [
            {
              "internalType": "enum Operation",
              "name": "op",
              "type": "uint8"
            },
            {
              "internalType": "address",
              "name": "to",
              "type": "address"
            },
            {
              "internalType": "uint256",
              "name": "value",
              "type": "uint256"
            },
            {
              "internalType": "bytes",
              "name": "data",
              "type": "bytes"
            }
          ],
          "internalType": "struct Call[]",
          "name": "calls",
          "type": "tuple[]"
        },
        {
          "internalType": "address[]",
          "name": "signers",
          "type": "address[]"
        },
        {
          "internalType": "uint256",
          "name": "threshold",
          "type": "uint256"
        }
      ],
      "name": "initialize",
      "outputs": [],
      "stateMutability": "payable",
      "type": "function"
    },
    {
      "inputs": [
        {
          "internalType": "address",
          "name": "",
          "type": "address"
        },
        {
          "internalType": "address",
          "name": "",
          "type": "address"
        }
      ],
      "name": "isApprovedForAll",
      "outputs": [
        {
          "internalType": "bool",
          "name": "",
          "type": "bool"
        }
      ],
      "stateMutability": "view",
      "type": "function"
    },
    {
      "inputs": [
        {
          "internalType": "address",
          "name": "to",
          "type": "address"
        },
        {
          "internalType": "uint256",
          "name": "id",
          "type": "uint256"
        },
        {
          "internalType": "uint256",
          "name": "amount",
          "type": "uint256"
        },
        {
          "internalType": "bytes",
          "name": "data",
          "type": "bytes"
        }
      ],
      "name": "mint",
      "outputs": [],
      "stateMutability": "payable",
      "type": "function"
    },
    {
      "inputs": [
        {
          "components": [
            {
              "internalType": "enum Operation",
              "name": "op",
              "type": "uint8"
            },
            {
              "internalType": "address",
              "name": "to",
              "type": "address"
            },
            {
              "internalType": "uint256",
              "name": "value",
              "type": "uint256"
            },
            {
              "internalType": "bytes",
              "name": "data",
              "type": "bytes"
            }
          ],
          "internalType": "struct Call[]",
          "name": "calls",
          "type": "tuple[]"
        }
      ],
      "name": "multiExecute",
      "outputs": [
        {
          "internalType": "bool[]",
          "name": "successes",
          "type": "bool[]"
        }
      ],
      "stateMutability": "payable",
      "type": "function"
    },
    {
      "inputs": [
        {
          "internalType": "bytes[]",
          "name": "data",
          "type": "bytes[]"
        }
      ],
      "name": "multicall",
      "outputs": [
        {
          "internalType": "bytes[]",
          "name": "results",
          "type": "bytes[]"
        }
      ],
      "stateMutability": "payable",
      "type": "function"
    },
    {
      "inputs": [],
      "name": "name",
      "outputs": [
        {
          "internalType": "string",
          "name": "",
          "type": "string"
        }
      ],
      "stateMutability": "pure",
      "type": "function"
    },
    {
      "inputs": [],
      "name": "nonce",
      "outputs": [
        {
          "internalType": "uint120",
          "name": "",
          "type": "uint120"
        }
      ],
      "stateMutability": "view",
      "type": "function"
    },
    {
      "inputs": [
        {
          "internalType": "address",
          "name": "",
          "type": "address"
        }
      ],
      "name": "nonces",
      "outputs": [
        {
          "internalType": "uint256",
          "name": "",
          "type": "uint256"
        }
      ],
      "stateMutability": "view",
      "type": "function"
    },
    {
      "inputs": [
        {
          "internalType": "address",
          "name": "",
          "type": "address"
        },
        {
          "internalType": "uint256",
          "name": "",
          "type": "uint256"
        }
      ],
      "name": "numCheckpoints",
      "outputs": [
        {
          "internalType": "uint256",
          "name": "",
          "type": "uint256"
        }
      ],
      "stateMutability": "view",
      "type": "function"
    },
    {
      "inputs": [
        {
          "internalType": "address",
          "name": "",
          "type": "address"
        },
        {
          "internalType": "address",
          "name": "",
          "type": "address"
        },
        {
          "internalType": "uint256[]",
          "name": "",
          "type": "uint256[]"
        },
        {
          "internalType": "uint256[]",
          "name": "",
          "type": "uint256[]"
        },
        {
          "internalType": "bytes",
          "name": "",
          "type": "bytes"
        }
      ],
      "name": "onERC1155BatchReceived",
      "outputs": [
        {
          "internalType": "bytes4",
          "name": "",
          "type": "bytes4"
        }
      ],
      "stateMutability": "payable",
      "type": "function"
    },
    {
      "inputs": [
        {
          "internalType": "address",
          "name": "",
          "type": "address"
        },
        {
          "internalType": "address",
          "name": "",
          "type": "address"
        },
        {
          "internalType": "uint256",
          "name": "",
          "type": "uint256"
        },
        {
          "internalType": "uint256",
          "name": "",
          "type": "uint256"
        },
        {
          "internalType": "bytes",
          "name": "",
          "type": "bytes"
        }
      ],
      "name": "onERC1155Received",
      "outputs": [
        {
          "internalType": "bytes4",
          "name": "",
          "type": "bytes4"
        }
      ],
      "stateMutability": "payable",
      "type": "function"
    },
    {
      "inputs": [
        {
          "internalType": "address",
          "name": "",
          "type": "address"
        },
        {
          "internalType": "address",
          "name": "",
          "type": "address"
        },
        {
          "internalType": "uint256",
          "name": "",
          "type": "uint256"
        },
        {
          "internalType": "bytes",
          "name": "",
          "type": "bytes"
        }
      ],
      "name": "onERC721Received",
      "outputs": [
        {
          "internalType": "bytes4",
          "name": "",
          "type": "bytes4"
        }
      ],
      "stateMutability": "payable",
      "type": "function"
    },
    {
      "inputs": [
        {
          "internalType": "uint256",
          "name": "",
          "type": "uint256"
        }
      ],
      "name": "permissioned",
      "outputs": [
        {
          "internalType": "bool",
          "name": "",
          "type": "bool"
        }
      ],
      "stateMutability": "view",
      "type": "function"
    },
    {
      "inputs": [
        {
          "internalType": "address",
          "name": "owner",
          "type": "address"
        },
        {
          "internalType": "address",
          "name": "operator",
          "type": "address"
        },
        {
          "internalType": "bool",
          "name": "approved",
          "type": "bool"
        },
        {
          "internalType": "uint256",
          "name": "deadline",
          "type": "uint256"
        },
        {
          "internalType": "uint8",
          "name": "v",
          "type": "uint8"
        },
        {
          "internalType": "bytes32",
          "name": "r",
          "type": "bytes32"
        },
        {
          "internalType": "bytes32",
          "name": "s",
          "type": "bytes32"
        }
      ],
      "name": "permit",
      "outputs": [],
      "stateMutability": "payable",
      "type": "function"
    },
    {
      "inputs": [],
      "name": "quorum",
      "outputs": [
        {
          "internalType": "uint120",
          "name": "",
          "type": "uint120"
        }
      ],
      "stateMutability": "view",
      "type": "function"
    },
    {
      "inputs": [
        {
          "internalType": "address",
          "name": "from",
          "type": "address"
        },
        {
          "internalType": "address",
          "name": "to",
          "type": "address"
        },
        {
          "internalType": "uint256[]",
          "name": "ids",
          "type": "uint256[]"
        },
        {
          "internalType": "uint256[]",
          "name": "amounts",
          "type": "uint256[]"
        },
        {
          "internalType": "bytes",
          "name": "data",
          "type": "bytes"
        }
      ],
      "name": "safeBatchTransferFrom",
      "outputs": [],
      "stateMutability": "payable",
      "type": "function"
    },
    {
      "inputs": [
        {
          "internalType": "address",
          "name": "from",
          "type": "address"
        },
        {
          "internalType": "address",
          "name": "to",
          "type": "address"
        },
        {
          "internalType": "uint256",
          "name": "id",
          "type": "uint256"
        },
        {
          "internalType": "uint256",
          "name": "amount",
          "type": "uint256"
        },
        {
          "internalType": "bytes",
          "name": "data",
          "type": "bytes"
        }
      ],
      "name": "safeTransferFrom",
      "outputs": [],
      "stateMutability": "payable",
      "type": "function"
    },
    {
      "inputs": [
        {
          "internalType": "address",
          "name": "operator",
          "type": "address"
        },
        {
          "internalType": "bool",
          "name": "approved",
          "type": "bool"
        }
      ],
      "name": "setApprovalForAll",
      "outputs": [],
      "stateMutability": "payable",
      "type": "function"
    },
    {
      "inputs": [
        {
          "internalType": "uint256",
          "name": "id",
          "type": "uint256"
        },
        {
          "internalType": "bool",
          "name": "on",
          "type": "bool"
        }
      ],
      "name": "setPermission",
      "outputs": [],
      "stateMutability": "payable",
      "type": "function"
    },
    {
      "inputs": [
        {
          "internalType": "uint256",
          "name": "threshold",
          "type": "uint256"
        }
      ],
      "name": "setQuorum",
      "outputs": [],
      "stateMutability": "payable",
      "type": "function"
    },
    {
      "inputs": [
        {
          "internalType": "uint256",
          "name": "id",
          "type": "uint256"
        },
        {
          "internalType": "bool",
          "name": "on",
          "type": "bool"
        }
      ],
      "name": "setTransferability",
      "outputs": [],
      "stateMutability": "payable",
      "type": "function"
    },
    {
      "inputs": [
        {
          "internalType": "uint256",
          "name": "id",
          "type": "uint256"
        },
        {
          "internalType": "string",
          "name": "tokenURI",
          "type": "string"
        }
      ],
      "name": "setURI",
      "outputs": [],
      "stateMutability": "payable",
      "type": "function"
    },
    {
      "inputs": [
        {
          "internalType": "address",
          "name": "to",
          "type": "address"
        },
        {
          "internalType": "uint256",
          "name": "id",
          "type": "uint256"
        },
        {
          "internalType": "bool",
          "name": "on",
          "type": "bool"
        }
      ],
      "name": "setUserPermission",
      "outputs": [],
      "stateMutability": "payable",
      "type": "function"
    },
    {
      "inputs": [
        {
          "internalType": "bytes4",
          "name": "interfaceId",
          "type": "bytes4"
        }
      ],
      "name": "supportsInterface",
      "outputs": [
        {
          "internalType": "bool",
          "name": "",
          "type": "bool"
        }
      ],
      "stateMutability": "view",
      "type": "function"
    },
    {
      "inputs": [
        {
          "internalType": "uint256",
          "name": "",
          "type": "uint256"
        }
      ],
      "name": "totalSupply",
      "outputs": [
        {
          "internalType": "uint256",
          "name": "",
          "type": "uint256"
        }
      ],
      "stateMutability": "view",
      "type": "function"
    },
    {
      "inputs": [
        {
          "internalType": "uint256",
          "name": "",
          "type": "uint256"
        }
      ],
      "name": "transferable",
      "outputs": [
        {
          "internalType": "bool",
          "name": "",
          "type": "bool"
        }
      ],
      "stateMutability": "view",
      "type": "function"
    },
    {
      "inputs": [
        {
          "internalType": "uint256",
          "name": "id",
          "type": "uint256"
        }
      ],
      "name": "uri",
      "outputs": [
        {
          "internalType": "string",
          "name": "",
          "type": "string"
        }
      ],
      "stateMutability": "view",
      "type": "function"
    },
    {
      "inputs": [
        {
          "internalType": "address",
          "name": "",
          "type": "address"
        },
        {
          "internalType": "uint256",
          "name": "",
          "type": "uint256"
        }
      ],
      "name": "userPermissioned",
      "outputs": [
        {
          "internalType": "bool",
          "name": "",
          "type": "bool"
        }
      ],
      "stateMutability": "view",
      "type": "function"
    }
  ],
  "bytecode": {
    "object": "0x60c06040819052633bdb913a60805262004ecd388190039081908339810160408190526200002d916200003f565b6001600160a01b031660a05262000071565b6000602082840312156200005257600080fd5b81516001600160a01b03811681146200006a57600080fd5b9392505050565b60805160a051614e2f6200009e6000396000610b3e015260008181613d170152613d6a0152614e2f6000f3fe6080604052600436106102c55760003560e01c80637ecebe0011610179578063bd85b039116100d6578063f23a6e611161008a578063f51cc7dd11610064578063f51cc7dd14610902578063f5298aca14610915578063fc95ba431461092857600080fd5b8063f23a6e6114610886578063f242432a146108bf578063f4c3b4d7146108d257600080fd5b8063e63a562e116100bb578063e63a562e14610818578063e985e9c51461082b578063eb9019d41461086657600080fd5b8063bd85b039146107d8578063c1ba4e591461080557600080fd5b8063a22cb4651161012d578063afa88bca11610112578063afa88bca1461073d578063affed0e014610775578063bc197c811461079d57600080fd5b8063a22cb4651461070a578063ac9650d81461071d57600080fd5b8063836eebee1161015e578063836eebee146106b7578063862440e2146106d75780638cb18c12146106ea57600080fd5b80637ecebe001461066a578063807df56d1461069757600080fd5b80633644e515116102275780634e1273f4116101db5780637140d960116101c05780637140d96014610631578063731133e9146106445780637769ea0b1461065757600080fd5b80634e1273f4146105f15780636c4b55461461061e57600080fd5b80633d30ef471161020c5780633d30ef47146105ab57806349e5078c146105be5780634d6fb775146105d157600080fd5b80633644e515146104f0578063387bbabd1461050557600080fd5b8063121566911161027e5780631703a018116102635780631703a0181461043d57806327dd1b00146104985780632eb2c2d6146104dd57600080fd5b80631215669114610399578063150b7a02146103d457600080fd5b8063026e402b116102af578063026e402b1461034257806306fdde03146103575780630e89341c1461037957600080fd5b8062fdd58e146102ca57806301ffc9a714610312575b600080fd5b3480156102d657600080fd5b506102ff6102e5366004613e5b565b600060208181529281526040808220909352908152205481565b6040519081526020015b60405180910390f35b34801561031e57600080fd5b5061033261032d366004613eb6565b610958565b6040519015158152602001610309565b610355610350366004613e5b565b610a00565b005b34801561036357600080fd5b5061036c610a0f565b6040516103099190613f41565b34801561038557600080fd5b5061036c610394366004613f54565b610a62565b3480156103a557600080fd5b506103326103b4366004613e5b565b600760209081526000928352604080842090915290825290205460ff1681565b61040c6103e2366004613fb6565b7f150b7a020000000000000000000000000000000000000000000000000000000095945050505050565b6040517fffffffff000000000000000000000000000000000000000000000000000000009091168152602001610309565b34801561044957600080fd5b50600b54610478906f0100000000000000000000000000000090046effffffffffffffffffffffffffffff1681565b6040516effffffffffffffffffffffffffffff9091168152602001610309565b3480156104a457600080fd5b506104b86104b3366004613e5b565b610bed565b60405173ffffffffffffffffffffffffffffffffffffffff9091168152602001610309565b6103556104eb36600461406a565b610c38565b3480156104fc57600080fd5b506102ff61115d565b34801561051157600080fd5b50610572610520366004614125565b600a60209081526000938452604080852082529284528284209052825290205464ffffffffff8116906501000000000090047affffffffffffffffffffffffffffffffffffffffffffffffffffff1682565b6040805164ffffffffff90931683527affffffffffffffffffffffffffffffffffffffffffffffffffffff909116602083015201610309565b6103556105b9366004614158565b611247565b6103556105cc3660046141dc565b6115c0565b3480156105dd57600080fd5b506102ff6105ec366004614125565b6115d9565b3480156105fd57600080fd5b5061061161060c366004614218565b6115e6565b6040516103099190614284565b61033261062c3660046142d7565b61172d565b61035561063f3660046143a2565b6119e4565b6103556106523660046143ce565b6119f7565b6103556106653660046143a2565b611a14565b34801561067657600080fd5b506102ff610685366004614419565b60036020526000908152604090205481565b3480156106a357600080fd5b506102ff6106b2366004613e5b565b611a27565b3480156106c357600080fd5b506102ff6106d2366004614125565b611b0d565b6103556106e5366004614434565b611e04565b6106fd6106f8366004614480565b611e66565b60405161030991906144c2565b6103556107183660046144fc565b611f96565b61073061072b366004614480565b61202e565b6040516103099190614526565b34801561074957600080fd5b506102ff610758366004613e5b565b600960209081526000928352604080842090915290825290205481565b34801561078157600080fd5b50600b54610478906effffffffffffffffffffffffffffff1681565b61040c6107ab36600461406a565b7fbc197c810000000000000000000000000000000000000000000000000000000098975050505050505050565b3480156107e457600080fd5b506102ff6107f3366004613f54565b60046020526000908152604090205481565b610355610813366004613f54565b6120aa565b6103556108263660046145b7565b6121aa565b34801561083757600080fd5b5061033261084636600461461a565b600160209081526000928352604080842090915290825290205460ff1681565b34801561087257600080fd5b506102ff610881366004613e5b565b61240d565b61040c610894366004614644565b7ff23a6e61000000000000000000000000000000000000000000000000000000009695505050505050565b6103556108cd366004614644565b612419565b3480156108de57600080fd5b506103326108ed366004613f54565b60056020526000908152604090205460ff1681565b6103556109103660046146bc565b612869565b610355610923366004614125565b612b80565b34801561093457600080fd5b50610332610943366004613f54565b60066020526000908152604090205460ff1681565b60007fffffffff0000000000000000000000000000000000000000000000000000000082167f150b7a020000000000000000000000000000000000000000000000000000000014806109eb57507fffffffff0000000000000000000000000000000000000000000000000000000082167f4e2312e000000000000000000000000000000000000000000000000000000000145b806109fa57506109fa82612cdf565b92915050565b610a0b338383612dc0565b5050565b6060367ffffffffffffffffffffffffffffffffffffffffffffffffffffffffffffffffe81013560f01c900335604051602001610a4e91815260200190565b604051602081830303815290604052905090565b6000818152600c6020526040812080546060929190610a8090614711565b80601f0160208091040260200160405190810160405280929190818152602001828054610aac90614711565b8015610af95780601f10610ace57610100808354040283529160200191610af9565b820191906000526020600020905b815481529060010190602001808311610adc57829003601f168201915b505050505090508051600014610b0f5792915050565b6040517f0e89341c000000000000000000000000000000000000000000000000000000008152600481018490527f000000000000000000000000000000000000000000000000000000000000000073ffffffffffffffffffffffffffffffffffffffff1690630e89341c90602401600060405180830381865afa158015610b9a573d6000803e3d6000fd5b505050506040513d6000823e601f3d9081017fffffffffffffffffffffffffffffffffffffffffffffffffffffffffffffffe0168201604052610be0919081019061478d565b9392505050565b50919050565b73ffffffffffffffffffffffffffffffffffffffff80831660009081526008602090815260408083208584529091528120549091168015610c2e5780610c30565b835b949350505050565b848314610c71576040517fff633a3800000000000000000000000000000000000000000000000000000000815260040160405180910390fd5b3373ffffffffffffffffffffffffffffffffffffffff891614801590610cc8575073ffffffffffffffffffffffffffffffffffffffff8816600090815260016020908152604080832033845290915290205460ff16155b15610cff576040517f82b4290000000000000000000000000000000000000000000000000000000000815260040160405180910390fd5b60008060005b87811015610f6157888882818110610d1f57610d1f614858565b905060200201359250868682818110610d3a57610d3a614858565b6000868152600560209081526040909120549102929092013593505060ff16610d8f576040517f9cbe235700000000000000000000000000000000000000000000000000000000815260040160405180910390fd5b60008381526006602052604090205460ff1615610e4e5773ffffffffffffffffffffffffffffffffffffffff8b16600090815260076020908152604080832086845290915290205460ff161580610e17575073ffffffffffffffffffffffffffffffffffffffff8a16600090815260076020908152604080832086845290915290205460ff16155b15610e4e576040517f39218f3b00000000000000000000000000000000000000000000000000000000815260040160405180910390fd5b636c4b55468314610e7c57610e77610e668c85610bed565b610e708c86610bed565b8585612ea8565b610ee2565b73ffffffffffffffffffffffffffffffffffffffff8a1660009081526020818152604080832086845290915290205415610ee2576040517f35278d1200000000000000000000000000000000000000000000000000000000815260040160405180910390fd5b73ffffffffffffffffffffffffffffffffffffffff8b1660009081526020818152604080832086845290915281208054849290610f209084906148b6565b909155505073ffffffffffffffffffffffffffffffffffffffff8a166000908152602081815260408083208684529091529020805483019055600101610d05565b508873ffffffffffffffffffffffffffffffffffffffff168a73ffffffffffffffffffffffffffffffffffffffff163373ffffffffffffffffffffffffffffffffffffffff167f4a39dc06d4c0dbc64b70af90fd698a233a518aa5d07e595d983b8c0526c8f7fb8b8b8b8b604051610fdc9493929190614914565b60405180910390a473ffffffffffffffffffffffffffffffffffffffff89163b15611104576040517fbc197c81000000000000000000000000000000000000000000000000000000008082529073ffffffffffffffffffffffffffffffffffffffff8b169063bc197c81906110639033908f908e908e908e908e908e908e90600401614984565b6020604051808303816000875af1158015611082573d6000803e3d6000fd5b505050506040513d601f19601f820116820180604052508101906110a691906149f5565b7fffffffff0000000000000000000000000000000000000000000000000000000016146110ff576040517f3da6393100000000000000000000000000000000000000000000000000000000815260040160405180910390fd5b611151565b73ffffffffffffffffffffffffffffffffffffffff8916611151576040517f9c8d2cd200000000000000000000000000000000000000000000000000000000815260040160405180910390fd5b50505050505050505050565b60006005367ffffffffffffffffffffffffffffffffffffffffffffffffffffffffffffffffe81013560f01c9003013546146112405761123b604080517f8b73c3c69bb8fe3d512ecc4cf759cc79239f7b179b0ffacaa9a75d522b39400f60208201527f21d66785fec14e4da3d76f3866cf99a28f4da49ec8782c3cab7cf79c1b6fa66b918101919091527fc89efdaa54c0f20c7adf612882df0950f5a951637e0307cdcb4c672f298b8bc660608201524660808201523060a082015260009060c00160405160208183030381529060405280519060200120905090565b905090565b5060025490565b600b546f0100000000000000000000000000000090046effffffffffffffffffffffffffffff16156112a5576040517fef34ca5c00000000000000000000000000000000000000000000000000000000815260040160405180910390fd5b806112af57600080fd5b818111156112e9576040517f7870f01300000000000000000000000000000000000000000000000000000000815260040160405180910390fd5b83156114035760005b84811015611401576113f886868381811061130f5761130f614858565b90506020028101906113219190614a12565b61132f906020810190614a50565b87878481811061134157611341614858565b90506020028101906113539190614a12565b611364906040810190602001614419565b88888581811061137657611376614858565b90506020028101906113889190614a12565b6040013589898681811061139e5761139e614858565b90506020028101906113b09190614a12565b6113be906060810190614a6b565b8080601f01602080910402602001604051908101604052809392919081815260200183838082843760009201919091525061310c92505050565b506001016112f2565b505b6000806000805b8581101561152f5786868281811061142457611424614858565b90506020020160208101906114399190614419565b92508273ffffffffffffffffffffffffffffffffffffffff168473ffffffffffffffffffffffffffffffffffffffff16106114a0576040517fc90c66b500000000000000000000000000000000000000000000000000000000815260040160405180910390fd5b73ffffffffffffffffffffffffffffffffffffffff8316600081815260208181526040808320636c4b554680855292528083208054600190810190915590519697508796958101959481019433927fc3d58168c5ae7397731d063d5bbf3d657854427343f4c083240f7aacaa2d0f629261152292918252602082015260400190565b60405180910390a461140a565b50636c4b554660005260046020527fec16534cbd522d95a8d304a7b706628849f9d6fcd5d1abf57d513ce9b55ee8a9819055600b80547fffff000000000000000000000000000000ffffffffffffffffffffffffffffff166f010000000000000000000000000000006effffffffffffffffffffffffffffff8716021790556115b66133fa565b5050505050505050565b6115c86134a7565b506115d4838383613514565b505050565b6000610c30848484611b0d565b6060838214611621576040517fff633a3800000000000000000000000000000000000000000000000000000000815260040160405180910390fd5b8367ffffffffffffffff81111561163a5761163a61475e565b604051908082528060200260200182016040528015611663578160200160208202803683370190505b50905060005b848110156117245760008087878481811061168657611686614858565b905060200201602081019061169b9190614419565b73ffffffffffffffffffffffffffffffffffffffff1673ffffffffffffffffffffffffffffffffffffffff16815260200190815260200160002060008585848181106116e9576116e9614858565b9050602002013581526020019081526020016000205482828151811061171157611711614858565b6020908102919091010152600101611669565b50949350505050565b60008061173861115d565b600b54604051611788917fc3d9a1db1c6b05560967aeffcdc5f31bcbcea83405996ee1af3e36ce7b6ea345918d918d918d918d918d916effffffffffffffffffffffffffffff1690602001614b3a565b604051602081830303815290604052805190602001206040516020016117e09291907f190100000000000000000000000000000000000000000000000000000000000081526002810192909252602282015260420190565b604080518083037fffffffffffffffffffffffffffffffffffffffffffffffffffffffffffffffe00181528282528051602091820120600b546080850184526000808652928501839052928401829052606084018290529350916f010000000000000000000000000000009091046effffffffffffffffffffffffffffff169060005b828110156119915787878281811061187d5761187d614858565b9050608002018036038101906118939190614ba8565b91506000826000015190506118b786828560200151866040015187606001516135ac565b73ffffffffffffffffffffffffffffffffffffffff8116600090815260208181526040808320636c4b554684529091528120549003611922576040517fc90c66b500000000000000000000000000000000000000000000000000000000815260040160405180910390fd5b8073ffffffffffffffffffffffffffffffffffffffff168573ffffffffffffffffffffffffffffffffffffffff1610611987576040517fc90c66b500000000000000000000000000000000000000000000000000000000815260040160405180910390fd5b9350600101611863565b506119d48c8c8c8c8c8080601f01602080910402602001604051908101604052809392919081815260200183838082843760009201919091525061310c92505050565b9c9b505050505050505050505050565b6119ec6134a7565b50610a0b82826136b4565b6119ff6134a7565b50611a0d8585858585613724565b5050505050565b611a1c6134a7565b50610a0b82826139ad565b73ffffffffffffffffffffffffffffffffffffffff82166000908152600960209081526040808320848452909152812054808203611a66576000611ae8565b73ffffffffffffffffffffffffffffffffffffffff84166000908152600a6020908152604080832086845282528083207fffffffffffffffffffffffffffffffffffffffffffffffffffffffffffffffff850184529091529020546501000000000090047affffffffffffffffffffffffffffffffffffffffffffffffffffff165b7affffffffffffffffffffffffffffffffffffffffffffffffffffff16949350505050565b6000814211611b48576040517f2db2ae9900000000000000000000000000000000000000000000000000000000815260040160405180910390fd5b73ffffffffffffffffffffffffffffffffffffffff8416600090815260096020908152604080832086845290915281205490819003611b8b576000915050610be0565b73ffffffffffffffffffffffffffffffffffffffff85166000908152600a6020908152604080832087845282528083207fffffffffffffffffffffffffffffffffffffffffffffffffffffffffffffffff850180855292529091205464ffffffffff168410611c5b5773ffffffffffffffffffffffffffffffffffffffff86166000908152600a60209081526040808320888452825280832093835292905220546501000000000090047affffffffffffffffffffffffffffffffffffffffffffffffffffff169150610be09050565b73ffffffffffffffffffffffffffffffffffffffff86166000908152600a60209081526040808320888452825280832083805290915290205464ffffffffff16841015611cad57600092505050610be0565b6000815b81811115611d995773ffffffffffffffffffffffffffffffffffffffff88166000908152600a602090815260408083208a8452825280832060028686030485038085529083529281902081518083019092525464ffffffffff8116808352650100000000009091047affffffffffffffffffffffffffffffffffffffffffffffffffffff169282019290925290889003611d7357602001517affffffffffffffffffffffffffffffffffffffffffffffffffffff169550610be0945050505050565b805164ffffffffff16881115611d8b57819350611d92565b6001820392505b5050611cb1565b5073ffffffffffffffffffffffffffffffffffffffff87166000908152600a60209081526040808320898452825280832093835292905220547affffffffffffffffffffffffffffffffffffffffffffffffffffff6501000000000090910416925050509392505050565b611e0c6134a7565b506000838152600c60205260409020611e26828483614c60565b50827f6bb7ff708619ba0610cba295a58592e0451dee2622938c8755667688daf3529b8383604051611e59929190614d7a565b60405180910390a2505050565b6060611e706134a7565b508167ffffffffffffffff811115611e8a57611e8a61475e565b604051908082528060200260200182016040528015611eb3578160200160208202803683370190505b50905060005b82811015611f8f57611f65848483818110611ed657611ed6614858565b9050602002810190611ee89190614a12565b611ef6906020810190614a50565b858584818110611f0857611f08614858565b9050602002810190611f1a9190614a12565b611f2b906040810190602001614419565b868685818110611f3d57611f3d614858565b9050602002810190611f4f9190614a12565b6040013587878681811061139e5761139e614858565b828281518110611f7757611f77614858565b91151560209283029190910190910152600101611eb9565b5092915050565b33600081815260016020908152604080832073ffffffffffffffffffffffffffffffffffffffff87168085529083529281902080547fffffffffffffffffffffffffffffffffffffffffffffffffffffffffffffff001686151590811790915590519081529192917f17307eab39ab6107e8899845ad3d59bd9653f200f220920489ca2b5937696c3191015b60405180910390a35050565b606081156109fa5750604051818152602001600582901b808483378101805b825185018035602082018337600080823584305af4612070573d6000803e3d6000fd5b508083526020830192503d81523d6000602083013e3d01603f0167ffffffffffffffe01681831061204d5760408051919052949350505050565b6120b26134a7565b50806120bd57600080fd5b636c4b554660005260046020527fec16534cbd522d95a8d304a7b706628849f9d6fcd5d1abf57d513ce9b55ee8a954811115612125576040517f7870f01300000000000000000000000000000000000000000000000000000000815260040160405180910390fd5b600b80547fffff000000000000000000000000000000ffffffffffffffffffffffffffffff166f010000000000000000000000000000006effffffffffffffffffffffffffffff84160217905560405181815233907fc8bdbc84626c082832bea9ab3c3626d6941b91b2df27cc2f8b621597415e4d869060200160405180910390a250565b844211156121e4576040517fdb5ef3ff00000000000000000000000000000000000000000000000000000000815260040160405180910390fd5b600060016121f061115d565b604080517f6cbc5a524b1126d061ad7096b321232bc521d16153a9fd94383ceca0c153e343602082015273ffffffffffffffffffffffffffffffffffffffff8c1691810191909152606081018a90526080810189905260a0810188905260c001604051602081830303815290604052805190602001206040516020016122a89291907f190100000000000000000000000000000000000000000000000000000000000081526002810192909252602282015260420190565b604080517fffffffffffffffffffffffffffffffffffffffffffffffffffffffffffffffe08184030181528282528051602091820120600084529083018083525260ff871690820152606081018590526080810184905260a0016020604051602081039080840390855afa158015612324573d6000803e3d6000fd5b50506040517fffffffffffffffffffffffffffffffffffffffffffffffffffffffffffffffe0015191505073ffffffffffffffffffffffffffffffffffffffff811661239c576040517fc90c66b500000000000000000000000000000000000000000000000000000000815260040160405180910390fd5b73ffffffffffffffffffffffffffffffffffffffff811660009081526003602052604090208054600181019091558714612402576040517fc90c66b500000000000000000000000000000000000000000000000000000000815260040160405180910390fd5b6115b6818987612dc0565b6000610be08383611a27565b3373ffffffffffffffffffffffffffffffffffffffff871614801590612470575073ffffffffffffffffffffffffffffffffffffffff8616600090815260016020908152604080832033845290915290205460ff16155b156124a7576040517f82b4290000000000000000000000000000000000000000000000000000000000815260040160405180910390fd5b60008481526005602052604090205460ff166124ef576040517f9cbe235700000000000000000000000000000000000000000000000000000000815260040160405180910390fd5b60008481526006602052604090205460ff16156125ae5773ffffffffffffffffffffffffffffffffffffffff8616600090815260076020908152604080832087845290915290205460ff161580612577575073ffffffffffffffffffffffffffffffffffffffff8516600090815260076020908152604080832087845290915290205460ff16155b156125ae576040517f39218f3b00000000000000000000000000000000000000000000000000000000815260040160405180910390fd5b636c4b554684146125dc576125d76125c68786610bed565b6125d08787610bed565b8686612ea8565b612642565b73ffffffffffffffffffffffffffffffffffffffff851660009081526020818152604080832087845290915290205415612642576040517f35278d1200000000000000000000000000000000000000000000000000000000815260040160405180910390fd5b73ffffffffffffffffffffffffffffffffffffffff8616600090815260208181526040808320878452909152812080548592906126809084906148b6565b909155505073ffffffffffffffffffffffffffffffffffffffff8581166000818152602081815260408083208984528252918290208054880190558151888152908101879052919289169133917fc3d58168c5ae7397731d063d5bbf3d657854427343f4c083240f7aacaa2d0f62910160405180910390a473ffffffffffffffffffffffffffffffffffffffff85163b15612814576040517ff23a6e61000000000000000000000000000000000000000000000000000000008082529073ffffffffffffffffffffffffffffffffffffffff87169063f23a6e61906127739033908b908a908a908a908a90600401614d8e565b6020604051808303816000875af1158015612792573d6000803e3d6000fd5b505050506040513d601f19601f820116820180604052508101906127b691906149f5565b7fffffffff00000000000000000000000000000000000000000000000000000000161461280f576040517f3da6393100000000000000000000000000000000000000000000000000000000815260040160405180910390fd5b612861565b73ffffffffffffffffffffffffffffffffffffffff8516612861576040517f9c8d2cd200000000000000000000000000000000000000000000000000000000815260040160405180910390fd5b505050505050565b834211156128a3576040517fdb5ef3ff00000000000000000000000000000000000000000000000000000000815260040160405180910390fd5b600060016128af61115d565b73ffffffffffffffffffffffffffffffffffffffff8a811660008181526003602090815260409182902080546001810190915582517f7bf72c3e57bc00556754c7454ead7d72d1c0e263909e7c643fbc0d1e0f3c3e748184015280840194909452938d1660608401528b1515608084015260a083019390935260c08083018b90528151808403909101815260e0830190915280519201919091207f190100000000000000000000000000000000000000000000000000000000000061010083015261010282019290925261012281019190915261014201604080517fffffffffffffffffffffffffffffffffffffffffffffffffffffffffffffffe08184030181528282528051602091820120600084529083018083525260ff871690820152606081018590526080810184905260a0016020604051602081039080840390855afa158015612a02573d6000803e3d6000fd5b50506040517fffffffffffffffffffffffffffffffffffffffffffffffffffffffffffffffe0015191505073ffffffffffffffffffffffffffffffffffffffff8116612a7a576040517fc90c66b500000000000000000000000000000000000000000000000000000000815260040160405180910390fd5b8773ffffffffffffffffffffffffffffffffffffffff168173ffffffffffffffffffffffffffffffffffffffff1614612adf576040517fc90c66b500000000000000000000000000000000000000000000000000000000815260040160405180910390fd5b73ffffffffffffffffffffffffffffffffffffffff90811660009081526001602090815260408083208a85168085529083529281902080547fffffffffffffffffffffffffffffffffffffffffffffffffffffffffffffff00168a1515908117909155905190815291928a16917f17307eab39ab6107e8899845ad3d59bd9653f200f220920489ca2b5937696c31910160405180910390a350505050505050565b3373ffffffffffffffffffffffffffffffffffffffff841614801590612bd7575073ffffffffffffffffffffffffffffffffffffffff8316600090815260016020908152604080832033845290915290205460ff16155b8015612be85750612be66134a7565b155b15612c1f576040517f82b4290000000000000000000000000000000000000000000000000000000000815260040160405180910390fd5b612c2a838383613a1d565b7fffffffffffffffffffffffffffffffffffffffffffffffffffffffff93b4aaba82016115d457636c4b554660005260046020527fec16534cbd522d95a8d304a7b706628849f9d6fcd5d1abf57d513ce9b55ee8a954600b546f0100000000000000000000000000000090046effffffffffffffffffffffffffffff1611156115d4576040517f7870f01300000000000000000000000000000000000000000000000000000000815260040160405180910390fd5b60007fffffffff0000000000000000000000000000000000000000000000000000000082167f01ffc9a7000000000000000000000000000000000000000000000000000000001480612d7257507fd9b67a26000000000000000000000000000000000000000000000000000000007fffffffff000000000000000000000000000000000000000000000000000000008316145b806109fa5750507fffffffff00000000000000000000000000000000000000000000000000000000167f0e89341c000000000000000000000000000000000000000000000000000000001490565b6000612dcc8483610bed565b73ffffffffffffffffffffffffffffffffffffffff858116600081815260086020908152604080832088845282529182902080547fffffffffffffffffffffffff00000000000000000000000000000000000000001689861690811790915591518781529495509093928516927f287e04de574701d97a55bd9ea85b32defecf76a607b8007ee9ae8c126bf7a746910160405180910390a473ffffffffffffffffffffffffffffffffffffffff8416600090815260208181526040808320858452909152902054612ea290829085908590612ea8565b50505050565b8273ffffffffffffffffffffffffffffffffffffffff168473ffffffffffffffffffffffffffffffffffffffff1614158015612ee357508015155b15612ea25773ffffffffffffffffffffffffffffffffffffffff841615612ffe5773ffffffffffffffffffffffffffffffffffffffff8416600090815260096020908152604080832085845290915281205490818103612f44576000612fc6565b73ffffffffffffffffffffffffffffffffffffffff86166000908152600a6020908152604080832087845282528083207fffffffffffffffffffffffffffffffffffffffffffffffffffffffffffffffff860184529091529020546501000000000090047affffffffffffffffffffffffffffffffffffffffffffffffffffff165b7affffffffffffffffffffffffffffffffffffffffffffffffffffff169050612ffb86858484612ff688826148b6565b613ae9565b50505b73ffffffffffffffffffffffffffffffffffffffff831615612ea25773ffffffffffffffffffffffffffffffffffffffff831660009081526009602090815260408083208584529091528120549081810361305a5760006130dc565b73ffffffffffffffffffffffffffffffffffffffff85166000908152600a6020908152604080832087845282528083207fffffffffffffffffffffffffffffffffffffffffffffffffffffffffffffffff860184529091529020546501000000000090047affffffffffffffffffffffffffffffffffffffffffffffffffffff165b7affffffffffffffffffffffffffffffffffffffffffffffffffffff16905061286185858484612ff68882614de0565b600b80546effffffffffffffffffffffffffffff808216600101167fffffffffffffffffffffffffffffffffff00000000000000000000000000000090911617905560008085600381111561316357613163614ad0565b036132055760008083516020850186885af19050806131ae576040517fd6bed87300000000000000000000000000000000000000000000000000000000815260040160405180910390fd5b8373ffffffffffffffffffffffffffffffffffffffff167ffa3c55dc43f5cfdeb2abee243c63ad490db2fee39fd127076ed9e7afa15ad6388685856040516131f893929190614df3565b60405180910390a2610c30565b600185600381111561321957613219614ad0565b0361326357600080835160208501875af49050806131ae576040517fd6bed87300000000000000000000000000000000000000000000000000000000815260040160405180910390fd5b600285600381111561327757613277614ad0565b0361332d57600082516020840185f0905073ffffffffffffffffffffffffffffffffffffffff81166132d5576040517fd6bed87300000000000000000000000000000000000000000000000000000000815260040160405180910390fd5b8073ffffffffffffffffffffffffffffffffffffffff167ffa3c55dc43f5cfdeb2abee243c63ad490db2fee39fd127076ed9e7afa15ad63887868660405161331f93929190614df3565b60405180910390a250610c30565b600b5482516000916effffffffffffffffffffffffffffff169081906020860187f5915073ffffffffffffffffffffffffffffffffffffffff821661339e576040517fd6bed87300000000000000000000000000000000000000000000000000000000815260040160405180910390fd5b8173ffffffffffffffffffffffffffffffffffffffff167ffa3c55dc43f5cfdeb2abee243c63ad490db2fee39fd127076ed9e7afa15ad6388887876040516133e893929190614df3565b60405180910390a25050949350505050565b6134a2604080517f8b73c3c69bb8fe3d512ecc4cf759cc79239f7b179b0ffacaa9a75d522b39400f60208201527f21d66785fec14e4da3d76f3866cf99a28f4da49ec8782c3cab7cf79c1b6fa66b918101919091527fc89efdaa54c0f20c7adf612882df0950f5a951637e0307cdcb4c672f298b8bc660608201524660808201523060a082015260009060c00160405160208183030381529060405280519060200120905090565b600255565b60006134b1613d15565b806134d7575033600090815260208181526040808320833560e01c845290915290205415155b156134e25750600190565b6040517f82b4290000000000000000000000000000000000000000000000000000000000815260040160405180910390fd5b73ffffffffffffffffffffffffffffffffffffffff8316600081815260076020908152604080832086845282529182902080547fffffffffffffffffffffffffffffffffffffffffffffffffffffffffffffff0016851515908117909155915191825284929133917feddd965981459de97ba24736b7f86682d883ccd91dd7216e944bf3461bd342ac910160405180910390a4505050565b60006040517f7fffffffffffffffffffffffffffffff5d576e7357a4501ddfe92f46681b20a083116136025786600052846020528360405282606052602060406080600060015afa5060006060523d6060035191505b60405273ffffffffffffffffffffffffffffffffffffffff85811690821614612861576000604051631626ba7e60e01b80825288600483015260406024830152604160448301528560648301528460848301528660a48301536020600060a5848b5afa60203d148260005114161692505050806136ab576040517fc90c66b500000000000000000000000000000000000000000000000000000000815260040160405180910390fd5b50505050505050565b60008281526005602090815260409182902080547fffffffffffffffffffffffffffffffffffffffffffffffffffffffffffffff00168415159081179091559151918252839133917f030b8b6f293952c4e53cc2ac59481057844588ce19c7d10ca5468e4d6938f1959101612022565b6000848152600460205260408120805461375192869291613746908490614de0565b925050819055613d96565b50636c4b554684146137715761376c60006125d08787610bed565b6137d7565b73ffffffffffffffffffffffffffffffffffffffff8516600090815260208181526040808320878452909152902054156137d7576040517f35278d1200000000000000000000000000000000000000000000000000000000815260040160405180910390fd5b73ffffffffffffffffffffffffffffffffffffffff85166000818152602081815260408083208884528252808320805488019055805188815291820187905233917fc3d58168c5ae7397731d063d5bbf3d657854427343f4c083240f7aacaa2d0f62910160405180910390a473ffffffffffffffffffffffffffffffffffffffff85163b15613960576040517ff23a6e61000000000000000000000000000000000000000000000000000000008082529073ffffffffffffffffffffffffffffffffffffffff87169063f23a6e61906138bf9033906000908a908a908a908a90600401614d8e565b6020604051808303816000875af11580156138de573d6000803e3d6000fd5b505050506040513d601f19601f8201168201806040525081019061390291906149f5565b7fffffffff00000000000000000000000000000000000000000000000000000000161461395b576040517f3da6393100000000000000000000000000000000000000000000000000000000815260040160405180910390fd5b611a0d565b73ffffffffffffffffffffffffffffffffffffffff8516611a0d576040517f9c8d2cd200000000000000000000000000000000000000000000000000000000815260040160405180910390fd5b60008281526006602090815260409182902080547fffffffffffffffffffffffffffffffffffffffffffffffffffffffffffffff00168415159081179091559151918252839133917fe5718fbb4306c0fd3ddee9c0c5459ee4b1a1dc19271ce6bd9447c6938e544af49101612022565b73ffffffffffffffffffffffffffffffffffffffff831660009081526020818152604080832085845290915281208054839290613a5b9084906148b6565b9091555050600082815260046020908152604080832080548590039055805185815291820184905273ffffffffffffffffffffffffffffffffffffffff86169133917fc3d58168c5ae7397731d063d5bbf3d657854427343f4c083240f7aacaa2d0f62910160405180910390a4636c4b554682146115d4576115d4613ae08484610bed565b60008484612ea8565b8215801590613b58575073ffffffffffffffffffffffffffffffffffffffff85166000908152600a6020908152604080832087845282528083207fffffffffffffffffffffffffffffffffffffffffffffffffffffffffffffffff8701845290915290205464ffffffffff1642145b15613bfe57613b6681613d96565b73ffffffffffffffffffffffffffffffffffffffff86166000908152600a6020908152604080832088845282528083207fffffffffffffffffffffffffffffffffffffffffffffffffffffffffffffffff88018452909152902080547affffffffffffffffffffffffffffffffffffffffffffffffffffff92909216650100000000000264ffffffffff909216919091179055613cbb565b6040518060400160405280613c1242613df1565b64ffffffffff168152602001613c2783613d96565b7affffffffffffffffffffffffffffffffffffffffffffffffffffff90811690915273ffffffffffffffffffffffffffffffffffffffff87166000818152600a602090815260408083208a845282528083208984528252808320865196830151909516650100000000000264ffffffffff909616959095179093559081526009825282812087825290915220805460010190555b6040805183815260208101839052859173ffffffffffffffffffffffffffffffffffffffff8816917f21a99d51b8a0a2e2ead709843a1ecfaab977908135cf1c085c0a6246eea6e0f0910160405180910390a35050505050565b7f0000000000000000000000000000000000000000000000000000000000000000600090815260046020526040812054158015613d5157503330145b8061123b575050336000908152602081815260408083207f00000000000000000000000000000000000000000000000000000000000000008452909152902054151590565b60007b010000000000000000000000000000000000000000000000000000008210613ded576040517f35278d1200000000000000000000000000000000000000000000000000000000815260040160405180910390fd5b5090565b6000650100000000008210613ded576040517f35278d1200000000000000000000000000000000000000000000000000000000815260040160405180910390fd5b803573ffffffffffffffffffffffffffffffffffffffff81168114613e5657600080fd5b919050565b60008060408385031215613e6e57600080fd5b613e7783613e32565b946020939093013593505050565b7fffffffff0000000000000000000000000000000000000000000000000000000081168114613eb357600080fd5b50565b600060208284031215613ec857600080fd5b8135610be081613e85565b60005b83811015613eee578181015183820152602001613ed6565b50506000910152565b60008151808452613f0f816020860160208601613ed3565b601f017fffffffffffffffffffffffffffffffffffffffffffffffffffffffffffffffe0169290920160200192915050565b602081526000610be06020830184613ef7565b600060208284031215613f6657600080fd5b5035919050565b60008083601f840112613f7f57600080fd5b50813567ffffffffffffffff811115613f9757600080fd5b602083019150836020828501011115613faf57600080fd5b9250929050565b600080600080600060808688031215613fce57600080fd5b613fd786613e32565b9450613fe560208701613e32565b935060408601359250606086013567ffffffffffffffff81111561400857600080fd5b61401488828901613f6d565b969995985093965092949392505050565b60008083601f84011261403757600080fd5b50813567ffffffffffffffff81111561404f57600080fd5b6020830191508360208260051b8501011115613faf57600080fd5b60008060008060008060008060a0898b03121561408657600080fd5b61408f89613e32565b975061409d60208a01613e32565b9650604089013567ffffffffffffffff808211156140ba57600080fd5b6140c68c838d01614025565b909850965060608b01359150808211156140df57600080fd5b6140eb8c838d01614025565b909650945060808b013591508082111561410457600080fd5b506141118b828c01613f6d565b999c989b5096995094979396929594505050565b60008060006060848603121561413a57600080fd5b61414384613e32565b95602085013595506040909401359392505050565b60008060008060006060868803121561417057600080fd5b853567ffffffffffffffff8082111561418857600080fd5b61419489838a01614025565b909750955060208801359150808211156141ad57600080fd5b506141ba88828901614025565b96999598509660400135949350505050565b80358015158114613e5657600080fd5b6000806000606084860312156141f157600080fd5b6141fa84613e32565b92506020840135915061420f604085016141cc565b90509250925092565b6000806000806040858703121561422e57600080fd5b843567ffffffffffffffff8082111561424657600080fd5b61425288838901614025565b9096509450602087013591508082111561426b57600080fd5b5061427887828801614025565b95989497509550505050565b6020808252825182820181905260009190848201906040850190845b818110156142bc578351835292840192918401916001016142a0565b50909695505050505050565b803560048110613e5657600080fd5b600080600080600080600060a0888a0312156142f257600080fd5b6142fb886142c8565b965061430960208901613e32565b955060408801359450606088013567ffffffffffffffff8082111561432d57600080fd5b6143398b838c01613f6d565b909650945060808a013591508082111561435257600080fd5b818a0191508a601f83011261436657600080fd5b81358181111561437557600080fd5b8b60208260071b850101111561438a57600080fd5b60208301945080935050505092959891949750929550565b600080604083850312156143b557600080fd5b823591506143c5602084016141cc565b90509250929050565b6000806000806000608086880312156143e657600080fd5b6143ef86613e32565b94506020860135935060408601359250606086013567ffffffffffffffff81111561400857600080fd5b60006020828403121561442b57600080fd5b610be082613e32565b60008060006040848603121561444957600080fd5b83359250602084013567ffffffffffffffff81111561446757600080fd5b61447386828701613f6d565b9497909650939450505050565b6000806020838503121561449357600080fd5b823567ffffffffffffffff8111156144aa57600080fd5b6144b685828601614025565b90969095509350505050565b6020808252825182820181905260009190848201906040850190845b818110156142bc5783511515835292840192918401916001016144de565b6000806040838503121561450f57600080fd5b61451883613e32565b91506143c5602084016141cc565b6000602080830181845280855180835260408601915060408160051b870101925083870160005b82811015614599577fffffffffffffffffffffffffffffffffffffffffffffffffffffffffffffffc0888603018452614587858351613ef7565b9450928501929085019060010161454d565b5092979650505050505050565b803560ff81168114613e5657600080fd5b600080600080600080600060e0888a0312156145d257600080fd5b6145db88613e32565b96506020880135955060408801359450606088013593506145fe608089016145a6565b925060a0880135915060c0880135905092959891949750929550565b6000806040838503121561462d57600080fd5b61463683613e32565b91506143c560208401613e32565b60008060008060008060a0878903121561465d57600080fd5b61466687613e32565b955061467460208801613e32565b94506040870135935060608701359250608087013567ffffffffffffffff81111561469e57600080fd5b6146aa89828a01613f6d565b979a9699509497509295939492505050565b600080600080600080600060e0888a0312156146d757600080fd5b6146e088613e32565b96506146ee60208901613e32565b95506146fc604089016141cc565b9450606088013593506145fe608089016145a6565b600181811c9082168061472557607f821691505b602082108103610be7577f4e487b7100000000000000000000000000000000000000000000000000000000600052602260045260246000fd5b7f4e487b7100000000000000000000000000000000000000000000000000000000600052604160045260246000fd5b60006020828403121561479f57600080fd5b815167ffffffffffffffff808211156147b757600080fd5b818401915084601f8301126147cb57600080fd5b8151818111156147dd576147dd61475e565b604051601f82017fffffffffffffffffffffffffffffffffffffffffffffffffffffffffffffffe0908116603f011681019083821181831017156148235761482361475e565b8160405282815287602084870101111561483c57600080fd5b61484d836020830160208801613ed3565b979650505050505050565b7f4e487b7100000000000000000000000000000000000000000000000000000000600052603260045260246000fd5b7f4e487b7100000000000000000000000000000000000000000000000000000000600052601160045260246000fd5b818103818111156109fa576109fa614887565b81835260007f07ffffffffffffffffffffffffffffffffffffffffffffffffffffffffffffff8311156148fb57600080fd5b8260051b80836020870137939093016020019392505050565b6040815260006149286040830186886148c9565b828103602084015261484d8185876148c9565b8183528181602085013750600060208284010152600060207fffffffffffffffffffffffffffffffffffffffffffffffffffffffffffffffe0601f840116840101905092915050565b600073ffffffffffffffffffffffffffffffffffffffff808b168352808a1660208401525060a060408301526149be60a08301888a6148c9565b82810360608401526149d18187896148c9565b905082810360808401526149e681858761493b565b9b9a5050505050505050505050565b600060208284031215614a0757600080fd5b8151610be081613e85565b600082357fffffffffffffffffffffffffffffffffffffffffffffffffffffffffffffff81833603018112614a4657600080fd5b9190910192915050565b600060208284031215614a6257600080fd5b610be0826142c8565b60008083357fffffffffffffffffffffffffffffffffffffffffffffffffffffffffffffffe1843603018112614aa057600080fd5b83018035915067ffffffffffffffff821115614abb57600080fd5b602001915036819003821315613faf57600080fd5b7f4e487b7100000000000000000000000000000000000000000000000000000000600052602160045260246000fd5b60048110614b36577f4e487b7100000000000000000000000000000000000000000000000000000000600052602160045260246000fd5b9052565b878152614b4a6020820188614aff565b73ffffffffffffffffffffffffffffffffffffffff8616604082015284606082015260c060808201526000614b8360c08301858761493b565b90506effffffffffffffffffffffffffffff831660a083015298975050505050505050565b600060808284031215614bba57600080fd5b6040516080810181811067ffffffffffffffff82111715614bdd57614bdd61475e565b604052614be983613e32565b8152614bf7602084016145a6565b602082015260408301356040820152606083013560608201528091505092915050565b601f8211156115d457600081815260208120601f850160051c81016020861015614c415750805b601f850160051c820191505b8181101561286157828155600101614c4d565b67ffffffffffffffff831115614c7857614c7861475e565b614c8c83614c868354614711565b83614c1a565b6000601f841160018114614cde5760008515614ca85750838201355b7fffffffffffffffffffffffffffffffffffffffffffffffffffffffffffffffff600387901b1c1916600186901b178355611a0d565b6000838152602090207fffffffffffffffffffffffffffffffffffffffffffffffffffffffffffffffe0861690835b82811015614d2d5786850135825560209485019460019092019101614d0d565b5086821015614d68577fffffffffffffffffffffffffffffffffffffffffffffffffffffffffffffffff60f88860031b161c19848701351681555b505060018560011b0183555050505050565b602081526000610c3060208301848661493b565b600073ffffffffffffffffffffffffffffffffffffffff808916835280881660208401525085604083015284606083015260a06080830152614dd460a08301848661493b565b98975050505050505050565b808201808211156109fa576109fa614887565b614dfd8185614aff565b826020820152606060408201526000614e196060830184613ef7565b9594505050505056fea164736f6c6343000811000a",
    "linkReferences": {}
  },
  "methodIdentifiers": {
    "DOMAIN_SEPARATOR()": "3644e515",
    "balanceOf(address,uint256)": "00fdd58e",
    "balanceOfBatch(address[],uint256[])": "4e1273f4",
    "burn(address,uint256,uint256)": "f5298aca",
    "checkpoints(address,uint256,uint256)": "387bbabd",
    "delegate(address,uint256)": "026e402b",
    "delegateBySig(address,uint256,uint256,uint256,uint8,bytes32,bytes32)": "e63a562e",
    "delegates(address,uint256)": "27dd1b00",
    "execute(uint8,address,uint256,bytes,(address,uint8,bytes32,bytes32)[])": "6c4b5546",
    "getCurrentVotes(address,uint256)": "807df56d",
    "getPastVotes(address,uint256,uint256)": "4d6fb775",
    "getPriorVotes(address,uint256,uint256)": "836eebee",
    "getVotes(address,uint256)": "eb9019d4",
    "initialize((uint8,address,uint256,bytes)[],address[],uint256)": "3d30ef47",
    "isApprovedForAll(address,address)": "e985e9c5",
    "mint(address,uint256,uint256,bytes)": "731133e9",
    "multiExecute((uint8,address,uint256,bytes)[])": "8cb18c12",
    "multicall(bytes[])": "ac9650d8",
    "name()": "06fdde03",
    "nonce()": "affed0e0",
    "nonces(address)": "7ecebe00",
    "numCheckpoints(address,uint256)": "afa88bca",
    "onERC1155BatchReceived(address,address,uint256[],uint256[],bytes)": "bc197c81",
    "onERC1155Received(address,address,uint256,uint256,bytes)": "f23a6e61",
    "onERC721Received(address,address,uint256,bytes)": "150b7a02",
    "permissioned(uint256)": "fc95ba43",
    "permit(address,address,bool,uint256,uint8,bytes32,bytes32)": "f51cc7dd",
    "quorum()": "1703a018",
    "safeBatchTransferFrom(address,address,uint256[],uint256[],bytes)": "2eb2c2d6",
    "safeTransferFrom(address,address,uint256,uint256,bytes)": "f242432a",
    "setApprovalForAll(address,bool)": "a22cb465",
    "setPermission(uint256,bool)": "7769ea0b",
    "setQuorum(uint256)": "c1ba4e59",
    "setTransferability(uint256,bool)": "7140d960",
    "setURI(uint256,string)": "862440e2",
    "setUserPermission(address,uint256,bool)": "49e5078c",
    "supportsInterface(bytes4)": "01ffc9a7",
    "totalSupply(uint256)": "bd85b039",
    "transferable(uint256)": "f4c3b4d7",
    "uri(uint256)": "0e89341c",
    "userPermissioned(address,uint256)": "12156691"
  },
  "id": 26
}