{
  "abi": [
    {
      "inputs": [
        {
          "internalType": "contract Keep",
          "name": "_uriFetcher",
          "type": "address"
        }
      ],
      "stateMutability": "payable",
      "type": "constructor"
    },
    {
      "inputs": [],
      "name": "AlreadyInit",
      "type": "error"
    },
    {
      "inputs": [],
      "name": "ExecuteFailed",
      "type": "error"
    },
    {
      "inputs": [],
      "name": "ExpiredSig",
      "type": "error"
    },
    {
      "inputs": [],
      "name": "InvalidRecipient",
      "type": "error"
    },
    {
      "inputs": [],
      "name": "InvalidSig",
      "type": "error"
    },
    {
      "inputs": [],
      "name": "LengthMismatch",
      "type": "error"
    },
    {
      "inputs": [],
      "name": "NonTransferable",
      "type": "error"
    },
    {
      "inputs": [],
      "name": "NotAuthorized",
      "type": "error"
    },
    {
      "inputs": [],
      "name": "NotPermitted",
      "type": "error"
    },
    {
      "inputs": [],
      "name": "Overflow",
      "type": "error"
    },
    {
      "inputs": [],
      "name": "QuorumOverSupply",
      "type": "error"
    },
    {
      "inputs": [],
      "name": "Undetermined",
      "type": "error"
    },
    {
      "inputs": [],
      "name": "UnsafeRecipient",
      "type": "error"
    },
    {
      "anonymous": false,
      "inputs": [
        {
          "indexed": true,
          "internalType": "address",
          "name": "owner",
          "type": "address"
        },
        {
          "indexed": true,
          "internalType": "address",
          "name": "operator",
          "type": "address"
        },
        {
          "indexed": false,
          "internalType": "bool",
          "name": "approved",
          "type": "bool"
        }
      ],
      "name": "ApprovalForAll",
      "type": "event"
    },
    {
      "anonymous": false,
      "inputs": [
        {
          "indexed": true,
          "internalType": "address",
          "name": "delegator",
          "type": "address"
        },
        {
          "indexed": true,
          "internalType": "address",
          "name": "fromDelegate",
          "type": "address"
        },
        {
          "indexed": true,
          "internalType": "address",
          "name": "toDelegate",
          "type": "address"
        },
        {
          "indexed": false,
          "internalType": "uint256",
          "name": "id",
          "type": "uint256"
        }
      ],
      "name": "DelegateChanged",
      "type": "event"
    },
    {
      "anonymous": false,
      "inputs": [
        {
          "indexed": true,
          "internalType": "address",
          "name": "delegate",
          "type": "address"
        },
        {
          "indexed": true,
          "internalType": "uint256",
          "name": "id",
          "type": "uint256"
        },
        {
          "indexed": false,
          "internalType": "uint256",
          "name": "previousBalance",
          "type": "uint256"
        },
        {
          "indexed": false,
          "internalType": "uint256",
          "name": "newBalance",
          "type": "uint256"
        }
      ],
      "name": "DelegateVotesChanged",
      "type": "event"
    },
    {
      "anonymous": false,
      "inputs": [
        {
          "indexed": false,
          "internalType": "enum Operation",
          "name": "op",
          "type": "uint8"
        },
        {
          "indexed": true,
          "internalType": "address",
          "name": "to",
          "type": "address"
        },
        {
          "indexed": false,
          "internalType": "uint256",
          "name": "value",
          "type": "uint256"
        },
        {
          "indexed": false,
          "internalType": "bytes",
          "name": "data",
          "type": "bytes"
        }
      ],
      "name": "Executed",
      "type": "event"
    },
    {
      "anonymous": false,
      "inputs": [
        {
          "indexed": true,
          "internalType": "address",
          "name": "operator",
          "type": "address"
        },
        {
          "indexed": true,
          "internalType": "uint256",
          "name": "id",
          "type": "uint256"
        },
        {
          "indexed": false,
          "internalType": "bool",
          "name": "set",
          "type": "bool"
        }
      ],
      "name": "PermissionSet",
      "type": "event"
    },
    {
      "anonymous": false,
      "inputs": [
        {
          "indexed": true,
          "internalType": "address",
          "name": "operator",
          "type": "address"
        },
        {
          "indexed": false,
          "internalType": "uint256",
          "name": "threshold",
          "type": "uint256"
        }
      ],
      "name": "QuorumSet",
      "type": "event"
    },
    {
      "anonymous": false,
      "inputs": [
        {
          "indexed": true,
          "internalType": "address",
          "name": "operator",
          "type": "address"
        },
        {
          "indexed": true,
          "internalType": "address",
          "name": "from",
          "type": "address"
        },
        {
          "indexed": true,
          "internalType": "address",
          "name": "to",
          "type": "address"
        },
        {
          "indexed": false,
          "internalType": "uint256[]",
          "name": "ids",
          "type": "uint256[]"
        },
        {
          "indexed": false,
          "internalType": "uint256[]",
          "name": "amounts",
          "type": "uint256[]"
        }
      ],
      "name": "TransferBatch",
      "type": "event"
    },
    {
      "anonymous": false,
      "inputs": [
        {
          "indexed": true,
          "internalType": "address",
          "name": "operator",
          "type": "address"
        },
        {
          "indexed": true,
          "internalType": "address",
          "name": "from",
          "type": "address"
        },
        {
          "indexed": true,
          "internalType": "address",
          "name": "to",
          "type": "address"
        },
        {
          "indexed": false,
          "internalType": "uint256",
          "name": "id",
          "type": "uint256"
        },
        {
          "indexed": false,
          "internalType": "uint256",
          "name": "amount",
          "type": "uint256"
        }
      ],
      "name": "TransferSingle",
      "type": "event"
    },
    {
      "anonymous": false,
      "inputs": [
        {
          "indexed": true,
          "internalType": "address",
          "name": "operator",
          "type": "address"
        },
        {
          "indexed": true,
          "internalType": "uint256",
          "name": "id",
          "type": "uint256"
        },
        {
          "indexed": false,
          "internalType": "bool",
          "name": "set",
          "type": "bool"
        }
      ],
      "name": "TransferabilitySet",
      "type": "event"
    },
    {
      "anonymous": false,
      "inputs": [
        {
          "indexed": false,
          "internalType": "string",
          "name": "value",
          "type": "string"
        },
        {
          "indexed": true,
          "internalType": "uint256",
          "name": "id",
          "type": "uint256"
        }
      ],
      "name": "URI",
      "type": "event"
    },
    {
      "anonymous": false,
      "inputs": [
        {
          "indexed": true,
          "internalType": "address",
          "name": "operator",
          "type": "address"
        },
        {
          "indexed": true,
          "internalType": "address",
          "name": "to",
          "type": "address"
        },
        {
          "indexed": true,
          "internalType": "uint256",
          "name": "id",
          "type": "uint256"
        },
        {
          "indexed": false,
          "internalType": "bool",
          "name": "set",
          "type": "bool"
        }
      ],
      "name": "UserPermissionSet",
      "type": "event"
    },
    {
      "inputs": [],
      "name": "DOMAIN_SEPARATOR",
      "outputs": [
        {
          "internalType": "bytes32",
          "name": "",
          "type": "bytes32"
        }
      ],
      "stateMutability": "view",
      "type": "function"
    },
    {
      "inputs": [],
      "name": "_initialChainId",
      "outputs": [
        {
          "internalType": "uint256",
          "name": "",
          "type": "uint256"
        }
      ],
      "stateMutability": "pure",
      "type": "function"
    },
    {
      "inputs": [
        {
          "internalType": "address",
          "name": "",
          "type": "address"
        },
        {
          "internalType": "uint256",
          "name": "",
          "type": "uint256"
        }
      ],
      "name": "balanceOf",
      "outputs": [
        {
          "internalType": "uint256",
          "name": "",
          "type": "uint256"
        }
      ],
      "stateMutability": "view",
      "type": "function"
    },
    {
      "inputs": [
        {
          "internalType": "address[]",
          "name": "owners",
          "type": "address[]"
        },
        {
          "internalType": "uint256[]",
          "name": "ids",
          "type": "uint256[]"
        }
      ],
      "name": "balanceOfBatch",
      "outputs": [
        {
          "internalType": "uint256[]",
          "name": "balances",
          "type": "uint256[]"
        }
      ],
      "stateMutability": "view",
      "type": "function"
    },
    {
      "inputs": [
        {
          "internalType": "address",
          "name": "from",
          "type": "address"
        },
        {
          "internalType": "uint256",
          "name": "id",
          "type": "uint256"
        },
        {
          "internalType": "uint256",
          "name": "amount",
          "type": "uint256"
        }
      ],
      "name": "burn",
      "outputs": [],
      "stateMutability": "payable",
      "type": "function"
    },
    {
      "inputs": [
        {
          "internalType": "address",
          "name": "",
          "type": "address"
        },
        {
          "internalType": "uint256",
          "name": "",
          "type": "uint256"
        },
        {
          "internalType": "uint256",
          "name": "",
          "type": "uint256"
        }
      ],
      "name": "checkpoints",
      "outputs": [
        {
          "internalType": "uint40",
          "name": "fromTimestamp",
          "type": "uint40"
        },
        {
          "internalType": "uint216",
          "name": "votes",
          "type": "uint216"
        }
      ],
      "stateMutability": "view",
      "type": "function"
    },
    {
      "inputs": [
        {
          "internalType": "address",
          "name": "delegatee",
          "type": "address"
        },
        {
          "internalType": "uint256",
          "name": "id",
          "type": "uint256"
        }
      ],
      "name": "delegate",
      "outputs": [],
      "stateMutability": "payable",
      "type": "function"
    },
    {
      "inputs": [
        {
          "internalType": "address",
          "name": "delegatee",
          "type": "address"
        },
        {
          "internalType": "uint256",
          "name": "nonce",
          "type": "uint256"
        },
        {
          "internalType": "uint256",
          "name": "deadline",
          "type": "uint256"
        },
        {
          "internalType": "uint256",
          "name": "id",
          "type": "uint256"
        },
        {
          "internalType": "uint8",
          "name": "v",
          "type": "uint8"
        },
        {
          "internalType": "bytes32",
          "name": "r",
          "type": "bytes32"
        },
        {
          "internalType": "bytes32",
          "name": "s",
          "type": "bytes32"
        }
      ],
      "name": "delegateBySig",
      "outputs": [],
      "stateMutability": "payable",
      "type": "function"
    },
    {
      "inputs": [
        {
          "internalType": "address",
          "name": "account",
          "type": "address"
        },
        {
          "internalType": "uint256",
          "name": "id",
          "type": "uint256"
        }
      ],
      "name": "delegates",
      "outputs": [
        {
          "internalType": "address",
          "name": "",
          "type": "address"
        }
      ],
      "stateMutability": "view",
      "type": "function"
    },
    {
      "inputs": [
        {
          "internalType": "enum Operation",
          "name": "op",
          "type": "uint8"
        },
        {
          "internalType": "address",
          "name": "to",
          "type": "address"
        },
        {
          "internalType": "uint256",
          "name": "value",
          "type": "uint256"
        },
        {
          "internalType": "bytes",
          "name": "data",
          "type": "bytes"
        },
        {
          "components": [
            {
              "internalType": "address",
              "name": "user",
              "type": "address"
            },
            {
              "internalType": "uint8",
              "name": "v",
              "type": "uint8"
            },
            {
              "internalType": "bytes32",
              "name": "r",
              "type": "bytes32"
            },
            {
              "internalType": "bytes32",
              "name": "s",
              "type": "bytes32"
            }
          ],
          "internalType": "struct Signature[]",
          "name": "sigs",
          "type": "tuple[]"
        }
      ],
      "name": "execute",
      "outputs": [
        {
          "internalType": "bool",
          "name": "success",
          "type": "bool"
        }
      ],
      "stateMutability": "payable",
      "type": "function"
    },
    {
      "inputs": [
        {
          "internalType": "address",
          "name": "account",
          "type": "address"
        },
        {
          "internalType": "uint256",
          "name": "id",
          "type": "uint256"
        }
      ],
      "name": "getCurrentVotes",
      "outputs": [
        {
          "internalType": "uint256",
          "name": "",
          "type": "uint256"
        }
      ],
      "stateMutability": "view",
      "type": "function"
    },
    {
      "inputs": [
        {
          "internalType": "address",
          "name": "account",
          "type": "address"
        },
        {
          "internalType": "uint256",
          "name": "id",
          "type": "uint256"
        },
        {
          "internalType": "uint256",
          "name": "timestamp",
          "type": "uint256"
        }
      ],
      "name": "getPastVotes",
      "outputs": [
        {
          "internalType": "uint256",
          "name": "",
          "type": "uint256"
        }
      ],
      "stateMutability": "view",
      "type": "function"
    },
    {
      "inputs": [
        {
          "internalType": "address",
          "name": "account",
          "type": "address"
        },
        {
          "internalType": "uint256",
          "name": "id",
          "type": "uint256"
        },
        {
          "internalType": "uint256",
          "name": "timestamp",
          "type": "uint256"
        }
      ],
      "name": "getPriorVotes",
      "outputs": [
        {
          "internalType": "uint256",
          "name": "",
          "type": "uint256"
        }
      ],
      "stateMutability": "view",
      "type": "function"
    },
    {
      "inputs": [
        {
          "internalType": "address",
          "name": "account",
          "type": "address"
        },
        {
          "internalType": "uint256",
          "name": "id",
          "type": "uint256"
        }
      ],
      "name": "getVotes",
      "outputs": [
        {
          "internalType": "uint256",
          "name": "",
          "type": "uint256"
        }
      ],
      "stateMutability": "view",
      "type": "function"
    },
    {
      "inputs": [
        {
          "components": [
            {
              "internalType": "enum Operation",
              "name": "op",
              "type": "uint8"
            },
            {
              "internalType": "address",
              "name": "to",
              "type": "address"
            },
            {
              "internalType": "uint256",
              "name": "value",
              "type": "uint256"
            },
            {
              "internalType": "bytes",
              "name": "data",
              "type": "bytes"
            }
          ],
          "internalType": "struct Call[]",
          "name": "calls",
          "type": "tuple[]"
        },
        {
          "internalType": "address[]",
          "name": "signers",
          "type": "address[]"
        },
        {
          "internalType": "uint256",
          "name": "threshold",
          "type": "uint256"
        }
      ],
      "name": "initialize",
      "outputs": [],
      "stateMutability": "payable",
      "type": "function"
    },
    {
      "inputs": [
        {
          "internalType": "address",
          "name": "",
          "type": "address"
        },
        {
          "internalType": "address",
          "name": "",
          "type": "address"
        }
      ],
      "name": "isApprovedForAll",
      "outputs": [
        {
          "internalType": "bool",
          "name": "",
          "type": "bool"
        }
      ],
      "stateMutability": "view",
      "type": "function"
    },
    {
      "inputs": [
        {
          "internalType": "address",
          "name": "to",
          "type": "address"
        },
        {
          "internalType": "uint256",
          "name": "id",
          "type": "uint256"
        },
        {
          "internalType": "uint256",
          "name": "amount",
          "type": "uint256"
        },
        {
          "internalType": "bytes",
          "name": "data",
          "type": "bytes"
        }
      ],
      "name": "mint",
      "outputs": [],
      "stateMutability": "payable",
      "type": "function"
    },
    {
      "inputs": [
        {
          "components": [
            {
              "internalType": "enum Operation",
              "name": "op",
              "type": "uint8"
            },
            {
              "internalType": "address",
              "name": "to",
              "type": "address"
            },
            {
              "internalType": "uint256",
              "name": "value",
              "type": "uint256"
            },
            {
              "internalType": "bytes",
              "name": "data",
              "type": "bytes"
            }
          ],
          "internalType": "struct Call[]",
          "name": "calls",
          "type": "tuple[]"
        }
      ],
      "name": "multiExecute",
      "outputs": [
        {
          "internalType": "bool[]",
          "name": "successes",
          "type": "bool[]"
        }
      ],
      "stateMutability": "payable",
      "type": "function"
    },
    {
      "inputs": [
        {
          "internalType": "bytes[]",
          "name": "data",
          "type": "bytes[]"
        }
      ],
      "name": "multicall",
      "outputs": [
        {
          "internalType": "bytes[]",
          "name": "results",
          "type": "bytes[]"
        }
      ],
      "stateMutability": "payable",
      "type": "function"
    },
    {
      "inputs": [],
      "name": "name",
      "outputs": [
        {
          "internalType": "string",
          "name": "",
          "type": "string"
        }
      ],
      "stateMutability": "pure",
      "type": "function"
    },
    {
      "inputs": [],
      "name": "nonce",
      "outputs": [
        {
          "internalType": "uint120",
          "name": "",
          "type": "uint120"
        }
      ],
      "stateMutability": "view",
      "type": "function"
    },
    {
      "inputs": [
        {
          "internalType": "address",
          "name": "",
          "type": "address"
        }
      ],
      "name": "nonces",
      "outputs": [
        {
          "internalType": "uint256",
          "name": "",
          "type": "uint256"
        }
      ],
      "stateMutability": "view",
      "type": "function"
    },
    {
      "inputs": [
        {
          "internalType": "address",
          "name": "",
          "type": "address"
        },
        {
          "internalType": "uint256",
          "name": "",
          "type": "uint256"
        }
      ],
      "name": "numCheckpoints",
      "outputs": [
        {
          "internalType": "uint256",
          "name": "",
          "type": "uint256"
        }
      ],
      "stateMutability": "view",
      "type": "function"
    },
    {
      "inputs": [
        {
          "internalType": "address",
          "name": "",
          "type": "address"
        },
        {
          "internalType": "address",
          "name": "",
          "type": "address"
        },
        {
          "internalType": "uint256[]",
          "name": "",
          "type": "uint256[]"
        },
        {
          "internalType": "uint256[]",
          "name": "",
          "type": "uint256[]"
        },
        {
          "internalType": "bytes",
          "name": "",
          "type": "bytes"
        }
      ],
      "name": "onERC1155BatchReceived",
      "outputs": [
        {
          "internalType": "bytes4",
          "name": "",
          "type": "bytes4"
        }
      ],
      "stateMutability": "payable",
      "type": "function"
    },
    {
      "inputs": [
        {
          "internalType": "address",
          "name": "",
          "type": "address"
        },
        {
          "internalType": "address",
          "name": "",
          "type": "address"
        },
        {
          "internalType": "uint256",
          "name": "",
          "type": "uint256"
        },
        {
          "internalType": "uint256",
          "name": "",
          "type": "uint256"
        },
        {
          "internalType": "bytes",
          "name": "",
          "type": "bytes"
        }
      ],
      "name": "onERC1155Received",
      "outputs": [
        {
          "internalType": "bytes4",
          "name": "",
          "type": "bytes4"
        }
      ],
      "stateMutability": "payable",
      "type": "function"
    },
    {
      "inputs": [
        {
          "internalType": "address",
          "name": "",
          "type": "address"
        },
        {
          "internalType": "address",
          "name": "",
          "type": "address"
        },
        {
          "internalType": "uint256",
          "name": "",
          "type": "uint256"
        },
        {
          "internalType": "bytes",
          "name": "",
          "type": "bytes"
        }
      ],
      "name": "onERC721Received",
      "outputs": [
        {
          "internalType": "bytes4",
          "name": "",
          "type": "bytes4"
        }
      ],
      "stateMutability": "payable",
      "type": "function"
    },
    {
      "inputs": [
        {
          "internalType": "uint256",
          "name": "",
          "type": "uint256"
        }
      ],
      "name": "permissioned",
      "outputs": [
        {
          "internalType": "bool",
          "name": "",
          "type": "bool"
        }
      ],
      "stateMutability": "view",
      "type": "function"
    },
    {
      "inputs": [
        {
          "internalType": "address",
          "name": "owner",
          "type": "address"
        },
        {
          "internalType": "address",
          "name": "operator",
          "type": "address"
        },
        {
          "internalType": "bool",
          "name": "approved",
          "type": "bool"
        },
        {
          "internalType": "uint256",
          "name": "deadline",
          "type": "uint256"
        },
        {
          "internalType": "uint8",
          "name": "v",
          "type": "uint8"
        },
        {
          "internalType": "bytes32",
          "name": "r",
          "type": "bytes32"
        },
        {
          "internalType": "bytes32",
          "name": "s",
          "type": "bytes32"
        }
      ],
      "name": "permit",
      "outputs": [],
      "stateMutability": "payable",
      "type": "function"
    },
    {
      "inputs": [],
      "name": "quorum",
      "outputs": [
        {
          "internalType": "uint120",
          "name": "",
          "type": "uint120"
        }
      ],
      "stateMutability": "view",
      "type": "function"
    },
    {
      "inputs": [
        {
          "internalType": "address",
          "name": "from",
          "type": "address"
        },
        {
          "internalType": "address",
          "name": "to",
          "type": "address"
        },
        {
          "internalType": "uint256[]",
          "name": "ids",
          "type": "uint256[]"
        },
        {
          "internalType": "uint256[]",
          "name": "amounts",
          "type": "uint256[]"
        },
        {
          "internalType": "bytes",
          "name": "data",
          "type": "bytes"
        }
      ],
      "name": "safeBatchTransferFrom",
      "outputs": [],
      "stateMutability": "payable",
      "type": "function"
    },
    {
      "inputs": [
        {
          "internalType": "address",
          "name": "from",
          "type": "address"
        },
        {
          "internalType": "address",
          "name": "to",
          "type": "address"
        },
        {
          "internalType": "uint256",
          "name": "id",
          "type": "uint256"
        },
        {
          "internalType": "uint256",
          "name": "amount",
          "type": "uint256"
        },
        {
          "internalType": "bytes",
          "name": "data",
          "type": "bytes"
        }
      ],
      "name": "safeTransferFrom",
      "outputs": [],
      "stateMutability": "payable",
      "type": "function"
    },
    {
      "inputs": [
        {
          "internalType": "address",
          "name": "operator",
          "type": "address"
        },
        {
          "internalType": "bool",
          "name": "approved",
          "type": "bool"
        }
      ],
      "name": "setApprovalForAll",
      "outputs": [],
      "stateMutability": "payable",
      "type": "function"
    },
    {
      "inputs": [
        {
          "internalType": "uint256",
          "name": "id",
          "type": "uint256"
        },
        {
          "internalType": "bool",
          "name": "set",
          "type": "bool"
        }
      ],
      "name": "setPermission",
      "outputs": [],
      "stateMutability": "payable",
      "type": "function"
    },
    {
      "inputs": [
        {
          "internalType": "uint256",
          "name": "threshold",
          "type": "uint256"
        }
      ],
      "name": "setQuorum",
      "outputs": [],
      "stateMutability": "payable",
      "type": "function"
    },
    {
      "inputs": [
        {
          "internalType": "uint256",
          "name": "id",
          "type": "uint256"
        },
        {
          "internalType": "bool",
          "name": "transferability",
          "type": "bool"
        }
      ],
      "name": "setTransferability",
      "outputs": [],
      "stateMutability": "payable",
      "type": "function"
    },
    {
      "inputs": [
        {
          "internalType": "uint256",
          "name": "id",
          "type": "uint256"
        },
        {
          "internalType": "string",
          "name": "tokenURI",
          "type": "string"
        }
      ],
      "name": "setURI",
      "outputs": [],
      "stateMutability": "payable",
      "type": "function"
    },
    {
      "inputs": [
        {
          "internalType": "address",
          "name": "to",
          "type": "address"
        },
        {
          "internalType": "uint256",
          "name": "id",
          "type": "uint256"
        },
        {
          "internalType": "bool",
          "name": "set",
          "type": "bool"
        }
      ],
      "name": "setUserPermission",
      "outputs": [],
      "stateMutability": "payable",
      "type": "function"
    },
    {
      "inputs": [
        {
          "internalType": "bytes4",
          "name": "interfaceId",
          "type": "bytes4"
        }
      ],
      "name": "supportsInterface",
      "outputs": [
        {
          "internalType": "bool",
          "name": "",
          "type": "bool"
        }
      ],
      "stateMutability": "view",
      "type": "function"
    },
    {
      "inputs": [
        {
          "internalType": "uint256",
          "name": "",
          "type": "uint256"
        }
      ],
      "name": "totalSupply",
      "outputs": [
        {
          "internalType": "uint256",
          "name": "",
          "type": "uint256"
        }
      ],
      "stateMutability": "view",
      "type": "function"
    },
    {
      "inputs": [
        {
          "internalType": "uint256",
          "name": "",
          "type": "uint256"
        }
      ],
      "name": "transferable",
      "outputs": [
        {
          "internalType": "bool",
          "name": "",
          "type": "bool"
        }
      ],
      "stateMutability": "view",
      "type": "function"
    },
    {
      "inputs": [
        {
          "internalType": "uint256",
          "name": "id",
          "type": "uint256"
        }
      ],
      "name": "uri",
      "outputs": [
        {
          "internalType": "string",
          "name": "",
          "type": "string"
        }
      ],
      "stateMutability": "view",
      "type": "function"
    },
    {
      "inputs": [
        {
          "internalType": "address",
          "name": "",
          "type": "address"
        },
        {
          "internalType": "uint256",
          "name": "",
          "type": "uint256"
        }
      ],
      "name": "userPermissioned",
      "outputs": [
        {
          "internalType": "bool",
          "name": "",
          "type": "bool"
        }
      ],
      "stateMutability": "view",
      "type": "function"
    }
  ],
  "bytecode": {
    "object": "0x60c06040819052637cd0631b60805262004d2c388190039081908339810160408190526200002d916200003f565b6001600160a01b031660a05262000071565b6000602082840312156200005257600080fd5b81516001600160a01b03811681146200006a57600080fd5b9392505050565b60805160a051614c8e6200009e6000396000610b89015260008181613b760152613bc90152614c8e6000f3fe6080604052600436106102d05760003560e01c80637ecebe0011610179578063bd85b039116100d6578063f23a6e611161008a578063f51cc7dd11610064578063f51cc7dd1461094d578063f5298aca14610960578063fc95ba431461097357600080fd5b8063f23a6e61146108d1578063f242432a1461090a578063f4c3b4d71461091d57600080fd5b8063e63a562e116100bb578063e63a562e14610863578063e985e9c514610876578063eb9019d4146108b157600080fd5b8063bd85b03914610823578063c1ba4e591461085057600080fd5b8063a22cb4651161012d578063afa88bca11610112578063afa88bca14610788578063affed0e0146107c0578063bc197c81146107e857600080fd5b8063a22cb46514610755578063ac9650d81461076857600080fd5b8063836eebee1161015e578063836eebee14610702578063862440e2146107225780638cb18c121461073557600080fd5b80637ecebe00146106b5578063807df56d146106e257600080fd5b80633644e515116102325780634d6fb775116101e65780637140d960116101c05780637140d9601461067c578063731133e91461068f5780637769ea0b146106a257600080fd5b80634d6fb7751461061c5780634e1273f41461063c5780636c4b55461461066957600080fd5b80633d30ef47116102175780633d30ef47146105b6578063470bf221146105c957806349e5078c1461060957600080fd5b80633644e515146104fb578063387bbabd1461051057600080fd5b806312156691116102895780631703a0181161026e5780631703a0181461044857806327dd1b00146104a35780632eb2c2d6146104e857600080fd5b806312156691146103a4578063150b7a02146103df57600080fd5b8063026e402b116102ba578063026e402b1461034d57806306fdde03146103625780630e89341c1461038457600080fd5b8062fdd58e146102d557806301ffc9a71461031d575b600080fd5b3480156102e157600080fd5b5061030a6102f0366004613cba565b600060208181529281526040808220909352908152205481565b6040519081526020015b60405180910390f35b34801561032957600080fd5b5061033d610338366004613d15565b6109a3565b6040519015158152602001610314565b61036061035b366004613cba565b610a4b565b005b34801561036e57600080fd5b50610377610a5a565b6040516103149190613da0565b34801561039057600080fd5b5061037761039f366004613db3565b610aad565b3480156103b057600080fd5b5061033d6103bf366004613cba565b600760209081526000928352604080842090915290825290205460ff1681565b6104176103ed366004613e15565b7f150b7a020000000000000000000000000000000000000000000000000000000095945050505050565b6040517fffffffff000000000000000000000000000000000000000000000000000000009091168152602001610314565b34801561045457600080fd5b50600b54610483906f0100000000000000000000000000000090046effffffffffffffffffffffffffffff1681565b6040516effffffffffffffffffffffffffffff9091168152602001610314565b3480156104af57600080fd5b506104c36104be366004613cba565b610c38565b60405173ffffffffffffffffffffffffffffffffffffffff9091168152602001610314565b6103606104f6366004613ec9565b610c83565b34801561050757600080fd5b5061030a61113d565b34801561051c57600080fd5b5061057d61052b366004613f84565b600a60209081526000938452604080852082529284528284209052825290205464ffffffffff8116906501000000000090047affffffffffffffffffffffffffffffffffffffffffffffffffffff1682565b6040805164ffffffffff90931683527affffffffffffffffffffffffffffffffffffffffffffffffffffff909116602083015201610314565b6103606105c4366004613fb7565b611187565b3480156105d557600080fd5b506005367ffffffffffffffffffffffffffffffffffffffffffffffffffffffffffffffffe81013560f01c9003013561030a565b61036061061736600461403b565b611500565b34801561062857600080fd5b5061030a610637366004613f84565b611519565b34801561064857600080fd5b5061065c610657366004614077565b611526565b60405161031491906140e3565b61033d610677366004614136565b61166d565b61036061068a366004614201565b611924565b61036061069d36600461422d565b611937565b6103606106b0366004614201565b611954565b3480156106c157600080fd5b5061030a6106d0366004614278565b60036020526000908152604090205481565b3480156106ee57600080fd5b5061030a6106fd366004613cba565b611967565b34801561070e57600080fd5b5061030a61071d366004613f84565b611a4d565b610360610730366004614293565b611d44565b6107486107433660046142df565b611da6565b6040516103149190614321565b61036061076336600461435b565b611ed6565b61077b6107763660046142df565b611f6e565b6040516103149190614385565b34801561079457600080fd5b5061030a6107a3366004613cba565b600960209081526000928352604080842090915290825290205481565b3480156107cc57600080fd5b50600b54610483906effffffffffffffffffffffffffffff1681565b6104176107f6366004613ec9565b7fbc197c810000000000000000000000000000000000000000000000000000000098975050505050505050565b34801561082f57600080fd5b5061030a61083e366004613db3565b60046020526000908152604090205481565b61036061085e366004613db3565b611fea565b610360610871366004614416565b6120ea565b34801561088257600080fd5b5061033d610891366004614479565b600160209081526000928352604080842090915290825290205460ff1681565b3480156108bd57600080fd5b5061030a6108cc366004613cba565b61234d565b6104176108df3660046144a3565b7ff23a6e61000000000000000000000000000000000000000000000000000000009695505050505050565b6103606109183660046144a3565b612359565b34801561092957600080fd5b5061033d610938366004613db3565b60056020526000908152604090205460ff1681565b61036061095b36600461451b565b61273e565b61036061096e366004613f84565b612a55565b34801561097f57600080fd5b5061033d61098e366004613db3565b60066020526000908152604090205460ff1681565b60007fffffffff0000000000000000000000000000000000000000000000000000000082167f150b7a02000000000000000000000000000000000000000000000000000000001480610a3657507fffffffff0000000000000000000000000000000000000000000000000000000082167f4e2312e000000000000000000000000000000000000000000000000000000000145b80610a455750610a4582612bb4565b92915050565b610a56338383612c95565b5050565b6060367ffffffffffffffffffffffffffffffffffffffffffffffffffffffffffffffffe81013560f01c900335604051602001610a9991815260200190565b604051602081830303815290604052905090565b6000818152600c6020526040812080546060929190610acb90614570565b80601f0160208091040260200160405190810160405280929190818152602001828054610af790614570565b8015610b445780601f10610b1957610100808354040283529160200191610b44565b820191906000526020600020905b815481529060010190602001808311610b2757829003601f168201915b505050505090508051600014610b5a5792915050565b6040517f0e89341c000000000000000000000000000000000000000000000000000000008152600481018490527f000000000000000000000000000000000000000000000000000000000000000073ffffffffffffffffffffffffffffffffffffffff1690630e89341c90602401600060405180830381865afa158015610be5573d6000803e3d6000fd5b505050506040513d6000823e601f3d9081017fffffffffffffffffffffffffffffffffffffffffffffffffffffffffffffffe0168201604052610c2b91908101906145ec565b9392505050565b50919050565b73ffffffffffffffffffffffffffffffffffffffff80831660009081526008602090815260408083208584529091528120549091168015610c795780610c7b565b835b949350505050565b848314610cbc576040517fff633a3800000000000000000000000000000000000000000000000000000000815260040160405180910390fd5b3373ffffffffffffffffffffffffffffffffffffffff891614801590610d13575073ffffffffffffffffffffffffffffffffffffffff8816600090815260016020908152604080832033845290915290205460ff16155b15610d4a576040517fea8e4eb500000000000000000000000000000000000000000000000000000000815260040160405180910390fd5b60008060005b87811015610f4157888882818110610d6a57610d6a6146b7565b905060200201359250868682818110610d8557610d856146b7565b6000868152600560209081526040909120549102929092013593505060ff16610dda576040517f9cbe235700000000000000000000000000000000000000000000000000000000815260040160405180910390fd5b60008381526006602052604090205460ff1615610e995773ffffffffffffffffffffffffffffffffffffffff8b16600090815260076020908152604080832086845290915290205460ff161580610e62575073ffffffffffffffffffffffffffffffffffffffff8a16600090815260076020908152604080832086845290915290205460ff16155b15610e99576040517f39218f3b00000000000000000000000000000000000000000000000000000000815260040160405180910390fd5b73ffffffffffffffffffffffffffffffffffffffff8b1660009081526020818152604080832086845290915281208054849290610ed7908490614715565b909155505073ffffffffffffffffffffffffffffffffffffffff8a166000908152602081815260408083208684529091529020805483019055636c4b55468314610f3957610f39610f288c85610c38565b610f328c86610c38565b8585612d7d565b600101610d50565b508873ffffffffffffffffffffffffffffffffffffffff168a73ffffffffffffffffffffffffffffffffffffffff163373ffffffffffffffffffffffffffffffffffffffff167f4a39dc06d4c0dbc64b70af90fd698a233a518aa5d07e595d983b8c0526c8f7fb8b8b8b8b604051610fbc9493929190614773565b60405180910390a473ffffffffffffffffffffffffffffffffffffffff89163b156110e4576040517fbc197c81000000000000000000000000000000000000000000000000000000008082529073ffffffffffffffffffffffffffffffffffffffff8b169063bc197c81906110439033908f908e908e908e908e908e908e906004016147e3565b6020604051808303816000875af1158015611062573d6000803e3d6000fd5b505050506040513d601f19601f820116820180604052508101906110869190614854565b7fffffffff0000000000000000000000000000000000000000000000000000000016146110df576040517f3da6393100000000000000000000000000000000000000000000000000000000815260040160405180910390fd5b611131565b73ffffffffffffffffffffffffffffffffffffffff8916611131576040517f9c8d2cd200000000000000000000000000000000000000000000000000000000815260040160405180910390fd5b50505050505050505050565b60006005367ffffffffffffffffffffffffffffffffffffffffffffffffffffffffffffffffe81013560f01c9003013546146111805761117b612fe1565b905090565b5060025490565b600b546f0100000000000000000000000000000090046effffffffffffffffffffffffffffff16156111e5576040517fef34ca5c00000000000000000000000000000000000000000000000000000000815260040160405180910390fd5b806111ef57600080fd5b81811115611229576040517f7870f01300000000000000000000000000000000000000000000000000000000815260040160405180910390fd5b83156113435760005b848110156113415761133886868381811061124f5761124f6146b7565b90506020028101906112619190614871565b61126f9060208101906148af565b878784818110611281576112816146b7565b90506020028101906112939190614871565b6112a4906040810190602001614278565b8888858181106112b6576112b66146b7565b90506020028101906112c89190614871565b604001358989868181106112de576112de6146b7565b90506020028101906112f09190614871565b6112fe9060608101906148ca565b8080601f01602080910402602001604051908101604052809392919081815260200183838082843760009201919091525061307692505050565b50600101611232565b505b6000806000805b8581101561146f57868682818110611364576113646146b7565b90506020020160208101906113799190614278565b92508273ffffffffffffffffffffffffffffffffffffffff168473ffffffffffffffffffffffffffffffffffffffff16106113e0576040517fc90c66b500000000000000000000000000000000000000000000000000000000815260040160405180910390fd5b73ffffffffffffffffffffffffffffffffffffffff8316600081815260208181526040808320636c4b554680855292528083208054600190810190915590519697508796958101959481019433927fc3d58168c5ae7397731d063d5bbf3d657854427343f4c083240f7aacaa2d0f629261146292918252602082015260400190565b60405180910390a461134a565b50636c4b554660005260046020527fec16534cbd522d95a8d304a7b706628849f9d6fcd5d1abf57d513ce9b55ee8a9819055600b80547fffff000000000000000000000000000000ffffffffffffffffffffffffffffff166f010000000000000000000000000000006effffffffffffffffffffffffffffff8716021790556114f6613364565b5050505050505050565b611508613371565b506115148383836133de565b505050565b6000610c7b848484611a4d565b6060838214611561576040517fff633a3800000000000000000000000000000000000000000000000000000000815260040160405180910390fd5b8367ffffffffffffffff81111561157a5761157a6145bd565b6040519080825280602002602001820160405280156115a3578160200160208202803683370190505b50905060005b84811015611664576000808787848181106115c6576115c66146b7565b90506020020160208101906115db9190614278565b73ffffffffffffffffffffffffffffffffffffffff1673ffffffffffffffffffffffffffffffffffffffff1681526020019081526020016000206000858584818110611629576116296146b7565b90506020020135815260200190815260200160002054828281518110611651576116516146b7565b60209081029190910101526001016115a9565b50949350505050565b60008061167861113d565b600b546040516116c8917f7a41bb8eed3a04b9ccfc055b3e6b3247171ef52d9f9a1242a8f6a4bd2b40ed9e918d918d918d918d918d916effffffffffffffffffffffffffffff1690602001614999565b604051602081830303815290604052805190602001206040516020016117209291907f190100000000000000000000000000000000000000000000000000000000000081526002810192909252602282015260420190565b604080518083037fffffffffffffffffffffffffffffffffffffffffffffffffffffffffffffffe00181528282528051602091820120600b546080850184526000808652928501839052928401829052606084018290529350916f010000000000000000000000000000009091046effffffffffffffffffffffffffffff169060005b828110156118d1578787828181106117bd576117bd6146b7565b9050608002018036038101906117d39190614a07565b91506000826000015190506117f78682856020015186604001518760600151613476565b73ffffffffffffffffffffffffffffffffffffffff8116600090815260208181526040808320636c4b554684529091528120549003611862576040517fc90c66b500000000000000000000000000000000000000000000000000000000815260040160405180910390fd5b8073ffffffffffffffffffffffffffffffffffffffff168573ffffffffffffffffffffffffffffffffffffffff16106118c7576040517fc90c66b500000000000000000000000000000000000000000000000000000000815260040160405180910390fd5b93506001016117a3565b506119148c8c8c8c8c8080601f01602080910402602001604051908101604052809392919081815260200183838082843760009201919091525061307692505050565b9c9b505050505050505050505050565b61192c613371565b50610a56828261357e565b61193f613371565b5061194d85858585856135ee565b5050505050565b61195c613371565b50610a56828261380c565b73ffffffffffffffffffffffffffffffffffffffff821660009081526009602090815260408083208484529091528120548082036119a6576000611a28565b73ffffffffffffffffffffffffffffffffffffffff84166000908152600a6020908152604080832086845282528083207fffffffffffffffffffffffffffffffffffffffffffffffffffffffffffffffff850184529091529020546501000000000090047affffffffffffffffffffffffffffffffffffffffffffffffffffff165b7affffffffffffffffffffffffffffffffffffffffffffffffffffff16949350505050565b6000814211611a88576040517f2db2ae9900000000000000000000000000000000000000000000000000000000815260040160405180910390fd5b73ffffffffffffffffffffffffffffffffffffffff8416600090815260096020908152604080832086845290915281205490819003611acb576000915050610c2b565b73ffffffffffffffffffffffffffffffffffffffff85166000908152600a6020908152604080832087845282528083207fffffffffffffffffffffffffffffffffffffffffffffffffffffffffffffffff850180855292529091205464ffffffffff168410611b9b5773ffffffffffffffffffffffffffffffffffffffff86166000908152600a60209081526040808320888452825280832093835292905220546501000000000090047affffffffffffffffffffffffffffffffffffffffffffffffffffff169150610c2b9050565b73ffffffffffffffffffffffffffffffffffffffff86166000908152600a60209081526040808320888452825280832083805290915290205464ffffffffff16841015611bed57600092505050610c2b565b6000815b81811115611cd95773ffffffffffffffffffffffffffffffffffffffff88166000908152600a602090815260408083208a8452825280832060028686030485038085529083529281902081518083019092525464ffffffffff8116808352650100000000009091047affffffffffffffffffffffffffffffffffffffffffffffffffffff169282019290925290889003611cb357602001517affffffffffffffffffffffffffffffffffffffffffffffffffffff169550610c2b945050505050565b805164ffffffffff16881115611ccb57819350611cd2565b6001820392505b5050611bf1565b5073ffffffffffffffffffffffffffffffffffffffff87166000908152600a60209081526040808320898452825280832093835292905220547affffffffffffffffffffffffffffffffffffffffffffffffffffff6501000000000090910416925050509392505050565b611d4c613371565b506000838152600c60205260409020611d66828483614abf565b50827f6bb7ff708619ba0610cba295a58592e0451dee2622938c8755667688daf3529b8383604051611d99929190614bd9565b60405180910390a2505050565b6060611db0613371565b508167ffffffffffffffff811115611dca57611dca6145bd565b604051908082528060200260200182016040528015611df3578160200160208202803683370190505b50905060005b82811015611ecf57611ea5848483818110611e1657611e166146b7565b9050602002810190611e289190614871565b611e369060208101906148af565b858584818110611e4857611e486146b7565b9050602002810190611e5a9190614871565b611e6b906040810190602001614278565b868685818110611e7d57611e7d6146b7565b9050602002810190611e8f9190614871565b604001358787868181106112de576112de6146b7565b828281518110611eb757611eb76146b7565b91151560209283029190910190910152600101611df9565b5092915050565b33600081815260016020908152604080832073ffffffffffffffffffffffffffffffffffffffff87168085529083529281902080547fffffffffffffffffffffffffffffffffffffffffffffffffffffffffffffff001686151590811790915590519081529192917f17307eab39ab6107e8899845ad3d59bd9653f200f220920489ca2b5937696c3191015b60405180910390a35050565b60608115610a455750604051818152602001600582901b808483378101805b825185018035602082018337600080823584305af4611fb0573d6000803e3d6000fd5b508083526020830192503d81523d6000602083013e3d01603f0167ffffffffffffffe016818310611f8d5760408051919052949350505050565b611ff2613371565b5080611ffd57600080fd5b636c4b554660005260046020527fec16534cbd522d95a8d304a7b706628849f9d6fcd5d1abf57d513ce9b55ee8a954811115612065576040517f7870f01300000000000000000000000000000000000000000000000000000000815260040160405180910390fd5b600b80547fffff000000000000000000000000000000ffffffffffffffffffffffffffffff166f010000000000000000000000000000006effffffffffffffffffffffffffffff84160217905560405181815233907fc8bdbc84626c082832bea9ab3c3626d6941b91b2df27cc2f8b621597415e4d869060200160405180910390a250565b84421115612124576040517fdb5ef3ff00000000000000000000000000000000000000000000000000000000815260040160405180910390fd5b6000600161213061113d565b604080517f6cbc5a524b1126d061ad7096b321232bc521d16153a9fd94383ceca0c153e343602082015273ffffffffffffffffffffffffffffffffffffffff8c1691810191909152606081018a90526080810189905260a0810188905260c001604051602081830303815290604052805190602001206040516020016121e89291907f190100000000000000000000000000000000000000000000000000000000000081526002810192909252602282015260420190565b604080517fffffffffffffffffffffffffffffffffffffffffffffffffffffffffffffffe08184030181528282528051602091820120600084529083018083525260ff871690820152606081018590526080810184905260a0016020604051602081039080840390855afa158015612264573d6000803e3d6000fd5b50506040517fffffffffffffffffffffffffffffffffffffffffffffffffffffffffffffffe0015191505073ffffffffffffffffffffffffffffffffffffffff81166122dc576040517fc90c66b500000000000000000000000000000000000000000000000000000000815260040160405180910390fd5b73ffffffffffffffffffffffffffffffffffffffff811660009081526003602052604090208054600181019091558714612342576040517fc90c66b500000000000000000000000000000000000000000000000000000000815260040160405180910390fd5b6114f6818987612c95565b6000610c2b8383611967565b3373ffffffffffffffffffffffffffffffffffffffff8716148015906123b0575073ffffffffffffffffffffffffffffffffffffffff8616600090815260016020908152604080832033845290915290205460ff16155b156123e7576040517fea8e4eb500000000000000000000000000000000000000000000000000000000815260040160405180910390fd5b60008481526005602052604090205460ff1661242f576040517f9cbe235700000000000000000000000000000000000000000000000000000000815260040160405180910390fd5b60008481526006602052604090205460ff16156124ee5773ffffffffffffffffffffffffffffffffffffffff8616600090815260076020908152604080832087845290915290205460ff1615806124b7575073ffffffffffffffffffffffffffffffffffffffff8516600090815260076020908152604080832087845290915290205460ff16155b156124ee576040517f39218f3b00000000000000000000000000000000000000000000000000000000815260040160405180910390fd5b73ffffffffffffffffffffffffffffffffffffffff86166000908152602081815260408083208784529091528120805485929061252c908490614715565b909155505073ffffffffffffffffffffffffffffffffffffffff8581166000818152602081815260408083208984528252918290208054880190558151888152908101879052919289169133917fc3d58168c5ae7397731d063d5bbf3d657854427343f4c083240f7aacaa2d0f62910160405180910390a473ffffffffffffffffffffffffffffffffffffffff85163b156126c0576040517ff23a6e61000000000000000000000000000000000000000000000000000000008082529073ffffffffffffffffffffffffffffffffffffffff87169063f23a6e619061261f9033908b908a908a908a908a90600401614bed565b6020604051808303816000875af115801561263e573d6000803e3d6000fd5b505050506040513d601f19601f820116820180604052508101906126629190614854565b7fffffffff0000000000000000000000000000000000000000000000000000000016146126bb576040517f3da6393100000000000000000000000000000000000000000000000000000000815260040160405180910390fd5b61270d565b73ffffffffffffffffffffffffffffffffffffffff851661270d576040517f9c8d2cd200000000000000000000000000000000000000000000000000000000815260040160405180910390fd5b636c4b55468414612736576127366127258786610c38565b61272f8787610c38565b8686612d7d565b505050505050565b83421115612778576040517fdb5ef3ff00000000000000000000000000000000000000000000000000000000815260040160405180910390fd5b6000600161278461113d565b73ffffffffffffffffffffffffffffffffffffffff8a811660008181526003602090815260409182902080546001810190915582517f7bf72c3e57bc00556754c7454ead7d72d1c0e263909e7c643fbc0d1e0f3c3e748184015280840194909452938d1660608401528b1515608084015260a083019390935260c08083018b90528151808403909101815260e0830190915280519201919091207f190100000000000000000000000000000000000000000000000000000000000061010083015261010282019290925261012281019190915261014201604080517fffffffffffffffffffffffffffffffffffffffffffffffffffffffffffffffe08184030181528282528051602091820120600084529083018083525260ff871690820152606081018590526080810184905260a0016020604051602081039080840390855afa1580156128d7573d6000803e3d6000fd5b50506040517fffffffffffffffffffffffffffffffffffffffffffffffffffffffffffffffe0015191505073ffffffffffffffffffffffffffffffffffffffff811661294f576040517fc90c66b500000000000000000000000000000000000000000000000000000000815260040160405180910390fd5b8773ffffffffffffffffffffffffffffffffffffffff168173ffffffffffffffffffffffffffffffffffffffff16146129b4576040517fc90c66b500000000000000000000000000000000000000000000000000000000815260040160405180910390fd5b73ffffffffffffffffffffffffffffffffffffffff90811660009081526001602090815260408083208a85168085529083529281902080547fffffffffffffffffffffffffffffffffffffffffffffffffffffffffffffff00168a1515908117909155905190815291928a16917f17307eab39ab6107e8899845ad3d59bd9653f200f220920489ca2b5937696c31910160405180910390a350505050505050565b3373ffffffffffffffffffffffffffffffffffffffff841614801590612aac575073ffffffffffffffffffffffffffffffffffffffff8316600090815260016020908152604080832033845290915290205460ff16155b8015612abd5750612abb613371565b155b15612af4576040517fea8e4eb500000000000000000000000000000000000000000000000000000000815260040160405180910390fd5b612aff83838361387c565b7fffffffffffffffffffffffffffffffffffffffffffffffffffffffff93b4aaba820161151457636c4b554660005260046020527fec16534cbd522d95a8d304a7b706628849f9d6fcd5d1abf57d513ce9b55ee8a954600b546f0100000000000000000000000000000090046effffffffffffffffffffffffffffff161115611514576040517f7870f01300000000000000000000000000000000000000000000000000000000815260040160405180910390fd5b60007fffffffff0000000000000000000000000000000000000000000000000000000082167f01ffc9a7000000000000000000000000000000000000000000000000000000001480612c4757507fd9b67a26000000000000000000000000000000000000000000000000000000007fffffffff000000000000000000000000000000000000000000000000000000008316145b80610a455750507fffffffff00000000000000000000000000000000000000000000000000000000167f0e89341c000000000000000000000000000000000000000000000000000000001490565b6000612ca18483610c38565b73ffffffffffffffffffffffffffffffffffffffff858116600081815260086020908152604080832088845282529182902080547fffffffffffffffffffffffff00000000000000000000000000000000000000001689861690811790915591518781529495509093928516927f287e04de574701d97a55bd9ea85b32defecf76a607b8007ee9ae8c126bf7a746910160405180910390a473ffffffffffffffffffffffffffffffffffffffff8416600090815260208181526040808320858452909152902054612d7790829085908590612d7d565b50505050565b8273ffffffffffffffffffffffffffffffffffffffff168473ffffffffffffffffffffffffffffffffffffffff1614158015612db857508015155b15612d775773ffffffffffffffffffffffffffffffffffffffff841615612ed35773ffffffffffffffffffffffffffffffffffffffff8416600090815260096020908152604080832085845290915281205490818103612e19576000612e9b565b73ffffffffffffffffffffffffffffffffffffffff86166000908152600a6020908152604080832087845282528083207fffffffffffffffffffffffffffffffffffffffffffffffffffffffffffffffff860184529091529020546501000000000090047affffffffffffffffffffffffffffffffffffffffffffffffffffff165b7affffffffffffffffffffffffffffffffffffffffffffffffffffff169050612ed086858484612ecb8882614715565b613948565b50505b73ffffffffffffffffffffffffffffffffffffffff831615612d775773ffffffffffffffffffffffffffffffffffffffff8316600090815260096020908152604080832085845290915281205490818103612f2f576000612fb1565b73ffffffffffffffffffffffffffffffffffffffff85166000908152600a6020908152604080832087845282528083207fffffffffffffffffffffffffffffffffffffffffffffffffffffffffffffffff860184529091529020546501000000000090047affffffffffffffffffffffffffffffffffffffffffffffffffffff165b7affffffffffffffffffffffffffffffffffffffffffffffffffffff16905061273685858484612ecb8882614c3f565b60007f8b73c3c69bb8fe3d512ecc4cf759cc79239f7b179b0ffacaa9a75d522b39400f61300c610a5a565b80516020918201206040805192830193909352918101919091527fc89efdaa54c0f20c7adf612882df0950f5a951637e0307cdcb4c672f298b8bc660608201524660808201523060a082015260c00160405160208183030381529060405280519060200120905090565b600b80546effffffffffffffffffffffffffffff808216600101167fffffffffffffffffffffffffffffffffff0000000000000000000000000000009091161790556000808560038111156130cd576130cd61492f565b0361316f5760008083516020850186885af1905080613118576040517fd6bed87300000000000000000000000000000000000000000000000000000000815260040160405180910390fd5b8373ffffffffffffffffffffffffffffffffffffffff167ffa3c55dc43f5cfdeb2abee243c63ad490db2fee39fd127076ed9e7afa15ad63886858560405161316293929190614c52565b60405180910390a2610c7b565b60018560038111156131835761318361492f565b036131cd57600080835160208501875af4905080613118576040517fd6bed87300000000000000000000000000000000000000000000000000000000815260040160405180910390fd5b60028560038111156131e1576131e161492f565b0361329757600082516020840185f0905073ffffffffffffffffffffffffffffffffffffffff811661323f576040517fd6bed87300000000000000000000000000000000000000000000000000000000815260040160405180910390fd5b8073ffffffffffffffffffffffffffffffffffffffff167ffa3c55dc43f5cfdeb2abee243c63ad490db2fee39fd127076ed9e7afa15ad63887868660405161328993929190614c52565b60405180910390a250610c7b565b600b5482516000916effffffffffffffffffffffffffffff169081906020860187f5915073ffffffffffffffffffffffffffffffffffffffff8216613308576040517fd6bed87300000000000000000000000000000000000000000000000000000000815260040160405180910390fd5b8173ffffffffffffffffffffffffffffffffffffffff167ffa3c55dc43f5cfdeb2abee243c63ad490db2fee39fd127076ed9e7afa15ad63888878760405161335293929190614c52565b60405180910390a25050949350505050565b61336c612fe1565b600255565b600061337b613b74565b806133a1575033600090815260208181526040808320833560e01c845290915290205415155b156133ac5750600190565b6040517fea8e4eb500000000000000000000000000000000000000000000000000000000815260040160405180910390fd5b73ffffffffffffffffffffffffffffffffffffffff8316600081815260076020908152604080832086845282529182902080547fffffffffffffffffffffffffffffffffffffffffffffffffffffffffffffff0016851515908117909155915191825284929133917feddd965981459de97ba24736b7f86682d883ccd91dd7216e944bf3461bd342ac910160405180910390a4505050565b60006040517f7fffffffffffffffffffffffffffffff5d576e7357a4501ddfe92f46681b20a083116134cc5786600052846020528360405282606052602060406080600060015afa5060006060523d6060035191505b60405273ffffffffffffffffffffffffffffffffffffffff85811690821614612736576000604051631626ba7e60e01b80825288600483015260406024830152604160448301528560648301528460848301528660a48301536020600060a5848b5afa60203d14826000511416169250505080613575576040517fc90c66b500000000000000000000000000000000000000000000000000000000815260040160405180910390fd5b50505050505050565b60008281526005602090815260409182902080547fffffffffffffffffffffffffffffffffffffffffffffffffffffffffffffff00168415159081179091559151918252839133917f030b8b6f293952c4e53cc2ac59481057844588ce19c7d10ca5468e4d6938f1959101611f62565b6000848152600460205260408120805461361b92869291613610908490614c3f565b925050819055613bf5565b5073ffffffffffffffffffffffffffffffffffffffff85166000818152602081815260408083208884528252808320805488019055805188815291820187905233917fc3d58168c5ae7397731d063d5bbf3d657854427343f4c083240f7aacaa2d0f62910160405180910390a473ffffffffffffffffffffffffffffffffffffffff85163b156137a5576040517ff23a6e61000000000000000000000000000000000000000000000000000000008082529073ffffffffffffffffffffffffffffffffffffffff87169063f23a6e61906137049033906000908a908a908a908a90600401614bed565b6020604051808303816000875af1158015613723573d6000803e3d6000fd5b505050506040513d601f19601f820116820180604052508101906137479190614854565b7fffffffff0000000000000000000000000000000000000000000000000000000016146137a0576040517f3da6393100000000000000000000000000000000000000000000000000000000815260040160405180910390fd5b6137f2565b73ffffffffffffffffffffffffffffffffffffffff85166137f2576040517f9c8d2cd200000000000000000000000000000000000000000000000000000000815260040160405180910390fd5b636c4b5546841461194d5761194d600061272f8787610c38565b60008281526006602090815260409182902080547fffffffffffffffffffffffffffffffffffffffffffffffffffffffffffffff00168415159081179091559151918252839133917fe5718fbb4306c0fd3ddee9c0c5459ee4b1a1dc19271ce6bd9447c6938e544af49101611f62565b73ffffffffffffffffffffffffffffffffffffffff8316600090815260208181526040808320858452909152812080548392906138ba908490614715565b9091555050600082815260046020908152604080832080548590039055805185815291820184905273ffffffffffffffffffffffffffffffffffffffff86169133917fc3d58168c5ae7397731d063d5bbf3d657854427343f4c083240f7aacaa2d0f62910160405180910390a4636c4b554682146115145761151461393f8484610c38565b60008484612d7d565b82158015906139b7575073ffffffffffffffffffffffffffffffffffffffff85166000908152600a6020908152604080832087845282528083207fffffffffffffffffffffffffffffffffffffffffffffffffffffffffffffffff8701845290915290205464ffffffffff1642145b15613a5d576139c581613bf5565b73ffffffffffffffffffffffffffffffffffffffff86166000908152600a6020908152604080832088845282528083207fffffffffffffffffffffffffffffffffffffffffffffffffffffffffffffffff88018452909152902080547affffffffffffffffffffffffffffffffffffffffffffffffffffff92909216650100000000000264ffffffffff909216919091179055613b1a565b6040518060400160405280613a7142613c50565b64ffffffffff168152602001613a8683613bf5565b7affffffffffffffffffffffffffffffffffffffffffffffffffffff90811690915273ffffffffffffffffffffffffffffffffffffffff87166000818152600a602090815260408083208a845282528083208984528252808320865196830151909516650100000000000264ffffffffff909616959095179093559081526009825282812087825290915220805460010190555b6040805183815260208101839052859173ffffffffffffffffffffffffffffffffffffffff8816917f21a99d51b8a0a2e2ead709843a1ecfaab977908135cf1c085c0a6246eea6e0f0910160405180910390a35050505050565b7f0000000000000000000000000000000000000000000000000000000000000000600090815260046020526040812054158015613bb057503330145b8061117b575050336000908152602081815260408083207f00000000000000000000000000000000000000000000000000000000000000008452909152902054151590565b60007b010000000000000000000000000000000000000000000000000000008210613c4c576040517f35278d1200000000000000000000000000000000000000000000000000000000815260040160405180910390fd5b5090565b6000650100000000008210613c4c576040517f35278d1200000000000000000000000000000000000000000000000000000000815260040160405180910390fd5b803573ffffffffffffffffffffffffffffffffffffffff81168114613cb557600080fd5b919050565b60008060408385031215613ccd57600080fd5b613cd683613c91565b946020939093013593505050565b7fffffffff0000000000000000000000000000000000000000000000000000000081168114613d1257600080fd5b50565b600060208284031215613d2757600080fd5b8135610c2b81613ce4565b60005b83811015613d4d578181015183820152602001613d35565b50506000910152565b60008151808452613d6e816020860160208601613d32565b601f017fffffffffffffffffffffffffffffffffffffffffffffffffffffffffffffffe0169290920160200192915050565b602081526000610c2b6020830184613d56565b600060208284031215613dc557600080fd5b5035919050565b60008083601f840112613dde57600080fd5b50813567ffffffffffffffff811115613df657600080fd5b602083019150836020828501011115613e0e57600080fd5b9250929050565b600080600080600060808688031215613e2d57600080fd5b613e3686613c91565b9450613e4460208701613c91565b935060408601359250606086013567ffffffffffffffff811115613e6757600080fd5b613e7388828901613dcc565b969995985093965092949392505050565b60008083601f840112613e9657600080fd5b50813567ffffffffffffffff811115613eae57600080fd5b6020830191508360208260051b8501011115613e0e57600080fd5b60008060008060008060008060a0898b031215613ee557600080fd5b613eee89613c91565b9750613efc60208a01613c91565b9650604089013567ffffffffffffffff80821115613f1957600080fd5b613f258c838d01613e84565b909850965060608b0135915080821115613f3e57600080fd5b613f4a8c838d01613e84565b909650945060808b0135915080821115613f6357600080fd5b50613f708b828c01613dcc565b999c989b5096995094979396929594505050565b600080600060608486031215613f9957600080fd5b613fa284613c91565b95602085013595506040909401359392505050565b600080600080600060608688031215613fcf57600080fd5b853567ffffffffffffffff80821115613fe757600080fd5b613ff389838a01613e84565b9097509550602088013591508082111561400c57600080fd5b5061401988828901613e84565b96999598509660400135949350505050565b80358015158114613cb557600080fd5b60008060006060848603121561405057600080fd5b61405984613c91565b92506020840135915061406e6040850161402b565b90509250925092565b6000806000806040858703121561408d57600080fd5b843567ffffffffffffffff808211156140a557600080fd5b6140b188838901613e84565b909650945060208701359150808211156140ca57600080fd5b506140d787828801613e84565b95989497509550505050565b6020808252825182820181905260009190848201906040850190845b8181101561411b578351835292840192918401916001016140ff565b50909695505050505050565b803560048110613cb557600080fd5b600080600080600080600060a0888a03121561415157600080fd5b61415a88614127565b965061416860208901613c91565b955060408801359450606088013567ffffffffffffffff8082111561418c57600080fd5b6141988b838c01613dcc565b909650945060808a01359150808211156141b157600080fd5b818a0191508a601f8301126141c557600080fd5b8135818111156141d457600080fd5b8b60208260071b85010111156141e957600080fd5b60208301945080935050505092959891949750929550565b6000806040838503121561421457600080fd5b823591506142246020840161402b565b90509250929050565b60008060008060006080868803121561424557600080fd5b61424e86613c91565b94506020860135935060408601359250606086013567ffffffffffffffff811115613e6757600080fd5b60006020828403121561428a57600080fd5b610c2b82613c91565b6000806000604084860312156142a857600080fd5b83359250602084013567ffffffffffffffff8111156142c657600080fd5b6142d286828701613dcc565b9497909650939450505050565b600080602083850312156142f257600080fd5b823567ffffffffffffffff81111561430957600080fd5b61431585828601613e84565b90969095509350505050565b6020808252825182820181905260009190848201906040850190845b8181101561411b57835115158352928401929184019160010161433d565b6000806040838503121561436e57600080fd5b61437783613c91565b91506142246020840161402b565b6000602080830181845280855180835260408601915060408160051b870101925083870160005b828110156143f8577fffffffffffffffffffffffffffffffffffffffffffffffffffffffffffffffc08886030184526143e6858351613d56565b945092850192908501906001016143ac565b5092979650505050505050565b803560ff81168114613cb557600080fd5b600080600080600080600060e0888a03121561443157600080fd5b61443a88613c91565b965060208801359550604088013594506060880135935061445d60808901614405565b925060a0880135915060c0880135905092959891949750929550565b6000806040838503121561448c57600080fd5b61449583613c91565b915061422460208401613c91565b60008060008060008060a087890312156144bc57600080fd5b6144c587613c91565b95506144d360208801613c91565b94506040870135935060608701359250608087013567ffffffffffffffff8111156144fd57600080fd5b61450989828a01613dcc565b979a9699509497509295939492505050565b600080600080600080600060e0888a03121561453657600080fd5b61453f88613c91565b965061454d60208901613c91565b955061455b6040890161402b565b94506060880135935061445d60808901614405565b600181811c9082168061458457607f821691505b602082108103610c32577f4e487b7100000000000000000000000000000000000000000000000000000000600052602260045260246000fd5b7f4e487b7100000000000000000000000000000000000000000000000000000000600052604160045260246000fd5b6000602082840312156145fe57600080fd5b815167ffffffffffffffff8082111561461657600080fd5b818401915084601f83011261462a57600080fd5b81518181111561463c5761463c6145bd565b604051601f82017fffffffffffffffffffffffffffffffffffffffffffffffffffffffffffffffe0908116603f01168101908382118183101715614682576146826145bd565b8160405282815287602084870101111561469b57600080fd5b6146ac836020830160208801613d32565b979650505050505050565b7f4e487b7100000000000000000000000000000000000000000000000000000000600052603260045260246000fd5b7f4e487b7100000000000000000000000000000000000000000000000000000000600052601160045260246000fd5b81810381811115610a4557610a456146e6565b81835260007f07ffffffffffffffffffffffffffffffffffffffffffffffffffffffffffffff83111561475a57600080fd5b8260051b80836020870137939093016020019392505050565b604081526000614787604083018688614728565b82810360208401526146ac818587614728565b8183528181602085013750600060208284010152600060207fffffffffffffffffffffffffffffffffffffffffffffffffffffffffffffffe0601f840116840101905092915050565b600073ffffffffffffffffffffffffffffffffffffffff808b168352808a1660208401525060a0604083015261481d60a08301888a614728565b8281036060840152614830818789614728565b9050828103608084015261484581858761479a565b9b9a5050505050505050505050565b60006020828403121561486657600080fd5b8151610c2b81613ce4565b600082357fffffffffffffffffffffffffffffffffffffffffffffffffffffffffffffff818336030181126148a557600080fd5b9190910192915050565b6000602082840312156148c157600080fd5b610c2b82614127565b60008083357fffffffffffffffffffffffffffffffffffffffffffffffffffffffffffffffe18436030181126148ff57600080fd5b83018035915067ffffffffffffffff82111561491a57600080fd5b602001915036819003821315613e0e57600080fd5b7f4e487b7100000000000000000000000000000000000000000000000000000000600052602160045260246000fd5b60048110614995577f4e487b7100000000000000000000000000000000000000000000000000000000600052602160045260246000fd5b9052565b8781526149a9602082018861495e565b73ffffffffffffffffffffffffffffffffffffffff8616604082015284606082015260c0608082015260006149e260c08301858761479a565b90506effffffffffffffffffffffffffffff831660a083015298975050505050505050565b600060808284031215614a1957600080fd5b6040516080810181811067ffffffffffffffff82111715614a3c57614a3c6145bd565b604052614a4883613c91565b8152614a5660208401614405565b602082015260408301356040820152606083013560608201528091505092915050565b601f82111561151457600081815260208120601f850160051c81016020861015614aa05750805b601f850160051c820191505b8181101561273657828155600101614aac565b67ffffffffffffffff831115614ad757614ad76145bd565b614aeb83614ae58354614570565b83614a79565b6000601f841160018114614b3d5760008515614b075750838201355b7fffffffffffffffffffffffffffffffffffffffffffffffffffffffffffffffff600387901b1c1916600186901b17835561194d565b6000838152602090207fffffffffffffffffffffffffffffffffffffffffffffffffffffffffffffffe0861690835b82811015614b8c5786850135825560209485019460019092019101614b6c565b5086821015614bc7577fffffffffffffffffffffffffffffffffffffffffffffffffffffffffffffffff60f88860031b161c19848701351681555b505060018560011b0183555050505050565b602081526000610c7b60208301848661479a565b600073ffffffffffffffffffffffffffffffffffffffff808916835280881660208401525085604083015284606083015260a06080830152614c3360a08301848661479a565b98975050505050505050565b80820180821115610a4557610a456146e6565b614c5c818561495e565b826020820152606060408201526000614c786060830184613d56565b9594505050505056fea164736f6c6343000811000a",
    "linkReferences": {}
  },
  "methodIdentifiers": {
    "DOMAIN_SEPARATOR()": "3644e515",
    "_initialChainId()": "470bf221",
    "balanceOf(address,uint256)": "00fdd58e",
    "balanceOfBatch(address[],uint256[])": "4e1273f4",
    "burn(address,uint256,uint256)": "f5298aca",
    "checkpoints(address,uint256,uint256)": "387bbabd",
    "delegate(address,uint256)": "026e402b",
    "delegateBySig(address,uint256,uint256,uint256,uint8,bytes32,bytes32)": "e63a562e",
    "delegates(address,uint256)": "27dd1b00",
    "execute(uint8,address,uint256,bytes,(address,uint8,bytes32,bytes32)[])": "6c4b5546",
    "getCurrentVotes(address,uint256)": "807df56d",
    "getPastVotes(address,uint256,uint256)": "4d6fb775",
    "getPriorVotes(address,uint256,uint256)": "836eebee",
    "getVotes(address,uint256)": "eb9019d4",
    "initialize((uint8,address,uint256,bytes)[],address[],uint256)": "3d30ef47",
    "isApprovedForAll(address,address)": "e985e9c5",
    "mint(address,uint256,uint256,bytes)": "731133e9",
    "multiExecute((uint8,address,uint256,bytes)[])": "8cb18c12",
    "multicall(bytes[])": "ac9650d8",
    "name()": "06fdde03",
    "nonce()": "affed0e0",
    "nonces(address)": "7ecebe00",
    "numCheckpoints(address,uint256)": "afa88bca",
    "onERC1155BatchReceived(address,address,uint256[],uint256[],bytes)": "bc197c81",
    "onERC1155Received(address,address,uint256,uint256,bytes)": "f23a6e61",
    "onERC721Received(address,address,uint256,bytes)": "150b7a02",
    "permissioned(uint256)": "fc95ba43",
    "permit(address,address,bool,uint256,uint8,bytes32,bytes32)": "f51cc7dd",
    "quorum()": "1703a018",
    "safeBatchTransferFrom(address,address,uint256[],uint256[],bytes)": "2eb2c2d6",
    "safeTransferFrom(address,address,uint256,uint256,bytes)": "f242432a",
    "setApprovalForAll(address,bool)": "a22cb465",
    "setPermission(uint256,bool)": "7769ea0b",
    "setQuorum(uint256)": "c1ba4e59",
    "setTransferability(uint256,bool)": "7140d960",
    "setURI(uint256,string)": "862440e2",
    "setUserPermission(address,uint256,bool)": "49e5078c",
    "supportsInterface(bytes4)": "01ffc9a7",
    "totalSupply(uint256)": "bd85b039",
    "transferable(uint256)": "f4c3b4d7",
    "uri(uint256)": "0e89341c",
    "userPermissioned(address,uint256)": "12156691"
  },
  "id": 19
}