{
  "abi": [
    {
      "inputs": [
        {
          "internalType": "contract Keep",
          "name": "_uriFetcher",
          "type": "address"
        }
      ],
      "stateMutability": "payable",
      "type": "constructor"
    },
    {
      "inputs": [],
      "name": "ALREADY_INIT",
      "type": "error"
    },
    {
      "inputs": [],
      "name": "EXECUTE_FAILED",
      "type": "error"
    },
    {
      "inputs": [],
      "name": "INVALID_RECIPIENT",
      "type": "error"
    },
    {
      "inputs": [],
      "name": "INVALID_SIG",
      "type": "error"
    },
    {
      "inputs": [],
      "name": "LENGTH_MISMATCH",
      "type": "error"
    },
    {
      "inputs": [],
      "name": "NONTRANSFERABLE",
      "type": "error"
    },
    {
      "inputs": [],
      "name": "NOT_AUTHORIZED",
      "type": "error"
    },
    {
      "inputs": [],
      "name": "OVERFLOW",
      "type": "error"
    },
    {
      "inputs": [],
      "name": "QUORUM_OVER_SUPPLY",
      "type": "error"
    },
    {
      "inputs": [],
      "name": "UNDETERMINED",
      "type": "error"
    },
    {
      "anonymous": false,
      "inputs": [
        {
          "indexed": true,
          "internalType": "address",
          "name": "owner",
          "type": "address"
        },
        {
          "indexed": true,
          "internalType": "address",
          "name": "operator",
          "type": "address"
        },
        {
          "indexed": false,
          "internalType": "bool",
          "name": "approved",
          "type": "bool"
        }
      ],
      "name": "ApprovalForAll",
      "type": "event"
    },
    {
      "anonymous": false,
      "inputs": [
        {
          "indexed": false,
          "internalType": "enum Operation",
          "name": "op",
          "type": "uint8"
        },
        {
          "indexed": true,
          "internalType": "address",
          "name": "creation",
          "type": "address"
        },
        {
          "indexed": false,
          "internalType": "uint256",
          "name": "value",
          "type": "uint256"
        }
      ],
      "name": "ContractCreated",
      "type": "event"
    },
    {
      "anonymous": false,
      "inputs": [
        {
          "indexed": true,
          "internalType": "address",
          "name": "delegator",
          "type": "address"
        },
        {
          "indexed": true,
          "internalType": "address",
          "name": "fromDelegate",
          "type": "address"
        },
        {
          "indexed": true,
          "internalType": "address",
          "name": "toDelegate",
          "type": "address"
        },
        {
          "indexed": false,
          "internalType": "uint256",
          "name": "id",
          "type": "uint256"
        }
      ],
      "name": "DelegateChanged",
      "type": "event"
    },
    {
      "anonymous": false,
      "inputs": [
        {
          "indexed": true,
          "internalType": "address",
          "name": "delegate",
          "type": "address"
        },
        {
          "indexed": true,
          "internalType": "uint256",
          "name": "id",
          "type": "uint256"
        },
        {
          "indexed": false,
          "internalType": "uint256",
          "name": "previousBalance",
          "type": "uint256"
        },
        {
          "indexed": false,
          "internalType": "uint256",
          "name": "newBalance",
          "type": "uint256"
        }
      ],
      "name": "DelegateVotesChanged",
      "type": "event"
    },
    {
      "anonymous": false,
      "inputs": [
        {
          "indexed": false,
          "internalType": "enum Operation",
          "name": "op",
          "type": "uint8"
        },
        {
          "indexed": true,
          "internalType": "address",
          "name": "to",
          "type": "address"
        },
        {
          "indexed": false,
          "internalType": "uint256",
          "name": "value",
          "type": "uint256"
        },
        {
          "indexed": false,
          "internalType": "bytes",
          "name": "data",
          "type": "bytes"
        }
      ],
      "name": "Executed",
      "type": "event"
    },
    {
      "anonymous": false,
      "inputs": [
        {
          "indexed": true,
          "internalType": "address",
          "name": "caller",
          "type": "address"
        },
        {
          "indexed": false,
          "internalType": "uint256",
          "name": "threshold",
          "type": "uint256"
        }
      ],
      "name": "QuorumSet",
      "type": "event"
    },
    {
      "anonymous": false,
      "inputs": [
        {
          "indexed": true,
          "internalType": "address",
          "name": "operator",
          "type": "address"
        },
        {
          "indexed": true,
          "internalType": "address",
          "name": "from",
          "type": "address"
        },
        {
          "indexed": true,
          "internalType": "address",
          "name": "to",
          "type": "address"
        },
        {
          "indexed": false,
          "internalType": "uint256[]",
          "name": "ids",
          "type": "uint256[]"
        },
        {
          "indexed": false,
          "internalType": "uint256[]",
          "name": "amounts",
          "type": "uint256[]"
        }
      ],
      "name": "TransferBatch",
      "type": "event"
    },
    {
      "anonymous": false,
      "inputs": [
        {
          "indexed": true,
          "internalType": "address",
          "name": "operator",
          "type": "address"
        },
        {
          "indexed": true,
          "internalType": "address",
          "name": "from",
          "type": "address"
        },
        {
          "indexed": true,
          "internalType": "address",
          "name": "to",
          "type": "address"
        },
        {
          "indexed": false,
          "internalType": "uint256",
          "name": "id",
          "type": "uint256"
        },
        {
          "indexed": false,
          "internalType": "uint256",
          "name": "amount",
          "type": "uint256"
        }
      ],
      "name": "TransferSingle",
      "type": "event"
    },
    {
      "anonymous": false,
      "inputs": [
        {
          "indexed": true,
          "internalType": "address",
          "name": "operator",
          "type": "address"
        },
        {
          "indexed": true,
          "internalType": "uint256",
          "name": "id",
          "type": "uint256"
        },
        {
          "indexed": false,
          "internalType": "bool",
          "name": "set",
          "type": "bool"
        }
      ],
      "name": "TransferabilitySet",
      "type": "event"
    },
    {
      "anonymous": false,
      "inputs": [
        {
          "indexed": false,
          "internalType": "string",
          "name": "value",
          "type": "string"
        },
        {
          "indexed": true,
          "internalType": "uint256",
          "name": "id",
          "type": "uint256"
        }
      ],
      "name": "URI",
      "type": "event"
    },
    {
      "inputs": [],
      "name": "DOMAIN_SEPARATOR",
      "outputs": [
        {
          "internalType": "bytes32",
          "name": "",
          "type": "bytes32"
        }
      ],
      "stateMutability": "view",
      "type": "function"
    },
    {
      "inputs": [
        {
          "internalType": "address",
          "name": "",
          "type": "address"
        },
        {
          "internalType": "uint256",
          "name": "",
          "type": "uint256"
        }
      ],
      "name": "balanceOf",
      "outputs": [
        {
          "internalType": "uint256",
          "name": "",
          "type": "uint256"
        }
      ],
      "stateMutability": "view",
      "type": "function"
    },
    {
      "inputs": [
        {
          "internalType": "address[]",
          "name": "owners",
          "type": "address[]"
        },
        {
          "internalType": "uint256[]",
          "name": "ids",
          "type": "uint256[]"
        }
      ],
      "name": "balanceOfBatch",
      "outputs": [
        {
          "internalType": "uint256[]",
          "name": "balances",
          "type": "uint256[]"
        }
      ],
      "stateMutability": "view",
      "type": "function"
    },
    {
      "inputs": [
        {
          "internalType": "address",
          "name": "from",
          "type": "address"
        },
        {
          "internalType": "uint256",
          "name": "id",
          "type": "uint256"
        },
        {
          "internalType": "uint256",
          "name": "amount",
          "type": "uint256"
        }
      ],
      "name": "burn",
      "outputs": [],
      "stateMutability": "payable",
      "type": "function"
    },
    {
      "inputs": [
        {
          "internalType": "address",
          "name": "",
          "type": "address"
        },
        {
          "internalType": "uint256",
          "name": "",
          "type": "uint256"
        },
        {
          "internalType": "uint256",
          "name": "",
          "type": "uint256"
        }
      ],
      "name": "checkpoints",
      "outputs": [
        {
          "internalType": "uint40",
          "name": "fromTimestamp",
          "type": "uint40"
        },
        {
          "internalType": "uint216",
          "name": "votes",
          "type": "uint216"
        }
      ],
      "stateMutability": "view",
      "type": "function"
    },
    {
      "inputs": [
        {
          "internalType": "address",
          "name": "delegatee",
          "type": "address"
        },
        {
          "internalType": "uint256",
          "name": "id",
          "type": "uint256"
        }
      ],
      "name": "delegate",
      "outputs": [],
      "stateMutability": "payable",
      "type": "function"
    },
    {
      "inputs": [
        {
          "internalType": "address",
          "name": "account",
          "type": "address"
        },
        {
          "internalType": "uint256",
          "name": "id",
          "type": "uint256"
        }
      ],
      "name": "delegates",
      "outputs": [
        {
          "internalType": "address",
          "name": "",
          "type": "address"
        }
      ],
      "stateMutability": "view",
      "type": "function"
    },
    {
      "inputs": [
        {
          "internalType": "enum Operation",
          "name": "op",
          "type": "uint8"
        },
        {
          "internalType": "address",
          "name": "to",
          "type": "address"
        },
        {
          "internalType": "uint256",
          "name": "value",
          "type": "uint256"
        },
        {
          "internalType": "bytes",
          "name": "data",
          "type": "bytes"
        },
        {
          "components": [
            {
              "internalType": "uint8",
              "name": "v",
              "type": "uint8"
            },
            {
              "internalType": "bytes32",
              "name": "r",
              "type": "bytes32"
            },
            {
              "internalType": "bytes32",
              "name": "s",
              "type": "bytes32"
            }
          ],
          "internalType": "struct Signature[]",
          "name": "sigs",
          "type": "tuple[]"
        }
      ],
      "name": "execute",
      "outputs": [
        {
          "internalType": "bool",
          "name": "success",
          "type": "bool"
        }
      ],
      "stateMutability": "payable",
      "type": "function"
    },
    {
      "inputs": [
        {
          "internalType": "address",
          "name": "account",
          "type": "address"
        },
        {
          "internalType": "uint256",
          "name": "id",
          "type": "uint256"
        }
      ],
      "name": "getCurrentVotes",
      "outputs": [
        {
          "internalType": "uint256",
          "name": "",
          "type": "uint256"
        }
      ],
      "stateMutability": "view",
      "type": "function"
    },
    {
      "inputs": [
        {
          "internalType": "address",
          "name": "account",
          "type": "address"
        },
        {
          "internalType": "uint256",
          "name": "id",
          "type": "uint256"
        },
        {
          "internalType": "uint256",
          "name": "timestamp",
          "type": "uint256"
        }
      ],
      "name": "getPriorVotes",
      "outputs": [
        {
          "internalType": "uint256",
          "name": "",
          "type": "uint256"
        }
      ],
      "stateMutability": "view",
      "type": "function"
    },
    {
      "inputs": [
        {
          "components": [
            {
              "internalType": "enum Operation",
              "name": "op",
              "type": "uint8"
            },
            {
              "internalType": "address",
              "name": "to",
              "type": "address"
            },
            {
              "internalType": "uint256",
              "name": "value",
              "type": "uint256"
            },
            {
              "internalType": "bytes",
              "name": "data",
              "type": "bytes"
            }
          ],
          "internalType": "struct Call[]",
          "name": "calls",
          "type": "tuple[]"
        },
        {
          "internalType": "address[]",
          "name": "signers",
          "type": "address[]"
        },
        {
          "internalType": "uint256",
          "name": "threshold",
          "type": "uint256"
        }
      ],
      "name": "initialize",
      "outputs": [],
      "stateMutability": "payable",
      "type": "function"
    },
    {
      "inputs": [
        {
          "internalType": "address",
          "name": "",
          "type": "address"
        },
        {
          "internalType": "address",
          "name": "",
          "type": "address"
        }
      ],
      "name": "isApprovedForAll",
      "outputs": [
        {
          "internalType": "bool",
          "name": "",
          "type": "bool"
        }
      ],
      "stateMutability": "view",
      "type": "function"
    },
    {
      "inputs": [
        {
          "internalType": "address",
          "name": "to",
          "type": "address"
        },
        {
          "internalType": "uint256",
          "name": "id",
          "type": "uint256"
        },
        {
          "internalType": "uint256",
          "name": "amount",
          "type": "uint256"
        },
        {
          "internalType": "bytes",
          "name": "data",
          "type": "bytes"
        }
      ],
      "name": "mint",
      "outputs": [],
      "stateMutability": "payable",
      "type": "function"
    },
    {
      "inputs": [
        {
          "components": [
            {
              "internalType": "enum Operation",
              "name": "op",
              "type": "uint8"
            },
            {
              "internalType": "address",
              "name": "to",
              "type": "address"
            },
            {
              "internalType": "uint256",
              "name": "value",
              "type": "uint256"
            },
            {
              "internalType": "bytes",
              "name": "data",
              "type": "bytes"
            }
          ],
          "internalType": "struct Call[]",
          "name": "calls",
          "type": "tuple[]"
        }
      ],
      "name": "multiExecute",
      "outputs": [
        {
          "internalType": "bool[]",
          "name": "successes",
          "type": "bool[]"
        }
      ],
      "stateMutability": "payable",
      "type": "function"
    },
    {
      "inputs": [
        {
          "internalType": "bytes[]",
          "name": "data",
          "type": "bytes[]"
        }
      ],
      "name": "multicall",
      "outputs": [
        {
          "internalType": "bytes[]",
          "name": "results",
          "type": "bytes[]"
        }
      ],
      "stateMutability": "payable",
      "type": "function"
    },
    {
      "inputs": [],
      "name": "name",
      "outputs": [
        {
          "internalType": "string",
          "name": "",
          "type": "string"
        }
      ],
      "stateMutability": "pure",
      "type": "function"
    },
    {
      "inputs": [],
      "name": "nonce",
      "outputs": [
        {
          "internalType": "uint64",
          "name": "",
          "type": "uint64"
        }
      ],
      "stateMutability": "view",
      "type": "function"
    },
    {
      "inputs": [
        {
          "internalType": "address",
          "name": "",
          "type": "address"
        },
        {
          "internalType": "uint256",
          "name": "",
          "type": "uint256"
        }
      ],
      "name": "numCheckpoints",
      "outputs": [
        {
          "internalType": "uint256",
          "name": "",
          "type": "uint256"
        }
      ],
      "stateMutability": "view",
      "type": "function"
    },
    {
      "inputs": [
        {
          "internalType": "address",
          "name": "",
          "type": "address"
        },
        {
          "internalType": "address",
          "name": "",
          "type": "address"
        },
        {
          "internalType": "uint256[]",
          "name": "",
          "type": "uint256[]"
        },
        {
          "internalType": "uint256[]",
          "name": "",
          "type": "uint256[]"
        },
        {
          "internalType": "bytes",
          "name": "",
          "type": "bytes"
        }
      ],
      "name": "onERC1155BatchReceived",
      "outputs": [
        {
          "internalType": "bytes4",
          "name": "",
          "type": "bytes4"
        }
      ],
      "stateMutability": "payable",
      "type": "function"
    },
    {
      "inputs": [
        {
          "internalType": "address",
          "name": "",
          "type": "address"
        },
        {
          "internalType": "address",
          "name": "",
          "type": "address"
        },
        {
          "internalType": "uint256",
          "name": "",
          "type": "uint256"
        },
        {
          "internalType": "uint256",
          "name": "",
          "type": "uint256"
        },
        {
          "internalType": "bytes",
          "name": "",
          "type": "bytes"
        }
      ],
      "name": "onERC1155Received",
      "outputs": [
        {
          "internalType": "bytes4",
          "name": "",
          "type": "bytes4"
        }
      ],
      "stateMutability": "payable",
      "type": "function"
    },
    {
      "inputs": [
        {
          "internalType": "address",
          "name": "",
          "type": "address"
        },
        {
          "internalType": "address",
          "name": "",
          "type": "address"
        },
        {
          "internalType": "uint256",
          "name": "",
          "type": "uint256"
        },
        {
          "internalType": "bytes",
          "name": "",
          "type": "bytes"
        }
      ],
      "name": "onERC721Received",
      "outputs": [
        {
          "internalType": "bytes4",
          "name": "",
          "type": "bytes4"
        }
      ],
      "stateMutability": "payable",
      "type": "function"
    },
    {
      "inputs": [],
      "name": "quorum",
      "outputs": [
        {
          "internalType": "uint64",
          "name": "",
          "type": "uint64"
        }
      ],
      "stateMutability": "view",
      "type": "function"
    },
    {
      "inputs": [
        {
          "internalType": "address",
          "name": "from",
          "type": "address"
        },
        {
          "internalType": "address",
          "name": "to",
          "type": "address"
        },
        {
          "internalType": "uint256[]",
          "name": "ids",
          "type": "uint256[]"
        },
        {
          "internalType": "uint256[]",
          "name": "amounts",
          "type": "uint256[]"
        },
        {
          "internalType": "bytes",
          "name": "data",
          "type": "bytes"
        }
      ],
      "name": "safeBatchTransferFrom",
      "outputs": [],
      "stateMutability": "payable",
      "type": "function"
    },
    {
      "inputs": [
        {
          "internalType": "address",
          "name": "from",
          "type": "address"
        },
        {
          "internalType": "address",
          "name": "to",
          "type": "address"
        },
        {
          "internalType": "uint256",
          "name": "id",
          "type": "uint256"
        },
        {
          "internalType": "uint256",
          "name": "amount",
          "type": "uint256"
        },
        {
          "internalType": "bytes",
          "name": "data",
          "type": "bytes"
        }
      ],
      "name": "safeTransferFrom",
      "outputs": [],
      "stateMutability": "payable",
      "type": "function"
    },
    {
      "inputs": [
        {
          "internalType": "address",
          "name": "operator",
          "type": "address"
        },
        {
          "internalType": "bool",
          "name": "approved",
          "type": "bool"
        }
      ],
      "name": "setApprovalForAll",
      "outputs": [],
      "stateMutability": "payable",
      "type": "function"
    },
    {
      "inputs": [
        {
          "internalType": "uint32",
          "name": "threshold",
          "type": "uint32"
        }
      ],
      "name": "setQuorum",
      "outputs": [],
      "stateMutability": "payable",
      "type": "function"
    },
    {
      "inputs": [
        {
          "internalType": "uint256",
          "name": "id",
          "type": "uint256"
        },
        {
          "internalType": "bool",
          "name": "transferability",
          "type": "bool"
        }
      ],
      "name": "setTransferability",
      "outputs": [],
      "stateMutability": "payable",
      "type": "function"
    },
    {
      "inputs": [
        {
          "internalType": "uint256",
          "name": "id",
          "type": "uint256"
        },
        {
          "internalType": "string",
          "name": "tokenURI",
          "type": "string"
        }
      ],
      "name": "setURI",
      "outputs": [],
      "stateMutability": "payable",
      "type": "function"
    },
    {
      "inputs": [
        {
          "internalType": "bytes4",
          "name": "interfaceId",
          "type": "bytes4"
        }
      ],
      "name": "supportsInterface",
      "outputs": [
        {
          "internalType": "bool",
          "name": "",
          "type": "bool"
        }
      ],
      "stateMutability": "view",
      "type": "function"
    },
    {
      "inputs": [
        {
          "internalType": "uint256",
          "name": "",
          "type": "uint256"
        }
      ],
      "name": "totalSupply",
      "outputs": [
        {
          "internalType": "uint256",
          "name": "",
          "type": "uint256"
        }
      ],
      "stateMutability": "view",
      "type": "function"
    },
    {
      "inputs": [
        {
          "internalType": "uint256",
          "name": "",
          "type": "uint256"
        }
      ],
      "name": "transferable",
      "outputs": [
        {
          "internalType": "bool",
          "name": "",
          "type": "bool"
        }
      ],
      "stateMutability": "view",
      "type": "function"
    },
    {
      "inputs": [
        {
          "internalType": "uint256",
          "name": "id",
          "type": "uint256"
        }
      ],
      "name": "uri",
      "outputs": [
        {
          "internalType": "string",
          "name": "tokenURI",
          "type": "string"
        }
      ],
      "stateMutability": "view",
      "type": "function"
    }
  ],
  "bytecode": {
    "object": "0x60806040526040516200356c3803806200356c83398101604081905262000026916200004c565b600780546001600160a01b0319166001600160a01b03929092169190911790556200007e565b6000602082840312156200005f57600080fd5b81516001600160a01b03811681146200007757600080fd5b9392505050565b6134de806200008e6000396000f3fe6080604052600436106101e25760003560e01c8063836eebee11610102578063bc197c8111610095578063f23a6e6111610064578063f23a6e6114610622578063f242432a14610642578063f4c3b4d714610655578063f5298aca1461068557600080fd5b8063bc197c8114610585578063bd85b039146105a7578063e329fed7146105d4578063e985e9c5146105e757600080fd5b8063a22cb465116100d1578063a22cb465146104f2578063ac9650d814610505578063afa88bca14610525578063affed0e01461055d57600080fd5b8063836eebee1461048c578063862440e2146104ac5780638c995b91146104bf5780638cb18c12146104d257600080fd5b80632eb2c2d61161017a5780634e1273f4116101495780634e1273f4146104195780637140d96014610446578063731133e914610459578063807df56d1461046c57600080fd5b80632eb2c2d6146103605780633644e51514610373578063387bbabd146103885780633d30ef471461040657600080fd5b80630e89341c116101b65780630e89341c14610296578063150b7a02146102b65780631703a018146102ee57806327dd1b001461032857600080fd5b8062fdd58e146101e757806301ffc9a71461022f578063026e402b1461025f57806306fdde0314610274575b600080fd5b3480156101f357600080fd5b5061021c6102023660046127ac565b600060208181529281526040808220909352908152205481565b6040519081526020015b60405180910390f35b34801561023b57600080fd5b5061024f61024a3660046127ef565b610698565b6040519015158152602001610226565b61027261026d3660046127ac565b6106f7565b005b34801561028057600080fd5b506102896107ba565b604051610226919061285c565b3480156102a257600080fd5b506102896102b136600461286f565b6107ef565b6102d56102c43660046128d1565b630a85bd0160e11b95945050505050565b6040516001600160e01b03199091168152602001610226565b3480156102fa57600080fd5b5060085461030f9067ffffffffffffffff1681565b60405167ffffffffffffffff9091168152602001610226565b34801561033457600080fd5b506103486103433660046127ac565b61090b565b6040516001600160a01b039091168152602001610226565b61027261036e366004612985565b610949565b34801561037f57600080fd5b5061021c610bf0565b34801561039457600080fd5b506103e16103a3366004612a40565b600660209081526000938452604080852082529284528284209052825290205464ffffffffff8116906501000000000090046001600160d81b031682565b6040805164ffffffffff90931683526001600160d81b03909116602083015201610226565b610272610414366004612a73565b610cc7565b34801561042557600080fd5b50610439610434366004612ae7565b611056565b6040516102269190612b53565b610272610454366004612ba7565b61116a565b610272610467366004612bd3565b611181565b34801561047857600080fd5b5061021c6104873660046127ac565b61119e565b34801561049857600080fd5b5061021c6104a7366004612a40565b611224565b6102726104ba366004612c1e565b611463565b61024f6104cd366004612c79565b6114c5565b6104e56104e0366004612d44565b6118cb565b6040516102269190612d86565b610272610500366004612dc0565b6119fb565b610518610513366004612d44565b611a68565b6040516102269190612dea565b34801561053157600080fd5b5061021c6105403660046127ac565b600560209081526000928352604080842090915290825290205481565b34801561056957600080fd5b5060075461030f90600160a01b900467ffffffffffffffff1681565b6102d5610593366004612985565b63bc197c8160e01b98975050505050505050565b3480156105b357600080fd5b5061021c6105c236600461286f565b60036020526000908152604090205481565b6102726105e2366004612e4c565b611ae4565b3480156105f357600080fd5b5061024f610602366004612e72565b600160209081526000928352604080842090915290825290205460ff1681565b6102d5610630366004612e9c565b63f23a6e6160e01b9695505050505050565b610272610650366004612e9c565b611ba3565b34801561066157600080fd5b5061024f61067036600461286f565b60026020526000908152604090205460ff1681565b610272610693366004612a40565b611db5565b60006001600160e01b03198216630a85bd0160e11b14806106e257507f4e2312e0000000000000000000000000000000000000000000000000000000006001600160e01b03198316145b806106f157506106f182611eb1565b92915050565b6000610703338361090b565b33600081815260046020908152604080832087845282529182902080547fffffffffffffffffffffffff0000000000000000000000000000000000000000166001600160a01b038981169182179092559251878152949550919391851692917f287e04de574701d97a55bd9ea85b32defecf76a607b8007ee9ae8c126bf7a746910160405180910390a4336000908152602081815260408083208584529091529020546107b590829085908590611f31565b505050565b60603660011981013560f01c9003356040516020016107db91815260200190565b604051602081830303815290604052905090565b6000818152600a6020526040902080546060919061080c90612f14565b80601f016020809104026020016040519081016040528092919081815260200182805461083890612f14565b80156108855780601f1061085a57610100808354040283529160200191610885565b820191906000526020600020905b81548152906001019060200180831161086857829003601f168201915b505050505090508051600003610906576007546040516303a24d0760e21b8152600481018490526001600160a01b0390911690630e89341c90602401600060405180830381865afa1580156108de573d6000803e3d6000fd5b505050506040513d6000823e601f3d908101601f191682016040526106f19190810190612f64565b919050565b6001600160a01b038083166000908152600460209081526040808320858452909152812054909116801561093f5780610941565b835b949350505050565b8483146109695760405163899ef10d60e01b815260040160405180910390fd5b336001600160a01b038916148015906109a657506001600160a01b038816600090815260016020908152604080832033845290915290205460ff16155b156109c457604051633d83866f60e01b815260040160405180910390fd5b60008060005b87811015610abe578888828181106109e4576109e4613011565b9050602002013592508686828181106109ff576109ff613011565b6000868152600260209081526040909120549102929092013593505060ff16610a3b57604051634f8cca5b60e11b815260040160405180910390fd5b6001600160a01b038b1660009081526020818152604080832086845290915281208054849290610a6c90849061303d565b90915550506001600160a01b038a166000908152602081815260408083208684529091529020805483019055610ab6610aa58c8561090b565b610aaf8c8661090b565b8585611f31565b6001016109ca565b50886001600160a01b03168a6001600160a01b0316336001600160a01b03167f4a39dc06d4c0dbc64b70af90fd698a233a518aa5d07e595d983b8c0526c8f7fb8b8b8b8b604051610b12949392919061309b565b60405180910390a46001600160a01b0389163b15610bba5760405163bc197c8160e01b808252906001600160a01b038b169063bc197c8190610b669033908f908e908e908e908e908e908e906004016130eb565b6020604051808303816000875af1158015610b85573d6000803e3d6000fd5b505050506040513d601f19601f82011682018060405250810190610ba99190613140565b6001600160e01b0319161415610bc6565b6001600160a01b038916155b15610be45760405163290802d360e11b815260040160405180910390fd5b50505050505050505050565b600060053660011981013560f01c900301354614610cc05750604080518082018252600481526304b6565760e41b60209182015281517f8b73c3c69bb8fe3d512ecc4cf759cc79239f7b179b0ffacaa9a75d522b39400f818301527f21d66785fec14e4da3d76f3866cf99a28f4da49ec8782c3cab7cf79c1b6fa66b818401527fc89efdaa54c0f20c7adf612882df0950f5a951637e0307cdcb4c672f298b8bc660608201524660808201523060a0808301919091528351808303909101815260c0909101909252815191012090565b5060095490565b60085467ffffffffffffffff1615610d0b576040517fb2c6f10f00000000000000000000000000000000000000000000000000000000815260040160405180910390fd5b80610d1557600080fd5b81811115610d3657604051631534858160e01b815260040160405180910390fd5b8315610e505760005b84811015610e4e57610e45868683818110610d5c57610d5c613011565b9050602002810190610d6e919061315d565b610d7c90602081019061317d565b878784818110610d8e57610d8e613011565b9050602002810190610da0919061315d565b610db1906040810190602001613198565b888885818110610dc357610dc3613011565b9050602002810190610dd5919061315d565b60400135898986818110610deb57610deb613011565b9050602002810190610dfd919061315d565b610e0b9060608101906131b3565b8080601f0160208091040260200160405190810160405280939291908181526020018383808284376000920191909152506120a792505050565b50600101610d3f565b505b6000806000805b85811015610f3d57868682818110610e7157610e71613011565b9050602002016020810190610e869190613198565b9350836001600160a01b0316836001600160a01b031610610eba57604051633ba7c2c960e21b815260040160405180910390fd5b6001600160a01b038416600081815260208181526040808320638c995b9160e01b8085529252808320805460019081019091559051889750958101959481019433927fc3d58168c5ae7397731d063d5bbf3d657854427343f4c083240f7aacaa2d0f6292610f3092918252602082015260400190565b60405180910390a4610e57565b506008805467ffffffffffffffff191667ffffffffffffffff8616179055638c995b9160e01b60005260036020527f9a8835d54467235524534f0e45c3073a7dc3fa8203fd91cf25b3afd01636d25e819055611049604080518082018252600481526304b6565760e41b60209182015281517f8b73c3c69bb8fe3d512ecc4cf759cc79239f7b179b0ffacaa9a75d522b39400f818301527f21d66785fec14e4da3d76f3866cf99a28f4da49ec8782c3cab7cf79c1b6fa66b818401527fc89efdaa54c0f20c7adf612882df0950f5a951637e0307cdcb4c672f298b8bc660608201524660808201523060a0808301919091528351808303909101815260c0909101909252815191012090565b6009555050505050505050565b60608382146110785760405163899ef10d60e01b815260040160405180910390fd5b8367ffffffffffffffff81111561109157611091612f4e565b6040519080825280602002602001820160405280156110ba578160200160208202803683370190505b50905060005b84811015611161576000808787848181106110dd576110dd613011565b90506020020160208101906110f29190613198565b6001600160a01b03166001600160a01b03168152602001908152602001600020600085858481811061112657611126613011565b9050602002013581526020019081526020016000205482828151811061114e5761114e613011565b60209081029190910101526001016110c0565b50949350505050565b6111726122e5565b5061117d828261233b565b5050565b6111896122e5565b50611197858585858561238d565b5050505050565b6001600160a01b03821660009081526005602090815260408083208484529091528120548082036111d0576000611213565b6001600160a01b03841660009081526006602090815260408083208684528252808320600019850184529091529020546501000000000090046001600160d81b03165b6001600160d81b0316949350505050565b600081421161125f576040517f83aace3d00000000000000000000000000000000000000000000000000000000815260040160405180910390fd5b6001600160a01b03841660009081526005602090815260408083208684529091528120549081900361129557600091505061145c565b6001600160a01b038516600090815260066020908152604080832087845282528083206000198501845290915290205464ffffffffff16831061131c576001600160a01b03851660009081526006602090815260408083208784528252808320600019909401835292905220546001600160d81b036501000000000090910416905061145c565b6001600160a01b0385166000908152600660209081526040808320878452825280832083805290915290205464ffffffffff1683101561136057600091505061145c565b600060001982015b8181111561141a576001600160a01b0387166000908152600660209081526040808320898452825280832060028686030485038085529083529281902081518083019092525464ffffffffff8116808352650100000000009091046001600160d81b031692820192909252908790036113f457602001516001600160d81b0316945061145c9350505050565b805164ffffffffff1687111561140c57819350611413565b6001820392505b5050611368565b506001600160a01b0386166000908152600660209081526040808320888452825280832093835292905220546501000000000090046001600160d81b03169150505b9392505050565b61146b6122e5565b506000838152600a60205260409020611485828483613240565b50827f6bb7ff708619ba0610cba295a58592e0451dee2622938c8755667688daf3529b83836040516114b8929190613300565b60405180910390a2505050565b6000806114d0610bf0565b600754604051611520917f7a41bb8eed3a04b9ccfc055b3e6b3247171ef52d9f9a1242a8f6a4bd2b40ed9e918d918d918d918d918d91600160a01b900467ffffffffffffffff169060200161334c565b604051602081830303815290604052805190602001206040516020016115789291907f190100000000000000000000000000000000000000000000000000000000000081526002810192909252602282015260420190565b60408051601f19818403018152919052805160209091012060085490915060009067ffffffffffffffff16815b818110156118795760006001858989858181106115c4576115c4613011565b6115da92602060609092020190810191506133a6565b8a8a868181106115ec576115ec613011565b905060600201602001358b8b8781811061160857611608613011565b9050606002016040013560405160008152602001604052604051611648949392919093845260ff9290921660208401526040830152606082015260800190565b6020604051602081039080840390855afa15801561166a573d6000803e3d6000fd5b5050604051601f1901519150506001600160a01b0381163b156117f5577f1626ba7e000000000000000000000000000000000000000000000000000000006001600160a01b038216631626ba7e878b8b878181106116ca576116ca613011565b905060600201602001358c8c888181106116e6576116e6613011565b905060600201604001358d8d8981811061170257611702613011565b61171892602060609092020190810191506133a6565b60405160200161176093929190928352602083019190915260f81b7fff0000000000000000000000000000000000000000000000000000000000000016604082015260410190565b6040516020818303038152906040526040518363ffffffff1660e01b815260040161178c9291906133c9565b602060405180830381865afa1580156117a9573d6000803e3d6000fd5b505050506040513d601f19601f820116820180604052508101906117cd9190613140565b6001600160e01b031916146117f557604051633ba7c2c960e21b815260040160405180910390fd5b6001600160a01b038116600090815260208181526040808320638c995b9160e01b8452909152812054900361183d57604051633ba7c2c960e21b815260040160405180910390fd5b806001600160a01b0316846001600160a01b03161061186f57604051633ba7c2c960e21b815260040160405180910390fd5b92506001016115a5565b506118bc8b8b8b8b8b8080601f0160208091040260200160405190810160405280939291908181526020018383808284376000920191909152506120a792505050565b9b9a5050505050505050505050565b60606118d56122e5565b508167ffffffffffffffff8111156118ef576118ef612f4e565b604051908082528060200260200182016040528015611918578160200160208202803683370190505b50905060005b828110156119f4576119ca84848381811061193b5761193b613011565b905060200281019061194d919061315d565b61195b90602081019061317d565b85858481811061196d5761196d613011565b905060200281019061197f919061315d565b611990906040810190602001613198565b8686858181106119a2576119a2613011565b90506020028101906119b4919061315d565b60400135878786818110610deb57610deb613011565b8282815181106119dc576119dc613011565b9115156020928302919091019091015260010161191e565b5092915050565b3360008181526001602090815260408083206001600160a01b03871680855290835292819020805460ff191686151590811790915590519081529192917f17307eab39ab6107e8899845ad3d59bd9653f200f220920489ca2b5937696c3191015b60405180910390a35050565b606081156106f15750604051818152602001600582901b808483378101805b825185018035602082018337600080823584305af4611aaa573d6000803e3d6000fd5b508083526020830192503d81523d6000602083013e3d01603f0167ffffffffffffffe016818310611a875760408051919052949350505050565b611aec6122e5565b5080611af757600080fd5b638c995b9160e01b60005260036020527f9a8835d54467235524534f0e45c3073a7dc3fa8203fd91cf25b3afd01636d25e5463ffffffff82161115611b4f57604051631534858160e01b815260040160405180910390fd5b6008805467ffffffffffffffff191663ffffffff831690811790915560405190815233907fc8bdbc84626c082832bea9ab3c3626d6941b91b2df27cc2f8b621597415e4d869060200160405180910390a250565b336001600160a01b03871614801590611be057506001600160a01b038616600090815260016020908152604080832033845290915290205460ff16155b15611bfe57604051633d83866f60e01b815260040160405180910390fd5b60008481526002602052604090205460ff16611c2d57604051634f8cca5b60e11b815260040160405180910390fd5b6001600160a01b03861660009081526020818152604080832087845290915281208054859290611c5e90849061303d565b90915550506001600160a01b038581166000818152602081815260408083208984528252918290208054880190558151888152908101879052919289169133917fc3d58168c5ae7397731d063d5bbf3d657854427343f4c083240f7aacaa2d0f62910160405180910390a46001600160a01b0385163b15611d655760405163f23a6e6160e01b808252906001600160a01b0387169063f23a6e6190611d119033908b908a908a908a908a906004016133e2565b6020604051808303816000875af1158015611d30573d6000803e3d6000fd5b505050506040513d601f19601f82011682018060405250810190611d549190613140565b6001600160e01b0319161415611d71565b6001600160a01b038516155b15611d8f5760405163290802d360e11b815260040160405180910390fd5b611dad611d9c878661090b565b611da6878761090b565b8686611f31565b505050505050565b336001600160a01b03841614801590611df257506001600160a01b038316600090815260016020908152604080832033845290915290205460ff16155b8015611e035750611e016122e5565b155b15611e2157604051633d83866f60e01b815260040160405180910390fd5b611e2c8383836124f0565b7f7366a46f0000000000000000000000000000000000000000000000000000000082016107b557638c995b9160e01b60005260036020527f9a8835d54467235524534f0e45c3073a7dc3fa8203fd91cf25b3afd01636d25e5460085467ffffffffffffffff1611156107b557604051631534858160e01b815260040160405180910390fd5b60006001600160e01b031982167f01ffc9a7000000000000000000000000000000000000000000000000000000001480611f1457507fd9b67a26000000000000000000000000000000000000000000000000000000006001600160e01b03198316145b806106f15750506001600160e01b0319166303a24d0760e21b1490565b826001600160a01b0316846001600160a01b031614158015611f5257508015155b156120a1576001600160a01b03841615612000576001600160a01b038416600090815260056020908152604080832085845290915281205490818103611f99576000611fdc565b6001600160a01b03861660009081526006602090815260408083208784528252808320600019860184529091529020546501000000000090046001600160d81b03165b6001600160d81b03169050611ffd86858484611ff8888261303d565b612597565b50505b6001600160a01b038316156120a1576001600160a01b038316600090815260056020908152604080832085845290915281205490818103612042576000612085565b6001600160a01b03851660009081526006602090815260408083208784528252808320600019860184529091529020546501000000000090046001600160d81b03165b6001600160d81b03169050611dad85858484611ff88882613427565b50505050565b60078054600167ffffffffffffffff600160a01b80840482169290920116027fffffffff0000000000000000ffffffffffffffffffffffffffffffffffffffff90911617905560008085600381111561210257612102613314565b0361217e5760008083516020850186885af190508061213457604051633c47f9b560e21b815260040160405180910390fd5b836001600160a01b03167ffa3c55dc43f5cfdeb2abee243c63ad490db2fee39fd127076ed9e7afa15ad6388685856040516121719392919061343a565b60405180910390a2610941565b600185600381111561219257612192613314565b036121c357600080835160208501875af490508061213457604051633c47f9b560e21b815260040160405180910390fd5b60028560038111156121d7576121d7613314565b0361225857600082516020840185f090506001600160a01b03811661220f57604051633c47f9b560e21b815260040160405180910390fd5b806001600160a01b03167fd187b7c22150909fa5ee0d652f5966e66148500fabe5615b1079e7ef39fe3fb7878660405161224a929190613469565b60405180910390a250610941565b60008061226484613484565b90508084518560200187f591506001600160a01b03821661229857604051633c47f9b560e21b815260040160405180910390fd5b816001600160a01b03167fd187b7c22150909fa5ee0d652f5966e66148500fabe5615b1079e7ef39fe3fb788876040516122d3929190613469565b60405180910390a25050949350505050565b6000333014806123175750336000908152602081815260408083206001600160e01b0319843516845290915290205415155b156123225750600190565b604051633d83866f60e01b815260040160405180910390fd5b600082815260026020908152604091829020805460ff19168415159081179091559151918252839133917f030b8b6f293952c4e53cc2ac59481057844588ce19c7d10ca5468e4d6938f1959101611a5c565b600084815260036020526040812080546123ba928692916123af908490613427565b92505081905561272b565b506001600160a01b0385166000818152602081815260408083208884528252808320805488019055805188815291820187905233917fc3d58168c5ae7397731d063d5bbf3d657854427343f4c083240f7aacaa2d0f62910160405180910390a46001600160a01b0385163b156124b75760405163f23a6e6160e01b808252906001600160a01b0387169063f23a6e61906124639033906000908a908a908a908a906004016133e2565b6020604051808303816000875af1158015612482573d6000803e3d6000fd5b505050506040513d601f19601f820116820180604052508101906124a69190613140565b6001600160e01b03191614156124c3565b6001600160a01b038516155b156124e15760405163290802d360e11b815260040160405180910390fd5b6111976000611da6878761090b565b6001600160a01b0383166000908152602081815260408083208584529091528120805483929061252190849061303d565b909155505060008281526003602090815260408083208054859003905580518581529182018490526001600160a01b0386169133917fc3d58168c5ae7397731d063d5bbf3d657854427343f4c083240f7aacaa2d0f62910160405180910390a46107b561258e848461090b565b60008484611f31565b82158015906125db57506001600160a01b038516600090815260066020908152604080832087845282528083206000198701845290915290205464ffffffffff1642145b15612642576125e98161272b565b6001600160a01b0386166000908152600660209081526040808320888452825280832060001988018452909152902080546001600160d81b0392909216650100000000000264ffffffffff9092169190911790556126de565b60405180604001604052806126564261276d565b64ffffffffff16815260200161266b8361272b565b6001600160d81b039081169091526001600160a01b03871660008181526006602090815260408083208a845282528083208984528252808320865196830151909516650100000000000264ffffffffff909616959095179093559081526005825282812087825290915220805460010190555b604080518381526020810183905285916001600160a01b038816917f21a99d51b8a0a2e2ead709843a1ecfaab977908135cf1c085c0a6246eea6e0f0910160405180910390a35050505050565b60007b010000000000000000000000000000000000000000000000000000008210612769576040516395a5c7f960e01b815260040160405180910390fd5b5090565b6000650100000000008210612769576040516395a5c7f960e01b815260040160405180910390fd5b80356001600160a01b038116811461090657600080fd5b600080604083850312156127bf57600080fd5b6127c883612795565b946020939093013593505050565b6001600160e01b0319811681146127ec57600080fd5b50565b60006020828403121561280157600080fd5b813561145c816127d6565b60005b8381101561282757818101518382015260200161280f565b50506000910152565b6000815180845261284881602086016020860161280c565b601f01601f19169290920160200192915050565b60208152600061145c6020830184612830565b60006020828403121561288157600080fd5b5035919050565b60008083601f84011261289a57600080fd5b50813567ffffffffffffffff8111156128b257600080fd5b6020830191508360208285010111156128ca57600080fd5b9250929050565b6000806000806000608086880312156128e957600080fd5b6128f286612795565b945061290060208701612795565b935060408601359250606086013567ffffffffffffffff81111561292357600080fd5b61292f88828901612888565b969995985093965092949392505050565b60008083601f84011261295257600080fd5b50813567ffffffffffffffff81111561296a57600080fd5b6020830191508360208260051b85010111156128ca57600080fd5b60008060008060008060008060a0898b0312156129a157600080fd5b6129aa89612795565b97506129b860208a01612795565b9650604089013567ffffffffffffffff808211156129d557600080fd5b6129e18c838d01612940565b909850965060608b01359150808211156129fa57600080fd5b612a068c838d01612940565b909650945060808b0135915080821115612a1f57600080fd5b50612a2c8b828c01612888565b999c989b5096995094979396929594505050565b600080600060608486031215612a5557600080fd5b612a5e84612795565b95602085013595506040909401359392505050565b600080600080600060608688031215612a8b57600080fd5b853567ffffffffffffffff80821115612aa357600080fd5b612aaf89838a01612940565b90975095506020880135915080821115612ac857600080fd5b50612ad588828901612940565b96999598509660400135949350505050565b60008060008060408587031215612afd57600080fd5b843567ffffffffffffffff80821115612b1557600080fd5b612b2188838901612940565b90965094506020870135915080821115612b3a57600080fd5b50612b4787828801612940565b95989497509550505050565b6020808252825182820181905260009190848201906040850190845b81811015612b8b57835183529284019291840191600101612b6f565b50909695505050505050565b8035801515811461090657600080fd5b60008060408385031215612bba57600080fd5b82359150612bca60208401612b97565b90509250929050565b600080600080600060808688031215612beb57600080fd5b612bf486612795565b94506020860135935060408601359250606086013567ffffffffffffffff81111561292357600080fd5b600080600060408486031215612c3357600080fd5b83359250602084013567ffffffffffffffff811115612c5157600080fd5b612c5d86828701612888565b9497909650939450505050565b80356004811061090657600080fd5b600080600080600080600060a0888a031215612c9457600080fd5b612c9d88612c6a565b9650612cab60208901612795565b955060408801359450606088013567ffffffffffffffff80821115612ccf57600080fd5b612cdb8b838c01612888565b909650945060808a0135915080821115612cf457600080fd5b818a0191508a601f830112612d0857600080fd5b813581811115612d1757600080fd5b8b6020606083028501011115612d2c57600080fd5b60208301945080935050505092959891949750929550565b60008060208385031215612d5757600080fd5b823567ffffffffffffffff811115612d6e57600080fd5b612d7a85828601612940565b90969095509350505050565b6020808252825182820181905260009190848201906040850190845b81811015612b8b578351151583529284019291840191600101612da2565b60008060408385031215612dd357600080fd5b612ddc83612795565b9150612bca60208401612b97565b6000602080830181845280855180835260408601915060408160051b870101925083870160005b82811015612e3f57603f19888603018452612e2d858351612830565b94509285019290850190600101612e11565b5092979650505050505050565b600060208284031215612e5e57600080fd5b813563ffffffff8116811461145c57600080fd5b60008060408385031215612e8557600080fd5b612e8e83612795565b9150612bca60208401612795565b60008060008060008060a08789031215612eb557600080fd5b612ebe87612795565b9550612ecc60208801612795565b94506040870135935060608701359250608087013567ffffffffffffffff811115612ef657600080fd5b612f0289828a01612888565b979a9699509497509295939492505050565b600181811c90821680612f2857607f821691505b602082108103612f4857634e487b7160e01b600052602260045260246000fd5b50919050565b634e487b7160e01b600052604160045260246000fd5b600060208284031215612f7657600080fd5b815167ffffffffffffffff80821115612f8e57600080fd5b818401915084601f830112612fa257600080fd5b815181811115612fb457612fb4612f4e565b604051601f8201601f19908116603f01168101908382118183101715612fdc57612fdc612f4e565b81604052828152876020848701011115612ff557600080fd5b61300683602083016020880161280c565b979650505050505050565b634e487b7160e01b600052603260045260246000fd5b634e487b7160e01b600052601160045260246000fd5b818103818111156106f1576106f1613027565b81835260007f07ffffffffffffffffffffffffffffffffffffffffffffffffffffffffffffff83111561308257600080fd5b8260051b80836020870137939093016020019392505050565b6040815260006130af604083018688613050565b8281036020840152613006818587613050565b81835281816020850137506000828201602090810191909152601f909101601f19169091010190565b60006001600160a01b03808b168352808a1660208401525060a0604083015261311860a08301888a613050565b828103606084015261312b818789613050565b905082810360808401526118bc8185876130c2565b60006020828403121561315257600080fd5b815161145c816127d6565b60008235607e1983360301811261317357600080fd5b9190910192915050565b60006020828403121561318f57600080fd5b61145c82612c6a565b6000602082840312156131aa57600080fd5b61145c82612795565b6000808335601e198436030181126131ca57600080fd5b83018035915067ffffffffffffffff8211156131e557600080fd5b6020019150368190038213156128ca57600080fd5b601f8211156107b557600081815260208120601f850160051c810160208610156132215750805b601f850160051c820191505b81811015611dad5782815560010161322d565b67ffffffffffffffff83111561325857613258612f4e565b61326c836132668354612f14565b836131fa565b6000601f8411600181146132a057600085156132885750838201355b600019600387901b1c1916600186901b178355611197565b600083815260209020601f19861690835b828110156132d157868501358255602094850194600190920191016132b1565b50868210156132ee5760001960f88860031b161c19848701351681555b505060018560011b0183555050505050565b6020815260006109416020830184866130c2565b634e487b7160e01b600052602160045260246000fd5b6004811061334857634e487b7160e01b600052602160045260246000fd5b9052565b87815261335c602082018861332a565b6001600160a01b038616604082015284606082015260c06080820152600061338860c0830185876130c2565b905067ffffffffffffffff831660a083015298975050505050505050565b6000602082840312156133b857600080fd5b813560ff8116811461145c57600080fd5b8281526040602082015260006109416040830184612830565b60006001600160a01b03808916835280881660208401525085604083015284606083015260a0608083015261341b60a0830184866130c2565b98975050505050505050565b808201808211156106f1576106f1613027565b613444818561332a565b8260208201526060604082015260006134606060830184612830565b95945050505050565b60408101613477828561332a565b8260208301529392505050565b80516020808301519190811015612f485760001960209190910360031b1b1691905056fea2646970667358221220a3cb48c24887530540ffb7b572ee536a74ae5bcd683b561c7bb7c920d59f53cd64736f6c63430008110033",
    "linkReferences": {}
  },
  "methodIdentifiers": {
    "DOMAIN_SEPARATOR()": "3644e515",
    "balanceOf(address,uint256)": "00fdd58e",
    "balanceOfBatch(address[],uint256[])": "4e1273f4",
    "burn(address,uint256,uint256)": "f5298aca",
    "checkpoints(address,uint256,uint256)": "387bbabd",
    "delegate(address,uint256)": "026e402b",
    "delegates(address,uint256)": "27dd1b00",
    "execute(uint8,address,uint256,bytes,(uint8,bytes32,bytes32)[])": "8c995b91",
    "getCurrentVotes(address,uint256)": "807df56d",
    "getPriorVotes(address,uint256,uint256)": "836eebee",
    "initialize((uint8,address,uint256,bytes)[],address[],uint256)": "3d30ef47",
    "isApprovedForAll(address,address)": "e985e9c5",
    "mint(address,uint256,uint256,bytes)": "731133e9",
    "multiExecute((uint8,address,uint256,bytes)[])": "8cb18c12",
    "multicall(bytes[])": "ac9650d8",
    "name()": "06fdde03",
    "nonce()": "affed0e0",
    "numCheckpoints(address,uint256)": "afa88bca",
    "onERC1155BatchReceived(address,address,uint256[],uint256[],bytes)": "bc197c81",
    "onERC1155Received(address,address,uint256,uint256,bytes)": "f23a6e61",
    "onERC721Received(address,address,uint256,bytes)": "150b7a02",
    "quorum()": "1703a018",
    "safeBatchTransferFrom(address,address,uint256[],uint256[],bytes)": "2eb2c2d6",
    "safeTransferFrom(address,address,uint256,uint256,bytes)": "f242432a",
    "setApprovalForAll(address,bool)": "a22cb465",
    "setQuorum(uint32)": "e329fed7",
    "setTransferability(uint256,bool)": "7140d960",
    "setURI(uint256,string)": "862440e2",
    "supportsInterface(bytes4)": "01ffc9a7",
    "totalSupply(uint256)": "bd85b039",
    "transferable(uint256)": "f4c3b4d7",
    "uri(uint256)": "0e89341c"
  },
  "id": 16
}