{
  "abi": [
    {
      "inputs": [],
      "name": "ALREADY_INIT",
      "type": "error"
    },
    {
      "inputs": [],
      "name": "EXECUTE_FAILED",
      "type": "error"
    },
    {
      "inputs": [],
      "name": "INVALID_RECIPIENT",
      "type": "error"
    },
    {
      "inputs": [],
      "name": "INVALID_SIG",
      "type": "error"
    },
    {
      "inputs": [],
      "name": "LENGTH_MISMATCH",
      "type": "error"
    },
    {
      "inputs": [],
      "name": "NONTRANSFERABLE",
      "type": "error"
    },
    {
      "inputs": [],
      "name": "NOT_AUTHORIZED",
      "type": "error"
    },
    {
      "inputs": [],
      "name": "QUORUM_OVER_SUPPLY",
      "type": "error"
    },
    {
      "inputs": [],
      "name": "UINT192_MAX",
      "type": "error"
    },
    {
      "inputs": [],
      "name": "UINT64_MAX",
      "type": "error"
    },
    {
      "inputs": [],
      "name": "UNDETERMINED",
      "type": "error"
    },
    {
      "anonymous": false,
      "inputs": [
        {
          "indexed": true,
          "internalType": "address",
          "name": "owner",
          "type": "address"
        },
        {
          "indexed": true,
          "internalType": "address",
          "name": "operator",
          "type": "address"
        },
        {
          "indexed": false,
          "internalType": "bool",
          "name": "approved",
          "type": "bool"
        }
      ],
      "name": "ApprovalForAll",
      "type": "event"
    },
    {
      "anonymous": false,
      "inputs": [
        {
          "indexed": false,
          "internalType": "enum Operation",
          "name": "op",
          "type": "uint8"
        },
        {
          "indexed": true,
          "internalType": "address",
          "name": "creation",
          "type": "address"
        },
        {
          "indexed": false,
          "internalType": "uint256",
          "name": "value",
          "type": "uint256"
        }
      ],
      "name": "ContractCreated",
      "type": "event"
    },
    {
      "anonymous": false,
      "inputs": [
        {
          "indexed": true,
          "internalType": "address",
          "name": "delegator",
          "type": "address"
        },
        {
          "indexed": true,
          "internalType": "address",
          "name": "fromDelegate",
          "type": "address"
        },
        {
          "indexed": true,
          "internalType": "address",
          "name": "toDelegate",
          "type": "address"
        },
        {
          "indexed": false,
          "internalType": "uint256",
          "name": "id",
          "type": "uint256"
        }
      ],
      "name": "DelegateChanged",
      "type": "event"
    },
    {
      "anonymous": false,
      "inputs": [
        {
          "indexed": true,
          "internalType": "address",
          "name": "delegate",
          "type": "address"
        },
        {
          "indexed": true,
          "internalType": "uint256",
          "name": "id",
          "type": "uint256"
        },
        {
          "indexed": false,
          "internalType": "uint256",
          "name": "previousBalance",
          "type": "uint256"
        },
        {
          "indexed": false,
          "internalType": "uint256",
          "name": "newBalance",
          "type": "uint256"
        }
      ],
      "name": "DelegateVotesChanged",
      "type": "event"
    },
    {
      "anonymous": false,
      "inputs": [
        {
          "indexed": false,
          "internalType": "enum Operation",
          "name": "op",
          "type": "uint8"
        },
        {
          "indexed": true,
          "internalType": "address",
          "name": "to",
          "type": "address"
        },
        {
          "indexed": false,
          "internalType": "uint256",
          "name": "value",
          "type": "uint256"
        },
        {
          "indexed": false,
          "internalType": "bytes",
          "name": "data",
          "type": "bytes"
        }
      ],
      "name": "Executed",
      "type": "event"
    },
    {
      "anonymous": false,
      "inputs": [
        {
          "indexed": true,
          "internalType": "address",
          "name": "caller",
          "type": "address"
        },
        {
          "indexed": false,
          "internalType": "uint256",
          "name": "threshold",
          "type": "uint256"
        }
      ],
      "name": "QuorumSet",
      "type": "event"
    },
    {
      "anonymous": false,
      "inputs": [
        {
          "indexed": true,
          "internalType": "address",
          "name": "operator",
          "type": "address"
        },
        {
          "indexed": true,
          "internalType": "address",
          "name": "from",
          "type": "address"
        },
        {
          "indexed": true,
          "internalType": "address",
          "name": "to",
          "type": "address"
        },
        {
          "indexed": false,
          "internalType": "uint256[]",
          "name": "ids",
          "type": "uint256[]"
        },
        {
          "indexed": false,
          "internalType": "uint256[]",
          "name": "amounts",
          "type": "uint256[]"
        }
      ],
      "name": "TransferBatch",
      "type": "event"
    },
    {
      "anonymous": false,
      "inputs": [
        {
          "indexed": true,
          "internalType": "address",
          "name": "operator",
          "type": "address"
        },
        {
          "indexed": true,
          "internalType": "address",
          "name": "from",
          "type": "address"
        },
        {
          "indexed": true,
          "internalType": "address",
          "name": "to",
          "type": "address"
        },
        {
          "indexed": false,
          "internalType": "uint256",
          "name": "id",
          "type": "uint256"
        },
        {
          "indexed": false,
          "internalType": "uint256",
          "name": "amount",
          "type": "uint256"
        }
      ],
      "name": "TransferSingle",
      "type": "event"
    },
    {
      "anonymous": false,
      "inputs": [
        {
          "indexed": true,
          "internalType": "address",
          "name": "operator",
          "type": "address"
        },
        {
          "indexed": true,
          "internalType": "uint256",
          "name": "id",
          "type": "uint256"
        },
        {
          "indexed": false,
          "internalType": "bool",
          "name": "transferability",
          "type": "bool"
        }
      ],
      "name": "TransferabilitySet",
      "type": "event"
    },
    {
      "anonymous": false,
      "inputs": [
        {
          "indexed": false,
          "internalType": "string",
          "name": "value",
          "type": "string"
        },
        {
          "indexed": true,
          "internalType": "uint256",
          "name": "id",
          "type": "uint256"
        }
      ],
      "name": "URI",
      "type": "event"
    },
    {
      "inputs": [],
      "name": "DOMAIN_SEPARATOR",
      "outputs": [
        {
          "internalType": "bytes32",
          "name": "",
          "type": "bytes32"
        }
      ],
      "stateMutability": "view",
      "type": "function"
    },
    {
      "inputs": [
        {
          "internalType": "address",
          "name": "",
          "type": "address"
        },
        {
          "internalType": "uint256",
          "name": "",
          "type": "uint256"
        }
      ],
      "name": "balanceOf",
      "outputs": [
        {
          "internalType": "uint256",
          "name": "",
          "type": "uint256"
        }
      ],
      "stateMutability": "view",
      "type": "function"
    },
    {
      "inputs": [
        {
          "internalType": "address[]",
          "name": "owners",
          "type": "address[]"
        },
        {
          "internalType": "uint256[]",
          "name": "ids",
          "type": "uint256[]"
        }
      ],
      "name": "balanceOfBatch",
      "outputs": [
        {
          "internalType": "uint256[]",
          "name": "balances",
          "type": "uint256[]"
        }
      ],
      "stateMutability": "view",
      "type": "function"
    },
    {
      "inputs": [
        {
          "internalType": "address",
          "name": "from",
          "type": "address"
        },
        {
          "internalType": "uint256",
          "name": "id",
          "type": "uint256"
        },
        {
          "internalType": "uint256",
          "name": "amount",
          "type": "uint256"
        }
      ],
      "name": "burn",
      "outputs": [],
      "stateMutability": "payable",
      "type": "function"
    },
    {
      "inputs": [
        {
          "internalType": "address",
          "name": "",
          "type": "address"
        },
        {
          "internalType": "uint256",
          "name": "",
          "type": "uint256"
        },
        {
          "internalType": "uint256",
          "name": "",
          "type": "uint256"
        }
      ],
      "name": "checkpoints",
      "outputs": [
        {
          "internalType": "uint64",
          "name": "fromTimestamp",
          "type": "uint64"
        },
        {
          "internalType": "uint192",
          "name": "votes",
          "type": "uint192"
        }
      ],
      "stateMutability": "view",
      "type": "function"
    },
    {
      "inputs": [
        {
          "internalType": "address",
          "name": "delegatee",
          "type": "address"
        },
        {
          "internalType": "uint256",
          "name": "id",
          "type": "uint256"
        }
      ],
      "name": "delegate",
      "outputs": [],
      "stateMutability": "payable",
      "type": "function"
    },
    {
      "inputs": [
        {
          "internalType": "address",
          "name": "account",
          "type": "address"
        },
        {
          "internalType": "uint256",
          "name": "id",
          "type": "uint256"
        }
      ],
      "name": "delegates",
      "outputs": [
        {
          "internalType": "address",
          "name": "",
          "type": "address"
        }
      ],
      "stateMutability": "view",
      "type": "function"
    },
    {
      "inputs": [
        {
          "internalType": "enum Operation",
          "name": "op",
          "type": "uint8"
        },
        {
          "internalType": "address",
          "name": "to",
          "type": "address"
        },
        {
          "internalType": "uint256",
          "name": "value",
          "type": "uint256"
        },
        {
          "internalType": "bytes",
          "name": "data",
          "type": "bytes"
        },
        {
          "components": [
            {
              "internalType": "uint8",
              "name": "v",
              "type": "uint8"
            },
            {
              "internalType": "bytes32",
              "name": "r",
              "type": "bytes32"
            },
            {
              "internalType": "bytes32",
              "name": "s",
              "type": "bytes32"
            }
          ],
          "internalType": "struct Signature[]",
          "name": "sigs",
          "type": "tuple[]"
        }
      ],
      "name": "execute",
      "outputs": [
        {
          "internalType": "bool",
          "name": "success",
          "type": "bool"
        }
      ],
      "stateMutability": "payable",
      "type": "function"
    },
    {
      "inputs": [
        {
          "internalType": "address",
          "name": "account",
          "type": "address"
        },
        {
          "internalType": "uint256",
          "name": "id",
          "type": "uint256"
        }
      ],
      "name": "getCurrentVotes",
      "outputs": [
        {
          "internalType": "uint256",
          "name": "",
          "type": "uint256"
        }
      ],
      "stateMutability": "view",
      "type": "function"
    },
    {
      "inputs": [
        {
          "internalType": "address",
          "name": "account",
          "type": "address"
        },
        {
          "internalType": "uint256",
          "name": "id",
          "type": "uint256"
        },
        {
          "internalType": "uint256",
          "name": "timestamp",
          "type": "uint256"
        }
      ],
      "name": "getPriorVotes",
      "outputs": [
        {
          "internalType": "uint256",
          "name": "",
          "type": "uint256"
        }
      ],
      "stateMutability": "view",
      "type": "function"
    },
    {
      "inputs": [
        {
          "components": [
            {
              "internalType": "enum Operation",
              "name": "op",
              "type": "uint8"
            },
            {
              "internalType": "address",
              "name": "to",
              "type": "address"
            },
            {
              "internalType": "uint256",
              "name": "value",
              "type": "uint256"
            },
            {
              "internalType": "bytes",
              "name": "data",
              "type": "bytes"
            }
          ],
          "internalType": "struct Call[]",
          "name": "calls",
          "type": "tuple[]"
        },
        {
          "internalType": "address[]",
          "name": "signers",
          "type": "address[]"
        },
        {
          "internalType": "uint256",
          "name": "threshold",
          "type": "uint256"
        }
      ],
      "name": "init",
      "outputs": [],
      "stateMutability": "payable",
      "type": "function"
    },
    {
      "inputs": [
        {
          "internalType": "address",
          "name": "",
          "type": "address"
        },
        {
          "internalType": "address",
          "name": "",
          "type": "address"
        }
      ],
      "name": "isApprovedForAll",
      "outputs": [
        {
          "internalType": "bool",
          "name": "",
          "type": "bool"
        }
      ],
      "stateMutability": "view",
      "type": "function"
    },
    {
      "inputs": [
        {
          "internalType": "address",
          "name": "to",
          "type": "address"
        },
        {
          "internalType": "uint256",
          "name": "id",
          "type": "uint256"
        },
        {
          "internalType": "uint256",
          "name": "amount",
          "type": "uint256"
        },
        {
          "internalType": "bytes",
          "name": "data",
          "type": "bytes"
        }
      ],
      "name": "mint",
      "outputs": [],
      "stateMutability": "payable",
      "type": "function"
    },
    {
      "inputs": [
        {
          "components": [
            {
              "internalType": "enum Operation",
              "name": "op",
              "type": "uint8"
            },
            {
              "internalType": "address",
              "name": "to",
              "type": "address"
            },
            {
              "internalType": "uint256",
              "name": "value",
              "type": "uint256"
            },
            {
              "internalType": "bytes",
              "name": "data",
              "type": "bytes"
            }
          ],
          "internalType": "struct Call[]",
          "name": "calls",
          "type": "tuple[]"
        }
      ],
      "name": "multiExecute",
      "outputs": [
        {
          "internalType": "bool[]",
          "name": "successes",
          "type": "bool[]"
        }
      ],
      "stateMutability": "payable",
      "type": "function"
    },
    {
      "inputs": [
        {
          "internalType": "bytes[]",
          "name": "data",
          "type": "bytes[]"
        }
      ],
      "name": "multicall",
      "outputs": [
        {
          "internalType": "bytes[]",
          "name": "results",
          "type": "bytes[]"
        }
      ],
      "stateMutability": "payable",
      "type": "function"
    },
    {
      "inputs": [],
      "name": "nonce",
      "outputs": [
        {
          "internalType": "uint64",
          "name": "",
          "type": "uint64"
        }
      ],
      "stateMutability": "view",
      "type": "function"
    },
    {
      "inputs": [
        {
          "internalType": "address",
          "name": "",
          "type": "address"
        },
        {
          "internalType": "uint256",
          "name": "",
          "type": "uint256"
        }
      ],
      "name": "numCheckpoints",
      "outputs": [
        {
          "internalType": "uint256",
          "name": "",
          "type": "uint256"
        }
      ],
      "stateMutability": "view",
      "type": "function"
    },
    {
      "inputs": [
        {
          "internalType": "address",
          "name": "",
          "type": "address"
        },
        {
          "internalType": "address",
          "name": "",
          "type": "address"
        },
        {
          "internalType": "uint256[]",
          "name": "",
          "type": "uint256[]"
        },
        {
          "internalType": "uint256[]",
          "name": "",
          "type": "uint256[]"
        },
        {
          "internalType": "bytes",
          "name": "",
          "type": "bytes"
        }
      ],
      "name": "onERC1155BatchReceived",
      "outputs": [
        {
          "internalType": "bytes4",
          "name": "",
          "type": "bytes4"
        }
      ],
      "stateMutability": "payable",
      "type": "function"
    },
    {
      "inputs": [
        {
          "internalType": "address",
          "name": "",
          "type": "address"
        },
        {
          "internalType": "address",
          "name": "",
          "type": "address"
        },
        {
          "internalType": "uint256",
          "name": "",
          "type": "uint256"
        },
        {
          "internalType": "uint256",
          "name": "",
          "type": "uint256"
        },
        {
          "internalType": "bytes",
          "name": "",
          "type": "bytes"
        }
      ],
      "name": "onERC1155Received",
      "outputs": [
        {
          "internalType": "bytes4",
          "name": "",
          "type": "bytes4"
        }
      ],
      "stateMutability": "payable",
      "type": "function"
    },
    {
      "inputs": [
        {
          "internalType": "address",
          "name": "",
          "type": "address"
        },
        {
          "internalType": "address",
          "name": "",
          "type": "address"
        },
        {
          "internalType": "uint256",
          "name": "",
          "type": "uint256"
        },
        {
          "internalType": "bytes",
          "name": "",
          "type": "bytes"
        }
      ],
      "name": "onERC721Received",
      "outputs": [
        {
          "internalType": "bytes4",
          "name": "",
          "type": "bytes4"
        }
      ],
      "stateMutability": "payable",
      "type": "function"
    },
    {
      "inputs": [],
      "name": "quorum",
      "outputs": [
        {
          "internalType": "uint64",
          "name": "",
          "type": "uint64"
        }
      ],
      "stateMutability": "view",
      "type": "function"
    },
    {
      "inputs": [
        {
          "internalType": "address",
          "name": "from",
          "type": "address"
        },
        {
          "internalType": "address",
          "name": "to",
          "type": "address"
        },
        {
          "internalType": "uint256[]",
          "name": "ids",
          "type": "uint256[]"
        },
        {
          "internalType": "uint256[]",
          "name": "amounts",
          "type": "uint256[]"
        },
        {
          "internalType": "bytes",
          "name": "data",
          "type": "bytes"
        }
      ],
      "name": "safeBatchTransferFrom",
      "outputs": [],
      "stateMutability": "payable",
      "type": "function"
    },
    {
      "inputs": [
        {
          "internalType": "address",
          "name": "from",
          "type": "address"
        },
        {
          "internalType": "address",
          "name": "to",
          "type": "address"
        },
        {
          "internalType": "uint256",
          "name": "id",
          "type": "uint256"
        },
        {
          "internalType": "uint256",
          "name": "amount",
          "type": "uint256"
        },
        {
          "internalType": "bytes",
          "name": "data",
          "type": "bytes"
        }
      ],
      "name": "safeTransferFrom",
      "outputs": [],
      "stateMutability": "payable",
      "type": "function"
    },
    {
      "inputs": [
        {
          "internalType": "address",
          "name": "operator",
          "type": "address"
        },
        {
          "internalType": "bool",
          "name": "approved",
          "type": "bool"
        }
      ],
      "name": "setApprovalForAll",
      "outputs": [],
      "stateMutability": "payable",
      "type": "function"
    },
    {
      "inputs": [
        {
          "internalType": "uint32",
          "name": "threshold",
          "type": "uint32"
        }
      ],
      "name": "setQuorum",
      "outputs": [],
      "stateMutability": "payable",
      "type": "function"
    },
    {
      "inputs": [
        {
          "internalType": "uint256",
          "name": "id",
          "type": "uint256"
        },
        {
          "internalType": "bool",
          "name": "transferability",
          "type": "bool"
        }
      ],
      "name": "setTransferability",
      "outputs": [],
      "stateMutability": "payable",
      "type": "function"
    },
    {
      "inputs": [
        {
          "internalType": "uint256",
          "name": "id",
          "type": "uint256"
        },
        {
          "internalType": "string",
          "name": "tokenURI",
          "type": "string"
        }
      ],
      "name": "setURI",
      "outputs": [],
      "stateMutability": "payable",
      "type": "function"
    },
    {
      "inputs": [
        {
          "internalType": "bytes4",
          "name": "interfaceId",
          "type": "bytes4"
        }
      ],
      "name": "supportsInterface",
      "outputs": [
        {
          "internalType": "bool",
          "name": "",
          "type": "bool"
        }
      ],
      "stateMutability": "view",
      "type": "function"
    },
    {
      "inputs": [
        {
          "internalType": "uint256",
          "name": "",
          "type": "uint256"
        }
      ],
      "name": "totalSupply",
      "outputs": [
        {
          "internalType": "uint256",
          "name": "",
          "type": "uint256"
        }
      ],
      "stateMutability": "view",
      "type": "function"
    },
    {
      "inputs": [
        {
          "internalType": "uint256",
          "name": "",
          "type": "uint256"
        }
      ],
      "name": "transferable",
      "outputs": [
        {
          "internalType": "bool",
          "name": "",
          "type": "bool"
        }
      ],
      "stateMutability": "view",
      "type": "function"
    },
    {
      "inputs": [
        {
          "internalType": "uint256",
          "name": "id",
          "type": "uint256"
        }
      ],
      "name": "uri",
      "outputs": [
        {
          "internalType": "string",
          "name": "",
          "type": "string"
        }
      ],
      "stateMutability": "view",
      "type": "function"
    }
  ],
  "bytecode": {
    "object": "0x608060405234801561001057600080fd5b506135cb806100206000396000f3fe6080604052600436106101d75760003560e01c8063862440e211610102578063bd85b03911610095578063f23a6e6111610064578063f23a6e6114610606578063f242432a14610626578063f4c3b4d714610639578063f5298aca1461066957600080fd5b8063bd85b03914610578578063c590e89f146105a5578063e329fed7146105b8578063e985e9c5146105cb57600080fd5b8063ac9650d8116100d1578063ac9650d8146104dd578063afa88bca146104fd578063affed0e014610535578063bc197c811461055657600080fd5b8063862440e2146104845780638c995b91146104975780638cb18c12146104aa578063a22cb465146104ca57600080fd5b80632eb2c2d61161017a5780637140d960116101495780637140d9601461041e578063731133e914610431578063807df56d14610444578063836eebee1461046457600080fd5b80632eb2c2d6146103475780633644e5151461035a578063387bbabd1461036f5780634e1273f4146103f157600080fd5b80630e89341c116101b65780630e89341c14610269578063150b7a02146102965780631703a018146102ce57806327dd1b001461030f57600080fd5b8062fdd58e146101dc57806301ffc9a714610224578063026e402b14610254575b600080fd5b3480156101e857600080fd5b506102116101f7366004612874565b600060208181529281526040808220909352908152205481565b6040519081526020015b60405180910390f35b34801561023057600080fd5b5061024461023f3660046128b7565b61067c565b604051901515815260200161021b565b610267610262366004612874565b6106db565b005b34801561027557600080fd5b506102896102843660046128d4565b61079e565b60405161021b9190612945565b6102b56102a43660046129a1565b630a85bd0160e11b95945050505050565b6040516001600160e01b0319909116815260200161021b565b3480156102da57600080fd5b506007546102f690600160401b900467ffffffffffffffff1681565b60405167ffffffffffffffff909116815260200161021b565b34801561031b57600080fd5b5061032f61032a366004612874565b610840565b6040516001600160a01b03909116815260200161021b565b610267610355366004612a55565b61087e565b34801561036657600080fd5b50610211610b25565b34801561037b57600080fd5b506103c961038a366004612b10565b600660209081526000938452604080852082529284528284209052825290205467ffffffffffffffff811690600160401b90046001600160c01b031682565b6040805167ffffffffffffffff90931683526001600160c01b0390911660208301520161021b565b3480156103fd57600080fd5b5061041161040c366004612b43565b610bfc565b60405161021b9190612baf565b61026761042c366004612c03565b610d10565b61026761043f366004612c2f565b610d27565b34801561045057600080fd5b5061021161045f366004612874565b610d5d565b34801561047057600080fd5b5061021161047f366004612b10565b610de1565b610267610492366004612c7a565b611026565b6102446104a5366004612cd5565b611088565b6104bd6104b8366004612da0565b61148e565b60405161021b9190612de2565b6102676104d8366004612e1c565b611618565b6104f06104eb366004612da0565b611685565b60405161021b9190612e46565b34801561050957600080fd5b50610211610518366004612874565b600560209081526000928352604080842090915290825290205481565b34801561054157600080fd5b506007546102f69067ffffffffffffffff1681565b6102b5610564366004612a55565b63bc197c8160e01b98975050505050505050565b34801561058457600080fd5b506102116105933660046128d4565b60036020526000908152604090205481565b6102676105b3366004612ea8565b6117ee565b6102676105c6366004612f1c565b611b5a565b3480156105d757600080fd5b506102446105e6366004612f42565b600160209081526000928352604080842090915290825290205460ff1681565b6102b5610614366004612f6c565b63f23a6e6160e01b9695505050505050565b610267610634366004612f6c565b611c38565b34801561064557600080fd5b506102446106543660046128d4565b60026020526000908152604090205460ff1681565b610267610677366004612b10565b611e42565b60006001600160e01b03198216630a85bd0160e11b14806106c657507f4e2312e0000000000000000000000000000000000000000000000000000000006001600160e01b03198316145b806106d557506106d582611f45565b92915050565b60006106e73383610840565b33600081815260046020908152604080832087845282529182902080547fffffffffffffffffffffffff0000000000000000000000000000000000000000166001600160a01b038981169182179092559251878152949550919391851692917f287e04de574701d97a55bd9ea85b32defecf76a607b8007ee9ae8c126bf7a746910160405180910390a43360009081526020818152604080832085845290915290205461079990829085908590611fde565b505050565b60008181526009602052604090208054606091906107bb90612fe4565b80601f01602080910402602001604051908101604052809291908181526020018280546107e790612fe4565b80156108345780601f1061080957610100808354040283529160200191610834565b820191906000526020600020905b81548152906001019060200180831161081757829003601f168201915b50505050509050919050565b6001600160a01b03808316600090815260046020908152604080832085845290915281205490911680156108745780610876565b835b949350505050565b84831461089e5760405163899ef10d60e01b815260040160405180910390fd5b336001600160a01b038916148015906108db57506001600160a01b038816600090815260016020908152604080832033845290915290205460ff16155b156108f957604051633d83866f60e01b815260040160405180910390fd5b60008060005b878110156109f3578888828181106109195761091961301e565b9050602002013592508686828181106109345761093461301e565b6000868152600260209081526040909120549102929092013593505060ff1661097057604051634f8cca5b60e11b815260040160405180910390fd5b6001600160a01b038b16600090815260208181526040808320868452909152812080548492906109a190849061304a565b90915550506001600160a01b038a1660009081526020818152604080832086845290915290208054830190556109eb6109da8c85610840565b6109e48c86610840565b8585611fde565b6001016108ff565b50886001600160a01b03168a6001600160a01b0316336001600160a01b03167f4a39dc06d4c0dbc64b70af90fd698a233a518aa5d07e595d983b8c0526c8f7fb8b8b8b8b604051610a4794939291906130b0565b60405180910390a46001600160a01b0389163b15610aef5760405163bc197c8160e01b808252906001600160a01b038b169063bc197c8190610a9b9033908f908e908e908e908e908e908e9060040161310b565b6020604051808303816000875af1158015610aba573d6000803e3d6000fd5b505050506040513d601f19601f82011682018060405250810190610ade9190613160565b6001600160e01b0319161415610afb565b6001600160a01b038916155b15610b195760405163290802d360e11b815260040160405180910390fd5b50505050505050505050565b60003660011981013560f01c9003600301354614610bf55750604080518082018252600481526304b6565760e41b60209182015281517f8b73c3c69bb8fe3d512ecc4cf759cc79239f7b179b0ffacaa9a75d522b39400f818301527f21d66785fec14e4da3d76f3866cf99a28f4da49ec8782c3cab7cf79c1b6fa66b818401527fc89efdaa54c0f20c7adf612882df0950f5a951637e0307cdcb4c672f298b8bc660608201524660808201523060a0808301919091528351808303909101815260c0909101909252815191012090565b5060085490565b6060838214610c1e5760405163899ef10d60e01b815260040160405180910390fd5b8367ffffffffffffffff811115610c3757610c3761317d565b604051908082528060200260200182016040528015610c60578160200160208202803683370190505b50905060005b84811015610d0757600080878784818110610c8357610c8361301e565b9050602002016020810190610c989190613193565b6001600160a01b03166001600160a01b031681526020019081526020016000206000858584818110610ccc57610ccc61301e565b90506020020135815260200190815260200160002054828281518110610cf457610cf461301e565b6020908102919091010152600101610c66565b50949350505050565b610d18612150565b50610d2382826121a6565b5050565b610d2f612150565b50610d3d85858585856121f8565b600084815260036020526040902054610d5590612357565b505050505050565b6001600160a01b0382166000908152600560209081526040808320848452909152812054808203610d8f576000610dd0565b6001600160a01b0384166000908152600660209081526040808320868452825280832060001985018452909152902054600160401b90046001600160c01b03165b6001600160c01b0316949350505050565b6000814211610e1c576040517f83aace3d00000000000000000000000000000000000000000000000000000000815260040160405180910390fd5b6001600160a01b038416600090815260056020908152604080832086845290915281205490819003610e5257600091505061101f565b6001600160a01b038516600090815260066020908152604080832087845282528083206000198501845290915290205467ffffffffffffffff168310610eda576001600160a01b03851660009081526006602090815260408083208784528252808320600019909401835292905220546001600160c01b03600160401b90910416905061101f565b6001600160a01b0385166000908152600660209081526040808320878452825280832083805290915290205467ffffffffffffffff16831015610f2157600091505061101f565b600060001982015b81811115610fdf576001600160a01b0387166000908152600660209081526040808320898452825280832060028686030485038085529083529281902081518083019092525467ffffffffffffffff8116808352600160401b9091046001600160c01b03169282019290925290879003610fb657602001516001600160c01b0316945061101f9350505050565b805167ffffffffffffffff16871115610fd157819350610fd8565b6001820392505b5050610f29565b506001600160a01b038616600090815260066020908152604080832088845282528083209383529290522054600160401b90046001600160c01b03169150505b9392505050565b61102e612150565b5060008381526009602052604090206110488284836131f4565b50827f6bb7ff708619ba0610cba295a58592e0451dee2622938c8755667688daf3529b838360405161107b9291906132b4565b60405180910390a2505050565b600080611093610b25565b6007546040516110dc917f7a41bb8eed3a04b9ccfc055b3e6b3247171ef52d9f9a1242a8f6a4bd2b40ed9e918d918d918d918d918d9167ffffffffffffffff1690602001613300565b604051602081830303815290604052805190602001206040516020016111349291907f190100000000000000000000000000000000000000000000000000000000000081526002810192909252602282015260420190565b60408051808303601f190181529190528051602090910120600754909150600090600160401b900467ffffffffffffffff16815b8181101561143c5760006001858989858181106111875761118761301e565b61119d926020606090920201908101915061335a565b8a8a868181106111af576111af61301e565b905060600201602001358b8b878181106111cb576111cb61301e565b905060600201604001356040516000815260200160405260405161120b949392919093845260ff9290921660208401526040830152606082015260800190565b6020604051602081039080840390855afa15801561122d573d6000803e3d6000fd5b5050604051601f1901519150506001600160a01b0381163b156113b8577f1626ba7e000000000000000000000000000000000000000000000000000000006001600160a01b038216631626ba7e878b8b8781811061128d5761128d61301e565b905060600201602001358c8c888181106112a9576112a961301e565b905060600201604001358d8d898181106112c5576112c561301e565b6112db926020606090920201908101915061335a565b60405160200161132393929190928352602083019190915260f81b7fff0000000000000000000000000000000000000000000000000000000000000016604082015260410190565b6040516020818303038152906040526040518363ffffffff1660e01b815260040161134f92919061337d565b602060405180830381865afa15801561136c573d6000803e3d6000fd5b505050506040513d601f19601f820116820180604052508101906113909190613160565b6001600160e01b031916146113b857604051633ba7c2c960e21b815260040160405180910390fd5b6001600160a01b038116600090815260208181526040808320638c995b9160e01b8452909152812054900361140057604051633ba7c2c960e21b815260040160405180910390fd5b806001600160a01b0316846001600160a01b03161061143257604051633ba7c2c960e21b815260040160405180910390fd5b9250600101611168565b5061147f8b8b8b8b8b8080601f0160208091040260200160405190810160405280939291908181526020018383808284376000920191909152506123b092505050565b9b9a5050505050505050505050565b6060611498612150565b508167ffffffffffffffff8111156114b2576114b261317d565b6040519080825280602002602001820160405280156114db578160200160208202803683370190505b50905060005b82811015611611576115e78484838181106114fe576114fe61301e565b90506020028101906115109190613396565b61151e9060208101906133b6565b8585848181106115305761153061301e565b90506020028101906115429190613396565b611553906040810190602001613193565b8686858181106115655761156561301e565b90506020028101906115779190613396565b6040013587878681811061158d5761158d61301e565b905060200281019061159f9190613396565b6115ad9060608101906133d1565b8080601f0160208091040260200160405190810160405280939291908181526020018383808284376000920191909152506123b092505050565b8282815181106115f9576115f961301e565b911515602092830291909101909101526001016114e1565b5092915050565b3360008181526001602090815260408083206001600160a01b03871680855290835292819020805460ff191686151590811790915590519081529192917f17307eab39ab6107e8899845ad3d59bd9653f200f220920489ca2b5937696c3191015b60405180910390a35050565b60608167ffffffffffffffff8111156116a0576116a061317d565b6040519080825280602002602001820160405280156116d357816020015b60608152602001906001900390816116be5790505b50905060005b8281101561161157600080308686858181106116f7576116f761301e565b905060200281019061170991906133d1565b604051611717929190613418565b600060405180830381855af49150503d8060008114611752576040519150601f19603f3d011682016040523d82523d6000602084013e611757565b606091505b5091509150816117c65760448151101561177057600080fd5b6004810190508080602001905181019061178a9190613428565b6040517f08c379a00000000000000000000000000000000000000000000000000000000081526004016117bd9190612945565b60405180910390fd5b808484815181106117d9576117d961301e565b602090810291909101015250506001016116d9565b60075467ffffffffffffffff1615611832576040517fb2c6f10f00000000000000000000000000000000000000000000000000000000815260040160405180910390fd5b8061183c57600080fd5b8181111561185d57604051631534858160e01b815260040160405180910390fd5b831561191d5760005b8481101561191b576119128686838181106118835761188361301e565b90506020028101906118959190613396565b6118a39060208101906133b6565b8787848181106118b5576118b561301e565b90506020028101906118c79190613396565b6118d8906040810190602001613193565b8888858181106118ea576118ea61301e565b90506020028101906118fc9190613396565b6040013589898681811061158d5761158d61301e565b50600101611866565b505b6000806000805b85811015611a1f5786868281811061193e5761193e61301e565b90506020020160208101906119539190613193565b9350836001600160a01b0316836001600160a01b03161061198757604051633ba7c2c960e21b815260040160405180910390fd5b6001600160a01b038416600081815260208181526040808320638c995b9160e01b8085529252808320805460019081019091559051889750958101959481019433927fc3d58168c5ae7397731d063d5bbf3d657854427343f4c083240f7aacaa2d0f62926119fd92918252602082015260400190565b60405180910390a4611a1a600085638c995b9160e01b6001611fde565b611924565b506007805467ffffffffffffffff8616600160401b027fffffffffffffffffffffffffffffffff00000000000000000000000000000000909116176001179055638c995b9160e01b60005260036020527f9a8835d54467235524534f0e45c3073a7dc3fa8203fd91cf25b3afd01636d25e819055611b4d604080518082018252600481526304b6565760e41b60209182015281517f8b73c3c69bb8fe3d512ecc4cf759cc79239f7b179b0ffacaa9a75d522b39400f818301527f21d66785fec14e4da3d76f3866cf99a28f4da49ec8782c3cab7cf79c1b6fa66b818401527fc89efdaa54c0f20c7adf612882df0950f5a951637e0307cdcb4c672f298b8bc660608201524660808201523060a0808301919091528351808303909101815260c0909101909252815191012090565b6008555050505050505050565b611b62612150565b5080611b6d57600080fd5b638c995b9160e01b60005260036020527f9a8835d54467235524534f0e45c3073a7dc3fa8203fd91cf25b3afd01636d25e5463ffffffff82161115611bc557604051631534858160e01b815260040160405180910390fd5b600780547fffffffffffffffffffffffffffffffff0000000000000000ffffffffffffffff1663ffffffff8316600160401b81029190911790915560405190815233907fc8bdbc84626c082832bea9ab3c3626d6941b91b2df27cc2f8b621597415e4d869060200160405180910390a250565b336001600160a01b03871614801590611c7557506001600160a01b038616600090815260016020908152604080832033845290915290205460ff16155b15611c9357604051633d83866f60e01b815260040160405180910390fd5b60008481526002602052604090205460ff16611cc257604051634f8cca5b60e11b815260040160405180910390fd5b6001600160a01b03861660009081526020818152604080832087845290915281208054859290611cf390849061304a565b90915550506001600160a01b038581166000818152602081815260408083208984528252918290208054880190558151888152908101879052919289169133917fc3d58168c5ae7397731d063d5bbf3d657854427343f4c083240f7aacaa2d0f62910160405180910390a46001600160a01b0385163b15611dfa5760405163f23a6e6160e01b808252906001600160a01b0387169063f23a6e6190611da69033908b908a908a908a908a906004016134ca565b6020604051808303816000875af1158015611dc5573d6000803e3d6000fd5b505050506040513d601f19601f82011682018060405250810190611de99190613160565b6001600160e01b0319161415611e06565b6001600160a01b038516155b15611e245760405163290802d360e11b815260040160405180910390fd5b610d55611e318786610840565b611e3b8787610840565b8686611fde565b336001600160a01b03841614801590611e7f57506001600160a01b038316600090815260016020908152604080832033845290915290205460ff16155b8015611e905750611e8e612150565b155b15611eae57604051633d83866f60e01b815260040160405180910390fd5b611eb98383836125cc565b7f7366a46f00000000000000000000000000000000000000000000000000000000820161079957638c995b9160e01b60005260036020527f9a8835d54467235524534f0e45c3073a7dc3fa8203fd91cf25b3afd01636d25e54600754600160401b900467ffffffffffffffff16111561079957604051631534858160e01b815260040160405180910390fd5b60006001600160e01b031982167f01ffc9a7000000000000000000000000000000000000000000000000000000001480611fa857507fd9b67a26000000000000000000000000000000000000000000000000000000006001600160e01b03198316145b806106d55750506001600160e01b0319167f0e89341c000000000000000000000000000000000000000000000000000000001490565b826001600160a01b0316846001600160a01b031614158015611fff57508015155b1561214a576001600160a01b038416156120ab576001600160a01b038416600090815260056020908152604080832085845290915281205490818103612046576000612087565b6001600160a01b0386166000908152600660209081526040808320878452825280832060001986018452909152902054600160401b90046001600160c01b03165b6001600160c01b031690506120a8868584846120a3888261304a565b612673565b50505b6001600160a01b0383161561214a576001600160a01b0383166000908152600560209081526040808320858452909152812054908181036120ed57600061212e565b6001600160a01b0385166000908152600660209081526040808320878452825280832060001986018452909152902054600160401b90046001600160c01b03165b6001600160c01b03169050610d55858584846120a3888261350f565b50505050565b6000333014806121825750336000908152602081815260408083206001600160e01b0319843516845290915290205415155b1561218d5750600190565b604051633d83866f60e01b815260040160405180910390fd5b600082815260026020908152604091829020805460ff19168415159081179091559151918252839133917f030b8b6f293952c4e53cc2ac59481057844588ce19c7d10ca5468e4d6938f1959101611679565b6000848152600360205260408120805485929061221690849061350f565b90915550506001600160a01b0385166000818152602081815260408083208884528252808320805488019055805188815291820187905233917fc3d58168c5ae7397731d063d5bbf3d657854427343f4c083240f7aacaa2d0f62910160405180910390a46001600160a01b0385163b156123175760405163f23a6e6160e01b808252906001600160a01b0387169063f23a6e61906122c39033906000908a908a908a908a906004016134ca565b6020604051808303816000875af11580156122e2573d6000803e3d6000fd5b505050506040513d601f19601f820116820180604052508101906123069190613160565b6001600160e01b0319161415612323565b6001600160a01b038516155b156123415760405163290802d360e11b815260040160405180910390fd5b6123506000611e3b8787610840565b5050505050565b600078010000000000000000000000000000000000000000000000008211156123ac576040517fd5e0d1b200000000000000000000000000000000000000000000000000000000815260040160405180910390fd5b5090565b6007805467ffffffffffffffff8082166001011667ffffffffffffffff199091161790556000808560038111156123e9576123e96132c8565b036124655760008083516020850186885af190508061241b57604051633c47f9b560e21b815260040160405180910390fd5b836001600160a01b03167ffa3c55dc43f5cfdeb2abee243c63ad490db2fee39fd127076ed9e7afa15ad63886858560405161245893929190613527565b60405180910390a2610876565b6001856003811115612479576124796132c8565b036124aa57600080835160208501875af490508061241b57604051633c47f9b560e21b815260040160405180910390fd5b60028560038111156124be576124be6132c8565b0361253f57600082516020840185f090506001600160a01b0381166124f657604051633c47f9b560e21b815260040160405180910390fd5b806001600160a01b03167fd187b7c22150909fa5ee0d652f5966e66148500fabe5615b1079e7ef39fe3fb78786604051612531929190613556565b60405180910390a250610876565b60008061254b84613571565b90508084518560200187f591506001600160a01b03821661257f57604051633c47f9b560e21b815260040160405180910390fd5b816001600160a01b03167fd187b7c22150909fa5ee0d652f5966e66148500fabe5615b1079e7ef39fe3fb788876040516125ba929190613556565b60405180910390a25050949350505050565b6001600160a01b038316600090815260208181526040808320858452909152812080548392906125fd90849061304a565b909155505060008281526003602090815260408083208054859003905580518581529182018490526001600160a01b0386169133917fc3d58168c5ae7397731d063d5bbf3d657854427343f4c083240f7aacaa2d0f62910160405180910390a461079961266a8484610840565b60008484611fde565b600061267e42612818565b905083158015906126ca57506001600160a01b038616600090815260066020908152604080832088845282528083206000198801845290915290205467ffffffffffffffff8281169116145b15612732576126d882612357565b6001600160a01b0387166000908152600660209081526040808320898452825280832060001989018452909152902080546001600160c01b0392909216600160401b0267ffffffffffffffff9092169190911790556127ca565b60405180604001604052808267ffffffffffffffff16815260200161275684612357565b6001600160c01b039081169091526001600160a01b03881660008181526006602090815260408083208b845282528083208a84528252808320865196830151909516600160401b0267ffffffffffffffff909616959095179093559081526005825282812088825290915220805460010190555b50604080518381526020810183905285916001600160a01b038816917f21a99d51b8a0a2e2ead709843a1ecfaab977908135cf1c085c0a6246eea6e0f0910160405180910390a35050505050565b6000600160401b8211156123ac576040517f5b7f254e00000000000000000000000000000000000000000000000000000000815260040160405180910390fd5b80356001600160a01b038116811461286f57600080fd5b919050565b6000806040838503121561288757600080fd5b61289083612858565b946020939093013593505050565b6001600160e01b0319811681146128b457600080fd5b50565b6000602082840312156128c957600080fd5b813561101f8161289e565b6000602082840312156128e657600080fd5b5035919050565b60005b838110156129085781810151838201526020016128f0565b8381111561214a5750506000910152565b600081518084526129318160208601602086016128ed565b601f01601f19169290920160200192915050565b60208152600061101f6020830184612919565b60008083601f84011261296a57600080fd5b50813567ffffffffffffffff81111561298257600080fd5b60208301915083602082850101111561299a57600080fd5b9250929050565b6000806000806000608086880312156129b957600080fd5b6129c286612858565b94506129d060208701612858565b935060408601359250606086013567ffffffffffffffff8111156129f357600080fd5b6129ff88828901612958565b969995985093965092949392505050565b60008083601f840112612a2257600080fd5b50813567ffffffffffffffff811115612a3a57600080fd5b6020830191508360208260051b850101111561299a57600080fd5b60008060008060008060008060a0898b031215612a7157600080fd5b612a7a89612858565b9750612a8860208a01612858565b9650604089013567ffffffffffffffff80821115612aa557600080fd5b612ab18c838d01612a10565b909850965060608b0135915080821115612aca57600080fd5b612ad68c838d01612a10565b909650945060808b0135915080821115612aef57600080fd5b50612afc8b828c01612958565b999c989b5096995094979396929594505050565b600080600060608486031215612b2557600080fd5b612b2e84612858565b95602085013595506040909401359392505050565b60008060008060408587031215612b5957600080fd5b843567ffffffffffffffff80821115612b7157600080fd5b612b7d88838901612a10565b90965094506020870135915080821115612b9657600080fd5b50612ba387828801612a10565b95989497509550505050565b6020808252825182820181905260009190848201906040850190845b81811015612be757835183529284019291840191600101612bcb565b50909695505050505050565b8035801515811461286f57600080fd5b60008060408385031215612c1657600080fd5b82359150612c2660208401612bf3565b90509250929050565b600080600080600060808688031215612c4757600080fd5b612c5086612858565b94506020860135935060408601359250606086013567ffffffffffffffff8111156129f357600080fd5b600080600060408486031215612c8f57600080fd5b83359250602084013567ffffffffffffffff811115612cad57600080fd5b612cb986828701612958565b9497909650939450505050565b80356004811061286f57600080fd5b600080600080600080600060a0888a031215612cf057600080fd5b612cf988612cc6565b9650612d0760208901612858565b955060408801359450606088013567ffffffffffffffff80821115612d2b57600080fd5b612d378b838c01612958565b909650945060808a0135915080821115612d5057600080fd5b818a0191508a601f830112612d6457600080fd5b813581811115612d7357600080fd5b8b6020606083028501011115612d8857600080fd5b60208301945080935050505092959891949750929550565b60008060208385031215612db357600080fd5b823567ffffffffffffffff811115612dca57600080fd5b612dd685828601612a10565b90969095509350505050565b6020808252825182820181905260009190848201906040850190845b81811015612be7578351151583529284019291840191600101612dfe565b60008060408385031215612e2f57600080fd5b612e3883612858565b9150612c2660208401612bf3565b6000602080830181845280855180835260408601915060408160051b870101925083870160005b82811015612e9b57603f19888603018452612e89858351612919565b94509285019290850190600101612e6d565b5092979650505050505050565b600080600080600060608688031215612ec057600080fd5b853567ffffffffffffffff80821115612ed857600080fd5b612ee489838a01612a10565b90975095506020880135915080821115612efd57600080fd5b50612f0a88828901612a10565b96999598509660400135949350505050565b600060208284031215612f2e57600080fd5b813563ffffffff8116811461101f57600080fd5b60008060408385031215612f5557600080fd5b612f5e83612858565b9150612c2660208401612858565b60008060008060008060a08789031215612f8557600080fd5b612f8e87612858565b9550612f9c60208801612858565b94506040870135935060608701359250608087013567ffffffffffffffff811115612fc657600080fd5b612fd289828a01612958565b979a9699509497509295939492505050565b600181811c90821680612ff857607f821691505b60208210810361301857634e487b7160e01b600052602260045260246000fd5b50919050565b634e487b7160e01b600052603260045260246000fd5b634e487b7160e01b600052601160045260246000fd5b60008282101561305c5761305c613034565b500390565b81835260007f07ffffffffffffffffffffffffffffffffffffffffffffffffffffffffffffff83111561309357600080fd5b8260051b8083602087013760009401602001938452509192915050565b6040815260006130c4604083018688613061565b82810360208401526130d7818587613061565b979650505050505050565b81835281816020850137506000828201602090810191909152601f909101601f19169091010190565b60006001600160a01b03808b168352808a1660208401525060a0604083015261313860a08301888a613061565b828103606084015261314b818789613061565b9050828103608084015261147f8185876130e2565b60006020828403121561317257600080fd5b815161101f8161289e565b634e487b7160e01b600052604160045260246000fd5b6000602082840312156131a557600080fd5b61101f82612858565b601f82111561079957600081815260208120601f850160051c810160208610156131d55750805b601f850160051c820191505b81811015610d55578281556001016131e1565b67ffffffffffffffff83111561320c5761320c61317d565b6132208361321a8354612fe4565b836131ae565b6000601f841160018114613254576000851561323c5750838201355b600019600387901b1c1916600186901b178355612350565b600083815260209020601f19861690835b828110156132855786850135825560209485019460019092019101613265565b50868210156132a25760001960f88860031b161c19848701351681555b505060018560011b0183555050505050565b6020815260006108766020830184866130e2565b634e487b7160e01b600052602160045260246000fd5b600481106132fc57634e487b7160e01b600052602160045260246000fd5b9052565b87815261331060208201886132de565b6001600160a01b038616604082015284606082015260c06080820152600061333c60c0830185876130e2565b905067ffffffffffffffff831660a083015298975050505050505050565b60006020828403121561336c57600080fd5b813560ff8116811461101f57600080fd5b8281526040602082015260006108766040830184612919565b60008235607e198336030181126133ac57600080fd5b9190910192915050565b6000602082840312156133c857600080fd5b61101f82612cc6565b6000808335601e198436030181126133e857600080fd5b83018035915067ffffffffffffffff82111561340357600080fd5b60200191503681900382131561299a57600080fd5b8183823760009101908152919050565b60006020828403121561343a57600080fd5b815167ffffffffffffffff8082111561345257600080fd5b818401915084601f83011261346657600080fd5b8151818111156134785761347861317d565b604051601f8201601f19908116603f011681019083821181831017156134a0576134a061317d565b816040528281528760208487010111156134b957600080fd5b6130d78360208301602088016128ed565b60006001600160a01b03808916835280881660208401525085604083015284606083015260a0608083015261350360a0830184866130e2565b98975050505050505050565b6000821982111561352257613522613034565b500190565b61353181856132de565b82602082015260606040820152600061354d6060830184612919565b95945050505050565b6040810161356482856132de565b8260208301529392505050565b805160208083015191908110156130185760001960209190910360031b1b1691905056fea264697066735822122047784eabf2a8c5819fab9f520d6a125750d0e9d092bd09834a2e9efb029d1c3a64736f6c634300080f0033",
    "linkReferences": {}
  }
}