{
  "abi": [
    {
      "inputs": [
        {
          "internalType": "contract KaliClub",
          "name": "_clubMaster",
          "type": "address"
        }
      ],
      "stateMutability": "payable",
      "type": "constructor"
    },
    {
      "inputs": [],
      "name": "Create2fail",
      "type": "error"
    },
    {
      "anonymous": false,
      "inputs": [
        {
          "components": [
            {
              "internalType": "enum Operation",
              "name": "op",
              "type": "uint8"
            },
            {
              "internalType": "address",
              "name": "to",
              "type": "address"
            },
            {
              "internalType": "uint256",
              "name": "value",
              "type": "uint256"
            },
            {
              "internalType": "bytes",
              "name": "data",
              "type": "bytes"
            }
          ],
          "indexed": false,
          "internalType": "struct Call[]",
          "name": "calls",
          "type": "tuple[]"
        },
        {
          "components": [
            {
              "internalType": "bool",
              "name": "mint",
              "type": "bool"
            },
            {
              "internalType": "address",
              "name": "signer",
              "type": "address"
            },
            {
              "internalType": "uint256",
              "name": "id",
              "type": "uint256"
            }
          ],
          "indexed": false,
          "internalType": "struct IMember.Member[]",
          "name": "members",
          "type": "tuple[]"
        },
        {
          "indexed": false,
          "internalType": "uint256",
          "name": "quorum",
          "type": "uint256"
        },
        {
          "indexed": false,
          "internalType": "bytes32",
          "name": "name",
          "type": "bytes32"
        },
        {
          "indexed": false,
          "internalType": "bytes32",
          "name": "symbol",
          "type": "bytes32"
        },
        {
          "indexed": false,
          "internalType": "bool",
          "name": "signerPaused",
          "type": "bool"
        },
        {
          "indexed": false,
          "internalType": "string",
          "name": "baseURI",
          "type": "string"
        }
      ],
      "name": "ClubDeployed",
      "type": "event"
    },
    {
      "inputs": [
        {
          "components": [
            {
              "internalType": "enum Operation",
              "name": "op",
              "type": "uint8"
            },
            {
              "internalType": "address",
              "name": "to",
              "type": "address"
            },
            {
              "internalType": "uint256",
              "name": "value",
              "type": "uint256"
            },
            {
              "internalType": "bytes",
              "name": "data",
              "type": "bytes"
            }
          ],
          "internalType": "struct Call[]",
          "name": "calls",
          "type": "tuple[]"
        },
        {
          "components": [
            {
              "internalType": "bool",
              "name": "mint",
              "type": "bool"
            },
            {
              "internalType": "address",
              "name": "signer",
              "type": "address"
            },
            {
              "internalType": "uint256",
              "name": "id",
              "type": "uint256"
            }
          ],
          "internalType": "struct IMember.Member[]",
          "name": "members",
          "type": "tuple[]"
        },
        {
          "internalType": "uint256",
          "name": "quorum",
          "type": "uint256"
        },
        {
          "internalType": "bytes32",
          "name": "name",
          "type": "bytes32"
        },
        {
          "internalType": "bytes32",
          "name": "symbol",
          "type": "bytes32"
        },
        {
          "internalType": "bool",
          "name": "signerPaused",
          "type": "bool"
        },
        {
          "internalType": "string",
          "name": "baseURI",
          "type": "string"
        }
      ],
      "name": "deployClub",
      "outputs": [
        {
          "internalType": "contract KaliClub",
          "name": "club",
          "type": "address"
        }
      ],
      "stateMutability": "payable",
      "type": "function"
    },
    {
      "inputs": [
        {
          "internalType": "bytes32",
          "name": "name",
          "type": "bytes32"
        },
        {
          "internalType": "bytes32",
          "name": "symbol",
          "type": "bytes32"
        }
      ],
      "name": "determineClone",
      "outputs": [
        {
          "internalType": "address",
          "name": "club",
          "type": "address"
        },
        {
          "internalType": "bool",
          "name": "deployed",
          "type": "bool"
        }
      ],
      "stateMutability": "view",
      "type": "function"
    },
    {
      "inputs": [
        {
          "internalType": "bytes[]",
          "name": "data",
          "type": "bytes[]"
        }
      ],
      "name": "multicall",
      "outputs": [
        {
          "internalType": "bytes[]",
          "name": "results",
          "type": "bytes[]"
        }
      ],
      "stateMutability": "payable",
      "type": "function"
    }
  ],
  "bytecode": {
    "object": "0x60a0604052604051610de0380380610de083398101604081905261002291610033565b6001600160a01b0316608052610063565b60006020828403121561004557600080fd5b81516001600160a01b038116811461005c57600080fd5b9392505050565b608051610d5b6100856000396000818161012a01526102760152610d5b6000f3fe6080604052600436106100345760003560e01c806321ec09c714610039578063468db1f114610069578063ac9650d8146100a8575b600080fd5b61004c6100473660046107c9565b6100c8565b6040516001600160a01b0390911681526020015b60405180910390f35b34801561007557600080fd5b506100896100843660046108b8565b610212565b604080516001600160a01b039093168352901515602083015201610060565b6100bb6100b63660046108da565b6102a8565b6040516100609190610978565b60408051602081018690529081018490527fffffffffffffffff0000000000000000000000000000000000000000000000004660c01b16606082015260009061015190869060680160408051601f198184030181529190526001600160a01b037f0000000000000000000000000000000000000000000000000000000000000000169190610418565b9050806001600160a01b031663c4361894348c8c8c8c8c8a8a6040518963ffffffff1660e01b815260040161018c9796959493929190610b6b565b6000604051808303818588803b1580156101a557600080fd5b505af11580156101b9573d6000803e3d6000fd5b50505050507fa5a696e99d0c7b9121936bba115ef3da53ea57dea09cdb512044ff15ea2566968a8a8a8a8a8a8a8a8a6040516101fd99989796959493929190610bc2565b60405180910390a19998505050505050505050565b60408051602081018490529081018290527fffffffffffffffff0000000000000000000000000000000000000000000000004660c01b166060820152600090819061029d90859060680160408051601f198184030181529190526001600160a01b037f000000000000000000000000000000000000000000000000000000000000000016919061047c565b909590945092505050565b60608167ffffffffffffffff8111156102c3576102c3610704565b6040519080825280602002602001820160405280156102f657816020015b60608152602001906001900390816102e15790505b50905060005b82811015610411576000803086868581811061031a5761031a610c27565b905060200281019061032c9190610c3d565b60405161033a929190610c84565b600060405180830381855af49150503d8060008114610375576040519150601f19603f3d011682016040523d82523d6000602084013e61037a565b606091505b5091509150816103e95760448151101561039357600080fd5b600481019050808060200190518101906103ad9190610c94565b6040517f08c379a00000000000000000000000000000000000000000000000000000000081526004016103e09190610d0b565b60405180910390fd5b808484815181106103fc576103fc610c27565b602090810291909101015250506001016102fc565b5092915050565b60008060006104278685610514565b915091508481836000f592506001600160a01b038316610473576040517f5f9f991000000000000000000000000000000000000000000000000000000000815260040160405180910390fd5b50509392505050565b60008060008061048c8786610514565b9020604080517fff000000000000000000000000000000000000000000000000000000000000006020808301919091523060601b6bffffffffffffffffffffffff1916602183015260358201999099526055808201939093528151808203909301835260750190528051960195909520966001600160a01b0388163b15159650945050505050565b80516040517f610000000000000000000000000000000000000000000000000000000000000081526069820160f081811b60018401527f3d81600a3d39f336602f57343d527f000000000000000000000000000000000060038401527f9e4ac34f21c619cefc926c8bd93b54bf5a39c7ab2127a895af1cc0691d7e3dff60128401527f60203da13d3df35b3d3d3d3d363d3d3761000000000000000000000000000000603284015260028401901b604383018190527f60673639366100000000000000000000000000000000000000000000000000006045840152604b8301527f013d730000000000000000000000000000000000000000000000000000000000604d830152606085901b60508301527f5af43d3d93803e606557fd5bf3000000000000000000000000000000000000006064830152909160738101916020850182607186015b6020821061067a5782518152602092830192601f19909201910161065b565b915160001960208390036101000a011916825260f09390931b9201919091525090939092509050565b60008083601f8401126106b557600080fd5b50813567ffffffffffffffff8111156106cd57600080fd5b6020830191508360208260051b85010111156106e857600080fd5b9250929050565b803580151581146106ff57600080fd5b919050565b634e487b7160e01b600052604160045260246000fd5b604051601f8201601f1916810167ffffffffffffffff8111828210171561074357610743610704565b604052919050565b600067ffffffffffffffff82111561076557610765610704565b50601f01601f191660200190565b600082601f83011261078457600080fd5b81356107976107928261074b565b61071a565b8181528460208386010111156107ac57600080fd5b816020850160208301376000918101602001919091529392505050565b600080600080600080600080600060e08a8c0312156107e757600080fd5b893567ffffffffffffffff808211156107ff57600080fd5b61080b8d838e016106a3565b909b50995060208c013591508082111561082457600080fd5b818c0191508c601f83011261083857600080fd5b81358181111561084757600080fd5b8d602060608302850101111561085c57600080fd5b602083019950975060408c0135965060608c0135955060808c0135945061088560a08d016106ef565b935060c08c013591508082111561089b57600080fd5b506108a88c828d01610773565b9150509295985092959850929598565b600080604083850312156108cb57600080fd5b50508035926020909101359150565b600080602083850312156108ed57600080fd5b823567ffffffffffffffff81111561090457600080fd5b610910858286016106a3565b90969095509350505050565b60005b8381101561093757818101518382015260200161091f565b83811115610946576000848401525b50505050565b6000815180845261096481602086016020860161091c565b601f01601f19169290920160200192915050565b6000602080830181845280855180835260408601915060408160051b870101925083870160005b828110156109cd57603f198886030184526109bb85835161094c565b9450928501929085019060010161099f565b5092979650505050505050565b80356001600160a01b03811681146106ff57600080fd5b81835281816020850137506000828201602090810191909152601f909101601f19169091010190565b81835260006020808501808196508560051b810191508460005b87811015610afa5782840389528135607e19883603018112610a5557600080fd5b87016080813560048110610a6857600080fd5b86526001600160a01b03610a7d8389016109da565b16868801526040828101359087015260608083013536849003601e19018112610aa557600080fd5b90920187810192903567ffffffffffffffff811115610ac357600080fd5b803603841315610ad257600080fd5b8282890152610ae483890182866109f1565b9c89019c97505050928601925050600101610a34565b5091979650505050505050565b8183526000602080850194508260005b85811015610b6057610b28826106ef565b151587526001600160a01b03610b3f8484016109da565b16878401526040828101359088015260609687019690910190600101610b17565b509495945050505050565b60a081526000610b7f60a08301898b610a1a565b8281036020840152610b9281888a610b07565b905085604084015284151560608401528281036080840152610bb4818561094c565b9a9950505050505050505050565b60e081526000610bd660e083018b8d610a1a565b8281036020840152610be9818a8c610b07565b905087604084015286606084015285608084015284151560a084015282810360c0840152610c17818561094c565b9c9b505050505050505050505050565b634e487b7160e01b600052603260045260246000fd5b6000808335601e19843603018112610c5457600080fd5b83018035915067ffffffffffffffff821115610c6f57600080fd5b6020019150368190038213156106e857600080fd5b8183823760009101908152919050565b600060208284031215610ca657600080fd5b815167ffffffffffffffff811115610cbd57600080fd5b8201601f81018413610cce57600080fd5b8051610cdc6107928261074b565b818152856020838501011115610cf157600080fd5b610d0282602083016020860161091c565b95945050505050565b602081526000610d1e602083018461094c565b939250505056fea2646970667358221220ef42d5da4d8b0468a7e81df467dda47b734ca321dd3be6ba142328ac474bbe5764736f6c634300080f0033",
    "linkReferences": {}
  }
}