{
  "abi": [
    {
      "inputs": [
        {
          "internalType": "contract KaliClub",
          "name": "_clubMaster",
          "type": "address"
        }
      ],
      "stateMutability": "payable",
      "type": "constructor"
    },
    {
      "inputs": [],
      "name": "Create2fail",
      "type": "error"
    },
    {
      "anonymous": false,
      "inputs": [
        {
          "components": [
            {
              "internalType": "enum Operation",
              "name": "op",
              "type": "uint8"
            },
            {
              "internalType": "address",
              "name": "to",
              "type": "address"
            },
            {
              "internalType": "uint256",
              "name": "value",
              "type": "uint256"
            },
            {
              "internalType": "bytes",
              "name": "data",
              "type": "bytes"
            }
          ],
          "indexed": false,
          "internalType": "struct Call[]",
          "name": "calls",
          "type": "tuple[]"
        },
        {
          "indexed": false,
          "internalType": "address[]",
          "name": "signers",
          "type": "address[]"
        },
        {
          "indexed": false,
          "internalType": "uint256",
          "name": "threshold",
          "type": "uint256"
        },
        {
          "indexed": false,
          "internalType": "bytes32",
          "name": "name",
          "type": "bytes32"
        }
      ],
      "name": "ClubDeployed",
      "type": "event"
    },
    {
      "inputs": [
        {
          "components": [
            {
              "internalType": "enum Operation",
              "name": "op",
              "type": "uint8"
            },
            {
              "internalType": "address",
              "name": "to",
              "type": "address"
            },
            {
              "internalType": "uint256",
              "name": "value",
              "type": "uint256"
            },
            {
              "internalType": "bytes",
              "name": "data",
              "type": "bytes"
            }
          ],
          "internalType": "struct Call[]",
          "name": "calls",
          "type": "tuple[]"
        },
        {
          "internalType": "address[]",
          "name": "signers",
          "type": "address[]"
        },
        {
          "internalType": "uint256",
          "name": "threshold",
          "type": "uint256"
        },
        {
          "internalType": "bytes32",
          "name": "name",
          "type": "bytes32"
        }
      ],
      "name": "deployClub",
      "outputs": [],
      "stateMutability": "payable",
      "type": "function"
    },
    {
      "inputs": [
        {
          "internalType": "bytes32",
          "name": "name",
          "type": "bytes32"
        }
      ],
      "name": "determineClub",
      "outputs": [
        {
          "internalType": "address",
          "name": "club",
          "type": "address"
        },
        {
          "internalType": "bool",
          "name": "deployed",
          "type": "bool"
        }
      ],
      "stateMutability": "view",
      "type": "function"
    },
    {
      "inputs": [
        {
          "internalType": "bytes[]",
          "name": "data",
          "type": "bytes[]"
        }
      ],
      "name": "multicall",
      "outputs": [
        {
          "internalType": "bytes[]",
          "name": "results",
          "type": "bytes[]"
        }
      ],
      "stateMutability": "payable",
      "type": "function"
    }
  ],
  "bytecode": {
    "object": "0x60a0604052604051610c53380380610c5383398101604081905261002291610033565b6001600160a01b0316608052610063565b60006020828403121561004557600080fd5b81516001600160a01b038116811461005c57600080fd5b9392505050565b608051610bce6100856000396000818161011401526103160152610bce6000f3fe6080604052600436106100345760003560e01c806326c89eca14610039578063ac9650d81461007d578063ff70277a1461009d575b600080fd5b34801561004557600080fd5b5061005961005436600461067b565b6100b2565b604080516001600160a01b0390931683529015156020830152015b60405180910390f35b61009061008b3660046106e0565b610145565b604051610074919061077e565b6100b06100ab3660046107e0565b6102b5565b005b60008061013b8384466040516020016100fa92919091825260d81b7fffffffffff00000000000000000000000000000000000000000000000000000016602082015260250190565b60408051601f198184030181529190526001600160a01b037f00000000000000000000000000000000000000000000000000000000000000001691906103f0565b9094909350915050565b60608167ffffffffffffffff8111156101605761016061085e565b60405190808252806020026020018201604052801561019357816020015b606081526020019060019003908161017e5790505b50905060005b828110156102ae57600080308686858181106101b7576101b7610874565b90506020028101906101c9919061088a565b6040516101d79291906108d1565b600060405180830381855af49150503d8060008114610212576040519150601f19603f3d011682016040523d82523d6000602084013e610217565b606091505b5091509150816102865760448151101561023057600080fd5b6004810190508080602001905181019061024a91906108e1565b6040517f08c379a000000000000000000000000000000000000000000000000000000000815260040161027d919061098e565b60405180910390fd5b8084848151811061029957610299610874565b60209081029190910101525050600101610199565b5092915050565b600061033d8283466040516020016102fc92919091825260d81b7fffffffffff00000000000000000000000000000000000000000000000000000016602082015260250190565b60408051601f198184030181529190526001600160a01b037f0000000000000000000000000000000000000000000000000000000000000000169190610488565b9050806001600160a01b031663c590e89f3489898989896040518763ffffffff1660e01b8152600401610374959493929190610b21565b6000604051808303818588803b15801561038d57600080fd5b505af11580156103a1573d6000803e3d6000fd5b50505050507f153086ded1e91b843563d921bf3778606a78774bec25d7e57a50f967ccb846ab8787878787876040516103df96959493929190610b5b565b60405180910390a150505050505050565b60008060008061040087866104ec565b9020604080517fff000000000000000000000000000000000000000000000000000000000000006020808301919091523060601b6bffffffffffffffffffffffff1916602183015260358201999099526055808201939093528151808203909301835260750190528051960195909520966001600160a01b0388163b15159650945050505050565b600080600061049786856104ec565b915091508481836000f592506001600160a01b0383166104e3576040517f5f9f991000000000000000000000000000000000000000000000000000000000815260040160405180910390fd5b50509392505050565b80516040517f610000000000000000000000000000000000000000000000000000000000000081526069820160f081811b60018401527f3d81600a3d39f336602f57343d527f000000000000000000000000000000000060038401527f9e4ac34f21c619cefc926c8bd93b54bf5a39c7ab2127a895af1cc0691d7e3dff60128401527f60203da13d3df35b3d3d3d3d363d3d3761000000000000000000000000000000603284015260028401901b604383018190527f60673639366100000000000000000000000000000000000000000000000000006045840152604b8301527f013d730000000000000000000000000000000000000000000000000000000000604d830152606085901b60508301527f5af43d3d93803e606557fd5bf3000000000000000000000000000000000000006064830152909160738101916020850182607186015b602082106106525782518152602092830192601f199092019101610633565b915160001960208390036101000a011916825260f09390931b9201919091525090939092509050565b60006020828403121561068d57600080fd5b5035919050565b60008083601f8401126106a657600080fd5b50813567ffffffffffffffff8111156106be57600080fd5b6020830191508360208260051b85010111156106d957600080fd5b9250929050565b600080602083850312156106f357600080fd5b823567ffffffffffffffff81111561070a57600080fd5b61071685828601610694565b90969095509350505050565b60005b8381101561073d578181015183820152602001610725565b8381111561074c576000848401525b50505050565b6000815180845261076a816020860160208601610722565b601f01601f19169290920160200192915050565b6000602080830181845280855180835260408601915060408160051b870101925083870160005b828110156107d357603f198886030184526107c1858351610752565b945092850192908501906001016107a5565b5092979650505050505050565b600080600080600080608087890312156107f957600080fd5b863567ffffffffffffffff8082111561081157600080fd5b61081d8a838b01610694565b9098509650602089013591508082111561083657600080fd5b5061084389828a01610694565b979a9699509760408101359660609091013595509350505050565b634e487b7160e01b600052604160045260246000fd5b634e487b7160e01b600052603260045260246000fd5b6000808335601e198436030181126108a157600080fd5b83018035915067ffffffffffffffff8211156108bc57600080fd5b6020019150368190038213156106d957600080fd5b8183823760009101908152919050565b6000602082840312156108f357600080fd5b815167ffffffffffffffff8082111561090b57600080fd5b818401915084601f83011261091f57600080fd5b8151818111156109315761093161085e565b604051601f8201601f19908116603f011681019083821181831017156109595761095961085e565b8160405282815287602084870101111561097257600080fd5b610983836020830160208801610722565b979650505050505050565b6020815260006109a16020830184610752565b9392505050565b80356001600160a01b03811681146109bf57600080fd5b919050565b81835281816020850137506000828201602090810191909152601f909101601f19169091010190565b81835260006020808501808196508560051b810191508460005b87811015610acd5782840389528135607e19883603018112610a2857600080fd5b87016080813560048110610a3b57600080fd5b86526001600160a01b03610a508389016109a8565b16868801526040828101359087015260608083013536849003601e19018112610a7857600080fd5b90920187810192903567ffffffffffffffff811115610a9657600080fd5b803603841315610aa557600080fd5b8282890152610ab783890182866109c4565b9c89019c97505050928601925050600101610a07565b5091979650505050505050565b8183526000602080850194508260005b85811015610b16576001600160a01b03610b03836109a8565b1687529582019590820190600101610aea565b509495945050505050565b606081526000610b356060830187896109ed565b8281036020840152610b48818688610ada565b9150508260408301529695505050505050565b608081526000610b6f60808301888a6109ed565b8281036020840152610b82818789610ada565b604084019590955250506060015294935050505056fea264697066735822122063b18e3b73c3c01094a76f32c10b2c1a2d49c0bf3aa755bb87118cef49857f5d64736f6c634300080f0033",
    "linkReferences": {}
  }
}