{
  "abi": [
    {
      "inputs": [
        {
          "internalType": "contract KaliClubSig",
          "name": "clubMaster_",
          "type": "address"
        }
      ],
      "stateMutability": "payable",
      "type": "constructor"
    },
    {
      "inputs": [],
      "name": "Create2fail",
      "type": "error"
    },
    {
      "anonymous": false,
      "inputs": [
        {
          "components": [
            {
              "internalType": "address",
              "name": "to",
              "type": "address"
            },
            {
              "internalType": "uint256",
              "name": "value",
              "type": "uint256"
            },
            {
              "internalType": "bytes",
              "name": "data",
              "type": "bytes"
            },
            {
              "internalType": "bool",
              "name": "deleg",
              "type": "bool"
            }
          ],
          "indexed": false,
          "internalType": "struct Call[]",
          "name": "calls",
          "type": "tuple[]"
        },
        {
          "components": [
            {
              "internalType": "bool",
              "name": "mint",
              "type": "bool"
            },
            {
              "internalType": "address",
              "name": "signer",
              "type": "address"
            },
            {
              "internalType": "uint256",
              "name": "id",
              "type": "uint256"
            }
          ],
          "indexed": false,
          "internalType": "struct IMember.Member[]",
          "name": "members",
          "type": "tuple[]"
        },
        {
          "indexed": false,
          "internalType": "uint256",
          "name": "quorum",
          "type": "uint256"
        },
        {
          "indexed": false,
          "internalType": "bytes32",
          "name": "name",
          "type": "bytes32"
        },
        {
          "indexed": false,
          "internalType": "bytes32",
          "name": "symbol",
          "type": "bytes32"
        },
        {
          "indexed": false,
          "internalType": "bool",
          "name": "signerPaused",
          "type": "bool"
        },
        {
          "indexed": false,
          "internalType": "string",
          "name": "baseURI",
          "type": "string"
        }
      ],
      "name": "ClubDeployed",
      "type": "event"
    },
    {
      "inputs": [
        {
          "components": [
            {
              "internalType": "address",
              "name": "to",
              "type": "address"
            },
            {
              "internalType": "uint256",
              "name": "value",
              "type": "uint256"
            },
            {
              "internalType": "bytes",
              "name": "data",
              "type": "bytes"
            },
            {
              "internalType": "bool",
              "name": "deleg",
              "type": "bool"
            }
          ],
          "internalType": "struct Call[]",
          "name": "calls_",
          "type": "tuple[]"
        },
        {
          "components": [
            {
              "internalType": "bool",
              "name": "mint",
              "type": "bool"
            },
            {
              "internalType": "address",
              "name": "signer",
              "type": "address"
            },
            {
              "internalType": "uint256",
              "name": "id",
              "type": "uint256"
            }
          ],
          "internalType": "struct IMember.Member[]",
          "name": "members_",
          "type": "tuple[]"
        },
        {
          "internalType": "uint256",
          "name": "quorum_",
          "type": "uint256"
        },
        {
          "internalType": "bytes32",
          "name": "name_",
          "type": "bytes32"
        },
        {
          "internalType": "bytes32",
          "name": "symbol_",
          "type": "bytes32"
        },
        {
          "internalType": "bool",
          "name": "signerPaused_",
          "type": "bool"
        },
        {
          "internalType": "string",
          "name": "baseURI_",
          "type": "string"
        }
      ],
      "name": "deployClubSig",
      "outputs": [
        {
          "internalType": "contract KaliClubSig",
          "name": "clubSig",
          "type": "address"
        }
      ],
      "stateMutability": "payable",
      "type": "function"
    },
    {
      "inputs": [
        {
          "internalType": "bytes32",
          "name": "name",
          "type": "bytes32"
        },
        {
          "internalType": "bytes32",
          "name": "symbol",
          "type": "bytes32"
        }
      ],
      "name": "determineClone",
      "outputs": [
        {
          "internalType": "address",
          "name": "club",
          "type": "address"
        },
        {
          "internalType": "bool",
          "name": "deployed",
          "type": "bool"
        }
      ],
      "stateMutability": "view",
      "type": "function"
    },
    {
      "inputs": [
        {
          "internalType": "bytes[]",
          "name": "data",
          "type": "bytes[]"
        }
      ],
      "name": "multicall",
      "outputs": [
        {
          "internalType": "bytes[]",
          "name": "results",
          "type": "bytes[]"
        }
      ],
      "stateMutability": "payable",
      "type": "function"
    }
  ],
  "bytecode": {
    "object": "0x60a0604052604051610ddb380380610ddb83398101604081905261002291610033565b6001600160a01b0316608052610063565b60006020828403121561004557600080fd5b81516001600160a01b038116811461005c57600080fd5b9392505050565b608051610d566100856000396000818161012c01526103300152610d566000f3fe6080604052600436106100345760003560e01c8063468db1f114610039578063ac9650d81461007d578063db1c9a081461009d575b600080fd5b34801561004557600080fd5b506100596100543660046106a3565b6100c8565b604080516001600160a01b0390931683529015156020830152015b60405180910390f35b61009061008b366004610711565b61015e565b60405161007491906107af565b6100b06100ab3660046108eb565b6102ce565b6040516001600160a01b039091168152602001610074565b60408051602081018490529081018290527fffffffffffffffff0000000000000000000000000000000000000000000000004660c01b166060820152600090819061015390859060680160408051601f198184030181529190526001600160a01b037f0000000000000000000000000000000000000000000000000000000000000000169190610418565b909590945092505050565b60608167ffffffffffffffff81111561017957610179610826565b6040519080825280602002602001820160405280156101ac57816020015b60608152602001906001900390816101975790505b50905060005b828110156102c757600080308686858181106101d0576101d06109da565b90506020028101906101e291906109f0565b6040516101f0929190610a37565b600060405180830381855af49150503d806000811461022b576040519150601f19603f3d011682016040523d82523d6000602084013e610230565b606091505b50915091508161029f5760448151101561024957600080fd5b600481019050808060200190518101906102639190610a47565b6040517f08c379a00000000000000000000000000000000000000000000000000000000081526004016102969190610abe565b60405180910390fd5b808484815181106102b2576102b26109da565b602090810291909101015250506001016101b2565b5092915050565b60408051602081018690529081018490527fffffffffffffffff0000000000000000000000000000000000000000000000004660c01b16606082015260009061035790869060680160408051601f198184030181529190526001600160a01b037f00000000000000000000000000000000000000000000000000000000000000001691906104b0565b9050806001600160a01b03166305bf55a6348c8c8c8c8c8a8a6040518963ffffffff1660e01b81526004016103929796959493929190610c64565b6000604051808303818588803b1580156103ab57600080fd5b505af11580156103bf573d6000803e3d6000fd5b50505050507fa3f65adcb53af1ff303ea8c66d51ecf2842e271f55650d418638a1449d3ce7d78a8a8a8a8a8a8a8a8a60405161040399989796959493929190610cbb565b60405180910390a19998505050505050505050565b6000806000806104288786610514565b9020604080517fff000000000000000000000000000000000000000000000000000000000000006020808301919091523060601b6bffffffffffffffffffffffff1916602183015260358201999099526055808201939093528151808203909301835260750190528051960195909520966001600160a01b0388163b15159650945050505050565b60008060006104bf8685610514565b915091508481836000f592506001600160a01b03831661050b576040517f5f9f991000000000000000000000000000000000000000000000000000000000815260040160405180910390fd5b50509392505050565b80516040517f610000000000000000000000000000000000000000000000000000000000000081526069820160f081811b60018401527f3d81600a3d39f336602f57343d527f000000000000000000000000000000000060038401527f9e4ac34f21c619cefc926c8bd93b54bf5a39c7ab2127a895af1cc0691d7e3dff60128401527f60203da13d3df35b3d3d3d3d363d3d3761000000000000000000000000000000603284015260028401901b604383018190527f60673639366100000000000000000000000000000000000000000000000000006045840152604b8301527f013d730000000000000000000000000000000000000000000000000000000000604d830152606085901b60508301527f5af43d3d93803e606557fd5bf3000000000000000000000000000000000000006064830152909160738101916020850182607186015b6020821061067a5782518152602092830192601f19909201910161065b565b915160001960208390036101000a011916825260f09390931b9201919091525090939092509050565b600080604083850312156106b657600080fd5b50508035926020909101359150565b60008083601f8401126106d757600080fd5b50813567ffffffffffffffff8111156106ef57600080fd5b6020830191508360208260051b850101111561070a57600080fd5b9250929050565b6000806020838503121561072457600080fd5b823567ffffffffffffffff81111561073b57600080fd5b610747858286016106c5565b90969095509350505050565b60005b8381101561076e578181015183820152602001610756565b8381111561077d576000848401525b50505050565b6000815180845261079b816020860160208601610753565b601f01601f19169290920160200192915050565b6000602080830181845280855180835260408601915060408160051b870101925083870160005b8281101561080457603f198886030184526107f2858351610783565b945092850192908501906001016107d6565b5092979650505050505050565b8035801515811461082157600080fd5b919050565b634e487b7160e01b600052604160045260246000fd5b604051601f8201601f1916810167ffffffffffffffff8111828210171561086557610865610826565b604052919050565b600067ffffffffffffffff82111561088757610887610826565b50601f01601f191660200190565b600082601f8301126108a657600080fd5b81356108b96108b48261086d565b61083c565b8181528460208386010111156108ce57600080fd5b816020850160208301376000918101602001919091529392505050565b600080600080600080600080600060e08a8c03121561090957600080fd5b893567ffffffffffffffff8082111561092157600080fd5b61092d8d838e016106c5565b909b50995060208c013591508082111561094657600080fd5b818c0191508c601f83011261095a57600080fd5b81358181111561096957600080fd5b8d602060608302850101111561097e57600080fd5b602083019950975060408c0135965060608c0135955060808c013594506109a760a08d01610811565b935060c08c01359150808211156109bd57600080fd5b506109ca8c828d01610895565b9150509295985092959850929598565b634e487b7160e01b600052603260045260246000fd5b6000808335601e19843603018112610a0757600080fd5b83018035915067ffffffffffffffff821115610a2257600080fd5b60200191503681900382131561070a57600080fd5b8183823760009101908152919050565b600060208284031215610a5957600080fd5b815167ffffffffffffffff811115610a7057600080fd5b8201601f81018413610a8157600080fd5b8051610a8f6108b48261086d565b818152856020838501011115610aa457600080fd5b610ab5826020830160208601610753565b95945050505050565b602081526000610ad16020830184610783565b9392505050565b80356001600160a01b038116811461082157600080fd5b81835281816020850137506000828201602090810191909152601f909101601f19169091010190565b81835260006020808501808196508560051b810191508460005b87811015610bf35782840389528135607e19883603018112610b5357600080fd5b870160806001600160a01b03610b6883610ad8565b1686528682013587870152604080830135601e19843603018112610b8b57600080fd5b8301888101903567ffffffffffffffff811115610ba757600080fd5b803603821315610bb657600080fd5b83838a0152610bc8848a018284610aef565b93505050506060610bda818401610811565b1515960195909552509784019790840190600101610b32565b5091979650505050505050565b8183526000602080850194508260005b85811015610c5957610c2182610811565b151587526001600160a01b03610c38848401610ad8565b16878401526040828101359088015260609687019690910190600101610c10565b509495945050505050565b60a081526000610c7860a08301898b610b18565b8281036020840152610c8b81888a610c00565b905085604084015284151560608401528281036080840152610cad8185610783565b9a9950505050505050505050565b60e081526000610ccf60e083018b8d610b18565b8281036020840152610ce2818a8c610c00565b905087604084015286606084015285608084015284151560a084015282810360c0840152610d108185610783565b9c9b50505050505050505050505056fea2646970667358221220cf3c08401905f2ea138ddaf0bc767a537c2be728817f10f840cfa8f21e8dc51364736f6c634300080e0033",
    "linkReferences": {}
  }
}