{
  "abi": [
    {
      "inputs": [],
      "name": "AlreadyVoted",
      "type": "error"
    },
    {
      "inputs": [],
      "name": "InitCallFail",
      "type": "error"
    },
    {
      "inputs": [],
      "name": "Initialized",
      "type": "error"
    },
    {
      "inputs": [],
      "name": "InvalidSignature",
      "type": "error"
    },
    {
      "inputs": [],
      "name": "LengthMismatch",
      "type": "error"
    },
    {
      "inputs": [],
      "name": "NotCurrentProposal",
      "type": "error"
    },
    {
      "inputs": [],
      "name": "NotExtension",
      "type": "error"
    },
    {
      "inputs": [],
      "name": "NotMember",
      "type": "error"
    },
    {
      "inputs": [],
      "name": "NotProposer",
      "type": "error"
    },
    {
      "inputs": [],
      "name": "NotVoteable",
      "type": "error"
    },
    {
      "inputs": [],
      "name": "Overflow",
      "type": "error"
    },
    {
      "inputs": [],
      "name": "PeriodBounds",
      "type": "error"
    },
    {
      "inputs": [],
      "name": "PrevNotProcessed",
      "type": "error"
    },
    {
      "inputs": [],
      "name": "QuorumMax",
      "type": "error"
    },
    {
      "inputs": [],
      "name": "Reentrancy",
      "type": "error"
    },
    {
      "inputs": [],
      "name": "Sponsored",
      "type": "error"
    },
    {
      "inputs": [],
      "name": "SupermajorityBounds",
      "type": "error"
    },
    {
      "inputs": [],
      "name": "TypeBounds",
      "type": "error"
    },
    {
      "inputs": [],
      "name": "VotingNotEnded",
      "type": "error"
    },
    {
      "anonymous": false,
      "inputs": [
        {
          "indexed": false,
          "internalType": "address",
          "name": "extension",
          "type": "address"
        },
        {
          "indexed": false,
          "internalType": "bool",
          "name": "set",
          "type": "bool"
        }
      ],
      "name": "ExtensionSet",
      "type": "event"
    },
    {
      "anonymous": false,
      "inputs": [
        {
          "indexed": false,
          "internalType": "uint64",
          "name": "votingPeriod",
          "type": "uint64"
        },
        {
          "indexed": false,
          "internalType": "uint64",
          "name": "gracePeriod",
          "type": "uint64"
        },
        {
          "indexed": false,
          "internalType": "uint64",
          "name": "quorum",
          "type": "uint64"
        },
        {
          "indexed": false,
          "internalType": "uint64",
          "name": "supermajority",
          "type": "uint64"
        }
      ],
      "name": "GovSettingsUpdated",
      "type": "event"
    },
    {
      "anonymous": false,
      "inputs": [
        {
          "indexed": true,
          "internalType": "address",
          "name": "proposer",
          "type": "address"
        },
        {
          "indexed": false,
          "internalType": "uint256",
          "name": "proposal",
          "type": "uint256"
        },
        {
          "indexed": false,
          "internalType": "enum Kali.ProposalType",
          "name": "proposalType",
          "type": "uint8"
        },
        {
          "indexed": false,
          "internalType": "bytes32",
          "name": "description",
          "type": "bytes32"
        },
        {
          "indexed": false,
          "internalType": "address[]",
          "name": "accounts",
          "type": "address[]"
        },
        {
          "indexed": false,
          "internalType": "uint256[]",
          "name": "amounts",
          "type": "uint256[]"
        },
        {
          "indexed": false,
          "internalType": "bytes[]",
          "name": "payloads",
          "type": "bytes[]"
        },
        {
          "indexed": false,
          "internalType": "uint32",
          "name": "creationTime",
          "type": "uint32"
        },
        {
          "indexed": false,
          "internalType": "bool",
          "name": "selfSponsor",
          "type": "bool"
        }
      ],
      "name": "NewProposal",
      "type": "event"
    },
    {
      "anonymous": false,
      "inputs": [
        {
          "indexed": true,
          "internalType": "address",
          "name": "proposer",
          "type": "address"
        },
        {
          "indexed": false,
          "internalType": "uint256",
          "name": "proposal",
          "type": "uint256"
        }
      ],
      "name": "ProposalCancelled",
      "type": "event"
    },
    {
      "anonymous": false,
      "inputs": [
        {
          "indexed": false,
          "internalType": "uint256",
          "name": "proposal",
          "type": "uint256"
        },
        {
          "indexed": false,
          "internalType": "bool",
          "name": "didProposalPass",
          "type": "bool"
        }
      ],
      "name": "ProposalProcessed",
      "type": "event"
    },
    {
      "anonymous": false,
      "inputs": [
        {
          "indexed": true,
          "internalType": "address",
          "name": "sponsor",
          "type": "address"
        },
        {
          "indexed": false,
          "internalType": "uint256",
          "name": "proposal",
          "type": "uint256"
        }
      ],
      "name": "ProposalSponsored",
      "type": "event"
    },
    {
      "anonymous": false,
      "inputs": [
        {
          "indexed": false,
          "internalType": "string",
          "name": "daoURI",
          "type": "string"
        }
      ],
      "name": "URIset",
      "type": "event"
    },
    {
      "anonymous": false,
      "inputs": [
        {
          "indexed": true,
          "internalType": "address",
          "name": "voter",
          "type": "address"
        },
        {
          "indexed": false,
          "internalType": "uint256",
          "name": "proposal",
          "type": "uint256"
        },
        {
          "indexed": false,
          "internalType": "bool",
          "name": "approve",
          "type": "bool"
        },
        {
          "indexed": false,
          "internalType": "uint256",
          "name": "weight",
          "type": "uint256"
        },
        {
          "indexed": false,
          "internalType": "string",
          "name": "details",
          "type": "string"
        }
      ],
      "name": "VoteCast",
      "type": "event"
    },
    {
      "inputs": [],
      "name": "DOMAIN_SEPARATOR",
      "outputs": [
        {
          "internalType": "bytes32",
          "name": "",
          "type": "bytes32"
        }
      ],
      "stateMutability": "view",
      "type": "function"
    },
    {
      "inputs": [
        {
          "internalType": "uint256",
          "name": "proposal",
          "type": "uint256"
        }
      ],
      "name": "cancelProposal",
      "outputs": [],
      "stateMutability": "payable",
      "type": "function"
    },
    {
      "inputs": [],
      "name": "daoURI",
      "outputs": [
        {
          "internalType": "string",
          "name": "",
          "type": "string"
        }
      ],
      "stateMutability": "view",
      "type": "function"
    },
    {
      "inputs": [
        {
          "internalType": "address",
          "name": "",
          "type": "address"
        }
      ],
      "name": "extensions",
      "outputs": [
        {
          "internalType": "bool",
          "name": "",
          "type": "bool"
        }
      ],
      "stateMutability": "view",
      "type": "function"
    },
    {
      "inputs": [],
      "name": "gracePeriod",
      "outputs": [
        {
          "internalType": "uint64",
          "name": "",
          "type": "uint64"
        }
      ],
      "stateMutability": "view",
      "type": "function"
    },
    {
      "inputs": [
        {
          "internalType": "contract KeepTokenBalances",
          "name": "_token",
          "type": "address"
        },
        {
          "internalType": "string",
          "name": "_daoURI",
          "type": "string"
        },
        {
          "internalType": "address[]",
          "name": "_extensions",
          "type": "address[]"
        },
        {
          "internalType": "bytes[]",
          "name": "_extensionsData",
          "type": "bytes[]"
        },
        {
          "internalType": "uint64[5]",
          "name": "_govSettings",
          "type": "uint64[5]"
        }
      ],
      "name": "initialize",
      "outputs": [],
      "stateMutability": "payable",
      "type": "function"
    },
    {
      "inputs": [
        {
          "internalType": "address",
          "name": "",
          "type": "address"
        }
      ],
      "name": "lastYesVote",
      "outputs": [
        {
          "internalType": "uint256",
          "name": "",
          "type": "uint256"
        }
      ],
      "stateMutability": "view",
      "type": "function"
    },
    {
      "inputs": [
        {
          "internalType": "bytes[]",
          "name": "data",
          "type": "bytes[]"
        }
      ],
      "name": "multicall",
      "outputs": [
        {
          "internalType": "bytes[]",
          "name": "results",
          "type": "bytes[]"
        }
      ],
      "stateMutability": "payable",
      "type": "function"
    },
    {
      "inputs": [],
      "name": "name",
      "outputs": [
        {
          "internalType": "string",
          "name": "",
          "type": "string"
        }
      ],
      "stateMutability": "pure",
      "type": "function"
    },
    {
      "inputs": [
        {
          "internalType": "address",
          "name": "",
          "type": "address"
        },
        {
          "internalType": "address",
          "name": "",
          "type": "address"
        },
        {
          "internalType": "uint256[]",
          "name": "",
          "type": "uint256[]"
        },
        {
          "internalType": "uint256[]",
          "name": "",
          "type": "uint256[]"
        },
        {
          "internalType": "bytes",
          "name": "",
          "type": "bytes"
        }
      ],
      "name": "onERC1155BatchReceived",
      "outputs": [
        {
          "internalType": "bytes4",
          "name": "",
          "type": "bytes4"
        }
      ],
      "stateMutability": "payable",
      "type": "function"
    },
    {
      "inputs": [
        {
          "internalType": "address",
          "name": "",
          "type": "address"
        },
        {
          "internalType": "address",
          "name": "",
          "type": "address"
        },
        {
          "internalType": "uint256",
          "name": "",
          "type": "uint256"
        },
        {
          "internalType": "uint256",
          "name": "",
          "type": "uint256"
        },
        {
          "internalType": "bytes",
          "name": "",
          "type": "bytes"
        }
      ],
      "name": "onERC1155Received",
      "outputs": [
        {
          "internalType": "bytes4",
          "name": "",
          "type": "bytes4"
        }
      ],
      "stateMutability": "payable",
      "type": "function"
    },
    {
      "inputs": [
        {
          "internalType": "address",
          "name": "",
          "type": "address"
        },
        {
          "internalType": "address",
          "name": "",
          "type": "address"
        },
        {
          "internalType": "uint256",
          "name": "",
          "type": "uint256"
        },
        {
          "internalType": "bytes",
          "name": "",
          "type": "bytes"
        }
      ],
      "name": "onERC721Received",
      "outputs": [
        {
          "internalType": "bytes4",
          "name": "",
          "type": "bytes4"
        }
      ],
      "stateMutability": "payable",
      "type": "function"
    },
    {
      "inputs": [
        {
          "internalType": "uint256",
          "name": "proposal",
          "type": "uint256"
        },
        {
          "internalType": "enum Kali.ProposalType",
          "name": "proposalType",
          "type": "uint8"
        },
        {
          "internalType": "bytes32",
          "name": "description",
          "type": "bytes32"
        },
        {
          "internalType": "address[]",
          "name": "accounts",
          "type": "address[]"
        },
        {
          "internalType": "uint256[]",
          "name": "amounts",
          "type": "uint256[]"
        },
        {
          "internalType": "bytes[]",
          "name": "payloads",
          "type": "bytes[]"
        }
      ],
      "name": "processProposal",
      "outputs": [
        {
          "internalType": "bool",
          "name": "didProposalPass",
          "type": "bool"
        },
        {
          "internalType": "bytes[]",
          "name": "results",
          "type": "bytes[]"
        }
      ],
      "stateMutability": "payable",
      "type": "function"
    },
    {
      "inputs": [],
      "name": "proposalCount",
      "outputs": [
        {
          "internalType": "uint256",
          "name": "",
          "type": "uint256"
        }
      ],
      "stateMutability": "view",
      "type": "function"
    },
    {
      "inputs": [
        {
          "internalType": "uint256",
          "name": "",
          "type": "uint256"
        }
      ],
      "name": "proposalStates",
      "outputs": [
        {
          "internalType": "bool",
          "name": "passed",
          "type": "bool"
        },
        {
          "internalType": "bool",
          "name": "processed",
          "type": "bool"
        }
      ],
      "stateMutability": "view",
      "type": "function"
    },
    {
      "inputs": [
        {
          "internalType": "enum Kali.ProposalType",
          "name": "",
          "type": "uint8"
        }
      ],
      "name": "proposalVoteTypes",
      "outputs": [
        {
          "internalType": "enum Kali.VoteType",
          "name": "",
          "type": "uint8"
        }
      ],
      "stateMutability": "view",
      "type": "function"
    },
    {
      "inputs": [
        {
          "internalType": "uint256",
          "name": "",
          "type": "uint256"
        }
      ],
      "name": "proposals",
      "outputs": [
        {
          "internalType": "uint256",
          "name": "prevProposal",
          "type": "uint256"
        },
        {
          "internalType": "bytes32",
          "name": "proposalHash",
          "type": "bytes32"
        },
        {
          "internalType": "address",
          "name": "proposer",
          "type": "address"
        },
        {
          "internalType": "uint32",
          "name": "creationTime",
          "type": "uint32"
        },
        {
          "internalType": "uint96",
          "name": "yesVotes",
          "type": "uint96"
        },
        {
          "internalType": "uint96",
          "name": "noVotes",
          "type": "uint96"
        }
      ],
      "stateMutability": "view",
      "type": "function"
    },
    {
      "inputs": [
        {
          "internalType": "enum Kali.ProposalType",
          "name": "proposalType",
          "type": "uint8"
        },
        {
          "internalType": "bytes32",
          "name": "description",
          "type": "bytes32"
        },
        {
          "internalType": "address[]",
          "name": "accounts",
          "type": "address[]"
        },
        {
          "internalType": "uint256[]",
          "name": "amounts",
          "type": "uint256[]"
        },
        {
          "internalType": "bytes[]",
          "name": "payloads",
          "type": "bytes[]"
        }
      ],
      "name": "propose",
      "outputs": [
        {
          "internalType": "uint256",
          "name": "proposal",
          "type": "uint256"
        }
      ],
      "stateMutability": "payable",
      "type": "function"
    },
    {
      "inputs": [],
      "name": "quorum",
      "outputs": [
        {
          "internalType": "uint64",
          "name": "",
          "type": "uint64"
        }
      ],
      "stateMutability": "view",
      "type": "function"
    },
    {
      "inputs": [
        {
          "internalType": "address",
          "name": "account",
          "type": "address"
        },
        {
          "internalType": "uint256",
          "name": "amount",
          "type": "uint256"
        },
        {
          "internalType": "bytes",
          "name": "payload",
          "type": "bytes"
        }
      ],
      "name": "relay",
      "outputs": [
        {
          "internalType": "bool",
          "name": "success",
          "type": "bool"
        },
        {
          "internalType": "bytes",
          "name": "result",
          "type": "bytes"
        }
      ],
      "stateMutability": "payable",
      "type": "function"
    },
    {
      "inputs": [
        {
          "internalType": "address",
          "name": "extension",
          "type": "address"
        },
        {
          "internalType": "bool",
          "name": "set",
          "type": "bool"
        }
      ],
      "name": "setExtension",
      "outputs": [],
      "stateMutability": "payable",
      "type": "function"
    },
    {
      "inputs": [
        {
          "internalType": "string",
          "name": "daoURI_",
          "type": "string"
        }
      ],
      "name": "setURI",
      "outputs": [],
      "stateMutability": "payable",
      "type": "function"
    },
    {
      "inputs": [
        {
          "internalType": "uint256",
          "name": "proposal",
          "type": "uint256"
        }
      ],
      "name": "sponsorProposal",
      "outputs": [],
      "stateMutability": "payable",
      "type": "function"
    },
    {
      "inputs": [],
      "name": "supermajority",
      "outputs": [
        {
          "internalType": "uint64",
          "name": "",
          "type": "uint64"
        }
      ],
      "stateMutability": "view",
      "type": "function"
    },
    {
      "inputs": [
        {
          "internalType": "bytes4",
          "name": "interfaceId",
          "type": "bytes4"
        }
      ],
      "name": "supportsInterface",
      "outputs": [
        {
          "internalType": "bool",
          "name": "",
          "type": "bool"
        }
      ],
      "stateMutability": "view",
      "type": "function"
    },
    {
      "inputs": [],
      "name": "token",
      "outputs": [
        {
          "internalType": "contract KeepTokenBalances",
          "name": "",
          "type": "address"
        }
      ],
      "stateMutability": "view",
      "type": "function"
    },
    {
      "inputs": [
        {
          "internalType": "uint64",
          "name": "votingPeriod_",
          "type": "uint64"
        },
        {
          "internalType": "uint64",
          "name": "gracePeriod_",
          "type": "uint64"
        },
        {
          "internalType": "uint64",
          "name": "quorum_",
          "type": "uint64"
        },
        {
          "internalType": "uint64",
          "name": "supermajority_",
          "type": "uint64"
        }
      ],
      "name": "updateGovSettings",
      "outputs": [],
      "stateMutability": "payable",
      "type": "function"
    },
    {
      "inputs": [
        {
          "internalType": "uint256",
          "name": "proposal",
          "type": "uint256"
        },
        {
          "internalType": "bool",
          "name": "approve",
          "type": "bool"
        },
        {
          "internalType": "string",
          "name": "details",
          "type": "string"
        }
      ],
      "name": "vote",
      "outputs": [],
      "stateMutability": "payable",
      "type": "function"
    },
    {
      "inputs": [
        {
          "internalType": "uint256",
          "name": "proposal",
          "type": "uint256"
        },
        {
          "internalType": "bool",
          "name": "approve",
          "type": "bool"
        },
        {
          "internalType": "string",
          "name": "details",
          "type": "string"
        },
        {
          "internalType": "uint8",
          "name": "v",
          "type": "uint8"
        },
        {
          "internalType": "bytes32",
          "name": "r",
          "type": "bytes32"
        },
        {
          "internalType": "bytes32",
          "name": "s",
          "type": "bytes32"
        }
      ],
      "name": "voteBySig",
      "outputs": [],
      "stateMutability": "payable",
      "type": "function"
    },
    {
      "inputs": [
        {
          "internalType": "uint256",
          "name": "",
          "type": "uint256"
        },
        {
          "internalType": "address",
          "name": "",
          "type": "address"
        }
      ],
      "name": "voted",
      "outputs": [
        {
          "internalType": "bool",
          "name": "",
          "type": "bool"
        }
      ],
      "stateMutability": "view",
      "type": "function"
    },
    {
      "inputs": [],
      "name": "votingPeriod",
      "outputs": [
        {
          "internalType": "uint64",
          "name": "",
          "type": "uint64"
        }
      ],
      "stateMutability": "view",
      "type": "function"
    }
  ],
  "bytecode": {
    "object": "0x6080604052600160005534801561001557600080fd5b5061473f806100256000396000f3fe6080604052600436106101d85760003560e01c806371cda63b11610102578063da35c66411610095578063f081ef9b11610064578063f081ef9b14610704578063f23a6e6114610717578063fb529cdb14610750578063fc0c546a1461076357600080fd5b8063da35c664146106a7578063db34d2db146106bd578063e0a8f6f5146106d0578063e2185fa4146106e357600080fd5b8063b9a08bd7116100d1578063b9a08bd714610608578063bc197c8114610638578063c28bc2fa14610673578063d3c0715b1461069457600080fd5b806371cda63b1461056b5780639746d940146105a8578063a06db7dc146105bb578063ac9650d8146105e857600080fd5b80631703a0181161017a5780635277b4ae116101495780635277b4ae1461048e5780635c31f220146104c957806366ee13b3146105065780637034731b1461055657600080fd5b80631703a018146103f657806319049fe61461042b578063255c87bf1461043e5780633644e5151461047957600080fd5b806302fe5305116101b657806302fe530514610343578063031bc1ba1461035857806306fdde031461036b578063150b7a021461038d57600080fd5b8063013cf08b146101dd57806301ffc9a7146102d957806302a251a314610309575b600080fd5b3480156101e957600080fd5b506102786101f83660046136a7565b60076020526000908152604090208054600182015460028301546003909301549192909173ffffffffffffffffffffffffffffffffffffffff82169174010000000000000000000000000000000000000000900463ffffffff16906bffffffffffffffffffffffff808216916c0100000000000000000000000090041686565b60408051968752602087019590955273ffffffffffffffffffffffffffffffffffffffff9093169385019390935263ffffffff1660608401526bffffffffffffffffffffffff91821660808401521660a082015260c0015b60405180910390f35b3480156102e557600080fd5b506102f96102f43660046136c0565b6107b5565b60405190151581526020016102d0565b34801561031557600080fd5b5060045461032a9067ffffffffffffffff1681565b60405167ffffffffffffffff90911681526020016102d0565b61035661035136600461374b565b61089a565b005b6103566103663660046137c0565b61092e565b34801561037757600080fd5b50610380610a0b565b6040516102d09190613867565b6103c561039b36600461387a565b7f150b7a020000000000000000000000000000000000000000000000000000000095945050505050565b6040517fffffffff0000000000000000000000000000000000000000000000000000000090911681526020016102d0565b34801561040257600080fd5b5060045461032a90700100000000000000000000000000000000900467ffffffffffffffff1681565b61035661043936600461390a565b610a5e565b34801561044a57600080fd5b5061046b61045936600461395e565b600b6020526000908152604090205481565b6040519081526020016102d0565b34801561048557600080fd5b5061046b610c46565b34801561049a57600080fd5b506102f96104a936600461397b565b600a60209081526000928352604080842090915290825290205460ff1681565b3480156104d557600080fd5b5060045461032a907801000000000000000000000000000000000000000000000000900467ffffffffffffffff1681565b34801561051257600080fd5b5061053f6105213660046136a7565b60086020526000908152604090205460ff8082169161010090041682565b6040805192151583529015156020830152016102d0565b34801561056257600080fd5b50610380610d54565b34801561057757600080fd5b5061059b6105863660046139af565b60096020526000908152604090205460ff1681565b6040516102d091906139f9565b6103566105b63660046136a7565b610de2565b3480156105c757600080fd5b5060045461032a9068010000000000000000900467ffffffffffffffff1681565b6105fb6105f6366004613a58565b611024565b6040516102d09190613ae3565b34801561061457600080fd5b506102f961062336600461395e565b60066020526000908152604090205460ff1681565b6103c5610646366004613af6565b7fbc197c810000000000000000000000000000000000000000000000000000000098975050505050505050565b610686610681366004613bb5565b6110a0565b6040516102d0929190613c11565b6103566106a2366004613c34565b611164565b3480156106b357600080fd5b5061046b60035481565b6103566106cb366004613c78565b611177565b6103566106de3660046136a7565b611822565b6106f66106f1366004613d3e565b611981565b6040516102d0929190613dfe565b61046b610712366004613e19565b6129b7565b6103c5610725366004613eb9565b7ff23a6e61000000000000000000000000000000000000000000000000000000009695505050505050565b61035661075e366004613f35565b612f79565b34801561076f57600080fd5b506005546107909073ffffffffffffffffffffffffffffffffffffffff1681565b60405173ffffffffffffffffffffffffffffffffffffffff90911681526020016102d0565b60007fffffffff0000000000000000000000000000000000000000000000000000000082167f01ffc9a700000000000000000000000000000000000000000000000000000000148061084857507fffffffff0000000000000000000000000000000000000000000000000000000082167f150b7a0200000000000000000000000000000000000000000000000000000000145b8061089457507fffffffff0000000000000000000000000000000000000000000000000000000082167f4e2312e000000000000000000000000000000000000000000000000000000000145b92915050565b3360009081526006602052604090205460ff166108e3576040517fcb92848a00000000000000000000000000000000000000000000000000000000815260040160405180910390fd5b60016108f0828483614092565b507fce29678668382e064e92681c6a47e0a1ccf09464321c9d234842ad54e8c3c33682826040516109229291906141f6565b60405180910390a15050565b3360009081526006602052604090205460ff16158061094d5750333014155b15610984576040517fcb92848a00000000000000000000000000000000000000000000000000000000815260040160405180910390fd5b73ffffffffffffffffffffffffffffffffffffffff821660008181526006602090815260409182902080547fffffffffffffffffffffffffffffffffffffffffffffffffffffffffffffff00168515159081179091558251938452908301527f83a741312587dabb38038c5048a76f33ad96bfe2b4cc1a9aeea596be22b6e0929101610922565b6060367ffffffffffffffffffffffffffffffffffffffffffffffffffffffffffffffffe81013560f01c900335604051602001610a4a91815260200190565b604051602081830303815290604052905090565b3360009081526006602052604090205460ff16610aa7576040517fcb92848a00000000000000000000000000000000000000000000000000000000815260040160405180910390fd5b67ffffffffffffffff841615610aec57600480547fffffffffffffffffffffffffffffffffffffffffffffffff00000000000000001667ffffffffffffffff86161790555b67ffffffffffffffff831615610b3c57600480547fffffffffffffffffffffffffffffffff0000000000000000ffffffffffffffff166801000000000000000067ffffffffffffffff8616021790555b67ffffffffffffffff821615610b9457600480547fffffffffffffffff0000000000000000ffffffffffffffffffffffffffffffff1670010000000000000000000000000000000067ffffffffffffffff8516021790555b67ffffffffffffffff811615610bec576004805477ffffffffffffffffffffffffffffffffffffffffffffffff16780100000000000000000000000000000000000000000000000067ffffffffffffffff8416021790555b6040805167ffffffffffffffff86811682528581166020830152848116828401528316606082015290517fdb90169fe06793a929ac1a3e6b5ca3161ff5e20d92d7a103b2f17f7100e3770e9181900360800190a150505050565b60006005367ffffffffffffffffffffffffffffffffffffffffffffffffffffffffffffffffe81013560f01c900301354614610d4d5750604080518082018252600481527f4b616c690000000000000000000000000000000000000000000000000000000060209182015281517f8b73c3c69bb8fe3d512ecc4cf759cc79239f7b179b0ffacaa9a75d522b39400f818301527fd321353274be6f42cf7b550879ff1a1c924e1e8f469054b23c7354e7f1737c64818401527fc89efdaa54c0f20c7adf612882df0950f5a951637e0307cdcb4c672f298b8bc660608201524660808201523060a0808301919091528351808303909101815260c0909101909252815191012090565b50600c5490565b60018054610d6190613ff0565b80601f0160208091040260200160405190810160405280929190818152602001828054610d8d90613ff0565b8015610dda5780601f10610daf57610100808354040283529160200191610dda565b820191906000526020600020905b815481529060010190602001808311610dbd57829003601f168201915b505050505081565b60008181526007602052604080822060055491517efdd58e00000000000000000000000000000000000000000000000000000000815233600482015260248101939093529173ffffffffffffffffffffffffffffffffffffffff9091169062fdd58e90604401602060405180830381865afa158015610e65573d6000803e3d6000fd5b505050506040513d601f19601f82011682018060405250810190610e89919061420a565b158015610ea657503360009081526006602052604090205460ff16155b15610edd576040517f291fc44200000000000000000000000000000000000000000000000000000000815260040160405180910390fd5b600281015473ffffffffffffffffffffffffffffffffffffffff16610f2e576040517fc3b4ca4300000000000000000000000000000000000000000000000000000000815260040160405180910390fd5b600281015474010000000000000000000000000000000000000000900463ffffffff1615610f88576040517f68e83fd900000000000000000000000000000000000000000000000000000000815260040160405180910390fd5b600280548255829055610f9a42613121565b60028201805463ffffffff9290921674010000000000000000000000000000000000000000027fffffffffffffffff00000000ffffffffffffffffffffffffffffffffffffffff90921691909117905560405182815233907fb708f3e57d02b42c1c66c9219454b2e519739ad18a0566a9a71a1e537f1f6e5d906020015b60405180910390a25050565b606081156108945750604051818152602001600582901b808483378101805b825185018035602082018337600080823584305af4611066573d6000803e3d6000fd5b508083526020830192503d81523d6000602083013e3d01603f0167ffffffffffffffe0168183106110435760408051919052949350505050565b3360009081526006602052604081205460609060ff166110ec576040517fcb92848a00000000000000000000000000000000000000000000000000000000815260040160405180910390fd5b8573ffffffffffffffffffffffffffffffffffffffff16858585604051611114929190614223565b60006040518083038185875af1925050503d8060008114611151576040519150601f19603f3d011682016040523d82523d6000602084013e611156565b606091505b509097909650945050505050565b6111713385858585613165565b50505050565b8382146111b0576040517fff633a3800000000000000000000000000000000000000000000000000000000815260040160405180910390fd5b60045467ffffffffffffffff16156111f4576040517f5daa87a000000000000000000000000000000000000000000000000000000000815260040160405180910390fd5b6112016020820182614262565b67ffffffffffffffff16600003611244576040517fb03b646a00000000000000000000000000000000000000000000000000000000815260040160405180910390fd5b6301e133806112566020830183614262565b67ffffffffffffffff161115611298576040517fb03b646a00000000000000000000000000000000000000000000000000000000815260040160405180910390fd5b6301e133806112ad6040830160208401614262565b67ffffffffffffffff1611156112ef576040517fb03b646a00000000000000000000000000000000000000000000000000000000815260040160405180910390fd5b60646113016060830160408401614262565b67ffffffffffffffff161115611343576040517ffff2d93300000000000000000000000000000000000000000000000000000000815260040160405180910390fd5b60336113556080830160608401614262565b67ffffffffffffffff1611611396576040517f6ef10f9000000000000000000000000000000000000000000000000000000000815260040160405180910390fd5b60646113a86080830160608401614262565b67ffffffffffffffff1611156113ea576040517f6ef10f9000000000000000000000000000000000000000000000000000000000815260040160405180910390fd5b83156115a35760005b848110156115a15760016006600088888581811061141357611413614233565b9050602002016020810190611428919061395e565b73ffffffffffffffffffffffffffffffffffffffff168152602081019190915260400160002080547fffffffffffffffffffffffffffffffffffffffffffffffffffffffffffffff0016911515919091179055600984848381811061148f5761148f614233565b90506020028101906114a1919061427d565b905011156115995760008686838181106114bd576114bd614233565b90506020020160208101906114d2919061395e565b73ffffffffffffffffffffffffffffffffffffffff168585848181106114fa576114fa614233565b905060200281019061150c919061427d565b60405161151a929190614223565b6000604051808303816000865af19150503d8060008114611557576040519150601f19603f3d011682016040523d82523d6000602084013e61155c565b606091505b5050905080611597576040517f6f39bd6000000000000000000000000000000000000000000000000000000000815260040160405180910390fd5b505b6001016113f3565b505b600580547fffffffffffffffffffffffff00000000000000000000000000000000000000001673ffffffffffffffffffffffffffffffffffffffff8a1617905560016115f0878983614092565b506115fe6020820182614262565b600480547fffffffffffffffffffffffffffffffffffffffffffffffff00000000000000001667ffffffffffffffff929092169190911790556116476040820160208301614262565b6004805467ffffffffffffffff9290921668010000000000000000027fffffffffffffffffffffffffffffffff0000000000000000ffffffffffffffff90921691909117905561169d6060820160408301614262565b6004805467ffffffffffffffff92909216700100000000000000000000000000000000027fffffffffffffffff0000000000000000ffffffffffffffffffffffffffffffff9092169190911790556116fb6080820160608301614262565b6004805467ffffffffffffffff9290921678010000000000000000000000000000000000000000000000000277ffffffffffffffffffffffffffffffffffffffffffffffff9092169190911781556040805180820182529182527f4b616c690000000000000000000000000000000000000000000000000000000060209283015280517f8b73c3c69bb8fe3d512ecc4cf759cc79239f7b179b0ffacaa9a75d522b39400f818401527fd321353274be6f42cf7b550879ff1a1c924e1e8f469054b23c7354e7f1737c64818301527fc89efdaa54c0f20c7adf612882df0950f5a951637e0307cdcb4c672f298b8bc660608201524660808201523060a0808301919091528251808303909101815260c09091019091528051910120600c555050505050505050565b6000818152600760205260409020600281015473ffffffffffffffffffffffffffffffffffffffff16331480159061186a57503360009081526006602052604090205460ff16155b156118a1576040517f7d1b73b900000000000000000000000000000000000000000000000000000000815260040160405180910390fd5b600281015474010000000000000000000000000000000000000000900463ffffffff16156118fb576040517f68e83fd900000000000000000000000000000000000000000000000000000000815260040160405180910390fd5b60008281526007602052604080822082815560018101929092556002820180547fffffffffffffffff000000000000000000000000000000000000000000000000908116909155600390920180549092169091555133907f5d423f6a55211a90b8438786aa7edfa40d3eef381b6aae048b52daf814c16462906110189085815260200190565b600060606000546002036119c1576040517fab143c0600000000000000000000000000000000000000000000000000000000815260040160405180910390fd5b600260009081558b8152600760205260408120906009818d600b8111156119ea576119ea6139ca565b600b8111156119fb576119fb6139ca565b81526020810191909152604001600090812054600284015460ff909116925074010000000000000000000000000000000000000000900463ffffffff169003611a70576040517fc3b4ca4300000000000000000000000000000000000000000000000000000000815260040160405180910390fd5b60008c8c8c8c8c8c8c8c604051602001611a9198979695949392919061443a565b60405160208183030381529060405280519060200120905082600101548114611ae6576040517fc3b4ca4300000000000000000000000000000000000000000000000000000000815260040160405180910390fd5b600a8d600b811115611afa57611afa6139ca565b14611b6857825460009081526007602052604090206002015474010000000000000000000000000000000000000000900463ffffffff1615611b68576040517f8795d9c100000000000000000000000000000000000000000000000000000000815260040160405180910390fd5b6003830154611b9a9083906bffffffffffffffffffffffff808216916c01000000000000000000000000900416613479565b9450505082158015611bc3575060045468010000000000000000900467ffffffffffffffff1615155b15611c5357600454600282015463ffffffff740100000000000000000000000000000000000000009091041667ffffffffffffffff80831682810182164290810390910390920168010000000000000000909304169190910110611c53576040517f7f8617a200000000000000000000000000000000000000000000000000000000815260040160405180910390fd5b82156128e15760008b600b811115611c6d57611c6d6139ca565b03611e295760005b88811015611e23578867ffffffffffffffff811115611c9657611c96613fc1565b604051908082528060200260200182016040528015611cc957816020015b6060815260200190600190039081611cb45790505b5060055490935060009073ffffffffffffffffffffffffffffffffffffffff1663731133e98c8c85818110611d0057611d00614233565b9050602002016020810190611d15919061395e565b60008c8c87818110611d2957611d29614233565b905060200201358b8b88818110611d4257611d42614233565b9050602002810190611d54919061427d565b604051602401611d68959493929190614498565b6040516020818303038152906040529060e01b6020820180517bffffffffffffffffffffffffffffffffffffffffffffffffffffffff8381831617835250505050604051611db691906144e2565b6000604051808303816000865af19150503d8060008114611df3576040519150601f19603f3d011682016040523d82523d6000602084013e611df8565b606091505b5091505080848381518110611e0f57611e0f614233565b602090810291909101015250600101611c75565b506128a9565b60018b600b811115611e3d57611e3d6139ca565b03611fee5760005b88811015611e23578867ffffffffffffffff811115611e6657611e66613fc1565b604051908082528060200260200182016040528015611e9957816020015b6060815260200190600190039081611e845790505b5060055490935060009073ffffffffffffffffffffffffffffffffffffffff1663f5298aca8c8c85818110611ed057611ed0614233565b9050602002016020810190611ee5919061395e565b60008c8c87818110611ef957611ef9614233565b60405173ffffffffffffffffffffffffffffffffffffffff909516602486015260ff9093166044850152506020909102013560648201526084016040516020818303038152906040529060e01b6020820180517bffffffffffffffffffffffffffffffffffffffffffffffffffffffff8381831617835250505050604051611f8191906144e2565b6000604051808303816000865af19150503d8060008114611fbe576040519150601f19603f3d011682016040523d82523d6000602084013e611fc3565b606091505b5091505080848381518110611fda57611fda614233565b602090810291909101015250600101611e45565b60028b600b811115612002576120026139ca565b036121585760005b88811015611e23578867ffffffffffffffff81111561202b5761202b613fc1565b60405190808252806020026020018201604052801561205e57816020015b60608152602001906001900390816120495790505b50925060008a8a8381811061207557612075614233565b905060200201602081019061208a919061395e565b73ffffffffffffffffffffffffffffffffffffffff168989848181106120b2576120b2614233565b905060200201358888858181106120cb576120cb614233565b90506020028101906120dd919061427d565b6040516120eb929190614223565b60006040518083038185875af1925050503d8060008114612128576040519150601f19603f3d011682016040523d82523d6000602084013e61212d565b606091505b509150508084838151811061214457612144614233565b60209081029190910101525060010161200a565b60038b600b81111561216c5761216c6139ca565b036121da578686600081811061218457612184614233565b905060200201356000146121d557868660008181106121a5576121a5614233565b90506020020135600460006101000a81548167ffffffffffffffff021916908367ffffffffffffffff1602179055505b6128a9565b60048b600b8111156121ee576121ee6139ca565b0361225b578686600081811061220657612206614233565b905060200201356000146121d5578686600081811061222757612227614233565b90506020020135600460086101000a81548167ffffffffffffffff021916908367ffffffffffffffff1602179055506128a9565b60058b600b81111561226f5761226f6139ca565b036122dc578686600081811061228757612287614233565b905060200201356000146121d557868660008181106122a8576122a8614233565b90506020020135600460106101000a81548167ffffffffffffffff021916908367ffffffffffffffff1602179055506128a9565b60068b600b8111156122f0576122f06139ca565b0361235d578686600081811061230857612308614233565b905060200201356000146121d5578686600081811061232957612329614233565b90506020020135600460186101000a81548167ffffffffffffffff021916908367ffffffffffffffff1602179055506128a9565b60078b600b811115612371576123716139ca565b03612444578686600181811061238957612389614233565b9050602002013560038111156123a1576123a16139ca565b60096000898960008181106123b8576123b8614233565b90506020020135600b8111156123d0576123d06139ca565b600b8111156123e1576123e16139ca565b600b8111156123f2576123f26139ca565b8152602081019190915260400160002080547fffffffffffffffffffffffffffffffffffffffffffffffffffffffffffffff0016600183600381111561243a5761243a6139ca565b02179055506128a9565b60088b600b811115612458576124586139ca565b036125ca576005546040517ff4c3b4d70000000000000000000000000000000000000000000000000000000081526000600482018190529173ffffffffffffffffffffffffffffffffffffffff1690637140d960908390839063f4c3b4d790602401602060405180830381865afa1580156124d7573d6000803e3d6000fd5b505050506040513d601f19601f820116820180604052508101906124fb91906144fe565b60405160ff90921660248301521560448201526064016040516020818303038152906040529060e01b6020820180517bffffffffffffffffffffffffffffffffffffffffffffffffffffffff838183161783525050505060405161255f91906144e2565b6000604051808303816000865af19150503d806000811461259c576040519150601f19603f3d011682016040523d82523d6000602084013e6125a1565b606091505b5091505080836000815181106125b9576125b9614233565b6020026020010181905250506128a9565b60098b600b8111156125de576125de6139ca565b036127d15760005b88811015611e235787878281811061260057612600614233565b905060200201356000146126e557600660008b8b8481811061262457612624614233565b9050602002016020810190612639919061395e565b73ffffffffffffffffffffffffffffffffffffffff168152602081019190915260400160009081205460ff1615906006908c8c8581811061267c5761267c614233565b9050602002016020810190612691919061395e565b73ffffffffffffffffffffffffffffffffffffffff168152602081019190915260400160002080547fffffffffffffffffffffffffffffffffffffffffffffffffffffffffffffff00169115159190911790555b60098686838181106126f9576126f9614233565b905060200281019061270b919061427d565b905011156127c95789898281811061272557612725614233565b905060200201602081019061273a919061395e565b73ffffffffffffffffffffffffffffffffffffffff1663fb0c444187878481811061276757612767614233565b9050602002810190612779919061427d565b6040518363ffffffff1660e01b81526004016127969291906141f6565b600060405180830381600087803b1580156127b057600080fd5b505af11580156127c4573d6000803e3d6000fd5b505050505b6001016125e6565b600a8b600b8111156127e5576127e56139ca565b0361286557600760008888600081811061280157612801614233565b60209081029290920135835250810191909152604001600090812081815560018101919091556002810180547fffffffffffffffff0000000000000000000000000000000000000000000000009081169091556003909101805490911690556128a9565b600b8b600b811115612879576128796139ca565b036128a95760408051602081018c905201604051602081830303815290604052600190816128a7919061451b565b505b60008c815260086020526040902080547fffffffffffffffffffffffffffffffffffffffffffffffffffffffffffffff001660011790555b60008c8152600760209081526040808320838155600181018490556002810180547fffffffffffffffff000000000000000000000000000000000000000000000000908116909155600390910180549091169055600882529182902080547fffffffffffffffffffffffffffffffffffffffffffffffffffffffffffff00ff1661010017905581518e8152851515918101919091527fcc8b74c10cae169918eab7cf3272b0a540854b8a4d12281590885d07fed34f6e910160405180910390a1506001600055909a909950975050505050505050565b60008584146129f2576040517fff633a3800000000000000000000000000000000000000000000000000000000815260040160405180910390fd5b838214612a2b576040517fff633a3800000000000000000000000000000000000000000000000000000000815260040160405180910390fd5b600389600b811115612a3f57612a3f6139ca565b03612abf5784846000818110612a5757612a57614233565b9050602002013560001480612a8857506301e1338085856000818110612a7f57612a7f614233565b90506020020135115b15612abf576040517fb03b646a00000000000000000000000000000000000000000000000000000000815260040160405180910390fd5b600489600b811115612ad357612ad36139ca565b03612b2f576301e1338085856000818110612af057612af0614233565b905060200201351115612b2f576040517fb03b646a00000000000000000000000000000000000000000000000000000000815260040160405180910390fd5b600589600b811115612b4357612b436139ca565b03612b9c57606485856000818110612b5d57612b5d614233565b905060200201351115612b9c576040517ffff2d93300000000000000000000000000000000000000000000000000000000815260040160405180910390fd5b600689600b811115612bb057612bb06139ca565b03612c2e57603385856000818110612bca57612bca614233565b90506020020135111580612bf75750606485856000818110612bee57612bee614233565b90506020020135115b15612c2e576040517f6ef10f9000000000000000000000000000000000000000000000000000000000815260040160405180910390fd5b600789600b811115612c4257612c426139ca565b03612ccb57600b85856000818110612c5c57612c5c614233565b905060200201351180612c885750600385856001818110612c7f57612c7f614233565b90506020020135115b80612c94575060028414155b15612ccb576040517f93d8c8b000000000000000000000000000000000000000000000000000000000815260040160405180910390fd5b6005546040517efdd58e0000000000000000000000000000000000000000000000000000000081523360048201526000602482018190529173ffffffffffffffffffffffffffffffffffffffff169062fdd58e90604401602060405180830381865afa158015612d3f573d6000803e3d6000fd5b505050506040513d601f19601f82011682018060405250810190612d63919061420a565b151580612d7f57503360009081526006602052604090205460ff165b15612d88575060015b6003805460010190819055604051909250600090612db8908c908c908c908c908c908c908c908c9060200161443a565b604051602081830303815290604052805190602001209050600082612dde576000612de7565b612de742613121565b90506040518060c0016040528084612e00576000612e04565b6002545b815260208082018590523360408084019190915263ffffffff8086166060808601919091526000608080870182905260a09687018290528b8252600786529084902087518155948701516001860155928601516002850180549288015190931674010000000000000000000000000000000000000000027fffffffffffffffff00000000000000000000000000000000000000000000000092831673ffffffffffffffffffffffffffffffffffffffff929092169190911717909155908401516003909201805494909301516bffffffffffffffffffffffff9081166c0100000000000000000000000002949091169116179190911790558215612f085760028490555b3373ffffffffffffffffffffffffffffffffffffffff167ff3f6845c73f08ebb2f0fc28f82ad54afd4af521edddfd6fde1406e987ae02ccb858e8e8e8e8e8e8e8e8b8e604051612f629b9a99989796959493929190614635565b60405180910390a250505098975050505050505050565b60006001612f85610c46565b7f3fef23e57688b48f0f3f19cc2dd0d06fea1f8b9817e2fd944fbd7b707ec28c288a8a8a8a604051602001612fbe9594939291906146b3565b604051602081830303815290604052805190602001206040516020016130169291907f190100000000000000000000000000000000000000000000000000000000000081526002810192909252602282015260420190565b604080517fffffffffffffffffffffffffffffffffffffffffffffffffffffffffffffffe08184030181528282528051602091820120600084529083018083525260ff871690820152606081018590526080810184905260a0016020604051602081039080840390855afa158015613092573d6000803e3d6000fd5b50506040517fffffffffffffffffffffffffffffffffffffffffffffffffffffffffffffffe0015191505073ffffffffffffffffffffffffffffffffffffffff811661310a576040517f8baa579f00000000000000000000000000000000000000000000000000000000815260040160405180910390fd5b6131178189898989613165565b5050505050505050565b60006401000000008210613161576040517f35278d1200000000000000000000000000000000000000000000000000000000815260040160405180910390fd5b5090565b6000848152600760209081526040808320600a835281842073ffffffffffffffffffffffffffffffffffffffff8a1685529092529091205460ff16156131d7576040517f7c9a1cf900000000000000000000000000000000000000000000000000000000815260040160405180910390fd5b600454600282015463ffffffff740100000000000000000000000000000000000000009091041667ffffffffffffffff9182160116421115613245576040517f47c8137d00000000000000000000000000000000000000000000000000000000815260040160405180910390fd5b60055460028201546040517f836eebee00000000000000000000000000000000000000000000000000000000815273ffffffffffffffffffffffffffffffffffffffff89811660048301526000602483018190527401000000000000000000000000000000000000000090930463ffffffff1660448301529192919091169063836eebee90606401602060405180830381865afa1580156132ea573d6000803e3d6000fd5b505050506040513d601f19601f8201168201806040525081019061330e919061420a565b90508415613383576003820180546bffffffffffffffffffffffff8082168401167fffffffffffffffffffffffffffffffffffffffff00000000000000000000000090911617905573ffffffffffffffffffffffffffffffffffffffff87166000908152600b602052604090208690556133d7565b6003820180546bffffffffffffffffffffffff6c0100000000000000000000000080830482168501909116027fffffffffffffffff000000000000000000000000ffffffffffffffffffffffff9091161790555b6000868152600a6020908152604080832073ffffffffffffffffffffffffffffffffffffffff8b1680855292529182902080547fffffffffffffffffffffffffffffffffffffffffffffffffffffffffffffff0016600117905590517fdb8cde5b35e4952cb6cb7b66683217a31b612d605f0e456621749b5e500180c690613468908990899086908a908a906146db565b60405180910390a250505050505050565b60006bffffffffffffffffffffffff83161580156134a357506bffffffffffffffffffffffff8216155b156134b0575060006136a0565b60018460038111156134c4576134c46139ca565b14806134e1575060038460038111156134df576134df6139ca565b145b156135d057600480546005546040517fbd85b03900000000000000000000000000000000000000000000000000000000815260009381019390935260649270010000000000000000000000000000000090920467ffffffffffffffff169173ffffffffffffffffffffffffffffffffffffffff9091169063bd85b03990602401602060405180830381865afa15801561357e573d6000803e3d6000fd5b505050506040513d601f19601f820116820180604052508101906135a2919061420a565b02816135b0576135b0614703565b048284016bffffffffffffffffffffffff1610156135d0575060006136a0565b60008460038111156135e4576135e46139ca565b1480613601575060018460038111156135ff576135ff6139ca565b145b1561363757816bffffffffffffffffffffffff16836bffffffffffffffffffffffff161115613632575060016136a0565b6136a0565b6064600460189054906101000a900467ffffffffffffffff1667ffffffffffffffff16838501026bffffffffffffffffffffffff168161367957613679614703565b046bffffffffffffffffffffffff16836bffffffffffffffffffffffff16106136a0575060015b9392505050565b6000602082840312156136b957600080fd5b5035919050565b6000602082840312156136d257600080fd5b81357fffffffff00000000000000000000000000000000000000000000000000000000811681146136a057600080fd5b60008083601f84011261371457600080fd5b50813567ffffffffffffffff81111561372c57600080fd5b60208301915083602082850101111561374457600080fd5b9250929050565b6000806020838503121561375e57600080fd5b823567ffffffffffffffff81111561377557600080fd5b61378185828601613702565b90969095509350505050565b73ffffffffffffffffffffffffffffffffffffffff811681146137af57600080fd5b50565b80151581146137af57600080fd5b600080604083850312156137d357600080fd5b82356137de8161378d565b915060208301356137ee816137b2565b809150509250929050565b60005b838110156138145781810151838201526020016137fc565b50506000910152565b600081518084526138358160208601602086016137f9565b601f017fffffffffffffffffffffffffffffffffffffffffffffffffffffffffffffffe0169290920160200192915050565b6020815260006136a0602083018461381d565b60008060008060006080868803121561389257600080fd5b853561389d8161378d565b945060208601356138ad8161378d565b935060408601359250606086013567ffffffffffffffff8111156138d057600080fd5b6138dc88828901613702565b969995985093965092949392505050565b803567ffffffffffffffff8116811461390557600080fd5b919050565b6000806000806080858703121561392057600080fd5b613929856138ed565b9350613937602086016138ed565b9250613945604086016138ed565b9150613953606086016138ed565b905092959194509250565b60006020828403121561397057600080fd5b81356136a08161378d565b6000806040838503121561398e57600080fd5b8235915060208301356137ee8161378d565b8035600c811061390557600080fd5b6000602082840312156139c157600080fd5b6136a0826139a0565b7f4e487b7100000000000000000000000000000000000000000000000000000000600052602160045260246000fd5b6020810160048310613a0d57613a0d6139ca565b91905290565b60008083601f840112613a2557600080fd5b50813567ffffffffffffffff811115613a3d57600080fd5b6020830191508360208260051b850101111561374457600080fd5b60008060208385031215613a6b57600080fd5b823567ffffffffffffffff811115613a8257600080fd5b61378185828601613a13565b600081518084526020808501808196508360051b8101915082860160005b85811015613ad6578284038952613ac484835161381d565b98850198935090840190600101613aac565b5091979650505050505050565b6020815260006136a06020830184613a8e565b60008060008060008060008060a0898b031215613b1257600080fd5b8835613b1d8161378d565b97506020890135613b2d8161378d565b9650604089013567ffffffffffffffff80821115613b4a57600080fd5b613b568c838d01613a13565b909850965060608b0135915080821115613b6f57600080fd5b613b7b8c838d01613a13565b909650945060808b0135915080821115613b9457600080fd5b50613ba18b828c01613702565b999c989b5096995094979396929594505050565b60008060008060608587031215613bcb57600080fd5b8435613bd68161378d565b935060208501359250604085013567ffffffffffffffff811115613bf957600080fd5b613c0587828801613702565b95989497509550505050565b8215158152604060208201526000613c2c604083018461381d565b949350505050565b60008060008060608587031215613c4a57600080fd5b843593506020850135613c5c816137b2565b9250604085013567ffffffffffffffff811115613bf957600080fd5b600080600080600080600080610120808a8c031215613c9657600080fd5b8935613ca18161378d565b985060208a013567ffffffffffffffff80821115613cbe57600080fd5b613cca8d838e01613702565b909a50985060408c0135915080821115613ce357600080fd5b613cef8d838e01613a13565b909850965060608c0135915080821115613d0857600080fd5b50613d158c828d01613a13565b9095509350508981018b1015613d2a57600080fd5b506080890190509295985092959890939650565b600080600080600080600080600060c08a8c031215613d5c57600080fd5b89359850613d6c60208b016139a0565b975060408a0135965060608a013567ffffffffffffffff80821115613d9057600080fd5b613d9c8d838e01613a13565b909850965060808c0135915080821115613db557600080fd5b613dc18d838e01613a13565b909650945060a08c0135915080821115613dda57600080fd5b50613de78c828d01613a13565b915080935050809150509295985092959850929598565b8215158152604060208201526000613c2c6040830184613a8e565b60008060008060008060008060a0898b031215613e3557600080fd5b613e3e896139a0565b975060208901359650604089013567ffffffffffffffff80821115613e6257600080fd5b613e6e8c838d01613a13565b909850965060608b0135915080821115613e8757600080fd5b613e938c838d01613a13565b909650945060808b0135915080821115613eac57600080fd5b50613ba18b828c01613a13565b60008060008060008060a08789031215613ed257600080fd5b8635613edd8161378d565b95506020870135613eed8161378d565b94506040870135935060608701359250608087013567ffffffffffffffff811115613f1757600080fd5b613f2389828a01613702565b979a9699509497509295939492505050565b600080600080600080600060c0888a031215613f5057600080fd5b873596506020880135613f62816137b2565b9550604088013567ffffffffffffffff811115613f7e57600080fd5b613f8a8a828b01613702565b909650945050606088013560ff81168114613fa457600080fd5b969995985093969295946080840135945060a09093013592915050565b7f4e487b7100000000000000000000000000000000000000000000000000000000600052604160045260246000fd5b600181811c9082168061400457607f821691505b60208210810361403d577f4e487b7100000000000000000000000000000000000000000000000000000000600052602260045260246000fd5b50919050565b601f82111561408d57600081815260208120601f850160051c8101602086101561406a5750805b601f850160051c820191505b8181101561408957828155600101614076565b5050505b505050565b67ffffffffffffffff8311156140aa576140aa613fc1565b6140be836140b88354613ff0565b83614043565b6000601f84116001811461411057600085156140da5750838201355b7fffffffffffffffffffffffffffffffffffffffffffffffffffffffffffffffff600387901b1c1916600186901b1783556141a6565b6000838152602090207fffffffffffffffffffffffffffffffffffffffffffffffffffffffffffffffe0861690835b8281101561415f578685013582556020948501946001909201910161413f565b508682101561419a577fffffffffffffffffffffffffffffffffffffffffffffffffffffffffffffffff60f88860031b161c19848701351681555b505060018560011b0183555b5050505050565b8183528181602085013750600060208284010152600060207fffffffffffffffffffffffffffffffffffffffffffffffffffffffffffffffe0601f840116840101905092915050565b602081526000613c2c6020830184866141ad565b60006020828403121561421c57600080fd5b5051919050565b8183823760009101908152919050565b7f4e487b7100000000000000000000000000000000000000000000000000000000600052603260045260246000fd5b60006020828403121561427457600080fd5b6136a0826138ed565b60008083357fffffffffffffffffffffffffffffffffffffffffffffffffffffffffffffffe18436030181126142b257600080fd5b83018035915067ffffffffffffffff8211156142cd57600080fd5b60200191503681900382131561374457600080fd5b600c81106142f2576142f26139ca565b9052565b8183526000602080850194508260005b858110156143415781356143198161378d565b73ffffffffffffffffffffffffffffffffffffffff1687529582019590820190600101614306565b509495945050505050565b81835260007f07ffffffffffffffffffffffffffffffffffffffffffffffffffffffffffffff83111561437e57600080fd5b8260051b80836020870137939093016020019392505050565b81835260006020808501808196508560051b810191508460005b87811015613ad657828403895281357fffffffffffffffffffffffffffffffffffffffffffffffffffffffffffffffe18836030181126143f057600080fd5b8701858101903567ffffffffffffffff81111561440c57600080fd5b80360382131561441b57600080fd5b6144268682846141ad565b9a87019a95505050908401906001016143b1565b614444818a6142e2565b87602082015260a06040820152600061446160a08301888a6142f6565b828103606084015261447481878961434c565b90508281036080840152614489818587614397565b9b9a5050505050505050505050565b73ffffffffffffffffffffffffffffffffffffffff8616815260ff851660208201528360408201526080606082015260006144d76080830184866141ad565b979650505050505050565b600082516144f48184602087016137f9565b9190910192915050565b60006020828403121561451057600080fd5b81516136a0816137b2565b815167ffffffffffffffff81111561453557614535613fc1565b614549816145438454613ff0565b84614043565b602080601f83116001811461459c57600084156145665750858301515b7fffffffffffffffffffffffffffffffffffffffffffffffffffffffffffffffff600386901b1c1916600185901b178555614089565b6000858152602081207fffffffffffffffffffffffffffffffffffffffffffffffffffffffffffffffe08616915b828110156145e9578886015182559484019460019091019084016145ca565b508582101561462557878501517fffffffffffffffffffffffffffffffffffffffffffffffffffffffffffffffff600388901b60f8161c191681555b5050505050600190811b01905550565b60006101008d835261464a602084018e6142e2565b8b60408401528060608401526146638184018b8d6142f6565b9050828103608084015261467881898b61434c565b905082810360a084015261468d818789614397565b63ffffffff9590951660c0840152505090151560e0909101529998505050505050505050565b85815284602082015283151560408201526080606082015260006144d76080830184866141ad565b85815284151560208201528360408201526080606082015260006144d76080830184866141ad565b7f4e487b7100000000000000000000000000000000000000000000000000000000600052601260045260246000fdfea164736f6c6343000811000a",
    "linkReferences": {}
  },
  "methodIdentifiers": {
    "DOMAIN_SEPARATOR()": "3644e515",
    "cancelProposal(uint256)": "e0a8f6f5",
    "daoURI()": "7034731b",
    "extensions(address)": "b9a08bd7",
    "gracePeriod()": "a06db7dc",
    "initialize(address,string,address[],bytes[],uint64[5])": "db34d2db",
    "lastYesVote(address)": "255c87bf",
    "multicall(bytes[])": "ac9650d8",
    "name()": "06fdde03",
    "onERC1155BatchReceived(address,address,uint256[],uint256[],bytes)": "bc197c81",
    "onERC1155Received(address,address,uint256,uint256,bytes)": "f23a6e61",
    "onERC721Received(address,address,uint256,bytes)": "150b7a02",
    "processProposal(uint256,uint8,bytes32,address[],uint256[],bytes[])": "e2185fa4",
    "proposalCount()": "da35c664",
    "proposalStates(uint256)": "66ee13b3",
    "proposalVoteTypes(uint8)": "71cda63b",
    "proposals(uint256)": "013cf08b",
    "propose(uint8,bytes32,address[],uint256[],bytes[])": "f081ef9b",
    "quorum()": "1703a018",
    "relay(address,uint256,bytes)": "c28bc2fa",
    "setExtension(address,bool)": "031bc1ba",
    "setURI(string)": "02fe5305",
    "sponsorProposal(uint256)": "9746d940",
    "supermajority()": "5c31f220",
    "supportsInterface(bytes4)": "01ffc9a7",
    "token()": "fc0c546a",
    "updateGovSettings(uint64,uint64,uint64,uint64)": "19049fe6",
    "vote(uint256,bool,string)": "d3c0715b",
    "voteBySig(uint256,bool,string,uint8,bytes32,bytes32)": "fb529cdb",
    "voted(uint256,address)": "5277b4ae",
    "votingPeriod()": "02a251a3"
  },
  "id": 29
}