{
  "abi": [
    {
      "inputs": [
        {
          "internalType": "contract ClubSig",
          "name": "clubMaster_",
          "type": "address"
        }
      ],
      "stateMutability": "nonpayable",
      "type": "constructor"
    },
    {
      "inputs": [],
      "name": "AlreadyMinted",
      "type": "error"
    },
    {
      "inputs": [],
      "name": "AssetOrder",
      "type": "error"
    },
    {
      "inputs": [],
      "name": "CreateFail",
      "type": "error"
    },
    {
      "inputs": [],
      "name": "ExecuteFailed",
      "type": "error"
    },
    {
      "inputs": [],
      "name": "Forbidden",
      "type": "error"
    },
    {
      "inputs": [],
      "name": "Initialized",
      "type": "error"
    },
    {
      "inputs": [],
      "name": "InvalidRecipient",
      "type": "error"
    },
    {
      "inputs": [],
      "name": "InvalidSignature",
      "type": "error"
    },
    {
      "inputs": [],
      "name": "InvalidSigner",
      "type": "error"
    },
    {
      "inputs": [],
      "name": "NoArrayParity",
      "type": "error"
    },
    {
      "inputs": [],
      "name": "NotMinted",
      "type": "error"
    },
    {
      "inputs": [],
      "name": "NotOwner",
      "type": "error"
    },
    {
      "inputs": [],
      "name": "NotSigner",
      "type": "error"
    },
    {
      "inputs": [],
      "name": "NullDeploy",
      "type": "error"
    },
    {
      "inputs": [],
      "name": "Paused",
      "type": "error"
    },
    {
      "inputs": [],
      "name": "SigBounds",
      "type": "error"
    },
    {
      "inputs": [],
      "name": "SignatureExpired",
      "type": "error"
    },
    {
      "inputs": [],
      "name": "TransferFailed",
      "type": "error"
    },
    {
      "anonymous": false,
      "inputs": [
        {
          "indexed": true,
          "internalType": "address",
          "name": "owner",
          "type": "address"
        },
        {
          "indexed": true,
          "internalType": "address",
          "name": "spender",
          "type": "address"
        },
        {
          "indexed": true,
          "internalType": "uint256",
          "name": "id",
          "type": "uint256"
        }
      ],
      "name": "Approval",
      "type": "event"
    },
    {
      "anonymous": false,
      "inputs": [
        {
          "indexed": true,
          "internalType": "address",
          "name": "owner",
          "type": "address"
        },
        {
          "indexed": true,
          "internalType": "address",
          "name": "operator",
          "type": "address"
        },
        {
          "indexed": false,
          "internalType": "bool",
          "name": "approved",
          "type": "bool"
        }
      ],
      "name": "ApprovalForAll",
      "type": "event"
    },
    {
      "anonymous": false,
      "inputs": [
        {
          "indexed": true,
          "internalType": "address",
          "name": "target",
          "type": "address"
        },
        {
          "indexed": false,
          "internalType": "uint256",
          "name": "value",
          "type": "uint256"
        },
        {
          "indexed": false,
          "internalType": "bytes",
          "name": "payload",
          "type": "bytes"
        }
      ],
      "name": "Execute",
      "type": "event"
    },
    {
      "anonymous": false,
      "inputs": [
        {
          "components": [
            {
              "internalType": "address",
              "name": "signer",
              "type": "address"
            },
            {
              "internalType": "uint256",
              "name": "id",
              "type": "uint256"
            },
            {
              "internalType": "uint256",
              "name": "loot",
              "type": "uint256"
            }
          ],
          "indexed": false,
          "internalType": "struct ClubSig.Club[]",
          "name": "club",
          "type": "tuple[]"
        },
        {
          "indexed": false,
          "internalType": "bool[]",
          "name": "mints",
          "type": "bool[]"
        },
        {
          "indexed": false,
          "internalType": "uint256",
          "name": "quorum",
          "type": "uint256"
        }
      ],
      "name": "Govern",
      "type": "event"
    },
    {
      "anonymous": false,
      "inputs": [
        {
          "indexed": true,
          "internalType": "address",
          "name": "account",
          "type": "address"
        }
      ],
      "name": "GovernorFlipped",
      "type": "event"
    },
    {
      "anonymous": false,
      "inputs": [
        {
          "indexed": false,
          "internalType": "bool",
          "name": "paused",
          "type": "bool"
        }
      ],
      "name": "PauseFlipped",
      "type": "event"
    },
    {
      "anonymous": false,
      "inputs": [
        {
          "indexed": true,
          "internalType": "contract ClubSig",
          "name": "clubSig",
          "type": "address"
        },
        {
          "components": [
            {
              "internalType": "address",
              "name": "signer",
              "type": "address"
            },
            {
              "internalType": "uint256",
              "name": "id",
              "type": "uint256"
            },
            {
              "internalType": "uint256",
              "name": "loot",
              "type": "uint256"
            }
          ],
          "indexed": false,
          "internalType": "struct ClubSig.Club[]",
          "name": "club_",
          "type": "tuple[]"
        },
        {
          "indexed": false,
          "internalType": "uint256",
          "name": "quorum",
          "type": "uint256"
        },
        {
          "indexed": false,
          "internalType": "bytes32",
          "name": "name",
          "type": "bytes32"
        },
        {
          "indexed": false,
          "internalType": "bytes32",
          "name": "symbol",
          "type": "bytes32"
        },
        {
          "indexed": false,
          "internalType": "bool",
          "name": "paused",
          "type": "bool"
        },
        {
          "indexed": false,
          "internalType": "string",
          "name": "baseURI",
          "type": "string"
        }
      ],
      "name": "SigDeployed",
      "type": "event"
    },
    {
      "anonymous": false,
      "inputs": [
        {
          "indexed": true,
          "internalType": "address",
          "name": "from",
          "type": "address"
        },
        {
          "indexed": true,
          "internalType": "address",
          "name": "to",
          "type": "address"
        },
        {
          "indexed": true,
          "internalType": "uint256",
          "name": "id",
          "type": "uint256"
        }
      ],
      "name": "Transfer",
      "type": "event"
    },
    {
      "anonymous": false,
      "inputs": [
        {
          "indexed": false,
          "internalType": "string",
          "name": "uri",
          "type": "string"
        }
      ],
      "name": "URIupdated",
      "type": "event"
    },
    {
      "inputs": [],
      "name": "DOMAIN_SEPARATOR",
      "outputs": [
        {
          "internalType": "bytes32",
          "name": "",
          "type": "bytes32"
        }
      ],
      "stateMutability": "view",
      "type": "function"
    },
    {
      "inputs": [
        {
          "internalType": "address",
          "name": "spender",
          "type": "address"
        },
        {
          "internalType": "uint256",
          "name": "id",
          "type": "uint256"
        }
      ],
      "name": "approve",
      "outputs": [],
      "stateMutability": "payable",
      "type": "function"
    },
    {
      "inputs": [
        {
          "internalType": "address",
          "name": "",
          "type": "address"
        }
      ],
      "name": "balanceOf",
      "outputs": [
        {
          "internalType": "uint256",
          "name": "",
          "type": "uint256"
        }
      ],
      "stateMutability": "view",
      "type": "function"
    },
    {
      "inputs": [],
      "name": "baseURI",
      "outputs": [
        {
          "internalType": "string",
          "name": "",
          "type": "string"
        }
      ],
      "stateMutability": "view",
      "type": "function"
    },
    {
      "inputs": [
        {
          "components": [
            {
              "internalType": "address",
              "name": "signer",
              "type": "address"
            },
            {
              "internalType": "uint256",
              "name": "id",
              "type": "uint256"
            },
            {
              "internalType": "uint256",
              "name": "loot",
              "type": "uint256"
            }
          ],
          "internalType": "struct ClubSig.Club[]",
          "name": "club_",
          "type": "tuple[]"
        },
        {
          "internalType": "uint256",
          "name": "quorum_",
          "type": "uint256"
        },
        {
          "internalType": "bytes32",
          "name": "name_",
          "type": "bytes32"
        },
        {
          "internalType": "bytes32",
          "name": "symbol_",
          "type": "bytes32"
        },
        {
          "internalType": "bool",
          "name": "paused_",
          "type": "bool"
        },
        {
          "internalType": "string",
          "name": "baseURI_",
          "type": "string"
        }
      ],
      "name": "deployClubSig",
      "outputs": [
        {
          "internalType": "contract ClubSig",
          "name": "clubSig",
          "type": "address"
        }
      ],
      "stateMutability": "payable",
      "type": "function"
    },
    {
      "inputs": [
        {
          "components": [
            {
              "internalType": "address",
              "name": "target",
              "type": "address"
            },
            {
              "internalType": "uint256",
              "name": "value",
              "type": "uint256"
            },
            {
              "internalType": "bytes",
              "name": "payload",
              "type": "bytes"
            },
            {
              "internalType": "bool",
              "name": "std",
              "type": "bool"
            }
          ],
          "internalType": "struct ClubSig.Call",
          "name": "call",
          "type": "tuple"
        },
        {
          "components": [
            {
              "internalType": "uint8",
              "name": "v",
              "type": "uint8"
            },
            {
              "internalType": "bytes32",
              "name": "r",
              "type": "bytes32"
            },
            {
              "internalType": "bytes32",
              "name": "s",
              "type": "bytes32"
            }
          ],
          "internalType": "struct ClubNFT.Signature[]",
          "name": "sigs",
          "type": "tuple[]"
        }
      ],
      "name": "execute",
      "outputs": [
        {
          "internalType": "bool",
          "name": "success",
          "type": "bool"
        },
        {
          "internalType": "bytes",
          "name": "result",
          "type": "bytes"
        }
      ],
      "stateMutability": "payable",
      "type": "function"
    },
    {
      "inputs": [
        {
          "internalType": "address",
          "name": "account",
          "type": "address"
        }
      ],
      "name": "flipGovernor",
      "outputs": [],
      "stateMutability": "payable",
      "type": "function"
    },
    {
      "inputs": [],
      "name": "flipPause",
      "outputs": [],
      "stateMutability": "payable",
      "type": "function"
    },
    {
      "inputs": [
        {
          "internalType": "uint256",
          "name": "",
          "type": "uint256"
        }
      ],
      "name": "getApproved",
      "outputs": [
        {
          "internalType": "address",
          "name": "",
          "type": "address"
        }
      ],
      "stateMutability": "view",
      "type": "function"
    },
    {
      "inputs": [
        {
          "components": [
            {
              "internalType": "address",
              "name": "signer",
              "type": "address"
            },
            {
              "internalType": "uint256",
              "name": "id",
              "type": "uint256"
            },
            {
              "internalType": "uint256",
              "name": "loot",
              "type": "uint256"
            }
          ],
          "internalType": "struct ClubSig.Club[]",
          "name": "club_",
          "type": "tuple[]"
        },
        {
          "internalType": "bool[]",
          "name": "mints_",
          "type": "bool[]"
        },
        {
          "internalType": "uint256",
          "name": "quorum_",
          "type": "uint256"
        }
      ],
      "name": "govern",
      "outputs": [],
      "stateMutability": "payable",
      "type": "function"
    },
    {
      "inputs": [
        {
          "internalType": "address",
          "name": "",
          "type": "address"
        }
      ],
      "name": "governor",
      "outputs": [
        {
          "internalType": "bool",
          "name": "",
          "type": "bool"
        }
      ],
      "stateMutability": "view",
      "type": "function"
    },
    {
      "inputs": [
        {
          "components": [
            {
              "internalType": "address",
              "name": "target",
              "type": "address"
            },
            {
              "internalType": "uint256",
              "name": "value",
              "type": "uint256"
            },
            {
              "internalType": "bytes",
              "name": "payload",
              "type": "bytes"
            },
            {
              "internalType": "bool",
              "name": "std",
              "type": "bool"
            }
          ],
          "internalType": "struct ClubSig.Call",
          "name": "call",
          "type": "tuple"
        }
      ],
      "name": "governorExecute",
      "outputs": [
        {
          "internalType": "bool",
          "name": "success",
          "type": "bool"
        },
        {
          "internalType": "bytes",
          "name": "result",
          "type": "bytes"
        }
      ],
      "stateMutability": "payable",
      "type": "function"
    },
    {
      "inputs": [
        {
          "components": [
            {
              "internalType": "address",
              "name": "signer",
              "type": "address"
            },
            {
              "internalType": "uint256",
              "name": "id",
              "type": "uint256"
            },
            {
              "internalType": "uint256",
              "name": "loot",
              "type": "uint256"
            }
          ],
          "internalType": "struct ClubSig.Club[]",
          "name": "club_",
          "type": "tuple[]"
        },
        {
          "internalType": "uint256",
          "name": "quorum_",
          "type": "uint256"
        },
        {
          "internalType": "bool",
          "name": "paused_",
          "type": "bool"
        },
        {
          "internalType": "string",
          "name": "baseURI_",
          "type": "string"
        }
      ],
      "name": "init",
      "outputs": [],
      "stateMutability": "payable",
      "type": "function"
    },
    {
      "inputs": [
        {
          "internalType": "address",
          "name": "",
          "type": "address"
        },
        {
          "internalType": "address",
          "name": "",
          "type": "address"
        }
      ],
      "name": "isApprovedForAll",
      "outputs": [
        {
          "internalType": "bool",
          "name": "",
          "type": "bool"
        }
      ],
      "stateMutability": "view",
      "type": "function"
    },
    {
      "inputs": [
        {
          "internalType": "address",
          "name": "",
          "type": "address"
        }
      ],
      "name": "lastClaim",
      "outputs": [
        {
          "internalType": "uint256",
          "name": "",
          "type": "uint256"
        }
      ],
      "stateMutability": "view",
      "type": "function"
    },
    {
      "inputs": [
        {
          "internalType": "address",
          "name": "",
          "type": "address"
        }
      ],
      "name": "loot",
      "outputs": [
        {
          "internalType": "uint256",
          "name": "",
          "type": "uint256"
        }
      ],
      "stateMutability": "view",
      "type": "function"
    },
    {
      "inputs": [
        {
          "internalType": "bytes[]",
          "name": "data",
          "type": "bytes[]"
        }
      ],
      "name": "multicall",
      "outputs": [
        {
          "internalType": "bytes[]",
          "name": "results",
          "type": "bytes[]"
        }
      ],
      "stateMutability": "payable",
      "type": "function"
    },
    {
      "inputs": [],
      "name": "name",
      "outputs": [
        {
          "internalType": "string",
          "name": "",
          "type": "string"
        }
      ],
      "stateMutability": "pure",
      "type": "function"
    },
    {
      "inputs": [],
      "name": "nonce",
      "outputs": [
        {
          "internalType": "uint256",
          "name": "",
          "type": "uint256"
        }
      ],
      "stateMutability": "view",
      "type": "function"
    },
    {
      "inputs": [
        {
          "internalType": "uint256",
          "name": "",
          "type": "uint256"
        }
      ],
      "name": "nonces",
      "outputs": [
        {
          "internalType": "uint256",
          "name": "",
          "type": "uint256"
        }
      ],
      "stateMutability": "view",
      "type": "function"
    },
    {
      "inputs": [
        {
          "internalType": "address",
          "name": "",
          "type": "address"
        }
      ],
      "name": "noncesForAll",
      "outputs": [
        {
          "internalType": "uint256",
          "name": "",
          "type": "uint256"
        }
      ],
      "stateMutability": "view",
      "type": "function"
    },
    {
      "inputs": [
        {
          "internalType": "uint256",
          "name": "",
          "type": "uint256"
        }
      ],
      "name": "ownerOf",
      "outputs": [
        {
          "internalType": "address",
          "name": "",
          "type": "address"
        }
      ],
      "stateMutability": "view",
      "type": "function"
    },
    {
      "inputs": [],
      "name": "paused",
      "outputs": [
        {
          "internalType": "bool",
          "name": "",
          "type": "bool"
        }
      ],
      "stateMutability": "view",
      "type": "function"
    },
    {
      "inputs": [
        {
          "internalType": "address",
          "name": "spender",
          "type": "address"
        },
        {
          "internalType": "uint256",
          "name": "id",
          "type": "uint256"
        },
        {
          "internalType": "uint256",
          "name": "deadline",
          "type": "uint256"
        },
        {
          "components": [
            {
              "internalType": "uint8",
              "name": "v",
              "type": "uint8"
            },
            {
              "internalType": "bytes32",
              "name": "r",
              "type": "bytes32"
            },
            {
              "internalType": "bytes32",
              "name": "s",
              "type": "bytes32"
            }
          ],
          "internalType": "struct ClubNFT.Signature",
          "name": "sig",
          "type": "tuple"
        }
      ],
      "name": "permit",
      "outputs": [],
      "stateMutability": "payable",
      "type": "function"
    },
    {
      "inputs": [
        {
          "internalType": "address",
          "name": "owner",
          "type": "address"
        },
        {
          "internalType": "address",
          "name": "operator",
          "type": "address"
        },
        {
          "internalType": "uint256",
          "name": "deadline",
          "type": "uint256"
        },
        {
          "components": [
            {
              "internalType": "uint8",
              "name": "v",
              "type": "uint8"
            },
            {
              "internalType": "bytes32",
              "name": "r",
              "type": "bytes32"
            },
            {
              "internalType": "bytes32",
              "name": "s",
              "type": "bytes32"
            }
          ],
          "internalType": "struct ClubNFT.Signature",
          "name": "sig",
          "type": "tuple"
        }
      ],
      "name": "permitAll",
      "outputs": [],
      "stateMutability": "payable",
      "type": "function"
    },
    {
      "inputs": [],
      "name": "quorum",
      "outputs": [
        {
          "internalType": "uint256",
          "name": "",
          "type": "uint256"
        }
      ],
      "stateMutability": "view",
      "type": "function"
    },
    {
      "inputs": [
        {
          "internalType": "address[]",
          "name": "assets",
          "type": "address[]"
        },
        {
          "internalType": "uint256",
          "name": "lootToBurn",
          "type": "uint256"
        }
      ],
      "name": "ragequit",
      "outputs": [],
      "stateMutability": "payable",
      "type": "function"
    },
    {
      "inputs": [
        {
          "internalType": "address",
          "name": "from",
          "type": "address"
        },
        {
          "internalType": "address",
          "name": "to",
          "type": "address"
        },
        {
          "internalType": "uint256",
          "name": "id",
          "type": "uint256"
        }
      ],
      "name": "safeTransferFrom",
      "outputs": [],
      "stateMutability": "payable",
      "type": "function"
    },
    {
      "inputs": [
        {
          "internalType": "address",
          "name": "from",
          "type": "address"
        },
        {
          "internalType": "address",
          "name": "to",
          "type": "address"
        },
        {
          "internalType": "uint256",
          "name": "id",
          "type": "uint256"
        },
        {
          "internalType": "bytes",
          "name": "data",
          "type": "bytes"
        }
      ],
      "name": "safeTransferFrom",
      "outputs": [],
      "stateMutability": "payable",
      "type": "function"
    },
    {
      "inputs": [
        {
          "internalType": "address",
          "name": "operator",
          "type": "address"
        },
        {
          "internalType": "bool",
          "name": "approved",
          "type": "bool"
        }
      ],
      "name": "setApprovalForAll",
      "outputs": [],
      "stateMutability": "payable",
      "type": "function"
    },
    {
      "inputs": [
        {
          "internalType": "bytes4",
          "name": "interfaceId",
          "type": "bytes4"
        }
      ],
      "name": "supportsInterface",
      "outputs": [
        {
          "internalType": "bool",
          "name": "",
          "type": "bool"
        }
      ],
      "stateMutability": "pure",
      "type": "function"
    },
    {
      "inputs": [],
      "name": "symbol",
      "outputs": [
        {
          "internalType": "string",
          "name": "",
          "type": "string"
        }
      ],
      "stateMutability": "pure",
      "type": "function"
    },
    {
      "inputs": [
        {
          "internalType": "uint256",
          "name": "id",
          "type": "uint256"
        }
      ],
      "name": "tokenURI",
      "outputs": [
        {
          "internalType": "string",
          "name": "",
          "type": "string"
        }
      ],
      "stateMutability": "view",
      "type": "function"
    },
    {
      "inputs": [],
      "name": "totalLoot",
      "outputs": [
        {
          "internalType": "uint256",
          "name": "",
          "type": "uint256"
        }
      ],
      "stateMutability": "view",
      "type": "function"
    },
    {
      "inputs": [],
      "name": "totalSupply",
      "outputs": [
        {
          "internalType": "uint256",
          "name": "",
          "type": "uint256"
        }
      ],
      "stateMutability": "view",
      "type": "function"
    },
    {
      "inputs": [
        {
          "internalType": "address",
          "name": "to",
          "type": "address"
        },
        {
          "internalType": "uint256",
          "name": "id",
          "type": "uint256"
        }
      ],
      "name": "transfer",
      "outputs": [
        {
          "internalType": "bool",
          "name": "",
          "type": "bool"
        }
      ],
      "stateMutability": "payable",
      "type": "function"
    },
    {
      "inputs": [
        {
          "internalType": "address",
          "name": "from",
          "type": "address"
        },
        {
          "internalType": "address",
          "name": "to",
          "type": "address"
        },
        {
          "internalType": "uint256",
          "name": "id",
          "type": "uint256"
        }
      ],
      "name": "transferFrom",
      "outputs": [],
      "stateMutability": "payable",
      "type": "function"
    },
    {
      "inputs": [
        {
          "internalType": "string",
          "name": "baseURI_",
          "type": "string"
        }
      ],
      "name": "updateURI",
      "outputs": [],
      "stateMutability": "payable",
      "type": "function"
    },
    {
      "stateMutability": "payable",
      "type": "receive"
    }
  ],
  "bytecode": {
    "object": "0x60a06040523480156200001157600080fd5b506040516200442938038062004429833981016040819052620000349162000046565b6001600160a01b031660805262000078565b6000602082840312156200005957600080fd5b81516001600160a01b03811681146200007157600080fd5b9392505050565b60805161439562000094600039600061176901526143956000f3fe6080604052600436106102895760003560e01c80636b86509711610153578063a9059cbb116100cb578063c87b56dd1161007f578063e985e9c511610064578063e985e9c514610688578063f984f425146106c3578063fa89f4fe146106d657600080fd5b8063c87b56dd14610655578063d9647e0b1461067557600080fd5b8063affed0e0116100b0578063affed0e014610619578063b88d4fde1461062f578063c30f4a5a1461064257600080fd5b8063a9059cbb146105e6578063ac9650d8146105f957600080fd5b80637287a1401161012257806395d89b411161010757806395d89b41146105ab5780639a376959146105c0578063a22cb465146105d357600080fd5b80637287a1401461056b578063904dfb8e1461057e57600080fd5b80636b865097146104e65780636c0360eb146104f957806370a082311461050e57806370ec42e81461053b57600080fd5b80632bf50383116102015780635a0c1e68116101b55780635c975abb1161019a5780635c975abb146104805780636352211e1461049a578063635e99aa146104d057600080fd5b80635a0c1e68146104405780635c16e15e1461045357600080fd5b8063385df649116101e6578063385df6491461041257806342842e0e1461041a578063513de6cd1461042d57600080fd5b80632bf50383146103ea5780633644e515146103fd57600080fd5b8063095ea7b3116102585780631703a0181161023d5780631703a018146103ab57806318160ddd146103c157806323b872dd146103d757600080fd5b8063095ea7b31461035b578063141a468c1461037057600080fd5b806301ffc9a71461029557806306fdde03146102ca578063081812fc146102ec57806308d4e4f01461033a57600080fd5b3661029057005b600080fd5b3480156102a157600080fd5b506102b56102b036600461312f565b610703565b60405190151581526020015b60405180910390f35b3480156102d657600080fd5b506102df6107a0565b6040516102c191906131a4565b3480156102f857600080fd5b506103226103073660046131b7565b6006602052600090815260409020546001600160a01b031681565b6040516001600160a01b0390911681526020016102c1565b61034d6103483660046131e2565b6107d8565b6040516102c1929190613217565b61036e610369366004613249565b61092d565b005b34801561037c57600080fd5b5061039d61038b3660046131b7565b60026020526000908152604090205481565b6040519081526020016102c1565b3480156103b757600080fd5b5061039d600a5481565b3480156103cd57600080fd5b5061039d600c5481565b61036e6103e5366004613273565b6109f3565b61036e6103f83660046132c1565b610b85565b34801561040957600080fd5b5061039d610dc6565b61036e610de4565b61036e610428366004613273565b610e2c565b61036e61043b366004613399565b610f2a565b61034d61044e36600461340d565b6111e6565b34801561045f57600080fd5b5061039d61046e366004613476565b600f6020526000908152604090205481565b34801561048c57600080fd5b506008546102b59060ff1681565b3480156104a657600080fd5b506103226104b53660046131b7565b6005602052600090815260409020546001600160a01b031681565b3480156104dc57600080fd5b5061039d600d5481565b6103226104f43660046134e3565b61172b565b34801561050557600080fd5b506102df61186f565b34801561051a57600080fd5b5061039d610529366004613476565b60046020526000908152604090205481565b34801561054757600080fd5b506102b5610556366004613476565b60106020526000908152604090205460ff1681565b61036e610579366004613583565b6118fd565b34801561058a57600080fd5b5061039d610599366004613476565b60036020526000908152604090205481565b3480156105b757600080fd5b506102df611b3a565b61036e6105ce366004613635565b611b51565b61036e6105e13660046136ff565b611ca4565b6102b56105f4366004613249565b611d10565b61060c610607366004613732565b611e24565b6040516102c19190613774565b34801561062557600080fd5b5061039d60095481565b61036e61063d3660046137d6565b611f94565b61036e610650366004613845565b612082565b34801561066157600080fd5b506102df6106703660046131b7565b61210a565b61036e61068336600461387b565b612246565b34801561069457600080fd5b506102b56106a33660046138c7565b600760209081526000928352604080842090915290825290205460ff1681565b61036e6106d1366004613476565b61244c565b3480156106e257600080fd5b5061039d6106f1366004613476565b600e6020526000908152604090205481565b60007f01ffc9a7000000000000000000000000000000000000000000000000000000006001600160e01b03198316148061076657507f80ac58cd000000000000000000000000000000000000000000000000000000006001600160e01b03198316145b8061079a57507f5b5e139f000000000000000000000000000000000000000000000000000000006001600160e01b03198316145b92915050565b6060600119368181013560f01c900301355b6040516020016107c491815260200190565b604051602081830303815290604052905090565b3360009081526010602052604081205460609060ff1661080b57604051631dd2188d60e31b815260040160405180910390fd5b61081b60808401606085016138f1565b156108c15761082d6020840184613476565b6001600160a01b03166020840135610848604086018661390c565b604051610856929190613953565b60006040518083038185875af1925050503d8060008114610893576040519150601f19603f3d011682016040523d82523d6000602084013e610898565b606091505b509092509050816108bc5760405163d6bed87360e01b815260040160405180910390fd5b915091565b6108ce6020840184613476565b6001600160a01b03166108e4604085018561390c565b6040516108f2929190613953565b600060405180830381855af49150503d8060008114610893576040519150601f19603f3d011682016040523d82523d6000602084013e610898565b6000818152600560205260409020546001600160a01b031633811480159061097957506001600160a01b038116600090815260076020908152604080832033845290915290205460ff16155b1561099757604051631dd2188d60e31b815260040160405180910390fd5b60008281526006602052604080822080546001600160a01b0319166001600160a01b0387811691821790925591518593918516917f8c5be1e5ebec7d5bd14f71427d1e84f3dd0314c0f7b2291e5b200ac8c7c3b92591a4505050565b60085460ff1615610a17576040516313d0ff5960e31b815260040160405180910390fd5b6000818152600560205260409020546001600160a01b03848116911614610a51576040516330cd747160e01b815260040160405180910390fd5b6001600160a01b038216610a7857604051634e46966960e11b815260040160405180910390fd5b336001600160a01b03841614801590610aa857506000818152600660205260409020546001600160a01b03163314155b8015610ad857506001600160a01b038316600090815260076020908152604080832033845290915290205460ff16155b15610af657604051631dd2188d60e31b815260040160405180910390fd5b6001600160a01b0380841660008181526004602090815260408083208054600019019055938616808352848320805460010190558583526006825284832080546001600160a01b03199081169091556005909252848320805490921681179091559251849392917fddf252ad1be2c89b69c2b068fc378daa952ba7f163c4a11628f55a4df523b3ef91a4505050565b81421115610ba657604051630819bdcd60e01b815260040160405180910390fd5b6000838152600560205260408120546001600160a01b031690610bc7610dc6565b60008681526002602090815260408083208054600180820190925582517ff01eb1ca10960d4c3e51084e76fe5255d292d4b84c5297cdd41025ecd1f10ead818601526001600160a01b038d1681850152606081018c9052608081019190915260a08082018b90528351808303909101815260c08201845280519085012061190160f01b60e083015260e282019690965261010280820196909652825180820390960186526101220190915283519382019390932093509091908390610c8e90870187613963565b604080516000815260208181018084529490945260ff9092168282015291870135606082015290860135608082015260a0016020604051602081039080840390855afa158015610ce2573d6000803e3d6000fd5b505050602060405103519050826001600160a01b0316816001600160a01b031614158015610d3657506001600160a01b0380841660009081526007602090815260408083209385168352929052205460ff16155b80610d4857506001600160a01b038116155b15610d6657604051638baa579f60e01b815260040160405180910390fd5b505060008481526006602052604080822080546001600160a01b0319166001600160a01b0389811691821790925591518793918516917f8c5be1e5ebec7d5bd14f71427d1e84f3dd0314c0f7b2291e5b200ac8c7c3b92591a45050505050565b600080544614610ddd57610dd86124db565b905090565b5060015490565b333014801590610e0457503360009081526010602052604090205460ff16155b15610e2257604051631dd2188d60e31b815260040160405180910390fd5b610e2a612570565b565b60085460ff1615610e50576040516313d0ff5960e31b815260040160405180910390fd5b610e5b8383836109f3565b6001600160a01b0382163b15801590610f075750604051630a85bd0160e11b8082523360048301526001600160a01b03858116602484015260448301849052608060648401526000608484015290919084169063150b7a029060a4016020604051808303816000875af1158015610ed6573d6000803e3d6000fd5b505050506040513d601f19601f82011682018060405250810190610efa9190613986565b6001600160e01b03191614155b15610f2557604051634e46966960e11b815260040160405180910390fd5b505050565b333014801590610f4a57503360009081526010602052604090205460ff16155b15610f6857604051631dd2188d60e31b815260040160405180910390fd5b83828114610fa2576040517f266c51bb00000000000000000000000000000000000000000000000000000000815260040160405180910390fd5b60008060005b8381101561113757868682818110610fc257610fc26139a3565b9050602002016020810190610fd791906138f1565b1561103357611028898983818110610ff157610ff16139a3565b6110079260206060909202019081019150613476565b8a8a84818110611019576110196139a3565b905060600201602001356125bd565b600190920191611065565b611057898983818110611048576110486139a3565b90506060020160200135612765565b82611061816139cf565b9350505b888882818110611077576110776139a3565b9050606002016040013560001461112f5788888281811061109a5761109a6139a3565b90506060020160400135600e60008b8b858181106110ba576110ba6139a3565b6110d09260206060909202019081019150613476565b6001600160a01b03166001600160a01b0316815260200190815260200160002060008282546110ff91906139e6565b909155508990508882818110611117576111176139a3565b905060600201604001358261112c91906139e6565b91505b600101610fa8565b5081156111565781600c600082825461115091906139e6565b90915550505b80156111745780600d600082825461116e91906139e6565b90915550505b600c5484111561119757604051633f65b79560e01b815260040160405180910390fd5b600a8490556040517fe12b1187b552302833d30913c98376c2491a33ff74a01dcf02ad2fab87bfcd50906111d4908a908a908a908a908a90613a59565b60405180910390a15050505050505050565b6000606060006111f4610dc6565b7fff87d0f0280b5799311a7aed7e5d5321d2835110a6d3f8856333d5a9485ed2dc6112226020890189613476565b602089013561123460408b018b61390c565b61124460808d0160608e016138f1565b60098054600181019091556040516112659796959493929190602001613ae8565b604051602081830303815290604052805190602001206040516020016112a292919061190160f01b81526002810192909252602282015260420190565b60408051601f19818403018152919052805160209091012090506000805b600a548110156115745760006001848989858181106112e1576112e16139a3565b6112f79260206060909202019081019150613963565b8a8a86818110611309576113096139a3565b905060600201602001358b8b87818110611325576113256139a3565b9050606002016040013560405160008152602001604052604051611365949392919093845260ff9290921660208401526040830152606082015260800190565b6020604051602081039080840390855afa158015611387573d6000803e3d6000fd5b5050604051601f1901519150506001600160a01b0381163b158015906114f75750806001600160a01b0316631626ba7e858a8a868181106113ca576113ca6139a3565b905060600201602001358b8b878181106113e6576113e66139a3565b905060600201604001358c8c88818110611402576114026139a3565b6114189260206060909202019081019150613963565b60405160200161146093929190928352602083019190915260f81b7fff0000000000000000000000000000000000000000000000000000000000000016604082015260410190565b6040516020818303038152906040526040518363ffffffff1660e01b815260040161148c929190613b2d565b602060405180830381865afa1580156114a9573d6000803e3d6000fd5b505050506040513d601f19601f820116820180604052508101906114cd9190613986565b7bffffffffffffffffffffffffffffffffffffffffffffffffffffffff1916631626ba7e60e01b14155b1561151557604051632057875960e21b815260040160405180910390fd5b6001600160a01b038116600090815260046020526040902054158061154c5750806001600160a01b0316836001600160a01b031610155b1561156a57604051632057875960e21b815260040160405180910390fd5b91506001016112c0565b5061158891505060808601606087016138f1565b1561162e5761159a6020860186613476565b6001600160a01b031660208601356115b5604088018861390c565b6040516115c3929190613953565b60006040518083038185875af1925050503d8060008114611600576040519150601f19603f3d011682016040523d82523d6000602084013e611605565b606091505b509092509050816116295760405163d6bed87360e01b815260040160405180910390fd5b6116c3565b61163b6020860186613476565b6001600160a01b0316611651604087018761390c565b60405161165f929190613953565b600060405180830381855af49150503d806000811461169a576040519150601f19603f3d011682016040523d82523d6000602084013e61169f565b606091505b509092509050816116c35760405163d6bed87360e01b815260040160405180910390fd5b6116d06020860186613476565b6001600160a01b03167f4a0de09071d37e2800c1dcc9027a0030cd5202f3a5a766952307470adc640c57602087013561170c604089018961390c565b60405161171b93929190613b46565b60405180910390a2935093915050565b600080868660405160200161174a929190918252602082015260400190565b60408051601f19818403018152919052905061178f6001600160a01b037f0000000000000000000000000000000000000000000000000000000000000000168261282f565b6040517f9a3769590000000000000000000000000000000000000000000000000000000081529092506001600160a01b03831690639a376959906117e1908d908d908d908b908b908b90600401613b69565b600060405180830381600087803b1580156117fb57600080fd5b505af115801561180f573d6000803e3d6000fd5b50505050816001600160a01b03167fbd0657115e601b8a5af7e0e5729ce2229e856043a654c94b9e431788ab1c03a08b8b8b8b8b8b8b8b60405161185a989796959493929190613bab565b60405180910390a25098975050505050505050565b600b805461187c90613bfb565b80601f01602080910402602001604051908101604052809291908181526020018280546118a890613bfb565b80156118f55780601f106118ca576101008083540402835291602001916118f5565b820191906000526020600020905b8154815290600101906020018083116118d857829003601f168201915b505050505081565b8142111561191e57604051630819bdcd60e01b815260040160405180910390fd5b6000611928610dc6565b6001600160a01b0386811660008181526003602090815260408083208054600180820190925582517f16efd59368a9abbac9954a7e691dd7d75c14d374c4fd2e0ea5eb8eebe3cfc3fd8186015280840196909652958b166060860152608085019590955260a08085018a90528151808603909101815260c08501825280519083012061190160f01b60e086015260e28501969096526101028085019690965280518085039096018652610122909301909252835193820193909320935083906119f390860186613963565b604080516000815260208181018084529490945260ff9092168282015291860135606082015290850135608082015260a0016020604051602081039080840390855afa158015611a47573d6000803e3d6000fd5b505050602060405103519050856001600160a01b0316816001600160a01b031614158015611a9b57506001600160a01b0380871660009081526007602090815260408083209385168352929052205460ff16155b80611aad57506001600160a01b038116155b15611acb57604051638baa579f60e01b815260040160405180910390fd5b50506001600160a01b03848116600081815260076020908152604080832094881680845294825291829020805460ff1916600190811790915591519182527f17307eab39ab6107e8899845ad3d59bd9653f200f220920489ca2b5937696c31910160405180910390a350505050565b6060601e3660011981013560f01c900301356107b2565b60095415611b8b576040517f5daa87a000000000000000000000000000000000000000000000000000000000815260040160405180910390fd5b611b94826129c4565b8380841115611bb657604051633f65b79560e01b815260040160405180910390fd5b60008060005b83811015611c7157611bd9898983818110610ff157610ff16139a3565b888882818110611beb57611beb6139a3565b90506060020160400135600e60008b8b85818110611c0b57611c0b6139a3565b611c219260206060909202019081019150613476565b6001600160a01b03168152602081019190915260400160002055888882818110611c4d57611c4d6139a3565b9050606002016040013582611c6291906139e6565b60019384019390925001611bbc565b50600c829055600d8190556001600955600a8690558351611c9990600b906020870190613009565b505050505050505050565b3360008181526007602090815260408083206001600160a01b03871680855290835292819020805460ff191686151590811790915590519081529192917f17307eab39ab6107e8899845ad3d59bd9653f200f220920489ca2b5937696c31910160405180910390a35050565b60085460009060ff1615611d37576040516313d0ff5960e31b815260040160405180910390fd5b6000828152600560205260409020546001600160a01b03163314611d6e576040516330cd747160e01b815260040160405180910390fd5b6001600160a01b038316611d9557604051634e46966960e11b815260040160405180910390fd5b33600081815260046020908152604080832080546000190190556001600160a01b038716808452818420805460010190558684526006835281842080546001600160a01b031990811690915560059093528184208054909316811790925551859391927fddf252ad1be2c89b69c2b068fc378daa952ba7f163c4a11628f55a4df523b3ef91a450600192915050565b60608167ffffffffffffffff811115611e3f57611e3f6135c6565b604051908082528060200260200182016040528015611e7257816020015b6060815260200190600190039081611e5d5790505b50905060005b82811015611f8d5760008030868685818110611e9657611e966139a3565b9050602002810190611ea8919061390c565b604051611eb6929190613953565b600060405180830381855af49150503d8060008114611ef1576040519150601f19603f3d011682016040523d82523d6000602084013e611ef6565b606091505b509150915081611f6557604481511015611f0f57600080fd5b60048101905080806020019051810190611f299190613c30565b6040517f08c379a0000000000000000000000000000000000000000000000000000000008152600401611f5c91906131a4565b60405180910390fd5b80848481518110611f7857611f786139a3565b60209081029190910101525050600101611e78565b5092915050565b60085460ff1615611fb8576040516313d0ff5960e31b815260040160405180910390fd5b611fc38585856109f3565b6001600160a01b0384163b1580159061205d5750604051630a85bd0160e11b808252906001600160a01b0386169063150b7a029061200d9033908a90899089908990600401613c9e565b6020604051808303816000875af115801561202c573d6000803e3d6000fd5b505050506040513d601f19601f820116820180604052508101906120509190613986565b6001600160e01b03191614155b1561207b57604051634e46966960e11b815260040160405180910390fd5b5050505050565b3330148015906120a257503360009081526010602052604090205460ff16155b156120c057604051631dd2188d60e31b815260040160405180910390fd5b6120cc600b838361308d565b507fe1ef6a38379af51d9b4ed4a0464fb7299395dc22a902e19ff32fcc69c3b08a1582826040516120fe929190613cdc565b60405180910390a15050565b60606000600b805461211b90613bfb565b80601f016020809104026020016040519081016040528092919081815260200182805461214790613bfb565b80156121945780601f1061216957610100808354040283529160200191612194565b820191906000526020600020905b81548152906001019060200180831161217757829003601f168201915b505050505090508051600014156121b3576121ae836129e4565b61223f565b600b80546121c090613bfb565b80601f01602080910402602001604051908101604052809291908181526020018280546121ec90613bfb565b80156122395780601f1061220e57610100808354040283529160200191612239565b820191906000526020600020905b81548152906001019060200180831161221c57829003601f168201915b50505050505b9392505050565b8160005b818110156122fa5780156122f25784846001830381811061226d5761226d6139a3565b90506020020160208101906122829190613476565b6001600160a01b031685858381811061229d5761229d6139a3565b90506020020160208101906122b29190613476565b6001600160a01b0316116122f2576040517f02aac90c00000000000000000000000000000000000000000000000000000000815260040160405180910390fd5b60010161224a565b50600d54336000908152600e60205260408120805485929061231d908490613cf0565b9091555050600d8054849003905560005b828110156124445760008287878481811061234b5761234b6139a3565b90506020020160208101906123609190613476565b6040517f70a082310000000000000000000000000000000000000000000000000000000081523060048201526001600160a01b0391909116906370a0823190602401602060405180830381865afa1580156123bf573d6000803e3d6000fd5b505050506040513d601f19601f820116820180604052508101906123e39190613d07565b6123ed9087613d20565b6123f79190613d55565b9050801561243b5761243b3382898986818110612416576124166139a3565b905060200201602081019061242b9190613476565b6001600160a01b03169190612afa565b5060010161232e565b505050505050565b33301480159061246c57503360009081526010602052604090205460ff16155b1561248a57604051631dd2188d60e31b815260040160405180910390fd5b6001600160a01b038116600081815260106020526040808220805460ff19811660ff90911615179055517f34d3d976ee8e279d32998ac2dc88aa297fdaac240bc8b2dd9d5b65a7c2e8c5129190a250565b60007f8b73c3c69bb8fe3d512ecc4cf759cc79239f7b179b0ffacaa9a75d522b39400f6125066107a0565b80516020918201206040805192830193909352918101919091527fc89efdaa54c0f20c7adf612882df0950f5a951637e0307cdcb4c672f298b8bc660608201524660808201523060a082015260c00160405160208183030381529060405280519060200120905090565b6008805460ff8082161560ff1990921682179092556040519116151581527f28ef61d7a1c224006e6530d510be74c9c673f4a9896202105e3d4f60511779d19060200160405180910390a1565b6001600160a01b0382166125e457604051634e46966960e11b815260040160405180910390fd5b6000818152600560205260409020546001600160a01b031615612633576040517fddefae2800000000000000000000000000000000000000000000000000000000815260040160405180910390fd5b6001600160a01b038216600081815260046020908152604080832080546001019055848352600590915280822080546001600160a01b0319168417905551839291907fddf252ad1be2c89b69c2b068fc378daa952ba7f163c4a11628f55a4df523b3ef908290a46001600160a01b0382163b158015906127435750604051630a85bd0160e11b80825233600483015260006024830181905260448301849052608060648401526084830152906001600160a01b0384169063150b7a029060a4016020604051808303816000875af1158015612712573d6000803e3d6000fd5b505050506040513d601f19601f820116820180604052508101906127369190613986565b6001600160e01b03191614155b1561276157604051634e46966960e11b815260040160405180910390fd5b5050565b6000818152600560205260409020546001600160a01b0316806127b4576040517f4d5e5fb300000000000000000000000000000000000000000000000000000000815260040160405180910390fd5b6001600160a01b038116600081815260046020908152604080832080546000190190558583526005825280832080546001600160a01b031990811690915560069092528083208054909216909155518492907fddf252ad1be2c89b69c2b068fc378daa952ba7f163c4a11628f55a4df523b3ef908390a45050565b80516040517f610000000000000000000000000000000000000000000000000000000000000081526039820160f081811b60018401527f3d81600a3d39f33d3d3d3d363d3d376100000000000000000000000000000000600384015260028401901b601383018190527f60373639366100000000000000000000000000000000000000000000000000006015840152601b8301527f013d730000000000000000000000000000000000000000000000000000000000601d830152606085901b6020808401919091527f5af43d3d93803e603557fd5bf30000000000000000000000000000000000000060348401526000939260438401929186019084604182015b6020821061294f5783518152602093840193601f199092019101612930565b835160001960208490036101000a0119908116825260f088901b91830191825286846000f098506001600160a01b0389166129b6576040517febfef18800000000000000000000000000000000000000000000000000000000815260040160405180910390fd5b505050505050505092915050565b6008805460ff1916821515179055466000556129de6124db565b60015550565b6000818152600560205260408120546060916001600160a01b0390911690612a0b82612b8a565b6001600160a01b0383166000908152600e6020526040902054612a2d90612cca565b604051602001612a3e929190613d69565b6040516020818303038152906040529050600081604051602001612a629190613eca565b60405160208183030381529060405290506000612a7e82612dec565b604051602001612a8e9190613ff4565b6040516020818303038152906040529050612ad0612aaa6107a0565b82604051602001612abc929190614039565b604051602081830303815290604052612dec565b604051602001612ae09190614130565b604051602081830303815290604052945050505050919050565b60006040517fa9059cbb0000000000000000000000000000000000000000000000000000000081526001600160a01b03841660048201528260248201526000806044836000895af1915050612b4e81612f89565b612b84576040517f90b8ec1800000000000000000000000000000000000000000000000000000000815260040160405180910390fd5b50505050565b60408051602880825260608281019093526000919060208201818036833701905050905060005b6014811015611f8d576000612bc7826013613cf0565b612bd2906008613d20565b612bdd906002614259565b612bf0906001600160a01b038716613d55565b60f81b9050600060108260f81c612c079190614265565b60f81b905060008160f81c6010612c1e9190614287565b8360f81c612c2c91906142a8565b60f81b9050612c3a82612fce565b85612c46866002613d20565b81518110612c5657612c566139a3565b60200101906001600160f81b031916908160001a905350612c7681612fce565b85612c82866002613d20565b612c8d9060016139e6565b81518110612c9d57612c9d6139a3565b60200101906001600160f81b031916908160001a9053505050508080612cc2906142cb565b915050612bb1565b606081612d0a57505060408051808201909152600181527f3000000000000000000000000000000000000000000000000000000000000000602082015290565b8160005b8115612d345780612d1e816142cb565b9150612d2d9050600a83613d55565b9150612d0e565b60008167ffffffffffffffff811115612d4f57612d4f6135c6565b6040519080825280601f01601f191660200182016040528015612d79576020820181803683370190505b5090505b8415612de457612d8e600183613cf0565b9150612d9b600a866142e6565b612da69060306139e6565b60f81b818381518110612dbb57612dbb6139a3565b60200101906001600160f81b031916908160001a905350612ddd600a86613d55565b9450612d7d565b949350505050565b805160609080612e0c575050604080516020810190915260008152919050565b60006003612e1b8360026139e6565b612e259190613d55565b612e30906004613d20565b90506000612e3f8260206139e6565b67ffffffffffffffff811115612e5757612e576135c6565b6040519080825280601f01601f191660200182016040528015612e81576020820181803683370190505b5090506000604051806060016040528060408152602001614320604091399050600181016020830160005b86811015612f0d576003818a01810151603f601282901c8116860151600c83901c8216870151600684901c831688015192909316870151600891821b60ff94851601821b92841692909201901b91160160e01b835260049092019101612eac565b506003860660018114612f275760028114612f5357612f7b565b7f3d3d000000000000000000000000000000000000000000000000000000000000600119830152612f7b565b7f3d000000000000000000000000000000000000000000000000000000000000006000198301525b505050918152949350505050565b600081612f9a573d6000803e3d6000fd5b3d60208114612fb2578015612fc35760009150612fc8565b3d6000803e60005115159150612fc8565b600191505b50919050565b6000600a60f883901c1015612ff557612fec60f883901c60306142fa565b60f81b92915050565b612fec60f883901c60576142fa565b919050565b82805461301590613bfb565b90600052602060002090601f016020900481019282613037576000855561307d565b82601f1061305057805160ff191683800117855561307d565b8280016001018555821561307d579182015b8281111561307d578251825591602001919060010190613062565b50613089929150613101565b5090565b82805461309990613bfb565b90600052602060002090601f0160209004810192826130bb576000855561307d565b82601f106130d45782800160ff1982351617855561307d565b8280016001018555821561307d579182015b8281111561307d5782358255916020019190600101906130e6565b5b808211156130895760008155600101613102565b6001600160e01b03198116811461312c57600080fd5b50565b60006020828403121561314157600080fd5b813561223f81613116565b60005b8381101561316757818101518382015260200161314f565b83811115612b845750506000910152565b6000815180845261319081602086016020860161314c565b601f01601f19169290920160200192915050565b60208152600061223f6020830184613178565b6000602082840312156131c957600080fd5b5035919050565b600060808284031215612fc857600080fd5b6000602082840312156131f457600080fd5b813567ffffffffffffffff81111561320b57600080fd5b612de4848285016131d0565b8215158152604060208201526000612de46040830184613178565b80356001600160a01b038116811461300457600080fd5b6000806040838503121561325c57600080fd5b61326583613232565b946020939093013593505050565b60008060006060848603121561328857600080fd5b61329184613232565b925061329f60208501613232565b9150604084013590509250925092565b600060608284031215612fc857600080fd5b60008060008060c085870312156132d757600080fd5b6132e085613232565b935060208501359250604085013591506132fd86606087016132af565b905092959194509250565b60008083601f84011261331a57600080fd5b50813567ffffffffffffffff81111561333257600080fd5b60208301915083602060608302850101111561334d57600080fd5b9250929050565b60008083601f84011261336657600080fd5b50813567ffffffffffffffff81111561337e57600080fd5b6020830191508360208260051b850101111561334d57600080fd5b6000806000806000606086880312156133b157600080fd5b853567ffffffffffffffff808211156133c957600080fd5b6133d589838a01613308565b909750955060208801359150808211156133ee57600080fd5b506133fb88828901613354565b96999598509660400135949350505050565b60008060006040848603121561342257600080fd5b833567ffffffffffffffff8082111561343a57600080fd5b613446878388016131d0565b9450602086013591508082111561345c57600080fd5b5061346986828701613308565b9497909650939450505050565b60006020828403121561348857600080fd5b61223f82613232565b8035801515811461300457600080fd5b60008083601f8401126134b357600080fd5b50813567ffffffffffffffff8111156134cb57600080fd5b60208301915083602082850101111561334d57600080fd5b60008060008060008060008060c0898b0312156134ff57600080fd5b883567ffffffffffffffff8082111561351757600080fd5b6135238c838d01613308565b909a50985060208b0135975060408b0135965060608b0135955088915061354c60808c01613491565b945060a08b013591508082111561356257600080fd5b5061356f8b828c016134a1565b999c989b5096995094979396929594505050565b60008060008060c0858703121561359957600080fd5b6135a285613232565b93506135b060208601613232565b9250604085013591506132fd86606087016132af565b634e487b7160e01b600052604160045260246000fd5b604051601f8201601f1916810167ffffffffffffffff81118282101715613605576136056135c6565b604052919050565b600067ffffffffffffffff821115613627576136276135c6565b50601f01601f191660200190565b60008060008060006080868803121561364d57600080fd5b853567ffffffffffffffff8082111561366557600080fd5b61367189838a01613308565b90975095506020880135945085915061368c60408901613491565b935060608801359150808211156136a257600080fd5b508601601f810188136136b457600080fd5b80356136c76136c28261360d565b6135dc565b8181528960208385010111156136dc57600080fd5b816020840160208301376000602083830101528093505050509295509295909350565b6000806040838503121561371257600080fd5b61371b83613232565b915061372960208401613491565b90509250929050565b6000806020838503121561374557600080fd5b823567ffffffffffffffff81111561375c57600080fd5b61376885828601613354565b90969095509350505050565b6000602080830181845280855180835260408601915060408160051b870101925083870160005b828110156137c957603f198886030184526137b7858351613178565b9450928501929085019060010161379b565b5092979650505050505050565b6000806000806000608086880312156137ee57600080fd5b6137f786613232565b945061380560208701613232565b935060408601359250606086013567ffffffffffffffff81111561382857600080fd5b613834888289016134a1565b969995985093965092949392505050565b6000806020838503121561385857600080fd5b823567ffffffffffffffff81111561386f57600080fd5b613768858286016134a1565b60008060006040848603121561389057600080fd5b833567ffffffffffffffff8111156138a757600080fd5b6138b386828701613354565b909790965060209590950135949350505050565b600080604083850312156138da57600080fd5b6138e383613232565b915061372960208401613232565b60006020828403121561390357600080fd5b61223f82613491565b6000808335601e1984360301811261392357600080fd5b83018035915067ffffffffffffffff82111561393e57600080fd5b60200191503681900382131561334d57600080fd5b8183823760009101908152919050565b60006020828403121561397557600080fd5b813560ff8116811461223f57600080fd5b60006020828403121561399857600080fd5b815161223f81613116565b634e487b7160e01b600052603260045260246000fd5b634e487b7160e01b600052601160045260246000fd5b6000816139de576139de6139b9565b506000190190565b600082198211156139f9576139f96139b9565b500190565b8183526000602080850194508260005b85811015613a4e576001600160a01b03613a2783613232565b16875281830135838801526040808301359088015260609687019690910190600101613a0e565b509495945050505050565b606081526000613a6d6060830187896139fe565b8281036020848101919091528582528691810160005b87811015613aa857613a9484613491565b151582529282019290820190600101613a83565b508093505050508260408301529695505050505050565b81835281816020850137506000828201602090810191909152601f909101601f19169091010190565b8781526001600160a01b038716602082015285604082015260c060608201526000613b1760c083018688613abf565b93151560808301525060a0015295945050505050565b828152604060208201526000612de46040830184613178565b838152604060208201526000613b60604083018486613abf565b95945050505050565b608081526000613b7d60808301888a6139fe565b86602084015285151560408401528281036060840152613b9e818587613abf565b9998505050505050505050565b60c081526000613bbf60c083018a8c6139fe565b886020840152876040840152866060840152851515608084015282810360a0840152613bec818587613abf565b9b9a5050505050505050505050565b600181811c90821680613c0f57607f821691505b60208210811415612fc857634e487b7160e01b600052602260045260246000fd5b600060208284031215613c4257600080fd5b815167ffffffffffffffff811115613c5957600080fd5b8201601f81018413613c6a57600080fd5b8051613c786136c28261360d565b818152856020838501011115613c8d57600080fd5b613b6082602083016020860161314c565b60006001600160a01b03808816835280871660208401525084604083015260806060830152613cd1608083018486613abf565b979650505050505050565b602081526000612de4602083018486613abf565b600082821015613d0257613d026139b9565b500390565b600060208284031215613d1957600080fd5b5051919050565b6000816000190483118215151615613d3a57613d3a6139b9565b500290565b634e487b7160e01b600052601260045260246000fd5b600082613d6457613d64613d3f565b500490565b60007f3c7465787420646f6d696e616e742d626173656c696e653d226d6964646c65228083527f20746578742d616e63686f723d226d6964646c65222066696c6c3d22776869748060208501527f652220783d223530252220793d2239307078223e00000000000000000000000060408501527f307800000000000000000000000000000000000000000000000000000000000060548501528551613e15816056870160208a0161314c565b80850190507f3c2f746578743e0000000000000000000000000000000000000000000000000080605683015283605d83015282607d8301527f652220783d22313030252220793d223138307078223e00000000000000000000609d83015286519350613e888460b3840160208a0161314c565b83820193507f204c6f6f7400000000000000000000000000000000000000000000000000000060b38501528060b885015250505060bf81019150509392505050565b7f3c73766720786d6c6e733d22687474703a2f2f7777772e77332e6f72672f323081527f30302f737667222076696577426f783d2230203020343030203430302220707260208201527f657365727665417370656374526174696f3d22784d6964594d6964206d65657460408201527f22207374796c653d22666f6e743a31347078207365726966223e3c726563742060608201527f77696474683d2234303022206865696768743d22343030222066696c6c3d226260808201527f6c61636b22202f3e00000000000000000000000000000000000000000000000060a082015260008251613fc08160a885016020870161314c565b7f3c2f7376673e000000000000000000000000000000000000000000000000000060a893909101928301525060ae01919050565b7f646174613a696d6167652f7376672b786d6c3b6261736536342c00000000000081526000825161402c81601a85016020870161314c565b91909101601a0192915050565b7f7b226e616d65223a22000000000000000000000000000000000000000000000081526000835161407181600985016020880161314c565b7f222c2022696d616765223a22000000000000000000000000000000000000000060099184019182015283516140ae81601584016020880161314c565b7f222c20226465736372697074696f6e223a202254686520686f6c646572206f66601592909101918201527f2074686973204e4654206973206120636c7562206b6579207369676e6572207760358201527f69746820696d7065636361626c652074617374652e227d0000000000000000006055820152606c01949350505050565b7f646174613a6170706c69636174696f6e2f6a736f6e3b6261736536342c00000081526000825161416881601d85016020870161314c565b91909101601d0192915050565b600181815b808511156141b0578160001904821115614196576141966139b9565b808516156141a357918102915b93841c939080029061417a565b509250929050565b6000826141c75750600161079a565b816141d45750600061079a565b81600181146141ea57600281146141f457614210565b600191505061079a565b60ff841115614205576142056139b9565b50506001821b61079a565b5060208310610133831016604e8410600b8410161715614233575081810a61079a565b61423d8383614175565b8060001904821115614251576142516139b9565b029392505050565b600061223f83836141b8565b600060ff83168061427857614278613d3f565b8060ff84160491505092915050565b600060ff821660ff84168160ff0481118215151615614251576142516139b9565b600060ff821660ff8416808210156142c2576142c26139b9565b90039392505050565b60006000198214156142df576142df6139b9565b5060010190565b6000826142f5576142f5613d3f565b500690565b600060ff821660ff84168060ff03821115614317576143176139b9565b01939250505056fe4142434445464748494a4b4c4d4e4f505152535455565758595a6162636465666768696a6b6c6d6e6f707172737475767778797a303132333435363738392b2fa2646970667358221220fa6bbda37c4463871d47d0a15ac18981bada86c0a13d17f33d4e0be36e67f78764736f6c634300080c0033",
    "linkReferences": {}
  }
}