{
  "abi": [
    {
      "inputs": [
        {
          "internalType": "address",
          "name": "_owner",
          "type": "address"
        }
      ],
      "stateMutability": "payable",
      "type": "constructor"
    },
    {
      "inputs": [],
      "name": "NotOwner",
      "type": "error"
    },
    {
      "anonymous": false,
      "inputs": [
        {
          "indexed": true,
          "internalType": "address",
          "name": "owner",
          "type": "address"
        },
        {
          "indexed": true,
          "internalType": "address",
          "name": "newOwner",
          "type": "address"
        }
      ],
      "name": "OwnerUpdated",
      "type": "event"
    },
    {
      "anonymous": false,
      "inputs": [
        {
          "indexed": true,
          "internalType": "address",
          "name": "owner",
          "type": "address"
        },
        {
          "indexed": true,
          "internalType": "contract URIRemoteFetcher",
          "name": "uriRemoteFetcher",
          "type": "address"
        }
      ],
      "name": "URIRemoteFetcherSet",
      "type": "event"
    },
    {
      "inputs": [],
      "name": "owner",
      "outputs": [
        {
          "internalType": "address",
          "name": "",
          "type": "address"
        }
      ],
      "stateMutability": "view",
      "type": "function"
    },
    {
      "inputs": [
        {
          "internalType": "address",
          "name": "_owner",
          "type": "address"
        }
      ],
      "name": "setOwner",
      "outputs": [],
      "stateMutability": "payable",
      "type": "function"
    },
    {
      "inputs": [
        {
          "internalType": "contract URIRemoteFetcher",
          "name": "_uriRemoteFetcher",
          "type": "address"
        }
      ],
      "name": "setURIRemote",
      "outputs": [],
      "stateMutability": "payable",
      "type": "function"
    },
    {
      "inputs": [
        {
          "internalType": "uint256",
          "name": "id",
          "type": "uint256"
        }
      ],
      "name": "uri",
      "outputs": [
        {
          "internalType": "string",
          "name": "",
          "type": "string"
        }
      ],
      "stateMutability": "view",
      "type": "function"
    },
    {
      "inputs": [],
      "name": "uriRemoteFetcher",
      "outputs": [
        {
          "internalType": "contract URIRemoteFetcher",
          "name": "",
          "type": "address"
        }
      ],
      "stateMutability": "view",
      "type": "function"
    }
  ],
  "bytecode": {
    "object": "0x608060405260405161060e38038061060e83398101604081905261002291610070565b600080546001600160a01b0319166001600160a01b03831690811782556040519091907f8292fce18fa69edf4db7b94ea2e58241df0ae57f97e0a6c9b29067028bf92d76908290a3506100a0565b60006020828403121561008257600080fd5b81516001600160a01b038116811461009957600080fd5b9392505050565b61055f806100af6000396000f3fe60806040526004361061005a5760003560e01c8063469c586511610043578063469c5865146100aa57806352a591a3146100bd5780638da5cb5b1461010f57600080fd5b80630e89341c1461005f57806313af403514610095575b600080fd5b34801561006b57600080fd5b5061007f61007a366004610381565b61013c565b60405161008c91906103be565b60405180910390f35b6100a86100a3366004610434565b6101fe565b005b6100a86100b8366004610434565b6102bf565b3480156100c957600080fd5b506001546100ea9073ffffffffffffffffffffffffffffffffffffffff1681565b60405173ffffffffffffffffffffffffffffffffffffffff909116815260200161008c565b34801561011b57600080fd5b506000546100ea9073ffffffffffffffffffffffffffffffffffffffff1681565b6001546040517f04add0dd0000000000000000000000000000000000000000000000000000000081523360048201526024810183905260609173ffffffffffffffffffffffffffffffffffffffff16906304add0dd90604401600060405180830381865afa1580156101b2573d6000803e3d6000fd5b505050506040513d6000823e601f3d9081017fffffffffffffffffffffffffffffffffffffffffffffffffffffffffffffffe01682016040526101f89190810190610487565b92915050565b60005473ffffffffffffffffffffffffffffffffffffffff16331461024f576040517f30cd747100000000000000000000000000000000000000000000000000000000815260040160405180910390fd5b600080547fffffffffffffffffffffffff00000000000000000000000000000000000000001673ffffffffffffffffffffffffffffffffffffffff83169081178255604051909133917f8292fce18fa69edf4db7b94ea2e58241df0ae57f97e0a6c9b29067028bf92d769190a350565b60005473ffffffffffffffffffffffffffffffffffffffff163314610310576040517f30cd747100000000000000000000000000000000000000000000000000000000815260040160405180910390fd5b600180547fffffffffffffffffffffffff00000000000000000000000000000000000000001673ffffffffffffffffffffffffffffffffffffffff831690811790915560405133907f8327c39594d9bc92fa0b68a8dc527a5f8578fbafc035d471632e8c674eefa11690600090a350565b60006020828403121561039357600080fd5b5035919050565b60005b838110156103b557818101518382015260200161039d565b50506000910152565b60208152600082518060208401526103dd81604085016020870161039a565b601f017fffffffffffffffffffffffffffffffffffffffffffffffffffffffffffffffe0169190910160400192915050565b73ffffffffffffffffffffffffffffffffffffffff8116811461043157600080fd5b50565b60006020828403121561044657600080fd5b81356104518161040f565b9392505050565b7f4e487b7100000000000000000000000000000000000000000000000000000000600052604160045260246000fd5b60006020828403121561049957600080fd5b815167ffffffffffffffff808211156104b157600080fd5b818401915084601f8301126104c557600080fd5b8151818111156104d7576104d7610458565b604051601f82017fffffffffffffffffffffffffffffffffffffffffffffffffffffffffffffffe0908116603f0116810190838211818310171561051d5761051d610458565b8160405282815287602084870101111561053657600080fd5b61054783602083016020880161039a565b97965050505050505056fea164736f6c6343000811000a",
    "linkReferences": {}
  },
  "methodIdentifiers": {
    "owner()": "8da5cb5b",
    "setOwner(address)": "13af4035",
    "setURIRemote(address)": "469c5865",
    "uri(uint256)": "0e89341c",
    "uriRemoteFetcher()": "52a591a3"
  },
  "id": 22
}