{
  "abi": [
    {
      "inputs": [
        {
          "internalType": "address",
          "name": "_owner",
          "type": "address"
        },
        {
          "internalType": "contract URIRemoteFetcher",
          "name": "_uriRemoteFetcher",
          "type": "address"
        }
      ],
      "stateMutability": "payable",
      "type": "constructor"
    },
    {
      "inputs": [],
      "name": "Unauthorized",
      "type": "error"
    },
    {
      "anonymous": false,
      "inputs": [
        {
          "indexed": true,
          "internalType": "address",
          "name": "user",
          "type": "address"
        },
        {
          "indexed": true,
          "internalType": "address",
          "name": "newOwner",
          "type": "address"
        }
      ],
      "name": "OwnershipTransferred",
      "type": "event"
    },
    {
      "anonymous": false,
      "inputs": [
        {
          "indexed": true,
          "internalType": "contract URIRemoteFetcher",
          "name": "uriRemoteFetcher",
          "type": "address"
        }
      ],
      "name": "URIRemoteFetcherSet",
      "type": "event"
    },
    {
      "inputs": [],
      "name": "owner",
      "outputs": [
        {
          "internalType": "address",
          "name": "",
          "type": "address"
        }
      ],
      "stateMutability": "view",
      "type": "function"
    },
    {
      "inputs": [
        {
          "internalType": "contract URIRemoteFetcher",
          "name": "_uriRemoteFetcher",
          "type": "address"
        }
      ],
      "name": "setURIRemoteFetcher",
      "outputs": [],
      "stateMutability": "payable",
      "type": "function"
    },
    {
      "inputs": [
        {
          "internalType": "address",
          "name": "newOwner",
          "type": "address"
        }
      ],
      "name": "transferOwnership",
      "outputs": [],
      "stateMutability": "payable",
      "type": "function"
    },
    {
      "inputs": [
        {
          "internalType": "uint256",
          "name": "id",
          "type": "uint256"
        }
      ],
      "name": "uri",
      "outputs": [
        {
          "internalType": "string",
          "name": "",
          "type": "string"
        }
      ],
      "stateMutability": "view",
      "type": "function"
    },
    {
      "inputs": [],
      "name": "uriRemoteFetcher",
      "outputs": [
        {
          "internalType": "contract URIRemoteFetcher",
          "name": "",
          "type": "address"
        }
      ],
      "stateMutability": "view",
      "type": "function"
    }
  ],
  "bytecode": {
    "object": "0x608060405260405161064f38038061064f833981016040819052610022916100a9565b600080546001600160a01b0319166001600160a01b03841690811782556040518492907f8be0079c531659141344cd1fd0a4f28419497f9722a3daafe3b4186f6b6457e0908290a350600180546001600160a01b0319166001600160a01b0392909216919091179055506100e3565b6001600160a01b03811681146100a657600080fd5b50565b600080604083850312156100bc57600080fd5b82516100c781610091565b60208401519092506100d881610091565b809150509250929050565b61055d806100f26000396000f3fe60806040526004361061005a5760003560e01c806352a591a31161004357806352a591a3146100aa5780638da5cb5b146100fc578063f2fde38b1461012957600080fd5b80630e89341c1461005f5780634ada4dd114610095575b600080fd5b34801561006b57600080fd5b5061007f61007a36600461037f565b61013c565b60405161008c91906103bc565b60405180910390f35b6100a86100a3366004610432565b6101fe565b005b3480156100b657600080fd5b506001546100d79073ffffffffffffffffffffffffffffffffffffffff1681565b60405173ffffffffffffffffffffffffffffffffffffffff909116815260200161008c565b34801561010857600080fd5b506000546100d79073ffffffffffffffffffffffffffffffffffffffff1681565b6100a8610137366004610432565b6102be565b6001546040517f04add0dd0000000000000000000000000000000000000000000000000000000081523360048201526024810183905260609173ffffffffffffffffffffffffffffffffffffffff16906304add0dd90604401600060405180830381865afa1580156101b2573d6000803e3d6000fd5b505050506040513d6000823e601f3d9081017fffffffffffffffffffffffffffffffffffffffffffffffffffffffffffffffe01682016040526101f89190810190610485565b92915050565b60005473ffffffffffffffffffffffffffffffffffffffff16331461024f576040517f82b4290000000000000000000000000000000000000000000000000000000000815260040160405180910390fd5b600180547fffffffffffffffffffffffff00000000000000000000000000000000000000001673ffffffffffffffffffffffffffffffffffffffff83169081179091556040517fbafc1a5b68d3b96c500d6a9aad016ad064d0b0f3d2f9c8dafdd0950c52f5772f90600090a250565b60005473ffffffffffffffffffffffffffffffffffffffff16331461030f576040517f82b4290000000000000000000000000000000000000000000000000000000000815260040160405180910390fd5b600080547fffffffffffffffffffffffff00000000000000000000000000000000000000001673ffffffffffffffffffffffffffffffffffffffff83169081178255604051909133917f8be0079c531659141344cd1fd0a4f28419497f9722a3daafe3b4186f6b6457e09190a350565b60006020828403121561039157600080fd5b5035919050565b60005b838110156103b357818101518382015260200161039b565b50506000910152565b60208152600082518060208401526103db816040850160208701610398565b601f017fffffffffffffffffffffffffffffffffffffffffffffffffffffffffffffffe0169190910160400192915050565b73ffffffffffffffffffffffffffffffffffffffff8116811461042f57600080fd5b50565b60006020828403121561044457600080fd5b813561044f8161040d565b9392505050565b7f4e487b7100000000000000000000000000000000000000000000000000000000600052604160045260246000fd5b60006020828403121561049757600080fd5b815167ffffffffffffffff808211156104af57600080fd5b818401915084601f8301126104c357600080fd5b8151818111156104d5576104d5610456565b604051601f82017fffffffffffffffffffffffffffffffffffffffffffffffffffffffffffffffe0908116603f0116810190838211818310171561051b5761051b610456565b8160405282815287602084870101111561053457600080fd5b610545836020830160208801610398565b97965050505050505056fea164736f6c6343000811000a",
    "linkReferences": {}
  },
  "methodIdentifiers": {
    "owner()": "8da5cb5b",
    "setURIRemoteFetcher(address)": "4ada4dd1",
    "transferOwnership(address)": "f2fde38b",
    "uri(uint256)": "0e89341c",
    "uriRemoteFetcher()": "52a591a3"
  },
  "id": 33
}