{
  "abi": [
    {
      "inputs": [
        {
          "internalType": "address",
          "name": "_owner",
          "type": "address"
        },
        {
          "internalType": "contract URIRemoteFetcher",
          "name": "_uriRemoteFetcher",
          "type": "address"
        }
      ],
      "stateMutability": "payable",
      "type": "constructor"
    },
    {
      "inputs": [],
      "name": "NotAuthorized",
      "type": "error"
    },
    {
      "anonymous": false,
      "inputs": [
        {
          "indexed": true,
          "internalType": "address",
          "name": "user",
          "type": "address"
        },
        {
          "indexed": true,
          "internalType": "address",
          "name": "newOwner",
          "type": "address"
        }
      ],
      "name": "OwnerUpdated",
      "type": "event"
    },
    {
      "anonymous": false,
      "inputs": [
        {
          "indexed": true,
          "internalType": "address",
          "name": "user",
          "type": "address"
        },
        {
          "indexed": true,
          "internalType": "contract URIRemoteFetcher",
          "name": "uriRemoteFetcher",
          "type": "address"
        }
      ],
      "name": "URIRemoteFetcherSet",
      "type": "event"
    },
    {
      "inputs": [],
      "name": "owner",
      "outputs": [
        {
          "internalType": "address",
          "name": "",
          "type": "address"
        }
      ],
      "stateMutability": "view",
      "type": "function"
    },
    {
      "inputs": [
        {
          "internalType": "address",
          "name": "newOwner",
          "type": "address"
        }
      ],
      "name": "setOwner",
      "outputs": [],
      "stateMutability": "nonpayable",
      "type": "function"
    },
    {
      "inputs": [
        {
          "internalType": "contract URIRemoteFetcher",
          "name": "_uriRemoteFetcher",
          "type": "address"
        }
      ],
      "name": "setURIRemoteFetcher",
      "outputs": [],
      "stateMutability": "payable",
      "type": "function"
    },
    {
      "inputs": [
        {
          "internalType": "uint256",
          "name": "id",
          "type": "uint256"
        }
      ],
      "name": "uri",
      "outputs": [
        {
          "internalType": "string",
          "name": "",
          "type": "string"
        }
      ],
      "stateMutability": "view",
      "type": "function"
    },
    {
      "inputs": [],
      "name": "uriRemoteFetcher",
      "outputs": [
        {
          "internalType": "contract URIRemoteFetcher",
          "name": "",
          "type": "address"
        }
      ],
      "stateMutability": "view",
      "type": "function"
    }
  ],
  "bytecode": {
    "object": "0x608060405260405161065e38038061065e833981016040819052610022916100a9565b600080546001600160a01b0319166001600160a01b03841690811782556040518492907f8292fce18fa69edf4db7b94ea2e58241df0ae57f97e0a6c9b29067028bf92d76908290a350600180546001600160a01b0319166001600160a01b0392909216919091179055506100e3565b6001600160a01b03811681146100a657600080fd5b50565b600080604083850312156100bc57600080fd5b82516100c781610091565b60208401519092506100d881610091565b809150509250929050565b61056c806100f26000396000f3fe60806040526004361061005a5760003560e01c80634ada4dd1116100435780634ada4dd1146100b757806352a591a3146100ca5780638da5cb5b1461011c57600080fd5b80630e89341c1461005f57806313af403514610095575b600080fd5b34801561006b57600080fd5b5061007f61007a36600461038e565b610149565b60405161008c91906103cb565b60405180910390f35b3480156100a157600080fd5b506100b56100b0366004610441565b61020b565b005b6100b56100c5366004610441565b6102cc565b3480156100d657600080fd5b506001546100f79073ffffffffffffffffffffffffffffffffffffffff1681565b60405173ffffffffffffffffffffffffffffffffffffffff909116815260200161008c565b34801561012857600080fd5b506000546100f79073ffffffffffffffffffffffffffffffffffffffff1681565b6001546040517f04add0dd0000000000000000000000000000000000000000000000000000000081523360048201526024810183905260609173ffffffffffffffffffffffffffffffffffffffff16906304add0dd90604401600060405180830381865afa1580156101bf573d6000803e3d6000fd5b505050506040513d6000823e601f3d9081017fffffffffffffffffffffffffffffffffffffffffffffffffffffffffffffffe01682016040526102059190810190610494565b92915050565b60005473ffffffffffffffffffffffffffffffffffffffff16331461025c576040517fea8e4eb500000000000000000000000000000000000000000000000000000000815260040160405180910390fd5b600080547fffffffffffffffffffffffff00000000000000000000000000000000000000001673ffffffffffffffffffffffffffffffffffffffff83169081178255604051909133917f8292fce18fa69edf4db7b94ea2e58241df0ae57f97e0a6c9b29067028bf92d769190a350565b60005473ffffffffffffffffffffffffffffffffffffffff16331461031d576040517fea8e4eb500000000000000000000000000000000000000000000000000000000815260040160405180910390fd5b600180547fffffffffffffffffffffffff00000000000000000000000000000000000000001673ffffffffffffffffffffffffffffffffffffffff831690811790915560405133907f8327c39594d9bc92fa0b68a8dc527a5f8578fbafc035d471632e8c674eefa11690600090a350565b6000602082840312156103a057600080fd5b5035919050565b60005b838110156103c25781810151838201526020016103aa565b50506000910152565b60208152600082518060208401526103ea8160408501602087016103a7565b601f017fffffffffffffffffffffffffffffffffffffffffffffffffffffffffffffffe0169190910160400192915050565b73ffffffffffffffffffffffffffffffffffffffff8116811461043e57600080fd5b50565b60006020828403121561045357600080fd5b813561045e8161041c565b9392505050565b7f4e487b7100000000000000000000000000000000000000000000000000000000600052604160045260246000fd5b6000602082840312156104a657600080fd5b815167ffffffffffffffff808211156104be57600080fd5b818401915084601f8301126104d257600080fd5b8151818111156104e4576104e4610465565b604051601f82017fffffffffffffffffffffffffffffffffffffffffffffffffffffffffffffffe0908116603f0116810190838211818310171561052a5761052a610465565b8160405282815287602084870101111561054357600080fd5b6105548360208301602088016103a7565b97965050505050505056fea164736f6c6343000811000a",
    "linkReferences": {}
  },
  "methodIdentifiers": {
    "owner()": "8da5cb5b",
    "setOwner(address)": "13af4035",
    "setURIRemoteFetcher(address)": "4ada4dd1",
    "uri(uint256)": "0e89341c",
    "uriRemoteFetcher()": "52a591a3"
  },
  "id": 22
}