{
  "abi": [
    {
      "inputs": [
        {
          "internalType": "contract KaliClubSig",
          "name": "renderer_",
          "type": "address"
        }
      ],
      "stateMutability": "payable",
      "type": "constructor"
    },
    {
      "inputs": [],
      "name": "AlreadyInit",
      "type": "error"
    },
    {
      "inputs": [],
      "name": "AlreadyMinted",
      "type": "error"
    },
    {
      "inputs": [],
      "name": "ExecuteFailed",
      "type": "error"
    },
    {
      "inputs": [],
      "name": "Forbidden",
      "type": "error"
    },
    {
      "inputs": [],
      "name": "InvalidRecipient",
      "type": "error"
    },
    {
      "inputs": [],
      "name": "InvalidSig",
      "type": "error"
    },
    {
      "inputs": [],
      "name": "NotMinted",
      "type": "error"
    },
    {
      "inputs": [],
      "name": "NotOwner",
      "type": "error"
    },
    {
      "inputs": [],
      "name": "Paused",
      "type": "error"
    },
    {
      "inputs": [],
      "name": "QuorumOverSigs",
      "type": "error"
    },
    {
      "anonymous": false,
      "inputs": [
        {
          "indexed": true,
          "internalType": "address",
          "name": "owner",
          "type": "address"
        },
        {
          "indexed": true,
          "internalType": "address",
          "name": "spender",
          "type": "address"
        },
        {
          "indexed": true,
          "internalType": "uint256",
          "name": "id",
          "type": "uint256"
        }
      ],
      "name": "Approval",
      "type": "event"
    },
    {
      "anonymous": false,
      "inputs": [
        {
          "indexed": true,
          "internalType": "address",
          "name": "owner",
          "type": "address"
        },
        {
          "indexed": true,
          "internalType": "address",
          "name": "operator",
          "type": "address"
        },
        {
          "indexed": false,
          "internalType": "bool",
          "name": "approved",
          "type": "bool"
        }
      ],
      "name": "ApprovalForAll",
      "type": "event"
    },
    {
      "anonymous": false,
      "inputs": [
        {
          "indexed": true,
          "internalType": "address",
          "name": "to",
          "type": "address"
        },
        {
          "indexed": false,
          "internalType": "uint256",
          "name": "value",
          "type": "uint256"
        },
        {
          "indexed": false,
          "internalType": "bytes",
          "name": "data",
          "type": "bytes"
        }
      ],
      "name": "Execute",
      "type": "event"
    },
    {
      "anonymous": false,
      "inputs": [
        {
          "components": [
            {
              "internalType": "bool",
              "name": "mint",
              "type": "bool"
            },
            {
              "internalType": "address",
              "name": "signer",
              "type": "address"
            },
            {
              "internalType": "uint256",
              "name": "id",
              "type": "uint256"
            }
          ],
          "indexed": false,
          "internalType": "struct IMember.Member[]",
          "name": "members",
          "type": "tuple[]"
        },
        {
          "indexed": false,
          "internalType": "uint256",
          "name": "quorum",
          "type": "uint256"
        }
      ],
      "name": "Govern",
      "type": "event"
    },
    {
      "anonymous": false,
      "inputs": [
        {
          "indexed": true,
          "internalType": "address",
          "name": "account",
          "type": "address"
        },
        {
          "indexed": false,
          "internalType": "bool",
          "name": "approved",
          "type": "bool"
        }
      ],
      "name": "GovernorSet",
      "type": "event"
    },
    {
      "anonymous": false,
      "inputs": [
        {
          "indexed": false,
          "internalType": "bool",
          "name": "paused",
          "type": "bool"
        }
      ],
      "name": "PauseSet",
      "type": "event"
    },
    {
      "anonymous": false,
      "inputs": [
        {
          "indexed": true,
          "internalType": "address",
          "name": "from",
          "type": "address"
        },
        {
          "indexed": true,
          "internalType": "address",
          "name": "to",
          "type": "address"
        },
        {
          "indexed": true,
          "internalType": "uint256",
          "name": "id",
          "type": "uint256"
        }
      ],
      "name": "Transfer",
      "type": "event"
    },
    {
      "anonymous": false,
      "inputs": [
        {
          "indexed": false,
          "internalType": "string",
          "name": "baseURI",
          "type": "string"
        }
      ],
      "name": "URIset",
      "type": "event"
    },
    {
      "inputs": [],
      "name": "DOMAIN_SEPARATOR",
      "outputs": [
        {
          "internalType": "bytes32",
          "name": "",
          "type": "bytes32"
        }
      ],
      "stateMutability": "view",
      "type": "function"
    },
    {
      "inputs": [
        {
          "internalType": "address",
          "name": "spender",
          "type": "address"
        },
        {
          "internalType": "uint256",
          "name": "id",
          "type": "uint256"
        }
      ],
      "name": "approve",
      "outputs": [],
      "stateMutability": "payable",
      "type": "function"
    },
    {
      "inputs": [
        {
          "internalType": "address",
          "name": "",
          "type": "address"
        }
      ],
      "name": "balanceOf",
      "outputs": [
        {
          "internalType": "uint256",
          "name": "",
          "type": "uint256"
        }
      ],
      "stateMutability": "view",
      "type": "function"
    },
    {
      "inputs": [
        {
          "components": [
            {
              "internalType": "address",
              "name": "to",
              "type": "address"
            },
            {
              "internalType": "uint256",
              "name": "value",
              "type": "uint256"
            },
            {
              "internalType": "bytes",
              "name": "data",
              "type": "bytes"
            },
            {
              "internalType": "bool",
              "name": "deleg",
              "type": "bool"
            }
          ],
          "internalType": "struct Call[]",
          "name": "calls",
          "type": "tuple[]"
        }
      ],
      "name": "batchExecute",
      "outputs": [
        {
          "internalType": "bool[]",
          "name": "successes",
          "type": "bool[]"
        }
      ],
      "stateMutability": "payable",
      "type": "function"
    },
    {
      "inputs": [
        {
          "internalType": "address",
          "name": "to",
          "type": "address"
        },
        {
          "internalType": "uint256",
          "name": "value",
          "type": "uint256"
        },
        {
          "internalType": "bytes",
          "name": "data",
          "type": "bytes"
        },
        {
          "internalType": "bool",
          "name": "deleg",
          "type": "bool"
        },
        {
          "components": [
            {
              "internalType": "uint8",
              "name": "v",
              "type": "uint8"
            },
            {
              "internalType": "bytes32",
              "name": "r",
              "type": "bytes32"
            },
            {
              "internalType": "bytes32",
              "name": "s",
              "type": "bytes32"
            }
          ],
          "internalType": "struct Signature[]",
          "name": "sigs",
          "type": "tuple[]"
        }
      ],
      "name": "execute",
      "outputs": [
        {
          "internalType": "bool",
          "name": "success",
          "type": "bool"
        }
      ],
      "stateMutability": "payable",
      "type": "function"
    },
    {
      "inputs": [
        {
          "internalType": "uint256",
          "name": "",
          "type": "uint256"
        }
      ],
      "name": "getApproved",
      "outputs": [
        {
          "internalType": "address",
          "name": "",
          "type": "address"
        }
      ],
      "stateMutability": "view",
      "type": "function"
    },
    {
      "inputs": [
        {
          "internalType": "address",
          "name": "to",
          "type": "address"
        },
        {
          "internalType": "uint256",
          "name": "value",
          "type": "uint256"
        },
        {
          "internalType": "bytes",
          "name": "data",
          "type": "bytes"
        },
        {
          "internalType": "bool",
          "name": "deleg",
          "type": "bool"
        },
        {
          "internalType": "uint256",
          "name": "tx_nonce",
          "type": "uint256"
        }
      ],
      "name": "getDigest",
      "outputs": [
        {
          "internalType": "bytes32",
          "name": "",
          "type": "bytes32"
        }
      ],
      "stateMutability": "view",
      "type": "function"
    },
    {
      "inputs": [
        {
          "components": [
            {
              "internalType": "bool",
              "name": "mint",
              "type": "bool"
            },
            {
              "internalType": "address",
              "name": "signer",
              "type": "address"
            },
            {
              "internalType": "uint256",
              "name": "id",
              "type": "uint256"
            }
          ],
          "internalType": "struct IMember.Member[]",
          "name": "members_",
          "type": "tuple[]"
        },
        {
          "internalType": "uint256",
          "name": "quorum_",
          "type": "uint256"
        }
      ],
      "name": "govern",
      "outputs": [],
      "stateMutability": "payable",
      "type": "function"
    },
    {
      "inputs": [
        {
          "internalType": "address",
          "name": "",
          "type": "address"
        }
      ],
      "name": "governor",
      "outputs": [
        {
          "internalType": "bool",
          "name": "",
          "type": "bool"
        }
      ],
      "stateMutability": "view",
      "type": "function"
    },
    {
      "inputs": [
        {
          "components": [
            {
              "internalType": "address",
              "name": "to",
              "type": "address"
            },
            {
              "internalType": "uint256",
              "name": "value",
              "type": "uint256"
            },
            {
              "internalType": "bytes",
              "name": "data",
              "type": "bytes"
            },
            {
              "internalType": "bool",
              "name": "deleg",
              "type": "bool"
            }
          ],
          "internalType": "struct Call[]",
          "name": "calls_",
          "type": "tuple[]"
        },
        {
          "components": [
            {
              "internalType": "bool",
              "name": "mint",
              "type": "bool"
            },
            {
              "internalType": "address",
              "name": "signer",
              "type": "address"
            },
            {
              "internalType": "uint256",
              "name": "id",
              "type": "uint256"
            }
          ],
          "internalType": "struct IMember.Member[]",
          "name": "members_",
          "type": "tuple[]"
        },
        {
          "internalType": "uint256",
          "name": "quorum_",
          "type": "uint256"
        },
        {
          "internalType": "bool",
          "name": "signerPaused_",
          "type": "bool"
        },
        {
          "internalType": "string",
          "name": "baseURI_",
          "type": "string"
        }
      ],
      "name": "init",
      "outputs": [],
      "stateMutability": "payable",
      "type": "function"
    },
    {
      "inputs": [
        {
          "internalType": "address",
          "name": "",
          "type": "address"
        },
        {
          "internalType": "address",
          "name": "",
          "type": "address"
        }
      ],
      "name": "isApprovedForAll",
      "outputs": [
        {
          "internalType": "bool",
          "name": "",
          "type": "bool"
        }
      ],
      "stateMutability": "view",
      "type": "function"
    },
    {
      "inputs": [
        {
          "internalType": "bytes[]",
          "name": "data",
          "type": "bytes[]"
        }
      ],
      "name": "multicall",
      "outputs": [
        {
          "internalType": "bytes[]",
          "name": "results",
          "type": "bytes[]"
        }
      ],
      "stateMutability": "payable",
      "type": "function"
    },
    {
      "inputs": [],
      "name": "name",
      "outputs": [
        {
          "internalType": "string",
          "name": "",
          "type": "string"
        }
      ],
      "stateMutability": "pure",
      "type": "function"
    },
    {
      "inputs": [],
      "name": "nonce",
      "outputs": [
        {
          "internalType": "uint64",
          "name": "",
          "type": "uint64"
        }
      ],
      "stateMutability": "view",
      "type": "function"
    },
    {
      "inputs": [
        {
          "internalType": "address",
          "name": "",
          "type": "address"
        },
        {
          "internalType": "address",
          "name": "",
          "type": "address"
        },
        {
          "internalType": "uint256[]",
          "name": "",
          "type": "uint256[]"
        },
        {
          "internalType": "uint256[]",
          "name": "",
          "type": "uint256[]"
        },
        {
          "internalType": "bytes",
          "name": "",
          "type": "bytes"
        }
      ],
      "name": "onERC1155BatchReceived",
      "outputs": [
        {
          "internalType": "bytes4",
          "name": "",
          "type": "bytes4"
        }
      ],
      "stateMutability": "pure",
      "type": "function"
    },
    {
      "inputs": [
        {
          "internalType": "address",
          "name": "",
          "type": "address"
        },
        {
          "internalType": "address",
          "name": "",
          "type": "address"
        },
        {
          "internalType": "uint256",
          "name": "",
          "type": "uint256"
        },
        {
          "internalType": "uint256",
          "name": "",
          "type": "uint256"
        },
        {
          "internalType": "bytes",
          "name": "",
          "type": "bytes"
        }
      ],
      "name": "onERC1155Received",
      "outputs": [
        {
          "internalType": "bytes4",
          "name": "",
          "type": "bytes4"
        }
      ],
      "stateMutability": "pure",
      "type": "function"
    },
    {
      "inputs": [
        {
          "internalType": "address",
          "name": "",
          "type": "address"
        },
        {
          "internalType": "address",
          "name": "",
          "type": "address"
        },
        {
          "internalType": "uint256",
          "name": "",
          "type": "uint256"
        },
        {
          "internalType": "bytes",
          "name": "",
          "type": "bytes"
        }
      ],
      "name": "onERC721Received",
      "outputs": [
        {
          "internalType": "bytes4",
          "name": "",
          "type": "bytes4"
        }
      ],
      "stateMutability": "pure",
      "type": "function"
    },
    {
      "inputs": [
        {
          "internalType": "uint256",
          "name": "",
          "type": "uint256"
        }
      ],
      "name": "ownerOf",
      "outputs": [
        {
          "internalType": "address",
          "name": "",
          "type": "address"
        }
      ],
      "stateMutability": "view",
      "type": "function"
    },
    {
      "inputs": [],
      "name": "paused",
      "outputs": [
        {
          "internalType": "bool",
          "name": "",
          "type": "bool"
        }
      ],
      "stateMutability": "view",
      "type": "function"
    },
    {
      "inputs": [],
      "name": "quorum",
      "outputs": [
        {
          "internalType": "uint64",
          "name": "",
          "type": "uint64"
        }
      ],
      "stateMutability": "view",
      "type": "function"
    },
    {
      "inputs": [
        {
          "internalType": "address",
          "name": "from",
          "type": "address"
        },
        {
          "internalType": "address",
          "name": "to",
          "type": "address"
        },
        {
          "internalType": "uint256",
          "name": "id",
          "type": "uint256"
        }
      ],
      "name": "safeTransferFrom",
      "outputs": [],
      "stateMutability": "payable",
      "type": "function"
    },
    {
      "inputs": [
        {
          "internalType": "address",
          "name": "from",
          "type": "address"
        },
        {
          "internalType": "address",
          "name": "to",
          "type": "address"
        },
        {
          "internalType": "uint256",
          "name": "id",
          "type": "uint256"
        },
        {
          "internalType": "bytes",
          "name": "data",
          "type": "bytes"
        }
      ],
      "name": "safeTransferFrom",
      "outputs": [],
      "stateMutability": "payable",
      "type": "function"
    },
    {
      "inputs": [
        {
          "internalType": "address",
          "name": "operator",
          "type": "address"
        },
        {
          "internalType": "bool",
          "name": "approved",
          "type": "bool"
        }
      ],
      "name": "setApprovalForAll",
      "outputs": [],
      "stateMutability": "payable",
      "type": "function"
    },
    {
      "inputs": [
        {
          "internalType": "address",
          "name": "account",
          "type": "address"
        },
        {
          "internalType": "bool",
          "name": "approved",
          "type": "bool"
        }
      ],
      "name": "setGovernor",
      "outputs": [],
      "stateMutability": "payable",
      "type": "function"
    },
    {
      "inputs": [
        {
          "internalType": "bool",
          "name": "paused_",
          "type": "bool"
        }
      ],
      "name": "setSignerPause",
      "outputs": [],
      "stateMutability": "payable",
      "type": "function"
    },
    {
      "inputs": [
        {
          "internalType": "string",
          "name": "baseURI_",
          "type": "string"
        }
      ],
      "name": "setURI",
      "outputs": [],
      "stateMutability": "payable",
      "type": "function"
    },
    {
      "inputs": [
        {
          "internalType": "bytes4",
          "name": "interfaceId",
          "type": "bytes4"
        }
      ],
      "name": "supportsInterface",
      "outputs": [
        {
          "internalType": "bool",
          "name": "",
          "type": "bool"
        }
      ],
      "stateMutability": "pure",
      "type": "function"
    },
    {
      "inputs": [],
      "name": "symbol",
      "outputs": [
        {
          "internalType": "string",
          "name": "",
          "type": "string"
        }
      ],
      "stateMutability": "pure",
      "type": "function"
    },
    {
      "inputs": [
        {
          "internalType": "uint256",
          "name": "id",
          "type": "uint256"
        }
      ],
      "name": "tokenURI",
      "outputs": [
        {
          "internalType": "string",
          "name": "",
          "type": "string"
        }
      ],
      "stateMutability": "view",
      "type": "function"
    },
    {
      "inputs": [],
      "name": "totalSupply",
      "outputs": [
        {
          "internalType": "uint64",
          "name": "",
          "type": "uint64"
        }
      ],
      "stateMutability": "view",
      "type": "function"
    },
    {
      "inputs": [
        {
          "internalType": "address",
          "name": "from",
          "type": "address"
        },
        {
          "internalType": "address",
          "name": "to",
          "type": "address"
        },
        {
          "internalType": "uint256",
          "name": "id",
          "type": "uint256"
        }
      ],
      "name": "transferFrom",
      "outputs": [],
      "stateMutability": "payable",
      "type": "function"
    }
  ],
  "bytecode": {
    "object": "0x60a060405260405162002b2738038062002b2783398101604081905261002491610035565b6001600160a01b0316608052610065565b60006020828403121561004757600080fd5b81516001600160a01b038116811461005e57600080fd5b9392505050565b608051612aa66200008160003960006117290152612aa66000f3fe6080604052600436106101d85760003560e01c806355f52b8e11610102578063affed0e011610095578063ce2c529211610064578063ce2c5292146105a3578063e1667913146105b6578063e985e9c5146105d6578063f23a6e611461061157600080fd5b8063affed0e014610507578063b88d4fde14610528578063bc197c811461053b578063c87b56dd1461058357600080fd5b806370ec42e8116100d157806370ec42e81461048f57806395d89b41146104bf578063a22cb465146104d4578063ac9650d8146104e757600080fd5b806355f52b8e146103ff5780635c975abb146104125780636352211e1461042c57806370a082311461046257600080fd5b80631703a0181161017a57806323b872dd1161014957806323b872dd146103a35780633644e515146103b657806342842e0e146103d95780635160696c146103ec57600080fd5b80631703a0181461030257806318160ddd1461034857806318fb64bb146103705780631d216f3b1461039057600080fd5b806306fdde03116101b657806306fdde031461023a578063081812fc1461025c578063095ea7b3146102aa578063150b7a02146102bd57600080fd5b806301ffc9a7146101dd57806302fe53051461021257806305bf55a614610227575b600080fd5b3480156101e957600080fd5b506101fd6101f8366004612005565b610657565b60405190151581526020015b60405180910390f35b610225610220366004612072565b6106f4565b005b61022561023536600461214e565b61077c565b34801561024657600080fd5b5061024f610aab565b6040516102099190612261565b34801561026857600080fd5b50610292610277366004612274565b6002602052600090815260409020546001600160a01b031681565b6040516001600160a01b039091168152602001610209565b6102256102b83660046122a4565b610add565b3480156102c957600080fd5b506102e96102d83660046122ce565b630a85bd0160e11b95945050505050565b6040516001600160e01b03199091168152602001610209565b34801561030e57600080fd5b5060065461032f9068010000000000000000900467ffffffffffffffff1681565b60405167ffffffffffffffff9091168152602001610209565b34801561035457600080fd5b5060065461032f90600160801b900467ffffffffffffffff1681565b61038361037e36600461233d565b610bb0565b6040516102099190612373565b6101fd61039e3660046123b9565b610d49565b6102256103b1366004612457565b611091565b3480156103c257600080fd5b506103cb611260565b604051908152602001610209565b6102256103e7366004612457565b611284565b6102256103fa366004612493565b611357565b61022561040d3660046124c6565b6113f4565b34801561041e57600080fd5b506004546101fd9060ff1681565b34801561043857600080fd5b50610292610447366004612274565b6001602052600090815260409020546001600160a01b031681565b34801561046e57600080fd5b506103cb61047d3660046124e1565b60006020819052908152604090205481565b34801561049b57600080fd5b506101fd6104aa3660046124e1565b60076020526000908152604090205460ff1681565b3480156104cb57600080fd5b5061024f61143e565b6102256104e2366004612493565b61144a565b6104fa6104f536600461233d565b6114b6565b60405161020991906124fc565b34801561051357600080fd5b5060065461032f9067ffffffffffffffff1681565b6102256105363660046122ce565b61161f565b34801561054757600080fd5b506102e961055636600461255e565b7fbc197c810000000000000000000000000000000000000000000000000000000098975050505050505050565b34801561058f57600080fd5b5061024f61059e366004612274565b6116e2565b6102256105b13660046125f8565b611837565b3480156105c257600080fd5b506103cb6105d1366004612644565b611a21565b3480156105e257600080fd5b506101fd6105f13660046126bb565b600360209081526000928352604080842090915290825290205460ff1681565b34801561061d57600080fd5b506102e961062c3660046126e5565b7ff23a6e61000000000000000000000000000000000000000000000000000000009695505050505050565b60006001600160e01b031982167f01ffc9a70000000000000000000000000000000000000000000000000000000014806106ba57507f80ac58cd000000000000000000000000000000000000000000000000000000006001600160e01b03198316145b806106ee57507f5b5e139f000000000000000000000000000000000000000000000000000000006001600160e01b03198316145b92915050565b33301480159061071457503360009081526007602052604090205460ff16155b1561073257604051631dd2188d60e31b815260040160405180910390fd5b61073e60058383611f56565b507fce29678668382e064e92681c6a47e0a1ccf09464321c9d234842ad54e8c3c3368282604051610770929190612786565b60405180910390a15050565b60065467ffffffffffffffff16156107c0576040517fef34ca5c00000000000000000000000000000000000000000000000000000000815260040160405180910390fd5b836107ca57600080fd5b848411156107eb5760405163c52342a360e01b815260040160405180910390fd5b86156109075760005b87811015610905576108fc898983818110610811576108116127a2565b905060200281019061082391906127b8565b6108319060208101906124e1565b8a8a84818110610843576108436127a2565b905060200281019061085591906127b8565b602001358b8b8581811061086b5761086b6127a2565b905060200281019061087d91906127b8565b61088b9060408101906127d8565b8080601f0160208091040260200160405190810160405280939291908181526020018383808284376000920191909152508f92508e91508790508181106108d4576108d46127a2565b90506020028101906108e691906127b8565b6108f79060808101906060016124c6565b611ae2565b506001016107f4565b505b6006805467ffffffffffffffff19166001179055600080805b87811015610a095788888281811061093a5761093a6127a2565b905060600201602001602081019061095291906124e1565b6001600160a01b0316836001600160a01b0316106109835760405163c90c66b560e01b815260040160405180910390fd5b888882818110610995576109956127a2565b90506060020160200160208101906109ad91906124e1565b92506109fd8989838181106109c4576109c46127a2565b90506060020160200160208101906109dc91906124e1565b8a8a848181106109ee576109ee6127a2565b90506060020160400135611bb2565b60019182019101610920565b506006805467ffffffffffffffff838116600160801b027fffffffffffffffff0000000000000000ffffffffffffffffffffffffffffffff918a166801000000000000000002919091167fffffffffffffffff00000000000000000000000000000000ffffffffffffffff90921691909117179055610a8a60058585611f56565b50610a93611d5f565b600855610a9f85611df4565b50505050505050505050565b6060610ab76000611e3b565b604051602001610ac991815260200190565b604051602081830303815290604052905090565b6000818152600160205260409020546001600160a01b0316338114801590610b2957506001600160a01b038116600090815260036020908152604080832033845290915290205460ff16155b15610b4757604051631dd2188d60e31b815260040160405180910390fd5b600082815260026020526040808220805473ffffffffffffffffffffffffffffffffffffffff19166001600160a01b0387811691821790925591518593918516917f8c5be1e5ebec7d5bd14f71427d1e84f3dd0314c0f7b2291e5b200ac8c7c3b92591a4505050565b6060333014801590610bd257503360009081526007602052604090205460ff16155b15610bf057604051631dd2188d60e31b815260040160405180910390fd5b8167ffffffffffffffff811115610c0957610c0961281f565b604051908082528060200260200182016040528015610c32578160200160208202803683370190505b50905060005b82811015610d4257610d18848483818110610c5557610c556127a2565b9050602002810190610c6791906127b8565b610c759060208101906124e1565b858584818110610c8757610c876127a2565b9050602002810190610c9991906127b8565b60200135868685818110610caf57610caf6127a2565b9050602002810190610cc191906127b8565b610ccf9060408101906127d8565b8080601f0160208091040260200160405190810160405280939291908181526020018383808284376000920191909152508a92508991508790508181106108d4576108d46127a2565b828281518110610d2a57610d2a6127a2565b91151560209283029190910190910152600101610c38565b5092915050565b6006546000908190610d6e908a908a908a908a908a9067ffffffffffffffff16611a21565b60065490915060009068010000000000000000900467ffffffffffffffff16815b8181101561103e576000600185898985818110610dae57610dae6127a2565b610dc49260206060909202019081019150612835565b8a8a86818110610dd657610dd66127a2565b905060600201602001358b8b87818110610df257610df26127a2565b9050606002016040013560405160008152602001604052604051610e32949392919093845260ff9290921660208401526040830152606082015260800190565b6020604051602081039080840390855afa158015610e54573d6000803e3d6000fd5b5050604051601f1901519150506001600160a01b0381163b15610fdf577f1626ba7e000000000000000000000000000000000000000000000000000000006001600160a01b038216631626ba7e878b8b87818110610eb457610eb46127a2565b905060600201602001358c8c88818110610ed057610ed06127a2565b905060600201604001358d8d89818110610eec57610eec6127a2565b610f029260206060909202019081019150612835565b604051602001610f4a93929190928352602083019190915260f81b7fff0000000000000000000000000000000000000000000000000000000000000016604082015260410190565b6040516020818303038152906040526040518363ffffffff1660e01b8152600401610f76929190612858565b602060405180830381865afa158015610f93573d6000803e3d6000fd5b505050506040513d601f19601f82011682018060405250810190610fb79190612871565b6001600160e01b03191614610fdf5760405163c90c66b560e01b815260040160405180910390fd5b6001600160a01b03811660009081526020819052604090205415806110165750806001600160a01b0316846001600160a01b031610155b156110345760405163c90c66b560e01b815260040160405180910390fd5b9250600101610d8f565b506110828b8b8b8b8080601f0160208091040260200160405190810160405280939291908181526020018383808284376000920191909152508d9250611ae2915050565b9b9a5050505050505050505050565b60045460ff16156110ce576040517f9e87fac800000000000000000000000000000000000000000000000000000000815260040160405180910390fd5b6000818152600160205260409020546001600160a01b03848116911614611121576040517f30cd747100000000000000000000000000000000000000000000000000000000815260040160405180910390fd5b6001600160a01b03821661114857604051634e46966960e11b815260040160405180910390fd5b336001600160a01b0384161480159061117857506000818152600260205260409020546001600160a01b03163314155b80156111a857506001600160a01b038316600090815260036020908152604080832033845290915290205460ff16155b156111c657604051631dd2188d60e31b815260040160405180910390fd5b6001600160a01b0380841660008181526020818152604080832080546000190190559386168083528483208054600190810190915586845260028352858420805473ffffffffffffffffffffffffffffffffffffffff199081169091559252848320805490921681179091559251849392917fddf252ad1be2c89b69c2b068fc378daa952ba7f163c4a11628f55a4df523b3ef91a4505050565b600061126a611e5d565b461461127d57611278611d5f565b905090565b5060085490565b61128f838383611091565b6001600160a01b0382163b1561135257604051630a85bd0160e11b8082523360048301526001600160a01b03858116602484015260448301849052608060648401526000608484015290919084169063150b7a029060a4016020604051808303816000875af1158015611306573d6000803e3d6000fd5b505050506040513d601f19601f8201168201806040525081019061132a9190612871565b6001600160e01b0319161461135257604051634e46966960e11b815260040160405180910390fd5b505050565b33301480159061137757503360009081526007602052604090205460ff16155b1561139557604051631dd2188d60e31b815260040160405180910390fd5b6001600160a01b038216600081815260076020908152604091829020805460ff191685151590811790915591519182527ffe08cf1b92a0c45ce7bdd0f10baef4dedff68a9a703c5afa3b34a907a36e6cce910160405180910390a25050565b33301480159061141457503360009081526007602052604090205460ff16155b1561143257604051631dd2188d60e31b815260040160405180910390fd5b61143b81611df4565b50565b6060610ab76020611e3b565b3360008181526003602090815260408083206001600160a01b03871680855290835292819020805460ff191686151590811790915590519081529192917f17307eab39ab6107e8899845ad3d59bd9653f200f220920489ca2b5937696c31910160405180910390a35050565b60608167ffffffffffffffff8111156114d1576114d161281f565b60405190808252806020026020018201604052801561150457816020015b60608152602001906001900390816114ef5790505b50905060005b82811015610d425760008030868685818110611528576115286127a2565b905060200281019061153a91906127d8565b60405161154892919061288e565b600060405180830381855af49150503d8060008114611583576040519150601f19603f3d011682016040523d82523d6000602084013e611588565b606091505b5091509150816115f7576044815110156115a157600080fd5b600481019050808060200190518101906115bb919061289e565b6040517f08c379a00000000000000000000000000000000000000000000000000000000081526004016115ee9190612261565b60405180910390fd5b8084848151811061160a5761160a6127a2565b6020908102919091010152505060010161150a565b61162a858585611091565b6001600160a01b0384163b156116db57604051630a85bd0160e11b808252906001600160a01b0386169063150b7a02906116709033908a9089908990899060040161294b565b6020604051808303816000875af115801561168f573d6000803e3d6000fd5b505050506040513d601f19601f820116820180604052508101906116b39190612871565b6001600160e01b031916146116db57604051634e46966960e11b815260040160405180910390fd5b5050505050565b6060600580546116f19061297e565b90506000036117a0576040517fc87b56dd000000000000000000000000000000000000000000000000000000008152600481018390527f00000000000000000000000000000000000000000000000000000000000000006001600160a01b03169063c87b56dd90602401600060405180830381865afa158015611778573d6000803e3d6000fd5b505050506040513d6000823e601f3d908101601f191682016040526106ee919081019061289e565b600580546117ad9061297e565b80601f01602080910402602001604051908101604052809291908181526020018280546117d99061297e565b80156118265780601f106117fb57610100808354040283529160200191611826565b820191906000526020600020905b81548152906001019060200180831161180957829003601f168201915b50505050509050919050565b919050565b33301480159061185757503360009081526007602052604090205460ff16155b1561187557604051631dd2188d60e31b815260040160405180910390fd5b8061187f57600080fd5b600654600160801b900467ffffffffffffffff1660005b83811015611949578484828181106118b0576118b06127a2565b6118c692602060609092020190810191506124c6565b156119155761190a8585838181106118e0576118e06127a2565b90506060020160200160208101906118f891906124e1565b8686848181106109ee576109ee6127a2565b816001019150611941565b61193985858381811061192a5761192a6127a2565b90506060020160400135611e81565b600019909101905b600101611896565b508082111561196b5760405163c52342a360e01b815260040160405180910390fd5b6006805467ffffffffffffffff838116600160801b027fffffffffffffffff0000000000000000ffffffffffffffffffffffffffffffff9186166801000000000000000002919091167fffffffffffffffff00000000000000000000000000000000ffffffffffffffff909216919091171790556040517f0478dd3ba726bc0761f8c7f40b21c297ee28132545658660defb22734b4dd7e190611a13908690869086906129b8565b60405180910390a150505050565b6000611a2b611260565b7fe32f2ba8b9b3e0864be593c2b91b536294416977b1dc2127f012a2a54cadc395888888888888604051602001611a689796959493929190612a2b565b60405160208183030381529060405280519060200120604051602001611ac09291907f190100000000000000000000000000000000000000000000000000000000000081526002810192909252602282015260420190565b6040516020818303038152906040528051906020012090509695505050505050565b6006805467ffffffffffffffff8082166001011667ffffffffffffffff19909116179055600081611b215760008084516020860187895af19050611b30565b600080845160208601885af490505b80611b67576040517fd6bed87300000000000000000000000000000000000000000000000000000000815260040160405180910390fd5b846001600160a01b03167f4a0de09071d37e2800c1dcc9027a0030cd5202f3a5a766952307470adc640c578585604051611ba2929190612858565b60405180910390a2949350505050565b6001600160a01b038216611bd957604051634e46966960e11b815260040160405180910390fd5b6000818152600160205260409020546001600160a01b031615611c28576040517fddefae2800000000000000000000000000000000000000000000000000000000815260040160405180910390fd5b6001600160a01b03821660008181526020818152604080832080546001908101909155858452909152808220805473ffffffffffffffffffffffffffffffffffffffff19168417905551839291907fddf252ad1be2c89b69c2b068fc378daa952ba7f163c4a11628f55a4df523b3ef908290a46001600160a01b0382163b15611d5b57604051630a85bd0160e11b80825233600483015260006024830181905260448301849052608060648401526084830152906001600160a01b0384169063150b7a029060a4016020604051808303816000875af1158015611d0f573d6000803e3d6000fd5b505050506040513d601f19601f82011682018060405250810190611d339190612871565b6001600160e01b03191614611d5b57604051634e46966960e11b815260040160405180910390fd5b5050565b60007f8b73c3c69bb8fe3d512ecc4cf759cc79239f7b179b0ffacaa9a75d522b39400f611d8a610aab565b80516020918201206040805192830193909352918101919091527fc89efdaa54c0f20c7adf612882df0950f5a951637e0307cdcb4c672f298b8bc660608201524660808201523060a082015260c00160405160208183030381529060405280519060200120905090565b6004805460ff19168215159081179091556040519081527f878ac8a2ca79520471f8f3c8494fa802c03ce3bf034252aad7f22318984fdbdb9060200160405180910390a150565b600080611e52600119368181013560f01c90030190565b929092013592915050565b600080611e74600119368181013560f01c90030190565b6054013560c01c92915050565b6000818152600160205260409020546001600160a01b031680611ed0576040517f4d5e5fb300000000000000000000000000000000000000000000000000000000815260040160405180910390fd5b6001600160a01b038116600081815260208181526040808320805460001901905585835260018252808320805473ffffffffffffffffffffffffffffffffffffffff1990811690915560029092528083208054909216909155518492907fddf252ad1be2c89b69c2b068fc378daa952ba7f163c4a11628f55a4df523b3ef908390a45050565b828054611f629061297e565b90600052602060002090601f016020900481019282611f845760008555611fca565b82601f10611f9d5782800160ff19823516178555611fca565b82800160010185558215611fca579182015b82811115611fca578235825591602001919060010190611faf565b50611fd6929150611fda565b5090565b5b80821115611fd65760008155600101611fdb565b6001600160e01b03198116811461143b57600080fd5b60006020828403121561201757600080fd5b813561202281611fef565b9392505050565b60008083601f84011261203b57600080fd5b50813567ffffffffffffffff81111561205357600080fd5b60208301915083602082850101111561206b57600080fd5b9250929050565b6000806020838503121561208557600080fd5b823567ffffffffffffffff81111561209c57600080fd5b6120a885828601612029565b90969095509350505050565b60008083601f8401126120c657600080fd5b50813567ffffffffffffffff8111156120de57600080fd5b6020830191508360208260051b850101111561206b57600080fd5b60008083601f84011261210b57600080fd5b50813567ffffffffffffffff81111561212357600080fd5b60208301915083602060608302850101111561206b57600080fd5b8035801515811461183257600080fd5b60008060008060008060008060a0898b03121561216a57600080fd5b883567ffffffffffffffff8082111561218257600080fd5b61218e8c838d016120b4565b909a50985060208b01359150808211156121a757600080fd5b6121b38c838d016120f9565b909850965060408b013595508691506121ce60608c0161213e565b945060808b01359150808211156121e457600080fd5b506121f18b828c01612029565b999c989b5096995094979396929594505050565b60005b83811015612220578181015183820152602001612208565b8381111561222f576000848401525b50505050565b6000815180845261224d816020860160208601612205565b601f01601f19169290920160200192915050565b6020815260006120226020830184612235565b60006020828403121561228657600080fd5b5035919050565b80356001600160a01b038116811461183257600080fd5b600080604083850312156122b757600080fd5b6122c08361228d565b946020939093013593505050565b6000806000806000608086880312156122e657600080fd5b6122ef8661228d565b94506122fd6020870161228d565b935060408601359250606086013567ffffffffffffffff81111561232057600080fd5b61232c88828901612029565b969995985093965092949392505050565b6000806020838503121561235057600080fd5b823567ffffffffffffffff81111561236757600080fd5b6120a8858286016120b4565b6020808252825182820181905260009190848201906040850190845b818110156123ad57835115158352928401929184019160010161238f565b50909695505050505050565b600080600080600080600060a0888a0312156123d457600080fd5b6123dd8861228d565b965060208801359550604088013567ffffffffffffffff8082111561240157600080fd5b61240d8b838c01612029565b909750955085915061242160608b0161213e565b945060808a013591508082111561243757600080fd5b506124448a828b016120f9565b989b979a50959850939692959293505050565b60008060006060848603121561246c57600080fd5b6124758461228d565b92506124836020850161228d565b9150604084013590509250925092565b600080604083850312156124a657600080fd5b6124af8361228d565b91506124bd6020840161213e565b90509250929050565b6000602082840312156124d857600080fd5b6120228261213e565b6000602082840312156124f357600080fd5b6120228261228d565b6000602080830181845280855180835260408601915060408160051b870101925083870160005b8281101561255157603f1988860301845261253f858351612235565b94509285019290850190600101612523565b5092979650505050505050565b60008060008060008060008060a0898b03121561257a57600080fd5b6125838961228d565b975061259160208a0161228d565b9650604089013567ffffffffffffffff808211156125ae57600080fd5b6125ba8c838d016120b4565b909850965060608b01359150808211156125d357600080fd5b6125df8c838d016120b4565b909650945060808b01359150808211156121e457600080fd5b60008060006040848603121561260d57600080fd5b833567ffffffffffffffff81111561262457600080fd5b612630868287016120f9565b909790965060209590950135949350505050565b60008060008060008060a0878903121561265d57600080fd5b6126668761228d565b955060208701359450604087013567ffffffffffffffff81111561268957600080fd5b61269589828a01612029565b90955093506126a890506060880161213e565b9150608087013590509295509295509295565b600080604083850312156126ce57600080fd5b6126d78361228d565b91506124bd6020840161228d565b60008060008060008060a087890312156126fe57600080fd5b6127078761228d565b95506127156020880161228d565b94506040870135935060608701359250608087013567ffffffffffffffff81111561273f57600080fd5b61274b89828a01612029565b979a9699509497509295939492505050565b81835281816020850137506000828201602090810191909152601f909101601f19169091010190565b60208152600061279a60208301848661275d565b949350505050565b634e487b7160e01b600052603260045260246000fd5b60008235607e198336030181126127ce57600080fd5b9190910192915050565b6000808335601e198436030181126127ef57600080fd5b83018035915067ffffffffffffffff82111561280a57600080fd5b60200191503681900382131561206b57600080fd5b634e487b7160e01b600052604160045260246000fd5b60006020828403121561284757600080fd5b813560ff8116811461202257600080fd5b82815260406020820152600061279a6040830184612235565b60006020828403121561288357600080fd5b815161202281611fef565b8183823760009101908152919050565b6000602082840312156128b057600080fd5b815167ffffffffffffffff808211156128c857600080fd5b818401915084601f8301126128dc57600080fd5b8151818111156128ee576128ee61281f565b604051601f8201601f19908116603f011681019083821181831017156129165761291661281f565b8160405282815287602084870101111561292f57600080fd5b612940836020830160208801612205565b979650505050505050565b60006001600160a01b0380881683528087166020840152508460408301526080606083015261294060808301848661275d565b600181811c9082168061299257607f821691505b6020821081036129b257634e487b7160e01b600052602260045260246000fd5b50919050565b6040808252818101849052600090606080840187845b88811015612a15576129df8261213e565b1515835260206001600160a01b036129f882850161228d565b1690840152818501358584015291830191908301906001016129ce565b5050809350505050826020830152949350505050565b8781526001600160a01b038716602082015285604082015260c060608201526000612a5a60c08301868861275d565b93151560808301525060a001529594505050505056fea2646970667358221220f0bf4f01f3610103b2899e7ccd25335d49d4f47597a973f4e91129f114b388af64736f6c634300080e0033",
    "linkReferences": {}
  }
}