{
  "abi": [
    {
      "inputs": [
        {
          "internalType": "contract KaliClub",
          "name": "_uriFetcher",
          "type": "address"
        }
      ],
      "stateMutability": "payable",
      "type": "constructor"
    },
    {
      "inputs": [],
      "name": "ALREADY_INIT",
      "type": "error"
    },
    {
      "inputs": [],
      "name": "EXECUTE_FAILED",
      "type": "error"
    },
    {
      "inputs": [],
      "name": "INVALID_RECIPIENT",
      "type": "error"
    },
    {
      "inputs": [],
      "name": "INVALID_SIG",
      "type": "error"
    },
    {
      "inputs": [],
      "name": "LENGTH_MISMATCH",
      "type": "error"
    },
    {
      "inputs": [],
      "name": "NONTRANSFERABLE",
      "type": "error"
    },
    {
      "inputs": [],
      "name": "NOT_AUTHORIZED",
      "type": "error"
    },
    {
      "inputs": [],
      "name": "QUORUM_OVER_SUPPLY",
      "type": "error"
    },
    {
      "inputs": [],
      "name": "UINT192_MAX",
      "type": "error"
    },
    {
      "inputs": [],
      "name": "UINT64_MAX",
      "type": "error"
    },
    {
      "inputs": [],
      "name": "UNDETERMINED",
      "type": "error"
    },
    {
      "anonymous": false,
      "inputs": [
        {
          "indexed": true,
          "internalType": "address",
          "name": "to",
          "type": "address"
        }
      ],
      "name": "AdminSet",
      "type": "event"
    },
    {
      "anonymous": false,
      "inputs": [
        {
          "indexed": true,
          "internalType": "address",
          "name": "owner",
          "type": "address"
        },
        {
          "indexed": true,
          "internalType": "address",
          "name": "operator",
          "type": "address"
        },
        {
          "indexed": false,
          "internalType": "bool",
          "name": "approved",
          "type": "bool"
        }
      ],
      "name": "ApprovalForAll",
      "type": "event"
    },
    {
      "anonymous": false,
      "inputs": [
        {
          "indexed": false,
          "internalType": "enum Operation",
          "name": "op",
          "type": "uint8"
        },
        {
          "indexed": true,
          "internalType": "address",
          "name": "creation",
          "type": "address"
        },
        {
          "indexed": false,
          "internalType": "uint256",
          "name": "value",
          "type": "uint256"
        }
      ],
      "name": "ContractCreated",
      "type": "event"
    },
    {
      "anonymous": false,
      "inputs": [
        {
          "indexed": true,
          "internalType": "address",
          "name": "delegator",
          "type": "address"
        },
        {
          "indexed": true,
          "internalType": "address",
          "name": "fromDelegate",
          "type": "address"
        },
        {
          "indexed": true,
          "internalType": "address",
          "name": "toDelegate",
          "type": "address"
        },
        {
          "indexed": false,
          "internalType": "uint256",
          "name": "id",
          "type": "uint256"
        }
      ],
      "name": "DelegateChanged",
      "type": "event"
    },
    {
      "anonymous": false,
      "inputs": [
        {
          "indexed": true,
          "internalType": "address",
          "name": "delegate",
          "type": "address"
        },
        {
          "indexed": true,
          "internalType": "uint256",
          "name": "id",
          "type": "uint256"
        },
        {
          "indexed": false,
          "internalType": "uint256",
          "name": "previousBalance",
          "type": "uint256"
        },
        {
          "indexed": false,
          "internalType": "uint256",
          "name": "newBalance",
          "type": "uint256"
        }
      ],
      "name": "DelegateVotesChanged",
      "type": "event"
    },
    {
      "anonymous": false,
      "inputs": [
        {
          "indexed": false,
          "internalType": "enum Operation",
          "name": "op",
          "type": "uint8"
        },
        {
          "indexed": true,
          "internalType": "address",
          "name": "to",
          "type": "address"
        },
        {
          "indexed": false,
          "internalType": "uint256",
          "name": "value",
          "type": "uint256"
        },
        {
          "indexed": false,
          "internalType": "bytes",
          "name": "data",
          "type": "bytes"
        }
      ],
      "name": "Executed",
      "type": "event"
    },
    {
      "anonymous": false,
      "inputs": [
        {
          "indexed": true,
          "internalType": "address",
          "name": "caller",
          "type": "address"
        },
        {
          "indexed": true,
          "internalType": "address",
          "name": "to",
          "type": "address"
        },
        {
          "indexed": false,
          "internalType": "bool",
          "name": "approve",
          "type": "bool"
        }
      ],
      "name": "GovernanceSet",
      "type": "event"
    },
    {
      "anonymous": false,
      "inputs": [
        {
          "indexed": true,
          "internalType": "address",
          "name": "caller",
          "type": "address"
        },
        {
          "indexed": false,
          "internalType": "uint64",
          "name": "threshold",
          "type": "uint64"
        }
      ],
      "name": "QuorumSet",
      "type": "event"
    },
    {
      "anonymous": false,
      "inputs": [
        {
          "indexed": true,
          "internalType": "address",
          "name": "operator",
          "type": "address"
        },
        {
          "indexed": true,
          "internalType": "uint256",
          "name": "id",
          "type": "uint256"
        },
        {
          "indexed": false,
          "internalType": "bool",
          "name": "transferability",
          "type": "bool"
        }
      ],
      "name": "TokenTransferabilitySet",
      "type": "event"
    },
    {
      "anonymous": false,
      "inputs": [
        {
          "indexed": true,
          "internalType": "address",
          "name": "operator",
          "type": "address"
        },
        {
          "indexed": true,
          "internalType": "address",
          "name": "from",
          "type": "address"
        },
        {
          "indexed": true,
          "internalType": "address",
          "name": "to",
          "type": "address"
        },
        {
          "indexed": false,
          "internalType": "uint256[]",
          "name": "ids",
          "type": "uint256[]"
        },
        {
          "indexed": false,
          "internalType": "uint256[]",
          "name": "amounts",
          "type": "uint256[]"
        }
      ],
      "name": "TransferBatch",
      "type": "event"
    },
    {
      "anonymous": false,
      "inputs": [
        {
          "indexed": true,
          "internalType": "address",
          "name": "operator",
          "type": "address"
        },
        {
          "indexed": true,
          "internalType": "address",
          "name": "from",
          "type": "address"
        },
        {
          "indexed": true,
          "internalType": "address",
          "name": "to",
          "type": "address"
        },
        {
          "indexed": false,
          "internalType": "uint256",
          "name": "id",
          "type": "uint256"
        },
        {
          "indexed": false,
          "internalType": "uint256",
          "name": "amount",
          "type": "uint256"
        }
      ],
      "name": "TransferSingle",
      "type": "event"
    },
    {
      "anonymous": false,
      "inputs": [
        {
          "indexed": false,
          "internalType": "string",
          "name": "value",
          "type": "string"
        },
        {
          "indexed": true,
          "internalType": "uint256",
          "name": "id",
          "type": "uint256"
        }
      ],
      "name": "URI",
      "type": "event"
    },
    {
      "inputs": [],
      "name": "DOMAIN_SEPARATOR",
      "outputs": [
        {
          "internalType": "bytes32",
          "name": "",
          "type": "bytes32"
        }
      ],
      "stateMutability": "view",
      "type": "function"
    },
    {
      "inputs": [
        {
          "internalType": "address",
          "name": "",
          "type": "address"
        }
      ],
      "name": "admin",
      "outputs": [
        {
          "internalType": "bool",
          "name": "",
          "type": "bool"
        }
      ],
      "stateMutability": "view",
      "type": "function"
    },
    {
      "inputs": [
        {
          "internalType": "address",
          "name": "",
          "type": "address"
        },
        {
          "internalType": "uint256",
          "name": "",
          "type": "uint256"
        }
      ],
      "name": "balanceOf",
      "outputs": [
        {
          "internalType": "uint256",
          "name": "",
          "type": "uint256"
        }
      ],
      "stateMutability": "view",
      "type": "function"
    },
    {
      "inputs": [
        {
          "internalType": "address[]",
          "name": "owners",
          "type": "address[]"
        },
        {
          "internalType": "uint256[]",
          "name": "ids",
          "type": "uint256[]"
        }
      ],
      "name": "balanceOfBatch",
      "outputs": [
        {
          "internalType": "uint256[]",
          "name": "balances",
          "type": "uint256[]"
        }
      ],
      "stateMutability": "view",
      "type": "function"
    },
    {
      "inputs": [
        {
          "components": [
            {
              "internalType": "enum Operation",
              "name": "op",
              "type": "uint8"
            },
            {
              "internalType": "address",
              "name": "to",
              "type": "address"
            },
            {
              "internalType": "uint256",
              "name": "value",
              "type": "uint256"
            },
            {
              "internalType": "bytes",
              "name": "data",
              "type": "bytes"
            }
          ],
          "internalType": "struct Call[]",
          "name": "calls",
          "type": "tuple[]"
        }
      ],
      "name": "batchExecute",
      "outputs": [
        {
          "internalType": "bool[]",
          "name": "successes",
          "type": "bool[]"
        }
      ],
      "stateMutability": "payable",
      "type": "function"
    },
    {
      "inputs": [
        {
          "internalType": "address",
          "name": "from",
          "type": "address"
        },
        {
          "internalType": "uint256",
          "name": "id",
          "type": "uint256"
        },
        {
          "internalType": "uint256",
          "name": "amount",
          "type": "uint256"
        }
      ],
      "name": "burn",
      "outputs": [],
      "stateMutability": "payable",
      "type": "function"
    },
    {
      "inputs": [
        {
          "internalType": "address",
          "name": "from",
          "type": "address"
        }
      ],
      "name": "burnSigner",
      "outputs": [],
      "stateMutability": "payable",
      "type": "function"
    },
    {
      "inputs": [
        {
          "internalType": "address",
          "name": "",
          "type": "address"
        },
        {
          "internalType": "uint256",
          "name": "",
          "type": "uint256"
        },
        {
          "internalType": "uint256",
          "name": "",
          "type": "uint256"
        }
      ],
      "name": "checkpoints",
      "outputs": [
        {
          "internalType": "uint64",
          "name": "fromTimestamp",
          "type": "uint64"
        },
        {
          "internalType": "uint192",
          "name": "votes",
          "type": "uint192"
        }
      ],
      "stateMutability": "view",
      "type": "function"
    },
    {
      "inputs": [
        {
          "internalType": "address",
          "name": "delegatee",
          "type": "address"
        },
        {
          "internalType": "uint256",
          "name": "id",
          "type": "uint256"
        }
      ],
      "name": "delegate",
      "outputs": [],
      "stateMutability": "payable",
      "type": "function"
    },
    {
      "inputs": [
        {
          "internalType": "address",
          "name": "account",
          "type": "address"
        },
        {
          "internalType": "uint256",
          "name": "id",
          "type": "uint256"
        }
      ],
      "name": "delegates",
      "outputs": [
        {
          "internalType": "address",
          "name": "",
          "type": "address"
        }
      ],
      "stateMutability": "view",
      "type": "function"
    },
    {
      "inputs": [
        {
          "internalType": "enum Operation",
          "name": "op",
          "type": "uint8"
        },
        {
          "internalType": "address",
          "name": "to",
          "type": "address"
        },
        {
          "internalType": "uint256",
          "name": "value",
          "type": "uint256"
        },
        {
          "internalType": "bytes",
          "name": "data",
          "type": "bytes"
        },
        {
          "components": [
            {
              "internalType": "uint8",
              "name": "v",
              "type": "uint8"
            },
            {
              "internalType": "bytes32",
              "name": "r",
              "type": "bytes32"
            },
            {
              "internalType": "bytes32",
              "name": "s",
              "type": "bytes32"
            }
          ],
          "internalType": "struct Signature[]",
          "name": "sigs",
          "type": "tuple[]"
        }
      ],
      "name": "execute",
      "outputs": [
        {
          "internalType": "bool",
          "name": "success",
          "type": "bool"
        }
      ],
      "stateMutability": "payable",
      "type": "function"
    },
    {
      "inputs": [
        {
          "internalType": "address",
          "name": "account",
          "type": "address"
        },
        {
          "internalType": "uint256",
          "name": "id",
          "type": "uint256"
        }
      ],
      "name": "getCurrentVotes",
      "outputs": [
        {
          "internalType": "uint256",
          "name": "",
          "type": "uint256"
        }
      ],
      "stateMutability": "view",
      "type": "function"
    },
    {
      "inputs": [
        {
          "internalType": "enum Operation",
          "name": "op",
          "type": "uint8"
        },
        {
          "internalType": "address",
          "name": "to",
          "type": "address"
        },
        {
          "internalType": "uint256",
          "name": "value",
          "type": "uint256"
        },
        {
          "internalType": "bytes",
          "name": "data",
          "type": "bytes"
        },
        {
          "internalType": "uint256",
          "name": "txNonce",
          "type": "uint256"
        }
      ],
      "name": "getDigest",
      "outputs": [
        {
          "internalType": "bytes32",
          "name": "",
          "type": "bytes32"
        }
      ],
      "stateMutability": "view",
      "type": "function"
    },
    {
      "inputs": [
        {
          "internalType": "address",
          "name": "account",
          "type": "address"
        },
        {
          "internalType": "uint256",
          "name": "id",
          "type": "uint256"
        },
        {
          "internalType": "uint256",
          "name": "timestamp",
          "type": "uint256"
        }
      ],
      "name": "getPriorVotes",
      "outputs": [
        {
          "internalType": "uint256",
          "name": "",
          "type": "uint256"
        }
      ],
      "stateMutability": "view",
      "type": "function"
    },
    {
      "inputs": [
        {
          "internalType": "address",
          "name": "",
          "type": "address"
        }
      ],
      "name": "governance",
      "outputs": [
        {
          "internalType": "bool",
          "name": "",
          "type": "bool"
        }
      ],
      "stateMutability": "view",
      "type": "function"
    },
    {
      "inputs": [
        {
          "components": [
            {
              "internalType": "enum Operation",
              "name": "op",
              "type": "uint8"
            },
            {
              "internalType": "address",
              "name": "to",
              "type": "address"
            },
            {
              "internalType": "uint256",
              "name": "value",
              "type": "uint256"
            },
            {
              "internalType": "bytes",
              "name": "data",
              "type": "bytes"
            }
          ],
          "internalType": "struct Call[]",
          "name": "calls",
          "type": "tuple[]"
        },
        {
          "internalType": "address[]",
          "name": "signers",
          "type": "address[]"
        },
        {
          "internalType": "uint256",
          "name": "threshold",
          "type": "uint256"
        }
      ],
      "name": "init",
      "outputs": [],
      "stateMutability": "payable",
      "type": "function"
    },
    {
      "inputs": [
        {
          "internalType": "address",
          "name": "",
          "type": "address"
        },
        {
          "internalType": "address",
          "name": "",
          "type": "address"
        }
      ],
      "name": "isApprovedForAll",
      "outputs": [
        {
          "internalType": "bool",
          "name": "",
          "type": "bool"
        }
      ],
      "stateMutability": "view",
      "type": "function"
    },
    {
      "inputs": [
        {
          "internalType": "address",
          "name": "to",
          "type": "address"
        },
        {
          "internalType": "uint256",
          "name": "id",
          "type": "uint256"
        },
        {
          "internalType": "uint256",
          "name": "amount",
          "type": "uint256"
        },
        {
          "internalType": "bytes",
          "name": "data",
          "type": "bytes"
        }
      ],
      "name": "mint",
      "outputs": [],
      "stateMutability": "payable",
      "type": "function"
    },
    {
      "inputs": [
        {
          "internalType": "address",
          "name": "to",
          "type": "address"
        }
      ],
      "name": "mintSigner",
      "outputs": [],
      "stateMutability": "payable",
      "type": "function"
    },
    {
      "inputs": [
        {
          "internalType": "bytes[]",
          "name": "data",
          "type": "bytes[]"
        }
      ],
      "name": "multicall",
      "outputs": [
        {
          "internalType": "bytes[]",
          "name": "results",
          "type": "bytes[]"
        }
      ],
      "stateMutability": "payable",
      "type": "function"
    },
    {
      "inputs": [],
      "name": "nonce",
      "outputs": [
        {
          "internalType": "uint64",
          "name": "",
          "type": "uint64"
        }
      ],
      "stateMutability": "view",
      "type": "function"
    },
    {
      "inputs": [
        {
          "internalType": "address",
          "name": "",
          "type": "address"
        },
        {
          "internalType": "uint256",
          "name": "",
          "type": "uint256"
        }
      ],
      "name": "numCheckpoints",
      "outputs": [
        {
          "internalType": "uint256",
          "name": "",
          "type": "uint256"
        }
      ],
      "stateMutability": "view",
      "type": "function"
    },
    {
      "inputs": [
        {
          "internalType": "address",
          "name": "",
          "type": "address"
        },
        {
          "internalType": "address",
          "name": "",
          "type": "address"
        },
        {
          "internalType": "uint256[]",
          "name": "",
          "type": "uint256[]"
        },
        {
          "internalType": "uint256[]",
          "name": "",
          "type": "uint256[]"
        },
        {
          "internalType": "bytes",
          "name": "",
          "type": "bytes"
        }
      ],
      "name": "onERC1155BatchReceived",
      "outputs": [
        {
          "internalType": "bytes4",
          "name": "",
          "type": "bytes4"
        }
      ],
      "stateMutability": "pure",
      "type": "function"
    },
    {
      "inputs": [
        {
          "internalType": "address",
          "name": "",
          "type": "address"
        },
        {
          "internalType": "address",
          "name": "",
          "type": "address"
        },
        {
          "internalType": "uint256",
          "name": "",
          "type": "uint256"
        },
        {
          "internalType": "uint256",
          "name": "",
          "type": "uint256"
        },
        {
          "internalType": "bytes",
          "name": "",
          "type": "bytes"
        }
      ],
      "name": "onERC1155Received",
      "outputs": [
        {
          "internalType": "bytes4",
          "name": "",
          "type": "bytes4"
        }
      ],
      "stateMutability": "pure",
      "type": "function"
    },
    {
      "inputs": [
        {
          "internalType": "address",
          "name": "",
          "type": "address"
        },
        {
          "internalType": "address",
          "name": "",
          "type": "address"
        },
        {
          "internalType": "uint256",
          "name": "",
          "type": "uint256"
        },
        {
          "internalType": "bytes",
          "name": "",
          "type": "bytes"
        }
      ],
      "name": "onERC721Received",
      "outputs": [
        {
          "internalType": "bytes4",
          "name": "",
          "type": "bytes4"
        }
      ],
      "stateMutability": "pure",
      "type": "function"
    },
    {
      "inputs": [],
      "name": "quorum",
      "outputs": [
        {
          "internalType": "uint64",
          "name": "",
          "type": "uint64"
        }
      ],
      "stateMutability": "view",
      "type": "function"
    },
    {
      "inputs": [
        {
          "internalType": "address",
          "name": "from",
          "type": "address"
        },
        {
          "internalType": "address",
          "name": "to",
          "type": "address"
        },
        {
          "internalType": "uint256[]",
          "name": "ids",
          "type": "uint256[]"
        },
        {
          "internalType": "uint256[]",
          "name": "amounts",
          "type": "uint256[]"
        },
        {
          "internalType": "bytes",
          "name": "data",
          "type": "bytes"
        }
      ],
      "name": "safeBatchTransferFrom",
      "outputs": [],
      "stateMutability": "payable",
      "type": "function"
    },
    {
      "inputs": [
        {
          "internalType": "address",
          "name": "from",
          "type": "address"
        },
        {
          "internalType": "address",
          "name": "to",
          "type": "address"
        },
        {
          "internalType": "uint256",
          "name": "id",
          "type": "uint256"
        },
        {
          "internalType": "uint256",
          "name": "amount",
          "type": "uint256"
        },
        {
          "internalType": "bytes",
          "name": "data",
          "type": "bytes"
        }
      ],
      "name": "safeTransferFrom",
      "outputs": [],
      "stateMutability": "payable",
      "type": "function"
    },
    {
      "inputs": [
        {
          "internalType": "address",
          "name": "to",
          "type": "address"
        }
      ],
      "name": "setAdmin",
      "outputs": [],
      "stateMutability": "payable",
      "type": "function"
    },
    {
      "inputs": [
        {
          "internalType": "address",
          "name": "operator",
          "type": "address"
        },
        {
          "internalType": "bool",
          "name": "approved",
          "type": "bool"
        }
      ],
      "name": "setApprovalForAll",
      "outputs": [],
      "stateMutability": "payable",
      "type": "function"
    },
    {
      "inputs": [
        {
          "internalType": "address",
          "name": "to",
          "type": "address"
        },
        {
          "internalType": "bool",
          "name": "approve",
          "type": "bool"
        }
      ],
      "name": "setGovernance",
      "outputs": [],
      "stateMutability": "payable",
      "type": "function"
    },
    {
      "inputs": [
        {
          "internalType": "uint64",
          "name": "threshold",
          "type": "uint64"
        }
      ],
      "name": "setQuorum",
      "outputs": [],
      "stateMutability": "payable",
      "type": "function"
    },
    {
      "inputs": [
        {
          "internalType": "uint256",
          "name": "id",
          "type": "uint256"
        },
        {
          "internalType": "bool",
          "name": "transferability",
          "type": "bool"
        }
      ],
      "name": "setTokenTransferability",
      "outputs": [],
      "stateMutability": "payable",
      "type": "function"
    },
    {
      "inputs": [
        {
          "internalType": "uint256",
          "name": "id",
          "type": "uint256"
        },
        {
          "internalType": "string",
          "name": "tokenURI",
          "type": "string"
        }
      ],
      "name": "setTokenURI",
      "outputs": [],
      "stateMutability": "payable",
      "type": "function"
    },
    {
      "inputs": [
        {
          "internalType": "bytes4",
          "name": "interfaceId",
          "type": "bytes4"
        }
      ],
      "name": "supportsInterface",
      "outputs": [
        {
          "internalType": "bool",
          "name": "",
          "type": "bool"
        }
      ],
      "stateMutability": "view",
      "type": "function"
    },
    {
      "inputs": [],
      "name": "totalSupply",
      "outputs": [
        {
          "internalType": "uint128",
          "name": "",
          "type": "uint128"
        }
      ],
      "stateMutability": "view",
      "type": "function"
    },
    {
      "inputs": [
        {
          "internalType": "uint256",
          "name": "",
          "type": "uint256"
        }
      ],
      "name": "transferable",
      "outputs": [
        {
          "internalType": "bool",
          "name": "",
          "type": "bool"
        }
      ],
      "stateMutability": "view",
      "type": "function"
    },
    {
      "inputs": [
        {
          "internalType": "uint256",
          "name": "id",
          "type": "uint256"
        }
      ],
      "name": "uri",
      "outputs": [
        {
          "internalType": "string",
          "name": "",
          "type": "string"
        }
      ],
      "stateMutability": "view",
      "type": "function"
    }
  ],
  "bytecode": {
    "object": "0x60a060405260405162003d2738038062003d27833981016040819052620000269162000038565b6001600160a01b03166080526200006a565b6000602082840312156200004b57600080fd5b81516001600160a01b03811681146200006357600080fd5b9392505050565b608051613ca1620000866000396000610bfa0152613ca16000f3fe6080604052600436106102845760003560e01c8063731133e911610153578063affed0e0116100cb578063e985e9c51161007f578063f242432a11610064578063f242432a146107ea578063f4c3b4d7146107fd578063f5298aca1461082d57600080fd5b8063e985e9c514610782578063f23a6e61146107bd57600080fd5b8063bc197c81116100b0578063bc197c8114610720578063c590e89f1461074f578063d4606ab91461076257600080fd5b8063affed0e0146106ec578063b2839f5e1461070d57600080fd5b80638585c94511610122578063a22cb46511610107578063a22cb46514610681578063ac9650d814610694578063afa88bca146106b457600080fd5b80638585c9451461065b5780638c995b911461066e57600080fd5b8063731133e9146105d8578063807df56d146105eb578063836eebee1461060b5780638426e6c11461062b57600080fd5b806318160ddd116102015780634e1273f4116101b557806357ac01ad1161019a57806357ac01ad1461058257806363a846f814610595578063704b6c02146105c557600080fd5b80634e1273f41461054257806354d7926f1461056f57600080fd5b80632eb2c2d6116101e65780632eb2c2d6146104985780633644e515146104ab578063387bbabd146104c057600080fd5b806318160ddd1461040f57806327dd1b001461046057600080fd5b80630e89341c11610258578063158a1ca11161023d578063158a1ca1146103a8578063162094c4146103bb5780631703a018146103ce57600080fd5b80630e89341c14610336578063150b7a021461036357600080fd5b8062fdd58e1461028957806301ffc9a7146102d1578063023e8d8414610301578063026e402b14610321575b600080fd5b34801561029557600080fd5b506102be6102a4366004612eec565b600060208181529281526040808220909352908152205481565b6040519081526020015b60405180910390f35b3480156102dd57600080fd5b506102f16102ec366004612f2f565b610840565b60405190151581526020016102c8565b61031461030f366004612f98565b61089f565b6040516102c89190612fda565b61033461032f366004612eec565b610a7a565b005b34801561034257600080fd5b50610356610351366004613020565b610b3d565b6040516102c89190613091565b34801561036f57600080fd5b5061038f61037e3660046130e6565b630a85bd0160e11b95945050505050565b6040516001600160e01b031990911681526020016102c8565b6103346103b6366004613165565b610c7e565b6103346103c9366004613198565b610d3a565b3480156103da57600080fd5b506006546103f690600160401b900467ffffffffffffffff1681565b60405167ffffffffffffffff90911681526020016102c8565b34801561041b57600080fd5b5060065461043f90600160801b90046fffffffffffffffffffffffffffffffff1681565b6040516fffffffffffffffffffffffffffffffff90911681526020016102c8565b34801561046c57600080fd5b5061048061047b366004612eec565b610ded565b6040516001600160a01b0390911681526020016102c8565b6103346104a63660046131e4565b610e2b565b3480156104b757600080fd5b506102be6110e5565b3480156104cc57600080fd5b5061051a6104db36600461329f565b600560209081526000938452604080852082529284528284209052825290205467ffffffffffffffff811690600160401b90046001600160c01b031682565b6040805167ffffffffffffffff90931683526001600160c01b039091166020830152016102c8565b34801561054e57600080fd5b5061056261055d3660046132d2565b6111c0565b6040516102c8919061333e565b61033461057d366004613376565b6112d4565b610334610590366004613399565b611380565b3480156105a157600080fd5b506102f16105b0366004613399565b60086020526000908152604090205460ff1681565b6103346105d3366004613399565b6114bf565b6103346105e63660046133b4565b61152b565b3480156105f757600080fd5b506102be610606366004612eec565b6115a3565b34801561061757600080fd5b506102be61062636600461329f565b611627565b34801561063757600080fd5b506102f1610646366004613399565b60096020526000908152604090205460ff1681565b6103346106693660046133ff565b61186b565b6102f161067c366004613438565b611983565b61033461068f366004613165565b611ce3565b6106a76106a2366004612f98565b611d48565b6040516102c89190613503565b3480156106c057600080fd5b506102be6106cf366004612eec565b600460209081526000928352604080842090915290825290205481565b3480156106f857600080fd5b506006546103f69067ffffffffffffffff1681565b61033461071b366004613399565b611eb1565b34801561072c57600080fd5b5061038f61073b3660046131e4565b63bc197c8160e01b98975050505050505050565b61033461075d366004613565565b611f98565b34801561076e57600080fd5b506102be61077d3660046135d9565b6122cd565b34801561078e57600080fd5b506102f161079d366004613650565b600160209081526000928352604080842090915290825290205460ff1681565b3480156107c957600080fd5b5061038f6107d836600461367a565b63f23a6e6160e01b9695505050505050565b6103346107f836600461367a565b61238e565b34801561080957600080fd5b506102f1610818366004613020565b60026020526000908152604090205460ff1681565b61033461083b36600461329f565b6125bf565b60006001600160e01b03198216630a85bd0160e11b148061088a57507f4e2312e0000000000000000000000000000000000000000000000000000000006001600160e01b03198316145b80610899575061089982612673565b92915050565b60603330148015906108c157503360009081526009602052604090205460ff16155b80156108dd57503360009081526008602052604090205460ff16155b156108fb57604051633d83866f60e01b815260040160405180910390fd5b8167ffffffffffffffff811115610914576109146136f2565b60405190808252806020026020018201604052801561093d578160200160208202803683370190505b50905060005b82811015610a7357610a4984848381811061096057610960613708565b9050602002810190610972919061371e565b61098090602081019061373e565b85858481811061099257610992613708565b90506020028101906109a4919061371e565b6109b5906040810190602001613399565b8686858181106109c7576109c7613708565b90506020028101906109d9919061371e565b604001358787868181106109ef576109ef613708565b9050602002810190610a01919061371e565b610a0f906060810190613759565b8080601f0160208091040260200160405190810160405280939291908181526020018383808284376000920191909152506126f392505050565b828281518110610a5b57610a5b613708565b91151560209283029190910190910152600101610943565b5092915050565b6000610a863383610ded565b33600081815260036020908152604080832087845282529182902080547fffffffffffffffffffffffff0000000000000000000000000000000000000000166001600160a01b038981169182179092559251878152949550919391851692917f287e04de574701d97a55bd9ea85b32defecf76a607b8007ee9ae8c126bf7a746910160405180910390a433600090815260208181526040808320858452909152902054610b3890829085908590612919565b505050565b6000818152600a6020526040812080546060929190610b5b906137a0565b80601f0160208091040260200160405190810160405280929190818152602001828054610b87906137a0565b8015610bd45780601f10610ba957610100808354040283529160200191610bd4565b820191906000526020600020905b815481529060010190602001808311610bb757829003601f168201915b505050505090508051600003610899576040516303a24d0760e21b8152600481018490527f00000000000000000000000000000000000000000000000000000000000000006001600160a01b031690630e89341c90602401600060405180830381865afa158015610c49573d6000803e3d6000fd5b505050506040513d6000823e601f3d908101601f19168201604052610c7191908101906137d4565b9392505050565b50919050565b333014801590610c9e57503360009081526009602052604090205460ff16155b8015610cba57503360009081526008602052604090205460ff16155b15610cd857604051633d83866f60e01b815260040160405180910390fd5b6001600160a01b038216600081815260096020908152604091829020805460ff1916851515908117909155915191825233917f4a095fd4c00c15af45ad40f2fcb94a1066f92e52d9fa4b0be820fab3dfdf665d91015b60405180910390a35050565b333014801590610d5a57503360009081526009602052604090205460ff16155b8015610d7657503360009081526008602052604090205460ff16155b15610d9457604051633d83866f60e01b815260040160405180910390fd5b6000838152600a60205260409020610dad8284836138c7565b50827f6bb7ff708619ba0610cba295a58592e0451dee2622938c8755667688daf3529b8383604051610de09291906139b0565b60405180910390a2505050565b6001600160a01b0380831660009081526003602090815260408083208584529091528120549091168015610e215780610e23565b835b949350505050565b848314610e4b5760405163899ef10d60e01b815260040160405180910390fd5b336001600160a01b03891614801590610e8857506001600160a01b038816600090815260016020908152604080832033845290915290205460ff16155b15610ea657604051633d83866f60e01b815260040160405180910390fd5b60008060005b87811015610fb557888882818110610ec657610ec6613708565b905060200201359250868682818110610ee157610ee1613708565b6000868152600260209081526040909120549102929092013593505060ff16610f1d57604051634f8cca5b60e11b815260040160405180910390fd5b6001600160a01b038b1660009081526020818152604080832086845290915281208054849290610f4e9084906139da565b90915550506001600160a01b038a1660009081526020818152604080832086845290915281208054849290610f849084906139f1565b90915550508215610fad57610fad610f9c8c85610ded565b610fa68c86610ded565b8585612919565b600101610eac565b50886001600160a01b03168a6001600160a01b0316336001600160a01b03167f4a39dc06d4c0dbc64b70af90fd698a233a518aa5d07e595d983b8c0526c8f7fb8b8b8b8b6040516110099493929190613a58565b60405180910390a46001600160a01b0389163b156110af5760405163bc197c8160e01b808252906001600160a01b038b169063bc197c819061105d9033908f908e908e908e908e908e908e90600401613a7f565b602060405180830381865afa15801561107a573d6000803e3d6000fd5b505050506040513d601f19601f8201168201806040525081019061109e9190613ad4565b6001600160e01b03191614156110bb565b6001600160a01b038916155b156110d95760405163290802d360e11b815260040160405180910390fd5b50505050505050505050565b60003660011981013560f01c90036003013546146111b95750604080518082018252600881526725b0b634a1b63ab160c11b60209182015281517f8b73c3c69bb8fe3d512ecc4cf759cc79239f7b179b0ffacaa9a75d522b39400f818301527f5b5b1483404ac93e4d9b025a8feb4c5ea9304085ab2e513c578af4cec7eb5319818401527fc89efdaa54c0f20c7adf612882df0950f5a951637e0307cdcb4c672f298b8bc660608201524660808201523060a0808301919091528351808303909101815260c0909101909252815191012090565b5060075490565b60608382146111e25760405163899ef10d60e01b815260040160405180910390fd5b8367ffffffffffffffff8111156111fb576111fb6136f2565b604051908082528060200260200182016040528015611224578160200160208202803683370190505b50905060005b848110156112cb5760008087878481811061124757611247613708565b905060200201602081019061125c9190613399565b6001600160a01b03166001600160a01b03168152602001908152602001600020600085858481811061129057611290613708565b905060200201358152602001908152602001600020548282815181106112b8576112b8613708565b602090810291909101015260010161122a565b50949350505050565b3330148015906112f457503360009081526009602052604090205460ff16155b801561131057503360009081526008602052604090205460ff16155b1561132e57604051633d83866f60e01b815260040160405180910390fd5b600082815260026020908152604091829020805460ff19168415159081179091559151918252839133917f92d6650e3daf0c48674c410d3d8a281fe4d48a5a2236fe505d38e4da211200879101610d2e565b3330148015906113a057503360009081526009602052604090205460ff16155b80156113bc57503360009081526008602052604090205460ff16155b156113da57604051633d83866f60e01b815260040160405180910390fd5b6001600160a01b0381166000908152602081815260408083208380529091528120805490919061140990613af1565b90915550600680546fffffffffffffffffffffffffffffffff808216600160801b9283900482166000190182168302179283905590820416600160401b90910467ffffffffffffffff16111561147257604051631534858160e01b815260040160405180910390fd5b60408051600080825260016020830152916001600160a01b0384169133917fc3d58168c5ae7397731d063d5bbf3d657854427343f4c083240f7aacaa2d0f6291015b60405180910390a450565b3330146114df57604051633d83866f60e01b815260040160405180910390fd5b6001600160a01b038116600081815260086020526040808220805460ff19166001179055517f8fe72c3e0020beb3234e76ae6676fa576fbfcae600af1c4fea44784cf0db329c9190a250565b33301480159061154b57503360009081526009602052604090205460ff16155b801561156757503360009081526008602052604090205460ff16155b1561158557604051633d83866f60e01b815260040160405180910390fd5b8361158f57600080fd5b61159c8585858585612aab565b5050505050565b6001600160a01b03821660009081526004602090815260408083208484529091528120548082036115d5576000611616565b6001600160a01b0384166000908152600560209081526040808320868452825280832060001985018452909152902054600160401b90046001600160c01b03165b6001600160c01b0316949350505050565b6000814211611662576040517f83aace3d00000000000000000000000000000000000000000000000000000000815260040160405180910390fd5b6001600160a01b038416600090815260046020908152604080832086845290915281205490819003611698576000915050610c71565b6001600160a01b038516600090815260056020908152604080832087845282528083206000198501845290915290205467ffffffffffffffff168310611720576001600160a01b03851660009081526005602090815260408083208784528252808320600019909401835292905220546001600160c01b03600160401b909104169050610c71565b6001600160a01b0385166000908152600560209081526040808320878452825280832083805290915290205467ffffffffffffffff16831015611767576000915050610c71565b600060001982015b81811115611825576001600160a01b0387166000908152600560209081526040808320898452825280832060028686030485038085529083529281902081518083019092525467ffffffffffffffff8116808352600160401b9091046001600160c01b031692820192909252908790036117fc57602001516001600160c01b03169450610c719350505050565b805167ffffffffffffffff168711156118175781935061181e565b6001820392505b505061176f565b506001600160a01b038616600090815260056020908152604080832088845282528083209383529290522054600160401b90046001600160c01b03169150509392505050565b33301480159061188b57503360009081526009602052604090205460ff16155b80156118a757503360009081526008602052604090205460ff16155b156118c557604051633d83866f60e01b815260040160405180910390fd5b600654600160801b90046fffffffffffffffffffffffffffffffff1667ffffffffffffffff8216111561190b57604051631534858160e01b815260040160405180910390fd5b600680547fffffffffffffffffffffffffffffffff0000000000000000ffffffffffffffff16600160401b67ffffffffffffffff84169081029190911790915560405190815233907f54e7ed672a68dee1fe4f4da8b306a8318894dd65c07123309467447ed34b1aa19060200160405180910390a250565b60065460009081906119a8908a908a908a908a908a9067ffffffffffffffff166122cd565b600654909150600090600160401b900467ffffffffffffffff16815b81811015611c915760006001858989858181106119e3576119e3613708565b6119f99260206060909202019081019150613b08565b8a8a86818110611a0b57611a0b613708565b905060600201602001358b8b87818110611a2757611a27613708565b9050606002016040013560405160008152602001604052604051611a67949392919093845260ff9290921660208401526040830152606082015260800190565b6020604051602081039080840390855afa158015611a89573d6000803e3d6000fd5b5050604051601f1901519150506001600160a01b0381163b15611c14577f1626ba7e000000000000000000000000000000000000000000000000000000006001600160a01b038216631626ba7e878b8b87818110611ae957611ae9613708565b905060600201602001358c8c88818110611b0557611b05613708565b905060600201604001358d8d89818110611b2157611b21613708565b611b379260206060909202019081019150613b08565b604051602001611b7f93929190928352602083019190915260f81b7fff0000000000000000000000000000000000000000000000000000000000000016604082015260410190565b6040516020818303038152906040526040518363ffffffff1660e01b8152600401611bab929190613b2b565b602060405180830381865afa158015611bc8573d6000803e3d6000fd5b505050506040513d601f19601f82011682018060405250810190611bec9190613ad4565b6001600160e01b03191614611c1457604051633ba7c2c960e21b815260040160405180910390fd5b6001600160a01b0381166000908152602081815260408083208380529091528120549003611c5557604051633ba7c2c960e21b815260040160405180910390fd5b806001600160a01b0316846001600160a01b031610611c8757604051633ba7c2c960e21b815260040160405180910390fd5b92506001016119c4565b50611cd48b8b8b8b8b8080601f0160208091040260200160405190810160405280939291908181526020018383808284376000920191909152506126f392505050565b9b9a5050505050505050505050565b3360008181526001602090815260408083206001600160a01b03871680855290835292819020805460ff191686151590811790915590519081529192917f17307eab39ab6107e8899845ad3d59bd9653f200f220920489ca2b5937696c319101610d2e565b60608167ffffffffffffffff811115611d6357611d636136f2565b604051908082528060200260200182016040528015611d9657816020015b6060815260200190600190039081611d815790505b50905060005b82811015610a735760008030868685818110611dba57611dba613708565b9050602002810190611dcc9190613759565b604051611dda929190613b44565b600060405180830381855af49150503d8060008114611e15576040519150601f19603f3d011682016040523d82523d6000602084013e611e1a565b606091505b509150915081611e8957604481511015611e3357600080fd5b60048101905080806020019051810190611e4d91906137d4565b6040517f08c379a0000000000000000000000000000000000000000000000000000000008152600401611e809190613091565b60405180910390fd5b80848481518110611e9c57611e9c613708565b60209081029190910101525050600101611d9c565b333014801590611ed157503360009081526009602052604090205460ff16155b8015611eed57503360009081526008602052604090205460ff16155b15611f0b57604051633d83866f60e01b815260040160405180910390fd5b6001600160a01b03811660008181526020818152604080832083805290915280822080546001908101909155600680546fffffffffffffffffffffffffffffffff600160801b808304821685018216029116179055905133917fc3d58168c5ae7397731d063d5bbf3d657854427343f4c083240f7aacaa2d0f62916114b491858252602082015260400190565b60065467ffffffffffffffff1615611fdc576040517fb2c6f10f00000000000000000000000000000000000000000000000000000000815260040160405180910390fd5b80611fe657600080fd5b8181111561200757604051631534858160e01b815260040160405180910390fd5b83156120c75760005b848110156120c5576120bc86868381811061202d5761202d613708565b905060200281019061203f919061371e565b61204d90602081019061373e565b87878481811061205f5761205f613708565b9050602002810190612071919061371e565b612082906040810190602001613399565b88888581811061209457612094613708565b90506020028101906120a6919061371e565b604001358989868181106109ef576109ef613708565b50600101612010565b505b6000806000805b858110156121a3578686828181106120e8576120e8613708565b90506020020160208101906120fd9190613399565b9350836001600160a01b0316836001600160a01b03161061213157604051633ba7c2c960e21b815260040160405180910390fd5b6001600160a01b038416600081815260208181526040808320838052825280832080546001908101909155815184815292830181905281518998509681019695019433927fc3d58168c5ae7397731d063d5bbf3d657854427343f4c083240f7aacaa2d0f6292908290030190a46120ce565b50600680546fffffffffffffffffffffffffffffffff808416600160801b0267ffffffffffffffff8816600160401b027fffffffffffffffffffffffffffffffff0000000000000000000000000000000090931692909217600117161790556122c0604080518082018252600881526725b0b634a1b63ab160c11b60209182015281517f8b73c3c69bb8fe3d512ecc4cf759cc79239f7b179b0ffacaa9a75d522b39400f818301527f5b5b1483404ac93e4d9b025a8feb4c5ea9304085ab2e513c578af4cec7eb5319818401527fc89efdaa54c0f20c7adf612882df0950f5a951637e0307cdcb4c672f298b8bc660608201524660808201523060a0808301919091528351808303909101815260c0909101909252815191012090565b6007555050505050505050565b60006122d76110e5565b7f93a4f3ad100766ac785e9e2986ae4f906eea3a67ef943c27112979356b418b358888888888886040516020016123149796959493929190613b8c565b6040516020818303038152906040528051906020012060405160200161236c9291907f190100000000000000000000000000000000000000000000000000000000000081526002810192909252602282015260420190565b6040516020818303038152906040528051906020012090509695505050505050565b336001600160a01b038716148015906123cb57506001600160a01b038616600090815260016020908152604080832033845290915290205460ff16155b156123e957604051633d83866f60e01b815260040160405180910390fd5b60008481526002602052604090205460ff1661241857604051634f8cca5b60e11b815260040160405180910390fd5b6001600160a01b038616600090815260208181526040808320878452909152812080548592906124499084906139da565b90915550506001600160a01b0385166000908152602081815260408083208784529091528120805485929061247f9084906139f1565b909155505060408051858152602081018590526001600160a01b03808816929089169133917fc3d58168c5ae7397731d063d5bbf3d657854427343f4c083240f7aacaa2d0f62910160405180910390a46001600160a01b0385163b156125695760405163f23a6e6160e01b808252906001600160a01b0387169063f23a6e61906125179033908b908a908a908a908a90600401613bdc565b602060405180830381865afa158015612534573d6000803e3d6000fd5b505050506040513d601f19601f820116820180604052508101906125589190613ad4565b6001600160e01b0319161415612575565b6001600160a01b038516155b156125935760405163290802d360e11b815260040160405180910390fd5b83156125b7576125b76125a68786610ded565b6125b08787610ded565b8686612919565b505050505050565b816125c957600080fd5b336001600160a01b0384161480159061260657506001600160a01b038316600090815260016020908152604080832033845290915290205460ff16155b80156126125750333014155b801561262e57503360009081526009602052604090205460ff16155b801561264a57503360009081526008602052604090205460ff16155b1561266857604051633d83866f60e01b815260040160405180910390fd5b610b38838383612bfe565b60006001600160e01b031982167f01ffc9a70000000000000000000000000000000000000000000000000000000014806126d657507fd9b67a26000000000000000000000000000000000000000000000000000000006001600160e01b03198316145b806108995750506001600160e01b0319166303a24d0760e21b1490565b6006805467ffffffffffffffff8082166001011667ffffffffffffffff1990911617905560008085600381111561272c5761272c613b54565b036127a85760008083516020850186885af190508061275e57604051633c47f9b560e21b815260040160405180910390fd5b836001600160a01b03167ffa3c55dc43f5cfdeb2abee243c63ad490db2fee39fd127076ed9e7afa15ad63886858560405161279b93929190613c21565b60405180910390a2610e23565b60018560038111156127bc576127bc613b54565b036127ed57600080835160208501875af490508061275e57604051633c47f9b560e21b815260040160405180910390fd5b600285600381111561280157612801613b54565b0361288257600082516020840185f090506001600160a01b03811661283957604051633c47f9b560e21b815260040160405180910390fd5b806001600160a01b03167fd187b7c22150909fa5ee0d652f5966e66148500fabe5615b1079e7ef39fe3fb78786604051612874929190613c50565b60405180910390a250610e23565b6000808560601b6bffffffffffffffffffffffff191690508084518560200187f591506001600160a01b0382166128cc57604051633c47f9b560e21b815260040160405180910390fd5b816001600160a01b03167fd187b7c22150909fa5ee0d652f5966e66148500fabe5615b1079e7ef39fe3fb78887604051612907929190613c50565b60405180910390a25050949350505050565b826001600160a01b0316846001600160a01b03161415801561293a57508015155b15612aa5576001600160a01b038416156129f6576001600160a01b0384166000908152600460209081526040808320858452909152812054908181036129815760006129d2565b6001600160a01b03861660009081526005602090815260408083208784529091528120906129b06001856139da565b8152602081019190915260400160002054600160401b90046001600160c01b03165b6001600160c01b031690506129f3868584846129ee88826139da565b612c93565b50505b6001600160a01b03831615612aa5576001600160a01b038316600090815260046020908152604080832085845290915281205490818103612a38576000612a89565b6001600160a01b0385166000908152600560209081526040808320878452909152812090612a676001856139da565b8152602081019190915260400160002054600160401b90046001600160c01b03165b6001600160c01b031690506125b7858584846129ee88826139f1565b50505050565b6001600160a01b03851660009081526020818152604080832087845290915281208054859290612adc9084906139f1565b909155505060408051858152602081018590526001600160a01b0387169160009133917fc3d58168c5ae7397731d063d5bbf3d657854427343f4c083240f7aacaa2d0f62910160405180910390a46001600160a01b0385163b15612bc55760405163f23a6e6160e01b808252906001600160a01b0387169063f23a6e6190612b739033906000908a908a908a908a90600401613bdc565b602060405180830381865afa158015612b90573d6000803e3d6000fd5b505050506040513d601f19601f82011682018060405250810190612bb49190613ad4565b6001600160e01b0319161415612bd1565b6001600160a01b038516155b15612bef5760405163290802d360e11b815260040160405180910390fd5b61159c60006125b08787610ded565b6001600160a01b03831660009081526020818152604080832085845290915281208054839290612c2f9084906139da565b909155505060408051838152602081018390526000916001600160a01b0386169133917fc3d58168c5ae7397731d063d5bbf3d657854427343f4c083240f7aacaa2d0f62910160405180910390a4610b38612c8a8484610ded565b60008484612919565b6000612c9e42612e37565b90508315801590612cea57506001600160a01b038616600090815260056020908152604080832088845282528083206000198801845290915290205467ffffffffffffffff8281169116145b15612d5257612cf882612e7b565b6001600160a01b0387166000908152600560209081526040808320898452825280832060001989018452909152902080546001600160c01b0392909216600160401b0267ffffffffffffffff909216919091179055612de9565b60405180604001604052808267ffffffffffffffff168152602001612d7684612e7b565b6001600160c01b039081169091526001600160a01b03881660008181526005602090815260408083208b845282528083208a84528252808320865196830151909516600160401b0267ffffffffffffffff9096169590951790935590815260048252828120888252909152206001850190555b50604080518381526020810183905285916001600160a01b038816917f21a99d51b8a0a2e2ead709843a1ecfaab977908135cf1c085c0a6246eea6e0f0910160405180910390a35050505050565b6000600160401b821115612e77576040517f5b7f254e00000000000000000000000000000000000000000000000000000000815260040160405180910390fd5b5090565b60007801000000000000000000000000000000000000000000000000821115612e77576040517fd5e0d1b200000000000000000000000000000000000000000000000000000000815260040160405180910390fd5b80356001600160a01b0381168114612ee757600080fd5b919050565b60008060408385031215612eff57600080fd5b612f0883612ed0565b946020939093013593505050565b6001600160e01b031981168114612f2c57600080fd5b50565b600060208284031215612f4157600080fd5b8135610c7181612f16565b60008083601f840112612f5e57600080fd5b50813567ffffffffffffffff811115612f7657600080fd5b6020830191508360208260051b8501011115612f9157600080fd5b9250929050565b60008060208385031215612fab57600080fd5b823567ffffffffffffffff811115612fc257600080fd5b612fce85828601612f4c565b90969095509350505050565b6020808252825182820181905260009190848201906040850190845b81811015613014578351151583529284019291840191600101612ff6565b50909695505050505050565b60006020828403121561303257600080fd5b5035919050565b60005b8381101561305457818101518382015260200161303c565b83811115612aa55750506000910152565b6000815180845261307d816020860160208601613039565b601f01601f19169290920160200192915050565b602081526000610c716020830184613065565b60008083601f8401126130b657600080fd5b50813567ffffffffffffffff8111156130ce57600080fd5b602083019150836020828501011115612f9157600080fd5b6000806000806000608086880312156130fe57600080fd5b61310786612ed0565b945061311560208701612ed0565b935060408601359250606086013567ffffffffffffffff81111561313857600080fd5b613144888289016130a4565b969995985093965092949392505050565b80358015158114612ee757600080fd5b6000806040838503121561317857600080fd5b61318183612ed0565b915061318f60208401613155565b90509250929050565b6000806000604084860312156131ad57600080fd5b83359250602084013567ffffffffffffffff8111156131cb57600080fd5b6131d7868287016130a4565b9497909650939450505050565b60008060008060008060008060a0898b03121561320057600080fd5b61320989612ed0565b975061321760208a01612ed0565b9650604089013567ffffffffffffffff8082111561323457600080fd5b6132408c838d01612f4c565b909850965060608b013591508082111561325957600080fd5b6132658c838d01612f4c565b909650945060808b013591508082111561327e57600080fd5b5061328b8b828c016130a4565b999c989b5096995094979396929594505050565b6000806000606084860312156132b457600080fd5b6132bd84612ed0565b95602085013595506040909401359392505050565b600080600080604085870312156132e857600080fd5b843567ffffffffffffffff8082111561330057600080fd5b61330c88838901612f4c565b9096509450602087013591508082111561332557600080fd5b5061333287828801612f4c565b95989497509550505050565b6020808252825182820181905260009190848201906040850190845b818110156130145783518352928401929184019160010161335a565b6000806040838503121561338957600080fd5b8235915061318f60208401613155565b6000602082840312156133ab57600080fd5b610c7182612ed0565b6000806000806000608086880312156133cc57600080fd5b6133d586612ed0565b94506020860135935060408601359250606086013567ffffffffffffffff81111561313857600080fd5b60006020828403121561341157600080fd5b813567ffffffffffffffff81168114610c7157600080fd5b803560048110612ee757600080fd5b600080600080600080600060a0888a03121561345357600080fd5b61345c88613429565b965061346a60208901612ed0565b955060408801359450606088013567ffffffffffffffff8082111561348e57600080fd5b61349a8b838c016130a4565b909650945060808a01359150808211156134b357600080fd5b818a0191508a601f8301126134c757600080fd5b8135818111156134d657600080fd5b8b60206060830285010111156134eb57600080fd5b60208301945080935050505092959891949750929550565b6000602080830181845280855180835260408601915060408160051b870101925083870160005b8281101561355857603f19888603018452613546858351613065565b9450928501929085019060010161352a565b5092979650505050505050565b60008060008060006060868803121561357d57600080fd5b853567ffffffffffffffff8082111561359557600080fd5b6135a189838a01612f4c565b909750955060208801359150808211156135ba57600080fd5b506135c788828901612f4c565b96999598509660400135949350505050565b60008060008060008060a087890312156135f257600080fd5b6135fb87613429565b955061360960208801612ed0565b945060408701359350606087013567ffffffffffffffff81111561362c57600080fd5b61363889828a016130a4565b979a9699509497949695608090950135949350505050565b6000806040838503121561366357600080fd5b61366c83612ed0565b915061318f60208401612ed0565b60008060008060008060a0878903121561369357600080fd5b61369c87612ed0565b95506136aa60208801612ed0565b94506040870135935060608701359250608087013567ffffffffffffffff8111156136d457600080fd5b6136e089828a016130a4565b979a9699509497509295939492505050565b634e487b7160e01b600052604160045260246000fd5b634e487b7160e01b600052603260045260246000fd5b60008235607e1983360301811261373457600080fd5b9190910192915050565b60006020828403121561375057600080fd5b610c7182613429565b6000808335601e1984360301811261377057600080fd5b83018035915067ffffffffffffffff82111561378b57600080fd5b602001915036819003821315612f9157600080fd5b600181811c908216806137b457607f821691505b602082108103610c7857634e487b7160e01b600052602260045260246000fd5b6000602082840312156137e657600080fd5b815167ffffffffffffffff808211156137fe57600080fd5b818401915084601f83011261381257600080fd5b815181811115613824576138246136f2565b604051601f8201601f19908116603f0116810190838211818310171561384c5761384c6136f2565b8160405282815287602084870101111561386557600080fd5b613876836020830160208801613039565b979650505050505050565b601f821115610b3857600081815260208120601f850160051c810160208610156138a85750805b601f850160051c820191505b818110156125b7578281556001016138b4565b67ffffffffffffffff8311156138df576138df6136f2565b6138f3836138ed83546137a0565b83613881565b6000601f841160018114613927576000851561390f5750838201355b600019600387901b1c1916600186901b17835561159c565b600083815260209020601f19861690835b828110156139585786850135825560209485019460019092019101613938565b50868210156139755760001960f88860031b161c19848701351681555b505060018560011b0183555050505050565b81835281816020850137506000828201602090810191909152601f909101601f19169091010190565b602081526000610e23602083018486613987565b634e487b7160e01b600052601160045260246000fd5b6000828210156139ec576139ec6139c4565b500390565b60008219821115613a0457613a046139c4565b500190565b81835260007f07ffffffffffffffffffffffffffffffffffffffffffffffffffffffffffffff831115613a3b57600080fd5b8260051b8083602087013760009401602001938452509192915050565b604081526000613a6c604083018688613a09565b8281036020840152613876818587613a09565b60006001600160a01b03808b168352808a1660208401525060a06040830152613aac60a08301888a613a09565b8281036060840152613abf818789613a09565b90508281036080840152611cd4818587613987565b600060208284031215613ae657600080fd5b8151610c7181612f16565b600081613b0057613b006139c4565b506000190190565b600060208284031215613b1a57600080fd5b813560ff81168114610c7157600080fd5b828152604060208201526000610e236040830184613065565b8183823760009101908152919050565b634e487b7160e01b600052602160045260246000fd5b60048110613b8857634e487b7160e01b600052602160045260246000fd5b9052565b878152613b9c6020820188613b6a565b6001600160a01b038616604082015284606082015260c060808201526000613bc860c083018587613987565b90508260a083015298975050505050505050565b60006001600160a01b03808916835280881660208401525085604083015284606083015260a06080830152613c1560a083018486613987565b98975050505050505050565b613c2b8185613b6a565b826020820152606060408201526000613c476060830184613065565b95945050505050565b60408101613c5e8285613b6a565b826020830152939250505056fea26469706673582212209a179654d619cb489c77be1dc9868817fc9562656a683bfcbf609fb5dce0647364736f6c634300080f0033",
    "linkReferences": {}
  }
}