{
  "abi": [
    {
      "inputs": [],
      "name": "ALREADY_INIT",
      "type": "error"
    },
    {
      "inputs": [],
      "name": "EXECUTE_FAILED",
      "type": "error"
    },
    {
      "inputs": [],
      "name": "INVALID_RECIPIENT",
      "type": "error"
    },
    {
      "inputs": [],
      "name": "INVALID_SIG",
      "type": "error"
    },
    {
      "inputs": [],
      "name": "LENGTH_MISMATCH",
      "type": "error"
    },
    {
      "inputs": [],
      "name": "NONTRANSFERABLE",
      "type": "error"
    },
    {
      "inputs": [],
      "name": "NOT_AUTHORIZED",
      "type": "error"
    },
    {
      "inputs": [],
      "name": "QUORUM_OVER_SUPPLY",
      "type": "error"
    },
    {
      "inputs": [],
      "name": "UINT192_MAX",
      "type": "error"
    },
    {
      "inputs": [],
      "name": "UINT64_MAX",
      "type": "error"
    },
    {
      "inputs": [],
      "name": "UNDETERMINED",
      "type": "error"
    },
    {
      "anonymous": false,
      "inputs": [
        {
          "indexed": true,
          "internalType": "address",
          "name": "owner",
          "type": "address"
        },
        {
          "indexed": true,
          "internalType": "address",
          "name": "operator",
          "type": "address"
        },
        {
          "indexed": false,
          "internalType": "bool",
          "name": "approved",
          "type": "bool"
        }
      ],
      "name": "ApprovalForAll",
      "type": "event"
    },
    {
      "anonymous": false,
      "inputs": [
        {
          "indexed": false,
          "internalType": "enum Operation",
          "name": "op",
          "type": "uint8"
        },
        {
          "indexed": true,
          "internalType": "address",
          "name": "creation",
          "type": "address"
        },
        {
          "indexed": false,
          "internalType": "uint256",
          "name": "value",
          "type": "uint256"
        }
      ],
      "name": "ContractCreated",
      "type": "event"
    },
    {
      "anonymous": false,
      "inputs": [
        {
          "indexed": true,
          "internalType": "address",
          "name": "delegator",
          "type": "address"
        },
        {
          "indexed": true,
          "internalType": "address",
          "name": "fromDelegate",
          "type": "address"
        },
        {
          "indexed": true,
          "internalType": "address",
          "name": "toDelegate",
          "type": "address"
        },
        {
          "indexed": false,
          "internalType": "uint256",
          "name": "id",
          "type": "uint256"
        }
      ],
      "name": "DelegateChanged",
      "type": "event"
    },
    {
      "anonymous": false,
      "inputs": [
        {
          "indexed": true,
          "internalType": "address",
          "name": "delegate",
          "type": "address"
        },
        {
          "indexed": true,
          "internalType": "uint256",
          "name": "id",
          "type": "uint256"
        },
        {
          "indexed": false,
          "internalType": "uint256",
          "name": "previousBalance",
          "type": "uint256"
        },
        {
          "indexed": false,
          "internalType": "uint256",
          "name": "newBalance",
          "type": "uint256"
        }
      ],
      "name": "DelegateVotesChanged",
      "type": "event"
    },
    {
      "anonymous": false,
      "inputs": [
        {
          "indexed": false,
          "internalType": "enum Operation",
          "name": "op",
          "type": "uint8"
        },
        {
          "indexed": true,
          "internalType": "address",
          "name": "to",
          "type": "address"
        },
        {
          "indexed": false,
          "internalType": "uint256",
          "name": "value",
          "type": "uint256"
        },
        {
          "indexed": false,
          "internalType": "bytes",
          "name": "data",
          "type": "bytes"
        }
      ],
      "name": "Executed",
      "type": "event"
    },
    {
      "anonymous": false,
      "inputs": [
        {
          "indexed": true,
          "internalType": "address",
          "name": "caller",
          "type": "address"
        },
        {
          "indexed": false,
          "internalType": "uint32",
          "name": "threshold",
          "type": "uint32"
        }
      ],
      "name": "QuorumSet",
      "type": "event"
    },
    {
      "anonymous": false,
      "inputs": [
        {
          "indexed": true,
          "internalType": "address",
          "name": "operator",
          "type": "address"
        },
        {
          "indexed": true,
          "internalType": "address",
          "name": "from",
          "type": "address"
        },
        {
          "indexed": true,
          "internalType": "address",
          "name": "to",
          "type": "address"
        },
        {
          "indexed": false,
          "internalType": "uint256[]",
          "name": "ids",
          "type": "uint256[]"
        },
        {
          "indexed": false,
          "internalType": "uint256[]",
          "name": "amounts",
          "type": "uint256[]"
        }
      ],
      "name": "TransferBatch",
      "type": "event"
    },
    {
      "anonymous": false,
      "inputs": [
        {
          "indexed": true,
          "internalType": "address",
          "name": "operator",
          "type": "address"
        },
        {
          "indexed": true,
          "internalType": "address",
          "name": "from",
          "type": "address"
        },
        {
          "indexed": true,
          "internalType": "address",
          "name": "to",
          "type": "address"
        },
        {
          "indexed": false,
          "internalType": "uint256",
          "name": "id",
          "type": "uint256"
        },
        {
          "indexed": false,
          "internalType": "uint256",
          "name": "amount",
          "type": "uint256"
        }
      ],
      "name": "TransferSingle",
      "type": "event"
    },
    {
      "anonymous": false,
      "inputs": [
        {
          "indexed": true,
          "internalType": "address",
          "name": "operator",
          "type": "address"
        },
        {
          "indexed": true,
          "internalType": "uint256",
          "name": "id",
          "type": "uint256"
        },
        {
          "indexed": false,
          "internalType": "bool",
          "name": "transferability",
          "type": "bool"
        }
      ],
      "name": "TransferabilitySet",
      "type": "event"
    },
    {
      "anonymous": false,
      "inputs": [
        {
          "indexed": false,
          "internalType": "string",
          "name": "value",
          "type": "string"
        },
        {
          "indexed": true,
          "internalType": "uint256",
          "name": "id",
          "type": "uint256"
        }
      ],
      "name": "URI",
      "type": "event"
    },
    {
      "inputs": [],
      "name": "DOMAIN_SEPARATOR",
      "outputs": [
        {
          "internalType": "bytes32",
          "name": "",
          "type": "bytes32"
        }
      ],
      "stateMutability": "view",
      "type": "function"
    },
    {
      "inputs": [
        {
          "internalType": "address",
          "name": "",
          "type": "address"
        },
        {
          "internalType": "uint256",
          "name": "",
          "type": "uint256"
        }
      ],
      "name": "balanceOf",
      "outputs": [
        {
          "internalType": "uint256",
          "name": "",
          "type": "uint256"
        }
      ],
      "stateMutability": "view",
      "type": "function"
    },
    {
      "inputs": [
        {
          "internalType": "address[]",
          "name": "owners",
          "type": "address[]"
        },
        {
          "internalType": "uint256[]",
          "name": "ids",
          "type": "uint256[]"
        }
      ],
      "name": "balanceOfBatch",
      "outputs": [
        {
          "internalType": "uint256[]",
          "name": "balances",
          "type": "uint256[]"
        }
      ],
      "stateMutability": "view",
      "type": "function"
    },
    {
      "inputs": [
        {
          "components": [
            {
              "internalType": "enum Operation",
              "name": "op",
              "type": "uint8"
            },
            {
              "internalType": "address",
              "name": "to",
              "type": "address"
            },
            {
              "internalType": "uint256",
              "name": "value",
              "type": "uint256"
            },
            {
              "internalType": "bytes",
              "name": "data",
              "type": "bytes"
            }
          ],
          "internalType": "struct Call[]",
          "name": "calls",
          "type": "tuple[]"
        }
      ],
      "name": "batchExecute",
      "outputs": [
        {
          "internalType": "bool[]",
          "name": "successes",
          "type": "bool[]"
        }
      ],
      "stateMutability": "payable",
      "type": "function"
    },
    {
      "inputs": [
        {
          "internalType": "address",
          "name": "from",
          "type": "address"
        },
        {
          "internalType": "uint256",
          "name": "id",
          "type": "uint256"
        },
        {
          "internalType": "uint256",
          "name": "amount",
          "type": "uint256"
        }
      ],
      "name": "burn",
      "outputs": [],
      "stateMutability": "payable",
      "type": "function"
    },
    {
      "inputs": [
        {
          "internalType": "address",
          "name": "",
          "type": "address"
        },
        {
          "internalType": "uint256",
          "name": "",
          "type": "uint256"
        },
        {
          "internalType": "uint256",
          "name": "",
          "type": "uint256"
        }
      ],
      "name": "checkpoints",
      "outputs": [
        {
          "internalType": "uint64",
          "name": "fromTimestamp",
          "type": "uint64"
        },
        {
          "internalType": "uint192",
          "name": "votes",
          "type": "uint192"
        }
      ],
      "stateMutability": "view",
      "type": "function"
    },
    {
      "inputs": [
        {
          "internalType": "address",
          "name": "delegatee",
          "type": "address"
        },
        {
          "internalType": "uint256",
          "name": "id",
          "type": "uint256"
        }
      ],
      "name": "delegate",
      "outputs": [],
      "stateMutability": "payable",
      "type": "function"
    },
    {
      "inputs": [
        {
          "internalType": "address",
          "name": "account",
          "type": "address"
        },
        {
          "internalType": "uint256",
          "name": "id",
          "type": "uint256"
        }
      ],
      "name": "delegates",
      "outputs": [
        {
          "internalType": "address",
          "name": "",
          "type": "address"
        }
      ],
      "stateMutability": "view",
      "type": "function"
    },
    {
      "inputs": [
        {
          "internalType": "enum Operation",
          "name": "op",
          "type": "uint8"
        },
        {
          "internalType": "address",
          "name": "to",
          "type": "address"
        },
        {
          "internalType": "uint256",
          "name": "value",
          "type": "uint256"
        },
        {
          "internalType": "bytes",
          "name": "data",
          "type": "bytes"
        },
        {
          "components": [
            {
              "internalType": "uint8",
              "name": "v",
              "type": "uint8"
            },
            {
              "internalType": "bytes32",
              "name": "r",
              "type": "bytes32"
            },
            {
              "internalType": "bytes32",
              "name": "s",
              "type": "bytes32"
            }
          ],
          "internalType": "struct Signature[]",
          "name": "sigs",
          "type": "tuple[]"
        }
      ],
      "name": "execute",
      "outputs": [
        {
          "internalType": "bool",
          "name": "success",
          "type": "bool"
        }
      ],
      "stateMutability": "payable",
      "type": "function"
    },
    {
      "inputs": [
        {
          "internalType": "address",
          "name": "account",
          "type": "address"
        },
        {
          "internalType": "uint256",
          "name": "id",
          "type": "uint256"
        }
      ],
      "name": "getCurrentVotes",
      "outputs": [
        {
          "internalType": "uint256",
          "name": "",
          "type": "uint256"
        }
      ],
      "stateMutability": "view",
      "type": "function"
    },
    {
      "inputs": [
        {
          "internalType": "address",
          "name": "account",
          "type": "address"
        },
        {
          "internalType": "uint256",
          "name": "id",
          "type": "uint256"
        },
        {
          "internalType": "uint256",
          "name": "timestamp",
          "type": "uint256"
        }
      ],
      "name": "getPriorVotes",
      "outputs": [
        {
          "internalType": "uint256",
          "name": "",
          "type": "uint256"
        }
      ],
      "stateMutability": "view",
      "type": "function"
    },
    {
      "inputs": [
        {
          "components": [
            {
              "internalType": "enum Operation",
              "name": "op",
              "type": "uint8"
            },
            {
              "internalType": "address",
              "name": "to",
              "type": "address"
            },
            {
              "internalType": "uint256",
              "name": "value",
              "type": "uint256"
            },
            {
              "internalType": "bytes",
              "name": "data",
              "type": "bytes"
            }
          ],
          "internalType": "struct Call[]",
          "name": "calls",
          "type": "tuple[]"
        },
        {
          "internalType": "address[]",
          "name": "signers",
          "type": "address[]"
        },
        {
          "internalType": "uint256",
          "name": "threshold",
          "type": "uint256"
        }
      ],
      "name": "init",
      "outputs": [],
      "stateMutability": "payable",
      "type": "function"
    },
    {
      "inputs": [
        {
          "internalType": "address",
          "name": "",
          "type": "address"
        },
        {
          "internalType": "address",
          "name": "",
          "type": "address"
        }
      ],
      "name": "isApprovedForAll",
      "outputs": [
        {
          "internalType": "bool",
          "name": "",
          "type": "bool"
        }
      ],
      "stateMutability": "view",
      "type": "function"
    },
    {
      "inputs": [
        {
          "internalType": "address",
          "name": "to",
          "type": "address"
        },
        {
          "internalType": "uint256",
          "name": "id",
          "type": "uint256"
        },
        {
          "internalType": "uint256",
          "name": "amount",
          "type": "uint256"
        },
        {
          "internalType": "bytes",
          "name": "data",
          "type": "bytes"
        }
      ],
      "name": "mint",
      "outputs": [],
      "stateMutability": "payable",
      "type": "function"
    },
    {
      "inputs": [
        {
          "internalType": "bytes[]",
          "name": "data",
          "type": "bytes[]"
        }
      ],
      "name": "multicall",
      "outputs": [
        {
          "internalType": "bytes[]",
          "name": "results",
          "type": "bytes[]"
        }
      ],
      "stateMutability": "payable",
      "type": "function"
    },
    {
      "inputs": [],
      "name": "nonce",
      "outputs": [
        {
          "internalType": "uint64",
          "name": "",
          "type": "uint64"
        }
      ],
      "stateMutability": "view",
      "type": "function"
    },
    {
      "inputs": [
        {
          "internalType": "address",
          "name": "",
          "type": "address"
        },
        {
          "internalType": "uint256",
          "name": "",
          "type": "uint256"
        }
      ],
      "name": "numCheckpoints",
      "outputs": [
        {
          "internalType": "uint256",
          "name": "",
          "type": "uint256"
        }
      ],
      "stateMutability": "view",
      "type": "function"
    },
    {
      "inputs": [
        {
          "internalType": "address",
          "name": "",
          "type": "address"
        },
        {
          "internalType": "address",
          "name": "",
          "type": "address"
        },
        {
          "internalType": "uint256[]",
          "name": "",
          "type": "uint256[]"
        },
        {
          "internalType": "uint256[]",
          "name": "",
          "type": "uint256[]"
        },
        {
          "internalType": "bytes",
          "name": "",
          "type": "bytes"
        }
      ],
      "name": "onERC1155BatchReceived",
      "outputs": [
        {
          "internalType": "bytes4",
          "name": "",
          "type": "bytes4"
        }
      ],
      "stateMutability": "payable",
      "type": "function"
    },
    {
      "inputs": [
        {
          "internalType": "address",
          "name": "",
          "type": "address"
        },
        {
          "internalType": "address",
          "name": "",
          "type": "address"
        },
        {
          "internalType": "uint256",
          "name": "",
          "type": "uint256"
        },
        {
          "internalType": "uint256",
          "name": "",
          "type": "uint256"
        },
        {
          "internalType": "bytes",
          "name": "",
          "type": "bytes"
        }
      ],
      "name": "onERC1155Received",
      "outputs": [
        {
          "internalType": "bytes4",
          "name": "",
          "type": "bytes4"
        }
      ],
      "stateMutability": "payable",
      "type": "function"
    },
    {
      "inputs": [
        {
          "internalType": "address",
          "name": "",
          "type": "address"
        },
        {
          "internalType": "address",
          "name": "",
          "type": "address"
        },
        {
          "internalType": "uint256",
          "name": "",
          "type": "uint256"
        },
        {
          "internalType": "bytes",
          "name": "",
          "type": "bytes"
        }
      ],
      "name": "onERC721Received",
      "outputs": [
        {
          "internalType": "bytes4",
          "name": "",
          "type": "bytes4"
        }
      ],
      "stateMutability": "payable",
      "type": "function"
    },
    {
      "inputs": [],
      "name": "quorum",
      "outputs": [
        {
          "internalType": "uint32",
          "name": "",
          "type": "uint32"
        }
      ],
      "stateMutability": "view",
      "type": "function"
    },
    {
      "inputs": [
        {
          "internalType": "address",
          "name": "from",
          "type": "address"
        },
        {
          "internalType": "address",
          "name": "to",
          "type": "address"
        },
        {
          "internalType": "uint256[]",
          "name": "ids",
          "type": "uint256[]"
        },
        {
          "internalType": "uint256[]",
          "name": "amounts",
          "type": "uint256[]"
        },
        {
          "internalType": "bytes",
          "name": "data",
          "type": "bytes"
        }
      ],
      "name": "safeBatchTransferFrom",
      "outputs": [],
      "stateMutability": "payable",
      "type": "function"
    },
    {
      "inputs": [
        {
          "internalType": "address",
          "name": "from",
          "type": "address"
        },
        {
          "internalType": "address",
          "name": "to",
          "type": "address"
        },
        {
          "internalType": "uint256",
          "name": "id",
          "type": "uint256"
        },
        {
          "internalType": "uint256",
          "name": "amount",
          "type": "uint256"
        },
        {
          "internalType": "bytes",
          "name": "data",
          "type": "bytes"
        }
      ],
      "name": "safeTransferFrom",
      "outputs": [],
      "stateMutability": "payable",
      "type": "function"
    },
    {
      "inputs": [
        {
          "internalType": "address",
          "name": "operator",
          "type": "address"
        },
        {
          "internalType": "bool",
          "name": "approved",
          "type": "bool"
        }
      ],
      "name": "setApprovalForAll",
      "outputs": [],
      "stateMutability": "payable",
      "type": "function"
    },
    {
      "inputs": [
        {
          "internalType": "uint32",
          "name": "threshold",
          "type": "uint32"
        }
      ],
      "name": "setQuorum",
      "outputs": [],
      "stateMutability": "payable",
      "type": "function"
    },
    {
      "inputs": [
        {
          "internalType": "uint256",
          "name": "id",
          "type": "uint256"
        },
        {
          "internalType": "bool",
          "name": "transferability",
          "type": "bool"
        }
      ],
      "name": "setTransferability",
      "outputs": [],
      "stateMutability": "payable",
      "type": "function"
    },
    {
      "inputs": [
        {
          "internalType": "uint256",
          "name": "id",
          "type": "uint256"
        },
        {
          "internalType": "string",
          "name": "tokenURI",
          "type": "string"
        }
      ],
      "name": "setURI",
      "outputs": [],
      "stateMutability": "payable",
      "type": "function"
    },
    {
      "inputs": [
        {
          "internalType": "bytes4",
          "name": "interfaceId",
          "type": "bytes4"
        }
      ],
      "name": "supportsInterface",
      "outputs": [
        {
          "internalType": "bool",
          "name": "",
          "type": "bool"
        }
      ],
      "stateMutability": "view",
      "type": "function"
    },
    {
      "inputs": [
        {
          "internalType": "uint256",
          "name": "",
          "type": "uint256"
        }
      ],
      "name": "totalSupply",
      "outputs": [
        {
          "internalType": "uint256",
          "name": "",
          "type": "uint256"
        }
      ],
      "stateMutability": "view",
      "type": "function"
    },
    {
      "inputs": [
        {
          "internalType": "uint256",
          "name": "",
          "type": "uint256"
        }
      ],
      "name": "transferable",
      "outputs": [
        {
          "internalType": "bool",
          "name": "",
          "type": "bool"
        }
      ],
      "stateMutability": "view",
      "type": "function"
    },
    {
      "inputs": [
        {
          "internalType": "uint256",
          "name": "id",
          "type": "uint256"
        }
      ],
      "name": "uri",
      "outputs": [
        {
          "internalType": "string",
          "name": "",
          "type": "string"
        }
      ],
      "stateMutability": "view",
      "type": "function"
    }
  ],
  "bytecode": {
    "object": "0x608060405234801561001057600080fd5b50613550806100206000396000f3fe6080604052600436106101d75760003560e01c8063836eebee11610102578063bd85b03911610095578063f23a6e6111610064578063f23a6e6114610617578063f242432a14610637578063f4c3b4d71461064a578063f5298aca1461067a57600080fd5b8063bd85b03914610589578063c590e89f146105b6578063e329fed7146105c9578063e985e9c5146105dc57600080fd5b8063ac9650d8116100d1578063ac9650d8146104d5578063afa88bca146104f5578063affed0e01461052d578063bc197c811461056757600080fd5b8063836eebee1461047c578063862440e21461049c5780638c995b91146104af578063a22cb465146104c257600080fd5b806327dd1b001161017a5780634e1273f4116101495780634e1273f4146104095780637140d96014610436578063731133e914610449578063807df56d1461045c57600080fd5b806327dd1b00146103275780632eb2c2d61461035f5780633644e51514610372578063387bbabd1461038757600080fd5b8063026e402b116101b6578063026e402b146102745780630e89341c14610289578063150b7a02146102b65780631703a018146102ee57600080fd5b8062fdd58e146101dc57806301ffc9a714610224578063023e8d8414610254575b600080fd5b3480156101e857600080fd5b506102116101f736600461281d565b600060208181529281526040808220909352908152205481565b6040519081526020015b60405180910390f35b34801561023057600080fd5b5061024461023f366004612860565b61068d565b604051901515815260200161021b565b6102676102623660046128c9565b6106ec565b60405161021b919061290b565b61028761028236600461281d565b610878565b005b34801561029557600080fd5b506102a96102a4366004612951565b61093b565b60405161021b91906129c2565b6102d56102c4366004612a17565b630a85bd0160e11b95945050505050565b6040516001600160e01b0319909116815260200161021b565b3480156102fa57600080fd5b5060075461031290600160401b900463ffffffff1681565b60405163ffffffff909116815260200161021b565b34801561033357600080fd5b5061034761034236600461281d565b6109dd565b6040516001600160a01b03909116815260200161021b565b61028761036d366004612a86565b610a1b565b34801561037e57600080fd5b50610211610cc2565b34801561039357600080fd5b506103e16103a2366004612b41565b600660209081526000938452604080852082529284528284209052825290205467ffffffffffffffff811690600160401b90046001600160c01b031682565b6040805167ffffffffffffffff90931683526001600160c01b0390911660208301520161021b565b34801561041557600080fd5b50610429610424366004612b74565b610d9d565b60405161021b9190612be0565b610287610444366004612c28565b610eb1565b610287610457366004612c54565b610eca565b34801561046857600080fd5b5061021161047736600461281d565b610ee9565b34801561048857600080fd5b50610211610497366004612b41565b610f6d565b6102876104aa366004612c9f565b6111b2565b6102446104bd366004612cfa565b611216565b6102876104d0366004612dc5565b611611565b6104e86104e33660046128c9565b61167e565b60405161021b9190612def565b34801561050157600080fd5b5061021161051036600461281d565b600560209081526000928352604080842090915290825290205481565b34801561053957600080fd5b5060075461054e9067ffffffffffffffff1681565b60405167ffffffffffffffff909116815260200161021b565b6102d5610575366004612a86565b63bc197c8160e01b98975050505050505050565b34801561059557600080fd5b506102116105a4366004612951565b60036020526000908152604090205481565b6102876105c4366004612e51565b6117e7565b6102876105d7366004612ec5565b611b24565b3480156105e857600080fd5b506102446105f7366004612eeb565b600160209081526000928352604080842090915290825290205460ff1681565b6102d5610625366004612f15565b63f23a6e6160e01b9695505050505050565b610287610645366004612f15565b611beb565b34801561065657600080fd5b50610244610665366004612951565b60026020526000908152604090205460ff1681565b610287610688366004612b41565b611dfd565b60006001600160e01b03198216630a85bd0160e11b14806106d757507f4e2312e0000000000000000000000000000000000000000000000000000000006001600160e01b03198316145b806106e657506106e682611ed5565b92915050565b60606106f86000611f6e565b508167ffffffffffffffff81111561071257610712612f8d565b60405190808252806020026020018201604052801561073b578160200160208202803683370190505b50905060005b828110156108715761084784848381811061075e5761075e612fa3565b90506020028101906107709190612fb9565b61077e906020810190612fd9565b85858481811061079057610790612fa3565b90506020028101906107a29190612fb9565b6107b3906040810190602001612ff4565b8686858181106107c5576107c5612fa3565b90506020028101906107d79190612fb9565b604001358787868181106107ed576107ed612fa3565b90506020028101906107ff9190612fb9565b61080d90606081019061300f565b8080601f016020809104026020016040519081016040528093929190818152602001838380828437600092019190915250611fc092505050565b82828151811061085957610859612fa3565b91151560209283029190910190910152600101610741565b5092915050565b600061088433836109dd565b33600081815260046020908152604080832087845282529182902080547fffffffffffffffffffffffff0000000000000000000000000000000000000000166001600160a01b038981169182179092559251878152949550919391851692917f287e04de574701d97a55bd9ea85b32defecf76a607b8007ee9ae8c126bf7a746910160405180910390a433600090815260208181526040808320858452909152902054610936908290859085906121e6565b505050565b600081815260096020526040902080546060919061095890613056565b80601f016020809104026020016040519081016040528092919081815260200182805461098490613056565b80156109d15780601f106109a6576101008083540402835291602001916109d1565b820191906000526020600020905b8154815290600101906020018083116109b457829003601f168201915b50505050509050919050565b6001600160a01b0380831660009081526004602090815260408083208584529091528120549091168015610a115780610a13565b835b949350505050565b848314610a3b5760405163899ef10d60e01b815260040160405180910390fd5b336001600160a01b03891614801590610a7857506001600160a01b038816600090815260016020908152604080832033845290915290205460ff16155b15610a9657604051633d83866f60e01b815260040160405180910390fd5b60008060005b87811015610b9057888882818110610ab657610ab6612fa3565b905060200201359250868682818110610ad157610ad1612fa3565b6000868152600260209081526040909120549102929092013593505060ff16610b0d57604051634f8cca5b60e11b815260040160405180910390fd5b6001600160a01b038b1660009081526020818152604080832086845290915281208054849290610b3e9084906130a6565b90915550506001600160a01b038a166000908152602081815260408083208684529091529020805483019055610b88610b778c856109dd565b610b818c866109dd565b85856121e6565b600101610a9c565b50886001600160a01b03168a6001600160a01b0316336001600160a01b03167f4a39dc06d4c0dbc64b70af90fd698a233a518aa5d07e595d983b8c0526c8f7fb8b8b8b8b604051610be4949392919061310c565b60405180910390a46001600160a01b0389163b15610c8c5760405163bc197c8160e01b808252906001600160a01b038b169063bc197c8190610c389033908f908e908e908e908e908e908e90600401613167565b6020604051808303816000875af1158015610c57573d6000803e3d6000fd5b505050506040513d601f19601f82011682018060405250810190610c7b91906131bc565b6001600160e01b0319161415610c98565b6001600160a01b038916155b15610cb65760405163290802d360e11b815260040160405180910390fd5b50505050505050505050565b60003660011981013560f01c9003600301354614610d965750604080518082018252600881526725b0b634a1b63ab160c11b60209182015281517f8b73c3c69bb8fe3d512ecc4cf759cc79239f7b179b0ffacaa9a75d522b39400f818301527f5b5b1483404ac93e4d9b025a8feb4c5ea9304085ab2e513c578af4cec7eb5319818401527fc89efdaa54c0f20c7adf612882df0950f5a951637e0307cdcb4c672f298b8bc660608201524660808201523060a0808301919091528351808303909101815260c0909101909252815191012090565b5060085490565b6060838214610dbf5760405163899ef10d60e01b815260040160405180910390fd5b8367ffffffffffffffff811115610dd857610dd8612f8d565b604051908082528060200260200182016040528015610e01578160200160208202803683370190505b50905060005b84811015610ea857600080878784818110610e2457610e24612fa3565b9050602002016020810190610e399190612ff4565b6001600160a01b03166001600160a01b031681526020019081526020016000206000858584818110610e6d57610e6d612fa3565b90506020020135815260200190815260200160002054828281518110610e9557610e95612fa3565b6020908102919091010152600101610e07565b50949350505050565b610ebb6000611f6e565b50610ec68282612378565b5050565b610ed46000611f6e565b50610ee285858585856123ca565b5050505050565b6001600160a01b0382166000908152600560209081526040808320848452909152812054808203610f1b576000610f5c565b6001600160a01b0384166000908152600660209081526040808320868452825280832060001985018452909152902054600160401b90046001600160c01b03165b6001600160c01b0316949350505050565b6000814211610fa8576040517f83aace3d00000000000000000000000000000000000000000000000000000000815260040160405180910390fd5b6001600160a01b038416600090815260056020908152604080832086845290915281205490819003610fde5760009150506111ab565b6001600160a01b038516600090815260066020908152604080832087845282528083206000198501845290915290205467ffffffffffffffff168310611066576001600160a01b03851660009081526006602090815260408083208784528252808320600019909401835292905220546001600160c01b03600160401b9091041690506111ab565b6001600160a01b0385166000908152600660209081526040808320878452825280832083805290915290205467ffffffffffffffff168310156110ad5760009150506111ab565b600060001982015b8181111561116b576001600160a01b0387166000908152600660209081526040808320898452825280832060028686030485038085529083529281902081518083019092525467ffffffffffffffff8116808352600160401b9091046001600160c01b0316928201929092529087900361114257602001516001600160c01b031694506111ab9350505050565b805167ffffffffffffffff1687111561115d57819350611164565b6001820392505b50506110b5565b506001600160a01b038616600090815260066020908152604080832088845282528083209383529290522054600160401b90046001600160c01b03169150505b9392505050565b6111bc6000611f6e565b5060008381526009602052604090206111d682848361321f565b50827f6bb7ff708619ba0610cba295a58592e0451dee2622938c8755667688daf3529b83836040516112099291906132df565b60405180910390a2505050565b600080611221610cc2565b60075460405161126a917f7a41bb8eed3a04b9ccfc055b3e6b3247171ef52d9f9a1242a8f6a4bd2b40ed9e918d918d918d918d918d9167ffffffffffffffff169060200161332b565b604051602081830303815290604052805190602001206040516020016112c29291907f190100000000000000000000000000000000000000000000000000000000000081526002810192909252602282015260420190565b60408051808303601f190181529190528051602090910120600754909150600090600160401b900463ffffffff16815b818110156115bf57600060018589898581811061131157611311612fa3565b6113279260206060909202019081019150613385565b8a8a8681811061133957611339612fa3565b905060600201602001358b8b8781811061135557611355612fa3565b9050606002016040013560405160008152602001604052604051611395949392919093845260ff9290921660208401526040830152606082015260800190565b6020604051602081039080840390855afa1580156113b7573d6000803e3d6000fd5b5050604051601f1901519150506001600160a01b0381163b15611542577f1626ba7e000000000000000000000000000000000000000000000000000000006001600160a01b038216631626ba7e878b8b8781811061141757611417612fa3565b905060600201602001358c8c8881811061143357611433612fa3565b905060600201604001358d8d8981811061144f5761144f612fa3565b6114659260206060909202019081019150613385565b6040516020016114ad93929190928352602083019190915260f81b7fff0000000000000000000000000000000000000000000000000000000000000016604082015260410190565b6040516020818303038152906040526040518363ffffffff1660e01b81526004016114d99291906133a8565b602060405180830381865afa1580156114f6573d6000803e3d6000fd5b505050506040513d601f19601f8201168201806040525081019061151a91906131bc565b6001600160e01b0319161461154257604051633ba7c2c960e21b815260040160405180910390fd5b6001600160a01b038116600090815260208181526040808320838052909152812054900361158357604051633ba7c2c960e21b815260040160405180910390fd5b806001600160a01b0316846001600160a01b0316106115b557604051633ba7c2c960e21b815260040160405180910390fd5b92506001016112f2565b506116028b8b8b8b8b8080601f016020809104026020016040519081016040528093929190818152602001838380828437600092019190915250611fc092505050565b9b9a5050505050505050505050565b3360008181526001602090815260408083206001600160a01b03871680855290835292819020805460ff191686151590811790915590519081529192917f17307eab39ab6107e8899845ad3d59bd9653f200f220920489ca2b5937696c3191015b60405180910390a35050565b60608167ffffffffffffffff81111561169957611699612f8d565b6040519080825280602002602001820160405280156116cc57816020015b60608152602001906001900390816116b75790505b50905060005b8281101561087157600080308686858181106116f0576116f0612fa3565b9050602002810190611702919061300f565b6040516117109291906133c1565b600060405180830381855af49150503d806000811461174b576040519150601f19603f3d011682016040523d82523d6000602084013e611750565b606091505b5091509150816117bf5760448151101561176957600080fd5b6004810190508080602001905181019061178391906133d1565b6040517f08c379a00000000000000000000000000000000000000000000000000000000081526004016117b691906129c2565b60405180910390fd5b808484815181106117d2576117d2612fa3565b602090810291909101015250506001016116d2565b60075467ffffffffffffffff161561182b576040517fb2c6f10f00000000000000000000000000000000000000000000000000000000815260040160405180910390fd5b8061183557600080fd5b8181111561185657604051631534858160e01b815260040160405180910390fd5b83156119165760005b848110156119145761190b86868381811061187c5761187c612fa3565b905060200281019061188e9190612fb9565b61189c906020810190612fd9565b8787848181106118ae576118ae612fa3565b90506020028101906118c09190612fb9565b6118d1906040810190602001612ff4565b8888858181106118e3576118e3612fa3565b90506020028101906118f59190612fb9565b604001358989868181106107ed576107ed612fa3565b5060010161185f565b505b6000806000805b858110156119f25786868281811061193757611937612fa3565b905060200201602081019061194c9190612ff4565b9350836001600160a01b0316836001600160a01b03161061198057604051633ba7c2c960e21b815260040160405180910390fd5b6001600160a01b038416600081815260208181526040808320838052825280832080546001908101909155815184815292830181905281518998509681019695019433927fc3d58168c5ae7397731d063d5bbf3d657854427343f4c083240f7aacaa2d0f6292908290030190a461191d565b506007805463ffffffff8616600160401b026bffffffffffffffffffffffff199091161760011790556000805260036020526fffffffffffffffffffffffffffffffff81167f3617319a054d772f909f7c479a2cebe5066e836a939412e32403c99029b92eff55611b17604080518082018252600881526725b0b634a1b63ab160c11b60209182015281517f8b73c3c69bb8fe3d512ecc4cf759cc79239f7b179b0ffacaa9a75d522b39400f818301527f5b5b1483404ac93e4d9b025a8feb4c5ea9304085ab2e513c578af4cec7eb5319818401527fc89efdaa54c0f20c7adf612882df0950f5a951637e0307cdcb4c672f298b8bc660608201524660808201523060a0808301919091528351808303909101815260c0909101909252815191012090565b6008555050505050505050565b611b2e6000611f6e565b5080611b3957600080fd5b6000805260036020527f3617319a054d772f909f7c479a2cebe5066e836a939412e32403c99029b92eff5463ffffffff82161115611b8a57604051631534858160e01b815260040160405180910390fd5b600780546bffffffff00000000000000001916600160401b63ffffffff84169081029190911790915560405190815233907f6419d2e7a1717fda3cbd30219ea0d317c63608c906b8177a66746517b8c613069060200160405180910390a250565b336001600160a01b03871614801590611c2857506001600160a01b038616600090815260016020908152604080832033845290915290205460ff16155b15611c4657604051633d83866f60e01b815260040160405180910390fd5b60008481526002602052604090205460ff16611c7557604051634f8cca5b60e11b815260040160405180910390fd5b6001600160a01b03861660009081526020818152604080832087845290915281208054859290611ca69084906130a6565b90915550506001600160a01b038581166000818152602081815260408083208984528252918290208054880190558151888152908101879052919289169133917fc3d58168c5ae7397731d063d5bbf3d657854427343f4c083240f7aacaa2d0f62910160405180910390a46001600160a01b0385163b15611dad5760405163f23a6e6160e01b808252906001600160a01b0387169063f23a6e6190611d599033908b908a908a908a908a90600401613473565b6020604051808303816000875af1158015611d78573d6000803e3d6000fd5b505050506040513d601f19601f82011682018060405250810190611d9c91906131bc565b6001600160e01b0319161415611db9565b6001600160a01b038516155b15611dd75760405163290802d360e11b815260040160405180910390fd5b611df5611de487866109dd565b611dee87876109dd565b86866121e6565b505050505050565b336001600160a01b03841614801590611e3a57506001600160a01b038316600090815260016020908152604080832033845290915290205460ff16155b8015611e4d5750611e4b6000611f6e565b155b15611e6b57604051633d83866f60e01b815260040160405180910390fd5b611e76838383612522565b81610936576000805260036020527f3617319a054d772f909f7c479a2cebe5066e836a939412e32403c99029b92eff54600754600160401b900463ffffffff16111561093657604051631534858160e01b815260040160405180910390fd5b60006001600160e01b031982167f01ffc9a7000000000000000000000000000000000000000000000000000000001480611f3857507fd9b67a26000000000000000000000000000000000000000000000000000000006001600160e01b03198316145b806106e65750506001600160e01b0319167f0e89341c000000000000000000000000000000000000000000000000000000001490565b600033301480611f9557503360009081526020818152604080832085845290915290205415155b15611fa257506001919050565b604051633d83866f60e01b815260040160405180910390fd5b919050565b6007805467ffffffffffffffff8082166001011667ffffffffffffffff19909116179055600080856003811115611ff957611ff96132f3565b036120755760008083516020850186885af190508061202b57604051633c47f9b560e21b815260040160405180910390fd5b836001600160a01b03167ffa3c55dc43f5cfdeb2abee243c63ad490db2fee39fd127076ed9e7afa15ad638868585604051612068939291906134b8565b60405180910390a2610a13565b6001856003811115612089576120896132f3565b036120ba57600080835160208501875af490508061202b57604051633c47f9b560e21b815260040160405180910390fd5b60028560038111156120ce576120ce6132f3565b0361214f57600082516020840185f090506001600160a01b03811661210657604051633c47f9b560e21b815260040160405180910390fd5b806001600160a01b03167fd187b7c22150909fa5ee0d652f5966e66148500fabe5615b1079e7ef39fe3fb787866040516121419291906134e7565b60405180910390a250610a13565b6000808560601b6bffffffffffffffffffffffff191690508084518560200187f591506001600160a01b03821661219957604051633c47f9b560e21b815260040160405180910390fd5b816001600160a01b03167fd187b7c22150909fa5ee0d652f5966e66148500fabe5615b1079e7ef39fe3fb788876040516121d49291906134e7565b60405180910390a25050949350505050565b826001600160a01b0316846001600160a01b03161415801561220757508015155b15612372576001600160a01b038416156122c3576001600160a01b03841660009081526005602090815260408083208584529091528120549081810361224e57600061229f565b6001600160a01b038616600090815260066020908152604080832087845290915281209061227d6001856130a6565b8152602081019190915260400160002054600160401b90046001600160c01b03165b6001600160c01b031690506122c0868584846122bb88826130a6565b6125c9565b50505b6001600160a01b03831615612372576001600160a01b038316600090815260056020908152604080832085845290915281205490818103612305576000612356565b6001600160a01b03851660009081526006602090815260408083208784529091528120906123346001856130a6565b8152602081019190915260400160002054600160401b90046001600160c01b03165b6001600160c01b03169050611df5858584846122bb8882613502565b50505050565b600082815260026020908152604091829020805460ff19168415159081179091559151918252839133917f030b8b6f293952c4e53cc2ac59481057844588ce19c7d10ca5468e4d6938f1959101611672565b600084815260036020526040812080548592906123e8908490613502565b90915550506001600160a01b0385166000818152602081815260408083208884528252808320805488019055805188815291820187905233917fc3d58168c5ae7397731d063d5bbf3d657854427343f4c083240f7aacaa2d0f62910160405180910390a46001600160a01b0385163b156124e95760405163f23a6e6160e01b808252906001600160a01b0387169063f23a6e61906124959033906000908a908a908a908a90600401613473565b6020604051808303816000875af11580156124b4573d6000803e3d6000fd5b505050506040513d601f19601f820116820180604052508101906124d891906131bc565b6001600160e01b03191614156124f5565b6001600160a01b038516155b156125135760405163290802d360e11b815260040160405180910390fd5b610ee26000611dee87876109dd565b6001600160a01b038316600090815260208181526040808320858452909152812080548392906125539084906130a6565b909155505060008281526003602090815260408083208054859003905580518581529182018490526001600160a01b0386169133917fc3d58168c5ae7397731d063d5bbf3d657854427343f4c083240f7aacaa2d0f62910160405180910390a46109366125c084846109dd565b600084846121e6565b60006125d44261276d565b9050831580159061262057506001600160a01b038616600090815260066020908152604080832088845282528083206000198801845290915290205467ffffffffffffffff8281169116145b156126885761262e826127b1565b6001600160a01b0387166000908152600660209081526040808320898452825280832060001989018452909152902080546001600160c01b0392909216600160401b0267ffffffffffffffff90921691909117905561271f565b60405180604001604052808267ffffffffffffffff1681526020016126ac846127b1565b6001600160c01b039081169091526001600160a01b03881660008181526006602090815260408083208b845282528083208a84528252808320865196830151909516600160401b0267ffffffffffffffff9096169590951790935590815260058252828120888252909152206001850190555b50604080518381526020810183905285916001600160a01b038816917f21a99d51b8a0a2e2ead709843a1ecfaab977908135cf1c085c0a6246eea6e0f0910160405180910390a35050505050565b6000600160401b8211156127ad576040517f5b7f254e00000000000000000000000000000000000000000000000000000000815260040160405180910390fd5b5090565b600078010000000000000000000000000000000000000000000000008211156127ad576040517fd5e0d1b200000000000000000000000000000000000000000000000000000000815260040160405180910390fd5b80356001600160a01b0381168114611fbb57600080fd5b6000806040838503121561283057600080fd5b61283983612806565b946020939093013593505050565b6001600160e01b03198116811461285d57600080fd5b50565b60006020828403121561287257600080fd5b81356111ab81612847565b60008083601f84011261288f57600080fd5b50813567ffffffffffffffff8111156128a757600080fd5b6020830191508360208260051b85010111156128c257600080fd5b9250929050565b600080602083850312156128dc57600080fd5b823567ffffffffffffffff8111156128f357600080fd5b6128ff8582860161287d565b90969095509350505050565b6020808252825182820181905260009190848201906040850190845b81811015612945578351151583529284019291840191600101612927565b50909695505050505050565b60006020828403121561296357600080fd5b5035919050565b60005b8381101561298557818101518382015260200161296d565b838111156123725750506000910152565b600081518084526129ae81602086016020860161296a565b601f01601f19169290920160200192915050565b6020815260006111ab6020830184612996565b60008083601f8401126129e757600080fd5b50813567ffffffffffffffff8111156129ff57600080fd5b6020830191508360208285010111156128c257600080fd5b600080600080600060808688031215612a2f57600080fd5b612a3886612806565b9450612a4660208701612806565b935060408601359250606086013567ffffffffffffffff811115612a6957600080fd5b612a75888289016129d5565b969995985093965092949392505050565b60008060008060008060008060a0898b031215612aa257600080fd5b612aab89612806565b9750612ab960208a01612806565b9650604089013567ffffffffffffffff80821115612ad657600080fd5b612ae28c838d0161287d565b909850965060608b0135915080821115612afb57600080fd5b612b078c838d0161287d565b909650945060808b0135915080821115612b2057600080fd5b50612b2d8b828c016129d5565b999c989b5096995094979396929594505050565b600080600060608486031215612b5657600080fd5b612b5f84612806565b95602085013595506040909401359392505050565b60008060008060408587031215612b8a57600080fd5b843567ffffffffffffffff80821115612ba257600080fd5b612bae8883890161287d565b90965094506020870135915080821115612bc757600080fd5b50612bd48782880161287d565b95989497509550505050565b6020808252825182820181905260009190848201906040850190845b8181101561294557835183529284019291840191600101612bfc565b80358015158114611fbb57600080fd5b60008060408385031215612c3b57600080fd5b82359150612c4b60208401612c18565b90509250929050565b600080600080600060808688031215612c6c57600080fd5b612c7586612806565b94506020860135935060408601359250606086013567ffffffffffffffff811115612a6957600080fd5b600080600060408486031215612cb457600080fd5b83359250602084013567ffffffffffffffff811115612cd257600080fd5b612cde868287016129d5565b9497909650939450505050565b803560048110611fbb57600080fd5b600080600080600080600060a0888a031215612d1557600080fd5b612d1e88612ceb565b9650612d2c60208901612806565b955060408801359450606088013567ffffffffffffffff80821115612d5057600080fd5b612d5c8b838c016129d5565b909650945060808a0135915080821115612d7557600080fd5b818a0191508a601f830112612d8957600080fd5b813581811115612d9857600080fd5b8b6020606083028501011115612dad57600080fd5b60208301945080935050505092959891949750929550565b60008060408385031215612dd857600080fd5b612de183612806565b9150612c4b60208401612c18565b6000602080830181845280855180835260408601915060408160051b870101925083870160005b82811015612e4457603f19888603018452612e32858351612996565b94509285019290850190600101612e16565b5092979650505050505050565b600080600080600060608688031215612e6957600080fd5b853567ffffffffffffffff80821115612e8157600080fd5b612e8d89838a0161287d565b90975095506020880135915080821115612ea657600080fd5b50612eb38882890161287d565b96999598509660400135949350505050565b600060208284031215612ed757600080fd5b813563ffffffff811681146111ab57600080fd5b60008060408385031215612efe57600080fd5b612f0783612806565b9150612c4b60208401612806565b60008060008060008060a08789031215612f2e57600080fd5b612f3787612806565b9550612f4560208801612806565b94506040870135935060608701359250608087013567ffffffffffffffff811115612f6f57600080fd5b612f7b89828a016129d5565b979a9699509497509295939492505050565b634e487b7160e01b600052604160045260246000fd5b634e487b7160e01b600052603260045260246000fd5b60008235607e19833603018112612fcf57600080fd5b9190910192915050565b600060208284031215612feb57600080fd5b6111ab82612ceb565b60006020828403121561300657600080fd5b6111ab82612806565b6000808335601e1984360301811261302657600080fd5b83018035915067ffffffffffffffff82111561304157600080fd5b6020019150368190038213156128c257600080fd5b600181811c9082168061306a57607f821691505b60208210810361308a57634e487b7160e01b600052602260045260246000fd5b50919050565b634e487b7160e01b600052601160045260246000fd5b6000828210156130b8576130b8613090565b500390565b81835260007f07ffffffffffffffffffffffffffffffffffffffffffffffffffffffffffffff8311156130ef57600080fd5b8260051b8083602087013760009401602001938452509192915050565b6040815260006131206040830186886130bd565b82810360208401526131338185876130bd565b979650505050505050565b81835281816020850137506000828201602090810191909152601f909101601f19169091010190565b60006001600160a01b03808b168352808a1660208401525060a0604083015261319460a08301888a6130bd565b82810360608401526131a78187896130bd565b9050828103608084015261160281858761313e565b6000602082840312156131ce57600080fd5b81516111ab81612847565b601f82111561093657600081815260208120601f850160051c810160208610156132005750805b601f850160051c820191505b81811015611df55782815560010161320c565b67ffffffffffffffff83111561323757613237612f8d565b61324b836132458354613056565b836131d9565b6000601f84116001811461327f57600085156132675750838201355b600019600387901b1c1916600186901b178355610ee2565b600083815260209020601f19861690835b828110156132b05786850135825560209485019460019092019101613290565b50868210156132cd5760001960f88860031b161c19848701351681555b505060018560011b0183555050505050565b602081526000610a1360208301848661313e565b634e487b7160e01b600052602160045260246000fd5b6004811061332757634e487b7160e01b600052602160045260246000fd5b9052565b87815261333b6020820188613309565b6001600160a01b038616604082015284606082015260c06080820152600061336760c08301858761313e565b905067ffffffffffffffff831660a083015298975050505050505050565b60006020828403121561339757600080fd5b813560ff811681146111ab57600080fd5b828152604060208201526000610a136040830184612996565b8183823760009101908152919050565b6000602082840312156133e357600080fd5b815167ffffffffffffffff808211156133fb57600080fd5b818401915084601f83011261340f57600080fd5b81518181111561342157613421612f8d565b604051601f8201601f19908116603f0116810190838211818310171561344957613449612f8d565b8160405282815287602084870101111561346257600080fd5b61313383602083016020880161296a565b60006001600160a01b03808916835280881660208401525085604083015284606083015260a060808301526134ac60a08301848661313e565b98975050505050505050565b6134c28185613309565b8260208201526060604082015260006134de6060830184612996565b95945050505050565b604081016134f58285613309565b8260208301529392505050565b6000821982111561351557613515613090565b50019056fea2646970667358221220703d365a0be84546e540bd6aa294461fe6d750148051440d282b61cfd64cb25064736f6c634300080f0033",
    "linkReferences": {}
  }
}