{
  "abi": [
    {
      "inputs": [
        {
          "internalType": "contract KaliClub",
          "name": "_uriFetcher",
          "type": "address"
        }
      ],
      "stateMutability": "payable",
      "type": "constructor"
    },
    {
      "inputs": [],
      "name": "ALREADY_INIT",
      "type": "error"
    },
    {
      "inputs": [],
      "name": "EXECUTE_FAILED",
      "type": "error"
    },
    {
      "inputs": [],
      "name": "INVALID_RECIPIENT",
      "type": "error"
    },
    {
      "inputs": [],
      "name": "INVALID_SIG",
      "type": "error"
    },
    {
      "inputs": [],
      "name": "LENGTH_MISMATCH",
      "type": "error"
    },
    {
      "inputs": [],
      "name": "NONTRANSFERABLE",
      "type": "error"
    },
    {
      "inputs": [],
      "name": "NOT_AUTHORIZED",
      "type": "error"
    },
    {
      "inputs": [],
      "name": "QUORUM_OVER_SUPPLY",
      "type": "error"
    },
    {
      "inputs": [],
      "name": "UINT192_MAX",
      "type": "error"
    },
    {
      "inputs": [],
      "name": "UINT64_MAX",
      "type": "error"
    },
    {
      "inputs": [],
      "name": "UNDETERMINED",
      "type": "error"
    },
    {
      "anonymous": false,
      "inputs": [
        {
          "indexed": true,
          "internalType": "address",
          "name": "to",
          "type": "address"
        }
      ],
      "name": "AdminSet",
      "type": "event"
    },
    {
      "anonymous": false,
      "inputs": [
        {
          "indexed": true,
          "internalType": "address",
          "name": "owner",
          "type": "address"
        },
        {
          "indexed": true,
          "internalType": "address",
          "name": "operator",
          "type": "address"
        },
        {
          "indexed": false,
          "internalType": "bool",
          "name": "approved",
          "type": "bool"
        }
      ],
      "name": "ApprovalForAll",
      "type": "event"
    },
    {
      "anonymous": false,
      "inputs": [
        {
          "indexed": false,
          "internalType": "enum Operation",
          "name": "op",
          "type": "uint8"
        },
        {
          "indexed": true,
          "internalType": "address",
          "name": "creation",
          "type": "address"
        },
        {
          "indexed": false,
          "internalType": "uint256",
          "name": "value",
          "type": "uint256"
        }
      ],
      "name": "ContractCreated",
      "type": "event"
    },
    {
      "anonymous": false,
      "inputs": [
        {
          "indexed": true,
          "internalType": "address",
          "name": "delegator",
          "type": "address"
        },
        {
          "indexed": false,
          "internalType": "uint256",
          "name": "id",
          "type": "uint256"
        },
        {
          "indexed": true,
          "internalType": "address",
          "name": "fromDelegate",
          "type": "address"
        },
        {
          "indexed": true,
          "internalType": "address",
          "name": "toDelegate",
          "type": "address"
        }
      ],
      "name": "DelegateChanged",
      "type": "event"
    },
    {
      "anonymous": false,
      "inputs": [
        {
          "indexed": true,
          "internalType": "address",
          "name": "delegate",
          "type": "address"
        },
        {
          "indexed": false,
          "internalType": "uint256",
          "name": "id",
          "type": "uint256"
        },
        {
          "indexed": false,
          "internalType": "uint256",
          "name": "previousBalance",
          "type": "uint256"
        },
        {
          "indexed": false,
          "internalType": "uint256",
          "name": "newBalance",
          "type": "uint256"
        }
      ],
      "name": "DelegateVotesChanged",
      "type": "event"
    },
    {
      "anonymous": false,
      "inputs": [
        {
          "indexed": false,
          "internalType": "enum Operation",
          "name": "op",
          "type": "uint8"
        },
        {
          "indexed": true,
          "internalType": "address",
          "name": "to",
          "type": "address"
        },
        {
          "indexed": false,
          "internalType": "uint256",
          "name": "value",
          "type": "uint256"
        },
        {
          "indexed": false,
          "internalType": "bytes",
          "name": "data",
          "type": "bytes"
        }
      ],
      "name": "Executed",
      "type": "event"
    },
    {
      "anonymous": false,
      "inputs": [
        {
          "indexed": true,
          "internalType": "address",
          "name": "caller",
          "type": "address"
        },
        {
          "indexed": true,
          "internalType": "address",
          "name": "to",
          "type": "address"
        },
        {
          "indexed": false,
          "internalType": "bool",
          "name": "approve",
          "type": "bool"
        }
      ],
      "name": "GovernanceSet",
      "type": "event"
    },
    {
      "anonymous": false,
      "inputs": [
        {
          "indexed": true,
          "internalType": "address",
          "name": "caller",
          "type": "address"
        },
        {
          "indexed": false,
          "internalType": "uint64",
          "name": "threshold",
          "type": "uint64"
        }
      ],
      "name": "QuorumSet",
      "type": "event"
    },
    {
      "anonymous": false,
      "inputs": [
        {
          "indexed": true,
          "internalType": "address",
          "name": "operator",
          "type": "address"
        },
        {
          "indexed": false,
          "internalType": "uint256",
          "name": "id",
          "type": "uint256"
        },
        {
          "indexed": false,
          "internalType": "bool",
          "name": "transferability",
          "type": "bool"
        }
      ],
      "name": "TokenTransferabilitySet",
      "type": "event"
    },
    {
      "anonymous": false,
      "inputs": [
        {
          "indexed": true,
          "internalType": "address",
          "name": "operator",
          "type": "address"
        },
        {
          "indexed": true,
          "internalType": "address",
          "name": "from",
          "type": "address"
        },
        {
          "indexed": true,
          "internalType": "address",
          "name": "to",
          "type": "address"
        },
        {
          "indexed": false,
          "internalType": "uint256[]",
          "name": "ids",
          "type": "uint256[]"
        },
        {
          "indexed": false,
          "internalType": "uint256[]",
          "name": "amounts",
          "type": "uint256[]"
        }
      ],
      "name": "TransferBatch",
      "type": "event"
    },
    {
      "anonymous": false,
      "inputs": [
        {
          "indexed": true,
          "internalType": "address",
          "name": "operator",
          "type": "address"
        },
        {
          "indexed": true,
          "internalType": "address",
          "name": "from",
          "type": "address"
        },
        {
          "indexed": true,
          "internalType": "address",
          "name": "to",
          "type": "address"
        },
        {
          "indexed": false,
          "internalType": "uint256",
          "name": "id",
          "type": "uint256"
        },
        {
          "indexed": false,
          "internalType": "uint256",
          "name": "amount",
          "type": "uint256"
        }
      ],
      "name": "TransferSingle",
      "type": "event"
    },
    {
      "anonymous": false,
      "inputs": [
        {
          "indexed": false,
          "internalType": "string",
          "name": "value",
          "type": "string"
        },
        {
          "indexed": true,
          "internalType": "uint256",
          "name": "id",
          "type": "uint256"
        }
      ],
      "name": "URI",
      "type": "event"
    },
    {
      "inputs": [],
      "name": "DOMAIN_SEPARATOR",
      "outputs": [
        {
          "internalType": "bytes32",
          "name": "",
          "type": "bytes32"
        }
      ],
      "stateMutability": "view",
      "type": "function"
    },
    {
      "inputs": [
        {
          "internalType": "address",
          "name": "",
          "type": "address"
        }
      ],
      "name": "admin",
      "outputs": [
        {
          "internalType": "bool",
          "name": "",
          "type": "bool"
        }
      ],
      "stateMutability": "view",
      "type": "function"
    },
    {
      "inputs": [
        {
          "internalType": "address",
          "name": "",
          "type": "address"
        },
        {
          "internalType": "uint256",
          "name": "",
          "type": "uint256"
        }
      ],
      "name": "balanceOf",
      "outputs": [
        {
          "internalType": "uint256",
          "name": "",
          "type": "uint256"
        }
      ],
      "stateMutability": "view",
      "type": "function"
    },
    {
      "inputs": [
        {
          "internalType": "address[]",
          "name": "owners",
          "type": "address[]"
        },
        {
          "internalType": "uint256[]",
          "name": "ids",
          "type": "uint256[]"
        }
      ],
      "name": "balanceOfBatch",
      "outputs": [
        {
          "internalType": "uint256[]",
          "name": "balances",
          "type": "uint256[]"
        }
      ],
      "stateMutability": "view",
      "type": "function"
    },
    {
      "inputs": [
        {
          "components": [
            {
              "internalType": "enum Operation",
              "name": "op",
              "type": "uint8"
            },
            {
              "internalType": "address",
              "name": "to",
              "type": "address"
            },
            {
              "internalType": "uint256",
              "name": "value",
              "type": "uint256"
            },
            {
              "internalType": "bytes",
              "name": "data",
              "type": "bytes"
            }
          ],
          "internalType": "struct Call[]",
          "name": "calls",
          "type": "tuple[]"
        }
      ],
      "name": "batchExecute",
      "outputs": [
        {
          "internalType": "bool[]",
          "name": "successes",
          "type": "bool[]"
        }
      ],
      "stateMutability": "payable",
      "type": "function"
    },
    {
      "inputs": [
        {
          "internalType": "address",
          "name": "from",
          "type": "address"
        },
        {
          "internalType": "uint256",
          "name": "id",
          "type": "uint256"
        },
        {
          "internalType": "uint256",
          "name": "amount",
          "type": "uint256"
        }
      ],
      "name": "burn",
      "outputs": [],
      "stateMutability": "payable",
      "type": "function"
    },
    {
      "inputs": [
        {
          "internalType": "address",
          "name": "from",
          "type": "address"
        }
      ],
      "name": "burnSigner",
      "outputs": [],
      "stateMutability": "payable",
      "type": "function"
    },
    {
      "inputs": [
        {
          "internalType": "address",
          "name": "",
          "type": "address"
        },
        {
          "internalType": "uint256",
          "name": "",
          "type": "uint256"
        },
        {
          "internalType": "uint256",
          "name": "",
          "type": "uint256"
        }
      ],
      "name": "checkpoints",
      "outputs": [
        {
          "internalType": "uint64",
          "name": "fromTimestamp",
          "type": "uint64"
        },
        {
          "internalType": "uint192",
          "name": "votes",
          "type": "uint192"
        }
      ],
      "stateMutability": "view",
      "type": "function"
    },
    {
      "inputs": [
        {
          "internalType": "address",
          "name": "account",
          "type": "address"
        },
        {
          "internalType": "uint256",
          "name": "id",
          "type": "uint256"
        }
      ],
      "name": "delegate",
      "outputs": [],
      "stateMutability": "payable",
      "type": "function"
    },
    {
      "inputs": [
        {
          "internalType": "address",
          "name": "account",
          "type": "address"
        },
        {
          "internalType": "uint256",
          "name": "id",
          "type": "uint256"
        }
      ],
      "name": "delegates",
      "outputs": [
        {
          "internalType": "address",
          "name": "",
          "type": "address"
        }
      ],
      "stateMutability": "view",
      "type": "function"
    },
    {
      "inputs": [
        {
          "internalType": "enum Operation",
          "name": "op",
          "type": "uint8"
        },
        {
          "internalType": "address",
          "name": "to",
          "type": "address"
        },
        {
          "internalType": "uint256",
          "name": "value",
          "type": "uint256"
        },
        {
          "internalType": "bytes",
          "name": "data",
          "type": "bytes"
        },
        {
          "components": [
            {
              "internalType": "uint8",
              "name": "v",
              "type": "uint8"
            },
            {
              "internalType": "bytes32",
              "name": "r",
              "type": "bytes32"
            },
            {
              "internalType": "bytes32",
              "name": "s",
              "type": "bytes32"
            }
          ],
          "internalType": "struct Signature[]",
          "name": "sigs",
          "type": "tuple[]"
        }
      ],
      "name": "execute",
      "outputs": [
        {
          "internalType": "bool",
          "name": "success",
          "type": "bool"
        }
      ],
      "stateMutability": "payable",
      "type": "function"
    },
    {
      "inputs": [
        {
          "internalType": "address",
          "name": "account",
          "type": "address"
        },
        {
          "internalType": "uint256",
          "name": "id",
          "type": "uint256"
        }
      ],
      "name": "getCurrentVotes",
      "outputs": [
        {
          "internalType": "uint256",
          "name": "",
          "type": "uint256"
        }
      ],
      "stateMutability": "view",
      "type": "function"
    },
    {
      "inputs": [
        {
          "internalType": "enum Operation",
          "name": "op",
          "type": "uint8"
        },
        {
          "internalType": "address",
          "name": "to",
          "type": "address"
        },
        {
          "internalType": "uint256",
          "name": "value",
          "type": "uint256"
        },
        {
          "internalType": "bytes",
          "name": "data",
          "type": "bytes"
        },
        {
          "internalType": "uint256",
          "name": "txNonce",
          "type": "uint256"
        }
      ],
      "name": "getDigest",
      "outputs": [
        {
          "internalType": "bytes32",
          "name": "",
          "type": "bytes32"
        }
      ],
      "stateMutability": "view",
      "type": "function"
    },
    {
      "inputs": [
        {
          "internalType": "address",
          "name": "account",
          "type": "address"
        },
        {
          "internalType": "uint256",
          "name": "id",
          "type": "uint256"
        },
        {
          "internalType": "uint256",
          "name": "timestamp",
          "type": "uint256"
        }
      ],
      "name": "getPriorVotes",
      "outputs": [
        {
          "internalType": "uint256",
          "name": "",
          "type": "uint256"
        }
      ],
      "stateMutability": "view",
      "type": "function"
    },
    {
      "inputs": [
        {
          "internalType": "address",
          "name": "",
          "type": "address"
        }
      ],
      "name": "governance",
      "outputs": [
        {
          "internalType": "bool",
          "name": "",
          "type": "bool"
        }
      ],
      "stateMutability": "view",
      "type": "function"
    },
    {
      "inputs": [
        {
          "components": [
            {
              "internalType": "enum Operation",
              "name": "op",
              "type": "uint8"
            },
            {
              "internalType": "address",
              "name": "to",
              "type": "address"
            },
            {
              "internalType": "uint256",
              "name": "value",
              "type": "uint256"
            },
            {
              "internalType": "bytes",
              "name": "data",
              "type": "bytes"
            }
          ],
          "internalType": "struct Call[]",
          "name": "calls",
          "type": "tuple[]"
        },
        {
          "internalType": "address[]",
          "name": "signers",
          "type": "address[]"
        },
        {
          "internalType": "uint256",
          "name": "threshold",
          "type": "uint256"
        }
      ],
      "name": "init",
      "outputs": [],
      "stateMutability": "payable",
      "type": "function"
    },
    {
      "inputs": [
        {
          "internalType": "address",
          "name": "",
          "type": "address"
        },
        {
          "internalType": "address",
          "name": "",
          "type": "address"
        }
      ],
      "name": "isApprovedForAll",
      "outputs": [
        {
          "internalType": "bool",
          "name": "",
          "type": "bool"
        }
      ],
      "stateMutability": "view",
      "type": "function"
    },
    {
      "inputs": [
        {
          "internalType": "address",
          "name": "to",
          "type": "address"
        },
        {
          "internalType": "uint256",
          "name": "id",
          "type": "uint256"
        },
        {
          "internalType": "uint256",
          "name": "amount",
          "type": "uint256"
        },
        {
          "internalType": "bytes",
          "name": "data",
          "type": "bytes"
        }
      ],
      "name": "mint",
      "outputs": [],
      "stateMutability": "payable",
      "type": "function"
    },
    {
      "inputs": [
        {
          "internalType": "address",
          "name": "to",
          "type": "address"
        }
      ],
      "name": "mintSigner",
      "outputs": [],
      "stateMutability": "payable",
      "type": "function"
    },
    {
      "inputs": [
        {
          "internalType": "bytes[]",
          "name": "data",
          "type": "bytes[]"
        }
      ],
      "name": "multicall",
      "outputs": [
        {
          "internalType": "bytes[]",
          "name": "results",
          "type": "bytes[]"
        }
      ],
      "stateMutability": "payable",
      "type": "function"
    },
    {
      "inputs": [],
      "name": "nonce",
      "outputs": [
        {
          "internalType": "uint64",
          "name": "",
          "type": "uint64"
        }
      ],
      "stateMutability": "view",
      "type": "function"
    },
    {
      "inputs": [
        {
          "internalType": "address",
          "name": "",
          "type": "address"
        },
        {
          "internalType": "uint256",
          "name": "",
          "type": "uint256"
        }
      ],
      "name": "numCheckpoints",
      "outputs": [
        {
          "internalType": "uint256",
          "name": "",
          "type": "uint256"
        }
      ],
      "stateMutability": "view",
      "type": "function"
    },
    {
      "inputs": [
        {
          "internalType": "address",
          "name": "",
          "type": "address"
        },
        {
          "internalType": "address",
          "name": "",
          "type": "address"
        },
        {
          "internalType": "uint256[]",
          "name": "",
          "type": "uint256[]"
        },
        {
          "internalType": "uint256[]",
          "name": "",
          "type": "uint256[]"
        },
        {
          "internalType": "bytes",
          "name": "",
          "type": "bytes"
        }
      ],
      "name": "onERC1155BatchReceived",
      "outputs": [
        {
          "internalType": "bytes4",
          "name": "",
          "type": "bytes4"
        }
      ],
      "stateMutability": "pure",
      "type": "function"
    },
    {
      "inputs": [
        {
          "internalType": "address",
          "name": "",
          "type": "address"
        },
        {
          "internalType": "address",
          "name": "",
          "type": "address"
        },
        {
          "internalType": "uint256",
          "name": "",
          "type": "uint256"
        },
        {
          "internalType": "uint256",
          "name": "",
          "type": "uint256"
        },
        {
          "internalType": "bytes",
          "name": "",
          "type": "bytes"
        }
      ],
      "name": "onERC1155Received",
      "outputs": [
        {
          "internalType": "bytes4",
          "name": "",
          "type": "bytes4"
        }
      ],
      "stateMutability": "pure",
      "type": "function"
    },
    {
      "inputs": [
        {
          "internalType": "address",
          "name": "",
          "type": "address"
        },
        {
          "internalType": "address",
          "name": "",
          "type": "address"
        },
        {
          "internalType": "uint256",
          "name": "",
          "type": "uint256"
        },
        {
          "internalType": "bytes",
          "name": "",
          "type": "bytes"
        }
      ],
      "name": "onERC721Received",
      "outputs": [
        {
          "internalType": "bytes4",
          "name": "",
          "type": "bytes4"
        }
      ],
      "stateMutability": "pure",
      "type": "function"
    },
    {
      "inputs": [],
      "name": "quorum",
      "outputs": [
        {
          "internalType": "uint64",
          "name": "",
          "type": "uint64"
        }
      ],
      "stateMutability": "view",
      "type": "function"
    },
    {
      "inputs": [
        {
          "internalType": "address",
          "name": "from",
          "type": "address"
        },
        {
          "internalType": "address",
          "name": "to",
          "type": "address"
        },
        {
          "internalType": "uint256[]",
          "name": "ids",
          "type": "uint256[]"
        },
        {
          "internalType": "uint256[]",
          "name": "amounts",
          "type": "uint256[]"
        },
        {
          "internalType": "bytes",
          "name": "data",
          "type": "bytes"
        }
      ],
      "name": "safeBatchTransferFrom",
      "outputs": [],
      "stateMutability": "payable",
      "type": "function"
    },
    {
      "inputs": [
        {
          "internalType": "address",
          "name": "from",
          "type": "address"
        },
        {
          "internalType": "address",
          "name": "to",
          "type": "address"
        },
        {
          "internalType": "uint256",
          "name": "id",
          "type": "uint256"
        },
        {
          "internalType": "uint256",
          "name": "amount",
          "type": "uint256"
        },
        {
          "internalType": "bytes",
          "name": "data",
          "type": "bytes"
        }
      ],
      "name": "safeTransferFrom",
      "outputs": [],
      "stateMutability": "payable",
      "type": "function"
    },
    {
      "inputs": [
        {
          "internalType": "address",
          "name": "to",
          "type": "address"
        }
      ],
      "name": "setAdmin",
      "outputs": [],
      "stateMutability": "payable",
      "type": "function"
    },
    {
      "inputs": [
        {
          "internalType": "address",
          "name": "operator",
          "type": "address"
        },
        {
          "internalType": "bool",
          "name": "approved",
          "type": "bool"
        }
      ],
      "name": "setApprovalForAll",
      "outputs": [],
      "stateMutability": "payable",
      "type": "function"
    },
    {
      "inputs": [
        {
          "internalType": "address",
          "name": "to",
          "type": "address"
        },
        {
          "internalType": "bool",
          "name": "approve",
          "type": "bool"
        }
      ],
      "name": "setGovernance",
      "outputs": [],
      "stateMutability": "payable",
      "type": "function"
    },
    {
      "inputs": [
        {
          "internalType": "uint64",
          "name": "threshold",
          "type": "uint64"
        }
      ],
      "name": "setQuorum",
      "outputs": [],
      "stateMutability": "payable",
      "type": "function"
    },
    {
      "inputs": [
        {
          "internalType": "uint256",
          "name": "id",
          "type": "uint256"
        },
        {
          "internalType": "bool",
          "name": "transferability",
          "type": "bool"
        }
      ],
      "name": "setTokenTransferability",
      "outputs": [],
      "stateMutability": "payable",
      "type": "function"
    },
    {
      "inputs": [
        {
          "internalType": "uint256",
          "name": "id",
          "type": "uint256"
        },
        {
          "internalType": "string",
          "name": "tokenURI",
          "type": "string"
        }
      ],
      "name": "setTokenURI",
      "outputs": [],
      "stateMutability": "payable",
      "type": "function"
    },
    {
      "inputs": [
        {
          "internalType": "bytes4",
          "name": "interfaceId",
          "type": "bytes4"
        }
      ],
      "name": "supportsInterface",
      "outputs": [
        {
          "internalType": "bool",
          "name": "",
          "type": "bool"
        }
      ],
      "stateMutability": "pure",
      "type": "function"
    },
    {
      "inputs": [],
      "name": "totalSupply",
      "outputs": [
        {
          "internalType": "uint128",
          "name": "",
          "type": "uint128"
        }
      ],
      "stateMutability": "view",
      "type": "function"
    },
    {
      "inputs": [
        {
          "internalType": "uint256",
          "name": "",
          "type": "uint256"
        }
      ],
      "name": "transferable",
      "outputs": [
        {
          "internalType": "bool",
          "name": "",
          "type": "bool"
        }
      ],
      "stateMutability": "view",
      "type": "function"
    },
    {
      "inputs": [
        {
          "internalType": "uint256",
          "name": "id",
          "type": "uint256"
        }
      ],
      "name": "uri",
      "outputs": [
        {
          "internalType": "string",
          "name": "",
          "type": "string"
        }
      ],
      "stateMutability": "view",
      "type": "function"
    }
  ],
  "bytecode": {
    "object": "0x60a060405260405162003d2938038062003d29833981016040819052620000269162000038565b6001600160a01b03166080526200006a565b6000602082840312156200004b57600080fd5b81516001600160a01b03811681146200006357600080fd5b9392505050565b608051613ca3620000866000396000610c4e0152613ca36000f3fe6080604052600436106102845760003560e01c8063731133e911610153578063affed0e0116100cb578063e985e9c51161007f578063f242432a11610064578063f242432a14610806578063f4c3b4d714610819578063f5298aca1461084957600080fd5b8063e985e9c51461079e578063f23a6e61146107d957600080fd5b8063bc197c81116100b0578063bc197c811461073c578063c590e89f1461076b578063d4606ab91461077e57600080fd5b8063affed0e014610708578063b2839f5e1461072957600080fd5b80638585c94511610122578063a22cb46511610107578063a22cb4651461069d578063ac9650d8146106b0578063afa88bca146106d057600080fd5b80638585c945146106775780638c995b911461068a57600080fd5b8063731133e9146105f4578063807df56d14610607578063836eebee146106275780638426e6c11461064757600080fd5b806318160ddd116102015780634e1273f4116101b557806357ac01ad1161019a57806357ac01ad1461059e57806363a846f8146105b1578063704b6c02146105e157600080fd5b80634e1273f41461055e57806354d7926f1461058b57600080fd5b80632eb2c2d6116101e65780632eb2c2d6146104b45780633644e515146104c7578063387bbabd146104dc57600080fd5b806318160ddd1461042b57806327dd1b001461047c57600080fd5b80630e89341c11610258578063158a1ca11161023d578063158a1ca1146103c4578063162094c4146103d75780631703a018146103ea57600080fd5b80630e89341c14610339578063150b7a021461036657600080fd5b8062fdd58e1461028957806301ffc9a7146102d4578063023e8d8414610304578063026e402b14610324575b600080fd5b34801561029557600080fd5b506102c16102a4366004612eee565b600460209081526000928352604080842090915290825290205481565b6040519081526020015b60405180910390f35b3480156102e057600080fd5b506102f46102ef366004612f31565b61085c565b60405190151581526020016102cb565b610317610312366004612f9a565b6108e0565b6040516102cb9190612fdc565b610337610332366004612eee565b610abb565b005b34801561034557600080fd5b50610359610354366004613022565b610b91565b6040516102cb9190613093565b34801561037257600080fd5b506103ab6103813660046130e8565b7f150b7a020000000000000000000000000000000000000000000000000000000095945050505050565b6040516001600160e01b031990911681526020016102cb565b6103376103d2366004613167565b610cd2565b6103376103e536600461319a565b610d8e565b3480156103f657600080fd5b5060065461041290600160401b900467ffffffffffffffff1681565b60405167ffffffffffffffff90911681526020016102cb565b34801561043757600080fd5b5060065461045b90600160801b90046fffffffffffffffffffffffffffffffff1681565b6040516fffffffffffffffffffffffffffffffff90911681526020016102cb565b34801561048857600080fd5b5061049c610497366004612eee565b610e41565b6040516001600160a01b0390911681526020016102cb565b6103376104c23660046131e6565b610e7f565b3480156104d357600080fd5b506102c161113b565b3480156104e857600080fd5b506105366104f73660046132a1565b600360209081526000938452604080852082529284528284209052825290205467ffffffffffffffff811690600160401b90046001600160c01b031682565b6040805167ffffffffffffffff90931683526001600160c01b039091166020830152016102cb565b34801561056a57600080fd5b5061057e6105793660046132d4565b611216565b6040516102cb9190613340565b610337610599366004613378565b61132b565b6103376105ac36600461339b565b6113de565b3480156105bd57600080fd5b506102f46105cc36600461339b565b60086020526000908152604090205460ff1681565b6103376105ef36600461339b565b61151f565b6103376106023660046133b6565b61158b565b34801561061357600080fd5b506102c1610622366004612eee565b611603565b34801561063357600080fd5b506102c16106423660046132a1565b611687565b34801561065357600080fd5b506102f461066236600461339b565b60096020526000908152604090205460ff1681565b610337610685366004613401565b6118cb565b6102f461069836600461343a565b6119e3565b6103376106ab366004613167565b611d45565b6106c36106be366004612f9a565b611daa565b6040516102cb9190613505565b3480156106dc57600080fd5b506102c16106eb366004612eee565b600260209081526000928352604080842090915290825290205481565b34801561071457600080fd5b506006546104129067ffffffffffffffff1681565b61033761073736600461339b565b611f13565b34801561074857600080fd5b506103ab6107573660046131e6565b63bc197c8160e01b98975050505050505050565b610337610779366004613567565b611ffc565b34801561078a57600080fd5b506102c16107993660046135db565b612333565b3480156107aa57600080fd5b506102f46107b9366004613652565b600560209081526000928352604080842090915290825290205460ff1681565b3480156107e557600080fd5b506103ab6107f436600461367c565b63f23a6e6160e01b9695505050505050565b61033761081436600461367c565b6123f4565b34801561082557600080fd5b506102f4610834366004613022565b60006020819052908152604090205460ff1681565b6103376108573660046132a1565b612629565b60007f01ffc9a7000000000000000000000000000000000000000000000000000000006001600160e01b0319831614806108bf57507fd9b67a26000000000000000000000000000000000000000000000000000000006001600160e01b03198316145b806108da57506303a24d0760e21b6001600160e01b03198316145b92915050565b606033301480159061090257503360009081526009602052604090205460ff16155b801561091e57503360009081526008602052604090205460ff16155b1561093c57604051633d83866f60e01b815260040160405180910390fd5b8167ffffffffffffffff811115610955576109556136f4565b60405190808252806020026020018201604052801561097e578160200160208202803683370190505b50905060005b82811015610ab457610a8a8484838181106109a1576109a161370a565b90506020028101906109b39190613720565b6109c1906020810190613740565b8585848181106109d3576109d361370a565b90506020028101906109e59190613720565b6109f690604081019060200161339b565b868685818110610a0857610a0861370a565b9050602002810190610a1a9190613720565b60400135878786818110610a3057610a3061370a565b9050602002810190610a429190613720565b610a5090606081019061375b565b8080601f0160208091040260200160405190810160405280939291908181526020018383808284376000920191909152506126e292505050565b828281518110610a9c57610a9c61370a565b91151560209283029190910190910152600101610984565b5092915050565b6000610ac73383610e41565b336000818152600160209081526040808320878452825280832080547fffffffffffffffffffffffff0000000000000000000000000000000000000000166001600160a01b038a161790559282526004815282822086835290522054909150610b3590829085908590612908565b826001600160a01b0316816001600160a01b0316336001600160a01b03167fb846dc53d3621f480d692e73f4473156d20f23ff6b2c8237b7130b883226cca985604051610b8491815260200190565b60405180910390a4505050565b6000818152600a6020526040812080546060929190610baf906137a2565b80601f0160208091040260200160405190810160405280929190818152602001828054610bdb906137a2565b8015610c285780601f10610bfd57610100808354040283529160200191610c28565b820191906000526020600020905b815481529060010190602001808311610c0b57829003601f168201915b5050505050905080516000036108da576040516303a24d0760e21b8152600481018490527f00000000000000000000000000000000000000000000000000000000000000006001600160a01b031690630e89341c90602401600060405180830381865afa158015610c9d573d6000803e3d6000fd5b505050506040513d6000823e601f3d908101601f19168201604052610cc591908101906137d6565b9392505050565b50919050565b333014801590610cf257503360009081526009602052604090205460ff16155b8015610d0e57503360009081526008602052604090205460ff16155b15610d2c57604051633d83866f60e01b815260040160405180910390fd5b6001600160a01b038216600081815260096020908152604091829020805460ff1916851515908117909155915191825233917f4a095fd4c00c15af45ad40f2fcb94a1066f92e52d9fa4b0be820fab3dfdf665d91015b60405180910390a35050565b333014801590610dae57503360009081526009602052604090205460ff16155b8015610dca57503360009081526008602052604090205460ff16155b15610de857604051633d83866f60e01b815260040160405180910390fd5b6000838152600a60205260409020610e018284836138c9565b50827f6bb7ff708619ba0610cba295a58592e0451dee2622938c8755667688daf3529b8383604051610e349291906139b2565b60405180910390a2505050565b6001600160a01b0380831660009081526001602090815260408083208584529091528120549091168015610e755780610e77565b835b949350505050565b848314610e9f5760405163899ef10d60e01b815260040160405180910390fd5b336001600160a01b03891614801590610edc57506001600160a01b038816600090815260056020908152604080832033845290915290205460ff16155b15610efa57604051633d83866f60e01b815260040160405180910390fd5b60008060005b8781101561100b57888882818110610f1a57610f1a61370a565b905060200201359250868682818110610f3557610f3561370a565b600086815260208181526040909120549102929092013593505060ff16610f6f57604051634f8cca5b60e11b815260040160405180910390fd5b6001600160a01b038b16600090815260046020908152604080832086845290915281208054849290610fa29084906139dc565b90915550506001600160a01b038a16600090815260046020908152604080832086845290915281208054849290610fda9084906139f3565b9091555050821561100357611003610ff28c85610e41565b610ffc8c86610e41565b8585612908565b600101610f00565b50886001600160a01b03168a6001600160a01b0316336001600160a01b03167f4a39dc06d4c0dbc64b70af90fd698a233a518aa5d07e595d983b8c0526c8f7fb8b8b8b8b60405161105f9493929190613a5a565b60405180910390a46001600160a01b0389163b156111055760405163bc197c8160e01b808252906001600160a01b038b169063bc197c81906110b39033908f908e908e908e908e908e908e90600401613a81565b602060405180830381865afa1580156110d0573d6000803e3d6000fd5b505050506040513d601f19601f820116820180604052508101906110f49190613ad6565b6001600160e01b0319161415611111565b6001600160a01b038916155b1561112f5760405163290802d360e11b815260040160405180910390fd5b50505050505050505050565b60003660011981013560f01c900360030135461461120f5750604080518082018252600881526725b0b634a1b63ab160c11b60209182015281517f8b73c3c69bb8fe3d512ecc4cf759cc79239f7b179b0ffacaa9a75d522b39400f818301527f5b5b1483404ac93e4d9b025a8feb4c5ea9304085ab2e513c578af4cec7eb5319818401527fc89efdaa54c0f20c7adf612882df0950f5a951637e0307cdcb4c672f298b8bc660608201524660808201523060a0808301919091528351808303909101815260c0909101909252815191012090565b5060075490565b60608382146112385760405163899ef10d60e01b815260040160405180910390fd5b8367ffffffffffffffff811115611251576112516136f4565b60405190808252806020026020018201604052801561127a578160200160208202803683370190505b50905060005b84811015611322576004600087878481811061129e5761129e61370a565b90506020020160208101906112b3919061339b565b6001600160a01b03166001600160a01b0316815260200190815260200160002060008585848181106112e7576112e761370a565b9050602002013581526020019081526020016000205482828151811061130f5761130f61370a565b6020908102919091010152600101611280565b50949350505050565b33301480159061134b57503360009081526009602052604090205460ff16155b801561136757503360009081526008602052604090205460ff16155b1561138557604051633d83866f60e01b815260040160405180910390fd5b60008281526020818152604091829020805460ff191684151590811790915582518581529182015233917f92d6650e3daf0c48674c410d3d8a281fe4d48a5a2236fe505d38e4da21120087910160405180910390a25050565b3330148015906113fe57503360009081526009602052604090205460ff16155b801561141a57503360009081526008602052604090205460ff16155b1561143857604051633d83866f60e01b815260040160405180910390fd5b6001600160a01b03811660009081526004602090815260408083208380529091528120805490919061146990613af3565b90915550600680546fffffffffffffffffffffffffffffffff808216600160801b9283900482166000190182168302179283905590820416600160401b90910467ffffffffffffffff1611156114d257604051631534858160e01b815260040160405180910390fd5b60408051600080825260016020830152916001600160a01b0384169133917fc3d58168c5ae7397731d063d5bbf3d657854427343f4c083240f7aacaa2d0f6291015b60405180910390a450565b33301461153f57604051633d83866f60e01b815260040160405180910390fd5b6001600160a01b038116600081815260086020526040808220805460ff19166001179055517f8fe72c3e0020beb3234e76ae6676fa576fbfcae600af1c4fea44784cf0db329c9190a250565b3330148015906115ab57503360009081526009602052604090205460ff16155b80156115c757503360009081526008602052604090205460ff16155b156115e557604051633d83866f60e01b815260040160405180910390fd5b836115ef57600080fd5b6115fc8585858585612aae565b5050505050565b6001600160a01b0382166000908152600260209081526040808320848452909152812054808203611635576000611676565b6001600160a01b0384166000908152600360209081526040808320868452825280832060001985018452909152902054600160401b90046001600160c01b03165b6001600160c01b0316949350505050565b60008142116116c2576040517f83aace3d00000000000000000000000000000000000000000000000000000000815260040160405180910390fd5b6001600160a01b0384166000908152600260209081526040808320868452909152812054908190036116f8576000915050610cc5565b6001600160a01b038516600090815260036020908152604080832087845282528083206000198501845290915290205467ffffffffffffffff168310611780576001600160a01b03851660009081526003602090815260408083208784528252808320600019909401835292905220546001600160c01b03600160401b909104169050610cc5565b6001600160a01b0385166000908152600360209081526040808320878452825280832083805290915290205467ffffffffffffffff168310156117c7576000915050610cc5565b600060001982015b81811115611885576001600160a01b0387166000908152600360209081526040808320898452825280832060028686030485038085529083529281902081518083019092525467ffffffffffffffff8116808352600160401b9091046001600160c01b0316928201929092529087900361185c57602001516001600160c01b03169450610cc59350505050565b805167ffffffffffffffff168711156118775781935061187e565b6001820392505b50506117cf565b506001600160a01b038616600090815260036020908152604080832088845282528083209383529290522054600160401b90046001600160c01b03169150509392505050565b3330148015906118eb57503360009081526009602052604090205460ff16155b801561190757503360009081526008602052604090205460ff16155b1561192557604051633d83866f60e01b815260040160405180910390fd5b600654600160801b90046fffffffffffffffffffffffffffffffff1667ffffffffffffffff8216111561196b57604051631534858160e01b815260040160405180910390fd5b600680547fffffffffffffffffffffffffffffffff0000000000000000ffffffffffffffff16600160401b67ffffffffffffffff84169081029190911790915560405190815233907f54e7ed672a68dee1fe4f4da8b306a8318894dd65c07123309467447ed34b1aa19060200160405180910390a250565b6006546000908190611a08908a908a908a908a908a9067ffffffffffffffff16612333565b600654909150600090600160401b900467ffffffffffffffff16815b81811015611cf3576000600185898985818110611a4357611a4361370a565b611a599260206060909202019081019150613b0a565b8a8a86818110611a6b57611a6b61370a565b905060600201602001358b8b87818110611a8757611a8761370a565b9050606002016040013560405160008152602001604052604051611ac7949392919093845260ff9290921660208401526040830152606082015260800190565b6020604051602081039080840390855afa158015611ae9573d6000803e3d6000fd5b5050604051601f1901519150506001600160a01b0381163b15611c74577f1626ba7e000000000000000000000000000000000000000000000000000000006001600160a01b038216631626ba7e878b8b87818110611b4957611b4961370a565b905060600201602001358c8c88818110611b6557611b6561370a565b905060600201604001358d8d89818110611b8157611b8161370a565b611b979260206060909202019081019150613b0a565b604051602001611bdf93929190928352602083019190915260f81b7fff0000000000000000000000000000000000000000000000000000000000000016604082015260410190565b6040516020818303038152906040526040518363ffffffff1660e01b8152600401611c0b929190613b2d565b602060405180830381865afa158015611c28573d6000803e3d6000fd5b505050506040513d601f19601f82011682018060405250810190611c4c9190613ad6565b6001600160e01b03191614611c7457604051633ba7c2c960e21b815260040160405180910390fd5b6001600160a01b03811660009081526004602090815260408083208380529091528120549003611cb757604051633ba7c2c960e21b815260040160405180910390fd5b806001600160a01b0316846001600160a01b031610611ce957604051633ba7c2c960e21b815260040160405180910390fd5b9250600101611a24565b50611d368b8b8b8b8b8080601f0160208091040260200160405190810160405280939291908181526020018383808284376000920191909152506126e292505050565b9b9a5050505050505050505050565b3360008181526005602090815260408083206001600160a01b03871680855290835292819020805460ff191686151590811790915590519081529192917f17307eab39ab6107e8899845ad3d59bd9653f200f220920489ca2b5937696c319101610d82565b60608167ffffffffffffffff811115611dc557611dc56136f4565b604051908082528060200260200182016040528015611df857816020015b6060815260200190600190039081611de35790505b50905060005b82811015610ab45760008030868685818110611e1c57611e1c61370a565b9050602002810190611e2e919061375b565b604051611e3c929190613b46565b600060405180830381855af49150503d8060008114611e77576040519150601f19603f3d011682016040523d82523d6000602084013e611e7c565b606091505b509150915081611eeb57604481511015611e9557600080fd5b60048101905080806020019051810190611eaf91906137d6565b6040517f08c379a0000000000000000000000000000000000000000000000000000000008152600401611ee29190613093565b60405180910390fd5b80848481518110611efe57611efe61370a565b60209081029190910101525050600101611dfe565b333014801590611f3357503360009081526009602052604090205460ff16155b8015611f4f57503360009081526008602052604090205460ff16155b15611f6d57604051633d83866f60e01b815260040160405180910390fd5b6001600160a01b038116600081815260046020908152604080832083805290915280822080546001908101909155600680546fffffffffffffffffffffffffffffffff600160801b808304821685018216029116179055905133917fc3d58168c5ae7397731d063d5bbf3d657854427343f4c083240f7aacaa2d0f629161151491858252602082015260400190565b60065467ffffffffffffffff1615612040576040517fb2c6f10f00000000000000000000000000000000000000000000000000000000815260040160405180910390fd5b8061204a57600080fd5b8181111561206b57604051631534858160e01b815260040160405180910390fd5b831561212b5760005b84811015612129576121208686838181106120915761209161370a565b90506020028101906120a39190613720565b6120b1906020810190613740565b8787848181106120c3576120c361370a565b90506020028101906120d59190613720565b6120e690604081019060200161339b565b8888858181106120f8576120f861370a565b905060200281019061210a9190613720565b60400135898986818110610a3057610a3061370a565b50600101612074565b505b6000806000805b858110156122095786868281811061214c5761214c61370a565b9050602002016020810190612161919061339b565b9350836001600160a01b0316836001600160a01b03161061219557604051633ba7c2c960e21b815260040160405180910390fd5b6001600160a01b0384166000818152600460209081526040808320838052825280832080546001908101909155815184815292830181905281518998509681019695019433927fc3d58168c5ae7397731d063d5bbf3d657854427343f4c083240f7aacaa2d0f6292908290030190a4612132565b50600680546fffffffffffffffffffffffffffffffff808416600160801b0267ffffffffffffffff8816600160401b027fffffffffffffffffffffffffffffffff000000000000000000000000000000009093169290921760011716179055612326604080518082018252600881526725b0b634a1b63ab160c11b60209182015281517f8b73c3c69bb8fe3d512ecc4cf759cc79239f7b179b0ffacaa9a75d522b39400f818301527f5b5b1483404ac93e4d9b025a8feb4c5ea9304085ab2e513c578af4cec7eb5319818401527fc89efdaa54c0f20c7adf612882df0950f5a951637e0307cdcb4c672f298b8bc660608201524660808201523060a0808301919091528351808303909101815260c0909101909252815191012090565b6007555050505050505050565b600061233d61113b565b7f93a4f3ad100766ac785e9e2986ae4f906eea3a67ef943c27112979356b418b3588888888888860405160200161237a9796959493929190613b8e565b604051602081830303815290604052805190602001206040516020016123d29291907f190100000000000000000000000000000000000000000000000000000000000081526002810192909252602282015260420190565b6040516020818303038152906040528051906020012090509695505050505050565b336001600160a01b0387161480159061243157506001600160a01b038616600090815260056020908152604080832033845290915290205460ff16155b1561244f57604051633d83866f60e01b815260040160405180910390fd5b60008481526020819052604090205460ff1661247e57604051634f8cca5b60e11b815260040160405180910390fd5b6001600160a01b0386166000908152600460209081526040808320878452909152812080548592906124b19084906139dc565b90915550506001600160a01b0385166000908152600460209081526040808320878452909152812080548592906124e99084906139f3565b909155505060408051858152602081018590526001600160a01b03808816929089169133917fc3d58168c5ae7397731d063d5bbf3d657854427343f4c083240f7aacaa2d0f62910160405180910390a46001600160a01b0385163b156125d35760405163f23a6e6160e01b808252906001600160a01b0387169063f23a6e61906125819033908b908a908a908a908a90600401613bde565b602060405180830381865afa15801561259e573d6000803e3d6000fd5b505050506040513d601f19601f820116820180604052508101906125c29190613ad6565b6001600160e01b03191614156125df565b6001600160a01b038516155b156125fd5760405163290802d360e11b815260040160405180910390fd5b8315612621576126216126108786610e41565b61261a8787610e41565b8686612908565b505050505050565b8161263357600080fd5b336001600160a01b0384161480159061267057506001600160a01b038316600090815260056020908152604080832033845290915290205460ff16155b801561267c5750333014155b801561269857503360009081526009602052604090205460ff16155b80156126b457503360009081526008602052604090205460ff16155b156126d257604051633d83866f60e01b815260040160405180910390fd5b6126dd838383612c03565b505050565b6006805467ffffffffffffffff8082166001011667ffffffffffffffff1990911617905560008085600381111561271b5761271b613b56565b036127975760008083516020850186885af190508061274d57604051633c47f9b560e21b815260040160405180910390fd5b836001600160a01b03167ffa3c55dc43f5cfdeb2abee243c63ad490db2fee39fd127076ed9e7afa15ad63886858560405161278a93929190613c23565b60405180910390a2610e77565b60018560038111156127ab576127ab613b56565b036127dc57600080835160208501875af490508061274d57604051633c47f9b560e21b815260040160405180910390fd5b60028560038111156127f0576127f0613b56565b0361287157600082516020840185f090506001600160a01b03811661282857604051633c47f9b560e21b815260040160405180910390fd5b806001600160a01b03167fd187b7c22150909fa5ee0d652f5966e66148500fabe5615b1079e7ef39fe3fb78786604051612863929190613c52565b60405180910390a250610e77565b6000808560601b6bffffffffffffffffffffffff191690508084518560200187f591506001600160a01b0382166128bb57604051633c47f9b560e21b815260040160405180910390fd5b816001600160a01b03167fd187b7c22150909fa5ee0d652f5966e66148500fabe5615b1079e7ef39fe3fb788876040516128f6929190613c52565b60405180910390a25050949350505050565b826001600160a01b0316846001600160a01b03161415801561292957508015155b15612aa8576001600160a01b038416156129eb576001600160a01b0384166000908152600260209081526040808320858452909152812054908181036129705760006129c1565b6001600160a01b038616600090815260036020908152604080832087845290915281209061299f6001856139dc565b8152602081019190915260400160002054600160401b90046001600160c01b03165b6001600160c01b0316905060006129d884836139dc565b90506129e78786858585612c98565b5050505b6001600160a01b03831615612aa8576001600160a01b038316600090815260026020908152604080832085845290915281205490818103612a2d576000612a7e565b6001600160a01b0385166000908152600360209081526040808320878452909152812090612a5c6001856139dc565b8152602081019190915260400160002054600160401b90046001600160c01b03165b6001600160c01b031690506000612a9584836139f3565b9050612aa48686858585612c98565b5050505b50505050565b6001600160a01b038516600090815260046020908152604080832087845290915281208054859290612ae19084906139f3565b909155505060408051858152602081018590526001600160a01b0387169160009133917fc3d58168c5ae7397731d063d5bbf3d657854427343f4c083240f7aacaa2d0f62910160405180910390a46001600160a01b0385163b15612bca5760405163f23a6e6160e01b808252906001600160a01b0387169063f23a6e6190612b789033906000908a908a908a908a90600401613bde565b602060405180830381865afa158015612b95573d6000803e3d6000fd5b505050506040513d601f19601f82011682018060405250810190612bb99190613ad6565b6001600160e01b0319161415612bd6565b6001600160a01b038516155b15612bf45760405163290802d360e11b815260040160405180910390fd5b6115fc600061261a8787610e41565b6001600160a01b038316600090815260046020908152604080832085845290915281208054839290612c369084906139dc565b90915550612c529050612c498484610e41565b60008484612908565b60408051838152602081018390526000916001600160a01b0386169133917fc3d58168c5ae7397731d063d5bbf3d657854427343f4c083240f7aacaa2d0f629101610b84565b8215801590612cdf57506001600160a01b038516600090815260036020908152604080832087845282528083206000198701845290915290205467ffffffffffffffff1642145b15612d4757612ced81612e39565b6001600160a01b0386166000908152600360209081526040808320888452825280832060001988018452909152902080546001600160c01b0392909216600160401b0267ffffffffffffffff909216919091179055612de6565b6040518060400160405280612d5b42612e92565b67ffffffffffffffff168152602001612d7383612e39565b6001600160c01b039081169091526001600160a01b03871660008181526003602090815260408083208a845282528083208984528252808320865196830151909516600160401b0267ffffffffffffffff9096169590951790935590815260028252828120878252909152206001840190555b60408051858152602081018490529081018290526001600160a01b038616907f21a99d51b8a0a2e2ead709843a1ecfaab977908135cf1c085c0a6246eea6e0f09060600160405180910390a25050505050565b60007801000000000000000000000000000000000000000000000000821115612e8e576040517fd5e0d1b200000000000000000000000000000000000000000000000000000000815260040160405180910390fd5b5090565b6000600160401b821115612e8e576040517f5b7f254e00000000000000000000000000000000000000000000000000000000815260040160405180910390fd5b80356001600160a01b0381168114612ee957600080fd5b919050565b60008060408385031215612f0157600080fd5b612f0a83612ed2565b946020939093013593505050565b6001600160e01b031981168114612f2e57600080fd5b50565b600060208284031215612f4357600080fd5b8135610cc581612f18565b60008083601f840112612f6057600080fd5b50813567ffffffffffffffff811115612f7857600080fd5b6020830191508360208260051b8501011115612f9357600080fd5b9250929050565b60008060208385031215612fad57600080fd5b823567ffffffffffffffff811115612fc457600080fd5b612fd085828601612f4e565b90969095509350505050565b6020808252825182820181905260009190848201906040850190845b81811015613016578351151583529284019291840191600101612ff8565b50909695505050505050565b60006020828403121561303457600080fd5b5035919050565b60005b8381101561305657818101518382015260200161303e565b83811115612aa85750506000910152565b6000815180845261307f81602086016020860161303b565b601f01601f19169290920160200192915050565b602081526000610cc56020830184613067565b60008083601f8401126130b857600080fd5b50813567ffffffffffffffff8111156130d057600080fd5b602083019150836020828501011115612f9357600080fd5b60008060008060006080868803121561310057600080fd5b61310986612ed2565b945061311760208701612ed2565b935060408601359250606086013567ffffffffffffffff81111561313a57600080fd5b613146888289016130a6565b969995985093965092949392505050565b80358015158114612ee957600080fd5b6000806040838503121561317a57600080fd5b61318383612ed2565b915061319160208401613157565b90509250929050565b6000806000604084860312156131af57600080fd5b83359250602084013567ffffffffffffffff8111156131cd57600080fd5b6131d9868287016130a6565b9497909650939450505050565b60008060008060008060008060a0898b03121561320257600080fd5b61320b89612ed2565b975061321960208a01612ed2565b9650604089013567ffffffffffffffff8082111561323657600080fd5b6132428c838d01612f4e565b909850965060608b013591508082111561325b57600080fd5b6132678c838d01612f4e565b909650945060808b013591508082111561328057600080fd5b5061328d8b828c016130a6565b999c989b5096995094979396929594505050565b6000806000606084860312156132b657600080fd5b6132bf84612ed2565b95602085013595506040909401359392505050565b600080600080604085870312156132ea57600080fd5b843567ffffffffffffffff8082111561330257600080fd5b61330e88838901612f4e565b9096509450602087013591508082111561332757600080fd5b5061333487828801612f4e565b95989497509550505050565b6020808252825182820181905260009190848201906040850190845b818110156130165783518352928401929184019160010161335c565b6000806040838503121561338b57600080fd5b8235915061319160208401613157565b6000602082840312156133ad57600080fd5b610cc582612ed2565b6000806000806000608086880312156133ce57600080fd5b6133d786612ed2565b94506020860135935060408601359250606086013567ffffffffffffffff81111561313a57600080fd5b60006020828403121561341357600080fd5b813567ffffffffffffffff81168114610cc557600080fd5b803560048110612ee957600080fd5b600080600080600080600060a0888a03121561345557600080fd5b61345e8861342b565b965061346c60208901612ed2565b955060408801359450606088013567ffffffffffffffff8082111561349057600080fd5b61349c8b838c016130a6565b909650945060808a01359150808211156134b557600080fd5b818a0191508a601f8301126134c957600080fd5b8135818111156134d857600080fd5b8b60206060830285010111156134ed57600080fd5b60208301945080935050505092959891949750929550565b6000602080830181845280855180835260408601915060408160051b870101925083870160005b8281101561355a57603f19888603018452613548858351613067565b9450928501929085019060010161352c565b5092979650505050505050565b60008060008060006060868803121561357f57600080fd5b853567ffffffffffffffff8082111561359757600080fd5b6135a389838a01612f4e565b909750955060208801359150808211156135bc57600080fd5b506135c988828901612f4e565b96999598509660400135949350505050565b60008060008060008060a087890312156135f457600080fd5b6135fd8761342b565b955061360b60208801612ed2565b945060408701359350606087013567ffffffffffffffff81111561362e57600080fd5b61363a89828a016130a6565b979a9699509497949695608090950135949350505050565b6000806040838503121561366557600080fd5b61366e83612ed2565b915061319160208401612ed2565b60008060008060008060a0878903121561369557600080fd5b61369e87612ed2565b95506136ac60208801612ed2565b94506040870135935060608701359250608087013567ffffffffffffffff8111156136d657600080fd5b6136e289828a016130a6565b979a9699509497509295939492505050565b634e487b7160e01b600052604160045260246000fd5b634e487b7160e01b600052603260045260246000fd5b60008235607e1983360301811261373657600080fd5b9190910192915050565b60006020828403121561375257600080fd5b610cc58261342b565b6000808335601e1984360301811261377257600080fd5b83018035915067ffffffffffffffff82111561378d57600080fd5b602001915036819003821315612f9357600080fd5b600181811c908216806137b657607f821691505b602082108103610ccc57634e487b7160e01b600052602260045260246000fd5b6000602082840312156137e857600080fd5b815167ffffffffffffffff8082111561380057600080fd5b818401915084601f83011261381457600080fd5b815181811115613826576138266136f4565b604051601f8201601f19908116603f0116810190838211818310171561384e5761384e6136f4565b8160405282815287602084870101111561386757600080fd5b61387883602083016020880161303b565b979650505050505050565b601f8211156126dd57600081815260208120601f850160051c810160208610156138aa5750805b601f850160051c820191505b81811015612621578281556001016138b6565b67ffffffffffffffff8311156138e1576138e16136f4565b6138f5836138ef83546137a2565b83613883565b6000601f84116001811461392957600085156139115750838201355b600019600387901b1c1916600186901b1783556115fc565b600083815260209020601f19861690835b8281101561395a578685013582556020948501946001909201910161393a565b50868210156139775760001960f88860031b161c19848701351681555b505060018560011b0183555050505050565b81835281816020850137506000828201602090810191909152601f909101601f19169091010190565b602081526000610e77602083018486613989565b634e487b7160e01b600052601160045260246000fd5b6000828210156139ee576139ee6139c6565b500390565b60008219821115613a0657613a066139c6565b500190565b81835260007f07ffffffffffffffffffffffffffffffffffffffffffffffffffffffffffffff831115613a3d57600080fd5b8260051b8083602087013760009401602001938452509192915050565b604081526000613a6e604083018688613a0b565b8281036020840152613878818587613a0b565b60006001600160a01b03808b168352808a1660208401525060a06040830152613aae60a08301888a613a0b565b8281036060840152613ac1818789613a0b565b90508281036080840152611d36818587613989565b600060208284031215613ae857600080fd5b8151610cc581612f18565b600081613b0257613b026139c6565b506000190190565b600060208284031215613b1c57600080fd5b813560ff81168114610cc557600080fd5b828152604060208201526000610e776040830184613067565b8183823760009101908152919050565b634e487b7160e01b600052602160045260246000fd5b60048110613b8a57634e487b7160e01b600052602160045260246000fd5b9052565b878152613b9e6020820188613b6c565b6001600160a01b038616604082015284606082015260c060808201526000613bca60c083018587613989565b90508260a083015298975050505050505050565b60006001600160a01b03808916835280881660208401525085604083015284606083015260a06080830152613c1760a083018486613989565b98975050505050505050565b613c2d8185613b6c565b826020820152606060408201526000613c496060830184613067565b95945050505050565b60408101613c608285613b6c565b826020830152939250505056fea2646970667358221220b9deca0ea299efedfeca2060e2610525a2788f18089aa14223acc01b10e777c364736f6c634300080f0033",
    "linkReferences": {}
  }
}