{
  "abi": [
    {
      "inputs": [
        {
          "internalType": "contract KaliClub",
          "name": "_uriFetcher",
          "type": "address"
        }
      ],
      "stateMutability": "payable",
      "type": "constructor"
    },
    {
      "inputs": [],
      "name": "ALREADY_INIT",
      "type": "error"
    },
    {
      "inputs": [],
      "name": "EXECUTE_FAILED",
      "type": "error"
    },
    {
      "inputs": [],
      "name": "INVALID_RECIPIENT",
      "type": "error"
    },
    {
      "inputs": [],
      "name": "INVALID_SIG",
      "type": "error"
    },
    {
      "inputs": [],
      "name": "LENGTH_MISMATCH",
      "type": "error"
    },
    {
      "inputs": [],
      "name": "NONTRANSFERABLE",
      "type": "error"
    },
    {
      "inputs": [],
      "name": "NOT_AUTHORIZED",
      "type": "error"
    },
    {
      "inputs": [],
      "name": "NO_SIGNER_ID",
      "type": "error"
    },
    {
      "inputs": [],
      "name": "QUORUM_OVER_SUPPLY",
      "type": "error"
    },
    {
      "inputs": [],
      "name": "UINT192_MAX",
      "type": "error"
    },
    {
      "inputs": [],
      "name": "UINT64_MAX",
      "type": "error"
    },
    {
      "inputs": [],
      "name": "UNDETERMINED",
      "type": "error"
    },
    {
      "anonymous": false,
      "inputs": [
        {
          "indexed": true,
          "internalType": "address",
          "name": "to",
          "type": "address"
        }
      ],
      "name": "AdminSet",
      "type": "event"
    },
    {
      "anonymous": false,
      "inputs": [
        {
          "indexed": true,
          "internalType": "address",
          "name": "owner",
          "type": "address"
        },
        {
          "indexed": true,
          "internalType": "address",
          "name": "operator",
          "type": "address"
        },
        {
          "indexed": false,
          "internalType": "bool",
          "name": "approved",
          "type": "bool"
        }
      ],
      "name": "ApprovalForAll",
      "type": "event"
    },
    {
      "anonymous": false,
      "inputs": [
        {
          "indexed": true,
          "internalType": "address",
          "name": "delegator",
          "type": "address"
        },
        {
          "indexed": false,
          "internalType": "uint256",
          "name": "id",
          "type": "uint256"
        },
        {
          "indexed": true,
          "internalType": "address",
          "name": "fromDelegate",
          "type": "address"
        },
        {
          "indexed": true,
          "internalType": "address",
          "name": "toDelegate",
          "type": "address"
        }
      ],
      "name": "DelegateChanged",
      "type": "event"
    },
    {
      "anonymous": false,
      "inputs": [
        {
          "indexed": true,
          "internalType": "address",
          "name": "delegate",
          "type": "address"
        },
        {
          "indexed": false,
          "internalType": "uint256",
          "name": "id",
          "type": "uint256"
        },
        {
          "indexed": false,
          "internalType": "uint256",
          "name": "previousBalance",
          "type": "uint256"
        },
        {
          "indexed": false,
          "internalType": "uint256",
          "name": "newBalance",
          "type": "uint256"
        }
      ],
      "name": "DelegateVotesChanged",
      "type": "event"
    },
    {
      "anonymous": false,
      "inputs": [
        {
          "indexed": false,
          "internalType": "enum Operation",
          "name": "op",
          "type": "uint8"
        },
        {
          "indexed": true,
          "internalType": "address",
          "name": "to",
          "type": "address"
        },
        {
          "indexed": false,
          "internalType": "uint256",
          "name": "value",
          "type": "uint256"
        },
        {
          "indexed": false,
          "internalType": "bytes",
          "name": "data",
          "type": "bytes"
        }
      ],
      "name": "Executed",
      "type": "event"
    },
    {
      "anonymous": false,
      "inputs": [
        {
          "indexed": true,
          "internalType": "address",
          "name": "caller",
          "type": "address"
        },
        {
          "indexed": true,
          "internalType": "address",
          "name": "account",
          "type": "address"
        },
        {
          "indexed": false,
          "internalType": "bool",
          "name": "approve",
          "type": "bool"
        }
      ],
      "name": "GovernanceSet",
      "type": "event"
    },
    {
      "anonymous": false,
      "inputs": [
        {
          "indexed": true,
          "internalType": "address",
          "name": "caller",
          "type": "address"
        },
        {
          "indexed": false,
          "internalType": "uint256",
          "name": "threshold",
          "type": "uint256"
        }
      ],
      "name": "QuorumSet",
      "type": "event"
    },
    {
      "anonymous": false,
      "inputs": [
        {
          "indexed": true,
          "internalType": "address",
          "name": "operator",
          "type": "address"
        },
        {
          "indexed": false,
          "internalType": "uint256",
          "name": "id",
          "type": "uint256"
        },
        {
          "indexed": false,
          "internalType": "bool",
          "name": "transferability",
          "type": "bool"
        }
      ],
      "name": "TokenTransferabilitySet",
      "type": "event"
    },
    {
      "anonymous": false,
      "inputs": [
        {
          "indexed": true,
          "internalType": "address",
          "name": "operator",
          "type": "address"
        },
        {
          "indexed": true,
          "internalType": "address",
          "name": "from",
          "type": "address"
        },
        {
          "indexed": true,
          "internalType": "address",
          "name": "to",
          "type": "address"
        },
        {
          "indexed": false,
          "internalType": "uint256[]",
          "name": "ids",
          "type": "uint256[]"
        },
        {
          "indexed": false,
          "internalType": "uint256[]",
          "name": "amounts",
          "type": "uint256[]"
        }
      ],
      "name": "TransferBatch",
      "type": "event"
    },
    {
      "anonymous": false,
      "inputs": [
        {
          "indexed": true,
          "internalType": "address",
          "name": "operator",
          "type": "address"
        },
        {
          "indexed": true,
          "internalType": "address",
          "name": "from",
          "type": "address"
        },
        {
          "indexed": true,
          "internalType": "address",
          "name": "to",
          "type": "address"
        },
        {
          "indexed": false,
          "internalType": "uint256",
          "name": "id",
          "type": "uint256"
        },
        {
          "indexed": false,
          "internalType": "uint256",
          "name": "amount",
          "type": "uint256"
        }
      ],
      "name": "TransferSingle",
      "type": "event"
    },
    {
      "anonymous": false,
      "inputs": [
        {
          "indexed": false,
          "internalType": "string",
          "name": "value",
          "type": "string"
        },
        {
          "indexed": true,
          "internalType": "uint256",
          "name": "id",
          "type": "uint256"
        }
      ],
      "name": "URI",
      "type": "event"
    },
    {
      "inputs": [],
      "name": "DOMAIN_SEPARATOR",
      "outputs": [
        {
          "internalType": "bytes32",
          "name": "",
          "type": "bytes32"
        }
      ],
      "stateMutability": "view",
      "type": "function"
    },
    {
      "inputs": [
        {
          "internalType": "address",
          "name": "",
          "type": "address"
        }
      ],
      "name": "admin",
      "outputs": [
        {
          "internalType": "bool",
          "name": "",
          "type": "bool"
        }
      ],
      "stateMutability": "view",
      "type": "function"
    },
    {
      "inputs": [
        {
          "internalType": "address",
          "name": "",
          "type": "address"
        },
        {
          "internalType": "uint256",
          "name": "",
          "type": "uint256"
        }
      ],
      "name": "balanceOf",
      "outputs": [
        {
          "internalType": "uint256",
          "name": "",
          "type": "uint256"
        }
      ],
      "stateMutability": "view",
      "type": "function"
    },
    {
      "inputs": [
        {
          "internalType": "address[]",
          "name": "owners",
          "type": "address[]"
        },
        {
          "internalType": "uint256[]",
          "name": "ids",
          "type": "uint256[]"
        }
      ],
      "name": "balanceOfBatch",
      "outputs": [
        {
          "internalType": "uint256[]",
          "name": "balances",
          "type": "uint256[]"
        }
      ],
      "stateMutability": "view",
      "type": "function"
    },
    {
      "inputs": [
        {
          "components": [
            {
              "internalType": "enum Operation",
              "name": "op",
              "type": "uint8"
            },
            {
              "internalType": "address",
              "name": "to",
              "type": "address"
            },
            {
              "internalType": "uint256",
              "name": "value",
              "type": "uint256"
            },
            {
              "internalType": "bytes",
              "name": "data",
              "type": "bytes"
            }
          ],
          "internalType": "struct Call[]",
          "name": "calls",
          "type": "tuple[]"
        }
      ],
      "name": "batchExecute",
      "outputs": [
        {
          "internalType": "bool[]",
          "name": "successes",
          "type": "bool[]"
        }
      ],
      "stateMutability": "payable",
      "type": "function"
    },
    {
      "inputs": [
        {
          "internalType": "address",
          "name": "from",
          "type": "address"
        },
        {
          "internalType": "uint256",
          "name": "id",
          "type": "uint256"
        },
        {
          "internalType": "uint256",
          "name": "amount",
          "type": "uint256"
        }
      ],
      "name": "burn",
      "outputs": [],
      "stateMutability": "payable",
      "type": "function"
    },
    {
      "inputs": [
        {
          "internalType": "address",
          "name": "from",
          "type": "address"
        }
      ],
      "name": "burnSigner",
      "outputs": [],
      "stateMutability": "payable",
      "type": "function"
    },
    {
      "inputs": [
        {
          "internalType": "address",
          "name": "",
          "type": "address"
        },
        {
          "internalType": "uint256",
          "name": "",
          "type": "uint256"
        },
        {
          "internalType": "uint256",
          "name": "",
          "type": "uint256"
        }
      ],
      "name": "checkpoints",
      "outputs": [
        {
          "internalType": "uint64",
          "name": "fromTimestamp",
          "type": "uint64"
        },
        {
          "internalType": "uint192",
          "name": "votes",
          "type": "uint192"
        }
      ],
      "stateMutability": "view",
      "type": "function"
    },
    {
      "inputs": [
        {
          "internalType": "address",
          "name": "account",
          "type": "address"
        },
        {
          "internalType": "uint256",
          "name": "id",
          "type": "uint256"
        }
      ],
      "name": "delegate",
      "outputs": [],
      "stateMutability": "payable",
      "type": "function"
    },
    {
      "inputs": [
        {
          "internalType": "address",
          "name": "account",
          "type": "address"
        },
        {
          "internalType": "uint256",
          "name": "id",
          "type": "uint256"
        }
      ],
      "name": "delegates",
      "outputs": [
        {
          "internalType": "address",
          "name": "",
          "type": "address"
        }
      ],
      "stateMutability": "view",
      "type": "function"
    },
    {
      "inputs": [
        {
          "internalType": "enum Operation",
          "name": "op",
          "type": "uint8"
        },
        {
          "internalType": "address",
          "name": "to",
          "type": "address"
        },
        {
          "internalType": "uint256",
          "name": "value",
          "type": "uint256"
        },
        {
          "internalType": "bytes",
          "name": "data",
          "type": "bytes"
        },
        {
          "components": [
            {
              "internalType": "uint8",
              "name": "v",
              "type": "uint8"
            },
            {
              "internalType": "bytes32",
              "name": "r",
              "type": "bytes32"
            },
            {
              "internalType": "bytes32",
              "name": "s",
              "type": "bytes32"
            }
          ],
          "internalType": "struct Signature[]",
          "name": "sigs",
          "type": "tuple[]"
        }
      ],
      "name": "execute",
      "outputs": [
        {
          "internalType": "bool",
          "name": "success",
          "type": "bool"
        }
      ],
      "stateMutability": "payable",
      "type": "function"
    },
    {
      "inputs": [
        {
          "internalType": "address",
          "name": "account",
          "type": "address"
        },
        {
          "internalType": "uint256",
          "name": "id",
          "type": "uint256"
        }
      ],
      "name": "getCurrentVotes",
      "outputs": [
        {
          "internalType": "uint256",
          "name": "",
          "type": "uint256"
        }
      ],
      "stateMutability": "view",
      "type": "function"
    },
    {
      "inputs": [
        {
          "internalType": "enum Operation",
          "name": "op",
          "type": "uint8"
        },
        {
          "internalType": "address",
          "name": "to",
          "type": "address"
        },
        {
          "internalType": "uint256",
          "name": "value",
          "type": "uint256"
        },
        {
          "internalType": "bytes",
          "name": "data",
          "type": "bytes"
        },
        {
          "internalType": "uint256",
          "name": "txNonce",
          "type": "uint256"
        }
      ],
      "name": "getDigest",
      "outputs": [
        {
          "internalType": "bytes32",
          "name": "",
          "type": "bytes32"
        }
      ],
      "stateMutability": "view",
      "type": "function"
    },
    {
      "inputs": [
        {
          "internalType": "address",
          "name": "account",
          "type": "address"
        },
        {
          "internalType": "uint256",
          "name": "id",
          "type": "uint256"
        },
        {
          "internalType": "uint256",
          "name": "timestamp",
          "type": "uint256"
        }
      ],
      "name": "getPriorVotes",
      "outputs": [
        {
          "internalType": "uint256",
          "name": "",
          "type": "uint256"
        }
      ],
      "stateMutability": "view",
      "type": "function"
    },
    {
      "inputs": [
        {
          "internalType": "address",
          "name": "",
          "type": "address"
        }
      ],
      "name": "governance",
      "outputs": [
        {
          "internalType": "bool",
          "name": "",
          "type": "bool"
        }
      ],
      "stateMutability": "view",
      "type": "function"
    },
    {
      "inputs": [
        {
          "components": [
            {
              "internalType": "enum Operation",
              "name": "op",
              "type": "uint8"
            },
            {
              "internalType": "address",
              "name": "to",
              "type": "address"
            },
            {
              "internalType": "uint256",
              "name": "value",
              "type": "uint256"
            },
            {
              "internalType": "bytes",
              "name": "data",
              "type": "bytes"
            }
          ],
          "internalType": "struct Call[]",
          "name": "calls",
          "type": "tuple[]"
        },
        {
          "internalType": "address[]",
          "name": "signers",
          "type": "address[]"
        },
        {
          "internalType": "uint256",
          "name": "threshold",
          "type": "uint256"
        }
      ],
      "name": "init",
      "outputs": [],
      "stateMutability": "payable",
      "type": "function"
    },
    {
      "inputs": [
        {
          "internalType": "address",
          "name": "",
          "type": "address"
        },
        {
          "internalType": "address",
          "name": "",
          "type": "address"
        }
      ],
      "name": "isApprovedForAll",
      "outputs": [
        {
          "internalType": "bool",
          "name": "",
          "type": "bool"
        }
      ],
      "stateMutability": "view",
      "type": "function"
    },
    {
      "inputs": [
        {
          "internalType": "address",
          "name": "to",
          "type": "address"
        },
        {
          "internalType": "uint256",
          "name": "id",
          "type": "uint256"
        },
        {
          "internalType": "uint256",
          "name": "amount",
          "type": "uint256"
        },
        {
          "internalType": "bytes",
          "name": "data",
          "type": "bytes"
        }
      ],
      "name": "mint",
      "outputs": [],
      "stateMutability": "payable",
      "type": "function"
    },
    {
      "inputs": [
        {
          "internalType": "address",
          "name": "to",
          "type": "address"
        }
      ],
      "name": "mintSigner",
      "outputs": [],
      "stateMutability": "payable",
      "type": "function"
    },
    {
      "inputs": [
        {
          "internalType": "bytes[]",
          "name": "data",
          "type": "bytes[]"
        }
      ],
      "name": "multicall",
      "outputs": [
        {
          "internalType": "bytes[]",
          "name": "results",
          "type": "bytes[]"
        }
      ],
      "stateMutability": "payable",
      "type": "function"
    },
    {
      "inputs": [],
      "name": "nonce",
      "outputs": [
        {
          "internalType": "uint64",
          "name": "",
          "type": "uint64"
        }
      ],
      "stateMutability": "view",
      "type": "function"
    },
    {
      "inputs": [
        {
          "internalType": "address",
          "name": "",
          "type": "address"
        },
        {
          "internalType": "uint256",
          "name": "",
          "type": "uint256"
        }
      ],
      "name": "numCheckpoints",
      "outputs": [
        {
          "internalType": "uint256",
          "name": "",
          "type": "uint256"
        }
      ],
      "stateMutability": "view",
      "type": "function"
    },
    {
      "inputs": [
        {
          "internalType": "address",
          "name": "",
          "type": "address"
        },
        {
          "internalType": "address",
          "name": "",
          "type": "address"
        },
        {
          "internalType": "uint256[]",
          "name": "",
          "type": "uint256[]"
        },
        {
          "internalType": "uint256[]",
          "name": "",
          "type": "uint256[]"
        },
        {
          "internalType": "bytes",
          "name": "",
          "type": "bytes"
        }
      ],
      "name": "onERC1155BatchReceived",
      "outputs": [
        {
          "internalType": "bytes4",
          "name": "",
          "type": "bytes4"
        }
      ],
      "stateMutability": "pure",
      "type": "function"
    },
    {
      "inputs": [
        {
          "internalType": "address",
          "name": "",
          "type": "address"
        },
        {
          "internalType": "address",
          "name": "",
          "type": "address"
        },
        {
          "internalType": "uint256",
          "name": "",
          "type": "uint256"
        },
        {
          "internalType": "uint256",
          "name": "",
          "type": "uint256"
        },
        {
          "internalType": "bytes",
          "name": "",
          "type": "bytes"
        }
      ],
      "name": "onERC1155Received",
      "outputs": [
        {
          "internalType": "bytes4",
          "name": "",
          "type": "bytes4"
        }
      ],
      "stateMutability": "pure",
      "type": "function"
    },
    {
      "inputs": [
        {
          "internalType": "address",
          "name": "",
          "type": "address"
        },
        {
          "internalType": "address",
          "name": "",
          "type": "address"
        },
        {
          "internalType": "uint256",
          "name": "",
          "type": "uint256"
        },
        {
          "internalType": "bytes",
          "name": "",
          "type": "bytes"
        }
      ],
      "name": "onERC721Received",
      "outputs": [
        {
          "internalType": "bytes4",
          "name": "",
          "type": "bytes4"
        }
      ],
      "stateMutability": "pure",
      "type": "function"
    },
    {
      "inputs": [],
      "name": "quorum",
      "outputs": [
        {
          "internalType": "uint64",
          "name": "",
          "type": "uint64"
        }
      ],
      "stateMutability": "view",
      "type": "function"
    },
    {
      "inputs": [
        {
          "internalType": "address",
          "name": "from",
          "type": "address"
        },
        {
          "internalType": "address",
          "name": "to",
          "type": "address"
        },
        {
          "internalType": "uint256[]",
          "name": "ids",
          "type": "uint256[]"
        },
        {
          "internalType": "uint256[]",
          "name": "amounts",
          "type": "uint256[]"
        },
        {
          "internalType": "bytes",
          "name": "data",
          "type": "bytes"
        }
      ],
      "name": "safeBatchTransferFrom",
      "outputs": [],
      "stateMutability": "payable",
      "type": "function"
    },
    {
      "inputs": [
        {
          "internalType": "address",
          "name": "from",
          "type": "address"
        },
        {
          "internalType": "address",
          "name": "to",
          "type": "address"
        },
        {
          "internalType": "uint256",
          "name": "id",
          "type": "uint256"
        },
        {
          "internalType": "uint256",
          "name": "amount",
          "type": "uint256"
        },
        {
          "internalType": "bytes",
          "name": "data",
          "type": "bytes"
        }
      ],
      "name": "safeTransferFrom",
      "outputs": [],
      "stateMutability": "payable",
      "type": "function"
    },
    {
      "inputs": [
        {
          "internalType": "address",
          "name": "to",
          "type": "address"
        }
      ],
      "name": "setAdmin",
      "outputs": [],
      "stateMutability": "payable",
      "type": "function"
    },
    {
      "inputs": [
        {
          "internalType": "address",
          "name": "operator",
          "type": "address"
        },
        {
          "internalType": "bool",
          "name": "approved",
          "type": "bool"
        }
      ],
      "name": "setApprovalForAll",
      "outputs": [],
      "stateMutability": "payable",
      "type": "function"
    },
    {
      "inputs": [
        {
          "internalType": "address",
          "name": "account",
          "type": "address"
        },
        {
          "internalType": "bool",
          "name": "approve",
          "type": "bool"
        }
      ],
      "name": "setGovernance",
      "outputs": [],
      "stateMutability": "payable",
      "type": "function"
    },
    {
      "inputs": [
        {
          "internalType": "uint256",
          "name": "threshold",
          "type": "uint256"
        }
      ],
      "name": "setQuorum",
      "outputs": [],
      "stateMutability": "payable",
      "type": "function"
    },
    {
      "inputs": [
        {
          "internalType": "uint256",
          "name": "id",
          "type": "uint256"
        },
        {
          "internalType": "bool",
          "name": "transferability",
          "type": "bool"
        }
      ],
      "name": "setTokenTransferability",
      "outputs": [],
      "stateMutability": "payable",
      "type": "function"
    },
    {
      "inputs": [
        {
          "internalType": "uint256",
          "name": "id",
          "type": "uint256"
        },
        {
          "internalType": "string",
          "name": "tokenURI",
          "type": "string"
        }
      ],
      "name": "setTokenURI",
      "outputs": [],
      "stateMutability": "payable",
      "type": "function"
    },
    {
      "inputs": [
        {
          "internalType": "bytes4",
          "name": "interfaceId",
          "type": "bytes4"
        }
      ],
      "name": "supportsInterface",
      "outputs": [
        {
          "internalType": "bool",
          "name": "",
          "type": "bool"
        }
      ],
      "stateMutability": "pure",
      "type": "function"
    },
    {
      "inputs": [],
      "name": "totalSupply",
      "outputs": [
        {
          "internalType": "uint64",
          "name": "",
          "type": "uint64"
        }
      ],
      "stateMutability": "view",
      "type": "function"
    },
    {
      "inputs": [
        {
          "internalType": "uint256",
          "name": "",
          "type": "uint256"
        }
      ],
      "name": "transferable",
      "outputs": [
        {
          "internalType": "bool",
          "name": "",
          "type": "bool"
        }
      ],
      "stateMutability": "view",
      "type": "function"
    },
    {
      "inputs": [
        {
          "internalType": "uint256",
          "name": "id",
          "type": "uint256"
        }
      ],
      "name": "uri",
      "outputs": [
        {
          "internalType": "string",
          "name": "",
          "type": "string"
        }
      ],
      "stateMutability": "view",
      "type": "function"
    }
  ],
  "bytecode": {
    "object": "0x60a060405260405162003c4d38038062003c4d833981016040819052620000269162000038565b6001600160a01b03166080526200006a565b6000602082840312156200004b57600080fd5b81516001600160a01b03811681146200006357600080fd5b9392505050565b608051613bc7620000866000396000610ba40152613bc76000f3fe6080604052600436106102845760003560e01c8063731133e911610153578063b2839f5e116100cb578063e985e9c51161007f578063f242432a11610064578063f242432a146107dd578063f4c3b4d7146107f0578063f5298aca1461082057600080fd5b8063e985e9c514610775578063f23a6e61146107b057600080fd5b8063c1ba4e59116100b0578063c1ba4e591461072f578063c590e89f14610742578063d4606ab91461075557600080fd5b8063b2839f5e146106ed578063bc197c811461070057600080fd5b80638c995b9111610122578063ac9650d811610107578063ac9650d814610674578063afa88bca14610694578063affed0e0146106cc57600080fd5b80638c995b911461064e578063a22cb4651461066157600080fd5b8063731133e9146105cb578063807df56d146105de578063836eebee146105fe5780638426e6c11461061e57600080fd5b806318160ddd116102015780634e1273f4116101b557806357ac01ad1161019a57806357ac01ad1461057557806363a846f814610588578063704b6c02146105b857600080fd5b80634e1273f41461053557806354d7926f1461056257600080fd5b80632eb2c2d6116101e65780632eb2c2d61461048b5780633644e5151461049e578063387bbabd146104b357600080fd5b806318160ddd1461042b57806327dd1b001461045357600080fd5b80630e89341c11610258578063158a1ca11161023d578063158a1ca1146103c4578063162094c4146103d75780631703a018146103ea57600080fd5b80630e89341c14610339578063150b7a021461036657600080fd5b8062fdd58e1461028957806301ffc9a7146102d4578063023e8d8414610304578063026e402b14610324575b600080fd5b34801561029557600080fd5b506102c16102a4366004612e2d565b600460209081526000928352604080842090915290825290205481565b6040519081526020015b60405180910390f35b3480156102e057600080fd5b506102f46102ef366004612e70565b610833565b60405190151581526020016102cb565b610317610312366004612ed9565b6108b7565b6040516102cb9190612f1b565b610337610332366004612e2d565b610a92565b005b34801561034557600080fd5b50610359610354366004612f61565b610b68565b6040516102cb9190612fd2565b34801561037257600080fd5b506103ab610381366004613027565b7f150b7a020000000000000000000000000000000000000000000000000000000095945050505050565b6040516001600160e01b031990911681526020016102cb565b6103376103d23660046130a6565b610cbe565b6103376103e53660046130d9565b610d7a565b3480156103f657600080fd5b5060065461041290600160401b900467ffffffffffffffff1681565b60405167ffffffffffffffff90911681526020016102cb565b34801561043757600080fd5b5060065461041290600160801b900467ffffffffffffffff1681565b34801561045f57600080fd5b5061047361046e366004612e2d565b610e2d565b6040516001600160a01b0390911681526020016102cb565b610337610499366004613125565b610e6b565b3480156104aa57600080fd5b506102c1611127565b3480156104bf57600080fd5b5061050d6104ce3660046131e0565b600360209081526000938452604080852082529284528284209052825290205467ffffffffffffffff811690600160401b90046001600160c01b031682565b6040805167ffffffffffffffff90931683526001600160c01b039091166020830152016102cb565b34801561054157600080fd5b50610555610550366004613213565b611207565b6040516102cb919061327f565b6103376105703660046132b7565b61131c565b6103376105833660046132da565b6113cf565b34801561059457600080fd5b506102f46105a33660046132da565b60086020526000908152604090205460ff1681565b6103376105c63660046132da565b611523565b6103376105d93660046132f5565b61158f565b3480156105ea57600080fd5b506102c16105f9366004612e2d565b61161e565b34801561060a57600080fd5b506102c16106193660046131e0565b6116a2565b34801561062a57600080fd5b506102f46106393660046132da565b60096020526000908152604090205460ff1681565b6102f461065c36600461334f565b6118e7565b61033761066f3660046130a6565b611c34565b610687610682366004612ed9565b611c99565b6040516102cb919061341a565b3480156106a057600080fd5b506102c16106af366004612e2d565b600260209081526000928352604080842090915290825290205481565b3480156106d857600080fd5b506006546104129067ffffffffffffffff1681565b6103376106fb3660046132da565b611e02565b34801561070c57600080fd5b506103ab61071b366004613125565b63bc197c8160e01b98975050505050505050565b61033761073d366004612f61565b611f00565b61033761075036600461347c565b612000565b34801561076157600080fd5b506102c16107703660046134f0565b61234d565b34801561078157600080fd5b506102f4610790366004613567565b600560209081526000928352604080842090915290825290205460ff1681565b3480156107bc57600080fd5b506103ab6107cb366004613591565b63f23a6e6160e01b9695505050505050565b6103376107eb366004613591565b61240e565b3480156107fc57600080fd5b506102f461080b366004612f61565b60006020819052908152604090205460ff1681565b61033761082e3660046131e0565b612643565b60007f01ffc9a7000000000000000000000000000000000000000000000000000000006001600160e01b03198316148061089657507fd9b67a26000000000000000000000000000000000000000000000000000000006001600160e01b03198316145b806108b157506303a24d0760e21b6001600160e01b03198316145b92915050565b60603330148015906108d957503360009081526009602052604090205460ff16155b80156108f557503360009081526008602052604090205460ff16155b1561091357604051633d83866f60e01b815260040160405180910390fd5b8167ffffffffffffffff81111561092c5761092c613609565b604051908082528060200260200182016040528015610955578160200160208202803683370190505b50905060005b82811015610a8b57610a618484838181106109785761097861361f565b905060200281019061098a9190613635565b610998906020810190613655565b8585848181106109aa576109aa61361f565b90506020028101906109bc9190613635565b6109cd9060408101906020016132da565b8686858181106109df576109df61361f565b90506020028101906109f19190613635565b60400135878786818110610a0757610a0761361f565b9050602002810190610a199190613635565b610a27906060810190613670565b8080601f0160208091040260200160405190810160405280939291908181526020018383808284376000920191909152506126cf92505050565b828281518110610a7357610a7361361f565b9115156020928302919091019091015260010161095b565b5092915050565b6000610a9e3383610e2d565b336000818152600160209081526040808320878452825280832080547fffffffffffffffffffffffff0000000000000000000000000000000000000000166001600160a01b038a161790559282526004815282822086835290522054909150610b0c9082908590859061284c565b826001600160a01b0316816001600160a01b0316336001600160a01b03167fb846dc53d3621f480d692e73f4473156d20f23ff6b2c8237b7130b883226cca985604051610b5b91815260200190565b60405180910390a4505050565b6000818152600a60205260409020805460609190610b85906136b7565b9050600003610c1b576040516303a24d0760e21b8152600481018390527f00000000000000000000000000000000000000000000000000000000000000006001600160a01b031690630e89341c90602401600060405180830381865afa158015610bf3573d6000803e3d6000fd5b505050506040513d6000823e601f3d908101601f191682016040526108b191908101906136f1565b6000828152600a602052604090208054610c34906136b7565b80601f0160208091040260200160405190810160405280929190818152602001828054610c60906136b7565b8015610cad5780601f10610c8257610100808354040283529160200191610cad565b820191906000526020600020905b815481529060010190602001808311610c9057829003601f168201915b50505050509050919050565b919050565b333014801590610cde57503360009081526009602052604090205460ff16155b8015610cfa57503360009081526008602052604090205460ff16155b15610d1857604051633d83866f60e01b815260040160405180910390fd5b6001600160a01b038216600081815260096020908152604091829020805460ff1916851515908117909155915191825233917f4a095fd4c00c15af45ad40f2fcb94a1066f92e52d9fa4b0be820fab3dfdf665d91015b60405180910390a35050565b333014801590610d9a57503360009081526009602052604090205460ff16155b8015610db657503360009081526008602052604090205460ff16155b15610dd457604051633d83866f60e01b815260040160405180910390fd5b6000838152600a60205260409020610ded8284836137e4565b50827f6bb7ff708619ba0610cba295a58592e0451dee2622938c8755667688daf3529b8383604051610e209291906138cd565b60405180910390a2505050565b6001600160a01b0380831660009081526001602090815260408083208584529091528120549091168015610e615780610e63565b835b949350505050565b848314610e8b5760405163899ef10d60e01b815260040160405180910390fd5b336001600160a01b03891614801590610ec857506001600160a01b038816600090815260056020908152604080832033845290915290205460ff16155b15610ee657604051633d83866f60e01b815260040160405180910390fd5b60008060005b87811015610ff757888882818110610f0657610f0661361f565b905060200201359250868682818110610f2157610f2161361f565b600086815260208181526040909120549102929092013593505060ff16610f5b57604051634f8cca5b60e11b815260040160405180910390fd5b6001600160a01b038b16600090815260046020908152604080832086845290915281208054849290610f8e9084906138f7565b90915550506001600160a01b038a16600090815260046020908152604080832086845290915281208054849290610fc690849061390e565b90915550508215610fef57610fef610fde8c85610e2d565b610fe88c86610e2d565b858561284c565b600101610eec565b50886001600160a01b03168a6001600160a01b0316336001600160a01b03167f4a39dc06d4c0dbc64b70af90fd698a233a518aa5d07e595d983b8c0526c8f7fb8b8b8b8b60405161104b9493929190613975565b60405180910390a46001600160a01b0389163b156110f15760405163bc197c8160e01b808252906001600160a01b038b169063bc197c819061109f9033908f908e908e908e908e908e908e9060040161399c565b602060405180830381865afa1580156110bc573d6000803e3d6000fd5b505050506040513d601f19601f820116820180604052508101906110e091906139f1565b6001600160e01b03191614156110fd565b6001600160a01b038916155b1561111b5760405163290802d360e11b815260040160405180910390fd5b50505050505050505050565b600061113e600119368181013560f01c9003013590565b46146112005750604080518082018252600881526725b0b634a1b63ab160c11b60209182015281517f8b73c3c69bb8fe3d512ecc4cf759cc79239f7b179b0ffacaa9a75d522b39400f818301527f5b5b1483404ac93e4d9b025a8feb4c5ea9304085ab2e513c578af4cec7eb5319818401527fc89efdaa54c0f20c7adf612882df0950f5a951637e0307cdcb4c672f298b8bc660608201524660808201523060a0808301919091528351808303909101815260c0909101909252815191012090565b5060075490565b60608382146112295760405163899ef10d60e01b815260040160405180910390fd5b8367ffffffffffffffff81111561124257611242613609565b60405190808252806020026020018201604052801561126b578160200160208202803683370190505b50905060005b84811015611313576004600087878481811061128f5761128f61361f565b90506020020160208101906112a491906132da565b6001600160a01b03166001600160a01b0316815260200190815260200160002060008585848181106112d8576112d861361f565b905060200201358152602001908152602001600020548282815181106113005761130061361f565b6020908102919091010152600101611271565b50949350505050565b33301480159061133c57503360009081526009602052604090205460ff16155b801561135857503360009081526008602052604090205460ff16155b1561137657604051633d83866f60e01b815260040160405180910390fd5b60008281526020818152604091829020805460ff191684151590811790915582518581529182015233917f92d6650e3daf0c48674c410d3d8a281fe4d48a5a2236fe505d38e4da21120087910160405180910390a25050565b3330148015906113ef57503360009081526009602052604090205460ff16155b801561140b57503360009081526008602052604090205460ff16155b1561142957604051633d83866f60e01b815260040160405180910390fd5b6001600160a01b03811660009081526004602090815260408083208380529091528120805490919061145a90613a0e565b909155506006805460109061147f90600160801b900467ffffffffffffffff16613a25565b82546101009290920a67ffffffffffffffff818102199093169183160217909155600654600160801b81048216600160401b90910490911611156114d657604051631534858160e01b815260040160405180910390fd5b60408051600080825260016020830152916001600160a01b0384169133917fc3d58168c5ae7397731d063d5bbf3d657854427343f4c083240f7aacaa2d0f6291015b60405180910390a450565b33301461154357604051633d83866f60e01b815260040160405180910390fd5b6001600160a01b038116600081815260086020526040808220805460ff19166001179055517f8fe72c3e0020beb3234e76ae6676fa576fbfcae600af1c4fea44784cf0db329c9190a250565b3330148015906115af57503360009081526009602052604090205460ff16155b80156115cb57503360009081526008602052604090205460ff16155b156115e957604051633d83866f60e01b815260040160405180910390fd5b8360000361160a57604051630678974560e51b815260040160405180910390fd5b61161785858585856129f2565b5050505050565b6001600160a01b0382166000908152600260209081526040808320848452909152812054808203611650576000611691565b6001600160a01b0384166000908152600360209081526040808320868452825280832060001985018452909152902054600160401b90046001600160c01b03165b6001600160c01b0316949350505050565b60008142116116dd576040517f83aace3d00000000000000000000000000000000000000000000000000000000815260040160405180910390fd5b6001600160a01b0384166000908152600260209081526040808320868452909152812054908190036117135760009150506118e0565b6001600160a01b038516600090815260036020908152604080832087845282528083206000198501845290915290205467ffffffffffffffff16831061179b576001600160a01b03851660009081526003602090815260408083208784528252808320600019909401835292905220546001600160c01b03600160401b9091041690506118e0565b6001600160a01b0385166000908152600360209081526040808320878452825280832083805290915290205467ffffffffffffffff168310156117e25760009150506118e0565b600060001982015b818111156118a0576001600160a01b0387166000908152600360209081526040808320898452825280832060028686030485038085529083529281902081518083019092525467ffffffffffffffff8116808352600160401b9091046001600160c01b0316928201929092529087900361187757602001516001600160c01b031694506118e09350505050565b805167ffffffffffffffff1687111561189257819350611899565b6001820392505b50506117ea565b506001600160a01b038616600090815260036020908152604080832088845282528083209383529290522054600160401b90046001600160c01b03169150505b9392505050565b600654600090819061190c908a908a908a908a908a9067ffffffffffffffff1661234d565b600654909150600090600160401b900467ffffffffffffffff16815b81811015611be25760006001858989858181106119475761194761361f565b61195d9260206060909202019081019150613a49565b8a8a8681811061196f5761196f61361f565b905060600201602001358b8b8781811061198b5761198b61361f565b90506060020160400135604051600081526020016040526040516119cb949392919093845260ff9290921660208401526040830152606082015260800190565b6020604051602081039080840390855afa1580156119ed573d6000803e3d6000fd5b5050604051601f1901519150506001600160a01b0381163b15611b78577f1626ba7e000000000000000000000000000000000000000000000000000000006001600160a01b038216631626ba7e878b8b87818110611a4d57611a4d61361f565b905060600201602001358c8c88818110611a6957611a6961361f565b905060600201604001358d8d89818110611a8557611a8561361f565b611a9b9260206060909202019081019150613a49565b604051602001611ae393929190928352602083019190915260f81b7fff0000000000000000000000000000000000000000000000000000000000000016604082015260410190565b6040516020818303038152906040526040518363ffffffff1660e01b8152600401611b0f929190613a6c565b602060405180830381865afa158015611b2c573d6000803e3d6000fd5b505050506040513d601f19601f82011682018060405250810190611b5091906139f1565b6001600160e01b03191614611b7857604051633ba7c2c960e21b815260040160405180910390fd5b6001600160a01b03811660009081526004602090815260408083208380529091529020541580611bba5750806001600160a01b0316846001600160a01b031610155b15611bd857604051633ba7c2c960e21b815260040160405180910390fd5b9250600101611928565b50611c258b8b8b8b8b8080601f0160208091040260200160405190810160405280939291908181526020018383808284376000920191909152506126cf92505050565b9b9a5050505050505050505050565b3360008181526005602090815260408083206001600160a01b03871680855290835292819020805460ff191686151590811790915590519081529192917f17307eab39ab6107e8899845ad3d59bd9653f200f220920489ca2b5937696c319101610d6e565b60608167ffffffffffffffff811115611cb457611cb4613609565b604051908082528060200260200182016040528015611ce757816020015b6060815260200190600190039081611cd25790505b50905060005b82811015610a8b5760008030868685818110611d0b57611d0b61361f565b9050602002810190611d1d9190613670565b604051611d2b929190613a85565b600060405180830381855af49150503d8060008114611d66576040519150601f19603f3d011682016040523d82523d6000602084013e611d6b565b606091505b509150915081611dda57604481511015611d8457600080fd5b60048101905080806020019051810190611d9e91906136f1565b6040517f08c379a0000000000000000000000000000000000000000000000000000000008152600401611dd19190612fd2565b60405180910390fd5b80848481518110611ded57611ded61361f565b60209081029190910101525050600101611ced565b333014801590611e2257503360009081526009602052604090205460ff16155b8015611e3e57503360009081526008602052604090205460ff16155b15611e5c57604051633d83866f60e01b815260040160405180910390fd5b6001600160a01b03811660008181526004602090815260408083208380528252808320805460019081019091556006805467ffffffffffffffff600160801b80830482168501909116027fffffffffffffffff0000000000000000ffffffffffffffffffffffffffffffff90911617905581518481529283015233917fc3d58168c5ae7397731d063d5bbf3d657854427343f4c083240f7aacaa2d0f629101611518565b333014801590611f2057503360009081526009602052604090205460ff16155b8015611f3c57503360009081526008602052604090205460ff16155b15611f5a57604051633d83866f60e01b815260040160405180910390fd5b600654600160801b900467ffffffffffffffff16811115611f8e57604051631534858160e01b815260040160405180910390fd5b600680547fffffffffffffffffffffffffffffffff0000000000000000ffffffffffffffff16600160401b67ffffffffffffffff84160217905560405181815233907fc8bdbc84626c082832bea9ab3c3626d6941b91b2df27cc2f8b621597415e4d869060200160405180910390a250565b60065467ffffffffffffffff1615612044576040517fb2c6f10f00000000000000000000000000000000000000000000000000000000815260040160405180910390fd5b8061204e57600080fd5b8181111561206f57604051631534858160e01b815260040160405180910390fd5b831561212f5760005b8481101561212d576121248686838181106120955761209561361f565b90506020028101906120a79190613635565b6120b5906020810190613655565b8787848181106120c7576120c761361f565b90506020028101906120d99190613635565b6120ea9060408101906020016132da565b8888858181106120fc576120fc61361f565b905060200281019061210e9190613635565b60400135898986818110610a0757610a0761361f565b50600101612078565b505b60008060005b848110156122135760008686838181106121515761215161361f565b905060200201602081019061216691906132da565b9050806001600160a01b0316846001600160a01b03161061219a57604051633ba7c2c960e21b815260040160405180910390fd5b6001600160a01b03811660008181526004602090815260408083208380528252808320805460019081019091558151848152928301819052949750958401959490930193869333917fc3d58168c5ae7397731d063d5bbf3d657854427343f4c083240f7aacaa2d0f62910160405180910390a450612135565b506006805467ffffffffffffffff838116600160801b027fffffffffffffffff0000000000000000ffffffffffffffffffffffffffffffff918716600160401b027fffffffffffffffffffffffffffffffff000000000000000000000000000000009093169290921760011716179055612341604080518082018252600881526725b0b634a1b63ab160c11b60209182015281517f8b73c3c69bb8fe3d512ecc4cf759cc79239f7b179b0ffacaa9a75d522b39400f818301527f5b5b1483404ac93e4d9b025a8feb4c5ea9304085ab2e513c578af4cec7eb5319818401527fc89efdaa54c0f20c7adf612882df0950f5a951637e0307cdcb4c672f298b8bc660608201524660808201523060a0808301919091528351808303909101815260c0909101909252815191012090565b60075550505050505050565b6000612357611127565b7f93a4f3ad100766ac785e9e2986ae4f906eea3a67ef943c27112979356b418b358888888888886040516020016123949796959493929190613acd565b604051602081830303815290604052805190602001206040516020016123ec9291907f190100000000000000000000000000000000000000000000000000000000000081526002810192909252602282015260420190565b6040516020818303038152906040528051906020012090509695505050505050565b336001600160a01b0387161480159061244b57506001600160a01b038616600090815260056020908152604080832033845290915290205460ff16155b1561246957604051633d83866f60e01b815260040160405180910390fd5b60008481526020819052604090205460ff1661249857604051634f8cca5b60e11b815260040160405180910390fd5b6001600160a01b0386166000908152600460209081526040808320878452909152812080548592906124cb9084906138f7565b90915550506001600160a01b03851660009081526004602090815260408083208784529091528120805485929061250390849061390e565b909155505060408051858152602081018590526001600160a01b03808816929089169133917fc3d58168c5ae7397731d063d5bbf3d657854427343f4c083240f7aacaa2d0f62910160405180910390a46001600160a01b0385163b156125ed5760405163f23a6e6160e01b808252906001600160a01b0387169063f23a6e619061259b9033908b908a908a908a908a90600401613b1d565b602060405180830381865afa1580156125b8573d6000803e3d6000fd5b505050506040513d601f19601f820116820180604052508101906125dc91906139f1565b6001600160e01b03191614156125f9565b6001600160a01b038516155b156126175760405163290802d360e11b815260040160405180910390fd5b831561263b5761263b61262a8786610e2d565b6126348787610e2d565b868661284c565b505050505050565b8160000361266457604051630678974560e51b815260040160405180910390fd5b336001600160a01b038416148015906126a157506001600160a01b038316600090815260056020908152604080832033845290915290205460ff16155b156126bf57604051633d83866f60e01b815260040160405180910390fd5b6126ca838383612b47565b505050565b6006805467ffffffffffffffff8082166001011667ffffffffffffffff1990911617905560008085600381111561270857612708613a95565b036127665760008083516020850186885af19050836001600160a01b03167ffa3c55dc43f5cfdeb2abee243c63ad490db2fee39fd127076ed9e7afa15ad63886858560405161275993929190613b62565b60405180910390a2612815565b600185600381111561277a5761277a613a95565b036127ca57600080835160208501875af49050836001600160a01b03167ffa3c55dc43f5cfdeb2abee243c63ad490db2fee39fd127076ed9e7afa15ad63886858560405161275993929190613b62565b60028560038111156127de576127de613a95565b036127f25781516020830184f09050612815565b81516bffffffffffffffffffffffff19606086901b169081906020850186f59150505b80610e63576040517ff11fe6d400000000000000000000000000000000000000000000000000000000815260040160405180910390fd5b826001600160a01b0316846001600160a01b03161415801561286d57508015155b156129ec576001600160a01b0384161561292f576001600160a01b0384166000908152600260209081526040808320858452909152812054908181036128b4576000612905565b6001600160a01b03861660009081526003602090815260408083208784529091528120906128e36001856138f7565b8152602081019190915260400160002054600160401b90046001600160c01b03165b6001600160c01b03169050600061291c84836138f7565b905061292b8786858585612bdc565b5050505b6001600160a01b038316156129ec576001600160a01b0383166000908152600260209081526040808320858452909152812054908181036129715760006129c2565b6001600160a01b03851660009081526003602090815260408083208784529091528120906129a06001856138f7565b8152602081019190915260400160002054600160401b90046001600160c01b03165b6001600160c01b0316905060006129d9848361390e565b90506129e88686858585612bdc565b5050505b50505050565b6001600160a01b038516600090815260046020908152604080832087845290915281208054859290612a2590849061390e565b909155505060408051858152602081018590526001600160a01b0387169160009133917fc3d58168c5ae7397731d063d5bbf3d657854427343f4c083240f7aacaa2d0f62910160405180910390a46001600160a01b0385163b15612b0e5760405163f23a6e6160e01b808252906001600160a01b0387169063f23a6e6190612abc9033906000908a908a908a908a90600401613b1d565b602060405180830381865afa158015612ad9573d6000803e3d6000fd5b505050506040513d601f19601f82011682018060405250810190612afd91906139f1565b6001600160e01b0319161415612b1a565b6001600160a01b038516155b15612b385760405163290802d360e11b815260040160405180910390fd5b61161760006126348787610e2d565b6001600160a01b038316600090815260046020908152604080832085845290915281208054839290612b7a9084906138f7565b90915550612b969050612b8d8484610e2d565b6000848461284c565b60408051838152602081018390526000916001600160a01b0386169133917fc3d58168c5ae7397731d063d5bbf3d657854427343f4c083240f7aacaa2d0f629101610b5b565b8215801590612c2357506001600160a01b038516600090815260036020908152604080832087845282528083206000198701845290915290205467ffffffffffffffff1642145b15612c8b57612c3181612d7d565b6001600160a01b0386166000908152600360209081526040808320888452825280832060001988018452909152902080546001600160c01b0392909216600160401b0267ffffffffffffffff909216919091179055612d2a565b6040518060400160405280612c9f42612dd6565b67ffffffffffffffff168152602001612cb783612d7d565b6001600160c01b039081169091526001600160a01b03871660008181526003602090815260408083208a845282528083208984528252808320865196830151909516600160401b0267ffffffffffffffff9096169590951790935590815260028252828120878252909152206001840190555b60408051858152602081018490529081018290526001600160a01b038616907f21a99d51b8a0a2e2ead709843a1ecfaab977908135cf1c085c0a6246eea6e0f09060600160405180910390a25050505050565b60007801000000000000000000000000000000000000000000000000821115612dd2576040517fd5e0d1b200000000000000000000000000000000000000000000000000000000815260040160405180910390fd5b5090565b6000600160401b821115612dd2576040517f5b7f254e00000000000000000000000000000000000000000000000000000000815260040160405180910390fd5b80356001600160a01b0381168114610cb957600080fd5b60008060408385031215612e4057600080fd5b612e4983612e16565b946020939093013593505050565b6001600160e01b031981168114612e6d57600080fd5b50565b600060208284031215612e8257600080fd5b81356118e081612e57565b60008083601f840112612e9f57600080fd5b50813567ffffffffffffffff811115612eb757600080fd5b6020830191508360208260051b8501011115612ed257600080fd5b9250929050565b60008060208385031215612eec57600080fd5b823567ffffffffffffffff811115612f0357600080fd5b612f0f85828601612e8d565b90969095509350505050565b6020808252825182820181905260009190848201906040850190845b81811015612f55578351151583529284019291840191600101612f37565b50909695505050505050565b600060208284031215612f7357600080fd5b5035919050565b60005b83811015612f95578181015183820152602001612f7d565b838111156129ec5750506000910152565b60008151808452612fbe816020860160208601612f7a565b601f01601f19169290920160200192915050565b6020815260006118e06020830184612fa6565b60008083601f840112612ff757600080fd5b50813567ffffffffffffffff81111561300f57600080fd5b602083019150836020828501011115612ed257600080fd5b60008060008060006080868803121561303f57600080fd5b61304886612e16565b945061305660208701612e16565b935060408601359250606086013567ffffffffffffffff81111561307957600080fd5b61308588828901612fe5565b969995985093965092949392505050565b80358015158114610cb957600080fd5b600080604083850312156130b957600080fd5b6130c283612e16565b91506130d060208401613096565b90509250929050565b6000806000604084860312156130ee57600080fd5b83359250602084013567ffffffffffffffff81111561310c57600080fd5b61311886828701612fe5565b9497909650939450505050565b60008060008060008060008060a0898b03121561314157600080fd5b61314a89612e16565b975061315860208a01612e16565b9650604089013567ffffffffffffffff8082111561317557600080fd5b6131818c838d01612e8d565b909850965060608b013591508082111561319a57600080fd5b6131a68c838d01612e8d565b909650945060808b01359150808211156131bf57600080fd5b506131cc8b828c01612fe5565b999c989b5096995094979396929594505050565b6000806000606084860312156131f557600080fd5b6131fe84612e16565b95602085013595506040909401359392505050565b6000806000806040858703121561322957600080fd5b843567ffffffffffffffff8082111561324157600080fd5b61324d88838901612e8d565b9096509450602087013591508082111561326657600080fd5b5061327387828801612e8d565b95989497509550505050565b6020808252825182820181905260009190848201906040850190845b81811015612f555783518352928401929184019160010161329b565b600080604083850312156132ca57600080fd5b823591506130d060208401613096565b6000602082840312156132ec57600080fd5b6118e082612e16565b60008060008060006080868803121561330d57600080fd5b61331686612e16565b94506020860135935060408601359250606086013567ffffffffffffffff81111561307957600080fd5b803560048110610cb957600080fd5b600080600080600080600060a0888a03121561336a57600080fd5b61337388613340565b965061338160208901612e16565b955060408801359450606088013567ffffffffffffffff808211156133a557600080fd5b6133b18b838c01612fe5565b909650945060808a01359150808211156133ca57600080fd5b818a0191508a601f8301126133de57600080fd5b8135818111156133ed57600080fd5b8b602060608302850101111561340257600080fd5b60208301945080935050505092959891949750929550565b6000602080830181845280855180835260408601915060408160051b870101925083870160005b8281101561346f57603f1988860301845261345d858351612fa6565b94509285019290850190600101613441565b5092979650505050505050565b60008060008060006060868803121561349457600080fd5b853567ffffffffffffffff808211156134ac57600080fd5b6134b889838a01612e8d565b909750955060208801359150808211156134d157600080fd5b506134de88828901612e8d565b96999598509660400135949350505050565b60008060008060008060a0878903121561350957600080fd5b61351287613340565b955061352060208801612e16565b945060408701359350606087013567ffffffffffffffff81111561354357600080fd5b61354f89828a01612fe5565b979a9699509497949695608090950135949350505050565b6000806040838503121561357a57600080fd5b61358383612e16565b91506130d060208401612e16565b60008060008060008060a087890312156135aa57600080fd5b6135b387612e16565b95506135c160208801612e16565b94506040870135935060608701359250608087013567ffffffffffffffff8111156135eb57600080fd5b6135f789828a01612fe5565b979a9699509497509295939492505050565b634e487b7160e01b600052604160045260246000fd5b634e487b7160e01b600052603260045260246000fd5b60008235607e1983360301811261364b57600080fd5b9190910192915050565b60006020828403121561366757600080fd5b6118e082613340565b6000808335601e1984360301811261368757600080fd5b83018035915067ffffffffffffffff8211156136a257600080fd5b602001915036819003821315612ed257600080fd5b600181811c908216806136cb57607f821691505b6020821081036136eb57634e487b7160e01b600052602260045260246000fd5b50919050565b60006020828403121561370357600080fd5b815167ffffffffffffffff8082111561371b57600080fd5b818401915084601f83011261372f57600080fd5b81518181111561374157613741613609565b604051601f8201601f19908116603f0116810190838211818310171561376957613769613609565b8160405282815287602084870101111561378257600080fd5b613793836020830160208801612f7a565b979650505050505050565b601f8211156126ca57600081815260208120601f850160051c810160208610156137c55750805b601f850160051c820191505b8181101561263b578281556001016137d1565b67ffffffffffffffff8311156137fc576137fc613609565b6138108361380a83546136b7565b8361379e565b6000601f841160018114613844576000851561382c5750838201355b600019600387901b1c1916600186901b178355611617565b600083815260209020601f19861690835b828110156138755786850135825560209485019460019092019101613855565b50868210156138925760001960f88860031b161c19848701351681555b505060018560011b0183555050505050565b81835281816020850137506000828201602090810191909152601f909101601f19169091010190565b602081526000610e636020830184866138a4565b634e487b7160e01b600052601160045260246000fd5b600082821015613909576139096138e1565b500390565b60008219821115613921576139216138e1565b500190565b81835260007f07ffffffffffffffffffffffffffffffffffffffffffffffffffffffffffffff83111561395857600080fd5b8260051b8083602087013760009401602001938452509192915050565b604081526000613989604083018688613926565b8281036020840152613793818587613926565b60006001600160a01b03808b168352808a1660208401525060a060408301526139c960a08301888a613926565b82810360608401526139dc818789613926565b90508281036080840152611c258185876138a4565b600060208284031215613a0357600080fd5b81516118e081612e57565b600081613a1d57613a1d6138e1565b506000190190565b600067ffffffffffffffff821680613a3f57613a3f6138e1565b6000190192915050565b600060208284031215613a5b57600080fd5b813560ff811681146118e057600080fd5b828152604060208201526000610e636040830184612fa6565b8183823760009101908152919050565b634e487b7160e01b600052602160045260246000fd5b60048110613ac957634e487b7160e01b600052602160045260246000fd5b9052565b878152613add6020820188613aab565b6001600160a01b038616604082015284606082015260c060808201526000613b0960c0830185876138a4565b90508260a083015298975050505050505050565b60006001600160a01b03808916835280881660208401525085604083015284606083015260a06080830152613b5660a0830184866138a4565b98975050505050505050565b613b6c8185613aab565b826020820152606060408201526000613b886060830184612fa6565b9594505050505056fea26469706673582212204f317885023eb719a1b979fb77ea4cdbb8dff845454d88f01b3106cdc3d2f58c64736f6c634300080f0033",
    "linkReferences": {}
  }
}