{
  "abi": [
    {
      "inputs": [],
      "name": "ALREADY_INIT",
      "type": "error"
    },
    {
      "inputs": [],
      "name": "EXECUTE_FAILED",
      "type": "error"
    },
    {
      "inputs": [],
      "name": "INVALID_RECIPIENT",
      "type": "error"
    },
    {
      "inputs": [],
      "name": "INVALID_SIG",
      "type": "error"
    },
    {
      "inputs": [],
      "name": "LENGTH_MISMATCH",
      "type": "error"
    },
    {
      "inputs": [],
      "name": "NONTRANSFERABLE",
      "type": "error"
    },
    {
      "inputs": [],
      "name": "NOT_AUTHORIZED",
      "type": "error"
    },
    {
      "inputs": [],
      "name": "QUORUM_OVER_SUPPLY",
      "type": "error"
    },
    {
      "inputs": [],
      "name": "UINT192_MAX",
      "type": "error"
    },
    {
      "inputs": [],
      "name": "UINT64_MAX",
      "type": "error"
    },
    {
      "inputs": [],
      "name": "UNDETERMINED",
      "type": "error"
    },
    {
      "anonymous": false,
      "inputs": [
        {
          "indexed": true,
          "internalType": "address",
          "name": "owner",
          "type": "address"
        },
        {
          "indexed": true,
          "internalType": "address",
          "name": "operator",
          "type": "address"
        },
        {
          "indexed": false,
          "internalType": "bool",
          "name": "approved",
          "type": "bool"
        }
      ],
      "name": "ApprovalForAll",
      "type": "event"
    },
    {
      "anonymous": false,
      "inputs": [
        {
          "indexed": false,
          "internalType": "enum Operation",
          "name": "op",
          "type": "uint8"
        },
        {
          "indexed": true,
          "internalType": "address",
          "name": "creation",
          "type": "address"
        },
        {
          "indexed": false,
          "internalType": "uint256",
          "name": "value",
          "type": "uint256"
        }
      ],
      "name": "ContractCreated",
      "type": "event"
    },
    {
      "anonymous": false,
      "inputs": [
        {
          "indexed": true,
          "internalType": "address",
          "name": "delegator",
          "type": "address"
        },
        {
          "indexed": true,
          "internalType": "address",
          "name": "fromDelegate",
          "type": "address"
        },
        {
          "indexed": true,
          "internalType": "address",
          "name": "toDelegate",
          "type": "address"
        },
        {
          "indexed": false,
          "internalType": "uint256",
          "name": "id",
          "type": "uint256"
        }
      ],
      "name": "DelegateChanged",
      "type": "event"
    },
    {
      "anonymous": false,
      "inputs": [
        {
          "indexed": true,
          "internalType": "address",
          "name": "delegate",
          "type": "address"
        },
        {
          "indexed": true,
          "internalType": "uint256",
          "name": "id",
          "type": "uint256"
        },
        {
          "indexed": false,
          "internalType": "uint256",
          "name": "previousBalance",
          "type": "uint256"
        },
        {
          "indexed": false,
          "internalType": "uint256",
          "name": "newBalance",
          "type": "uint256"
        }
      ],
      "name": "DelegateVotesChanged",
      "type": "event"
    },
    {
      "anonymous": false,
      "inputs": [
        {
          "indexed": false,
          "internalType": "enum Operation",
          "name": "op",
          "type": "uint8"
        },
        {
          "indexed": true,
          "internalType": "address",
          "name": "to",
          "type": "address"
        },
        {
          "indexed": false,
          "internalType": "uint256",
          "name": "value",
          "type": "uint256"
        },
        {
          "indexed": false,
          "internalType": "bytes",
          "name": "data",
          "type": "bytes"
        }
      ],
      "name": "Executed",
      "type": "event"
    },
    {
      "anonymous": false,
      "inputs": [
        {
          "indexed": true,
          "internalType": "address",
          "name": "caller",
          "type": "address"
        },
        {
          "indexed": false,
          "internalType": "uint256",
          "name": "threshold",
          "type": "uint256"
        }
      ],
      "name": "QuorumSet",
      "type": "event"
    },
    {
      "anonymous": false,
      "inputs": [
        {
          "indexed": true,
          "internalType": "address",
          "name": "operator",
          "type": "address"
        },
        {
          "indexed": true,
          "internalType": "address",
          "name": "from",
          "type": "address"
        },
        {
          "indexed": true,
          "internalType": "address",
          "name": "to",
          "type": "address"
        },
        {
          "indexed": false,
          "internalType": "uint256[]",
          "name": "ids",
          "type": "uint256[]"
        },
        {
          "indexed": false,
          "internalType": "uint256[]",
          "name": "amounts",
          "type": "uint256[]"
        }
      ],
      "name": "TransferBatch",
      "type": "event"
    },
    {
      "anonymous": false,
      "inputs": [
        {
          "indexed": true,
          "internalType": "address",
          "name": "operator",
          "type": "address"
        },
        {
          "indexed": true,
          "internalType": "address",
          "name": "from",
          "type": "address"
        },
        {
          "indexed": true,
          "internalType": "address",
          "name": "to",
          "type": "address"
        },
        {
          "indexed": false,
          "internalType": "uint256",
          "name": "id",
          "type": "uint256"
        },
        {
          "indexed": false,
          "internalType": "uint256",
          "name": "amount",
          "type": "uint256"
        }
      ],
      "name": "TransferSingle",
      "type": "event"
    },
    {
      "anonymous": false,
      "inputs": [
        {
          "indexed": true,
          "internalType": "address",
          "name": "operator",
          "type": "address"
        },
        {
          "indexed": true,
          "internalType": "uint256",
          "name": "id",
          "type": "uint256"
        },
        {
          "indexed": false,
          "internalType": "bool",
          "name": "transferability",
          "type": "bool"
        }
      ],
      "name": "TransferabilitySet",
      "type": "event"
    },
    {
      "anonymous": false,
      "inputs": [
        {
          "indexed": false,
          "internalType": "string",
          "name": "value",
          "type": "string"
        },
        {
          "indexed": true,
          "internalType": "uint256",
          "name": "id",
          "type": "uint256"
        }
      ],
      "name": "URI",
      "type": "event"
    },
    {
      "inputs": [],
      "name": "DOMAIN_SEPARATOR",
      "outputs": [
        {
          "internalType": "bytes32",
          "name": "",
          "type": "bytes32"
        }
      ],
      "stateMutability": "view",
      "type": "function"
    },
    {
      "inputs": [
        {
          "internalType": "address",
          "name": "",
          "type": "address"
        },
        {
          "internalType": "uint256",
          "name": "",
          "type": "uint256"
        }
      ],
      "name": "balanceOf",
      "outputs": [
        {
          "internalType": "uint256",
          "name": "",
          "type": "uint256"
        }
      ],
      "stateMutability": "view",
      "type": "function"
    },
    {
      "inputs": [
        {
          "internalType": "address[]",
          "name": "owners",
          "type": "address[]"
        },
        {
          "internalType": "uint256[]",
          "name": "ids",
          "type": "uint256[]"
        }
      ],
      "name": "balanceOfBatch",
      "outputs": [
        {
          "internalType": "uint256[]",
          "name": "balances",
          "type": "uint256[]"
        }
      ],
      "stateMutability": "view",
      "type": "function"
    },
    {
      "inputs": [
        {
          "components": [
            {
              "internalType": "enum Operation",
              "name": "op",
              "type": "uint8"
            },
            {
              "internalType": "address",
              "name": "to",
              "type": "address"
            },
            {
              "internalType": "uint256",
              "name": "value",
              "type": "uint256"
            },
            {
              "internalType": "bytes",
              "name": "data",
              "type": "bytes"
            }
          ],
          "internalType": "struct Call[]",
          "name": "calls",
          "type": "tuple[]"
        }
      ],
      "name": "batchExecute",
      "outputs": [
        {
          "internalType": "bool[]",
          "name": "successes",
          "type": "bool[]"
        }
      ],
      "stateMutability": "payable",
      "type": "function"
    },
    {
      "inputs": [
        {
          "internalType": "address",
          "name": "from",
          "type": "address"
        },
        {
          "internalType": "uint256",
          "name": "id",
          "type": "uint256"
        },
        {
          "internalType": "uint256",
          "name": "amount",
          "type": "uint256"
        }
      ],
      "name": "burn",
      "outputs": [],
      "stateMutability": "payable",
      "type": "function"
    },
    {
      "inputs": [
        {
          "internalType": "address",
          "name": "",
          "type": "address"
        },
        {
          "internalType": "uint256",
          "name": "",
          "type": "uint256"
        },
        {
          "internalType": "uint256",
          "name": "",
          "type": "uint256"
        }
      ],
      "name": "checkpoints",
      "outputs": [
        {
          "internalType": "uint64",
          "name": "fromTimestamp",
          "type": "uint64"
        },
        {
          "internalType": "uint192",
          "name": "votes",
          "type": "uint192"
        }
      ],
      "stateMutability": "view",
      "type": "function"
    },
    {
      "inputs": [
        {
          "internalType": "address",
          "name": "delegatee",
          "type": "address"
        },
        {
          "internalType": "uint256",
          "name": "id",
          "type": "uint256"
        }
      ],
      "name": "delegate",
      "outputs": [],
      "stateMutability": "payable",
      "type": "function"
    },
    {
      "inputs": [
        {
          "internalType": "address",
          "name": "account",
          "type": "address"
        },
        {
          "internalType": "uint256",
          "name": "id",
          "type": "uint256"
        }
      ],
      "name": "delegates",
      "outputs": [
        {
          "internalType": "address",
          "name": "",
          "type": "address"
        }
      ],
      "stateMutability": "view",
      "type": "function"
    },
    {
      "inputs": [
        {
          "internalType": "enum Operation",
          "name": "op",
          "type": "uint8"
        },
        {
          "internalType": "address",
          "name": "to",
          "type": "address"
        },
        {
          "internalType": "uint256",
          "name": "value",
          "type": "uint256"
        },
        {
          "internalType": "bytes",
          "name": "data",
          "type": "bytes"
        },
        {
          "components": [
            {
              "internalType": "uint8",
              "name": "v",
              "type": "uint8"
            },
            {
              "internalType": "bytes32",
              "name": "r",
              "type": "bytes32"
            },
            {
              "internalType": "bytes32",
              "name": "s",
              "type": "bytes32"
            }
          ],
          "internalType": "struct Signature[]",
          "name": "sigs",
          "type": "tuple[]"
        }
      ],
      "name": "execute",
      "outputs": [
        {
          "internalType": "bool",
          "name": "success",
          "type": "bool"
        }
      ],
      "stateMutability": "payable",
      "type": "function"
    },
    {
      "inputs": [
        {
          "internalType": "address",
          "name": "account",
          "type": "address"
        },
        {
          "internalType": "uint256",
          "name": "id",
          "type": "uint256"
        }
      ],
      "name": "getCurrentVotes",
      "outputs": [
        {
          "internalType": "uint256",
          "name": "",
          "type": "uint256"
        }
      ],
      "stateMutability": "view",
      "type": "function"
    },
    {
      "inputs": [
        {
          "internalType": "address",
          "name": "account",
          "type": "address"
        },
        {
          "internalType": "uint256",
          "name": "id",
          "type": "uint256"
        },
        {
          "internalType": "uint256",
          "name": "timestamp",
          "type": "uint256"
        }
      ],
      "name": "getPriorVotes",
      "outputs": [
        {
          "internalType": "uint256",
          "name": "",
          "type": "uint256"
        }
      ],
      "stateMutability": "view",
      "type": "function"
    },
    {
      "inputs": [
        {
          "components": [
            {
              "internalType": "enum Operation",
              "name": "op",
              "type": "uint8"
            },
            {
              "internalType": "address",
              "name": "to",
              "type": "address"
            },
            {
              "internalType": "uint256",
              "name": "value",
              "type": "uint256"
            },
            {
              "internalType": "bytes",
              "name": "data",
              "type": "bytes"
            }
          ],
          "internalType": "struct Call[]",
          "name": "calls",
          "type": "tuple[]"
        },
        {
          "internalType": "address[]",
          "name": "signers",
          "type": "address[]"
        },
        {
          "internalType": "uint256",
          "name": "threshold",
          "type": "uint256"
        }
      ],
      "name": "init",
      "outputs": [],
      "stateMutability": "payable",
      "type": "function"
    },
    {
      "inputs": [
        {
          "internalType": "address",
          "name": "",
          "type": "address"
        },
        {
          "internalType": "address",
          "name": "",
          "type": "address"
        }
      ],
      "name": "isApprovedForAll",
      "outputs": [
        {
          "internalType": "bool",
          "name": "",
          "type": "bool"
        }
      ],
      "stateMutability": "view",
      "type": "function"
    },
    {
      "inputs": [
        {
          "internalType": "address",
          "name": "to",
          "type": "address"
        },
        {
          "internalType": "uint256",
          "name": "id",
          "type": "uint256"
        },
        {
          "internalType": "uint256",
          "name": "amount",
          "type": "uint256"
        },
        {
          "internalType": "bytes",
          "name": "data",
          "type": "bytes"
        }
      ],
      "name": "mint",
      "outputs": [],
      "stateMutability": "payable",
      "type": "function"
    },
    {
      "inputs": [
        {
          "internalType": "bytes[]",
          "name": "data",
          "type": "bytes[]"
        }
      ],
      "name": "multicall",
      "outputs": [
        {
          "internalType": "bytes[]",
          "name": "results",
          "type": "bytes[]"
        }
      ],
      "stateMutability": "payable",
      "type": "function"
    },
    {
      "inputs": [],
      "name": "nonce",
      "outputs": [
        {
          "internalType": "uint64",
          "name": "",
          "type": "uint64"
        }
      ],
      "stateMutability": "view",
      "type": "function"
    },
    {
      "inputs": [
        {
          "internalType": "address",
          "name": "",
          "type": "address"
        },
        {
          "internalType": "uint256",
          "name": "",
          "type": "uint256"
        }
      ],
      "name": "numCheckpoints",
      "outputs": [
        {
          "internalType": "uint256",
          "name": "",
          "type": "uint256"
        }
      ],
      "stateMutability": "view",
      "type": "function"
    },
    {
      "inputs": [
        {
          "internalType": "address",
          "name": "",
          "type": "address"
        },
        {
          "internalType": "address",
          "name": "",
          "type": "address"
        },
        {
          "internalType": "uint256[]",
          "name": "",
          "type": "uint256[]"
        },
        {
          "internalType": "uint256[]",
          "name": "",
          "type": "uint256[]"
        },
        {
          "internalType": "bytes",
          "name": "",
          "type": "bytes"
        }
      ],
      "name": "onERC1155BatchReceived",
      "outputs": [
        {
          "internalType": "bytes4",
          "name": "",
          "type": "bytes4"
        }
      ],
      "stateMutability": "payable",
      "type": "function"
    },
    {
      "inputs": [
        {
          "internalType": "address",
          "name": "",
          "type": "address"
        },
        {
          "internalType": "address",
          "name": "",
          "type": "address"
        },
        {
          "internalType": "uint256",
          "name": "",
          "type": "uint256"
        },
        {
          "internalType": "uint256",
          "name": "",
          "type": "uint256"
        },
        {
          "internalType": "bytes",
          "name": "",
          "type": "bytes"
        }
      ],
      "name": "onERC1155Received",
      "outputs": [
        {
          "internalType": "bytes4",
          "name": "",
          "type": "bytes4"
        }
      ],
      "stateMutability": "payable",
      "type": "function"
    },
    {
      "inputs": [
        {
          "internalType": "address",
          "name": "",
          "type": "address"
        },
        {
          "internalType": "address",
          "name": "",
          "type": "address"
        },
        {
          "internalType": "uint256",
          "name": "",
          "type": "uint256"
        },
        {
          "internalType": "bytes",
          "name": "",
          "type": "bytes"
        }
      ],
      "name": "onERC721Received",
      "outputs": [
        {
          "internalType": "bytes4",
          "name": "",
          "type": "bytes4"
        }
      ],
      "stateMutability": "payable",
      "type": "function"
    },
    {
      "inputs": [],
      "name": "quorum",
      "outputs": [
        {
          "internalType": "uint64",
          "name": "",
          "type": "uint64"
        }
      ],
      "stateMutability": "view",
      "type": "function"
    },
    {
      "inputs": [
        {
          "internalType": "address",
          "name": "from",
          "type": "address"
        },
        {
          "internalType": "address",
          "name": "to",
          "type": "address"
        },
        {
          "internalType": "uint256[]",
          "name": "ids",
          "type": "uint256[]"
        },
        {
          "internalType": "uint256[]",
          "name": "amounts",
          "type": "uint256[]"
        },
        {
          "internalType": "bytes",
          "name": "data",
          "type": "bytes"
        }
      ],
      "name": "safeBatchTransferFrom",
      "outputs": [],
      "stateMutability": "payable",
      "type": "function"
    },
    {
      "inputs": [
        {
          "internalType": "address",
          "name": "from",
          "type": "address"
        },
        {
          "internalType": "address",
          "name": "to",
          "type": "address"
        },
        {
          "internalType": "uint256",
          "name": "id",
          "type": "uint256"
        },
        {
          "internalType": "uint256",
          "name": "amount",
          "type": "uint256"
        },
        {
          "internalType": "bytes",
          "name": "data",
          "type": "bytes"
        }
      ],
      "name": "safeTransferFrom",
      "outputs": [],
      "stateMutability": "payable",
      "type": "function"
    },
    {
      "inputs": [
        {
          "internalType": "address",
          "name": "operator",
          "type": "address"
        },
        {
          "internalType": "bool",
          "name": "approved",
          "type": "bool"
        }
      ],
      "name": "setApprovalForAll",
      "outputs": [],
      "stateMutability": "payable",
      "type": "function"
    },
    {
      "inputs": [
        {
          "internalType": "uint32",
          "name": "threshold",
          "type": "uint32"
        }
      ],
      "name": "setQuorum",
      "outputs": [],
      "stateMutability": "payable",
      "type": "function"
    },
    {
      "inputs": [
        {
          "internalType": "uint256",
          "name": "id",
          "type": "uint256"
        },
        {
          "internalType": "bool",
          "name": "transferability",
          "type": "bool"
        }
      ],
      "name": "setTransferability",
      "outputs": [],
      "stateMutability": "payable",
      "type": "function"
    },
    {
      "inputs": [
        {
          "internalType": "uint256",
          "name": "id",
          "type": "uint256"
        },
        {
          "internalType": "string",
          "name": "tokenURI",
          "type": "string"
        }
      ],
      "name": "setURI",
      "outputs": [],
      "stateMutability": "payable",
      "type": "function"
    },
    {
      "inputs": [
        {
          "internalType": "bytes4",
          "name": "interfaceId",
          "type": "bytes4"
        }
      ],
      "name": "supportsInterface",
      "outputs": [
        {
          "internalType": "bool",
          "name": "",
          "type": "bool"
        }
      ],
      "stateMutability": "view",
      "type": "function"
    },
    {
      "inputs": [
        {
          "internalType": "uint256",
          "name": "",
          "type": "uint256"
        }
      ],
      "name": "totalSupply",
      "outputs": [
        {
          "internalType": "uint256",
          "name": "",
          "type": "uint256"
        }
      ],
      "stateMutability": "view",
      "type": "function"
    },
    {
      "inputs": [
        {
          "internalType": "uint256",
          "name": "",
          "type": "uint256"
        }
      ],
      "name": "transferable",
      "outputs": [
        {
          "internalType": "bool",
          "name": "",
          "type": "bool"
        }
      ],
      "stateMutability": "view",
      "type": "function"
    },
    {
      "inputs": [
        {
          "internalType": "uint256",
          "name": "id",
          "type": "uint256"
        }
      ],
      "name": "uri",
      "outputs": [
        {
          "internalType": "string",
          "name": "",
          "type": "string"
        }
      ],
      "stateMutability": "view",
      "type": "function"
    }
  ],
  "bytecode": {
    "object": "0x608060405234801561001057600080fd5b50613560806100206000396000f3fe6080604052600436106101d75760003560e01c8063836eebee11610102578063bd85b03911610095578063f23a6e6111610064578063f23a6e6114610606578063f242432a14610626578063f4c3b4d714610639578063f5298aca1461066957600080fd5b8063bd85b03914610578578063c590e89f146105a5578063e329fed7146105b8578063e985e9c5146105cb57600080fd5b8063ac9650d8116100d1578063ac9650d8146104dd578063afa88bca146104fd578063affed0e014610535578063bc197c811461055657600080fd5b8063836eebee14610484578063862440e2146104a45780638c995b91146104b7578063a22cb465146104ca57600080fd5b806327dd1b001161017a5780634e1273f4116101495780634e1273f4146104115780637140d9601461043e578063731133e914610451578063807df56d1461046457600080fd5b806327dd1b001461032f5780632eb2c2d6146103675780633644e5151461037a578063387bbabd1461038f57600080fd5b8063026e402b116101b6578063026e402b146102745780630e89341c14610289578063150b7a02146102b65780631703a018146102ee57600080fd5b8062fdd58e146101dc57806301ffc9a714610224578063023e8d8414610254575b600080fd5b3480156101e857600080fd5b506102116101f736600461282d565b600060208181529281526040808220909352908152205481565b6040519081526020015b60405180910390f35b34801561023057600080fd5b5061024461023f366004612870565b61067c565b604051901515815260200161021b565b6102676102623660046128d9565b6106db565b60405161021b919061291b565b61028761028236600461282d565b610867565b005b34801561029557600080fd5b506102a96102a4366004612961565b61092a565b60405161021b91906129d2565b6102d56102c4366004612a27565b630a85bd0160e11b95945050505050565b6040516001600160e01b0319909116815260200161021b565b3480156102fa57600080fd5b5060075461031690600160401b900467ffffffffffffffff1681565b60405167ffffffffffffffff909116815260200161021b565b34801561033b57600080fd5b5061034f61034a36600461282d565b6109cc565b6040516001600160a01b03909116815260200161021b565b610287610375366004612a96565b610a0a565b34801561038657600080fd5b50610211610cb1565b34801561039b57600080fd5b506103e96103aa366004612b51565b600660209081526000938452604080852082529284528284209052825290205467ffffffffffffffff811690600160401b90046001600160c01b031682565b6040805167ffffffffffffffff90931683526001600160c01b0390911660208301520161021b565b34801561041d57600080fd5b5061043161042c366004612b84565b610d8c565b60405161021b9190612bf0565b61028761044c366004612c38565b610ea0565b61028761045f366004612c64565b610eb9565b34801561047057600080fd5b5061021161047f36600461282d565b610ed8565b34801561049057600080fd5b5061021161049f366004612b51565b610f5c565b6102876104b2366004612caf565b6111a1565b6102446104c5366004612d0a565b611205565b6102876104d8366004612dd5565b611604565b6104f06104eb3660046128d9565b611671565b60405161021b9190612dff565b34801561050957600080fd5b5061021161051836600461282d565b600560209081526000928352604080842090915290825290205481565b34801561054157600080fd5b506007546103169067ffffffffffffffff1681565b6102d5610564366004612a96565b63bc197c8160e01b98975050505050505050565b34801561058457600080fd5b50610211610593366004612961565b60036020526000908152604090205481565b6102876105b3366004612e61565b6117da565b6102876105c6366004612ed5565b611b1d565b3480156105d757600080fd5b506102446105e6366004612efb565b600160209081526000928352604080842090915290825290205460ff1681565b6102d5610614366004612f25565b63f23a6e6160e01b9695505050505050565b610287610634366004612f25565b611bf6565b34801561064557600080fd5b50610244610654366004612961565b60026020526000908152604090205460ff1681565b610287610677366004612b51565b611e08565b60006001600160e01b03198216630a85bd0160e11b14806106c657507f4e2312e0000000000000000000000000000000000000000000000000000000006001600160e01b03198316145b806106d557506106d582611ee4565b92915050565b60606106e76000611f7d565b508167ffffffffffffffff81111561070157610701612f9d565b60405190808252806020026020018201604052801561072a578160200160208202803683370190505b50905060005b828110156108605761083684848381811061074d5761074d612fb3565b905060200281019061075f9190612fc9565b61076d906020810190612fe9565b85858481811061077f5761077f612fb3565b90506020028101906107919190612fc9565b6107a2906040810190602001613004565b8686858181106107b4576107b4612fb3565b90506020028101906107c69190612fc9565b604001358787868181106107dc576107dc612fb3565b90506020028101906107ee9190612fc9565b6107fc90606081019061301f565b8080601f016020809104026020016040519081016040528093929190818152602001838380828437600092019190915250611fcf92505050565b82828151811061084857610848612fb3565b91151560209283029190910190910152600101610730565b5092915050565b600061087333836109cc565b33600081815260046020908152604080832087845282529182902080547fffffffffffffffffffffffff0000000000000000000000000000000000000000166001600160a01b038981169182179092559251878152949550919391851692917f287e04de574701d97a55bd9ea85b32defecf76a607b8007ee9ae8c126bf7a746910160405180910390a433600090815260208181526040808320858452909152902054610925908290859085906121f5565b505050565b600081815260096020526040902080546060919061094790613066565b80601f016020809104026020016040519081016040528092919081815260200182805461097390613066565b80156109c05780601f10610995576101008083540402835291602001916109c0565b820191906000526020600020905b8154815290600101906020018083116109a357829003601f168201915b50505050509050919050565b6001600160a01b0380831660009081526004602090815260408083208584529091528120549091168015610a005780610a02565b835b949350505050565b848314610a2a5760405163899ef10d60e01b815260040160405180910390fd5b336001600160a01b03891614801590610a6757506001600160a01b038816600090815260016020908152604080832033845290915290205460ff16155b15610a8557604051633d83866f60e01b815260040160405180910390fd5b60008060005b87811015610b7f57888882818110610aa557610aa5612fb3565b905060200201359250868682818110610ac057610ac0612fb3565b6000868152600260209081526040909120549102929092013593505060ff16610afc57604051634f8cca5b60e11b815260040160405180910390fd5b6001600160a01b038b1660009081526020818152604080832086845290915281208054849290610b2d9084906130b6565b90915550506001600160a01b038a166000908152602081815260408083208684529091529020805483019055610b77610b668c856109cc565b610b708c866109cc565b85856121f5565b600101610a8b565b50886001600160a01b03168a6001600160a01b0316336001600160a01b03167f4a39dc06d4c0dbc64b70af90fd698a233a518aa5d07e595d983b8c0526c8f7fb8b8b8b8b604051610bd3949392919061311c565b60405180910390a46001600160a01b0389163b15610c7b5760405163bc197c8160e01b808252906001600160a01b038b169063bc197c8190610c279033908f908e908e908e908e908e908e90600401613177565b6020604051808303816000875af1158015610c46573d6000803e3d6000fd5b505050506040513d601f19601f82011682018060405250810190610c6a91906131cc565b6001600160e01b0319161415610c87565b6001600160a01b038916155b15610ca55760405163290802d360e11b815260040160405180910390fd5b50505050505050505050565b60003660011981013560f01c9003600301354614610d855750604080518082018252600881526725b0b634a1b63ab160c11b60209182015281517f8b73c3c69bb8fe3d512ecc4cf759cc79239f7b179b0ffacaa9a75d522b39400f818301527f5b5b1483404ac93e4d9b025a8feb4c5ea9304085ab2e513c578af4cec7eb5319818401527fc89efdaa54c0f20c7adf612882df0950f5a951637e0307cdcb4c672f298b8bc660608201524660808201523060a0808301919091528351808303909101815260c0909101909252815191012090565b5060085490565b6060838214610dae5760405163899ef10d60e01b815260040160405180910390fd5b8367ffffffffffffffff811115610dc757610dc7612f9d565b604051908082528060200260200182016040528015610df0578160200160208202803683370190505b50905060005b84811015610e9757600080878784818110610e1357610e13612fb3565b9050602002016020810190610e289190613004565b6001600160a01b03166001600160a01b031681526020019081526020016000206000858584818110610e5c57610e5c612fb3565b90506020020135815260200190815260200160002054828281518110610e8457610e84612fb3565b6020908102919091010152600101610df6565b50949350505050565b610eaa6000611f7d565b50610eb58282612387565b5050565b610ec36000611f7d565b50610ed185858585856123d9565b5050505050565b6001600160a01b0382166000908152600560209081526040808320848452909152812054808203610f0a576000610f4b565b6001600160a01b0384166000908152600660209081526040808320868452825280832060001985018452909152902054600160401b90046001600160c01b03165b6001600160c01b0316949350505050565b6000814211610f97576040517f83aace3d00000000000000000000000000000000000000000000000000000000815260040160405180910390fd5b6001600160a01b038416600090815260056020908152604080832086845290915281205490819003610fcd57600091505061119a565b6001600160a01b038516600090815260066020908152604080832087845282528083206000198501845290915290205467ffffffffffffffff168310611055576001600160a01b03851660009081526006602090815260408083208784528252808320600019909401835292905220546001600160c01b03600160401b90910416905061119a565b6001600160a01b0385166000908152600660209081526040808320878452825280832083805290915290205467ffffffffffffffff1683101561109c57600091505061119a565b600060001982015b8181111561115a576001600160a01b0387166000908152600660209081526040808320898452825280832060028686030485038085529083529281902081518083019092525467ffffffffffffffff8116808352600160401b9091046001600160c01b0316928201929092529087900361113157602001516001600160c01b0316945061119a9350505050565b805167ffffffffffffffff1687111561114c57819350611153565b6001820392505b50506110a4565b506001600160a01b038616600090815260066020908152604080832088845282528083209383529290522054600160401b90046001600160c01b03169150505b9392505050565b6111ab6000611f7d565b5060008381526009602052604090206111c582848361322f565b50827f6bb7ff708619ba0610cba295a58592e0451dee2622938c8755667688daf3529b83836040516111f89291906132ef565b60405180910390a2505050565b600080611210610cb1565b600754604051611259917f7a41bb8eed3a04b9ccfc055b3e6b3247171ef52d9f9a1242a8f6a4bd2b40ed9e918d918d918d918d918d9167ffffffffffffffff169060200161333b565b604051602081830303815290604052805190602001206040516020016112b19291907f190100000000000000000000000000000000000000000000000000000000000081526002810192909252602282015260420190565b60408051808303601f190181529190528051602090910120600754909150600090600160401b900467ffffffffffffffff16815b818110156115b257600060018589898581811061130457611304612fb3565b61131a9260206060909202019081019150613395565b8a8a8681811061132c5761132c612fb3565b905060600201602001358b8b8781811061134857611348612fb3565b9050606002016040013560405160008152602001604052604051611388949392919093845260ff9290921660208401526040830152606082015260800190565b6020604051602081039080840390855afa1580156113aa573d6000803e3d6000fd5b5050604051601f1901519150506001600160a01b0381163b15611535577f1626ba7e000000000000000000000000000000000000000000000000000000006001600160a01b038216631626ba7e878b8b8781811061140a5761140a612fb3565b905060600201602001358c8c8881811061142657611426612fb3565b905060600201604001358d8d8981811061144257611442612fb3565b6114589260206060909202019081019150613395565b6040516020016114a093929190928352602083019190915260f81b7fff0000000000000000000000000000000000000000000000000000000000000016604082015260410190565b6040516020818303038152906040526040518363ffffffff1660e01b81526004016114cc9291906133b8565b602060405180830381865afa1580156114e9573d6000803e3d6000fd5b505050506040513d601f19601f8201168201806040525081019061150d91906131cc565b6001600160e01b0319161461153557604051633ba7c2c960e21b815260040160405180910390fd5b6001600160a01b038116600090815260208181526040808320838052909152812054900361157657604051633ba7c2c960e21b815260040160405180910390fd5b806001600160a01b0316846001600160a01b0316106115a857604051633ba7c2c960e21b815260040160405180910390fd5b92506001016112e5565b506115f58b8b8b8b8b8080601f016020809104026020016040519081016040528093929190818152602001838380828437600092019190915250611fcf92505050565b9b9a5050505050505050505050565b3360008181526001602090815260408083206001600160a01b03871680855290835292819020805460ff191686151590811790915590519081529192917f17307eab39ab6107e8899845ad3d59bd9653f200f220920489ca2b5937696c3191015b60405180910390a35050565b60608167ffffffffffffffff81111561168c5761168c612f9d565b6040519080825280602002602001820160405280156116bf57816020015b60608152602001906001900390816116aa5790505b50905060005b8281101561086057600080308686858181106116e3576116e3612fb3565b90506020028101906116f5919061301f565b6040516117039291906133d1565b600060405180830381855af49150503d806000811461173e576040519150601f19603f3d011682016040523d82523d6000602084013e611743565b606091505b5091509150816117b25760448151101561175c57600080fd5b6004810190508080602001905181019061177691906133e1565b6040517f08c379a00000000000000000000000000000000000000000000000000000000081526004016117a991906129d2565b60405180910390fd5b808484815181106117c5576117c5612fb3565b602090810291909101015250506001016116c5565b60075467ffffffffffffffff161561181e576040517fb2c6f10f00000000000000000000000000000000000000000000000000000000815260040160405180910390fd5b8061182857600080fd5b8181111561184957604051631534858160e01b815260040160405180910390fd5b83156119095760005b84811015611907576118fe86868381811061186f5761186f612fb3565b90506020028101906118819190612fc9565b61188f906020810190612fe9565b8787848181106118a1576118a1612fb3565b90506020028101906118b39190612fc9565b6118c4906040810190602001613004565b8888858181106118d6576118d6612fb3565b90506020028101906118e89190612fc9565b604001358989868181106107dc576107dc612fb3565b50600101611852565b505b6000806000805b858110156119e55786868281811061192a5761192a612fb3565b905060200201602081019061193f9190613004565b9350836001600160a01b0316836001600160a01b03161061197357604051633ba7c2c960e21b815260040160405180910390fd5b6001600160a01b038416600081815260208181526040808320838052825280832080546001908101909155815184815292830181905281518998509681019695019433927fc3d58168c5ae7397731d063d5bbf3d657854427343f4c083240f7aacaa2d0f6292908290030190a4611910565b506007805467ffffffffffffffff8616600160401b027fffffffffffffffffffffffffffffffff000000000000000000000000000000009091161760011790556000805260036020527f3617319a054d772f909f7c479a2cebe5066e836a939412e32403c99029b92eff819055611b10604080518082018252600881526725b0b634a1b63ab160c11b60209182015281517f8b73c3c69bb8fe3d512ecc4cf759cc79239f7b179b0ffacaa9a75d522b39400f818301527f5b5b1483404ac93e4d9b025a8feb4c5ea9304085ab2e513c578af4cec7eb5319818401527fc89efdaa54c0f20c7adf612882df0950f5a951637e0307cdcb4c672f298b8bc660608201524660808201523060a0808301919091528351808303909101815260c0909101909252815191012090565b6008555050505050505050565b611b276000611f7d565b5080611b3257600080fd5b6000805260036020527f3617319a054d772f909f7c479a2cebe5066e836a939412e32403c99029b92eff5463ffffffff82161115611b8357604051631534858160e01b815260040160405180910390fd5b600780547fffffffffffffffffffffffffffffffff0000000000000000ffffffffffffffff1663ffffffff8316600160401b81029190911790915560405190815233907fc8bdbc84626c082832bea9ab3c3626d6941b91b2df27cc2f8b621597415e4d869060200160405180910390a250565b336001600160a01b03871614801590611c3357506001600160a01b038616600090815260016020908152604080832033845290915290205460ff16155b15611c5157604051633d83866f60e01b815260040160405180910390fd5b60008481526002602052604090205460ff16611c8057604051634f8cca5b60e11b815260040160405180910390fd5b6001600160a01b03861660009081526020818152604080832087845290915281208054859290611cb19084906130b6565b90915550506001600160a01b038581166000818152602081815260408083208984528252918290208054880190558151888152908101879052919289169133917fc3d58168c5ae7397731d063d5bbf3d657854427343f4c083240f7aacaa2d0f62910160405180910390a46001600160a01b0385163b15611db85760405163f23a6e6160e01b808252906001600160a01b0387169063f23a6e6190611d649033908b908a908a908a908a90600401613483565b6020604051808303816000875af1158015611d83573d6000803e3d6000fd5b505050506040513d601f19601f82011682018060405250810190611da791906131cc565b6001600160e01b0319161415611dc4565b6001600160a01b038516155b15611de25760405163290802d360e11b815260040160405180910390fd5b611e00611def87866109cc565b611df987876109cc565b86866121f5565b505050505050565b336001600160a01b03841614801590611e4557506001600160a01b038316600090815260016020908152604080832033845290915290205460ff16155b8015611e585750611e566000611f7d565b155b15611e7657604051633d83866f60e01b815260040160405180910390fd5b611e81838383612531565b81610925576000805260036020527f3617319a054d772f909f7c479a2cebe5066e836a939412e32403c99029b92eff54600754600160401b900467ffffffffffffffff16111561092557604051631534858160e01b815260040160405180910390fd5b60006001600160e01b031982167f01ffc9a7000000000000000000000000000000000000000000000000000000001480611f4757507fd9b67a26000000000000000000000000000000000000000000000000000000006001600160e01b03198316145b806106d55750506001600160e01b0319167f0e89341c000000000000000000000000000000000000000000000000000000001490565b600033301480611fa457503360009081526020818152604080832085845290915290205415155b15611fb157506001919050565b604051633d83866f60e01b815260040160405180910390fd5b919050565b6007805467ffffffffffffffff8082166001011667ffffffffffffffff1990911617905560008085600381111561200857612008613303565b036120845760008083516020850186885af190508061203a57604051633c47f9b560e21b815260040160405180910390fd5b836001600160a01b03167ffa3c55dc43f5cfdeb2abee243c63ad490db2fee39fd127076ed9e7afa15ad638868585604051612077939291906134c8565b60405180910390a2610a02565b600185600381111561209857612098613303565b036120c957600080835160208501875af490508061203a57604051633c47f9b560e21b815260040160405180910390fd5b60028560038111156120dd576120dd613303565b0361215e57600082516020840185f090506001600160a01b03811661211557604051633c47f9b560e21b815260040160405180910390fd5b806001600160a01b03167fd187b7c22150909fa5ee0d652f5966e66148500fabe5615b1079e7ef39fe3fb787866040516121509291906134f7565b60405180910390a250610a02565b6000808560601b6bffffffffffffffffffffffff191690508084518560200187f591506001600160a01b0382166121a857604051633c47f9b560e21b815260040160405180910390fd5b816001600160a01b03167fd187b7c22150909fa5ee0d652f5966e66148500fabe5615b1079e7ef39fe3fb788876040516121e39291906134f7565b60405180910390a25050949350505050565b826001600160a01b0316846001600160a01b03161415801561221657508015155b15612381576001600160a01b038416156122d2576001600160a01b03841660009081526005602090815260408083208584529091528120549081810361225d5760006122ae565b6001600160a01b038616600090815260066020908152604080832087845290915281209061228c6001856130b6565b8152602081019190915260400160002054600160401b90046001600160c01b03165b6001600160c01b031690506122cf868584846122ca88826130b6565b6125d8565b50505b6001600160a01b03831615612381576001600160a01b038316600090815260056020908152604080832085845290915281205490818103612314576000612365565b6001600160a01b03851660009081526006602090815260408083208784529091528120906123436001856130b6565b8152602081019190915260400160002054600160401b90046001600160c01b03165b6001600160c01b03169050611e00858584846122ca8882613512565b50505050565b600082815260026020908152604091829020805460ff19168415159081179091559151918252839133917f030b8b6f293952c4e53cc2ac59481057844588ce19c7d10ca5468e4d6938f1959101611665565b600084815260036020526040812080548592906123f7908490613512565b90915550506001600160a01b0385166000818152602081815260408083208884528252808320805488019055805188815291820187905233917fc3d58168c5ae7397731d063d5bbf3d657854427343f4c083240f7aacaa2d0f62910160405180910390a46001600160a01b0385163b156124f85760405163f23a6e6160e01b808252906001600160a01b0387169063f23a6e61906124a49033906000908a908a908a908a90600401613483565b6020604051808303816000875af11580156124c3573d6000803e3d6000fd5b505050506040513d601f19601f820116820180604052508101906124e791906131cc565b6001600160e01b0319161415612504565b6001600160a01b038516155b156125225760405163290802d360e11b815260040160405180910390fd5b610ed16000611df987876109cc565b6001600160a01b038316600090815260208181526040808320858452909152812080548392906125629084906130b6565b909155505060008281526003602090815260408083208054859003905580518581529182018490526001600160a01b0386169133917fc3d58168c5ae7397731d063d5bbf3d657854427343f4c083240f7aacaa2d0f62910160405180910390a46109256125cf84846109cc565b600084846121f5565b60006125e34261277d565b9050831580159061262f57506001600160a01b038616600090815260066020908152604080832088845282528083206000198801845290915290205467ffffffffffffffff8281169116145b156126975761263d826127c1565b6001600160a01b0387166000908152600660209081526040808320898452825280832060001989018452909152902080546001600160c01b0392909216600160401b0267ffffffffffffffff90921691909117905561272f565b60405180604001604052808267ffffffffffffffff1681526020016126bb846127c1565b6001600160c01b039081169091526001600160a01b03881660008181526006602090815260408083208b845282528083208a84528252808320865196830151909516600160401b0267ffffffffffffffff909616959095179093559081526005825282812088825290915220805460010190555b50604080518381526020810183905285916001600160a01b038816917f21a99d51b8a0a2e2ead709843a1ecfaab977908135cf1c085c0a6246eea6e0f0910160405180910390a35050505050565b6000600160401b8211156127bd576040517f5b7f254e00000000000000000000000000000000000000000000000000000000815260040160405180910390fd5b5090565b600078010000000000000000000000000000000000000000000000008211156127bd576040517fd5e0d1b200000000000000000000000000000000000000000000000000000000815260040160405180910390fd5b80356001600160a01b0381168114611fca57600080fd5b6000806040838503121561284057600080fd5b61284983612816565b946020939093013593505050565b6001600160e01b03198116811461286d57600080fd5b50565b60006020828403121561288257600080fd5b813561119a81612857565b60008083601f84011261289f57600080fd5b50813567ffffffffffffffff8111156128b757600080fd5b6020830191508360208260051b85010111156128d257600080fd5b9250929050565b600080602083850312156128ec57600080fd5b823567ffffffffffffffff81111561290357600080fd5b61290f8582860161288d565b90969095509350505050565b6020808252825182820181905260009190848201906040850190845b81811015612955578351151583529284019291840191600101612937565b50909695505050505050565b60006020828403121561297357600080fd5b5035919050565b60005b8381101561299557818101518382015260200161297d565b838111156123815750506000910152565b600081518084526129be81602086016020860161297a565b601f01601f19169290920160200192915050565b60208152600061119a60208301846129a6565b60008083601f8401126129f757600080fd5b50813567ffffffffffffffff811115612a0f57600080fd5b6020830191508360208285010111156128d257600080fd5b600080600080600060808688031215612a3f57600080fd5b612a4886612816565b9450612a5660208701612816565b935060408601359250606086013567ffffffffffffffff811115612a7957600080fd5b612a85888289016129e5565b969995985093965092949392505050565b60008060008060008060008060a0898b031215612ab257600080fd5b612abb89612816565b9750612ac960208a01612816565b9650604089013567ffffffffffffffff80821115612ae657600080fd5b612af28c838d0161288d565b909850965060608b0135915080821115612b0b57600080fd5b612b178c838d0161288d565b909650945060808b0135915080821115612b3057600080fd5b50612b3d8b828c016129e5565b999c989b5096995094979396929594505050565b600080600060608486031215612b6657600080fd5b612b6f84612816565b95602085013595506040909401359392505050565b60008060008060408587031215612b9a57600080fd5b843567ffffffffffffffff80821115612bb257600080fd5b612bbe8883890161288d565b90965094506020870135915080821115612bd757600080fd5b50612be48782880161288d565b95989497509550505050565b6020808252825182820181905260009190848201906040850190845b8181101561295557835183529284019291840191600101612c0c565b80358015158114611fca57600080fd5b60008060408385031215612c4b57600080fd5b82359150612c5b60208401612c28565b90509250929050565b600080600080600060808688031215612c7c57600080fd5b612c8586612816565b94506020860135935060408601359250606086013567ffffffffffffffff811115612a7957600080fd5b600080600060408486031215612cc457600080fd5b83359250602084013567ffffffffffffffff811115612ce257600080fd5b612cee868287016129e5565b9497909650939450505050565b803560048110611fca57600080fd5b600080600080600080600060a0888a031215612d2557600080fd5b612d2e88612cfb565b9650612d3c60208901612816565b955060408801359450606088013567ffffffffffffffff80821115612d6057600080fd5b612d6c8b838c016129e5565b909650945060808a0135915080821115612d8557600080fd5b818a0191508a601f830112612d9957600080fd5b813581811115612da857600080fd5b8b6020606083028501011115612dbd57600080fd5b60208301945080935050505092959891949750929550565b60008060408385031215612de857600080fd5b612df183612816565b9150612c5b60208401612c28565b6000602080830181845280855180835260408601915060408160051b870101925083870160005b82811015612e5457603f19888603018452612e428583516129a6565b94509285019290850190600101612e26565b5092979650505050505050565b600080600080600060608688031215612e7957600080fd5b853567ffffffffffffffff80821115612e9157600080fd5b612e9d89838a0161288d565b90975095506020880135915080821115612eb657600080fd5b50612ec38882890161288d565b96999598509660400135949350505050565b600060208284031215612ee757600080fd5b813563ffffffff8116811461119a57600080fd5b60008060408385031215612f0e57600080fd5b612f1783612816565b9150612c5b60208401612816565b60008060008060008060a08789031215612f3e57600080fd5b612f4787612816565b9550612f5560208801612816565b94506040870135935060608701359250608087013567ffffffffffffffff811115612f7f57600080fd5b612f8b89828a016129e5565b979a9699509497509295939492505050565b634e487b7160e01b600052604160045260246000fd5b634e487b7160e01b600052603260045260246000fd5b60008235607e19833603018112612fdf57600080fd5b9190910192915050565b600060208284031215612ffb57600080fd5b61119a82612cfb565b60006020828403121561301657600080fd5b61119a82612816565b6000808335601e1984360301811261303657600080fd5b83018035915067ffffffffffffffff82111561305157600080fd5b6020019150368190038213156128d257600080fd5b600181811c9082168061307a57607f821691505b60208210810361309a57634e487b7160e01b600052602260045260246000fd5b50919050565b634e487b7160e01b600052601160045260246000fd5b6000828210156130c8576130c86130a0565b500390565b81835260007f07ffffffffffffffffffffffffffffffffffffffffffffffffffffffffffffff8311156130ff57600080fd5b8260051b8083602087013760009401602001938452509192915050565b6040815260006131306040830186886130cd565b82810360208401526131438185876130cd565b979650505050505050565b81835281816020850137506000828201602090810191909152601f909101601f19169091010190565b60006001600160a01b03808b168352808a1660208401525060a060408301526131a460a08301888a6130cd565b82810360608401526131b78187896130cd565b905082810360808401526115f581858761314e565b6000602082840312156131de57600080fd5b815161119a81612857565b601f82111561092557600081815260208120601f850160051c810160208610156132105750805b601f850160051c820191505b81811015611e005782815560010161321c565b67ffffffffffffffff83111561324757613247612f9d565b61325b836132558354613066565b836131e9565b6000601f84116001811461328f57600085156132775750838201355b600019600387901b1c1916600186901b178355610ed1565b600083815260209020601f19861690835b828110156132c057868501358255602094850194600190920191016132a0565b50868210156132dd5760001960f88860031b161c19848701351681555b505060018560011b0183555050505050565b602081526000610a0260208301848661314e565b634e487b7160e01b600052602160045260246000fd5b6004811061333757634e487b7160e01b600052602160045260246000fd5b9052565b87815261334b6020820188613319565b6001600160a01b038616604082015284606082015260c06080820152600061337760c08301858761314e565b905067ffffffffffffffff831660a083015298975050505050505050565b6000602082840312156133a757600080fd5b813560ff8116811461119a57600080fd5b828152604060208201526000610a0260408301846129a6565b8183823760009101908152919050565b6000602082840312156133f357600080fd5b815167ffffffffffffffff8082111561340b57600080fd5b818401915084601f83011261341f57600080fd5b81518181111561343157613431612f9d565b604051601f8201601f19908116603f0116810190838211818310171561345957613459612f9d565b8160405282815287602084870101111561347257600080fd5b61314383602083016020880161297a565b60006001600160a01b03808916835280881660208401525085604083015284606083015260a060808301526134bc60a08301848661314e565b98975050505050505050565b6134d28185613319565b8260208201526060604082015260006134ee60608301846129a6565b95945050505050565b604081016135058285613319565b8260208301529392505050565b60008219821115613525576135256130a0565b50019056fea264697066735822122021bd98b43bae415b4f769e5f93269cdf3f29e215c12303784d67402fef3f787b64736f6c634300080f0033",
    "linkReferences": {}
  }
}