{
  "abi": [
    {
      "inputs": [
        {
          "internalType": "contract KaliClub",
          "name": "_renderer",
          "type": "address"
        }
      ],
      "stateMutability": "payable",
      "type": "constructor"
    },
    {
      "inputs": [],
      "name": "AlreadyInit",
      "type": "error"
    },
    {
      "inputs": [],
      "name": "AlreadyMinted",
      "type": "error"
    },
    {
      "inputs": [],
      "name": "ExecuteFailed",
      "type": "error"
    },
    {
      "inputs": [],
      "name": "Forbidden",
      "type": "error"
    },
    {
      "inputs": [],
      "name": "InvalidRecipient",
      "type": "error"
    },
    {
      "inputs": [],
      "name": "InvalidSig",
      "type": "error"
    },
    {
      "inputs": [],
      "name": "NotMinted",
      "type": "error"
    },
    {
      "inputs": [],
      "name": "NotOwner",
      "type": "error"
    },
    {
      "inputs": [],
      "name": "Paused",
      "type": "error"
    },
    {
      "inputs": [],
      "name": "QuorumOverSigs",
      "type": "error"
    },
    {
      "anonymous": false,
      "inputs": [
        {
          "indexed": true,
          "internalType": "address",
          "name": "owner",
          "type": "address"
        },
        {
          "indexed": true,
          "internalType": "address",
          "name": "spender",
          "type": "address"
        },
        {
          "indexed": true,
          "internalType": "uint256",
          "name": "id",
          "type": "uint256"
        }
      ],
      "name": "Approval",
      "type": "event"
    },
    {
      "anonymous": false,
      "inputs": [
        {
          "indexed": true,
          "internalType": "address",
          "name": "owner",
          "type": "address"
        },
        {
          "indexed": true,
          "internalType": "address",
          "name": "operator",
          "type": "address"
        },
        {
          "indexed": false,
          "internalType": "bool",
          "name": "approved",
          "type": "bool"
        }
      ],
      "name": "ApprovalForAll",
      "type": "event"
    },
    {
      "anonymous": false,
      "inputs": [
        {
          "indexed": false,
          "internalType": "enum Operation",
          "name": "op",
          "type": "uint8"
        },
        {
          "indexed": true,
          "internalType": "address",
          "name": "to",
          "type": "address"
        },
        {
          "indexed": false,
          "internalType": "uint256",
          "name": "value",
          "type": "uint256"
        },
        {
          "indexed": false,
          "internalType": "bytes",
          "name": "data",
          "type": "bytes"
        }
      ],
      "name": "Execute",
      "type": "event"
    },
    {
      "anonymous": false,
      "inputs": [
        {
          "components": [
            {
              "internalType": "bool",
              "name": "mint",
              "type": "bool"
            },
            {
              "internalType": "address",
              "name": "signer",
              "type": "address"
            },
            {
              "internalType": "uint256",
              "name": "id",
              "type": "uint256"
            }
          ],
          "indexed": false,
          "internalType": "struct IMember.Member[]",
          "name": "members",
          "type": "tuple[]"
        },
        {
          "indexed": false,
          "internalType": "uint256",
          "name": "quorum",
          "type": "uint256"
        }
      ],
      "name": "Govern",
      "type": "event"
    },
    {
      "anonymous": false,
      "inputs": [
        {
          "indexed": true,
          "internalType": "address",
          "name": "account",
          "type": "address"
        },
        {
          "indexed": false,
          "internalType": "bool",
          "name": "approved",
          "type": "bool"
        }
      ],
      "name": "GovernorSet",
      "type": "event"
    },
    {
      "anonymous": false,
      "inputs": [
        {
          "indexed": false,
          "internalType": "bool",
          "name": "paused",
          "type": "bool"
        }
      ],
      "name": "PauseSet",
      "type": "event"
    },
    {
      "anonymous": false,
      "inputs": [
        {
          "indexed": true,
          "internalType": "address",
          "name": "from",
          "type": "address"
        },
        {
          "indexed": true,
          "internalType": "address",
          "name": "to",
          "type": "address"
        },
        {
          "indexed": true,
          "internalType": "uint256",
          "name": "id",
          "type": "uint256"
        }
      ],
      "name": "Transfer",
      "type": "event"
    },
    {
      "anonymous": false,
      "inputs": [
        {
          "indexed": false,
          "internalType": "string",
          "name": "baseURI",
          "type": "string"
        }
      ],
      "name": "URIset",
      "type": "event"
    },
    {
      "inputs": [],
      "name": "DOMAIN_SEPARATOR",
      "outputs": [
        {
          "internalType": "bytes32",
          "name": "",
          "type": "bytes32"
        }
      ],
      "stateMutability": "view",
      "type": "function"
    },
    {
      "inputs": [
        {
          "internalType": "address",
          "name": "spender",
          "type": "address"
        },
        {
          "internalType": "uint256",
          "name": "id",
          "type": "uint256"
        }
      ],
      "name": "approve",
      "outputs": [],
      "stateMutability": "payable",
      "type": "function"
    },
    {
      "inputs": [
        {
          "internalType": "address",
          "name": "",
          "type": "address"
        }
      ],
      "name": "balanceOf",
      "outputs": [
        {
          "internalType": "uint256",
          "name": "",
          "type": "uint256"
        }
      ],
      "stateMutability": "view",
      "type": "function"
    },
    {
      "inputs": [
        {
          "components": [
            {
              "internalType": "enum Operation",
              "name": "op",
              "type": "uint8"
            },
            {
              "internalType": "address",
              "name": "to",
              "type": "address"
            },
            {
              "internalType": "uint256",
              "name": "value",
              "type": "uint256"
            },
            {
              "internalType": "bytes",
              "name": "data",
              "type": "bytes"
            }
          ],
          "internalType": "struct Call[]",
          "name": "calls",
          "type": "tuple[]"
        }
      ],
      "name": "batchExecute",
      "outputs": [
        {
          "internalType": "bool[]",
          "name": "successes",
          "type": "bool[]"
        }
      ],
      "stateMutability": "payable",
      "type": "function"
    },
    {
      "inputs": [
        {
          "internalType": "enum Operation",
          "name": "op",
          "type": "uint8"
        },
        {
          "internalType": "address",
          "name": "to",
          "type": "address"
        },
        {
          "internalType": "uint256",
          "name": "value",
          "type": "uint256"
        },
        {
          "internalType": "bytes",
          "name": "data",
          "type": "bytes"
        },
        {
          "components": [
            {
              "internalType": "uint8",
              "name": "v",
              "type": "uint8"
            },
            {
              "internalType": "bytes32",
              "name": "r",
              "type": "bytes32"
            },
            {
              "internalType": "bytes32",
              "name": "s",
              "type": "bytes32"
            }
          ],
          "internalType": "struct Signature[]",
          "name": "sigs",
          "type": "tuple[]"
        }
      ],
      "name": "execute",
      "outputs": [
        {
          "internalType": "bool",
          "name": "success",
          "type": "bool"
        }
      ],
      "stateMutability": "payable",
      "type": "function"
    },
    {
      "inputs": [
        {
          "internalType": "uint256",
          "name": "",
          "type": "uint256"
        }
      ],
      "name": "getApproved",
      "outputs": [
        {
          "internalType": "address",
          "name": "",
          "type": "address"
        }
      ],
      "stateMutability": "view",
      "type": "function"
    },
    {
      "inputs": [
        {
          "internalType": "enum Operation",
          "name": "op",
          "type": "uint8"
        },
        {
          "internalType": "address",
          "name": "to",
          "type": "address"
        },
        {
          "internalType": "uint256",
          "name": "value",
          "type": "uint256"
        },
        {
          "internalType": "bytes",
          "name": "data",
          "type": "bytes"
        },
        {
          "internalType": "uint256",
          "name": "txNonce",
          "type": "uint256"
        }
      ],
      "name": "getDigest",
      "outputs": [
        {
          "internalType": "bytes32",
          "name": "",
          "type": "bytes32"
        }
      ],
      "stateMutability": "view",
      "type": "function"
    },
    {
      "inputs": [
        {
          "components": [
            {
              "internalType": "bool",
              "name": "mint",
              "type": "bool"
            },
            {
              "internalType": "address",
              "name": "signer",
              "type": "address"
            },
            {
              "internalType": "uint256",
              "name": "id",
              "type": "uint256"
            }
          ],
          "internalType": "struct IMember.Member[]",
          "name": "members",
          "type": "tuple[]"
        },
        {
          "internalType": "uint256",
          "name": "threshold",
          "type": "uint256"
        }
      ],
      "name": "govern",
      "outputs": [],
      "stateMutability": "payable",
      "type": "function"
    },
    {
      "inputs": [
        {
          "internalType": "address",
          "name": "",
          "type": "address"
        }
      ],
      "name": "governor",
      "outputs": [
        {
          "internalType": "bool",
          "name": "",
          "type": "bool"
        }
      ],
      "stateMutability": "view",
      "type": "function"
    },
    {
      "inputs": [
        {
          "components": [
            {
              "internalType": "enum Operation",
              "name": "op",
              "type": "uint8"
            },
            {
              "internalType": "address",
              "name": "to",
              "type": "address"
            },
            {
              "internalType": "uint256",
              "name": "value",
              "type": "uint256"
            },
            {
              "internalType": "bytes",
              "name": "data",
              "type": "bytes"
            }
          ],
          "internalType": "struct Call[]",
          "name": "calls",
          "type": "tuple[]"
        },
        {
          "components": [
            {
              "internalType": "bool",
              "name": "mint",
              "type": "bool"
            },
            {
              "internalType": "address",
              "name": "signer",
              "type": "address"
            },
            {
              "internalType": "uint256",
              "name": "id",
              "type": "uint256"
            }
          ],
          "internalType": "struct IMember.Member[]",
          "name": "members",
          "type": "tuple[]"
        },
        {
          "internalType": "uint256",
          "name": "threshold",
          "type": "uint256"
        },
        {
          "internalType": "bool",
          "name": "paused",
          "type": "bool"
        },
        {
          "internalType": "string",
          "name": "uri",
          "type": "string"
        }
      ],
      "name": "init",
      "outputs": [],
      "stateMutability": "payable",
      "type": "function"
    },
    {
      "inputs": [
        {
          "internalType": "address",
          "name": "",
          "type": "address"
        },
        {
          "internalType": "address",
          "name": "",
          "type": "address"
        }
      ],
      "name": "isApprovedForAll",
      "outputs": [
        {
          "internalType": "bool",
          "name": "",
          "type": "bool"
        }
      ],
      "stateMutability": "view",
      "type": "function"
    },
    {
      "inputs": [
        {
          "internalType": "bytes[]",
          "name": "data",
          "type": "bytes[]"
        }
      ],
      "name": "multicall",
      "outputs": [
        {
          "internalType": "bytes[]",
          "name": "results",
          "type": "bytes[]"
        }
      ],
      "stateMutability": "payable",
      "type": "function"
    },
    {
      "inputs": [],
      "name": "name",
      "outputs": [
        {
          "internalType": "string",
          "name": "",
          "type": "string"
        }
      ],
      "stateMutability": "pure",
      "type": "function"
    },
    {
      "inputs": [],
      "name": "nonce",
      "outputs": [
        {
          "internalType": "uint64",
          "name": "",
          "type": "uint64"
        }
      ],
      "stateMutability": "view",
      "type": "function"
    },
    {
      "inputs": [
        {
          "internalType": "address",
          "name": "",
          "type": "address"
        },
        {
          "internalType": "address",
          "name": "",
          "type": "address"
        },
        {
          "internalType": "uint256[]",
          "name": "",
          "type": "uint256[]"
        },
        {
          "internalType": "uint256[]",
          "name": "",
          "type": "uint256[]"
        },
        {
          "internalType": "bytes",
          "name": "",
          "type": "bytes"
        }
      ],
      "name": "onERC1155BatchReceived",
      "outputs": [
        {
          "internalType": "bytes4",
          "name": "",
          "type": "bytes4"
        }
      ],
      "stateMutability": "pure",
      "type": "function"
    },
    {
      "inputs": [
        {
          "internalType": "address",
          "name": "",
          "type": "address"
        },
        {
          "internalType": "address",
          "name": "",
          "type": "address"
        },
        {
          "internalType": "uint256",
          "name": "",
          "type": "uint256"
        },
        {
          "internalType": "uint256",
          "name": "",
          "type": "uint256"
        },
        {
          "internalType": "bytes",
          "name": "",
          "type": "bytes"
        }
      ],
      "name": "onERC1155Received",
      "outputs": [
        {
          "internalType": "bytes4",
          "name": "",
          "type": "bytes4"
        }
      ],
      "stateMutability": "pure",
      "type": "function"
    },
    {
      "inputs": [
        {
          "internalType": "address",
          "name": "",
          "type": "address"
        },
        {
          "internalType": "address",
          "name": "",
          "type": "address"
        },
        {
          "internalType": "uint256",
          "name": "",
          "type": "uint256"
        },
        {
          "internalType": "bytes",
          "name": "",
          "type": "bytes"
        }
      ],
      "name": "onERC721Received",
      "outputs": [
        {
          "internalType": "bytes4",
          "name": "",
          "type": "bytes4"
        }
      ],
      "stateMutability": "pure",
      "type": "function"
    },
    {
      "inputs": [
        {
          "internalType": "uint256",
          "name": "",
          "type": "uint256"
        }
      ],
      "name": "ownerOf",
      "outputs": [
        {
          "internalType": "address",
          "name": "",
          "type": "address"
        }
      ],
      "stateMutability": "view",
      "type": "function"
    },
    {
      "inputs": [],
      "name": "paused",
      "outputs": [
        {
          "internalType": "bool",
          "name": "",
          "type": "bool"
        }
      ],
      "stateMutability": "view",
      "type": "function"
    },
    {
      "inputs": [],
      "name": "quorum",
      "outputs": [
        {
          "internalType": "uint64",
          "name": "",
          "type": "uint64"
        }
      ],
      "stateMutability": "view",
      "type": "function"
    },
    {
      "inputs": [
        {
          "internalType": "address",
          "name": "from",
          "type": "address"
        },
        {
          "internalType": "address",
          "name": "to",
          "type": "address"
        },
        {
          "internalType": "uint256",
          "name": "id",
          "type": "uint256"
        }
      ],
      "name": "safeTransferFrom",
      "outputs": [],
      "stateMutability": "payable",
      "type": "function"
    },
    {
      "inputs": [
        {
          "internalType": "address",
          "name": "from",
          "type": "address"
        },
        {
          "internalType": "address",
          "name": "to",
          "type": "address"
        },
        {
          "internalType": "uint256",
          "name": "id",
          "type": "uint256"
        },
        {
          "internalType": "bytes",
          "name": "data",
          "type": "bytes"
        }
      ],
      "name": "safeTransferFrom",
      "outputs": [],
      "stateMutability": "payable",
      "type": "function"
    },
    {
      "inputs": [
        {
          "internalType": "address",
          "name": "operator",
          "type": "address"
        },
        {
          "internalType": "bool",
          "name": "approved",
          "type": "bool"
        }
      ],
      "name": "setApprovalForAll",
      "outputs": [],
      "stateMutability": "payable",
      "type": "function"
    },
    {
      "inputs": [
        {
          "internalType": "address",
          "name": "account",
          "type": "address"
        },
        {
          "internalType": "bool",
          "name": "approved",
          "type": "bool"
        }
      ],
      "name": "setGovernor",
      "outputs": [],
      "stateMutability": "payable",
      "type": "function"
    },
    {
      "inputs": [
        {
          "internalType": "bool",
          "name": "paused_",
          "type": "bool"
        }
      ],
      "name": "setSignerPause",
      "outputs": [],
      "stateMutability": "payable",
      "type": "function"
    },
    {
      "inputs": [
        {
          "internalType": "string",
          "name": "baseURI_",
          "type": "string"
        }
      ],
      "name": "setURI",
      "outputs": [],
      "stateMutability": "payable",
      "type": "function"
    },
    {
      "inputs": [
        {
          "internalType": "bytes4",
          "name": "interfaceId",
          "type": "bytes4"
        }
      ],
      "name": "supportsInterface",
      "outputs": [
        {
          "internalType": "bool",
          "name": "",
          "type": "bool"
        }
      ],
      "stateMutability": "pure",
      "type": "function"
    },
    {
      "inputs": [],
      "name": "symbol",
      "outputs": [
        {
          "internalType": "string",
          "name": "",
          "type": "string"
        }
      ],
      "stateMutability": "pure",
      "type": "function"
    },
    {
      "inputs": [
        {
          "internalType": "uint256",
          "name": "id",
          "type": "uint256"
        }
      ],
      "name": "tokenURI",
      "outputs": [
        {
          "internalType": "string",
          "name": "",
          "type": "string"
        }
      ],
      "stateMutability": "view",
      "type": "function"
    },
    {
      "inputs": [],
      "name": "totalSupply",
      "outputs": [
        {
          "internalType": "uint64",
          "name": "",
          "type": "uint64"
        }
      ],
      "stateMutability": "view",
      "type": "function"
    },
    {
      "inputs": [
        {
          "internalType": "address",
          "name": "from",
          "type": "address"
        },
        {
          "internalType": "address",
          "name": "to",
          "type": "address"
        },
        {
          "internalType": "uint256",
          "name": "id",
          "type": "uint256"
        }
      ],
      "name": "transferFrom",
      "outputs": [],
      "stateMutability": "payable",
      "type": "function"
    }
  ],
  "bytecode": {
    "object": "0x60a060405260405162002cb238038062002cb2833981016040819052620000269162000038565b6001600160a01b03166080526200006a565b6000602082840312156200004b57600080fd5b81516001600160a01b03811681146200006357600080fd5b9392505050565b608051612c2c6200008660003960006116f40152612c2c6000f3fe6080604052600436106101d85760003560e01c80636352211e11610102578063b88d4fde11610095578063ce2c529211610064578063ce2c5292146105a3578063d4606ab9146105b6578063e985e9c5146105d6578063f23a6e611461061157600080fd5b8063b88d4fde14610515578063bc197c8114610528578063c436189414610570578063c87b56dd1461058357600080fd5b806395d89b41116100d157806395d89b41146104ac578063a22cb465146104c1578063ac9650d8146104d4578063affed0e0146104f457600080fd5b80636352211e1461040657806370a082311461043c57806370ec42e8146104695780638c995b911461049957600080fd5b80631703a0181161017a57806342842e0e1161014957806342842e0e146103b35780635160696c146103c657806355f52b8e146103d95780635c975abb146103ec57600080fd5b80631703a0181461030f57806318160ddd1461035557806323b872dd1461037d5780633644e5151461039057600080fd5b806306fdde03116101b657806306fdde0314610247578063081812fc14610269578063095ea7b3146102b7578063150b7a02146102ca57600080fd5b806301ffc9a7146101dd578063023e8d841461021257806302fe530514610232575b600080fd5b3480156101e957600080fd5b506101fd6101f8366004611fec565b610657565b60405190151581526020015b60405180910390f35b61022561022036600461205c565b6106f4565b604051610209919061209e565b610245610240366004612126565b6108b3565b005b34801561025357600080fd5b5061025c61093c565b60405161020991906121b8565b34801561027557600080fd5b5061029f6102843660046121cb565b6002602052600090815260409020546001600160a01b031681565b6040516001600160a01b039091168152602001610209565b6102456102c53660046121fb565b61096e565b3480156102d657600080fd5b506102f66102e5366004612225565b630a85bd0160e11b95945050505050565b6040516001600160e01b03199091168152602001610209565b34801561031b57600080fd5b5060065461033c9068010000000000000000900467ffffffffffffffff1681565b60405167ffffffffffffffff9091168152602001610209565b34801561036157600080fd5b5060065461033c90600160801b900467ffffffffffffffff1681565b61024561038b366004612294565b610a41565b34801561039c57600080fd5b506103a5610c10565b604051908152602001610209565b6102456103c1366004612294565b610c34565b6102456103d43660046122e0565b610d07565b6102456103e7366004612313565b610da4565b3480156103f857600080fd5b506004546101fd9060ff1681565b34801561041257600080fd5b5061029f6104213660046121cb565b6001602052600090815260409020546001600160a01b031681565b34801561044857600080fd5b506103a561045736600461232e565b60006020819052908152604090205481565b34801561047557600080fd5b506101fd61048436600461232e565b60076020526000908152604090205460ff1681565b6101fd6104a736600461239d565b610dee565b3480156104b857600080fd5b5061025c611135565b6102456104cf3660046122e0565b611141565b6104e76104e236600461205c565b6111ad565b6040516102099190612438565b34801561050057600080fd5b5060065461033c9067ffffffffffffffff1681565b610245610523366004612225565b611316565b34801561053457600080fd5b506102f661054336600461249a565b7fbc197c810000000000000000000000000000000000000000000000000000000098975050505050505050565b61024561057e366004612555565b6113d9565b34801561058f57600080fd5b5061025c61059e3660046121cb565b6116ad565b6102456105b13660046125eb565b611802565b3480156105c257600080fd5b506103a56105d1366004612637565b6119ec565b3480156105e257600080fd5b506101fd6105f13660046126ae565b600360209081526000928352604080842090915290825290205460ff1681565b34801561061d57600080fd5b506102f661062c3660046126d8565b7ff23a6e61000000000000000000000000000000000000000000000000000000009695505050505050565b60006001600160e01b031982167f01ffc9a70000000000000000000000000000000000000000000000000000000014806106ba57507f80ac58cd000000000000000000000000000000000000000000000000000000006001600160e01b03198316145b806106ee57507f5b5e139f000000000000000000000000000000000000000000000000000000006001600160e01b03198316145b92915050565b606033301480159061071657503360009081526007602052604090205460ff16155b1561073457604051631dd2188d60e31b815260040160405180910390fd5b8167ffffffffffffffff81111561074d5761074d612750565b604051908082528060200260200182016040528015610776578160200160208202803683370190505b50905060005b828110156108ac5761088284848381811061079957610799612766565b90506020028101906107ab919061277c565b6107b990602081019061279c565b8585848181106107cb576107cb612766565b90506020028101906107dd919061277c565b6107ee90604081019060200161232e565b86868581811061080057610800612766565b9050602002810190610812919061277c565b6040013587878681811061082857610828612766565b905060200281019061083a919061277c565b6108489060608101906127b7565b8080601f016020809104026020016040519081016040528093929190818152602001838380828437600092019190915250611aad92505050565b82828151811061089457610894612766565b9115156020928302919091019091015260010161077c565b5092915050565b3330148015906108d357503360009081526007602052604090205460ff16155b156108f157604051631dd2188d60e31b815260040160405180910390fd5b60056108fe828483612886565b507fce29678668382e064e92681c6a47e0a1ccf09464321c9d234842ad54e8c3c336828260405161093092919061296f565b60405180910390a15050565b60606109486000611c32565b60405160200161095a91815260200190565b604051602081830303815290604052905090565b6000818152600160205260409020546001600160a01b03163381148015906109ba57506001600160a01b038116600090815260036020908152604080832033845290915290205460ff16155b156109d857604051631dd2188d60e31b815260040160405180910390fd5b600082815260026020526040808220805473ffffffffffffffffffffffffffffffffffffffff19166001600160a01b0387811691821790925591518593918516917f8c5be1e5ebec7d5bd14f71427d1e84f3dd0314c0f7b2291e5b200ac8c7c3b92591a4505050565b60045460ff1615610a7e576040517f9e87fac800000000000000000000000000000000000000000000000000000000815260040160405180910390fd5b6000818152600160205260409020546001600160a01b03848116911614610ad1576040517f30cd747100000000000000000000000000000000000000000000000000000000815260040160405180910390fd5b6001600160a01b038216610af857604051634e46966960e11b815260040160405180910390fd5b336001600160a01b03841614801590610b2857506000818152600260205260409020546001600160a01b03163314155b8015610b5857506001600160a01b038316600090815260036020908152604080832033845290915290205460ff16155b15610b7657604051631dd2188d60e31b815260040160405180910390fd5b6001600160a01b0380841660008181526020818152604080832080546000190190559386168083528483208054600190810190915586845260028352858420805473ffffffffffffffffffffffffffffffffffffffff199081169091559252848320805490921681179091559251849392917fddf252ad1be2c89b69c2b068fc378daa952ba7f163c4a11628f55a4df523b3ef91a4505050565b6000610c1a611c54565b4614610c2d57610c28611c78565b905090565b5060085490565b610c3f838383610a41565b6001600160a01b0382163b15610d0257604051630a85bd0160e11b8082523360048301526001600160a01b03858116602484015260448301849052608060648401526000608484015290919084169063150b7a029060a4016020604051808303816000875af1158015610cb6573d6000803e3d6000fd5b505050506040513d601f19601f82011682018060405250810190610cda9190612983565b6001600160e01b03191614610d0257604051634e46966960e11b815260040160405180910390fd5b505050565b333014801590610d2757503360009081526007602052604090205460ff16155b15610d4557604051631dd2188d60e31b815260040160405180910390fd5b6001600160a01b038216600081815260076020908152604091829020805460ff191685151590811790915591519182527ffe08cf1b92a0c45ce7bdd0f10baef4dedff68a9a703c5afa3b34a907a36e6cce910160405180910390a25050565b333014801590610dc457503360009081526007602052604090205460ff16155b15610de257604051631dd2188d60e31b815260040160405180910390fd5b610deb81611d0d565b50565b6006546000908190610e13908a908a908a908a908a9067ffffffffffffffff166119ec565b60065490915060009068010000000000000000900467ffffffffffffffff16815b818110156110e3576000600185898985818110610e5357610e53612766565b610e6992602060609092020190810191506129a0565b8a8a86818110610e7b57610e7b612766565b905060600201602001358b8b87818110610e9757610e97612766565b9050606002016040013560405160008152602001604052604051610ed7949392919093845260ff9290921660208401526040830152606082015260800190565b6020604051602081039080840390855afa158015610ef9573d6000803e3d6000fd5b5050604051601f1901519150506001600160a01b0381163b15611084577f1626ba7e000000000000000000000000000000000000000000000000000000006001600160a01b038216631626ba7e878b8b87818110610f5957610f59612766565b905060600201602001358c8c88818110610f7557610f75612766565b905060600201604001358d8d89818110610f9157610f91612766565b610fa792602060609092020190810191506129a0565b604051602001610fef93929190928352602083019190915260f81b7fff0000000000000000000000000000000000000000000000000000000000000016604082015260410190565b6040516020818303038152906040526040518363ffffffff1660e01b815260040161101b9291906129c3565b602060405180830381865afa158015611038573d6000803e3d6000fd5b505050506040513d601f19601f8201168201806040525081019061105c9190612983565b6001600160e01b031916146110845760405163c90c66b560e01b815260040160405180910390fd5b6001600160a01b03811660009081526020819052604090205415806110bb5750806001600160a01b0316846001600160a01b031610155b156110d95760405163c90c66b560e01b815260040160405180910390fd5b9250600101610e34565b506111268b8b8b8b8b8080601f016020809104026020016040519081016040528093929190818152602001838380828437600092019190915250611aad92505050565b9b9a5050505050505050505050565b60606109486020611c32565b3360008181526003602090815260408083206001600160a01b03871680855290835292819020805460ff191686151590811790915590519081529192917f17307eab39ab6107e8899845ad3d59bd9653f200f220920489ca2b5937696c31910160405180910390a35050565b60608167ffffffffffffffff8111156111c8576111c8612750565b6040519080825280602002602001820160405280156111fb57816020015b60608152602001906001900390816111e65790505b50905060005b828110156108ac576000803086868581811061121f5761121f612766565b905060200281019061123191906127b7565b60405161123f9291906129dc565b600060405180830381855af49150503d806000811461127a576040519150601f19603f3d011682016040523d82523d6000602084013e61127f565b606091505b5091509150816112ee5760448151101561129857600080fd5b600481019050808060200190518101906112b291906129ec565b6040517f08c379a00000000000000000000000000000000000000000000000000000000081526004016112e591906121b8565b60405180910390fd5b8084848151811061130157611301612766565b60209081029190910101525050600101611201565b611321858585610a41565b6001600160a01b0384163b156113d257604051630a85bd0160e11b808252906001600160a01b0386169063150b7a02906113679033908a90899089908990600401612a99565b6020604051808303816000875af1158015611386573d6000803e3d6000fd5b505050506040513d601f19601f820116820180604052508101906113aa9190612983565b6001600160e01b031916146113d257604051634e46966960e11b815260040160405180910390fd5b5050505050565b60065467ffffffffffffffff161561141d576040517fef34ca5c00000000000000000000000000000000000000000000000000000000815260040160405180910390fd5b8361142757600080fd5b848411156114485760405163c52342a360e01b815260040160405180910390fd5b86156115085760005b87811015611506576114fd89898381811061146e5761146e612766565b9050602002810190611480919061277c565b61148e90602081019061279c565b8a8a848181106114a0576114a0612766565b90506020028101906114b2919061277c565b6114c390604081019060200161232e565b8b8b858181106114d5576114d5612766565b90506020028101906114e7919061277c565b604001358c8c8681811061082857610828612766565b50600101611451565b505b6006805467ffffffffffffffff19166001179055600080805b8781101561160a5788888281811061153b5761153b612766565b9050606002016020016020810190611553919061232e565b6001600160a01b0316836001600160a01b0316106115845760405163c90c66b560e01b815260040160405180910390fd5b88888281811061159657611596612766565b90506060020160200160208101906115ae919061232e565b92506115fe8989838181106115c5576115c5612766565b90506060020160200160208101906115dd919061232e565b8a8a848181106115ef576115ef612766565b90506060020160400135611d54565b60019182019101611521565b506006805467ffffffffffffffff838116600160801b027fffffffffffffffff0000000000000000ffffffffffffffffffffffffffffffff918a166801000000000000000002919091167fffffffffffffffff00000000000000000000000000000000ffffffffffffffff90921691909117179055600561168c848683612886565b5061169685611d0d565b61169e611c78565b60085550505050505050505050565b6060600580546116bc906127fe565b905060000361176b576040517fc87b56dd000000000000000000000000000000000000000000000000000000008152600481018390527f00000000000000000000000000000000000000000000000000000000000000006001600160a01b03169063c87b56dd90602401600060405180830381865afa158015611743573d6000803e3d6000fd5b505050506040513d6000823e601f3d908101601f191682016040526106ee91908101906129ec565b60058054611778906127fe565b80601f01602080910402602001604051908101604052809291908181526020018280546117a4906127fe565b80156117f15780601f106117c6576101008083540402835291602001916117f1565b820191906000526020600020905b8154815290600101906020018083116117d457829003601f168201915b50505050509050919050565b919050565b33301480159061182257503360009081526007602052604090205460ff16155b1561184057604051631dd2188d60e31b815260040160405180910390fd5b8061184a57600080fd5b600654600160801b900467ffffffffffffffff1660005b838110156119145784848281811061187b5761187b612766565b6118919260206060909202019081019150612313565b156118e0576118d58585838181106118ab576118ab612766565b90506060020160200160208101906118c3919061232e565b8686848181106115ef576115ef612766565b81600101915061190c565b6119048585838181106118f5576118f5612766565b90506060020160400135611f01565b600019909101905b600101611861565b50808211156119365760405163c52342a360e01b815260040160405180910390fd5b6006805467ffffffffffffffff838116600160801b027fffffffffffffffff0000000000000000ffffffffffffffffffffffffffffffff9186166801000000000000000002919091167fffffffffffffffff00000000000000000000000000000000ffffffffffffffff909216919091171790556040517f0478dd3ba726bc0761f8c7f40b21c297ee28132545658660defb22734b4dd7e1906119de90869086908690612acc565b60405180910390a150505050565b60006119f6610c10565b7f93a4f3ad100766ac785e9e2986ae4f906eea3a67ef943c27112979356b418b35888888888888604051602001611a339796959493929190612b77565b60405160208183030381529060405280519060200120604051602001611a8b9291907f190100000000000000000000000000000000000000000000000000000000000081526002810192909252602282015260420190565b6040516020818303038152906040528051906020012090509695505050505050565b6006805467ffffffffffffffff8082166001011667ffffffffffffffff19909116179055600080856003811115611ae657611ae6612b3f565b03611b445760008083516020850186885af19050836001600160a01b03167f3320f95383c7a282c01492a81e8935982f72c6caa5c311c9cf0f811634c9052c868585604051611b3793929190612bc7565b60405180910390a2611bf3565b6001856003811115611b5857611b58612b3f565b03611ba857600080835160208501875af49050836001600160a01b03167f3320f95383c7a282c01492a81e8935982f72c6caa5c311c9cf0f811634c9052c868585604051611b3793929190612bc7565b6002856003811115611bbc57611bbc612b3f565b03611bd05781516020830184f09050611bf3565b81516bffffffffffffffffffffffff19606086901b169081906020850186f59150505b80611c2a576040517fd6bed87300000000000000000000000000000000000000000000000000000000815260040160405180910390fd5b949350505050565b600080611c49600119368181013560f01c90030190565b929092013592915050565b600080611c6b600119368181013560f01c90030190565b6054013560c01c92915050565b60007f8b73c3c69bb8fe3d512ecc4cf759cc79239f7b179b0ffacaa9a75d522b39400f611ca361093c565b80516020918201206040805192830193909352918101919091527fc89efdaa54c0f20c7adf612882df0950f5a951637e0307cdcb4c672f298b8bc660608201524660808201523060a082015260c00160405160208183030381529060405280519060200120905090565b6004805460ff19168215159081179091556040519081527f878ac8a2ca79520471f8f3c8494fa802c03ce3bf034252aad7f22318984fdbdb9060200160405180910390a150565b6001600160a01b038216611d7b57604051634e46966960e11b815260040160405180910390fd5b6000818152600160205260409020546001600160a01b031615611dca576040517fddefae2800000000000000000000000000000000000000000000000000000000815260040160405180910390fd5b6001600160a01b03821660008181526020818152604080832080546001908101909155858452909152808220805473ffffffffffffffffffffffffffffffffffffffff19168417905551839291907fddf252ad1be2c89b69c2b068fc378daa952ba7f163c4a11628f55a4df523b3ef908290a46001600160a01b0382163b15611efd57604051630a85bd0160e11b80825233600483015260006024830181905260448301849052608060648401526084830152906001600160a01b0384169063150b7a029060a4016020604051808303816000875af1158015611eb1573d6000803e3d6000fd5b505050506040513d601f19601f82011682018060405250810190611ed59190612983565b6001600160e01b03191614611efd57604051634e46966960e11b815260040160405180910390fd5b5050565b6000818152600160205260409020546001600160a01b031680611f50576040517f4d5e5fb300000000000000000000000000000000000000000000000000000000815260040160405180910390fd5b6001600160a01b038116600081815260208181526040808320805460001901905585835260018252808320805473ffffffffffffffffffffffffffffffffffffffff1990811690915560029092528083208054909216909155518492907fddf252ad1be2c89b69c2b068fc378daa952ba7f163c4a11628f55a4df523b3ef908390a45050565b6001600160e01b031981168114610deb57600080fd5b600060208284031215611ffe57600080fd5b813561200981611fd6565b9392505050565b60008083601f84011261202257600080fd5b50813567ffffffffffffffff81111561203a57600080fd5b6020830191508360208260051b850101111561205557600080fd5b9250929050565b6000806020838503121561206f57600080fd5b823567ffffffffffffffff81111561208657600080fd5b61209285828601612010565b90969095509350505050565b6020808252825182820181905260009190848201906040850190845b818110156120d85783511515835292840192918401916001016120ba565b50909695505050505050565b60008083601f8401126120f657600080fd5b50813567ffffffffffffffff81111561210e57600080fd5b60208301915083602082850101111561205557600080fd5b6000806020838503121561213957600080fd5b823567ffffffffffffffff81111561215057600080fd5b612092858286016120e4565b60005b8381101561217757818101518382015260200161215f565b83811115612186576000848401525b50505050565b600081518084526121a481602086016020860161215c565b601f01601f19169290920160200192915050565b602081526000612009602083018461218c565b6000602082840312156121dd57600080fd5b5035919050565b80356001600160a01b03811681146117fd57600080fd5b6000806040838503121561220e57600080fd5b612217836121e4565b946020939093013593505050565b60008060008060006080868803121561223d57600080fd5b612246866121e4565b9450612254602087016121e4565b935060408601359250606086013567ffffffffffffffff81111561227757600080fd5b612283888289016120e4565b969995985093965092949392505050565b6000806000606084860312156122a957600080fd5b6122b2846121e4565b92506122c0602085016121e4565b9150604084013590509250925092565b803580151581146117fd57600080fd5b600080604083850312156122f357600080fd5b6122fc836121e4565b915061230a602084016122d0565b90509250929050565b60006020828403121561232557600080fd5b612009826122d0565b60006020828403121561234057600080fd5b612009826121e4565b8035600481106117fd57600080fd5b60008083601f84011261236a57600080fd5b50813567ffffffffffffffff81111561238257600080fd5b60208301915083602060608302850101111561205557600080fd5b600080600080600080600060a0888a0312156123b857600080fd5b6123c188612349565b96506123cf602089016121e4565b955060408801359450606088013567ffffffffffffffff808211156123f357600080fd5b6123ff8b838c016120e4565b909650945060808a013591508082111561241857600080fd5b506124258a828b01612358565b989b979a50959850939692959293505050565b6000602080830181845280855180835260408601915060408160051b870101925083870160005b8281101561248d57603f1988860301845261247b85835161218c565b9450928501929085019060010161245f565b5092979650505050505050565b60008060008060008060008060a0898b0312156124b657600080fd5b6124bf896121e4565b97506124cd60208a016121e4565b9650604089013567ffffffffffffffff808211156124ea57600080fd5b6124f68c838d01612010565b909850965060608b013591508082111561250f57600080fd5b61251b8c838d01612010565b909650945060808b013591508082111561253457600080fd5b506125418b828c016120e4565b999c989b5096995094979396929594505050565b60008060008060008060008060a0898b03121561257157600080fd5b883567ffffffffffffffff8082111561258957600080fd5b6125958c838d01612010565b909a50985060208b01359150808211156125ae57600080fd5b6125ba8c838d01612358565b909850965060408b013595508691506125d560608c016122d0565b945060808b013591508082111561253457600080fd5b60008060006040848603121561260057600080fd5b833567ffffffffffffffff81111561261757600080fd5b61262386828701612358565b909790965060209590950135949350505050565b60008060008060008060a0878903121561265057600080fd5b61265987612349565b9550612667602088016121e4565b945060408701359350606087013567ffffffffffffffff81111561268a57600080fd5b61269689828a016120e4565b979a9699509497949695608090950135949350505050565b600080604083850312156126c157600080fd5b6126ca836121e4565b915061230a602084016121e4565b60008060008060008060a087890312156126f157600080fd5b6126fa876121e4565b9550612708602088016121e4565b94506040870135935060608701359250608087013567ffffffffffffffff81111561273257600080fd5b61273e89828a016120e4565b979a9699509497509295939492505050565b634e487b7160e01b600052604160045260246000fd5b634e487b7160e01b600052603260045260246000fd5b60008235607e1983360301811261279257600080fd5b9190910192915050565b6000602082840312156127ae57600080fd5b61200982612349565b6000808335601e198436030181126127ce57600080fd5b83018035915067ffffffffffffffff8211156127e957600080fd5b60200191503681900382131561205557600080fd5b600181811c9082168061281257607f821691505b60208210810361283257634e487b7160e01b600052602260045260246000fd5b50919050565b601f821115610d0257600081815260208120601f850160051c8101602086101561285f5750805b601f850160051c820191505b8181101561287e5782815560010161286b565b505050505050565b67ffffffffffffffff83111561289e5761289e612750565b6128b2836128ac83546127fe565b83612838565b6000601f8411600181146128e657600085156128ce5750838201355b600019600387901b1c1916600186901b1783556113d2565b600083815260209020601f19861690835b8281101561291757868501358255602094850194600190920191016128f7565b50868210156129345760001960f88860031b161c19848701351681555b505060018560011b0183555050505050565b81835281816020850137506000828201602090810191909152601f909101601f19169091010190565b602081526000611c2a602083018486612946565b60006020828403121561299557600080fd5b815161200981611fd6565b6000602082840312156129b257600080fd5b813560ff8116811461200957600080fd5b828152604060208201526000611c2a604083018461218c565b8183823760009101908152919050565b6000602082840312156129fe57600080fd5b815167ffffffffffffffff80821115612a1657600080fd5b818401915084601f830112612a2a57600080fd5b815181811115612a3c57612a3c612750565b604051601f8201601f19908116603f01168101908382118183101715612a6457612a64612750565b81604052828152876020848701011115612a7d57600080fd5b612a8e83602083016020880161215c565b979650505050505050565b60006001600160a01b03808816835280871660208401525084604083015260806060830152612a8e608083018486612946565b6040808252818101849052600090606080840187845b88811015612b2957612af3826122d0565b1515835260206001600160a01b03612b0c8285016121e4565b169084015281850135858401529183019190830190600101612ae2565b5050809350505050826020830152949350505050565b634e487b7160e01b600052602160045260246000fd5b60048110612b7357634e487b7160e01b600052602160045260246000fd5b9052565b878152612b876020820188612b55565b6001600160a01b038616604082015284606082015260c060808201526000612bb360c083018587612946565b90508260a083015298975050505050505050565b612bd18185612b55565b826020820152606060408201526000612bed606083018461218c565b9594505050505056fea26469706673582212203c34768035a82ca53126b8926d8cc7188a85b6e0d20b240b03080efa2194417564736f6c634300080f0033",
    "linkReferences": {}
  }
}