{
  "abi": [
    {
      "inputs": [
        {
          "internalType": "contract KaliClub",
          "name": "_renderer",
          "type": "address"
        }
      ],
      "stateMutability": "payable",
      "type": "constructor"
    },
    {
      "inputs": [],
      "name": "AlreadyInit",
      "type": "error"
    },
    {
      "inputs": [],
      "name": "AlreadyMinted",
      "type": "error"
    },
    {
      "inputs": [],
      "name": "ExecuteFailed",
      "type": "error"
    },
    {
      "inputs": [],
      "name": "Forbidden",
      "type": "error"
    },
    {
      "inputs": [],
      "name": "InvalidRecipient",
      "type": "error"
    },
    {
      "inputs": [],
      "name": "InvalidSig",
      "type": "error"
    },
    {
      "inputs": [],
      "name": "NotMinted",
      "type": "error"
    },
    {
      "inputs": [],
      "name": "NotOwner",
      "type": "error"
    },
    {
      "inputs": [],
      "name": "Paused",
      "type": "error"
    },
    {
      "inputs": [],
      "name": "QuorumOverSigs",
      "type": "error"
    },
    {
      "anonymous": false,
      "inputs": [
        {
          "indexed": true,
          "internalType": "address",
          "name": "owner",
          "type": "address"
        },
        {
          "indexed": true,
          "internalType": "address",
          "name": "spender",
          "type": "address"
        },
        {
          "indexed": true,
          "internalType": "uint256",
          "name": "id",
          "type": "uint256"
        }
      ],
      "name": "Approval",
      "type": "event"
    },
    {
      "anonymous": false,
      "inputs": [
        {
          "indexed": true,
          "internalType": "address",
          "name": "owner",
          "type": "address"
        },
        {
          "indexed": true,
          "internalType": "address",
          "name": "operator",
          "type": "address"
        },
        {
          "indexed": false,
          "internalType": "bool",
          "name": "approved",
          "type": "bool"
        }
      ],
      "name": "ApprovalForAll",
      "type": "event"
    },
    {
      "anonymous": false,
      "inputs": [
        {
          "indexed": false,
          "internalType": "enum Operation",
          "name": "op",
          "type": "uint8"
        },
        {
          "indexed": true,
          "internalType": "address",
          "name": "to",
          "type": "address"
        },
        {
          "indexed": false,
          "internalType": "uint256",
          "name": "value",
          "type": "uint256"
        },
        {
          "indexed": false,
          "internalType": "bytes",
          "name": "data",
          "type": "bytes"
        }
      ],
      "name": "Execute",
      "type": "event"
    },
    {
      "anonymous": false,
      "inputs": [
        {
          "components": [
            {
              "internalType": "bool",
              "name": "mint",
              "type": "bool"
            },
            {
              "internalType": "address",
              "name": "signer",
              "type": "address"
            },
            {
              "internalType": "uint256",
              "name": "id",
              "type": "uint256"
            }
          ],
          "indexed": false,
          "internalType": "struct IMember.Member[]",
          "name": "members",
          "type": "tuple[]"
        },
        {
          "indexed": false,
          "internalType": "uint256",
          "name": "quorum",
          "type": "uint256"
        }
      ],
      "name": "Govern",
      "type": "event"
    },
    {
      "anonymous": false,
      "inputs": [
        {
          "indexed": true,
          "internalType": "address",
          "name": "account",
          "type": "address"
        },
        {
          "indexed": false,
          "internalType": "bool",
          "name": "approved",
          "type": "bool"
        }
      ],
      "name": "GovernorSet",
      "type": "event"
    },
    {
      "anonymous": false,
      "inputs": [
        {
          "indexed": false,
          "internalType": "bool",
          "name": "paused",
          "type": "bool"
        }
      ],
      "name": "PauseSet",
      "type": "event"
    },
    {
      "anonymous": false,
      "inputs": [
        {
          "indexed": true,
          "internalType": "address",
          "name": "from",
          "type": "address"
        },
        {
          "indexed": true,
          "internalType": "address",
          "name": "to",
          "type": "address"
        },
        {
          "indexed": true,
          "internalType": "uint256",
          "name": "id",
          "type": "uint256"
        }
      ],
      "name": "Transfer",
      "type": "event"
    },
    {
      "anonymous": false,
      "inputs": [
        {
          "indexed": false,
          "internalType": "string",
          "name": "baseURI",
          "type": "string"
        }
      ],
      "name": "URIset",
      "type": "event"
    },
    {
      "inputs": [],
      "name": "DOMAIN_SEPARATOR",
      "outputs": [
        {
          "internalType": "bytes32",
          "name": "",
          "type": "bytes32"
        }
      ],
      "stateMutability": "view",
      "type": "function"
    },
    {
      "inputs": [
        {
          "internalType": "address",
          "name": "spender",
          "type": "address"
        },
        {
          "internalType": "uint256",
          "name": "id",
          "type": "uint256"
        }
      ],
      "name": "approve",
      "outputs": [],
      "stateMutability": "payable",
      "type": "function"
    },
    {
      "inputs": [
        {
          "internalType": "address",
          "name": "",
          "type": "address"
        }
      ],
      "name": "balanceOf",
      "outputs": [
        {
          "internalType": "uint256",
          "name": "",
          "type": "uint256"
        }
      ],
      "stateMutability": "view",
      "type": "function"
    },
    {
      "inputs": [
        {
          "components": [
            {
              "internalType": "enum Operation",
              "name": "op",
              "type": "uint8"
            },
            {
              "internalType": "address",
              "name": "to",
              "type": "address"
            },
            {
              "internalType": "uint256",
              "name": "value",
              "type": "uint256"
            },
            {
              "internalType": "bytes",
              "name": "data",
              "type": "bytes"
            }
          ],
          "internalType": "struct Call[]",
          "name": "calls",
          "type": "tuple[]"
        }
      ],
      "name": "batchExecute",
      "outputs": [
        {
          "internalType": "bool[]",
          "name": "successes",
          "type": "bool[]"
        }
      ],
      "stateMutability": "payable",
      "type": "function"
    },
    {
      "inputs": [
        {
          "internalType": "enum Operation",
          "name": "op",
          "type": "uint8"
        },
        {
          "internalType": "address",
          "name": "to",
          "type": "address"
        },
        {
          "internalType": "uint256",
          "name": "value",
          "type": "uint256"
        },
        {
          "internalType": "bytes",
          "name": "data",
          "type": "bytes"
        },
        {
          "components": [
            {
              "internalType": "uint8",
              "name": "v",
              "type": "uint8"
            },
            {
              "internalType": "bytes32",
              "name": "r",
              "type": "bytes32"
            },
            {
              "internalType": "bytes32",
              "name": "s",
              "type": "bytes32"
            }
          ],
          "internalType": "struct Signature[]",
          "name": "sigs",
          "type": "tuple[]"
        }
      ],
      "name": "execute",
      "outputs": [
        {
          "internalType": "bool",
          "name": "success",
          "type": "bool"
        }
      ],
      "stateMutability": "payable",
      "type": "function"
    },
    {
      "inputs": [
        {
          "internalType": "uint256",
          "name": "",
          "type": "uint256"
        }
      ],
      "name": "getApproved",
      "outputs": [
        {
          "internalType": "address",
          "name": "",
          "type": "address"
        }
      ],
      "stateMutability": "view",
      "type": "function"
    },
    {
      "inputs": [
        {
          "internalType": "enum Operation",
          "name": "op",
          "type": "uint8"
        },
        {
          "internalType": "address",
          "name": "to",
          "type": "address"
        },
        {
          "internalType": "uint256",
          "name": "value",
          "type": "uint256"
        },
        {
          "internalType": "bytes",
          "name": "data",
          "type": "bytes"
        },
        {
          "internalType": "uint256",
          "name": "txNonce",
          "type": "uint256"
        }
      ],
      "name": "getDigest",
      "outputs": [
        {
          "internalType": "bytes32",
          "name": "",
          "type": "bytes32"
        }
      ],
      "stateMutability": "view",
      "type": "function"
    },
    {
      "inputs": [
        {
          "components": [
            {
              "internalType": "bool",
              "name": "mint",
              "type": "bool"
            },
            {
              "internalType": "address",
              "name": "signer",
              "type": "address"
            },
            {
              "internalType": "uint256",
              "name": "id",
              "type": "uint256"
            }
          ],
          "internalType": "struct IMember.Member[]",
          "name": "members",
          "type": "tuple[]"
        },
        {
          "internalType": "uint256",
          "name": "threshold",
          "type": "uint256"
        }
      ],
      "name": "govern",
      "outputs": [],
      "stateMutability": "payable",
      "type": "function"
    },
    {
      "inputs": [
        {
          "internalType": "address",
          "name": "",
          "type": "address"
        }
      ],
      "name": "governor",
      "outputs": [
        {
          "internalType": "bool",
          "name": "",
          "type": "bool"
        }
      ],
      "stateMutability": "view",
      "type": "function"
    },
    {
      "inputs": [
        {
          "components": [
            {
              "internalType": "enum Operation",
              "name": "op",
              "type": "uint8"
            },
            {
              "internalType": "address",
              "name": "to",
              "type": "address"
            },
            {
              "internalType": "uint256",
              "name": "value",
              "type": "uint256"
            },
            {
              "internalType": "bytes",
              "name": "data",
              "type": "bytes"
            }
          ],
          "internalType": "struct Call[]",
          "name": "calls",
          "type": "tuple[]"
        },
        {
          "components": [
            {
              "internalType": "bool",
              "name": "mint",
              "type": "bool"
            },
            {
              "internalType": "address",
              "name": "signer",
              "type": "address"
            },
            {
              "internalType": "uint256",
              "name": "id",
              "type": "uint256"
            }
          ],
          "internalType": "struct IMember.Member[]",
          "name": "members",
          "type": "tuple[]"
        },
        {
          "internalType": "uint256",
          "name": "threshold",
          "type": "uint256"
        },
        {
          "internalType": "bool",
          "name": "paused",
          "type": "bool"
        },
        {
          "internalType": "string",
          "name": "uri",
          "type": "string"
        }
      ],
      "name": "init",
      "outputs": [],
      "stateMutability": "payable",
      "type": "function"
    },
    {
      "inputs": [
        {
          "internalType": "address",
          "name": "",
          "type": "address"
        },
        {
          "internalType": "address",
          "name": "",
          "type": "address"
        }
      ],
      "name": "isApprovedForAll",
      "outputs": [
        {
          "internalType": "bool",
          "name": "",
          "type": "bool"
        }
      ],
      "stateMutability": "view",
      "type": "function"
    },
    {
      "inputs": [
        {
          "internalType": "bytes[]",
          "name": "data",
          "type": "bytes[]"
        }
      ],
      "name": "multicall",
      "outputs": [
        {
          "internalType": "bytes[]",
          "name": "results",
          "type": "bytes[]"
        }
      ],
      "stateMutability": "payable",
      "type": "function"
    },
    {
      "inputs": [],
      "name": "name",
      "outputs": [
        {
          "internalType": "string",
          "name": "",
          "type": "string"
        }
      ],
      "stateMutability": "pure",
      "type": "function"
    },
    {
      "inputs": [],
      "name": "nonce",
      "outputs": [
        {
          "internalType": "uint64",
          "name": "",
          "type": "uint64"
        }
      ],
      "stateMutability": "view",
      "type": "function"
    },
    {
      "inputs": [
        {
          "internalType": "address",
          "name": "",
          "type": "address"
        },
        {
          "internalType": "address",
          "name": "",
          "type": "address"
        },
        {
          "internalType": "uint256[]",
          "name": "",
          "type": "uint256[]"
        },
        {
          "internalType": "uint256[]",
          "name": "",
          "type": "uint256[]"
        },
        {
          "internalType": "bytes",
          "name": "",
          "type": "bytes"
        }
      ],
      "name": "onERC1155BatchReceived",
      "outputs": [
        {
          "internalType": "bytes4",
          "name": "",
          "type": "bytes4"
        }
      ],
      "stateMutability": "pure",
      "type": "function"
    },
    {
      "inputs": [
        {
          "internalType": "address",
          "name": "",
          "type": "address"
        },
        {
          "internalType": "address",
          "name": "",
          "type": "address"
        },
        {
          "internalType": "uint256",
          "name": "",
          "type": "uint256"
        },
        {
          "internalType": "uint256",
          "name": "",
          "type": "uint256"
        },
        {
          "internalType": "bytes",
          "name": "",
          "type": "bytes"
        }
      ],
      "name": "onERC1155Received",
      "outputs": [
        {
          "internalType": "bytes4",
          "name": "",
          "type": "bytes4"
        }
      ],
      "stateMutability": "pure",
      "type": "function"
    },
    {
      "inputs": [
        {
          "internalType": "address",
          "name": "",
          "type": "address"
        },
        {
          "internalType": "address",
          "name": "",
          "type": "address"
        },
        {
          "internalType": "uint256",
          "name": "",
          "type": "uint256"
        },
        {
          "internalType": "bytes",
          "name": "",
          "type": "bytes"
        }
      ],
      "name": "onERC721Received",
      "outputs": [
        {
          "internalType": "bytes4",
          "name": "",
          "type": "bytes4"
        }
      ],
      "stateMutability": "pure",
      "type": "function"
    },
    {
      "inputs": [
        {
          "internalType": "uint256",
          "name": "",
          "type": "uint256"
        }
      ],
      "name": "ownerOf",
      "outputs": [
        {
          "internalType": "address",
          "name": "",
          "type": "address"
        }
      ],
      "stateMutability": "view",
      "type": "function"
    },
    {
      "inputs": [],
      "name": "paused",
      "outputs": [
        {
          "internalType": "bool",
          "name": "",
          "type": "bool"
        }
      ],
      "stateMutability": "view",
      "type": "function"
    },
    {
      "inputs": [],
      "name": "quorum",
      "outputs": [
        {
          "internalType": "uint64",
          "name": "",
          "type": "uint64"
        }
      ],
      "stateMutability": "view",
      "type": "function"
    },
    {
      "inputs": [
        {
          "internalType": "address",
          "name": "from",
          "type": "address"
        },
        {
          "internalType": "address",
          "name": "to",
          "type": "address"
        },
        {
          "internalType": "uint256",
          "name": "id",
          "type": "uint256"
        }
      ],
      "name": "safeTransferFrom",
      "outputs": [],
      "stateMutability": "payable",
      "type": "function"
    },
    {
      "inputs": [
        {
          "internalType": "address",
          "name": "from",
          "type": "address"
        },
        {
          "internalType": "address",
          "name": "to",
          "type": "address"
        },
        {
          "internalType": "uint256",
          "name": "id",
          "type": "uint256"
        },
        {
          "internalType": "bytes",
          "name": "data",
          "type": "bytes"
        }
      ],
      "name": "safeTransferFrom",
      "outputs": [],
      "stateMutability": "payable",
      "type": "function"
    },
    {
      "inputs": [
        {
          "internalType": "address",
          "name": "operator",
          "type": "address"
        },
        {
          "internalType": "bool",
          "name": "approved",
          "type": "bool"
        }
      ],
      "name": "setApprovalForAll",
      "outputs": [],
      "stateMutability": "payable",
      "type": "function"
    },
    {
      "inputs": [
        {
          "internalType": "address",
          "name": "account",
          "type": "address"
        },
        {
          "internalType": "bool",
          "name": "approved",
          "type": "bool"
        }
      ],
      "name": "setGovernor",
      "outputs": [],
      "stateMutability": "payable",
      "type": "function"
    },
    {
      "inputs": [
        {
          "internalType": "bool",
          "name": "paused_",
          "type": "bool"
        }
      ],
      "name": "setSignerPause",
      "outputs": [],
      "stateMutability": "payable",
      "type": "function"
    },
    {
      "inputs": [
        {
          "internalType": "string",
          "name": "baseURI_",
          "type": "string"
        }
      ],
      "name": "setURI",
      "outputs": [],
      "stateMutability": "payable",
      "type": "function"
    },
    {
      "inputs": [
        {
          "internalType": "bytes4",
          "name": "interfaceId",
          "type": "bytes4"
        }
      ],
      "name": "supportsInterface",
      "outputs": [
        {
          "internalType": "bool",
          "name": "",
          "type": "bool"
        }
      ],
      "stateMutability": "pure",
      "type": "function"
    },
    {
      "inputs": [],
      "name": "symbol",
      "outputs": [
        {
          "internalType": "string",
          "name": "",
          "type": "string"
        }
      ],
      "stateMutability": "pure",
      "type": "function"
    },
    {
      "inputs": [
        {
          "internalType": "uint256",
          "name": "id",
          "type": "uint256"
        }
      ],
      "name": "tokenURI",
      "outputs": [
        {
          "internalType": "string",
          "name": "",
          "type": "string"
        }
      ],
      "stateMutability": "view",
      "type": "function"
    },
    {
      "inputs": [],
      "name": "totalSupply",
      "outputs": [
        {
          "internalType": "uint64",
          "name": "",
          "type": "uint64"
        }
      ],
      "stateMutability": "view",
      "type": "function"
    },
    {
      "inputs": [
        {
          "internalType": "address",
          "name": "from",
          "type": "address"
        },
        {
          "internalType": "address",
          "name": "to",
          "type": "address"
        },
        {
          "internalType": "uint256",
          "name": "id",
          "type": "uint256"
        }
      ],
      "name": "transferFrom",
      "outputs": [],
      "stateMutability": "payable",
      "type": "function"
    }
  ],
  "bytecode": {
    "object": "0x60a060405260405162002c3b38038062002c3b833981016040819052620000269162000038565b6001600160a01b03166080526200006a565b6000602082840312156200004b57600080fd5b81516001600160a01b03811681146200006357600080fd5b9392505050565b608051612bb56200008660003960006116f20152612bb56000f3fe6080604052600436106101d85760003560e01c80636352211e11610102578063b88d4fde11610095578063ce2c529211610064578063ce2c5292146105a3578063d4606ab9146105b6578063e985e9c5146105d6578063f23a6e611461061157600080fd5b8063b88d4fde14610515578063bc197c8114610528578063c436189414610570578063c87b56dd1461058357600080fd5b806395d89b41116100d157806395d89b41146104ac578063a22cb465146104c1578063ac9650d8146104d4578063affed0e0146104f457600080fd5b80636352211e1461040657806370a082311461043c57806370ec42e8146104695780638c995b911461049957600080fd5b80631703a0181161017a57806342842e0e1161014957806342842e0e146103b35780635160696c146103c657806355f52b8e146103d95780635c975abb146103ec57600080fd5b80631703a0181461030f57806318160ddd1461035557806323b872dd1461037d5780633644e5151461039057600080fd5b806306fdde03116101b657806306fdde0314610247578063081812fc14610269578063095ea7b3146102b7578063150b7a02146102ca57600080fd5b806301ffc9a7146101dd578063023e8d841461021257806302fe530514610232575b600080fd5b3480156101e957600080fd5b506101fd6101f8366004612083565b610657565b60405190151581526020015b60405180910390f35b6102256102203660046120f3565b6106f4565b6040516102099190612135565b6102456102403660046121bd565b6108b3565b005b34801561025357600080fd5b5061025c61093b565b604051610209919061224f565b34801561027557600080fd5b5061029f610284366004612262565b6002602052600090815260409020546001600160a01b031681565b6040516001600160a01b039091168152602001610209565b6102456102c5366004612292565b61096d565b3480156102d657600080fd5b506102f66102e53660046122bc565b630a85bd0160e11b95945050505050565b6040516001600160e01b03199091168152602001610209565b34801561031b57600080fd5b5060065461033c9068010000000000000000900467ffffffffffffffff1681565b60405167ffffffffffffffff9091168152602001610209565b34801561036157600080fd5b5060065461033c90600160801b900467ffffffffffffffff1681565b61024561038b36600461232b565b610a40565b34801561039c57600080fd5b506103a5610c0f565b604051908152602001610209565b6102456103c136600461232b565b610c33565b6102456103d4366004612377565b610d06565b6102456103e73660046123aa565b610da3565b3480156103f857600080fd5b506004546101fd9060ff1681565b34801561041257600080fd5b5061029f610421366004612262565b6001602052600090815260409020546001600160a01b031681565b34801561044857600080fd5b506103a56104573660046123c5565b60006020819052908152604090205481565b34801561047557600080fd5b506101fd6104843660046123c5565b60076020526000908152604090205460ff1681565b6101fd6104a7366004612434565b610ded565b3480156104b857600080fd5b5061025c611134565b6102456104cf366004612377565b611140565b6104e76104e23660046120f3565b6111ac565b60405161020991906124cf565b34801561050057600080fd5b5060065461033c9067ffffffffffffffff1681565b6102456105233660046122bc565b611315565b34801561053457600080fd5b506102f6610543366004612531565b7fbc197c810000000000000000000000000000000000000000000000000000000098975050505050505050565b61024561057e3660046125ec565b6113d8565b34801561058f57600080fd5b5061025c61059e366004612262565b6116ab565b6102456105b1366004612682565b611800565b3480156105c257600080fd5b506103a56105d13660046126ce565b6119ea565b3480156105e257600080fd5b506101fd6105f1366004612745565b600360209081526000928352604080842090915290825290205460ff1681565b34801561061d57600080fd5b506102f661062c36600461276f565b7ff23a6e61000000000000000000000000000000000000000000000000000000009695505050505050565b60006001600160e01b031982167f01ffc9a70000000000000000000000000000000000000000000000000000000014806106ba57507f80ac58cd000000000000000000000000000000000000000000000000000000006001600160e01b03198316145b806106ee57507f5b5e139f000000000000000000000000000000000000000000000000000000006001600160e01b03198316145b92915050565b606033301480159061071657503360009081526007602052604090205460ff16155b1561073457604051631dd2188d60e31b815260040160405180910390fd5b8167ffffffffffffffff81111561074d5761074d6127e7565b604051908082528060200260200182016040528015610776578160200160208202803683370190505b50905060005b828110156108ac57610882848483818110610799576107996127fd565b90506020028101906107ab9190612813565b6107b9906020810190612833565b8585848181106107cb576107cb6127fd565b90506020028101906107dd9190612813565b6107ee9060408101906020016123c5565b868685818110610800576108006127fd565b90506020028101906108129190612813565b60400135878786818110610828576108286127fd565b905060200281019061083a9190612813565b61084890606081019061284e565b8080601f016020809104026020016040519081016040528093929190818152602001838380828437600092019190915250611aab92505050565b828281518110610894576108946127fd565b9115156020928302919091019091015260010161077c565b5092915050565b3330148015906108d357503360009081526007602052604090205460ff16155b156108f157604051631dd2188d60e31b815260040160405180910390fd5b6108fd60058383611fd4565b507fce29678668382e064e92681c6a47e0a1ccf09464321c9d234842ad54e8c3c336828260405161092f9291906128be565b60405180910390a15050565b60606109476000611c30565b60405160200161095991815260200190565b604051602081830303815290604052905090565b6000818152600160205260409020546001600160a01b03163381148015906109b957506001600160a01b038116600090815260036020908152604080832033845290915290205460ff16155b156109d757604051631dd2188d60e31b815260040160405180910390fd5b600082815260026020526040808220805473ffffffffffffffffffffffffffffffffffffffff19166001600160a01b0387811691821790925591518593918516917f8c5be1e5ebec7d5bd14f71427d1e84f3dd0314c0f7b2291e5b200ac8c7c3b92591a4505050565b60045460ff1615610a7d576040517f9e87fac800000000000000000000000000000000000000000000000000000000815260040160405180910390fd5b6000818152600160205260409020546001600160a01b03848116911614610ad0576040517f30cd747100000000000000000000000000000000000000000000000000000000815260040160405180910390fd5b6001600160a01b038216610af757604051634e46966960e11b815260040160405180910390fd5b336001600160a01b03841614801590610b2757506000818152600260205260409020546001600160a01b03163314155b8015610b5757506001600160a01b038316600090815260036020908152604080832033845290915290205460ff16155b15610b7557604051631dd2188d60e31b815260040160405180910390fd5b6001600160a01b0380841660008181526020818152604080832080546000190190559386168083528483208054600190810190915586845260028352858420805473ffffffffffffffffffffffffffffffffffffffff199081169091559252848320805490921681179091559251849392917fddf252ad1be2c89b69c2b068fc378daa952ba7f163c4a11628f55a4df523b3ef91a4505050565b6000610c19611c52565b4614610c2c57610c27611c76565b905090565b5060085490565b610c3e838383610a40565b6001600160a01b0382163b15610d0157604051630a85bd0160e11b8082523360048301526001600160a01b03858116602484015260448301849052608060648401526000608484015290919084169063150b7a029060a4016020604051808303816000875af1158015610cb5573d6000803e3d6000fd5b505050506040513d601f19601f82011682018060405250810190610cd991906128d2565b6001600160e01b03191614610d0157604051634e46966960e11b815260040160405180910390fd5b505050565b333014801590610d2657503360009081526007602052604090205460ff16155b15610d4457604051631dd2188d60e31b815260040160405180910390fd5b6001600160a01b038216600081815260076020908152604091829020805460ff191685151590811790915591519182527ffe08cf1b92a0c45ce7bdd0f10baef4dedff68a9a703c5afa3b34a907a36e6cce910160405180910390a25050565b333014801590610dc357503360009081526007602052604090205460ff16155b15610de157604051631dd2188d60e31b815260040160405180910390fd5b610dea81611d0b565b50565b6006546000908190610e12908a908a908a908a908a9067ffffffffffffffff166119ea565b60065490915060009068010000000000000000900467ffffffffffffffff16815b818110156110e2576000600185898985818110610e5257610e526127fd565b610e6892602060609092020190810191506128ef565b8a8a86818110610e7a57610e7a6127fd565b905060600201602001358b8b87818110610e9657610e966127fd565b9050606002016040013560405160008152602001604052604051610ed6949392919093845260ff9290921660208401526040830152606082015260800190565b6020604051602081039080840390855afa158015610ef8573d6000803e3d6000fd5b5050604051601f1901519150506001600160a01b0381163b15611083577f1626ba7e000000000000000000000000000000000000000000000000000000006001600160a01b038216631626ba7e878b8b87818110610f5857610f586127fd565b905060600201602001358c8c88818110610f7457610f746127fd565b905060600201604001358d8d89818110610f9057610f906127fd565b610fa692602060609092020190810191506128ef565b604051602001610fee93929190928352602083019190915260f81b7fff0000000000000000000000000000000000000000000000000000000000000016604082015260410190565b6040516020818303038152906040526040518363ffffffff1660e01b815260040161101a929190612912565b602060405180830381865afa158015611037573d6000803e3d6000fd5b505050506040513d601f19601f8201168201806040525081019061105b91906128d2565b6001600160e01b031916146110835760405163c90c66b560e01b815260040160405180910390fd5b6001600160a01b03811660009081526020819052604090205415806110ba5750806001600160a01b0316846001600160a01b031610155b156110d85760405163c90c66b560e01b815260040160405180910390fd5b9250600101610e33565b506111258b8b8b8b8b8080601f016020809104026020016040519081016040528093929190818152602001838380828437600092019190915250611aab92505050565b9b9a5050505050505050505050565b60606109476020611c30565b3360008181526003602090815260408083206001600160a01b03871680855290835292819020805460ff191686151590811790915590519081529192917f17307eab39ab6107e8899845ad3d59bd9653f200f220920489ca2b5937696c31910160405180910390a35050565b60608167ffffffffffffffff8111156111c7576111c76127e7565b6040519080825280602002602001820160405280156111fa57816020015b60608152602001906001900390816111e55790505b50905060005b828110156108ac576000803086868581811061121e5761121e6127fd565b9050602002810190611230919061284e565b60405161123e92919061292b565b600060405180830381855af49150503d8060008114611279576040519150601f19603f3d011682016040523d82523d6000602084013e61127e565b606091505b5091509150816112ed5760448151101561129757600080fd5b600481019050808060200190518101906112b1919061293b565b6040517f08c379a00000000000000000000000000000000000000000000000000000000081526004016112e4919061224f565b60405180910390fd5b80848481518110611300576113006127fd565b60209081029190910101525050600101611200565b611320858585610a40565b6001600160a01b0384163b156113d157604051630a85bd0160e11b808252906001600160a01b0386169063150b7a02906113669033908a908990899089906004016129e8565b6020604051808303816000875af1158015611385573d6000803e3d6000fd5b505050506040513d601f19601f820116820180604052508101906113a991906128d2565b6001600160e01b031916146113d157604051634e46966960e11b815260040160405180910390fd5b5050505050565b60065467ffffffffffffffff161561141c576040517fef34ca5c00000000000000000000000000000000000000000000000000000000815260040160405180910390fd5b8361142657600080fd5b848411156114475760405163c52342a360e01b815260040160405180910390fd5b86156115075760005b87811015611505576114fc89898381811061146d5761146d6127fd565b905060200281019061147f9190612813565b61148d906020810190612833565b8a8a8481811061149f5761149f6127fd565b90506020028101906114b19190612813565b6114c29060408101906020016123c5565b8b8b858181106114d4576114d46127fd565b90506020028101906114e69190612813565b604001358c8c86818110610828576108286127fd565b50600101611450565b505b6006805467ffffffffffffffff19166001179055600080805b878110156116095788888281811061153a5761153a6127fd565b905060600201602001602081019061155291906123c5565b6001600160a01b0316836001600160a01b0316106115835760405163c90c66b560e01b815260040160405180910390fd5b888882818110611595576115956127fd565b90506060020160200160208101906115ad91906123c5565b92506115fd8989838181106115c4576115c46127fd565b90506060020160200160208101906115dc91906123c5565b8a8a848181106115ee576115ee6127fd565b90506060020160400135611d52565b60019182019101611520565b506006805467ffffffffffffffff838116600160801b027fffffffffffffffff0000000000000000ffffffffffffffffffffffffffffffff918a166801000000000000000002919091167fffffffffffffffff00000000000000000000000000000000ffffffffffffffff9092169190911717905561168a60058585611fd4565b5061169485611d0b565b61169c611c76565b60085550505050505050505050565b6060600580546116ba90612a1b565b9050600003611769576040517fc87b56dd000000000000000000000000000000000000000000000000000000008152600481018390527f00000000000000000000000000000000000000000000000000000000000000006001600160a01b03169063c87b56dd90602401600060405180830381865afa158015611741573d6000803e3d6000fd5b505050506040513d6000823e601f3d908101601f191682016040526106ee919081019061293b565b6005805461177690612a1b565b80601f01602080910402602001604051908101604052809291908181526020018280546117a290612a1b565b80156117ef5780601f106117c4576101008083540402835291602001916117ef565b820191906000526020600020905b8154815290600101906020018083116117d257829003601f168201915b50505050509050919050565b919050565b33301480159061182057503360009081526007602052604090205460ff16155b1561183e57604051631dd2188d60e31b815260040160405180910390fd5b8061184857600080fd5b600654600160801b900467ffffffffffffffff1660005b8381101561191257848482818110611879576118796127fd565b61188f92602060609092020190810191506123aa565b156118de576118d38585838181106118a9576118a96127fd565b90506060020160200160208101906118c191906123c5565b8686848181106115ee576115ee6127fd565b81600101915061190a565b6119028585838181106118f3576118f36127fd565b90506060020160400135611eff565b600019909101905b60010161185f565b50808211156119345760405163c52342a360e01b815260040160405180910390fd5b6006805467ffffffffffffffff838116600160801b027fffffffffffffffff0000000000000000ffffffffffffffffffffffffffffffff9186166801000000000000000002919091167fffffffffffffffff00000000000000000000000000000000ffffffffffffffff909216919091171790556040517f0478dd3ba726bc0761f8c7f40b21c297ee28132545658660defb22734b4dd7e1906119dc90869086908690612a55565b60405180910390a150505050565b60006119f4610c0f565b7f93a4f3ad100766ac785e9e2986ae4f906eea3a67ef943c27112979356b418b35888888888888604051602001611a319796959493929190612b00565b60405160208183030381529060405280519060200120604051602001611a899291907f190100000000000000000000000000000000000000000000000000000000000081526002810192909252602282015260420190565b6040516020818303038152906040528051906020012090509695505050505050565b6006805467ffffffffffffffff8082166001011667ffffffffffffffff19909116179055600080856003811115611ae457611ae4612ac8565b03611b425760008083516020850186885af19050836001600160a01b03167f3320f95383c7a282c01492a81e8935982f72c6caa5c311c9cf0f811634c9052c868585604051611b3593929190612b50565b60405180910390a2611bf1565b6001856003811115611b5657611b56612ac8565b03611ba657600080835160208501875af49050836001600160a01b03167f3320f95383c7a282c01492a81e8935982f72c6caa5c311c9cf0f811634c9052c868585604051611b3593929190612b50565b6002856003811115611bba57611bba612ac8565b03611bce5781516020830184f09050611bf1565b81516bffffffffffffffffffffffff19606086901b169081906020850186f59150505b80611c28576040517fd6bed87300000000000000000000000000000000000000000000000000000000815260040160405180910390fd5b949350505050565b600080611c47600119368181013560f01c90030190565b929092013592915050565b600080611c69600119368181013560f01c90030190565b6054013560c01c92915050565b60007f8b73c3c69bb8fe3d512ecc4cf759cc79239f7b179b0ffacaa9a75d522b39400f611ca161093b565b80516020918201206040805192830193909352918101919091527fc89efdaa54c0f20c7adf612882df0950f5a951637e0307cdcb4c672f298b8bc660608201524660808201523060a082015260c00160405160208183030381529060405280519060200120905090565b6004805460ff19168215159081179091556040519081527f878ac8a2ca79520471f8f3c8494fa802c03ce3bf034252aad7f22318984fdbdb9060200160405180910390a150565b6001600160a01b038216611d7957604051634e46966960e11b815260040160405180910390fd5b6000818152600160205260409020546001600160a01b031615611dc8576040517fddefae2800000000000000000000000000000000000000000000000000000000815260040160405180910390fd5b6001600160a01b03821660008181526020818152604080832080546001908101909155858452909152808220805473ffffffffffffffffffffffffffffffffffffffff19168417905551839291907fddf252ad1be2c89b69c2b068fc378daa952ba7f163c4a11628f55a4df523b3ef908290a46001600160a01b0382163b15611efb57604051630a85bd0160e11b80825233600483015260006024830181905260448301849052608060648401526084830152906001600160a01b0384169063150b7a029060a4016020604051808303816000875af1158015611eaf573d6000803e3d6000fd5b505050506040513d601f19601f82011682018060405250810190611ed391906128d2565b6001600160e01b03191614611efb57604051634e46966960e11b815260040160405180910390fd5b5050565b6000818152600160205260409020546001600160a01b031680611f4e576040517f4d5e5fb300000000000000000000000000000000000000000000000000000000815260040160405180910390fd5b6001600160a01b038116600081815260208181526040808320805460001901905585835260018252808320805473ffffffffffffffffffffffffffffffffffffffff1990811690915560029092528083208054909216909155518492907fddf252ad1be2c89b69c2b068fc378daa952ba7f163c4a11628f55a4df523b3ef908390a45050565b828054611fe090612a1b565b90600052602060002090601f0160209004810192826120025760008555612048565b82601f1061201b5782800160ff19823516178555612048565b82800160010185558215612048579182015b8281111561204857823582559160200191906001019061202d565b50612054929150612058565b5090565b5b808211156120545760008155600101612059565b6001600160e01b031981168114610dea57600080fd5b60006020828403121561209557600080fd5b81356120a08161206d565b9392505050565b60008083601f8401126120b957600080fd5b50813567ffffffffffffffff8111156120d157600080fd5b6020830191508360208260051b85010111156120ec57600080fd5b9250929050565b6000806020838503121561210657600080fd5b823567ffffffffffffffff81111561211d57600080fd5b612129858286016120a7565b90969095509350505050565b6020808252825182820181905260009190848201906040850190845b8181101561216f578351151583529284019291840191600101612151565b50909695505050505050565b60008083601f84011261218d57600080fd5b50813567ffffffffffffffff8111156121a557600080fd5b6020830191508360208285010111156120ec57600080fd5b600080602083850312156121d057600080fd5b823567ffffffffffffffff8111156121e757600080fd5b6121298582860161217b565b60005b8381101561220e5781810151838201526020016121f6565b8381111561221d576000848401525b50505050565b6000815180845261223b8160208601602086016121f3565b601f01601f19169290920160200192915050565b6020815260006120a06020830184612223565b60006020828403121561227457600080fd5b5035919050565b80356001600160a01b03811681146117fb57600080fd5b600080604083850312156122a557600080fd5b6122ae8361227b565b946020939093013593505050565b6000806000806000608086880312156122d457600080fd5b6122dd8661227b565b94506122eb6020870161227b565b935060408601359250606086013567ffffffffffffffff81111561230e57600080fd5b61231a8882890161217b565b969995985093965092949392505050565b60008060006060848603121561234057600080fd5b6123498461227b565b92506123576020850161227b565b9150604084013590509250925092565b803580151581146117fb57600080fd5b6000806040838503121561238a57600080fd5b6123938361227b565b91506123a160208401612367565b90509250929050565b6000602082840312156123bc57600080fd5b6120a082612367565b6000602082840312156123d757600080fd5b6120a08261227b565b8035600481106117fb57600080fd5b60008083601f84011261240157600080fd5b50813567ffffffffffffffff81111561241957600080fd5b6020830191508360206060830285010111156120ec57600080fd5b600080600080600080600060a0888a03121561244f57600080fd5b612458886123e0565b96506124666020890161227b565b955060408801359450606088013567ffffffffffffffff8082111561248a57600080fd5b6124968b838c0161217b565b909650945060808a01359150808211156124af57600080fd5b506124bc8a828b016123ef565b989b979a50959850939692959293505050565b6000602080830181845280855180835260408601915060408160051b870101925083870160005b8281101561252457603f19888603018452612512858351612223565b945092850192908501906001016124f6565b5092979650505050505050565b60008060008060008060008060a0898b03121561254d57600080fd5b6125568961227b565b975061256460208a0161227b565b9650604089013567ffffffffffffffff8082111561258157600080fd5b61258d8c838d016120a7565b909850965060608b01359150808211156125a657600080fd5b6125b28c838d016120a7565b909650945060808b01359150808211156125cb57600080fd5b506125d88b828c0161217b565b999c989b5096995094979396929594505050565b60008060008060008060008060a0898b03121561260857600080fd5b883567ffffffffffffffff8082111561262057600080fd5b61262c8c838d016120a7565b909a50985060208b013591508082111561264557600080fd5b6126518c838d016123ef565b909850965060408b0135955086915061266c60608c01612367565b945060808b01359150808211156125cb57600080fd5b60008060006040848603121561269757600080fd5b833567ffffffffffffffff8111156126ae57600080fd5b6126ba868287016123ef565b909790965060209590950135949350505050565b60008060008060008060a087890312156126e757600080fd5b6126f0876123e0565b95506126fe6020880161227b565b945060408701359350606087013567ffffffffffffffff81111561272157600080fd5b61272d89828a0161217b565b979a9699509497949695608090950135949350505050565b6000806040838503121561275857600080fd5b6127618361227b565b91506123a16020840161227b565b60008060008060008060a0878903121561278857600080fd5b6127918761227b565b955061279f6020880161227b565b94506040870135935060608701359250608087013567ffffffffffffffff8111156127c957600080fd5b6127d589828a0161217b565b979a9699509497509295939492505050565b634e487b7160e01b600052604160045260246000fd5b634e487b7160e01b600052603260045260246000fd5b60008235607e1983360301811261282957600080fd5b9190910192915050565b60006020828403121561284557600080fd5b6120a0826123e0565b6000808335601e1984360301811261286557600080fd5b83018035915067ffffffffffffffff82111561288057600080fd5b6020019150368190038213156120ec57600080fd5b81835281816020850137506000828201602090810191909152601f909101601f19169091010190565b602081526000611c28602083018486612895565b6000602082840312156128e457600080fd5b81516120a08161206d565b60006020828403121561290157600080fd5b813560ff811681146120a057600080fd5b828152604060208201526000611c286040830184612223565b8183823760009101908152919050565b60006020828403121561294d57600080fd5b815167ffffffffffffffff8082111561296557600080fd5b818401915084601f83011261297957600080fd5b81518181111561298b5761298b6127e7565b604051601f8201601f19908116603f011681019083821181831017156129b3576129b36127e7565b816040528281528760208487010111156129cc57600080fd5b6129dd8360208301602088016121f3565b979650505050505050565b60006001600160a01b038088168352808716602084015250846040830152608060608301526129dd608083018486612895565b600181811c90821680612a2f57607f821691505b602082108103612a4f57634e487b7160e01b600052602260045260246000fd5b50919050565b6040808252818101849052600090606080840187845b88811015612ab257612a7c82612367565b1515835260206001600160a01b03612a9582850161227b565b169084015281850135858401529183019190830190600101612a6b565b5050809350505050826020830152949350505050565b634e487b7160e01b600052602160045260246000fd5b60048110612afc57634e487b7160e01b600052602160045260246000fd5b9052565b878152612b106020820188612ade565b6001600160a01b038616604082015284606082015260c060808201526000612b3c60c083018587612895565b90508260a083015298975050505050505050565b612b5a8185612ade565b826020820152606060408201526000612b766060830184612223565b9594505050505056fea2646970667358221220b55d68f3c2a8ea8e2b925283aafcbb8ffbdfc3d24e60da8b74bfeb1ef536618064736f6c634300080e0033",
    "linkReferences": {}
  }
}