{
  "abi": [
    {
      "inputs": [
        {
          "internalType": "contract KaliClub",
          "name": "_uriFetcher",
          "type": "address"
        }
      ],
      "stateMutability": "payable",
      "type": "constructor"
    },
    {
      "inputs": [],
      "name": "ALREADY_INIT",
      "type": "error"
    },
    {
      "inputs": [],
      "name": "EXECUTE_FAILED",
      "type": "error"
    },
    {
      "inputs": [],
      "name": "INVALID_RECIPIENT",
      "type": "error"
    },
    {
      "inputs": [],
      "name": "INVALID_SIG",
      "type": "error"
    },
    {
      "inputs": [],
      "name": "LENGTH_MISMATCH",
      "type": "error"
    },
    {
      "inputs": [],
      "name": "NONTRANSFERABLE",
      "type": "error"
    },
    {
      "inputs": [],
      "name": "NOT_AUTHORIZED",
      "type": "error"
    },
    {
      "inputs": [],
      "name": "QUORUM_OVER_SUPPLY",
      "type": "error"
    },
    {
      "inputs": [],
      "name": "UINT192_MAX",
      "type": "error"
    },
    {
      "inputs": [],
      "name": "UINT64_MAX",
      "type": "error"
    },
    {
      "inputs": [],
      "name": "UNDETERMINED",
      "type": "error"
    },
    {
      "anonymous": false,
      "inputs": [
        {
          "indexed": true,
          "internalType": "address",
          "name": "to",
          "type": "address"
        }
      ],
      "name": "AdminSet",
      "type": "event"
    },
    {
      "anonymous": false,
      "inputs": [
        {
          "indexed": true,
          "internalType": "address",
          "name": "owner",
          "type": "address"
        },
        {
          "indexed": true,
          "internalType": "address",
          "name": "operator",
          "type": "address"
        },
        {
          "indexed": false,
          "internalType": "bool",
          "name": "approved",
          "type": "bool"
        }
      ],
      "name": "ApprovalForAll",
      "type": "event"
    },
    {
      "anonymous": false,
      "inputs": [
        {
          "indexed": false,
          "internalType": "enum Operation",
          "name": "op",
          "type": "uint8"
        },
        {
          "indexed": true,
          "internalType": "address",
          "name": "creation",
          "type": "address"
        },
        {
          "indexed": false,
          "internalType": "uint256",
          "name": "value",
          "type": "uint256"
        }
      ],
      "name": "ContractCreated",
      "type": "event"
    },
    {
      "anonymous": false,
      "inputs": [
        {
          "indexed": true,
          "internalType": "address",
          "name": "delegator",
          "type": "address"
        },
        {
          "indexed": true,
          "internalType": "address",
          "name": "fromDelegate",
          "type": "address"
        },
        {
          "indexed": true,
          "internalType": "address",
          "name": "toDelegate",
          "type": "address"
        },
        {
          "indexed": false,
          "internalType": "uint256",
          "name": "id",
          "type": "uint256"
        }
      ],
      "name": "DelegateChanged",
      "type": "event"
    },
    {
      "anonymous": false,
      "inputs": [
        {
          "indexed": true,
          "internalType": "address",
          "name": "delegate",
          "type": "address"
        },
        {
          "indexed": true,
          "internalType": "uint256",
          "name": "id",
          "type": "uint256"
        },
        {
          "indexed": false,
          "internalType": "uint256",
          "name": "previousBalance",
          "type": "uint256"
        },
        {
          "indexed": false,
          "internalType": "uint256",
          "name": "newBalance",
          "type": "uint256"
        }
      ],
      "name": "DelegateVotesChanged",
      "type": "event"
    },
    {
      "anonymous": false,
      "inputs": [
        {
          "indexed": false,
          "internalType": "enum Operation",
          "name": "op",
          "type": "uint8"
        },
        {
          "indexed": true,
          "internalType": "address",
          "name": "to",
          "type": "address"
        },
        {
          "indexed": false,
          "internalType": "uint256",
          "name": "value",
          "type": "uint256"
        },
        {
          "indexed": false,
          "internalType": "bytes",
          "name": "data",
          "type": "bytes"
        }
      ],
      "name": "Executed",
      "type": "event"
    },
    {
      "anonymous": false,
      "inputs": [
        {
          "indexed": true,
          "internalType": "address",
          "name": "caller",
          "type": "address"
        },
        {
          "indexed": true,
          "internalType": "address",
          "name": "to",
          "type": "address"
        },
        {
          "indexed": false,
          "internalType": "bool",
          "name": "approve",
          "type": "bool"
        }
      ],
      "name": "GovernanceSet",
      "type": "event"
    },
    {
      "anonymous": false,
      "inputs": [
        {
          "indexed": true,
          "internalType": "address",
          "name": "caller",
          "type": "address"
        },
        {
          "indexed": false,
          "internalType": "uint64",
          "name": "threshold",
          "type": "uint64"
        }
      ],
      "name": "QuorumSet",
      "type": "event"
    },
    {
      "anonymous": false,
      "inputs": [
        {
          "indexed": true,
          "internalType": "address",
          "name": "operator",
          "type": "address"
        },
        {
          "indexed": true,
          "internalType": "uint256",
          "name": "id",
          "type": "uint256"
        },
        {
          "indexed": false,
          "internalType": "bool",
          "name": "transferability",
          "type": "bool"
        }
      ],
      "name": "TokenTransferabilitySet",
      "type": "event"
    },
    {
      "anonymous": false,
      "inputs": [
        {
          "indexed": true,
          "internalType": "address",
          "name": "operator",
          "type": "address"
        },
        {
          "indexed": true,
          "internalType": "address",
          "name": "from",
          "type": "address"
        },
        {
          "indexed": true,
          "internalType": "address",
          "name": "to",
          "type": "address"
        },
        {
          "indexed": false,
          "internalType": "uint256[]",
          "name": "ids",
          "type": "uint256[]"
        },
        {
          "indexed": false,
          "internalType": "uint256[]",
          "name": "amounts",
          "type": "uint256[]"
        }
      ],
      "name": "TransferBatch",
      "type": "event"
    },
    {
      "anonymous": false,
      "inputs": [
        {
          "indexed": true,
          "internalType": "address",
          "name": "operator",
          "type": "address"
        },
        {
          "indexed": true,
          "internalType": "address",
          "name": "from",
          "type": "address"
        },
        {
          "indexed": true,
          "internalType": "address",
          "name": "to",
          "type": "address"
        },
        {
          "indexed": false,
          "internalType": "uint256",
          "name": "id",
          "type": "uint256"
        },
        {
          "indexed": false,
          "internalType": "uint256",
          "name": "amount",
          "type": "uint256"
        }
      ],
      "name": "TransferSingle",
      "type": "event"
    },
    {
      "anonymous": false,
      "inputs": [
        {
          "indexed": false,
          "internalType": "string",
          "name": "value",
          "type": "string"
        },
        {
          "indexed": true,
          "internalType": "uint256",
          "name": "id",
          "type": "uint256"
        }
      ],
      "name": "URI",
      "type": "event"
    },
    {
      "inputs": [],
      "name": "DOMAIN_SEPARATOR",
      "outputs": [
        {
          "internalType": "bytes32",
          "name": "",
          "type": "bytes32"
        }
      ],
      "stateMutability": "view",
      "type": "function"
    },
    {
      "inputs": [
        {
          "internalType": "address",
          "name": "",
          "type": "address"
        }
      ],
      "name": "admin",
      "outputs": [
        {
          "internalType": "bool",
          "name": "",
          "type": "bool"
        }
      ],
      "stateMutability": "view",
      "type": "function"
    },
    {
      "inputs": [
        {
          "internalType": "address",
          "name": "",
          "type": "address"
        },
        {
          "internalType": "uint256",
          "name": "",
          "type": "uint256"
        }
      ],
      "name": "balanceOf",
      "outputs": [
        {
          "internalType": "uint256",
          "name": "",
          "type": "uint256"
        }
      ],
      "stateMutability": "view",
      "type": "function"
    },
    {
      "inputs": [
        {
          "internalType": "address[]",
          "name": "owners",
          "type": "address[]"
        },
        {
          "internalType": "uint256[]",
          "name": "ids",
          "type": "uint256[]"
        }
      ],
      "name": "balanceOfBatch",
      "outputs": [
        {
          "internalType": "uint256[]",
          "name": "balances",
          "type": "uint256[]"
        }
      ],
      "stateMutability": "view",
      "type": "function"
    },
    {
      "inputs": [
        {
          "components": [
            {
              "internalType": "enum Operation",
              "name": "op",
              "type": "uint8"
            },
            {
              "internalType": "address",
              "name": "to",
              "type": "address"
            },
            {
              "internalType": "uint256",
              "name": "value",
              "type": "uint256"
            },
            {
              "internalType": "bytes",
              "name": "data",
              "type": "bytes"
            }
          ],
          "internalType": "struct Call[]",
          "name": "calls",
          "type": "tuple[]"
        }
      ],
      "name": "batchExecute",
      "outputs": [
        {
          "internalType": "bool[]",
          "name": "successes",
          "type": "bool[]"
        }
      ],
      "stateMutability": "payable",
      "type": "function"
    },
    {
      "inputs": [
        {
          "internalType": "address",
          "name": "from",
          "type": "address"
        },
        {
          "internalType": "uint256",
          "name": "id",
          "type": "uint256"
        },
        {
          "internalType": "uint256",
          "name": "amount",
          "type": "uint256"
        }
      ],
      "name": "burn",
      "outputs": [],
      "stateMutability": "payable",
      "type": "function"
    },
    {
      "inputs": [
        {
          "internalType": "address",
          "name": "from",
          "type": "address"
        }
      ],
      "name": "burnSigner",
      "outputs": [],
      "stateMutability": "payable",
      "type": "function"
    },
    {
      "inputs": [
        {
          "internalType": "address",
          "name": "",
          "type": "address"
        },
        {
          "internalType": "uint256",
          "name": "",
          "type": "uint256"
        },
        {
          "internalType": "uint256",
          "name": "",
          "type": "uint256"
        }
      ],
      "name": "checkpoints",
      "outputs": [
        {
          "internalType": "uint64",
          "name": "fromTimestamp",
          "type": "uint64"
        },
        {
          "internalType": "uint192",
          "name": "votes",
          "type": "uint192"
        }
      ],
      "stateMutability": "view",
      "type": "function"
    },
    {
      "inputs": [
        {
          "internalType": "address",
          "name": "delegatee",
          "type": "address"
        },
        {
          "internalType": "uint256",
          "name": "id",
          "type": "uint256"
        }
      ],
      "name": "delegate",
      "outputs": [],
      "stateMutability": "payable",
      "type": "function"
    },
    {
      "inputs": [
        {
          "internalType": "address",
          "name": "account",
          "type": "address"
        },
        {
          "internalType": "uint256",
          "name": "id",
          "type": "uint256"
        }
      ],
      "name": "delegates",
      "outputs": [
        {
          "internalType": "address",
          "name": "",
          "type": "address"
        }
      ],
      "stateMutability": "view",
      "type": "function"
    },
    {
      "inputs": [
        {
          "internalType": "enum Operation",
          "name": "op",
          "type": "uint8"
        },
        {
          "internalType": "address",
          "name": "to",
          "type": "address"
        },
        {
          "internalType": "uint256",
          "name": "value",
          "type": "uint256"
        },
        {
          "internalType": "bytes",
          "name": "data",
          "type": "bytes"
        },
        {
          "components": [
            {
              "internalType": "uint8",
              "name": "v",
              "type": "uint8"
            },
            {
              "internalType": "bytes32",
              "name": "r",
              "type": "bytes32"
            },
            {
              "internalType": "bytes32",
              "name": "s",
              "type": "bytes32"
            }
          ],
          "internalType": "struct Signature[]",
          "name": "sigs",
          "type": "tuple[]"
        }
      ],
      "name": "execute",
      "outputs": [
        {
          "internalType": "bool",
          "name": "success",
          "type": "bool"
        }
      ],
      "stateMutability": "payable",
      "type": "function"
    },
    {
      "inputs": [
        {
          "internalType": "address",
          "name": "account",
          "type": "address"
        },
        {
          "internalType": "uint256",
          "name": "id",
          "type": "uint256"
        }
      ],
      "name": "getCurrentVotes",
      "outputs": [
        {
          "internalType": "uint256",
          "name": "",
          "type": "uint256"
        }
      ],
      "stateMutability": "view",
      "type": "function"
    },
    {
      "inputs": [
        {
          "internalType": "address",
          "name": "account",
          "type": "address"
        },
        {
          "internalType": "uint256",
          "name": "id",
          "type": "uint256"
        },
        {
          "internalType": "uint256",
          "name": "timestamp",
          "type": "uint256"
        }
      ],
      "name": "getPriorVotes",
      "outputs": [
        {
          "internalType": "uint256",
          "name": "",
          "type": "uint256"
        }
      ],
      "stateMutability": "view",
      "type": "function"
    },
    {
      "inputs": [
        {
          "internalType": "address",
          "name": "",
          "type": "address"
        }
      ],
      "name": "governance",
      "outputs": [
        {
          "internalType": "bool",
          "name": "",
          "type": "bool"
        }
      ],
      "stateMutability": "view",
      "type": "function"
    },
    {
      "inputs": [
        {
          "components": [
            {
              "internalType": "enum Operation",
              "name": "op",
              "type": "uint8"
            },
            {
              "internalType": "address",
              "name": "to",
              "type": "address"
            },
            {
              "internalType": "uint256",
              "name": "value",
              "type": "uint256"
            },
            {
              "internalType": "bytes",
              "name": "data",
              "type": "bytes"
            }
          ],
          "internalType": "struct Call[]",
          "name": "calls",
          "type": "tuple[]"
        },
        {
          "internalType": "address[]",
          "name": "signers",
          "type": "address[]"
        },
        {
          "internalType": "uint256",
          "name": "threshold",
          "type": "uint256"
        }
      ],
      "name": "init",
      "outputs": [],
      "stateMutability": "payable",
      "type": "function"
    },
    {
      "inputs": [
        {
          "internalType": "address",
          "name": "",
          "type": "address"
        },
        {
          "internalType": "address",
          "name": "",
          "type": "address"
        }
      ],
      "name": "isApprovedForAll",
      "outputs": [
        {
          "internalType": "bool",
          "name": "",
          "type": "bool"
        }
      ],
      "stateMutability": "view",
      "type": "function"
    },
    {
      "inputs": [
        {
          "internalType": "address",
          "name": "to",
          "type": "address"
        },
        {
          "internalType": "uint256",
          "name": "id",
          "type": "uint256"
        },
        {
          "internalType": "uint256",
          "name": "amount",
          "type": "uint256"
        },
        {
          "internalType": "bytes",
          "name": "data",
          "type": "bytes"
        }
      ],
      "name": "mint",
      "outputs": [],
      "stateMutability": "payable",
      "type": "function"
    },
    {
      "inputs": [
        {
          "internalType": "address",
          "name": "to",
          "type": "address"
        }
      ],
      "name": "mintSigner",
      "outputs": [],
      "stateMutability": "payable",
      "type": "function"
    },
    {
      "inputs": [
        {
          "internalType": "bytes[]",
          "name": "data",
          "type": "bytes[]"
        }
      ],
      "name": "multicall",
      "outputs": [
        {
          "internalType": "bytes[]",
          "name": "results",
          "type": "bytes[]"
        }
      ],
      "stateMutability": "payable",
      "type": "function"
    },
    {
      "inputs": [],
      "name": "nonce",
      "outputs": [
        {
          "internalType": "uint64",
          "name": "",
          "type": "uint64"
        }
      ],
      "stateMutability": "view",
      "type": "function"
    },
    {
      "inputs": [
        {
          "internalType": "address",
          "name": "",
          "type": "address"
        },
        {
          "internalType": "uint256",
          "name": "",
          "type": "uint256"
        }
      ],
      "name": "numCheckpoints",
      "outputs": [
        {
          "internalType": "uint256",
          "name": "",
          "type": "uint256"
        }
      ],
      "stateMutability": "view",
      "type": "function"
    },
    {
      "inputs": [
        {
          "internalType": "address",
          "name": "",
          "type": "address"
        },
        {
          "internalType": "address",
          "name": "",
          "type": "address"
        },
        {
          "internalType": "uint256[]",
          "name": "",
          "type": "uint256[]"
        },
        {
          "internalType": "uint256[]",
          "name": "",
          "type": "uint256[]"
        },
        {
          "internalType": "bytes",
          "name": "",
          "type": "bytes"
        }
      ],
      "name": "onERC1155BatchReceived",
      "outputs": [
        {
          "internalType": "bytes4",
          "name": "",
          "type": "bytes4"
        }
      ],
      "stateMutability": "pure",
      "type": "function"
    },
    {
      "inputs": [
        {
          "internalType": "address",
          "name": "",
          "type": "address"
        },
        {
          "internalType": "address",
          "name": "",
          "type": "address"
        },
        {
          "internalType": "uint256",
          "name": "",
          "type": "uint256"
        },
        {
          "internalType": "uint256",
          "name": "",
          "type": "uint256"
        },
        {
          "internalType": "bytes",
          "name": "",
          "type": "bytes"
        }
      ],
      "name": "onERC1155Received",
      "outputs": [
        {
          "internalType": "bytes4",
          "name": "",
          "type": "bytes4"
        }
      ],
      "stateMutability": "pure",
      "type": "function"
    },
    {
      "inputs": [
        {
          "internalType": "address",
          "name": "",
          "type": "address"
        },
        {
          "internalType": "address",
          "name": "",
          "type": "address"
        },
        {
          "internalType": "uint256",
          "name": "",
          "type": "uint256"
        },
        {
          "internalType": "bytes",
          "name": "",
          "type": "bytes"
        }
      ],
      "name": "onERC721Received",
      "outputs": [
        {
          "internalType": "bytes4",
          "name": "",
          "type": "bytes4"
        }
      ],
      "stateMutability": "pure",
      "type": "function"
    },
    {
      "inputs": [],
      "name": "quorum",
      "outputs": [
        {
          "internalType": "uint64",
          "name": "",
          "type": "uint64"
        }
      ],
      "stateMutability": "view",
      "type": "function"
    },
    {
      "inputs": [
        {
          "internalType": "address",
          "name": "from",
          "type": "address"
        },
        {
          "internalType": "address",
          "name": "to",
          "type": "address"
        },
        {
          "internalType": "uint256[]",
          "name": "ids",
          "type": "uint256[]"
        },
        {
          "internalType": "uint256[]",
          "name": "amounts",
          "type": "uint256[]"
        },
        {
          "internalType": "bytes",
          "name": "data",
          "type": "bytes"
        }
      ],
      "name": "safeBatchTransferFrom",
      "outputs": [],
      "stateMutability": "payable",
      "type": "function"
    },
    {
      "inputs": [
        {
          "internalType": "address",
          "name": "from",
          "type": "address"
        },
        {
          "internalType": "address",
          "name": "to",
          "type": "address"
        },
        {
          "internalType": "uint256",
          "name": "id",
          "type": "uint256"
        },
        {
          "internalType": "uint256",
          "name": "amount",
          "type": "uint256"
        },
        {
          "internalType": "bytes",
          "name": "data",
          "type": "bytes"
        }
      ],
      "name": "safeTransferFrom",
      "outputs": [],
      "stateMutability": "payable",
      "type": "function"
    },
    {
      "inputs": [
        {
          "internalType": "address",
          "name": "to",
          "type": "address"
        }
      ],
      "name": "setAdmin",
      "outputs": [],
      "stateMutability": "payable",
      "type": "function"
    },
    {
      "inputs": [
        {
          "internalType": "address",
          "name": "operator",
          "type": "address"
        },
        {
          "internalType": "bool",
          "name": "approved",
          "type": "bool"
        }
      ],
      "name": "setApprovalForAll",
      "outputs": [],
      "stateMutability": "payable",
      "type": "function"
    },
    {
      "inputs": [
        {
          "internalType": "address",
          "name": "to",
          "type": "address"
        },
        {
          "internalType": "bool",
          "name": "approve",
          "type": "bool"
        }
      ],
      "name": "setGovernance",
      "outputs": [],
      "stateMutability": "payable",
      "type": "function"
    },
    {
      "inputs": [
        {
          "internalType": "uint64",
          "name": "threshold",
          "type": "uint64"
        }
      ],
      "name": "setQuorum",
      "outputs": [],
      "stateMutability": "payable",
      "type": "function"
    },
    {
      "inputs": [
        {
          "internalType": "uint256",
          "name": "id",
          "type": "uint256"
        },
        {
          "internalType": "bool",
          "name": "transferability",
          "type": "bool"
        }
      ],
      "name": "setTokenTransferability",
      "outputs": [],
      "stateMutability": "payable",
      "type": "function"
    },
    {
      "inputs": [
        {
          "internalType": "uint256",
          "name": "id",
          "type": "uint256"
        },
        {
          "internalType": "string",
          "name": "tokenURI",
          "type": "string"
        }
      ],
      "name": "setTokenURI",
      "outputs": [],
      "stateMutability": "payable",
      "type": "function"
    },
    {
      "inputs": [
        {
          "internalType": "bytes4",
          "name": "interfaceId",
          "type": "bytes4"
        }
      ],
      "name": "supportsInterface",
      "outputs": [
        {
          "internalType": "bool",
          "name": "",
          "type": "bool"
        }
      ],
      "stateMutability": "view",
      "type": "function"
    },
    {
      "inputs": [
        {
          "internalType": "uint256",
          "name": "",
          "type": "uint256"
        }
      ],
      "name": "totalSupply",
      "outputs": [
        {
          "internalType": "uint256",
          "name": "",
          "type": "uint256"
        }
      ],
      "stateMutability": "view",
      "type": "function"
    },
    {
      "inputs": [
        {
          "internalType": "uint256",
          "name": "",
          "type": "uint256"
        }
      ],
      "name": "transferable",
      "outputs": [
        {
          "internalType": "bool",
          "name": "",
          "type": "bool"
        }
      ],
      "stateMutability": "view",
      "type": "function"
    },
    {
      "inputs": [
        {
          "internalType": "uint256",
          "name": "id",
          "type": "uint256"
        }
      ],
      "name": "uri",
      "outputs": [
        {
          "internalType": "string",
          "name": "",
          "type": "string"
        }
      ],
      "stateMutability": "view",
      "type": "function"
    }
  ],
  "bytecode": {
    "object": "0x60a060405260405162003c5a38038062003c5a833981016040819052620000269162000038565b6001600160a01b03166080526200006a565b6000602082840312156200004b57600080fd5b81516001600160a01b03811681146200006357600080fd5b9392505050565b608051613bd4620000866000396000610b9b0152613bd46000f3fe6080604052600436106102695760003560e01c8063731133e911610153578063affed0e0116100cb578063e985e9c51161007f578063f242432a11610064578063f242432a1461078b578063f4c3b4d71461079e578063f5298aca146107ce57600080fd5b8063e985e9c514610723578063f23a6e611461075e57600080fd5b8063bc197c81116100b0578063bc197c81146106b4578063bd85b039146106e3578063c590e89f1461071057600080fd5b8063affed0e014610680578063b2839f5e146106a157600080fd5b80638585c94511610122578063a22cb46511610107578063a22cb46514610615578063ac9650d814610628578063afa88bca1461064857600080fd5b80638585c945146105ef5780638c995b911461060257600080fd5b8063731133e91461056c578063807df56d1461057f578063836eebee1461059f5780638426e6c1146105bf57600080fd5b806327dd1b00116101e65780634e1273f4116101b557806357ac01ad1161019a57806357ac01ad1461051657806363a846f814610529578063704b6c021461055957600080fd5b80634e1273f4146104d657806354d7926f1461050357600080fd5b806327dd1b00146103f45780632eb2c2d61461042c5780633644e5151461043f578063387bbabd1461045457600080fd5b80630e89341c1161023d578063158a1ca111610222578063158a1ca11461038d578063162094c4146103a05780631703a018146103b357600080fd5b80630e89341c1461031b578063150b7a021461034857600080fd5b8062fdd58e1461026e57806301ffc9a7146102b6578063023e8d84146102e6578063026e402b14610306575b600080fd5b34801561027a57600080fd5b506102a3610289366004612e8c565b600060208181529281526040808220909352908152205481565b6040519081526020015b60405180910390f35b3480156102c257600080fd5b506102d66102d1366004612ecf565b6107e1565b60405190151581526020016102ad565b6102f96102f4366004612f38565b610840565b6040516102ad9190612f7a565b610319610314366004612e8c565b610a1b565b005b34801561032757600080fd5b5061033b610336366004612fc0565b610ade565b6040516102ad9190613031565b34801561035457600080fd5b50610374610363366004613086565b630a85bd0160e11b95945050505050565b6040516001600160e01b031990911681526020016102ad565b61031961039b366004613105565b610c1f565b6103196103ae366004613138565b610cdb565b3480156103bf57600080fd5b506007546103db90600160401b900467ffffffffffffffff1681565b60405167ffffffffffffffff90911681526020016102ad565b34801561040057600080fd5b5061041461040f366004612e8c565b610d8e565b6040516001600160a01b0390911681526020016102ad565b61031961043a366004613184565b610dcc565b34801561044b57600080fd5b506102a3611077565b34801561046057600080fd5b506104ae61046f36600461323f565b600660209081526000938452604080852082529284528284209052825290205467ffffffffffffffff811690600160401b90046001600160c01b031682565b6040805167ffffffffffffffff90931683526001600160c01b039091166020830152016102ad565b3480156104e257600080fd5b506104f66104f1366004613272565b611152565b6040516102ad91906132de565b610319610511366004613316565b611266565b610319610524366004613339565b611312565b34801561053557600080fd5b506102d6610544366004613339565b60096020526000908152604090205460ff1681565b610319610567366004613339565b611453565b61031961057a366004613354565b6114bf565b34801561058b57600080fd5b506102a361059a366004612e8c565b611537565b3480156105ab57600080fd5b506102a36105ba36600461323f565b6115bb565b3480156105cb57600080fd5b506102d66105da366004613339565b600a6020526000908152604090205460ff1681565b6103196105fd36600461339f565b6117ff565b6102d66106103660046133d8565b611930565b610319610623366004613105565b611d2f565b61063b610636366004612f38565b611d94565b6040516102ad91906134a3565b34801561065457600080fd5b506102a3610663366004612e8c565b600560209081526000928352604080842090915290825290205481565b34801561068c57600080fd5b506007546103db9067ffffffffffffffff1681565b6103196106af366004613339565b611efd565b3480156106c057600080fd5b506103746106cf366004613184565b63bc197c8160e01b98975050505050505050565b3480156106ef57600080fd5b506102a36106fe366004612fc0565b60036020526000908152604090205481565b61031961071e366004613505565b611fe0565b34801561072f57600080fd5b506102d661073e366004613579565b600160209081526000928352604080842090915290825290205460ff1681565b34801561076a57600080fd5b506103746107793660046135a3565b63f23a6e6160e01b9695505050505050565b6103196107993660046135a3565b612334565b3480156107aa57600080fd5b506102d66107b9366004612fc0565b60026020526000908152604090205460ff1681565b6103196107dc36600461323f565b61254a565b60006001600160e01b03198216630a85bd0160e11b148061082b57507f4e2312e0000000000000000000000000000000000000000000000000000000006001600160e01b03198316145b8061083a575061083a826125fe565b92915050565b60603330148015906108625750336000908152600a602052604090205460ff16155b801561087e57503360009081526009602052604090205460ff16155b1561089c57604051633d83866f60e01b815260040160405180910390fd5b8167ffffffffffffffff8111156108b5576108b561361b565b6040519080825280602002602001820160405280156108de578160200160208202803683370190505b50905060005b82811015610a14576109ea84848381811061090157610901613631565b90506020028101906109139190613647565b610921906020810190613667565b85858481811061093357610933613631565b90506020028101906109459190613647565b610956906040810190602001613339565b86868581811061096857610968613631565b905060200281019061097a9190613647565b6040013587878681811061099057610990613631565b90506020028101906109a29190613647565b6109b0906060810190613682565b8080601f01602080910402602001604051908101604052809392919081815260200183838082843760009201919091525061267e92505050565b8282815181106109fc576109fc613631565b911515602092830291909101909101526001016108e4565b5092915050565b6000610a273383610d8e565b33600081815260046020908152604080832087845282529182902080547fffffffffffffffffffffffff0000000000000000000000000000000000000000166001600160a01b038981169182179092559251878152949550919391851692917f287e04de574701d97a55bd9ea85b32defecf76a607b8007ee9ae8c126bf7a746910160405180910390a433600090815260208181526040808320858452909152902054610ad9908290859085906128a4565b505050565b6000818152600b6020526040812080546060929190610afc906136c9565b80601f0160208091040260200160405190810160405280929190818152602001828054610b28906136c9565b8015610b755780601f10610b4a57610100808354040283529160200191610b75565b820191906000526020600020905b815481529060010190602001808311610b5857829003601f168201915b50505050509050805160000361083a576040516303a24d0760e21b8152600481018490527f00000000000000000000000000000000000000000000000000000000000000006001600160a01b031690630e89341c90602401600060405180830381865afa158015610bea573d6000803e3d6000fd5b505050506040513d6000823e601f3d908101601f19168201604052610c1291908101906136fd565b9392505050565b50919050565b333014801590610c3f5750336000908152600a602052604090205460ff16155b8015610c5b57503360009081526009602052604090205460ff16155b15610c7957604051633d83866f60e01b815260040160405180910390fd5b6001600160a01b0382166000818152600a6020908152604091829020805460ff1916851515908117909155915191825233917f4a095fd4c00c15af45ad40f2fcb94a1066f92e52d9fa4b0be820fab3dfdf665d91015b60405180910390a35050565b333014801590610cfb5750336000908152600a602052604090205460ff16155b8015610d1757503360009081526009602052604090205460ff16155b15610d3557604051633d83866f60e01b815260040160405180910390fd5b6000838152600b60205260409020610d4e8284836137f0565b50827f6bb7ff708619ba0610cba295a58592e0451dee2622938c8755667688daf3529b8383604051610d819291906138d9565b60405180910390a2505050565b6001600160a01b0380831660009081526004602090815260408083208584529091528120549091168015610dc25780610dc4565b835b949350505050565b848314610dec5760405163899ef10d60e01b815260040160405180910390fd5b336001600160a01b03891614801590610e2957506001600160a01b038816600090815260016020908152604080832033845290915290205460ff16155b15610e4757604051633d83866f60e01b815260040160405180910390fd5b60008060005b87811015610f4757888882818110610e6757610e67613631565b905060200201359250868682818110610e8257610e82613631565b6000868152600260209081526040909120549102929092013593505060ff16610ebe57604051634f8cca5b60e11b815260040160405180910390fd5b6001600160a01b038b1660009081526020818152604080832086845290915281208054849290610eef908490613903565b90915550506001600160a01b038a1660009081526020818152604080832086845290915290208054830190558215610f3f57610f3f610f2e8c85610d8e565b610f388c86610d8e565b85856128a4565b600101610e4d565b50886001600160a01b03168a6001600160a01b0316336001600160a01b03167f4a39dc06d4c0dbc64b70af90fd698a233a518aa5d07e595d983b8c0526c8f7fb8b8b8b8b604051610f9b9493929190613969565b60405180910390a46001600160a01b0389163b156110415760405163bc197c8160e01b808252906001600160a01b038b169063bc197c8190610fef9033908f908e908e908e908e908e908e90600401613990565b602060405180830381865afa15801561100c573d6000803e3d6000fd5b505050506040513d601f19601f8201168201806040525081019061103091906139e5565b6001600160e01b031916141561104d565b6001600160a01b038916155b1561106b5760405163290802d360e11b815260040160405180910390fd5b50505050505050505050565b60003660011981013560f01c900360030135461461114b5750604080518082018252600881526725b0b634a1b63ab160c11b60209182015281517f8b73c3c69bb8fe3d512ecc4cf759cc79239f7b179b0ffacaa9a75d522b39400f818301527f5b5b1483404ac93e4d9b025a8feb4c5ea9304085ab2e513c578af4cec7eb5319818401527fc89efdaa54c0f20c7adf612882df0950f5a951637e0307cdcb4c672f298b8bc660608201524660808201523060a0808301919091528351808303909101815260c0909101909252815191012090565b5060085490565b60608382146111745760405163899ef10d60e01b815260040160405180910390fd5b8367ffffffffffffffff81111561118d5761118d61361b565b6040519080825280602002602001820160405280156111b6578160200160208202803683370190505b50905060005b8481101561125d576000808787848181106111d9576111d9613631565b90506020020160208101906111ee9190613339565b6001600160a01b03166001600160a01b03168152602001908152602001600020600085858481811061122257611222613631565b9050602002013581526020019081526020016000205482828151811061124a5761124a613631565b60209081029190910101526001016111bc565b50949350505050565b3330148015906112865750336000908152600a602052604090205460ff16155b80156112a257503360009081526009602052604090205460ff16155b156112c057604051633d83866f60e01b815260040160405180910390fd5b600082815260026020908152604091829020805460ff19168415159081179091559151918252839133917f92d6650e3daf0c48674c410d3d8a281fe4d48a5a2236fe505d38e4da211200879101610ccf565b3330148015906113325750336000908152600a602052604090205460ff16155b801561134e57503360009081526009602052604090205460ff16155b1561136c57604051633d83866f60e01b815260040160405180910390fd5b6001600160a01b0381166000908152602081815260408083208380529091528120805490919061139b90613a02565b909155506000805260036020527f3617319a054d772f909f7c479a2cebe5066e836a939412e32403c99029b92eff80546000190190819055600754600160401b900467ffffffffffffffff16111561140657604051631534858160e01b815260040160405180910390fd5b60408051600080825260016020830152916001600160a01b0384169133917fc3d58168c5ae7397731d063d5bbf3d657854427343f4c083240f7aacaa2d0f6291015b60405180910390a450565b33301461147357604051633d83866f60e01b815260040160405180910390fd5b6001600160a01b038116600081815260096020526040808220805460ff19166001179055517f8fe72c3e0020beb3234e76ae6676fa576fbfcae600af1c4fea44784cf0db329c9190a250565b3330148015906114df5750336000908152600a602052604090205460ff16155b80156114fb57503360009081526009602052604090205460ff16155b1561151957604051633d83866f60e01b815260040160405180910390fd5b8361152357600080fd5b6115308585858585612a36565b5050505050565b6001600160a01b03821660009081526005602090815260408083208484529091528120548082036115695760006115aa565b6001600160a01b0384166000908152600660209081526040808320868452825280832060001985018452909152902054600160401b90046001600160c01b03165b6001600160c01b0316949350505050565b60008142116115f6576040517f83aace3d00000000000000000000000000000000000000000000000000000000815260040160405180910390fd5b6001600160a01b03841660009081526005602090815260408083208684529091528120549081900361162c576000915050610c12565b6001600160a01b038516600090815260066020908152604080832087845282528083206000198501845290915290205467ffffffffffffffff1683106116b4576001600160a01b03851660009081526006602090815260408083208784528252808320600019909401835292905220546001600160c01b03600160401b909104169050610c12565b6001600160a01b0385166000908152600660209081526040808320878452825280832083805290915290205467ffffffffffffffff168310156116fb576000915050610c12565b600060001982015b818111156117b9576001600160a01b0387166000908152600660209081526040808320898452825280832060028686030485038085529083529281902081518083019092525467ffffffffffffffff8116808352600160401b9091046001600160c01b0316928201929092529087900361179057602001516001600160c01b03169450610c129350505050565b805167ffffffffffffffff168711156117ab578193506117b2565b6001820392505b5050611703565b506001600160a01b038616600090815260066020908152604080832088845282528083209383529290522054600160401b90046001600160c01b03169150509392505050565b33301480159061181f5750336000908152600a602052604090205460ff16155b801561183b57503360009081526009602052604090205460ff16155b1561185957604051633d83866f60e01b815260040160405180910390fd5b8061186357600080fd5b6000805260036020527f3617319a054d772f909f7c479a2cebe5066e836a939412e32403c99029b92eff5467ffffffffffffffff821611156118b857604051631534858160e01b815260040160405180910390fd5b600780547fffffffffffffffffffffffffffffffff0000000000000000ffffffffffffffff16600160401b67ffffffffffffffff84169081029190911790915560405190815233907f54e7ed672a68dee1fe4f4da8b306a8318894dd65c07123309467447ed34b1aa19060200160405180910390a250565b60008061193b611077565b600754604051611984917f93a4f3ad100766ac785e9e2986ae4f906eea3a67ef943c27112979356b418b35918d918d918d918d918d9167ffffffffffffffff1690602001613a51565b604051602081830303815290604052805190602001206040516020016119dc9291907f190100000000000000000000000000000000000000000000000000000000000081526002810192909252602282015260420190565b60408051808303601f190181529190528051602090910120600754909150600090600160401b900467ffffffffffffffff16815b81811015611cdd576000600185898985818110611a2f57611a2f613631565b611a459260206060909202019081019150613aab565b8a8a86818110611a5757611a57613631565b905060600201602001358b8b87818110611a7357611a73613631565b9050606002016040013560405160008152602001604052604051611ab3949392919093845260ff9290921660208401526040830152606082015260800190565b6020604051602081039080840390855afa158015611ad5573d6000803e3d6000fd5b5050604051601f1901519150506001600160a01b0381163b15611c60577f1626ba7e000000000000000000000000000000000000000000000000000000006001600160a01b038216631626ba7e878b8b87818110611b3557611b35613631565b905060600201602001358c8c88818110611b5157611b51613631565b905060600201604001358d8d89818110611b6d57611b6d613631565b611b839260206060909202019081019150613aab565b604051602001611bcb93929190928352602083019190915260f81b7fff0000000000000000000000000000000000000000000000000000000000000016604082015260410190565b6040516020818303038152906040526040518363ffffffff1660e01b8152600401611bf7929190613ace565b602060405180830381865afa158015611c14573d6000803e3d6000fd5b505050506040513d601f19601f82011682018060405250810190611c3891906139e5565b6001600160e01b03191614611c6057604051633ba7c2c960e21b815260040160405180910390fd5b6001600160a01b0381166000908152602081815260408083208380529091528120549003611ca157604051633ba7c2c960e21b815260040160405180910390fd5b806001600160a01b0316846001600160a01b031610611cd357604051633ba7c2c960e21b815260040160405180910390fd5b9250600101611a10565b50611d208b8b8b8b8b8080601f01602080910402602001604051908101604052809392919081815260200183838082843760009201919091525061267e92505050565b9b9a5050505050505050505050565b3360008181526001602090815260408083206001600160a01b03871680855290835292819020805460ff191686151590811790915590519081529192917f17307eab39ab6107e8899845ad3d59bd9653f200f220920489ca2b5937696c319101610ccf565b60608167ffffffffffffffff811115611daf57611daf61361b565b604051908082528060200260200182016040528015611de257816020015b6060815260200190600190039081611dcd5790505b50905060005b82811015610a145760008030868685818110611e0657611e06613631565b9050602002810190611e189190613682565b604051611e26929190613ae7565b600060405180830381855af49150503d8060008114611e61576040519150601f19603f3d011682016040523d82523d6000602084013e611e66565b606091505b509150915081611ed557604481511015611e7f57600080fd5b60048101905080806020019051810190611e9991906136fd565b6040517f08c379a0000000000000000000000000000000000000000000000000000000008152600401611ecc9190613031565b60405180910390fd5b80848481518110611ee857611ee8613631565b60209081029190910101525050600101611de8565b333014801590611f1d5750336000908152600a602052604090205460ff16155b8015611f3957503360009081526009602052604090205460ff16155b15611f5757604051633d83866f60e01b815260040160405180910390fd5b6001600160a01b038116600081815260208181526040808320838052825280832080546001908101909155600383527f3617319a054d772f909f7c479a2cebe5066e836a939412e32403c99029b92eff80548201905581518481529283015233917fc3d58168c5ae7397731d063d5bbf3d657854427343f4c083240f7aacaa2d0f629101611448565b60075467ffffffffffffffff1615612024576040517fb2c6f10f00000000000000000000000000000000000000000000000000000000815260040160405180910390fd5b8061202e57600080fd5b8181111561204f57604051631534858160e01b815260040160405180910390fd5b831561210f5760005b8481101561210d5761210486868381811061207557612075613631565b90506020028101906120879190613647565b612095906020810190613667565b8787848181106120a7576120a7613631565b90506020028101906120b99190613647565b6120ca906040810190602001613339565b8888858181106120dc576120dc613631565b90506020028101906120ee9190613647565b6040013589898681811061099057610990613631565b50600101612058565b505b6000806000805b858110156121eb5786868281811061213057612130613631565b90506020020160208101906121459190613339565b9350836001600160a01b0316836001600160a01b03161061217957604051633ba7c2c960e21b815260040160405180910390fd5b6001600160a01b038416600081815260208181526040808320838052825280832080546001908101909155815184815292830181905281518998509681019695019433927fc3d58168c5ae7397731d063d5bbf3d657854427343f4c083240f7aacaa2d0f6292908290030190a4612116565b506007805467ffffffffffffffff8616600160401b027fffffffffffffffffffffffffffffffff000000000000000000000000000000009091161760011790556000805260036020526fffffffffffffffffffffffffffffffff81167f3617319a054d772f909f7c479a2cebe5066e836a939412e32403c99029b92eff55612327604080518082018252600881526725b0b634a1b63ab160c11b60209182015281517f8b73c3c69bb8fe3d512ecc4cf759cc79239f7b179b0ffacaa9a75d522b39400f818301527f5b5b1483404ac93e4d9b025a8feb4c5ea9304085ab2e513c578af4cec7eb5319818401527fc89efdaa54c0f20c7adf612882df0950f5a951637e0307cdcb4c672f298b8bc660608201524660808201523060a0808301919091528351808303909101815260c0909101909252815191012090565b6008555050505050505050565b336001600160a01b0387161480159061237157506001600160a01b038616600090815260016020908152604080832033845290915290205460ff16155b1561238f57604051633d83866f60e01b815260040160405180910390fd5b60008481526002602052604090205460ff166123be57604051634f8cca5b60e11b815260040160405180910390fd5b6001600160a01b038616600090815260208181526040808320878452909152812080548592906123ef908490613903565b90915550506001600160a01b038581166000818152602081815260408083208984528252918290208054880190558151888152908101879052919289169133917fc3d58168c5ae7397731d063d5bbf3d657854427343f4c083240f7aacaa2d0f62910160405180910390a46001600160a01b0385163b156124f45760405163f23a6e6160e01b808252906001600160a01b0387169063f23a6e61906124a29033908b908a908a908a908a90600401613af7565b602060405180830381865afa1580156124bf573d6000803e3d6000fd5b505050506040513d601f19601f820116820180604052508101906124e391906139e5565b6001600160e01b0319161415612500565b6001600160a01b038516155b1561251e5760405163290802d360e11b815260040160405180910390fd5b8315612542576125426125318786610d8e565b61253b8787610d8e565b86866128a4565b505050505050565b8161255457600080fd5b336001600160a01b0384161480159061259157506001600160a01b038316600090815260016020908152604080832033845290915290205460ff16155b801561259d5750333014155b80156125b95750336000908152600a602052604090205460ff16155b80156125d557503360009081526009602052604090205460ff16155b156125f357604051633d83866f60e01b815260040160405180910390fd5b610ad9838383612b8c565b60006001600160e01b031982167f01ffc9a700000000000000000000000000000000000000000000000000000000148061266157507fd9b67a26000000000000000000000000000000000000000000000000000000006001600160e01b03198316145b8061083a5750506001600160e01b0319166303a24d0760e21b1490565b6007805467ffffffffffffffff8082166001011667ffffffffffffffff199091161790556000808560038111156126b7576126b7613a19565b036127335760008083516020850186885af19050806126e957604051633c47f9b560e21b815260040160405180910390fd5b836001600160a01b03167ffa3c55dc43f5cfdeb2abee243c63ad490db2fee39fd127076ed9e7afa15ad63886858560405161272693929190613b3c565b60405180910390a2610dc4565b600185600381111561274757612747613a19565b0361277857600080835160208501875af49050806126e957604051633c47f9b560e21b815260040160405180910390fd5b600285600381111561278c5761278c613a19565b0361280d57600082516020840185f090506001600160a01b0381166127c457604051633c47f9b560e21b815260040160405180910390fd5b806001600160a01b03167fd187b7c22150909fa5ee0d652f5966e66148500fabe5615b1079e7ef39fe3fb787866040516127ff929190613b6b565b60405180910390a250610dc4565b6000808560601b6bffffffffffffffffffffffff191690508084518560200187f591506001600160a01b03821661285757604051633c47f9b560e21b815260040160405180910390fd5b816001600160a01b03167fd187b7c22150909fa5ee0d652f5966e66148500fabe5615b1079e7ef39fe3fb78887604051612892929190613b6b565b60405180910390a25050949350505050565b826001600160a01b0316846001600160a01b0316141580156128c557508015155b15612a30576001600160a01b03841615612981576001600160a01b03841660009081526005602090815260408083208584529091528120549081810361290c57600061295d565b6001600160a01b038616600090815260066020908152604080832087845290915281209061293b600185613903565b8152602081019190915260400160002054600160401b90046001600160c01b03165b6001600160c01b0316905061297e868584846129798882613903565b612c33565b50505b6001600160a01b03831615612a30576001600160a01b0383166000908152600560209081526040808320858452909152812054908181036129c3576000612a14565b6001600160a01b03851660009081526006602090815260408083208784529091528120906129f2600185613903565b8152602081019190915260400160002054600160401b90046001600160c01b03165b6001600160c01b03169050612542858584846129798882613b86565b50505050565b60008481526003602052604081208054859290612a54908490613b86565b90915550506001600160a01b0385166000818152602081815260408083208884528252808320805488019055805188815291820187905233917fc3d58168c5ae7397731d063d5bbf3d657854427343f4c083240f7aacaa2d0f62910160405180910390a46001600160a01b0385163b15612b535760405163f23a6e6160e01b808252906001600160a01b0387169063f23a6e6190612b019033906000908a908a908a908a90600401613af7565b602060405180830381865afa158015612b1e573d6000803e3d6000fd5b505050506040513d601f19601f82011682018060405250810190612b4291906139e5565b6001600160e01b0319161415612b5f565b6001600160a01b038516155b15612b7d5760405163290802d360e11b815260040160405180910390fd5b611530600061253b8787610d8e565b6001600160a01b03831660009081526020818152604080832085845290915281208054839290612bbd908490613903565b909155505060008281526003602090815260408083208054859003905580518581529182018490526001600160a01b0386169133917fc3d58168c5ae7397731d063d5bbf3d657854427343f4c083240f7aacaa2d0f62910160405180910390a4610ad9612c2a8484610d8e565b600084846128a4565b6000612c3e42612dd7565b90508315801590612c8a57506001600160a01b038616600090815260066020908152604080832088845282528083206000198801845290915290205467ffffffffffffffff8281169116145b15612cf257612c9882612e1b565b6001600160a01b0387166000908152600660209081526040808320898452825280832060001989018452909152902080546001600160c01b0392909216600160401b0267ffffffffffffffff909216919091179055612d89565b60405180604001604052808267ffffffffffffffff168152602001612d1684612e1b565b6001600160c01b039081169091526001600160a01b03881660008181526006602090815260408083208b845282528083208a84528252808320865196830151909516600160401b0267ffffffffffffffff9096169590951790935590815260058252828120888252909152206001850190555b50604080518381526020810183905285916001600160a01b038816917f21a99d51b8a0a2e2ead709843a1ecfaab977908135cf1c085c0a6246eea6e0f0910160405180910390a35050505050565b6000600160401b821115612e17576040517f5b7f254e00000000000000000000000000000000000000000000000000000000815260040160405180910390fd5b5090565b60007801000000000000000000000000000000000000000000000000821115612e17576040517fd5e0d1b200000000000000000000000000000000000000000000000000000000815260040160405180910390fd5b80356001600160a01b0381168114612e8757600080fd5b919050565b60008060408385031215612e9f57600080fd5b612ea883612e70565b946020939093013593505050565b6001600160e01b031981168114612ecc57600080fd5b50565b600060208284031215612ee157600080fd5b8135610c1281612eb6565b60008083601f840112612efe57600080fd5b50813567ffffffffffffffff811115612f1657600080fd5b6020830191508360208260051b8501011115612f3157600080fd5b9250929050565b60008060208385031215612f4b57600080fd5b823567ffffffffffffffff811115612f6257600080fd5b612f6e85828601612eec565b90969095509350505050565b6020808252825182820181905260009190848201906040850190845b81811015612fb4578351151583529284019291840191600101612f96565b50909695505050505050565b600060208284031215612fd257600080fd5b5035919050565b60005b83811015612ff4578181015183820152602001612fdc565b83811115612a305750506000910152565b6000815180845261301d816020860160208601612fd9565b601f01601f19169290920160200192915050565b602081526000610c126020830184613005565b60008083601f84011261305657600080fd5b50813567ffffffffffffffff81111561306e57600080fd5b602083019150836020828501011115612f3157600080fd5b60008060008060006080868803121561309e57600080fd5b6130a786612e70565b94506130b560208701612e70565b935060408601359250606086013567ffffffffffffffff8111156130d857600080fd5b6130e488828901613044565b969995985093965092949392505050565b80358015158114612e8757600080fd5b6000806040838503121561311857600080fd5b61312183612e70565b915061312f602084016130f5565b90509250929050565b60008060006040848603121561314d57600080fd5b83359250602084013567ffffffffffffffff81111561316b57600080fd5b61317786828701613044565b9497909650939450505050565b60008060008060008060008060a0898b0312156131a057600080fd5b6131a989612e70565b97506131b760208a01612e70565b9650604089013567ffffffffffffffff808211156131d457600080fd5b6131e08c838d01612eec565b909850965060608b01359150808211156131f957600080fd5b6132058c838d01612eec565b909650945060808b013591508082111561321e57600080fd5b5061322b8b828c01613044565b999c989b5096995094979396929594505050565b60008060006060848603121561325457600080fd5b61325d84612e70565b95602085013595506040909401359392505050565b6000806000806040858703121561328857600080fd5b843567ffffffffffffffff808211156132a057600080fd5b6132ac88838901612eec565b909650945060208701359150808211156132c557600080fd5b506132d287828801612eec565b95989497509550505050565b6020808252825182820181905260009190848201906040850190845b81811015612fb4578351835292840192918401916001016132fa565b6000806040838503121561332957600080fd5b8235915061312f602084016130f5565b60006020828403121561334b57600080fd5b610c1282612e70565b60008060008060006080868803121561336c57600080fd5b61337586612e70565b94506020860135935060408601359250606086013567ffffffffffffffff8111156130d857600080fd5b6000602082840312156133b157600080fd5b813567ffffffffffffffff81168114610c1257600080fd5b803560048110612e8757600080fd5b600080600080600080600060a0888a0312156133f357600080fd5b6133fc886133c9565b965061340a60208901612e70565b955060408801359450606088013567ffffffffffffffff8082111561342e57600080fd5b61343a8b838c01613044565b909650945060808a013591508082111561345357600080fd5b818a0191508a601f83011261346757600080fd5b81358181111561347657600080fd5b8b602060608302850101111561348b57600080fd5b60208301945080935050505092959891949750929550565b6000602080830181845280855180835260408601915060408160051b870101925083870160005b828110156134f857603f198886030184526134e6858351613005565b945092850192908501906001016134ca565b5092979650505050505050565b60008060008060006060868803121561351d57600080fd5b853567ffffffffffffffff8082111561353557600080fd5b61354189838a01612eec565b9097509550602088013591508082111561355a57600080fd5b5061356788828901612eec565b96999598509660400135949350505050565b6000806040838503121561358c57600080fd5b61359583612e70565b915061312f60208401612e70565b60008060008060008060a087890312156135bc57600080fd5b6135c587612e70565b95506135d360208801612e70565b94506040870135935060608701359250608087013567ffffffffffffffff8111156135fd57600080fd5b61360989828a01613044565b979a9699509497509295939492505050565b634e487b7160e01b600052604160045260246000fd5b634e487b7160e01b600052603260045260246000fd5b60008235607e1983360301811261365d57600080fd5b9190910192915050565b60006020828403121561367957600080fd5b610c12826133c9565b6000808335601e1984360301811261369957600080fd5b83018035915067ffffffffffffffff8211156136b457600080fd5b602001915036819003821315612f3157600080fd5b600181811c908216806136dd57607f821691505b602082108103610c1957634e487b7160e01b600052602260045260246000fd5b60006020828403121561370f57600080fd5b815167ffffffffffffffff8082111561372757600080fd5b818401915084601f83011261373b57600080fd5b81518181111561374d5761374d61361b565b604051601f8201601f19908116603f011681019083821181831017156137755761377561361b565b8160405282815287602084870101111561378e57600080fd5b61379f836020830160208801612fd9565b979650505050505050565b601f821115610ad957600081815260208120601f850160051c810160208610156137d15750805b601f850160051c820191505b81811015612542578281556001016137dd565b67ffffffffffffffff8311156138085761380861361b565b61381c8361381683546136c9565b836137aa565b6000601f84116001811461385057600085156138385750838201355b600019600387901b1c1916600186901b178355611530565b600083815260209020601f19861690835b828110156138815786850135825560209485019460019092019101613861565b508682101561389e5760001960f88860031b161c19848701351681555b505060018560011b0183555050505050565b81835281816020850137506000828201602090810191909152601f909101601f19169091010190565b602081526000610dc46020830184866138b0565b634e487b7160e01b600052601160045260246000fd5b600082821015613915576139156138ed565b500390565b81835260007f07ffffffffffffffffffffffffffffffffffffffffffffffffffffffffffffff83111561394c57600080fd5b8260051b8083602087013760009401602001938452509192915050565b60408152600061397d60408301868861391a565b828103602084015261379f81858761391a565b60006001600160a01b03808b168352808a1660208401525060a060408301526139bd60a08301888a61391a565b82810360608401526139d081878961391a565b90508281036080840152611d208185876138b0565b6000602082840312156139f757600080fd5b8151610c1281612eb6565b600081613a1157613a116138ed565b506000190190565b634e487b7160e01b600052602160045260246000fd5b60048110613a4d57634e487b7160e01b600052602160045260246000fd5b9052565b878152613a616020820188613a2f565b6001600160a01b038616604082015284606082015260c060808201526000613a8d60c0830185876138b0565b905067ffffffffffffffff831660a083015298975050505050505050565b600060208284031215613abd57600080fd5b813560ff81168114610c1257600080fd5b828152604060208201526000610dc46040830184613005565b8183823760009101908152919050565b60006001600160a01b03808916835280881660208401525085604083015284606083015260a06080830152613b3060a0830184866138b0565b98975050505050505050565b613b468185613a2f565b826020820152606060408201526000613b626060830184613005565b95945050505050565b60408101613b798285613a2f565b8260208301529392505050565b60008219821115613b9957613b996138ed565b50019056fea2646970667358221220800e4665d0717596cdd475126ca8f7333819a9bde921c50e79a9fefcb58b76af64736f6c634300080f0033",
    "linkReferences": {}
  }
}