{
  "abi": [
    {
      "inputs": [
        {
          "internalType": "contract KaliClub",
          "name": "_uriFetcher",
          "type": "address"
        }
      ],
      "stateMutability": "payable",
      "type": "constructor"
    },
    {
      "inputs": [],
      "name": "AlreadyInit",
      "type": "error"
    },
    {
      "inputs": [],
      "name": "AlreadyMinted",
      "type": "error"
    },
    {
      "inputs": [],
      "name": "ExecuteFailed",
      "type": "error"
    },
    {
      "inputs": [],
      "name": "Forbidden",
      "type": "error"
    },
    {
      "inputs": [],
      "name": "InvalidRecipient",
      "type": "error"
    },
    {
      "inputs": [],
      "name": "InvalidSig",
      "type": "error"
    },
    {
      "inputs": [],
      "name": "NotMinted",
      "type": "error"
    },
    {
      "inputs": [],
      "name": "NotOwner",
      "type": "error"
    },
    {
      "inputs": [],
      "name": "Paused",
      "type": "error"
    },
    {
      "inputs": [],
      "name": "QuorumOverSigs",
      "type": "error"
    },
    {
      "anonymous": false,
      "inputs": [
        {
          "indexed": true,
          "internalType": "address",
          "name": "owner",
          "type": "address"
        },
        {
          "indexed": true,
          "internalType": "address",
          "name": "spender",
          "type": "address"
        },
        {
          "indexed": true,
          "internalType": "uint256",
          "name": "id",
          "type": "uint256"
        }
      ],
      "name": "Approval",
      "type": "event"
    },
    {
      "anonymous": false,
      "inputs": [
        {
          "indexed": true,
          "internalType": "address",
          "name": "owner",
          "type": "address"
        },
        {
          "indexed": true,
          "internalType": "address",
          "name": "operator",
          "type": "address"
        },
        {
          "indexed": false,
          "internalType": "bool",
          "name": "approved",
          "type": "bool"
        }
      ],
      "name": "ApprovalForAll",
      "type": "event"
    },
    {
      "anonymous": false,
      "inputs": [
        {
          "indexed": false,
          "internalType": "enum Operation",
          "name": "op",
          "type": "uint8"
        },
        {
          "indexed": true,
          "internalType": "address",
          "name": "to",
          "type": "address"
        },
        {
          "indexed": false,
          "internalType": "uint256",
          "name": "value",
          "type": "uint256"
        },
        {
          "indexed": false,
          "internalType": "bytes",
          "name": "data",
          "type": "bytes"
        }
      ],
      "name": "Execute",
      "type": "event"
    },
    {
      "anonymous": false,
      "inputs": [
        {
          "components": [
            {
              "internalType": "bool",
              "name": "mint",
              "type": "bool"
            },
            {
              "internalType": "address",
              "name": "signer",
              "type": "address"
            },
            {
              "internalType": "uint256",
              "name": "id",
              "type": "uint256"
            }
          ],
          "indexed": false,
          "internalType": "struct IMember.Member[]",
          "name": "members",
          "type": "tuple[]"
        },
        {
          "indexed": false,
          "internalType": "uint256",
          "name": "threshold",
          "type": "uint256"
        }
      ],
      "name": "Govern",
      "type": "event"
    },
    {
      "anonymous": false,
      "inputs": [
        {
          "indexed": true,
          "internalType": "address",
          "name": "account",
          "type": "address"
        },
        {
          "indexed": false,
          "internalType": "bool",
          "name": "approve",
          "type": "bool"
        }
      ],
      "name": "GovernanceSet",
      "type": "event"
    },
    {
      "anonymous": false,
      "inputs": [
        {
          "indexed": false,
          "internalType": "bool",
          "name": "paused",
          "type": "bool"
        }
      ],
      "name": "PauseSet",
      "type": "event"
    },
    {
      "anonymous": false,
      "inputs": [
        {
          "indexed": true,
          "internalType": "address",
          "name": "from",
          "type": "address"
        },
        {
          "indexed": true,
          "internalType": "address",
          "name": "to",
          "type": "address"
        },
        {
          "indexed": true,
          "internalType": "uint256",
          "name": "id",
          "type": "uint256"
        }
      ],
      "name": "Transfer",
      "type": "event"
    },
    {
      "anonymous": false,
      "inputs": [
        {
          "indexed": false,
          "internalType": "string",
          "name": "baseURI",
          "type": "string"
        }
      ],
      "name": "URIset",
      "type": "event"
    },
    {
      "inputs": [],
      "name": "DOMAIN_SEPARATOR",
      "outputs": [
        {
          "internalType": "bytes32",
          "name": "",
          "type": "bytes32"
        }
      ],
      "stateMutability": "view",
      "type": "function"
    },
    {
      "inputs": [
        {
          "internalType": "address",
          "name": "spender",
          "type": "address"
        },
        {
          "internalType": "uint256",
          "name": "id",
          "type": "uint256"
        }
      ],
      "name": "approve",
      "outputs": [],
      "stateMutability": "payable",
      "type": "function"
    },
    {
      "inputs": [
        {
          "internalType": "address",
          "name": "",
          "type": "address"
        }
      ],
      "name": "balanceOf",
      "outputs": [
        {
          "internalType": "uint256",
          "name": "",
          "type": "uint256"
        }
      ],
      "stateMutability": "view",
      "type": "function"
    },
    {
      "inputs": [
        {
          "components": [
            {
              "internalType": "enum Operation",
              "name": "op",
              "type": "uint8"
            },
            {
              "internalType": "address",
              "name": "to",
              "type": "address"
            },
            {
              "internalType": "uint256",
              "name": "value",
              "type": "uint256"
            },
            {
              "internalType": "bytes",
              "name": "data",
              "type": "bytes"
            }
          ],
          "internalType": "struct Call[]",
          "name": "calls",
          "type": "tuple[]"
        }
      ],
      "name": "batchExecute",
      "outputs": [
        {
          "internalType": "bool[]",
          "name": "successes",
          "type": "bool[]"
        }
      ],
      "stateMutability": "payable",
      "type": "function"
    },
    {
      "inputs": [
        {
          "internalType": "enum Operation",
          "name": "op",
          "type": "uint8"
        },
        {
          "internalType": "address",
          "name": "to",
          "type": "address"
        },
        {
          "internalType": "uint256",
          "name": "value",
          "type": "uint256"
        },
        {
          "internalType": "bytes",
          "name": "data",
          "type": "bytes"
        },
        {
          "components": [
            {
              "internalType": "uint8",
              "name": "v",
              "type": "uint8"
            },
            {
              "internalType": "bytes32",
              "name": "r",
              "type": "bytes32"
            },
            {
              "internalType": "bytes32",
              "name": "s",
              "type": "bytes32"
            }
          ],
          "internalType": "struct Signature[]",
          "name": "sigs",
          "type": "tuple[]"
        }
      ],
      "name": "execute",
      "outputs": [
        {
          "internalType": "bool",
          "name": "success",
          "type": "bool"
        }
      ],
      "stateMutability": "payable",
      "type": "function"
    },
    {
      "inputs": [
        {
          "internalType": "uint256",
          "name": "",
          "type": "uint256"
        }
      ],
      "name": "getApproved",
      "outputs": [
        {
          "internalType": "address",
          "name": "",
          "type": "address"
        }
      ],
      "stateMutability": "view",
      "type": "function"
    },
    {
      "inputs": [
        {
          "internalType": "enum Operation",
          "name": "op",
          "type": "uint8"
        },
        {
          "internalType": "address",
          "name": "to",
          "type": "address"
        },
        {
          "internalType": "uint256",
          "name": "value",
          "type": "uint256"
        },
        {
          "internalType": "bytes",
          "name": "data",
          "type": "bytes"
        },
        {
          "internalType": "uint256",
          "name": "txNonce",
          "type": "uint256"
        }
      ],
      "name": "getDigest",
      "outputs": [
        {
          "internalType": "bytes32",
          "name": "",
          "type": "bytes32"
        }
      ],
      "stateMutability": "view",
      "type": "function"
    },
    {
      "inputs": [
        {
          "components": [
            {
              "internalType": "bool",
              "name": "mint",
              "type": "bool"
            },
            {
              "internalType": "address",
              "name": "signer",
              "type": "address"
            },
            {
              "internalType": "uint256",
              "name": "id",
              "type": "uint256"
            }
          ],
          "internalType": "struct IMember.Member[]",
          "name": "members",
          "type": "tuple[]"
        },
        {
          "internalType": "uint256",
          "name": "threshold",
          "type": "uint256"
        }
      ],
      "name": "govern",
      "outputs": [],
      "stateMutability": "payable",
      "type": "function"
    },
    {
      "inputs": [
        {
          "internalType": "address",
          "name": "",
          "type": "address"
        }
      ],
      "name": "governance",
      "outputs": [
        {
          "internalType": "bool",
          "name": "",
          "type": "bool"
        }
      ],
      "stateMutability": "view",
      "type": "function"
    },
    {
      "inputs": [
        {
          "components": [
            {
              "internalType": "enum Operation",
              "name": "op",
              "type": "uint8"
            },
            {
              "internalType": "address",
              "name": "to",
              "type": "address"
            },
            {
              "internalType": "uint256",
              "name": "value",
              "type": "uint256"
            },
            {
              "internalType": "bytes",
              "name": "data",
              "type": "bytes"
            }
          ],
          "internalType": "struct Call[]",
          "name": "calls",
          "type": "tuple[]"
        },
        {
          "components": [
            {
              "internalType": "bool",
              "name": "mint",
              "type": "bool"
            },
            {
              "internalType": "address",
              "name": "signer",
              "type": "address"
            },
            {
              "internalType": "uint256",
              "name": "id",
              "type": "uint256"
            }
          ],
          "internalType": "struct IMember.Member[]",
          "name": "members",
          "type": "tuple[]"
        },
        {
          "internalType": "uint256",
          "name": "threshold",
          "type": "uint256"
        },
        {
          "internalType": "bool",
          "name": "paused",
          "type": "bool"
        },
        {
          "internalType": "string",
          "name": "uri",
          "type": "string"
        }
      ],
      "name": "init",
      "outputs": [],
      "stateMutability": "payable",
      "type": "function"
    },
    {
      "inputs": [
        {
          "internalType": "address",
          "name": "",
          "type": "address"
        },
        {
          "internalType": "address",
          "name": "",
          "type": "address"
        }
      ],
      "name": "isApprovedForAll",
      "outputs": [
        {
          "internalType": "bool",
          "name": "",
          "type": "bool"
        }
      ],
      "stateMutability": "view",
      "type": "function"
    },
    {
      "inputs": [
        {
          "internalType": "bytes[]",
          "name": "data",
          "type": "bytes[]"
        }
      ],
      "name": "multicall",
      "outputs": [
        {
          "internalType": "bytes[]",
          "name": "results",
          "type": "bytes[]"
        }
      ],
      "stateMutability": "payable",
      "type": "function"
    },
    {
      "inputs": [],
      "name": "name",
      "outputs": [
        {
          "internalType": "string",
          "name": "",
          "type": "string"
        }
      ],
      "stateMutability": "pure",
      "type": "function"
    },
    {
      "inputs": [],
      "name": "nonce",
      "outputs": [
        {
          "internalType": "uint64",
          "name": "",
          "type": "uint64"
        }
      ],
      "stateMutability": "view",
      "type": "function"
    },
    {
      "inputs": [
        {
          "internalType": "address",
          "name": "",
          "type": "address"
        },
        {
          "internalType": "address",
          "name": "",
          "type": "address"
        },
        {
          "internalType": "uint256[]",
          "name": "",
          "type": "uint256[]"
        },
        {
          "internalType": "uint256[]",
          "name": "",
          "type": "uint256[]"
        },
        {
          "internalType": "bytes",
          "name": "",
          "type": "bytes"
        }
      ],
      "name": "onERC1155BatchReceived",
      "outputs": [
        {
          "internalType": "bytes4",
          "name": "",
          "type": "bytes4"
        }
      ],
      "stateMutability": "pure",
      "type": "function"
    },
    {
      "inputs": [
        {
          "internalType": "address",
          "name": "",
          "type": "address"
        },
        {
          "internalType": "address",
          "name": "",
          "type": "address"
        },
        {
          "internalType": "uint256",
          "name": "",
          "type": "uint256"
        },
        {
          "internalType": "uint256",
          "name": "",
          "type": "uint256"
        },
        {
          "internalType": "bytes",
          "name": "",
          "type": "bytes"
        }
      ],
      "name": "onERC1155Received",
      "outputs": [
        {
          "internalType": "bytes4",
          "name": "",
          "type": "bytes4"
        }
      ],
      "stateMutability": "pure",
      "type": "function"
    },
    {
      "inputs": [
        {
          "internalType": "address",
          "name": "",
          "type": "address"
        },
        {
          "internalType": "address",
          "name": "",
          "type": "address"
        },
        {
          "internalType": "uint256",
          "name": "",
          "type": "uint256"
        },
        {
          "internalType": "bytes",
          "name": "",
          "type": "bytes"
        }
      ],
      "name": "onERC721Received",
      "outputs": [
        {
          "internalType": "bytes4",
          "name": "",
          "type": "bytes4"
        }
      ],
      "stateMutability": "pure",
      "type": "function"
    },
    {
      "inputs": [
        {
          "internalType": "uint256",
          "name": "",
          "type": "uint256"
        }
      ],
      "name": "ownerOf",
      "outputs": [
        {
          "internalType": "address",
          "name": "",
          "type": "address"
        }
      ],
      "stateMutability": "view",
      "type": "function"
    },
    {
      "inputs": [],
      "name": "paused",
      "outputs": [
        {
          "internalType": "bool",
          "name": "",
          "type": "bool"
        }
      ],
      "stateMutability": "view",
      "type": "function"
    },
    {
      "inputs": [],
      "name": "quorum",
      "outputs": [
        {
          "internalType": "uint64",
          "name": "",
          "type": "uint64"
        }
      ],
      "stateMutability": "view",
      "type": "function"
    },
    {
      "inputs": [
        {
          "internalType": "address",
          "name": "from",
          "type": "address"
        },
        {
          "internalType": "address",
          "name": "to",
          "type": "address"
        },
        {
          "internalType": "uint256",
          "name": "id",
          "type": "uint256"
        }
      ],
      "name": "safeTransferFrom",
      "outputs": [],
      "stateMutability": "payable",
      "type": "function"
    },
    {
      "inputs": [
        {
          "internalType": "address",
          "name": "from",
          "type": "address"
        },
        {
          "internalType": "address",
          "name": "to",
          "type": "address"
        },
        {
          "internalType": "uint256",
          "name": "id",
          "type": "uint256"
        },
        {
          "internalType": "bytes",
          "name": "data",
          "type": "bytes"
        }
      ],
      "name": "safeTransferFrom",
      "outputs": [],
      "stateMutability": "payable",
      "type": "function"
    },
    {
      "inputs": [
        {
          "internalType": "address",
          "name": "operator",
          "type": "address"
        },
        {
          "internalType": "bool",
          "name": "approved",
          "type": "bool"
        }
      ],
      "name": "setApprovalForAll",
      "outputs": [],
      "stateMutability": "payable",
      "type": "function"
    },
    {
      "inputs": [
        {
          "internalType": "string",
          "name": "uri",
          "type": "string"
        }
      ],
      "name": "setBaseURI",
      "outputs": [],
      "stateMutability": "payable",
      "type": "function"
    },
    {
      "inputs": [
        {
          "internalType": "address",
          "name": "account",
          "type": "address"
        },
        {
          "internalType": "bool",
          "name": "approve",
          "type": "bool"
        }
      ],
      "name": "setGovernance",
      "outputs": [],
      "stateMutability": "payable",
      "type": "function"
    },
    {
      "inputs": [
        {
          "internalType": "bool",
          "name": "pause",
          "type": "bool"
        }
      ],
      "name": "setPause",
      "outputs": [],
      "stateMutability": "payable",
      "type": "function"
    },
    {
      "inputs": [
        {
          "internalType": "bytes4",
          "name": "interfaceId",
          "type": "bytes4"
        }
      ],
      "name": "supportsInterface",
      "outputs": [
        {
          "internalType": "bool",
          "name": "",
          "type": "bool"
        }
      ],
      "stateMutability": "pure",
      "type": "function"
    },
    {
      "inputs": [],
      "name": "symbol",
      "outputs": [
        {
          "internalType": "string",
          "name": "",
          "type": "string"
        }
      ],
      "stateMutability": "pure",
      "type": "function"
    },
    {
      "inputs": [
        {
          "internalType": "uint256",
          "name": "id",
          "type": "uint256"
        }
      ],
      "name": "tokenURI",
      "outputs": [
        {
          "internalType": "string",
          "name": "",
          "type": "string"
        }
      ],
      "stateMutability": "view",
      "type": "function"
    },
    {
      "inputs": [],
      "name": "totalSupply",
      "outputs": [
        {
          "internalType": "uint64",
          "name": "",
          "type": "uint64"
        }
      ],
      "stateMutability": "view",
      "type": "function"
    },
    {
      "inputs": [
        {
          "internalType": "address",
          "name": "from",
          "type": "address"
        },
        {
          "internalType": "address",
          "name": "to",
          "type": "address"
        },
        {
          "internalType": "uint256",
          "name": "id",
          "type": "uint256"
        }
      ],
      "name": "transferFrom",
      "outputs": [],
      "stateMutability": "payable",
      "type": "function"
    }
  ],
  "bytecode": {
    "object": "0x60a060405260405162002c9d38038062002c9d833981016040819052620000269162000038565b6001600160a01b03166080526200006a565b6000602082840312156200004b57600080fd5b81516001600160a01b03811681146200006357600080fd5b9392505050565b608051612c176200008660003960006116df0152612c176000f3fe6080604052600436106101d85760003560e01c806370a0823111610102578063bc197c8111610095578063ce2c529211610064578063ce2c5292146105a3578063d4606ab9146105b6578063e985e9c5146105d6578063f23a6e611461061157600080fd5b8063bc197c8114610515578063bedb86fb1461055d578063c436189414610570578063c87b56dd1461058357600080fd5b8063a22cb465116100d1578063a22cb465146104ae578063ac9650d8146104c1578063affed0e0146104e1578063b88d4fde1461050257600080fd5b806370a08231146104295780638426e6c1146104565780638c995b911461048657806395d89b411461049957600080fd5b80631703a0181161017a57806342842e0e1161014957806342842e0e146103b357806355f804b3146103c65780635c975abb146103d95780636352211e146103f357600080fd5b80631703a0181461030f57806318160ddd1461035557806323b872dd1461037d5780633644e5151461039057600080fd5b8063081812fc116101b6578063081812fc14610254578063095ea7b3146102a2578063150b7a02146102b7578063158a1ca1146102fc57600080fd5b806301ffc9a7146101dd578063023e8d841461021257806306fdde0314610232575b600080fd5b3480156101e957600080fd5b506101fd6101f8366004611fd7565b610657565b60405190151581526020015b60405180910390f35b610225610220366004612047565b6106f4565b6040516102099190612089565b34801561023e57600080fd5b506102476108b3565b604051610209919061212b565b34801561026057600080fd5b5061028a61026f36600461213e565b6002602052600090815260409020546001600160a01b031681565b6040516001600160a01b039091168152602001610209565b6102b56102b036600461216e565b6108e5565b005b3480156102c357600080fd5b506102e36102d23660046121da565b630a85bd0160e11b95945050505050565b6040516001600160e01b03199091168152602001610209565b6102b561030a366004612259565b6109b8565b34801561031b57600080fd5b5060065461033c9068010000000000000000900467ffffffffffffffff1681565b60405167ffffffffffffffff9091168152602001610209565b34801561036157600080fd5b5060065461033c90600160801b900467ffffffffffffffff1681565b6102b561038b36600461228c565b610a55565b34801561039c57600080fd5b506103a5610c24565b604051908152602001610209565b6102b56103c136600461228c565b610c48565b6102b56103d43660046122c8565b610d1b565b3480156103e557600080fd5b506004546101fd9060ff1681565b3480156103ff57600080fd5b5061028a61040e36600461213e565b6001602052600090815260409020546001600160a01b031681565b34801561043557600080fd5b506103a56104443660046122fe565b60006020819052908152604090205481565b34801561046257600080fd5b506101fd6104713660046122fe565b60076020526000908152604090205460ff1681565b6101fd61049436600461236d565b610da4565b3480156104a557600080fd5b506102476110eb565b6102b56104bc366004612259565b6110f7565b6104d46104cf366004612047565b611163565b6040516102099190612408565b3480156104ed57600080fd5b5060065461033c9067ffffffffffffffff1681565b6102b56105103660046121da565b6112cc565b34801561052157600080fd5b506102e361053036600461246a565b7fbc197c810000000000000000000000000000000000000000000000000000000098975050505050505050565b6102b561056b366004612525565b61138f565b6102b561057e366004612540565b6113d9565b34801561058f57600080fd5b5061024761059e36600461213e565b611698565b6102b56105b13660046125d6565b6117ed565b3480156105c257600080fd5b506103a56105d1366004612622565b6119d7565b3480156105e257600080fd5b506101fd6105f1366004612699565b600360209081526000928352604080842090915290825290205460ff1681565b34801561061d57600080fd5b506102e361062c3660046126c3565b7ff23a6e61000000000000000000000000000000000000000000000000000000009695505050505050565b60006001600160e01b031982167f01ffc9a70000000000000000000000000000000000000000000000000000000014806106ba57507f80ac58cd000000000000000000000000000000000000000000000000000000006001600160e01b03198316145b806106ee57507f5b5e139f000000000000000000000000000000000000000000000000000000006001600160e01b03198316145b92915050565b606033301480159061071657503360009081526007602052604090205460ff16155b1561073457604051631dd2188d60e31b815260040160405180910390fd5b8167ffffffffffffffff81111561074d5761074d61273b565b604051908082528060200260200182016040528015610776578160200160208202803683370190505b50905060005b828110156108ac5761088284848381811061079957610799612751565b90506020028101906107ab9190612767565b6107b9906020810190612787565b8585848181106107cb576107cb612751565b90506020028101906107dd9190612767565b6107ee9060408101906020016122fe565b86868581811061080057610800612751565b90506020028101906108129190612767565b6040013587878681811061082857610828612751565b905060200281019061083a9190612767565b6108489060608101906127a2565b8080601f016020809104026020016040519081016040528093929190818152602001838380828437600092019190915250611a9892505050565b82828151811061089457610894612751565b9115156020928302919091019091015260010161077c565b5092915050565b60606108bf6000611c1d565b6040516020016108d191815260200190565b604051602081830303815290604052905090565b6000818152600160205260409020546001600160a01b031633811480159061093157506001600160a01b038116600090815260036020908152604080832033845290915290205460ff16155b1561094f57604051631dd2188d60e31b815260040160405180910390fd5b600082815260026020526040808220805473ffffffffffffffffffffffffffffffffffffffff19166001600160a01b0387811691821790925591518593918516917f8c5be1e5ebec7d5bd14f71427d1e84f3dd0314c0f7b2291e5b200ac8c7c3b92591a4505050565b3330148015906109d857503360009081526007602052604090205460ff16155b156109f657604051631dd2188d60e31b815260040160405180910390fd5b6001600160a01b038216600081815260076020908152604091829020805460ff191685151590811790915591519182527f8499e152ada6edf793c45728f5de7ad407af652eda8b9badba656d14cc150ce8910160405180910390a25050565b60045460ff1615610a92576040517f9e87fac800000000000000000000000000000000000000000000000000000000815260040160405180910390fd5b6000818152600160205260409020546001600160a01b03848116911614610ae5576040517f30cd747100000000000000000000000000000000000000000000000000000000815260040160405180910390fd5b6001600160a01b038216610b0c57604051634e46966960e11b815260040160405180910390fd5b336001600160a01b03841614801590610b3c57506000818152600260205260409020546001600160a01b03163314155b8015610b6c57506001600160a01b038316600090815260036020908152604080832033845290915290205460ff16155b15610b8a57604051631dd2188d60e31b815260040160405180910390fd5b6001600160a01b0380841660008181526020818152604080832080546000190190559386168083528483208054600190810190915586845260028352858420805473ffffffffffffffffffffffffffffffffffffffff199081169091559252848320805490921681179091559251849392917fddf252ad1be2c89b69c2b068fc378daa952ba7f163c4a11628f55a4df523b3ef91a4505050565b6000610c2e611c3f565b4614610c4157610c3c611c63565b905090565b5060085490565b610c53838383610a55565b6001600160a01b0382163b15610d1657604051630a85bd0160e11b8082523360048301526001600160a01b03858116602484015260448301849052608060648401526000608484015290919084169063150b7a029060a4016020604051808303816000875af1158015610cca573d6000803e3d6000fd5b505050506040513d601f19601f82011682018060405250810190610cee91906127e9565b6001600160e01b03191614610d1657604051634e46966960e11b815260040160405180910390fd5b505050565b333014801590610d3b57503360009081526007602052604090205460ff16155b15610d5957604051631dd2188d60e31b815260040160405180910390fd5b6005610d6682848361288e565b507fce29678668382e064e92681c6a47e0a1ccf09464321c9d234842ad54e8c3c3368282604051610d98929190612977565b60405180910390a15050565b6006546000908190610dc9908a908a908a908a908a9067ffffffffffffffff166119d7565b60065490915060009068010000000000000000900467ffffffffffffffff16815b81811015611099576000600185898985818110610e0957610e09612751565b610e1f926020606090920201908101915061298b565b8a8a86818110610e3157610e31612751565b905060600201602001358b8b87818110610e4d57610e4d612751565b9050606002016040013560405160008152602001604052604051610e8d949392919093845260ff9290921660208401526040830152606082015260800190565b6020604051602081039080840390855afa158015610eaf573d6000803e3d6000fd5b5050604051601f1901519150506001600160a01b0381163b1561103a577f1626ba7e000000000000000000000000000000000000000000000000000000006001600160a01b038216631626ba7e878b8b87818110610f0f57610f0f612751565b905060600201602001358c8c88818110610f2b57610f2b612751565b905060600201604001358d8d89818110610f4757610f47612751565b610f5d926020606090920201908101915061298b565b604051602001610fa593929190928352602083019190915260f81b7fff0000000000000000000000000000000000000000000000000000000000000016604082015260410190565b6040516020818303038152906040526040518363ffffffff1660e01b8152600401610fd19291906129ae565b602060405180830381865afa158015610fee573d6000803e3d6000fd5b505050506040513d601f19601f8201168201806040525081019061101291906127e9565b6001600160e01b0319161461103a5760405163c90c66b560e01b815260040160405180910390fd5b6001600160a01b03811660009081526020819052604090205415806110715750806001600160a01b0316846001600160a01b031610155b1561108f5760405163c90c66b560e01b815260040160405180910390fd5b9250600101610dea565b506110dc8b8b8b8b8b8080601f016020809104026020016040519081016040528093929190818152602001838380828437600092019190915250611a9892505050565b9b9a5050505050505050505050565b60606108bf6020611c1d565b3360008181526003602090815260408083206001600160a01b03871680855290835292819020805460ff191686151590811790915590519081529192917f17307eab39ab6107e8899845ad3d59bd9653f200f220920489ca2b5937696c31910160405180910390a35050565b60608167ffffffffffffffff81111561117e5761117e61273b565b6040519080825280602002602001820160405280156111b157816020015b606081526020019060019003908161119c5790505b50905060005b828110156108ac57600080308686858181106111d5576111d5612751565b90506020028101906111e791906127a2565b6040516111f59291906129c7565b600060405180830381855af49150503d8060008114611230576040519150601f19603f3d011682016040523d82523d6000602084013e611235565b606091505b5091509150816112a45760448151101561124e57600080fd5b6004810190508080602001905181019061126891906129d7565b6040517f08c379a000000000000000000000000000000000000000000000000000000000815260040161129b919061212b565b60405180910390fd5b808484815181106112b7576112b7612751565b602090810291909101015250506001016111b7565b6112d7858585610a55565b6001600160a01b0384163b1561138857604051630a85bd0160e11b808252906001600160a01b0386169063150b7a029061131d9033908a90899089908990600401612a84565b6020604051808303816000875af115801561133c573d6000803e3d6000fd5b505050506040513d601f19601f8201168201806040525081019061136091906127e9565b6001600160e01b0319161461138857604051634e46966960e11b815260040160405180910390fd5b5050505050565b3330148015906113af57503360009081526007602052604090205460ff16155b156113cd57604051631dd2188d60e31b815260040160405180910390fd5b6113d681611cf8565b50565b60065467ffffffffffffffff161561141d576040517fef34ca5c00000000000000000000000000000000000000000000000000000000815260040160405180910390fd5b8361142757600080fd5b848411156114485760405163c52342a360e01b815260040160405180910390fd5b86156115085760005b87811015611506576114fd89898381811061146e5761146e612751565b90506020028101906114809190612767565b61148e906020810190612787565b8a8a848181106114a0576114a0612751565b90506020028101906114b29190612767565b6114c39060408101906020016122fe565b8b8b858181106114d5576114d5612751565b90506020028101906114e79190612767565b604001358c8c8681811061082857610828612751565b50600101611451565b505b60008060005b878110156115f75788888281811061152857611528612751565b905060600201602001602081019061154091906122fe565b6001600160a01b0316836001600160a01b0316106115715760405163c90c66b560e01b815260040160405180910390fd5b88888281811061158357611583612751565b905060600201602001602081019061159b91906122fe565b92506115eb8989838181106115b2576115b2612751565b90506060020160200160208101906115ca91906122fe565b8a8a848181106115dc576115dc612751565b90506060020160400135611d3f565b6001918201910161150e565b506006805467ffffffffffffffff838116600160801b027fffffffffffffffff0000000000000000ffffffffffffffffffffffffffffffff918a1668010000000000000000027fffffffffffffffffffffffffffffffff000000000000000000000000000000009093169290921760011716179055821561168157600561167f84868361288e565b505b611689611c63565b60085550505050505050505050565b6060600580546116a790612806565b9050600003611756576040517fc87b56dd000000000000000000000000000000000000000000000000000000008152600481018390527f00000000000000000000000000000000000000000000000000000000000000006001600160a01b03169063c87b56dd90602401600060405180830381865afa15801561172e573d6000803e3d6000fd5b505050506040513d6000823e601f3d908101601f191682016040526106ee91908101906129d7565b6005805461176390612806565b80601f016020809104026020016040519081016040528092919081815260200182805461178f90612806565b80156117dc5780601f106117b1576101008083540402835291602001916117dc565b820191906000526020600020905b8154815290600101906020018083116117bf57829003601f168201915b50505050509050919050565b919050565b33301480159061180d57503360009081526007602052604090205460ff16155b1561182b57604051631dd2188d60e31b815260040160405180910390fd5b8061183557600080fd5b600654600160801b900467ffffffffffffffff1660005b838110156118ff5784848281811061186657611866612751565b61187c9260206060909202019081019150612525565b156118cb576118c085858381811061189657611896612751565b90506060020160200160208101906118ae91906122fe565b8686848181106115dc576115dc612751565b8160010191506118f7565b6118ef8585838181106118e0576118e0612751565b90506060020160400135611eec565b600019909101905b60010161184c565b50808211156119215760405163c52342a360e01b815260040160405180910390fd5b6006805467ffffffffffffffff838116600160801b027fffffffffffffffff0000000000000000ffffffffffffffffffffffffffffffff9186166801000000000000000002919091167fffffffffffffffff00000000000000000000000000000000ffffffffffffffff909216919091171790556040517f0478dd3ba726bc0761f8c7f40b21c297ee28132545658660defb22734b4dd7e1906119c990869086908690612ab7565b60405180910390a150505050565b60006119e1610c24565b7f93a4f3ad100766ac785e9e2986ae4f906eea3a67ef943c27112979356b418b35888888888888604051602001611a1e9796959493929190612b62565b60405160208183030381529060405280519060200120604051602001611a769291907f190100000000000000000000000000000000000000000000000000000000000081526002810192909252602282015260420190565b6040516020818303038152906040528051906020012090509695505050505050565b6006805467ffffffffffffffff8082166001011667ffffffffffffffff19909116179055600080856003811115611ad157611ad1612b2a565b03611b2f5760008083516020850186885af19050836001600160a01b03167f3320f95383c7a282c01492a81e8935982f72c6caa5c311c9cf0f811634c9052c868585604051611b2293929190612bb2565b60405180910390a2611bde565b6001856003811115611b4357611b43612b2a565b03611b9357600080835160208501875af49050836001600160a01b03167f3320f95383c7a282c01492a81e8935982f72c6caa5c311c9cf0f811634c9052c868585604051611b2293929190612bb2565b6002856003811115611ba757611ba7612b2a565b03611bbb5781516020830184f09050611bde565b81516bffffffffffffffffffffffff19606086901b169081906020850186f59150505b80611c15576040517fd6bed87300000000000000000000000000000000000000000000000000000000815260040160405180910390fd5b949350505050565b600080611c34600119368181013560f01c90030190565b929092013592915050565b600080611c56600119368181013560f01c90030190565b6054013560c01c92915050565b60007f8b73c3c69bb8fe3d512ecc4cf759cc79239f7b179b0ffacaa9a75d522b39400f611c8e6108b3565b80516020918201206040805192830193909352918101919091527fc89efdaa54c0f20c7adf612882df0950f5a951637e0307cdcb4c672f298b8bc660608201524660808201523060a082015260c00160405160208183030381529060405280519060200120905090565b6004805460ff19168215159081179091556040519081527f878ac8a2ca79520471f8f3c8494fa802c03ce3bf034252aad7f22318984fdbdb9060200160405180910390a150565b6001600160a01b038216611d6657604051634e46966960e11b815260040160405180910390fd5b6000818152600160205260409020546001600160a01b031615611db5576040517fddefae2800000000000000000000000000000000000000000000000000000000815260040160405180910390fd5b6001600160a01b03821660008181526020818152604080832080546001908101909155858452909152808220805473ffffffffffffffffffffffffffffffffffffffff19168417905551839291907fddf252ad1be2c89b69c2b068fc378daa952ba7f163c4a11628f55a4df523b3ef908290a46001600160a01b0382163b15611ee857604051630a85bd0160e11b80825233600483015260006024830181905260448301849052608060648401526084830152906001600160a01b0384169063150b7a029060a4016020604051808303816000875af1158015611e9c573d6000803e3d6000fd5b505050506040513d601f19601f82011682018060405250810190611ec091906127e9565b6001600160e01b03191614611ee857604051634e46966960e11b815260040160405180910390fd5b5050565b6000818152600160205260409020546001600160a01b031680611f3b576040517f4d5e5fb300000000000000000000000000000000000000000000000000000000815260040160405180910390fd5b6001600160a01b038116600081815260208181526040808320805460001901905585835260018252808320805473ffffffffffffffffffffffffffffffffffffffff1990811690915560029092528083208054909216909155518492907fddf252ad1be2c89b69c2b068fc378daa952ba7f163c4a11628f55a4df523b3ef908390a45050565b6001600160e01b0319811681146113d657600080fd5b600060208284031215611fe957600080fd5b8135611ff481611fc1565b9392505050565b60008083601f84011261200d57600080fd5b50813567ffffffffffffffff81111561202557600080fd5b6020830191508360208260051b850101111561204057600080fd5b9250929050565b6000806020838503121561205a57600080fd5b823567ffffffffffffffff81111561207157600080fd5b61207d85828601611ffb565b90969095509350505050565b6020808252825182820181905260009190848201906040850190845b818110156120c35783511515835292840192918401916001016120a5565b50909695505050505050565b60005b838110156120ea5781810151838201526020016120d2565b838111156120f9576000848401525b50505050565b600081518084526121178160208601602086016120cf565b601f01601f19169290920160200192915050565b602081526000611ff460208301846120ff565b60006020828403121561215057600080fd5b5035919050565b80356001600160a01b03811681146117e857600080fd5b6000806040838503121561218157600080fd5b61218a83612157565b946020939093013593505050565b60008083601f8401126121aa57600080fd5b50813567ffffffffffffffff8111156121c257600080fd5b60208301915083602082850101111561204057600080fd5b6000806000806000608086880312156121f257600080fd5b6121fb86612157565b945061220960208701612157565b935060408601359250606086013567ffffffffffffffff81111561222c57600080fd5b61223888828901612198565b969995985093965092949392505050565b803580151581146117e857600080fd5b6000806040838503121561226c57600080fd5b61227583612157565b915061228360208401612249565b90509250929050565b6000806000606084860312156122a157600080fd5b6122aa84612157565b92506122b860208501612157565b9150604084013590509250925092565b600080602083850312156122db57600080fd5b823567ffffffffffffffff8111156122f257600080fd5b61207d85828601612198565b60006020828403121561231057600080fd5b611ff482612157565b8035600481106117e857600080fd5b60008083601f84011261233a57600080fd5b50813567ffffffffffffffff81111561235257600080fd5b60208301915083602060608302850101111561204057600080fd5b600080600080600080600060a0888a03121561238857600080fd5b61239188612319565b965061239f60208901612157565b955060408801359450606088013567ffffffffffffffff808211156123c357600080fd5b6123cf8b838c01612198565b909650945060808a01359150808211156123e857600080fd5b506123f58a828b01612328565b989b979a50959850939692959293505050565b6000602080830181845280855180835260408601915060408160051b870101925083870160005b8281101561245d57603f1988860301845261244b8583516120ff565b9450928501929085019060010161242f565b5092979650505050505050565b60008060008060008060008060a0898b03121561248657600080fd5b61248f89612157565b975061249d60208a01612157565b9650604089013567ffffffffffffffff808211156124ba57600080fd5b6124c68c838d01611ffb565b909850965060608b01359150808211156124df57600080fd5b6124eb8c838d01611ffb565b909650945060808b013591508082111561250457600080fd5b506125118b828c01612198565b999c989b5096995094979396929594505050565b60006020828403121561253757600080fd5b611ff482612249565b60008060008060008060008060a0898b03121561255c57600080fd5b883567ffffffffffffffff8082111561257457600080fd5b6125808c838d01611ffb565b909a50985060208b013591508082111561259957600080fd5b6125a58c838d01612328565b909850965060408b013595508691506125c060608c01612249565b945060808b013591508082111561250457600080fd5b6000806000604084860312156125eb57600080fd5b833567ffffffffffffffff81111561260257600080fd5b61260e86828701612328565b909790965060209590950135949350505050565b60008060008060008060a0878903121561263b57600080fd5b61264487612319565b955061265260208801612157565b945060408701359350606087013567ffffffffffffffff81111561267557600080fd5b61268189828a01612198565b979a9699509497949695608090950135949350505050565b600080604083850312156126ac57600080fd5b6126b583612157565b915061228360208401612157565b60008060008060008060a087890312156126dc57600080fd5b6126e587612157565b95506126f360208801612157565b94506040870135935060608701359250608087013567ffffffffffffffff81111561271d57600080fd5b61272989828a01612198565b979a9699509497509295939492505050565b634e487b7160e01b600052604160045260246000fd5b634e487b7160e01b600052603260045260246000fd5b60008235607e1983360301811261277d57600080fd5b9190910192915050565b60006020828403121561279957600080fd5b611ff482612319565b6000808335601e198436030181126127b957600080fd5b83018035915067ffffffffffffffff8211156127d457600080fd5b60200191503681900382131561204057600080fd5b6000602082840312156127fb57600080fd5b8151611ff481611fc1565b600181811c9082168061281a57607f821691505b60208210810361283a57634e487b7160e01b600052602260045260246000fd5b50919050565b601f821115610d1657600081815260208120601f850160051c810160208610156128675750805b601f850160051c820191505b8181101561288657828155600101612873565b505050505050565b67ffffffffffffffff8311156128a6576128a661273b565b6128ba836128b48354612806565b83612840565b6000601f8411600181146128ee57600085156128d65750838201355b600019600387901b1c1916600186901b178355611388565b600083815260209020601f19861690835b8281101561291f57868501358255602094850194600190920191016128ff565b508682101561293c5760001960f88860031b161c19848701351681555b505060018560011b0183555050505050565b81835281816020850137506000828201602090810191909152601f909101601f19169091010190565b602081526000611c1560208301848661294e565b60006020828403121561299d57600080fd5b813560ff81168114611ff457600080fd5b828152604060208201526000611c1560408301846120ff565b8183823760009101908152919050565b6000602082840312156129e957600080fd5b815167ffffffffffffffff80821115612a0157600080fd5b818401915084601f830112612a1557600080fd5b815181811115612a2757612a2761273b565b604051601f8201601f19908116603f01168101908382118183101715612a4f57612a4f61273b565b81604052828152876020848701011115612a6857600080fd5b612a798360208301602088016120cf565b979650505050505050565b60006001600160a01b03808816835280871660208401525084604083015260806060830152612a7960808301848661294e565b6040808252818101849052600090606080840187845b88811015612b1457612ade82612249565b1515835260206001600160a01b03612af7828501612157565b169084015281850135858401529183019190830190600101612acd565b5050809350505050826020830152949350505050565b634e487b7160e01b600052602160045260246000fd5b60048110612b5e57634e487b7160e01b600052602160045260246000fd5b9052565b878152612b726020820188612b40565b6001600160a01b038616604082015284606082015260c060808201526000612b9e60c08301858761294e565b90508260a083015298975050505050505050565b612bbc8185612b40565b826020820152606060408201526000612bd860608301846120ff565b9594505050505056fea2646970667358221220609b5ebccedf387886dc1889cc4ceb794883c9ad2e579777744a0fb329b9fa9564736f6c634300080f0033",
    "linkReferences": {}
  }
}