{
  "abi": [
    {
      "inputs": [],
      "name": "ALREADY_INIT",
      "type": "error"
    },
    {
      "inputs": [],
      "name": "EXECUTE_FAILED",
      "type": "error"
    },
    {
      "inputs": [],
      "name": "INVALID_RECIPIENT",
      "type": "error"
    },
    {
      "inputs": [],
      "name": "INVALID_SIG",
      "type": "error"
    },
    {
      "inputs": [],
      "name": "LENGTH_MISMATCH",
      "type": "error"
    },
    {
      "inputs": [],
      "name": "NONTRANSFERABLE",
      "type": "error"
    },
    {
      "inputs": [],
      "name": "NOT_AUTHORIZED",
      "type": "error"
    },
    {
      "inputs": [],
      "name": "QUORUM_OVER_SUPPLY",
      "type": "error"
    },
    {
      "inputs": [],
      "name": "UINT192_MAX",
      "type": "error"
    },
    {
      "inputs": [],
      "name": "UINT64_MAX",
      "type": "error"
    },
    {
      "inputs": [],
      "name": "UNDETERMINED",
      "type": "error"
    },
    {
      "anonymous": false,
      "inputs": [
        {
          "indexed": true,
          "internalType": "address",
          "name": "owner",
          "type": "address"
        },
        {
          "indexed": true,
          "internalType": "address",
          "name": "operator",
          "type": "address"
        },
        {
          "indexed": false,
          "internalType": "bool",
          "name": "approved",
          "type": "bool"
        }
      ],
      "name": "ApprovalForAll",
      "type": "event"
    },
    {
      "anonymous": false,
      "inputs": [
        {
          "indexed": false,
          "internalType": "enum Operation",
          "name": "op",
          "type": "uint8"
        },
        {
          "indexed": true,
          "internalType": "address",
          "name": "creation",
          "type": "address"
        },
        {
          "indexed": false,
          "internalType": "uint256",
          "name": "value",
          "type": "uint256"
        }
      ],
      "name": "ContractCreated",
      "type": "event"
    },
    {
      "anonymous": false,
      "inputs": [
        {
          "indexed": true,
          "internalType": "address",
          "name": "delegator",
          "type": "address"
        },
        {
          "indexed": true,
          "internalType": "address",
          "name": "fromDelegate",
          "type": "address"
        },
        {
          "indexed": true,
          "internalType": "address",
          "name": "toDelegate",
          "type": "address"
        },
        {
          "indexed": false,
          "internalType": "uint256",
          "name": "id",
          "type": "uint256"
        }
      ],
      "name": "DelegateChanged",
      "type": "event"
    },
    {
      "anonymous": false,
      "inputs": [
        {
          "indexed": true,
          "internalType": "address",
          "name": "delegate",
          "type": "address"
        },
        {
          "indexed": true,
          "internalType": "uint256",
          "name": "id",
          "type": "uint256"
        },
        {
          "indexed": false,
          "internalType": "uint256",
          "name": "previousBalance",
          "type": "uint256"
        },
        {
          "indexed": false,
          "internalType": "uint256",
          "name": "newBalance",
          "type": "uint256"
        }
      ],
      "name": "DelegateVotesChanged",
      "type": "event"
    },
    {
      "anonymous": false,
      "inputs": [
        {
          "indexed": false,
          "internalType": "enum Operation",
          "name": "op",
          "type": "uint8"
        },
        {
          "indexed": true,
          "internalType": "address",
          "name": "to",
          "type": "address"
        },
        {
          "indexed": false,
          "internalType": "uint256",
          "name": "value",
          "type": "uint256"
        },
        {
          "indexed": false,
          "internalType": "bytes",
          "name": "data",
          "type": "bytes"
        }
      ],
      "name": "Executed",
      "type": "event"
    },
    {
      "anonymous": false,
      "inputs": [
        {
          "indexed": true,
          "internalType": "address",
          "name": "caller",
          "type": "address"
        },
        {
          "indexed": false,
          "internalType": "uint32",
          "name": "threshold",
          "type": "uint32"
        }
      ],
      "name": "QuorumSet",
      "type": "event"
    },
    {
      "anonymous": false,
      "inputs": [
        {
          "indexed": true,
          "internalType": "address",
          "name": "operator",
          "type": "address"
        },
        {
          "indexed": true,
          "internalType": "address",
          "name": "from",
          "type": "address"
        },
        {
          "indexed": true,
          "internalType": "address",
          "name": "to",
          "type": "address"
        },
        {
          "indexed": false,
          "internalType": "uint256[]",
          "name": "ids",
          "type": "uint256[]"
        },
        {
          "indexed": false,
          "internalType": "uint256[]",
          "name": "amounts",
          "type": "uint256[]"
        }
      ],
      "name": "TransferBatch",
      "type": "event"
    },
    {
      "anonymous": false,
      "inputs": [
        {
          "indexed": true,
          "internalType": "address",
          "name": "operator",
          "type": "address"
        },
        {
          "indexed": true,
          "internalType": "address",
          "name": "from",
          "type": "address"
        },
        {
          "indexed": true,
          "internalType": "address",
          "name": "to",
          "type": "address"
        },
        {
          "indexed": false,
          "internalType": "uint256",
          "name": "id",
          "type": "uint256"
        },
        {
          "indexed": false,
          "internalType": "uint256",
          "name": "amount",
          "type": "uint256"
        }
      ],
      "name": "TransferSingle",
      "type": "event"
    },
    {
      "anonymous": false,
      "inputs": [
        {
          "indexed": true,
          "internalType": "address",
          "name": "operator",
          "type": "address"
        },
        {
          "indexed": true,
          "internalType": "uint256",
          "name": "id",
          "type": "uint256"
        },
        {
          "indexed": false,
          "internalType": "bool",
          "name": "transferability",
          "type": "bool"
        }
      ],
      "name": "TransferabilitySet",
      "type": "event"
    },
    {
      "anonymous": false,
      "inputs": [
        {
          "indexed": false,
          "internalType": "string",
          "name": "value",
          "type": "string"
        },
        {
          "indexed": true,
          "internalType": "uint256",
          "name": "id",
          "type": "uint256"
        }
      ],
      "name": "URI",
      "type": "event"
    },
    {
      "inputs": [],
      "name": "DOMAIN_SEPARATOR",
      "outputs": [
        {
          "internalType": "bytes32",
          "name": "",
          "type": "bytes32"
        }
      ],
      "stateMutability": "view",
      "type": "function"
    },
    {
      "inputs": [],
      "name": "INITIAL_DOMAIN_SEPARATOR",
      "outputs": [
        {
          "internalType": "bytes32",
          "name": "",
          "type": "bytes32"
        }
      ],
      "stateMutability": "view",
      "type": "function"
    },
    {
      "inputs": [
        {
          "internalType": "address",
          "name": "",
          "type": "address"
        },
        {
          "internalType": "uint256",
          "name": "",
          "type": "uint256"
        }
      ],
      "name": "balanceOf",
      "outputs": [
        {
          "internalType": "uint256",
          "name": "",
          "type": "uint256"
        }
      ],
      "stateMutability": "view",
      "type": "function"
    },
    {
      "inputs": [
        {
          "internalType": "address[]",
          "name": "owners",
          "type": "address[]"
        },
        {
          "internalType": "uint256[]",
          "name": "ids",
          "type": "uint256[]"
        }
      ],
      "name": "balanceOfBatch",
      "outputs": [
        {
          "internalType": "uint256[]",
          "name": "balances",
          "type": "uint256[]"
        }
      ],
      "stateMutability": "view",
      "type": "function"
    },
    {
      "inputs": [
        {
          "components": [
            {
              "internalType": "enum Operation",
              "name": "op",
              "type": "uint8"
            },
            {
              "internalType": "address",
              "name": "to",
              "type": "address"
            },
            {
              "internalType": "uint256",
              "name": "value",
              "type": "uint256"
            },
            {
              "internalType": "bytes",
              "name": "data",
              "type": "bytes"
            }
          ],
          "internalType": "struct Call[]",
          "name": "calls",
          "type": "tuple[]"
        }
      ],
      "name": "batchExecute",
      "outputs": [
        {
          "internalType": "bool[]",
          "name": "successes",
          "type": "bool[]"
        }
      ],
      "stateMutability": "payable",
      "type": "function"
    },
    {
      "inputs": [
        {
          "internalType": "address",
          "name": "from",
          "type": "address"
        },
        {
          "internalType": "uint256",
          "name": "id",
          "type": "uint256"
        },
        {
          "internalType": "uint256",
          "name": "amount",
          "type": "uint256"
        }
      ],
      "name": "burn",
      "outputs": [],
      "stateMutability": "payable",
      "type": "function"
    },
    {
      "inputs": [
        {
          "internalType": "address",
          "name": "",
          "type": "address"
        },
        {
          "internalType": "uint256",
          "name": "",
          "type": "uint256"
        },
        {
          "internalType": "uint256",
          "name": "",
          "type": "uint256"
        }
      ],
      "name": "checkpoints",
      "outputs": [
        {
          "internalType": "uint64",
          "name": "fromTimestamp",
          "type": "uint64"
        },
        {
          "internalType": "uint192",
          "name": "votes",
          "type": "uint192"
        }
      ],
      "stateMutability": "view",
      "type": "function"
    },
    {
      "inputs": [
        {
          "internalType": "address",
          "name": "delegatee",
          "type": "address"
        },
        {
          "internalType": "uint256",
          "name": "id",
          "type": "uint256"
        }
      ],
      "name": "delegate",
      "outputs": [],
      "stateMutability": "payable",
      "type": "function"
    },
    {
      "inputs": [
        {
          "internalType": "address",
          "name": "account",
          "type": "address"
        },
        {
          "internalType": "uint256",
          "name": "id",
          "type": "uint256"
        }
      ],
      "name": "delegates",
      "outputs": [
        {
          "internalType": "address",
          "name": "",
          "type": "address"
        }
      ],
      "stateMutability": "view",
      "type": "function"
    },
    {
      "inputs": [
        {
          "internalType": "enum Operation",
          "name": "op",
          "type": "uint8"
        },
        {
          "internalType": "address",
          "name": "to",
          "type": "address"
        },
        {
          "internalType": "uint256",
          "name": "value",
          "type": "uint256"
        },
        {
          "internalType": "bytes",
          "name": "data",
          "type": "bytes"
        },
        {
          "components": [
            {
              "internalType": "uint8",
              "name": "v",
              "type": "uint8"
            },
            {
              "internalType": "bytes32",
              "name": "r",
              "type": "bytes32"
            },
            {
              "internalType": "bytes32",
              "name": "s",
              "type": "bytes32"
            }
          ],
          "internalType": "struct Signature[]",
          "name": "sigs",
          "type": "tuple[]"
        }
      ],
      "name": "execute",
      "outputs": [
        {
          "internalType": "bool",
          "name": "success",
          "type": "bool"
        }
      ],
      "stateMutability": "payable",
      "type": "function"
    },
    {
      "inputs": [
        {
          "internalType": "address",
          "name": "account",
          "type": "address"
        },
        {
          "internalType": "uint256",
          "name": "id",
          "type": "uint256"
        }
      ],
      "name": "getCurrentVotes",
      "outputs": [
        {
          "internalType": "uint256",
          "name": "",
          "type": "uint256"
        }
      ],
      "stateMutability": "view",
      "type": "function"
    },
    {
      "inputs": [
        {
          "internalType": "address",
          "name": "account",
          "type": "address"
        },
        {
          "internalType": "uint256",
          "name": "id",
          "type": "uint256"
        },
        {
          "internalType": "uint256",
          "name": "timestamp",
          "type": "uint256"
        }
      ],
      "name": "getPriorVotes",
      "outputs": [
        {
          "internalType": "uint256",
          "name": "",
          "type": "uint256"
        }
      ],
      "stateMutability": "view",
      "type": "function"
    },
    {
      "inputs": [
        {
          "components": [
            {
              "internalType": "enum Operation",
              "name": "op",
              "type": "uint8"
            },
            {
              "internalType": "address",
              "name": "to",
              "type": "address"
            },
            {
              "internalType": "uint256",
              "name": "value",
              "type": "uint256"
            },
            {
              "internalType": "bytes",
              "name": "data",
              "type": "bytes"
            }
          ],
          "internalType": "struct Call[]",
          "name": "calls",
          "type": "tuple[]"
        },
        {
          "internalType": "address[]",
          "name": "signers",
          "type": "address[]"
        },
        {
          "internalType": "uint256",
          "name": "threshold",
          "type": "uint256"
        }
      ],
      "name": "init",
      "outputs": [],
      "stateMutability": "payable",
      "type": "function"
    },
    {
      "inputs": [
        {
          "internalType": "address",
          "name": "",
          "type": "address"
        },
        {
          "internalType": "address",
          "name": "",
          "type": "address"
        }
      ],
      "name": "isApprovedForAll",
      "outputs": [
        {
          "internalType": "bool",
          "name": "",
          "type": "bool"
        }
      ],
      "stateMutability": "view",
      "type": "function"
    },
    {
      "inputs": [
        {
          "internalType": "address",
          "name": "to",
          "type": "address"
        },
        {
          "internalType": "uint256",
          "name": "id",
          "type": "uint256"
        },
        {
          "internalType": "uint256",
          "name": "amount",
          "type": "uint256"
        },
        {
          "internalType": "bytes",
          "name": "data",
          "type": "bytes"
        }
      ],
      "name": "mint",
      "outputs": [],
      "stateMutability": "payable",
      "type": "function"
    },
    {
      "inputs": [
        {
          "internalType": "bytes[]",
          "name": "data",
          "type": "bytes[]"
        }
      ],
      "name": "multicall",
      "outputs": [
        {
          "internalType": "bytes[]",
          "name": "results",
          "type": "bytes[]"
        }
      ],
      "stateMutability": "payable",
      "type": "function"
    },
    {
      "inputs": [],
      "name": "nonce",
      "outputs": [
        {
          "internalType": "uint64",
          "name": "",
          "type": "uint64"
        }
      ],
      "stateMutability": "view",
      "type": "function"
    },
    {
      "inputs": [
        {
          "internalType": "address",
          "name": "",
          "type": "address"
        },
        {
          "internalType": "uint256",
          "name": "",
          "type": "uint256"
        }
      ],
      "name": "numCheckpoints",
      "outputs": [
        {
          "internalType": "uint256",
          "name": "",
          "type": "uint256"
        }
      ],
      "stateMutability": "view",
      "type": "function"
    },
    {
      "inputs": [
        {
          "internalType": "address",
          "name": "",
          "type": "address"
        },
        {
          "internalType": "address",
          "name": "",
          "type": "address"
        },
        {
          "internalType": "uint256[]",
          "name": "",
          "type": "uint256[]"
        },
        {
          "internalType": "uint256[]",
          "name": "",
          "type": "uint256[]"
        },
        {
          "internalType": "bytes",
          "name": "",
          "type": "bytes"
        }
      ],
      "name": "onERC1155BatchReceived",
      "outputs": [
        {
          "internalType": "bytes4",
          "name": "",
          "type": "bytes4"
        }
      ],
      "stateMutability": "payable",
      "type": "function"
    },
    {
      "inputs": [
        {
          "internalType": "address",
          "name": "",
          "type": "address"
        },
        {
          "internalType": "address",
          "name": "",
          "type": "address"
        },
        {
          "internalType": "uint256",
          "name": "",
          "type": "uint256"
        },
        {
          "internalType": "uint256",
          "name": "",
          "type": "uint256"
        },
        {
          "internalType": "bytes",
          "name": "",
          "type": "bytes"
        }
      ],
      "name": "onERC1155Received",
      "outputs": [
        {
          "internalType": "bytes4",
          "name": "",
          "type": "bytes4"
        }
      ],
      "stateMutability": "payable",
      "type": "function"
    },
    {
      "inputs": [
        {
          "internalType": "address",
          "name": "",
          "type": "address"
        },
        {
          "internalType": "address",
          "name": "",
          "type": "address"
        },
        {
          "internalType": "uint256",
          "name": "",
          "type": "uint256"
        },
        {
          "internalType": "bytes",
          "name": "",
          "type": "bytes"
        }
      ],
      "name": "onERC721Received",
      "outputs": [
        {
          "internalType": "bytes4",
          "name": "",
          "type": "bytes4"
        }
      ],
      "stateMutability": "payable",
      "type": "function"
    },
    {
      "inputs": [],
      "name": "quorum",
      "outputs": [
        {
          "internalType": "uint32",
          "name": "",
          "type": "uint32"
        }
      ],
      "stateMutability": "view",
      "type": "function"
    },
    {
      "inputs": [
        {
          "internalType": "address",
          "name": "from",
          "type": "address"
        },
        {
          "internalType": "address",
          "name": "to",
          "type": "address"
        },
        {
          "internalType": "uint256[]",
          "name": "ids",
          "type": "uint256[]"
        },
        {
          "internalType": "uint256[]",
          "name": "amounts",
          "type": "uint256[]"
        },
        {
          "internalType": "bytes",
          "name": "data",
          "type": "bytes"
        }
      ],
      "name": "safeBatchTransferFrom",
      "outputs": [],
      "stateMutability": "payable",
      "type": "function"
    },
    {
      "inputs": [
        {
          "internalType": "address",
          "name": "from",
          "type": "address"
        },
        {
          "internalType": "address",
          "name": "to",
          "type": "address"
        },
        {
          "internalType": "uint256",
          "name": "id",
          "type": "uint256"
        },
        {
          "internalType": "uint256",
          "name": "amount",
          "type": "uint256"
        },
        {
          "internalType": "bytes",
          "name": "data",
          "type": "bytes"
        }
      ],
      "name": "safeTransferFrom",
      "outputs": [],
      "stateMutability": "payable",
      "type": "function"
    },
    {
      "inputs": [
        {
          "internalType": "address",
          "name": "operator",
          "type": "address"
        },
        {
          "internalType": "bool",
          "name": "approved",
          "type": "bool"
        }
      ],
      "name": "setApprovalForAll",
      "outputs": [],
      "stateMutability": "payable",
      "type": "function"
    },
    {
      "inputs": [
        {
          "internalType": "uint32",
          "name": "threshold",
          "type": "uint32"
        }
      ],
      "name": "setQuorum",
      "outputs": [],
      "stateMutability": "payable",
      "type": "function"
    },
    {
      "inputs": [
        {
          "internalType": "uint256",
          "name": "id",
          "type": "uint256"
        },
        {
          "internalType": "bool",
          "name": "transferability",
          "type": "bool"
        }
      ],
      "name": "setTransferability",
      "outputs": [],
      "stateMutability": "payable",
      "type": "function"
    },
    {
      "inputs": [
        {
          "internalType": "uint256",
          "name": "id",
          "type": "uint256"
        },
        {
          "internalType": "string",
          "name": "tokenURI",
          "type": "string"
        }
      ],
      "name": "setURI",
      "outputs": [],
      "stateMutability": "payable",
      "type": "function"
    },
    {
      "inputs": [
        {
          "internalType": "bytes4",
          "name": "interfaceId",
          "type": "bytes4"
        }
      ],
      "name": "supportsInterface",
      "outputs": [
        {
          "internalType": "bool",
          "name": "",
          "type": "bool"
        }
      ],
      "stateMutability": "view",
      "type": "function"
    },
    {
      "inputs": [
        {
          "internalType": "uint256",
          "name": "",
          "type": "uint256"
        }
      ],
      "name": "totalSupply",
      "outputs": [
        {
          "internalType": "uint256",
          "name": "",
          "type": "uint256"
        }
      ],
      "stateMutability": "view",
      "type": "function"
    },
    {
      "inputs": [
        {
          "internalType": "uint256",
          "name": "",
          "type": "uint256"
        }
      ],
      "name": "transferable",
      "outputs": [
        {
          "internalType": "bool",
          "name": "",
          "type": "bool"
        }
      ],
      "stateMutability": "view",
      "type": "function"
    },
    {
      "inputs": [
        {
          "internalType": "uint256",
          "name": "id",
          "type": "uint256"
        }
      ],
      "name": "uri",
      "outputs": [
        {
          "internalType": "string",
          "name": "",
          "type": "string"
        }
      ],
      "stateMutability": "view",
      "type": "function"
    }
  ],
  "bytecode": {
    "object": "0x608060405234801561001057600080fd5b50613571806100206000396000f3fe6080604052600436106101e25760003560e01c8063836eebee11610102578063bd85b03911610095578063f23a6e6111610064578063f23a6e6114610638578063f242432a14610658578063f4c3b4d71461066b578063f5298aca1461069b57600080fd5b8063bd85b039146105aa578063c590e89f146105d7578063e329fed7146105ea578063e985e9c5146105fd57600080fd5b8063ac9650d8116100d1578063ac9650d8146104f6578063afa88bca14610516578063affed0e01461054e578063bc197c811461058857600080fd5b8063836eebee1461049d578063862440e2146104bd5780638c995b91146104d0578063a22cb465146104e357600080fd5b80632eb2c2d61161017a57806367e224041161014957806367e22404146104415780637140d96014610457578063731133e91461046a578063807df56d1461047d57600080fd5b80632eb2c2d61461036a5780633644e5151461037d578063387bbabd146103925780634e1273f41461041457600080fd5b80630e89341c116101b65780630e89341c14610294578063150b7a02146102c15780631703a018146102f957806327dd1b001461033257600080fd5b8062fdd58e146101e757806301ffc9a71461022f578063023e8d841461025f578063026e402b1461027f575b600080fd5b3480156101f357600080fd5b5061021c61020236600461283e565b600060208181529281526040808220909352908152205481565b6040519081526020015b60405180910390f35b34801561023b57600080fd5b5061024f61024a366004612881565b6106ae565b6040519015158152602001610226565b61027261026d3660046128ea565b61070d565b604051610226919061292c565b61029261028d36600461283e565b610899565b005b3480156102a057600080fd5b506102b46102af366004612972565b61095c565b60405161022691906129e3565b6102e06102cf366004612a38565b630a85bd0160e11b95945050505050565b6040516001600160e01b03199091168152602001610226565b34801561030557600080fd5b5060075461031d90600160401b900463ffffffff1681565b60405163ffffffff9091168152602001610226565b34801561033e57600080fd5b5061035261034d36600461283e565b6109fe565b6040516001600160a01b039091168152602001610226565b610292610378366004612aa7565b610a3c565b34801561038957600080fd5b5061021c610ce3565b34801561039e57600080fd5b506103ec6103ad366004612b62565b600660209081526000938452604080852082529284528284209052825290205467ffffffffffffffff811690600160401b90046001600160c01b031682565b6040805167ffffffffffffffff90931683526001600160c01b03909116602083015201610226565b34801561042057600080fd5b5061043461042f366004612b95565b610dbe565b6040516102269190612c01565b34801561044d57600080fd5b5061021c60085481565b610292610465366004612c49565b610ed2565b610292610478366004612c75565b610eeb565b34801561048957600080fd5b5061021c61049836600461283e565b610f0a565b3480156104a957600080fd5b5061021c6104b8366004612b62565b610f8e565b6102926104cb366004612cc0565b6111d3565b61024f6104de366004612d1b565b611237565b6102926104f1366004612de6565b611632565b6105096105043660046128ea565b61169f565b6040516102269190612e10565b34801561052257600080fd5b5061021c61053136600461283e565b600560209081526000928352604080842090915290825290205481565b34801561055a57600080fd5b5060075461056f9067ffffffffffffffff1681565b60405167ffffffffffffffff9091168152602001610226565b6102e0610596366004612aa7565b63bc197c8160e01b98975050505050505050565b3480156105b657600080fd5b5061021c6105c5366004612972565b60036020526000908152604090205481565b6102926105e5366004612e72565b611808565b6102926105f8366004612ee6565b611b45565b34801561060957600080fd5b5061024f610618366004612f0c565b600160209081526000928352604080842090915290825290205460ff1681565b6102e0610646366004612f36565b63f23a6e6160e01b9695505050505050565b610292610666366004612f36565b611c0c565b34801561067757600080fd5b5061024f610686366004612972565b60026020526000908152604090205460ff1681565b6102926106a9366004612b62565b611e1e565b60006001600160e01b03198216630a85bd0160e11b14806106f857507f4e2312e0000000000000000000000000000000000000000000000000000000006001600160e01b03198316145b80610707575061070782611ef6565b92915050565b60606107196000611f8f565b508167ffffffffffffffff81111561073357610733612fae565b60405190808252806020026020018201604052801561075c578160200160208202803683370190505b50905060005b828110156108925761086884848381811061077f5761077f612fc4565b90506020028101906107919190612fda565b61079f906020810190612ffa565b8585848181106107b1576107b1612fc4565b90506020028101906107c39190612fda565b6107d4906040810190602001613015565b8686858181106107e6576107e6612fc4565b90506020028101906107f89190612fda565b6040013587878681811061080e5761080e612fc4565b90506020028101906108209190612fda565b61082e906060810190613030565b8080601f016020809104026020016040519081016040528093929190818152602001838380828437600092019190915250611fe192505050565b82828151811061087a5761087a612fc4565b91151560209283029190910190910152600101610762565b5092915050565b60006108a533836109fe565b33600081815260046020908152604080832087845282529182902080547fffffffffffffffffffffffff0000000000000000000000000000000000000000166001600160a01b038981169182179092559251878152949550919391851692917f287e04de574701d97a55bd9ea85b32defecf76a607b8007ee9ae8c126bf7a746910160405180910390a43360009081526020818152604080832085845290915290205461095790829085908590612207565b505050565b600081815260096020526040902080546060919061097990613077565b80601f01602080910402602001604051908101604052809291908181526020018280546109a590613077565b80156109f25780601f106109c7576101008083540402835291602001916109f2565b820191906000526020600020905b8154815290600101906020018083116109d557829003601f168201915b50505050509050919050565b6001600160a01b0380831660009081526004602090815260408083208584529091528120549091168015610a325780610a34565b835b949350505050565b848314610a5c5760405163899ef10d60e01b815260040160405180910390fd5b336001600160a01b03891614801590610a9957506001600160a01b038816600090815260016020908152604080832033845290915290205460ff16155b15610ab757604051633d83866f60e01b815260040160405180910390fd5b60008060005b87811015610bb157888882818110610ad757610ad7612fc4565b905060200201359250868682818110610af257610af2612fc4565b6000868152600260209081526040909120549102929092013593505060ff16610b2e57604051634f8cca5b60e11b815260040160405180910390fd5b6001600160a01b038b1660009081526020818152604080832086845290915281208054849290610b5f9084906130c7565b90915550506001600160a01b038a166000908152602081815260408083208684529091529020805483019055610ba9610b988c856109fe565b610ba28c866109fe565b8585612207565b600101610abd565b50886001600160a01b03168a6001600160a01b0316336001600160a01b03167f4a39dc06d4c0dbc64b70af90fd698a233a518aa5d07e595d983b8c0526c8f7fb8b8b8b8b604051610c05949392919061312d565b60405180910390a46001600160a01b0389163b15610cad5760405163bc197c8160e01b808252906001600160a01b038b169063bc197c8190610c599033908f908e908e908e908e908e908e90600401613188565b6020604051808303816000875af1158015610c78573d6000803e3d6000fd5b505050506040513d601f19601f82011682018060405250810190610c9c91906131dd565b6001600160e01b0319161415610cb9565b6001600160a01b038916155b15610cd75760405163290802d360e11b815260040160405180910390fd5b50505050505050505050565b60003660011981013560f01c9003600301354614610db75750604080518082018252600881526725b0b634a1b63ab160c11b60209182015281517f8b73c3c69bb8fe3d512ecc4cf759cc79239f7b179b0ffacaa9a75d522b39400f818301527f5b5b1483404ac93e4d9b025a8feb4c5ea9304085ab2e513c578af4cec7eb5319818401527fc89efdaa54c0f20c7adf612882df0950f5a951637e0307cdcb4c672f298b8bc660608201524660808201523060a0808301919091528351808303909101815260c0909101909252815191012090565b5060085490565b6060838214610de05760405163899ef10d60e01b815260040160405180910390fd5b8367ffffffffffffffff811115610df957610df9612fae565b604051908082528060200260200182016040528015610e22578160200160208202803683370190505b50905060005b84811015610ec957600080878784818110610e4557610e45612fc4565b9050602002016020810190610e5a9190613015565b6001600160a01b03166001600160a01b031681526020019081526020016000206000858584818110610e8e57610e8e612fc4565b90506020020135815260200190815260200160002054828281518110610eb657610eb6612fc4565b6020908102919091010152600101610e28565b50949350505050565b610edc6000611f8f565b50610ee78282612399565b5050565b610ef56000611f8f565b50610f0385858585856123eb565b5050505050565b6001600160a01b0382166000908152600560209081526040808320848452909152812054808203610f3c576000610f7d565b6001600160a01b0384166000908152600660209081526040808320868452825280832060001985018452909152902054600160401b90046001600160c01b03165b6001600160c01b0316949350505050565b6000814211610fc9576040517f83aace3d00000000000000000000000000000000000000000000000000000000815260040160405180910390fd5b6001600160a01b038416600090815260056020908152604080832086845290915281205490819003610fff5760009150506111cc565b6001600160a01b038516600090815260066020908152604080832087845282528083206000198501845290915290205467ffffffffffffffff168310611087576001600160a01b03851660009081526006602090815260408083208784528252808320600019909401835292905220546001600160c01b03600160401b9091041690506111cc565b6001600160a01b0385166000908152600660209081526040808320878452825280832083805290915290205467ffffffffffffffff168310156110ce5760009150506111cc565b600060001982015b8181111561118c576001600160a01b0387166000908152600660209081526040808320898452825280832060028686030485038085529083529281902081518083019092525467ffffffffffffffff8116808352600160401b9091046001600160c01b0316928201929092529087900361116357602001516001600160c01b031694506111cc9350505050565b805167ffffffffffffffff1687111561117e57819350611185565b6001820392505b50506110d6565b506001600160a01b038616600090815260066020908152604080832088845282528083209383529290522054600160401b90046001600160c01b03169150505b9392505050565b6111dd6000611f8f565b5060008381526009602052604090206111f7828483613240565b50827f6bb7ff708619ba0610cba295a58592e0451dee2622938c8755667688daf3529b838360405161122a929190613300565b60405180910390a2505050565b600080611242610ce3565b60075460405161128b917f7a41bb8eed3a04b9ccfc055b3e6b3247171ef52d9f9a1242a8f6a4bd2b40ed9e918d918d918d918d918d9167ffffffffffffffff169060200161334c565b604051602081830303815290604052805190602001206040516020016112e39291907f190100000000000000000000000000000000000000000000000000000000000081526002810192909252602282015260420190565b60408051808303601f190181529190528051602090910120600754909150600090600160401b900463ffffffff16815b818110156115e057600060018589898581811061133257611332612fc4565b61134892602060609092020190810191506133a6565b8a8a8681811061135a5761135a612fc4565b905060600201602001358b8b8781811061137657611376612fc4565b90506060020160400135604051600081526020016040526040516113b6949392919093845260ff9290921660208401526040830152606082015260800190565b6020604051602081039080840390855afa1580156113d8573d6000803e3d6000fd5b5050604051601f1901519150506001600160a01b0381163b15611563577f1626ba7e000000000000000000000000000000000000000000000000000000006001600160a01b038216631626ba7e878b8b8781811061143857611438612fc4565b905060600201602001358c8c8881811061145457611454612fc4565b905060600201604001358d8d8981811061147057611470612fc4565b61148692602060609092020190810191506133a6565b6040516020016114ce93929190928352602083019190915260f81b7fff0000000000000000000000000000000000000000000000000000000000000016604082015260410190565b6040516020818303038152906040526040518363ffffffff1660e01b81526004016114fa9291906133c9565b602060405180830381865afa158015611517573d6000803e3d6000fd5b505050506040513d601f19601f8201168201806040525081019061153b91906131dd565b6001600160e01b0319161461156357604051633ba7c2c960e21b815260040160405180910390fd5b6001600160a01b03811660009081526020818152604080832083805290915281205490036115a457604051633ba7c2c960e21b815260040160405180910390fd5b806001600160a01b0316846001600160a01b0316106115d657604051633ba7c2c960e21b815260040160405180910390fd5b9250600101611313565b506116238b8b8b8b8b8080601f016020809104026020016040519081016040528093929190818152602001838380828437600092019190915250611fe192505050565b9b9a5050505050505050505050565b3360008181526001602090815260408083206001600160a01b03871680855290835292819020805460ff191686151590811790915590519081529192917f17307eab39ab6107e8899845ad3d59bd9653f200f220920489ca2b5937696c3191015b60405180910390a35050565b60608167ffffffffffffffff8111156116ba576116ba612fae565b6040519080825280602002602001820160405280156116ed57816020015b60608152602001906001900390816116d85790505b50905060005b82811015610892576000803086868581811061171157611711612fc4565b90506020028101906117239190613030565b6040516117319291906133e2565b600060405180830381855af49150503d806000811461176c576040519150601f19603f3d011682016040523d82523d6000602084013e611771565b606091505b5091509150816117e05760448151101561178a57600080fd5b600481019050808060200190518101906117a491906133f2565b6040517f08c379a00000000000000000000000000000000000000000000000000000000081526004016117d791906129e3565b60405180910390fd5b808484815181106117f3576117f3612fc4565b602090810291909101015250506001016116f3565b60075467ffffffffffffffff161561184c576040517fb2c6f10f00000000000000000000000000000000000000000000000000000000815260040160405180910390fd5b8061185657600080fd5b8181111561187757604051631534858160e01b815260040160405180910390fd5b83156119375760005b848110156119355761192c86868381811061189d5761189d612fc4565b90506020028101906118af9190612fda565b6118bd906020810190612ffa565b8787848181106118cf576118cf612fc4565b90506020028101906118e19190612fda565b6118f2906040810190602001613015565b88888581811061190457611904612fc4565b90506020028101906119169190612fda565b6040013589898681811061080e5761080e612fc4565b50600101611880565b505b6000806000805b85811015611a135786868281811061195857611958612fc4565b905060200201602081019061196d9190613015565b9350836001600160a01b0316836001600160a01b0316106119a157604051633ba7c2c960e21b815260040160405180910390fd5b6001600160a01b038416600081815260208181526040808320838052825280832080546001908101909155815184815292830181905281518998509681019695019433927fc3d58168c5ae7397731d063d5bbf3d657854427343f4c083240f7aacaa2d0f6292908290030190a461193e565b506007805463ffffffff8616600160401b026bffffffffffffffffffffffff199091161760011790556000805260036020526fffffffffffffffffffffffffffffffff81167f3617319a054d772f909f7c479a2cebe5066e836a939412e32403c99029b92eff55611b38604080518082018252600881526725b0b634a1b63ab160c11b60209182015281517f8b73c3c69bb8fe3d512ecc4cf759cc79239f7b179b0ffacaa9a75d522b39400f818301527f5b5b1483404ac93e4d9b025a8feb4c5ea9304085ab2e513c578af4cec7eb5319818401527fc89efdaa54c0f20c7adf612882df0950f5a951637e0307cdcb4c672f298b8bc660608201524660808201523060a0808301919091528351808303909101815260c0909101909252815191012090565b6008555050505050505050565b611b4f6000611f8f565b5080611b5a57600080fd5b6000805260036020527f3617319a054d772f909f7c479a2cebe5066e836a939412e32403c99029b92eff5463ffffffff82161115611bab57604051631534858160e01b815260040160405180910390fd5b600780546bffffffff00000000000000001916600160401b63ffffffff84169081029190911790915560405190815233907f6419d2e7a1717fda3cbd30219ea0d317c63608c906b8177a66746517b8c613069060200160405180910390a250565b336001600160a01b03871614801590611c4957506001600160a01b038616600090815260016020908152604080832033845290915290205460ff16155b15611c6757604051633d83866f60e01b815260040160405180910390fd5b60008481526002602052604090205460ff16611c9657604051634f8cca5b60e11b815260040160405180910390fd5b6001600160a01b03861660009081526020818152604080832087845290915281208054859290611cc79084906130c7565b90915550506001600160a01b038581166000818152602081815260408083208984528252918290208054880190558151888152908101879052919289169133917fc3d58168c5ae7397731d063d5bbf3d657854427343f4c083240f7aacaa2d0f62910160405180910390a46001600160a01b0385163b15611dce5760405163f23a6e6160e01b808252906001600160a01b0387169063f23a6e6190611d7a9033908b908a908a908a908a90600401613494565b6020604051808303816000875af1158015611d99573d6000803e3d6000fd5b505050506040513d601f19601f82011682018060405250810190611dbd91906131dd565b6001600160e01b0319161415611dda565b6001600160a01b038516155b15611df85760405163290802d360e11b815260040160405180910390fd5b611e16611e0587866109fe565b611e0f87876109fe565b8686612207565b505050505050565b336001600160a01b03841614801590611e5b57506001600160a01b038316600090815260016020908152604080832033845290915290205460ff16155b8015611e6e5750611e6c6000611f8f565b155b15611e8c57604051633d83866f60e01b815260040160405180910390fd5b611e97838383612543565b81610957576000805260036020527f3617319a054d772f909f7c479a2cebe5066e836a939412e32403c99029b92eff54600754600160401b900463ffffffff16111561095757604051631534858160e01b815260040160405180910390fd5b60006001600160e01b031982167f01ffc9a7000000000000000000000000000000000000000000000000000000001480611f5957507fd9b67a26000000000000000000000000000000000000000000000000000000006001600160e01b03198316145b806107075750506001600160e01b0319167f0e89341c000000000000000000000000000000000000000000000000000000001490565b600033301480611fb657503360009081526020818152604080832085845290915290205415155b15611fc357506001919050565b604051633d83866f60e01b815260040160405180910390fd5b919050565b6007805467ffffffffffffffff8082166001011667ffffffffffffffff1990911617905560008085600381111561201a5761201a613314565b036120965760008083516020850186885af190508061204c57604051633c47f9b560e21b815260040160405180910390fd5b836001600160a01b03167ffa3c55dc43f5cfdeb2abee243c63ad490db2fee39fd127076ed9e7afa15ad638868585604051612089939291906134d9565b60405180910390a2610a34565b60018560038111156120aa576120aa613314565b036120db57600080835160208501875af490508061204c57604051633c47f9b560e21b815260040160405180910390fd5b60028560038111156120ef576120ef613314565b0361217057600082516020840185f090506001600160a01b03811661212757604051633c47f9b560e21b815260040160405180910390fd5b806001600160a01b03167fd187b7c22150909fa5ee0d652f5966e66148500fabe5615b1079e7ef39fe3fb78786604051612162929190613508565b60405180910390a250610a34565b6000808560601b6bffffffffffffffffffffffff191690508084518560200187f591506001600160a01b0382166121ba57604051633c47f9b560e21b815260040160405180910390fd5b816001600160a01b03167fd187b7c22150909fa5ee0d652f5966e66148500fabe5615b1079e7ef39fe3fb788876040516121f5929190613508565b60405180910390a25050949350505050565b826001600160a01b0316846001600160a01b03161415801561222857508015155b15612393576001600160a01b038416156122e4576001600160a01b03841660009081526005602090815260408083208584529091528120549081810361226f5760006122c0565b6001600160a01b038616600090815260066020908152604080832087845290915281209061229e6001856130c7565b8152602081019190915260400160002054600160401b90046001600160c01b03165b6001600160c01b031690506122e1868584846122dc88826130c7565b6125ea565b50505b6001600160a01b03831615612393576001600160a01b038316600090815260056020908152604080832085845290915281205490818103612326576000612377565b6001600160a01b03851660009081526006602090815260408083208784529091528120906123556001856130c7565b8152602081019190915260400160002054600160401b90046001600160c01b03165b6001600160c01b03169050611e16858584846122dc8882613523565b50505050565b600082815260026020908152604091829020805460ff19168415159081179091559151918252839133917f030b8b6f293952c4e53cc2ac59481057844588ce19c7d10ca5468e4d6938f1959101611693565b60008481526003602052604081208054859290612409908490613523565b90915550506001600160a01b0385166000818152602081815260408083208884528252808320805488019055805188815291820187905233917fc3d58168c5ae7397731d063d5bbf3d657854427343f4c083240f7aacaa2d0f62910160405180910390a46001600160a01b0385163b1561250a5760405163f23a6e6160e01b808252906001600160a01b0387169063f23a6e61906124b69033906000908a908a908a908a90600401613494565b6020604051808303816000875af11580156124d5573d6000803e3d6000fd5b505050506040513d601f19601f820116820180604052508101906124f991906131dd565b6001600160e01b0319161415612516565b6001600160a01b038516155b156125345760405163290802d360e11b815260040160405180910390fd5b610f036000611e0f87876109fe565b6001600160a01b038316600090815260208181526040808320858452909152812080548392906125749084906130c7565b909155505060008281526003602090815260408083208054859003905580518581529182018490526001600160a01b0386169133917fc3d58168c5ae7397731d063d5bbf3d657854427343f4c083240f7aacaa2d0f62910160405180910390a46109576125e184846109fe565b60008484612207565b60006125f54261278e565b9050831580159061264157506001600160a01b038616600090815260066020908152604080832088845282528083206000198801845290915290205467ffffffffffffffff8281169116145b156126a95761264f826127d2565b6001600160a01b0387166000908152600660209081526040808320898452825280832060001989018452909152902080546001600160c01b0392909216600160401b0267ffffffffffffffff909216919091179055612740565b60405180604001604052808267ffffffffffffffff1681526020016126cd846127d2565b6001600160c01b039081169091526001600160a01b03881660008181526006602090815260408083208b845282528083208a84528252808320865196830151909516600160401b0267ffffffffffffffff9096169590951790935590815260058252828120888252909152206001850190555b50604080518381526020810183905285916001600160a01b038816917f21a99d51b8a0a2e2ead709843a1ecfaab977908135cf1c085c0a6246eea6e0f0910160405180910390a35050505050565b6000600160401b8211156127ce576040517f5b7f254e00000000000000000000000000000000000000000000000000000000815260040160405180910390fd5b5090565b600078010000000000000000000000000000000000000000000000008211156127ce576040517fd5e0d1b200000000000000000000000000000000000000000000000000000000815260040160405180910390fd5b80356001600160a01b0381168114611fdc57600080fd5b6000806040838503121561285157600080fd5b61285a83612827565b946020939093013593505050565b6001600160e01b03198116811461287e57600080fd5b50565b60006020828403121561289357600080fd5b81356111cc81612868565b60008083601f8401126128b057600080fd5b50813567ffffffffffffffff8111156128c857600080fd5b6020830191508360208260051b85010111156128e357600080fd5b9250929050565b600080602083850312156128fd57600080fd5b823567ffffffffffffffff81111561291457600080fd5b6129208582860161289e565b90969095509350505050565b6020808252825182820181905260009190848201906040850190845b81811015612966578351151583529284019291840191600101612948565b50909695505050505050565b60006020828403121561298457600080fd5b5035919050565b60005b838110156129a657818101518382015260200161298e565b838111156123935750506000910152565b600081518084526129cf81602086016020860161298b565b601f01601f19169290920160200192915050565b6020815260006111cc60208301846129b7565b60008083601f840112612a0857600080fd5b50813567ffffffffffffffff811115612a2057600080fd5b6020830191508360208285010111156128e357600080fd5b600080600080600060808688031215612a5057600080fd5b612a5986612827565b9450612a6760208701612827565b935060408601359250606086013567ffffffffffffffff811115612a8a57600080fd5b612a96888289016129f6565b969995985093965092949392505050565b60008060008060008060008060a0898b031215612ac357600080fd5b612acc89612827565b9750612ada60208a01612827565b9650604089013567ffffffffffffffff80821115612af757600080fd5b612b038c838d0161289e565b909850965060608b0135915080821115612b1c57600080fd5b612b288c838d0161289e565b909650945060808b0135915080821115612b4157600080fd5b50612b4e8b828c016129f6565b999c989b5096995094979396929594505050565b600080600060608486031215612b7757600080fd5b612b8084612827565b95602085013595506040909401359392505050565b60008060008060408587031215612bab57600080fd5b843567ffffffffffffffff80821115612bc357600080fd5b612bcf8883890161289e565b90965094506020870135915080821115612be857600080fd5b50612bf58782880161289e565b95989497509550505050565b6020808252825182820181905260009190848201906040850190845b8181101561296657835183529284019291840191600101612c1d565b80358015158114611fdc57600080fd5b60008060408385031215612c5c57600080fd5b82359150612c6c60208401612c39565b90509250929050565b600080600080600060808688031215612c8d57600080fd5b612c9686612827565b94506020860135935060408601359250606086013567ffffffffffffffff811115612a8a57600080fd5b600080600060408486031215612cd557600080fd5b83359250602084013567ffffffffffffffff811115612cf357600080fd5b612cff868287016129f6565b9497909650939450505050565b803560048110611fdc57600080fd5b600080600080600080600060a0888a031215612d3657600080fd5b612d3f88612d0c565b9650612d4d60208901612827565b955060408801359450606088013567ffffffffffffffff80821115612d7157600080fd5b612d7d8b838c016129f6565b909650945060808a0135915080821115612d9657600080fd5b818a0191508a601f830112612daa57600080fd5b813581811115612db957600080fd5b8b6020606083028501011115612dce57600080fd5b60208301945080935050505092959891949750929550565b60008060408385031215612df957600080fd5b612e0283612827565b9150612c6c60208401612c39565b6000602080830181845280855180835260408601915060408160051b870101925083870160005b82811015612e6557603f19888603018452612e538583516129b7565b94509285019290850190600101612e37565b5092979650505050505050565b600080600080600060608688031215612e8a57600080fd5b853567ffffffffffffffff80821115612ea257600080fd5b612eae89838a0161289e565b90975095506020880135915080821115612ec757600080fd5b50612ed48882890161289e565b96999598509660400135949350505050565b600060208284031215612ef857600080fd5b813563ffffffff811681146111cc57600080fd5b60008060408385031215612f1f57600080fd5b612f2883612827565b9150612c6c60208401612827565b60008060008060008060a08789031215612f4f57600080fd5b612f5887612827565b9550612f6660208801612827565b94506040870135935060608701359250608087013567ffffffffffffffff811115612f9057600080fd5b612f9c89828a016129f6565b979a9699509497509295939492505050565b634e487b7160e01b600052604160045260246000fd5b634e487b7160e01b600052603260045260246000fd5b60008235607e19833603018112612ff057600080fd5b9190910192915050565b60006020828403121561300c57600080fd5b6111cc82612d0c565b60006020828403121561302757600080fd5b6111cc82612827565b6000808335601e1984360301811261304757600080fd5b83018035915067ffffffffffffffff82111561306257600080fd5b6020019150368190038213156128e357600080fd5b600181811c9082168061308b57607f821691505b6020821081036130ab57634e487b7160e01b600052602260045260246000fd5b50919050565b634e487b7160e01b600052601160045260246000fd5b6000828210156130d9576130d96130b1565b500390565b81835260007f07ffffffffffffffffffffffffffffffffffffffffffffffffffffffffffffff83111561311057600080fd5b8260051b8083602087013760009401602001938452509192915050565b6040815260006131416040830186886130de565b82810360208401526131548185876130de565b979650505050505050565b81835281816020850137506000828201602090810191909152601f909101601f19169091010190565b60006001600160a01b03808b168352808a1660208401525060a060408301526131b560a08301888a6130de565b82810360608401526131c88187896130de565b9050828103608084015261162381858761315f565b6000602082840312156131ef57600080fd5b81516111cc81612868565b601f82111561095757600081815260208120601f850160051c810160208610156132215750805b601f850160051c820191505b81811015611e165782815560010161322d565b67ffffffffffffffff83111561325857613258612fae565b61326c836132668354613077565b836131fa565b6000601f8411600181146132a057600085156132885750838201355b600019600387901b1c1916600186901b178355610f03565b600083815260209020601f19861690835b828110156132d157868501358255602094850194600190920191016132b1565b50868210156132ee5760001960f88860031b161c19848701351681555b505060018560011b0183555050505050565b602081526000610a3460208301848661315f565b634e487b7160e01b600052602160045260246000fd5b6004811061334857634e487b7160e01b600052602160045260246000fd5b9052565b87815261335c602082018861332a565b6001600160a01b038616604082015284606082015260c06080820152600061338860c08301858761315f565b905067ffffffffffffffff831660a083015298975050505050505050565b6000602082840312156133b857600080fd5b813560ff811681146111cc57600080fd5b828152604060208201526000610a3460408301846129b7565b8183823760009101908152919050565b60006020828403121561340457600080fd5b815167ffffffffffffffff8082111561341c57600080fd5b818401915084601f83011261343057600080fd5b81518181111561344257613442612fae565b604051601f8201601f19908116603f0116810190838211818310171561346a5761346a612fae565b8160405282815287602084870101111561348357600080fd5b61315483602083016020880161298b565b60006001600160a01b03808916835280881660208401525085604083015284606083015260a060808301526134cd60a08301848661315f565b98975050505050505050565b6134e3818561332a565b8260208201526060604082015260006134ff60608301846129b7565b95945050505050565b60408101613516828561332a565b8260208301529392505050565b60008219821115613536576135366130b1565b50019056fea2646970667358221220debb482055f5c267724aaf9249ff4dc62e0e566cb59db52b190a3dbe8bba3ee764736f6c634300080f0033",
    "linkReferences": {}
  }
}