{
  "abi": [
    {
      "inputs": [],
      "name": "ALREADY_INIT",
      "type": "error"
    },
    {
      "inputs": [],
      "name": "EXECUTE_FAILED",
      "type": "error"
    },
    {
      "inputs": [],
      "name": "INVALID_RECIPIENT",
      "type": "error"
    },
    {
      "inputs": [],
      "name": "INVALID_SIG",
      "type": "error"
    },
    {
      "inputs": [],
      "name": "LENGTH_MISMATCH",
      "type": "error"
    },
    {
      "inputs": [],
      "name": "NONTRANSFERABLE",
      "type": "error"
    },
    {
      "inputs": [],
      "name": "NOT_AUTHORIZED",
      "type": "error"
    },
    {
      "inputs": [],
      "name": "QUORUM_OVER_SUPPLY",
      "type": "error"
    },
    {
      "inputs": [],
      "name": "UINT192_MAX",
      "type": "error"
    },
    {
      "inputs": [],
      "name": "UINT64_MAX",
      "type": "error"
    },
    {
      "inputs": [],
      "name": "UNDETERMINED",
      "type": "error"
    },
    {
      "anonymous": false,
      "inputs": [
        {
          "indexed": true,
          "internalType": "address",
          "name": "owner",
          "type": "address"
        },
        {
          "indexed": true,
          "internalType": "address",
          "name": "operator",
          "type": "address"
        },
        {
          "indexed": false,
          "internalType": "bool",
          "name": "approved",
          "type": "bool"
        }
      ],
      "name": "ApprovalForAll",
      "type": "event"
    },
    {
      "anonymous": false,
      "inputs": [
        {
          "indexed": false,
          "internalType": "enum Operation",
          "name": "op",
          "type": "uint8"
        },
        {
          "indexed": true,
          "internalType": "address",
          "name": "creation",
          "type": "address"
        },
        {
          "indexed": false,
          "internalType": "uint256",
          "name": "value",
          "type": "uint256"
        }
      ],
      "name": "ContractCreated",
      "type": "event"
    },
    {
      "anonymous": false,
      "inputs": [
        {
          "indexed": true,
          "internalType": "address",
          "name": "delegator",
          "type": "address"
        },
        {
          "indexed": true,
          "internalType": "address",
          "name": "fromDelegate",
          "type": "address"
        },
        {
          "indexed": true,
          "internalType": "address",
          "name": "toDelegate",
          "type": "address"
        },
        {
          "indexed": false,
          "internalType": "uint256",
          "name": "id",
          "type": "uint256"
        }
      ],
      "name": "DelegateChanged",
      "type": "event"
    },
    {
      "anonymous": false,
      "inputs": [
        {
          "indexed": true,
          "internalType": "address",
          "name": "delegate",
          "type": "address"
        },
        {
          "indexed": true,
          "internalType": "uint256",
          "name": "id",
          "type": "uint256"
        },
        {
          "indexed": false,
          "internalType": "uint256",
          "name": "previousBalance",
          "type": "uint256"
        },
        {
          "indexed": false,
          "internalType": "uint256",
          "name": "newBalance",
          "type": "uint256"
        }
      ],
      "name": "DelegateVotesChanged",
      "type": "event"
    },
    {
      "anonymous": false,
      "inputs": [
        {
          "indexed": false,
          "internalType": "enum Operation",
          "name": "op",
          "type": "uint8"
        },
        {
          "indexed": true,
          "internalType": "address",
          "name": "to",
          "type": "address"
        },
        {
          "indexed": false,
          "internalType": "uint256",
          "name": "value",
          "type": "uint256"
        },
        {
          "indexed": false,
          "internalType": "bytes",
          "name": "data",
          "type": "bytes"
        }
      ],
      "name": "Executed",
      "type": "event"
    },
    {
      "anonymous": false,
      "inputs": [
        {
          "indexed": true,
          "internalType": "address",
          "name": "caller",
          "type": "address"
        },
        {
          "indexed": false,
          "internalType": "uint32",
          "name": "threshold",
          "type": "uint32"
        }
      ],
      "name": "QuorumSet",
      "type": "event"
    },
    {
      "anonymous": false,
      "inputs": [
        {
          "indexed": true,
          "internalType": "address",
          "name": "operator",
          "type": "address"
        },
        {
          "indexed": true,
          "internalType": "uint256",
          "name": "id",
          "type": "uint256"
        },
        {
          "indexed": false,
          "internalType": "bool",
          "name": "transferability",
          "type": "bool"
        }
      ],
      "name": "TokenTransferabilitySet",
      "type": "event"
    },
    {
      "anonymous": false,
      "inputs": [
        {
          "indexed": true,
          "internalType": "address",
          "name": "operator",
          "type": "address"
        },
        {
          "indexed": true,
          "internalType": "address",
          "name": "from",
          "type": "address"
        },
        {
          "indexed": true,
          "internalType": "address",
          "name": "to",
          "type": "address"
        },
        {
          "indexed": false,
          "internalType": "uint256[]",
          "name": "ids",
          "type": "uint256[]"
        },
        {
          "indexed": false,
          "internalType": "uint256[]",
          "name": "amounts",
          "type": "uint256[]"
        }
      ],
      "name": "TransferBatch",
      "type": "event"
    },
    {
      "anonymous": false,
      "inputs": [
        {
          "indexed": true,
          "internalType": "address",
          "name": "operator",
          "type": "address"
        },
        {
          "indexed": true,
          "internalType": "address",
          "name": "from",
          "type": "address"
        },
        {
          "indexed": true,
          "internalType": "address",
          "name": "to",
          "type": "address"
        },
        {
          "indexed": false,
          "internalType": "uint256",
          "name": "id",
          "type": "uint256"
        },
        {
          "indexed": false,
          "internalType": "uint256",
          "name": "amount",
          "type": "uint256"
        }
      ],
      "name": "TransferSingle",
      "type": "event"
    },
    {
      "anonymous": false,
      "inputs": [
        {
          "indexed": false,
          "internalType": "string",
          "name": "value",
          "type": "string"
        },
        {
          "indexed": true,
          "internalType": "uint256",
          "name": "id",
          "type": "uint256"
        }
      ],
      "name": "URI",
      "type": "event"
    },
    {
      "inputs": [],
      "name": "DOMAIN_SEPARATOR",
      "outputs": [
        {
          "internalType": "bytes32",
          "name": "",
          "type": "bytes32"
        }
      ],
      "stateMutability": "view",
      "type": "function"
    },
    {
      "inputs": [
        {
          "internalType": "address",
          "name": "",
          "type": "address"
        },
        {
          "internalType": "uint256",
          "name": "",
          "type": "uint256"
        }
      ],
      "name": "balanceOf",
      "outputs": [
        {
          "internalType": "uint256",
          "name": "",
          "type": "uint256"
        }
      ],
      "stateMutability": "view",
      "type": "function"
    },
    {
      "inputs": [
        {
          "internalType": "address[]",
          "name": "owners",
          "type": "address[]"
        },
        {
          "internalType": "uint256[]",
          "name": "ids",
          "type": "uint256[]"
        }
      ],
      "name": "balanceOfBatch",
      "outputs": [
        {
          "internalType": "uint256[]",
          "name": "balances",
          "type": "uint256[]"
        }
      ],
      "stateMutability": "view",
      "type": "function"
    },
    {
      "inputs": [
        {
          "components": [
            {
              "internalType": "enum Operation",
              "name": "op",
              "type": "uint8"
            },
            {
              "internalType": "address",
              "name": "to",
              "type": "address"
            },
            {
              "internalType": "uint256",
              "name": "value",
              "type": "uint256"
            },
            {
              "internalType": "bytes",
              "name": "data",
              "type": "bytes"
            }
          ],
          "internalType": "struct Call[]",
          "name": "calls",
          "type": "tuple[]"
        }
      ],
      "name": "batchExecute",
      "outputs": [
        {
          "internalType": "bool[]",
          "name": "successes",
          "type": "bool[]"
        }
      ],
      "stateMutability": "payable",
      "type": "function"
    },
    {
      "inputs": [
        {
          "internalType": "address",
          "name": "from",
          "type": "address"
        },
        {
          "internalType": "uint256",
          "name": "id",
          "type": "uint256"
        },
        {
          "internalType": "uint256",
          "name": "amount",
          "type": "uint256"
        }
      ],
      "name": "burn",
      "outputs": [],
      "stateMutability": "payable",
      "type": "function"
    },
    {
      "inputs": [
        {
          "internalType": "address",
          "name": "",
          "type": "address"
        },
        {
          "internalType": "uint256",
          "name": "",
          "type": "uint256"
        },
        {
          "internalType": "uint256",
          "name": "",
          "type": "uint256"
        }
      ],
      "name": "checkpoints",
      "outputs": [
        {
          "internalType": "uint64",
          "name": "fromTimestamp",
          "type": "uint64"
        },
        {
          "internalType": "uint192",
          "name": "votes",
          "type": "uint192"
        }
      ],
      "stateMutability": "view",
      "type": "function"
    },
    {
      "inputs": [
        {
          "internalType": "address",
          "name": "delegatee",
          "type": "address"
        },
        {
          "internalType": "uint256",
          "name": "id",
          "type": "uint256"
        }
      ],
      "name": "delegate",
      "outputs": [],
      "stateMutability": "payable",
      "type": "function"
    },
    {
      "inputs": [
        {
          "internalType": "address",
          "name": "account",
          "type": "address"
        },
        {
          "internalType": "uint256",
          "name": "id",
          "type": "uint256"
        }
      ],
      "name": "delegates",
      "outputs": [
        {
          "internalType": "address",
          "name": "",
          "type": "address"
        }
      ],
      "stateMutability": "view",
      "type": "function"
    },
    {
      "inputs": [
        {
          "internalType": "enum Operation",
          "name": "op",
          "type": "uint8"
        },
        {
          "internalType": "address",
          "name": "to",
          "type": "address"
        },
        {
          "internalType": "uint256",
          "name": "value",
          "type": "uint256"
        },
        {
          "internalType": "bytes",
          "name": "data",
          "type": "bytes"
        },
        {
          "components": [
            {
              "internalType": "uint8",
              "name": "v",
              "type": "uint8"
            },
            {
              "internalType": "bytes32",
              "name": "r",
              "type": "bytes32"
            },
            {
              "internalType": "bytes32",
              "name": "s",
              "type": "bytes32"
            }
          ],
          "internalType": "struct Signature[]",
          "name": "sigs",
          "type": "tuple[]"
        }
      ],
      "name": "execute",
      "outputs": [
        {
          "internalType": "bool",
          "name": "success",
          "type": "bool"
        }
      ],
      "stateMutability": "payable",
      "type": "function"
    },
    {
      "inputs": [
        {
          "internalType": "address",
          "name": "account",
          "type": "address"
        },
        {
          "internalType": "uint256",
          "name": "id",
          "type": "uint256"
        }
      ],
      "name": "getCurrentVotes",
      "outputs": [
        {
          "internalType": "uint256",
          "name": "",
          "type": "uint256"
        }
      ],
      "stateMutability": "view",
      "type": "function"
    },
    {
      "inputs": [
        {
          "internalType": "address",
          "name": "account",
          "type": "address"
        },
        {
          "internalType": "uint256",
          "name": "id",
          "type": "uint256"
        },
        {
          "internalType": "uint256",
          "name": "timestamp",
          "type": "uint256"
        }
      ],
      "name": "getPriorVotes",
      "outputs": [
        {
          "internalType": "uint256",
          "name": "",
          "type": "uint256"
        }
      ],
      "stateMutability": "view",
      "type": "function"
    },
    {
      "inputs": [
        {
          "components": [
            {
              "internalType": "enum Operation",
              "name": "op",
              "type": "uint8"
            },
            {
              "internalType": "address",
              "name": "to",
              "type": "address"
            },
            {
              "internalType": "uint256",
              "name": "value",
              "type": "uint256"
            },
            {
              "internalType": "bytes",
              "name": "data",
              "type": "bytes"
            }
          ],
          "internalType": "struct Call[]",
          "name": "calls",
          "type": "tuple[]"
        },
        {
          "internalType": "address[]",
          "name": "signers",
          "type": "address[]"
        },
        {
          "internalType": "uint256",
          "name": "threshold",
          "type": "uint256"
        }
      ],
      "name": "init",
      "outputs": [],
      "stateMutability": "payable",
      "type": "function"
    },
    {
      "inputs": [
        {
          "internalType": "address",
          "name": "",
          "type": "address"
        },
        {
          "internalType": "address",
          "name": "",
          "type": "address"
        }
      ],
      "name": "isApprovedForAll",
      "outputs": [
        {
          "internalType": "bool",
          "name": "",
          "type": "bool"
        }
      ],
      "stateMutability": "view",
      "type": "function"
    },
    {
      "inputs": [
        {
          "internalType": "address",
          "name": "to",
          "type": "address"
        },
        {
          "internalType": "uint256",
          "name": "id",
          "type": "uint256"
        },
        {
          "internalType": "uint256",
          "name": "amount",
          "type": "uint256"
        },
        {
          "internalType": "bytes",
          "name": "data",
          "type": "bytes"
        }
      ],
      "name": "mint",
      "outputs": [],
      "stateMutability": "payable",
      "type": "function"
    },
    {
      "inputs": [
        {
          "internalType": "bytes[]",
          "name": "data",
          "type": "bytes[]"
        }
      ],
      "name": "multicall",
      "outputs": [
        {
          "internalType": "bytes[]",
          "name": "results",
          "type": "bytes[]"
        }
      ],
      "stateMutability": "payable",
      "type": "function"
    },
    {
      "inputs": [],
      "name": "nonce",
      "outputs": [
        {
          "internalType": "uint64",
          "name": "",
          "type": "uint64"
        }
      ],
      "stateMutability": "view",
      "type": "function"
    },
    {
      "inputs": [
        {
          "internalType": "address",
          "name": "",
          "type": "address"
        },
        {
          "internalType": "uint256",
          "name": "",
          "type": "uint256"
        }
      ],
      "name": "numCheckpoints",
      "outputs": [
        {
          "internalType": "uint256",
          "name": "",
          "type": "uint256"
        }
      ],
      "stateMutability": "view",
      "type": "function"
    },
    {
      "inputs": [
        {
          "internalType": "address",
          "name": "",
          "type": "address"
        },
        {
          "internalType": "address",
          "name": "",
          "type": "address"
        },
        {
          "internalType": "uint256[]",
          "name": "",
          "type": "uint256[]"
        },
        {
          "internalType": "uint256[]",
          "name": "",
          "type": "uint256[]"
        },
        {
          "internalType": "bytes",
          "name": "",
          "type": "bytes"
        }
      ],
      "name": "onERC1155BatchReceived",
      "outputs": [
        {
          "internalType": "bytes4",
          "name": "",
          "type": "bytes4"
        }
      ],
      "stateMutability": "payable",
      "type": "function"
    },
    {
      "inputs": [
        {
          "internalType": "address",
          "name": "",
          "type": "address"
        },
        {
          "internalType": "address",
          "name": "",
          "type": "address"
        },
        {
          "internalType": "uint256",
          "name": "",
          "type": "uint256"
        },
        {
          "internalType": "uint256",
          "name": "",
          "type": "uint256"
        },
        {
          "internalType": "bytes",
          "name": "",
          "type": "bytes"
        }
      ],
      "name": "onERC1155Received",
      "outputs": [
        {
          "internalType": "bytes4",
          "name": "",
          "type": "bytes4"
        }
      ],
      "stateMutability": "payable",
      "type": "function"
    },
    {
      "inputs": [
        {
          "internalType": "address",
          "name": "",
          "type": "address"
        },
        {
          "internalType": "address",
          "name": "",
          "type": "address"
        },
        {
          "internalType": "uint256",
          "name": "",
          "type": "uint256"
        },
        {
          "internalType": "bytes",
          "name": "",
          "type": "bytes"
        }
      ],
      "name": "onERC721Received",
      "outputs": [
        {
          "internalType": "bytes4",
          "name": "",
          "type": "bytes4"
        }
      ],
      "stateMutability": "payable",
      "type": "function"
    },
    {
      "inputs": [],
      "name": "quorum",
      "outputs": [
        {
          "internalType": "uint32",
          "name": "",
          "type": "uint32"
        }
      ],
      "stateMutability": "view",
      "type": "function"
    },
    {
      "inputs": [
        {
          "internalType": "address",
          "name": "from",
          "type": "address"
        },
        {
          "internalType": "address",
          "name": "to",
          "type": "address"
        },
        {
          "internalType": "uint256[]",
          "name": "ids",
          "type": "uint256[]"
        },
        {
          "internalType": "uint256[]",
          "name": "amounts",
          "type": "uint256[]"
        },
        {
          "internalType": "bytes",
          "name": "data",
          "type": "bytes"
        }
      ],
      "name": "safeBatchTransferFrom",
      "outputs": [],
      "stateMutability": "payable",
      "type": "function"
    },
    {
      "inputs": [
        {
          "internalType": "address",
          "name": "from",
          "type": "address"
        },
        {
          "internalType": "address",
          "name": "to",
          "type": "address"
        },
        {
          "internalType": "uint256",
          "name": "id",
          "type": "uint256"
        },
        {
          "internalType": "uint256",
          "name": "amount",
          "type": "uint256"
        },
        {
          "internalType": "bytes",
          "name": "data",
          "type": "bytes"
        }
      ],
      "name": "safeTransferFrom",
      "outputs": [],
      "stateMutability": "payable",
      "type": "function"
    },
    {
      "inputs": [
        {
          "internalType": "address",
          "name": "operator",
          "type": "address"
        },
        {
          "internalType": "bool",
          "name": "approved",
          "type": "bool"
        }
      ],
      "name": "setApprovalForAll",
      "outputs": [],
      "stateMutability": "payable",
      "type": "function"
    },
    {
      "inputs": [
        {
          "internalType": "uint32",
          "name": "threshold",
          "type": "uint32"
        }
      ],
      "name": "setQuorum",
      "outputs": [],
      "stateMutability": "payable",
      "type": "function"
    },
    {
      "inputs": [
        {
          "internalType": "uint256",
          "name": "id",
          "type": "uint256"
        },
        {
          "internalType": "bool",
          "name": "transferability",
          "type": "bool"
        }
      ],
      "name": "setTokenTransferability",
      "outputs": [],
      "stateMutability": "payable",
      "type": "function"
    },
    {
      "inputs": [
        {
          "internalType": "uint256",
          "name": "id",
          "type": "uint256"
        },
        {
          "internalType": "string",
          "name": "tokenURI",
          "type": "string"
        }
      ],
      "name": "setTokenURI",
      "outputs": [],
      "stateMutability": "payable",
      "type": "function"
    },
    {
      "inputs": [
        {
          "internalType": "bytes4",
          "name": "interfaceId",
          "type": "bytes4"
        }
      ],
      "name": "supportsInterface",
      "outputs": [
        {
          "internalType": "bool",
          "name": "",
          "type": "bool"
        }
      ],
      "stateMutability": "view",
      "type": "function"
    },
    {
      "inputs": [
        {
          "internalType": "uint256",
          "name": "",
          "type": "uint256"
        }
      ],
      "name": "totalSupply",
      "outputs": [
        {
          "internalType": "uint256",
          "name": "",
          "type": "uint256"
        }
      ],
      "stateMutability": "view",
      "type": "function"
    },
    {
      "inputs": [
        {
          "internalType": "uint256",
          "name": "",
          "type": "uint256"
        }
      ],
      "name": "transferable",
      "outputs": [
        {
          "internalType": "bool",
          "name": "",
          "type": "bool"
        }
      ],
      "stateMutability": "view",
      "type": "function"
    },
    {
      "inputs": [
        {
          "internalType": "uint256",
          "name": "id",
          "type": "uint256"
        }
      ],
      "name": "uri",
      "outputs": [
        {
          "internalType": "string",
          "name": "",
          "type": "string"
        }
      ],
      "stateMutability": "view",
      "type": "function"
    }
  ],
  "bytecode": {
    "object": "0x608060405234801561001057600080fd5b5061354e806100206000396000f3fe6080604052600436106101d75760003560e01c8063807df56d11610102578063bd85b03911610095578063f23a6e6111610064578063f23a6e6114610617578063f242432a14610637578063f4c3b4d71461064a578063f5298aca1461067a57600080fd5b8063bd85b03914610589578063c590e89f146105b6578063e329fed7146105c9578063e985e9c5146105dc57600080fd5b8063ac9650d8116100d1578063ac9650d8146104d5578063afa88bca146104f5578063affed0e01461052d578063bc197c811461056757600080fd5b8063807df56d1461046f578063836eebee1461048f5780638c995b91146104af578063a22cb465146104c257600080fd5b80631703a0181161017a578063387bbabd11610149578063387bbabd1461039a5780634e1273f41461041c57806354d7926f14610449578063731133e91461045c57600080fd5b80631703a0181461030157806327dd1b001461033a5780632eb2c2d6146103725780633644e5151461038557600080fd5b8063026e402b116101b6578063026e402b146102745780630e89341c14610289578063150b7a02146102b6578063162094c4146102ee57600080fd5b8062fdd58e146101dc57806301ffc9a714610224578063023e8d8414610254575b600080fd5b3480156101e857600080fd5b506102116101f736600461281b565b600060208181529281526040808220909352908152205481565b6040519081526020015b60405180910390f35b34801561023057600080fd5b5061024461023f36600461285e565b61068d565b604051901515815260200161021b565b6102676102623660046128c7565b6106ec565b60405161021b9190612909565b61028761028236600461281b565b610878565b005b34801561029557600080fd5b506102a96102a436600461294f565b61093b565b60405161021b91906129c0565b6102d56102c4366004612a15565b630a85bd0160e11b95945050505050565b6040516001600160e01b0319909116815260200161021b565b6102876102fc366004612a84565b6109dd565b34801561030d57600080fd5b5060075461032590600160401b900463ffffffff1681565b60405163ffffffff909116815260200161021b565b34801561034657600080fd5b5061035a61035536600461281b565b610a41565b6040516001600160a01b03909116815260200161021b565b610287610380366004612ad0565b610a7f565b34801561039157600080fd5b50610211610d2c565b3480156103a657600080fd5b506103f46103b5366004612b8b565b600660209081526000938452604080852082529284528284209052825290205467ffffffffffffffff811690600160401b90046001600160c01b031682565b6040805167ffffffffffffffff90931683526001600160c01b0390911660208301520161021b565b34801561042857600080fd5b5061043c610437366004612bbe565b610e07565b60405161021b9190612c2a565b610287610457366004612c72565b610f1b565b61028761046a366004612c9e565b610f80565b34801561047b57600080fd5b5061021161048a36600461281b565b610f9f565b34801561049b57600080fd5b506102116104aa366004612b8b565b611023565b6102446104bd366004612cf8565b611268565b6102876104d0366004612dc3565b611663565b6104e86104e33660046128c7565b6116c8565b60405161021b9190612ded565b34801561050157600080fd5b5061021161051036600461281b565b600560209081526000928352604080842090915290825290205481565b34801561053957600080fd5b5060075461054e9067ffffffffffffffff1681565b60405167ffffffffffffffff909116815260200161021b565b6102d5610575366004612ad0565b63bc197c8160e01b98975050505050505050565b34801561059557600080fd5b506102116105a436600461294f565b60036020526000908152604090205481565b6102876105c4366004612e4f565b611831565b6102876105d7366004612ec3565b611b6e565b3480156105e857600080fd5b506102446105f7366004612ee9565b600160209081526000928352604080842090915290825290205460ff1681565b6102d5610625366004612f13565b63f23a6e6160e01b9695505050505050565b610287610645366004612f13565b611c35565b34801561065657600080fd5b5061024461066536600461294f565b60026020526000908152604090205460ff1681565b610287610688366004612b8b565b611e4d565b60006001600160e01b03198216630a85bd0160e11b14806106d757507f4e2312e0000000000000000000000000000000000000000000000000000000006001600160e01b03198316145b806106e657506106e682611f25565b92915050565b60606106f86000611fbe565b508167ffffffffffffffff81111561071257610712612f8b565b60405190808252806020026020018201604052801561073b578160200160208202803683370190505b50905060005b828110156108715761084784848381811061075e5761075e612fa1565b90506020028101906107709190612fb7565b61077e906020810190612fd7565b85858481811061079057610790612fa1565b90506020028101906107a29190612fb7565b6107b3906040810190602001612ff2565b8686858181106107c5576107c5612fa1565b90506020028101906107d79190612fb7565b604001358787868181106107ed576107ed612fa1565b90506020028101906107ff9190612fb7565b61080d90606081019061300d565b8080601f01602080910402602001604051908101604052809392919081815260200183838082843760009201919091525061201092505050565b82828151811061085957610859612fa1565b91151560209283029190910190910152600101610741565b5092915050565b60006108843383610a41565b33600081815260046020908152604080832087845282529182902080547fffffffffffffffffffffffff0000000000000000000000000000000000000000166001600160a01b038981169182179092559251878152949550919391851692917f287e04de574701d97a55bd9ea85b32defecf76a607b8007ee9ae8c126bf7a746910160405180910390a43360009081526020818152604080832085845290915290205461093690829085908590612236565b505050565b600081815260096020526040902080546060919061095890613054565b80601f016020809104026020016040519081016040528092919081815260200182805461098490613054565b80156109d15780601f106109a6576101008083540402835291602001916109d1565b820191906000526020600020905b8154815290600101906020018083116109b457829003601f168201915b50505050509050919050565b6109e76000611fbe565b506000838152600960205260409020610a018284836130d4565b50827f6bb7ff708619ba0610cba295a58592e0451dee2622938c8755667688daf3529b8383604051610a349291906131bd565b60405180910390a2505050565b6001600160a01b0380831660009081526004602090815260408083208584529091528120549091168015610a755780610a77565b835b949350505050565b848314610a9f5760405163899ef10d60e01b815260040160405180910390fd5b336001600160a01b03891614801590610adc57506001600160a01b038816600090815260016020908152604080832033845290915290205460ff16155b15610afa57604051633d83866f60e01b815260040160405180910390fd5b60008060005b87811015610bfa57888882818110610b1a57610b1a612fa1565b905060200201359250868682818110610b3557610b35612fa1565b6000868152600260209081526040909120549102929092013593505060ff16610b7157604051634f8cca5b60e11b815260040160405180910390fd5b6001600160a01b038b1660009081526020818152604080832086845290915281208054849290610ba29084906131e7565b90915550506001600160a01b038a1660009081526020818152604080832086845290915290208054830190558215610bf257610bf2610be18c85610a41565b610beb8c86610a41565b8585612236565b600101610b00565b50886001600160a01b03168a6001600160a01b0316336001600160a01b03167f4a39dc06d4c0dbc64b70af90fd698a233a518aa5d07e595d983b8c0526c8f7fb8b8b8b8b604051610c4e949392919061324d565b60405180910390a46001600160a01b0389163b15610cf65760405163bc197c8160e01b808252906001600160a01b038b169063bc197c8190610ca29033908f908e908e908e908e908e908e9060040161327f565b6020604051808303816000875af1158015610cc1573d6000803e3d6000fd5b505050506040513d601f19601f82011682018060405250810190610ce591906132d4565b6001600160e01b0319161415610d02565b6001600160a01b038916155b15610d205760405163290802d360e11b815260040160405180910390fd5b50505050505050505050565b60003660011981013560f01c9003600301354614610e005750604080518082018252600881526725b0b634a1b63ab160c11b60209182015281517f8b73c3c69bb8fe3d512ecc4cf759cc79239f7b179b0ffacaa9a75d522b39400f818301527f5b5b1483404ac93e4d9b025a8feb4c5ea9304085ab2e513c578af4cec7eb5319818401527fc89efdaa54c0f20c7adf612882df0950f5a951637e0307cdcb4c672f298b8bc660608201524660808201523060a0808301919091528351808303909101815260c0909101909252815191012090565b5060085490565b6060838214610e295760405163899ef10d60e01b815260040160405180910390fd5b8367ffffffffffffffff811115610e4257610e42612f8b565b604051908082528060200260200182016040528015610e6b578160200160208202803683370190505b50905060005b84811015610f1257600080878784818110610e8e57610e8e612fa1565b9050602002016020810190610ea39190612ff2565b6001600160a01b03166001600160a01b031681526020019081526020016000206000858584818110610ed757610ed7612fa1565b90506020020135815260200190815260200160002054828281518110610eff57610eff612fa1565b6020908102919091010152600101610e71565b50949350505050565b610f256000611fbe565b50600082815260026020908152604091829020805460ff19168415159081179091559151918252839133917f92d6650e3daf0c48674c410d3d8a281fe4d48a5a2236fe505d38e4da2112008791015b60405180910390a35050565b610f8a6000611fbe565b50610f9885858585856123c8565b5050505050565b6001600160a01b0382166000908152600560209081526040808320848452909152812054808203610fd1576000611012565b6001600160a01b0384166000908152600660209081526040808320868452825280832060001985018452909152902054600160401b90046001600160c01b03165b6001600160c01b0316949350505050565b600081421161105e576040517f83aace3d00000000000000000000000000000000000000000000000000000000815260040160405180910390fd5b6001600160a01b038416600090815260056020908152604080832086845290915281205490819003611094576000915050611261565b6001600160a01b038516600090815260066020908152604080832087845282528083206000198501845290915290205467ffffffffffffffff16831061111c576001600160a01b03851660009081526006602090815260408083208784528252808320600019909401835292905220546001600160c01b03600160401b909104169050611261565b6001600160a01b0385166000908152600660209081526040808320878452825280832083805290915290205467ffffffffffffffff16831015611163576000915050611261565b600060001982015b81811115611221576001600160a01b0387166000908152600660209081526040808320898452825280832060028686030485038085529083529281902081518083019092525467ffffffffffffffff8116808352600160401b9091046001600160c01b031692820192909252908790036111f857602001516001600160c01b031694506112619350505050565b805167ffffffffffffffff168711156112135781935061121a565b6001820392505b505061116b565b506001600160a01b038616600090815260066020908152604080832088845282528083209383529290522054600160401b90046001600160c01b03169150505b9392505050565b600080611273610d2c565b6007546040516112bc917f7a41bb8eed3a04b9ccfc055b3e6b3247171ef52d9f9a1242a8f6a4bd2b40ed9e918d918d918d918d918d9167ffffffffffffffff1690602001613329565b604051602081830303815290604052805190602001206040516020016113149291907f190100000000000000000000000000000000000000000000000000000000000081526002810192909252602282015260420190565b60408051808303601f190181529190528051602090910120600754909150600090600160401b900463ffffffff16815b8181101561161157600060018589898581811061136357611363612fa1565b6113799260206060909202019081019150613383565b8a8a8681811061138b5761138b612fa1565b905060600201602001358b8b878181106113a7576113a7612fa1565b90506060020160400135604051600081526020016040526040516113e7949392919093845260ff9290921660208401526040830152606082015260800190565b6020604051602081039080840390855afa158015611409573d6000803e3d6000fd5b5050604051601f1901519150506001600160a01b0381163b15611594577f1626ba7e000000000000000000000000000000000000000000000000000000006001600160a01b038216631626ba7e878b8b8781811061146957611469612fa1565b905060600201602001358c8c8881811061148557611485612fa1565b905060600201604001358d8d898181106114a1576114a1612fa1565b6114b79260206060909202019081019150613383565b6040516020016114ff93929190928352602083019190915260f81b7fff0000000000000000000000000000000000000000000000000000000000000016604082015260410190565b6040516020818303038152906040526040518363ffffffff1660e01b815260040161152b9291906133a6565b602060405180830381865afa158015611548573d6000803e3d6000fd5b505050506040513d601f19601f8201168201806040525081019061156c91906132d4565b6001600160e01b0319161461159457604051633ba7c2c960e21b815260040160405180910390fd5b6001600160a01b03811660009081526020818152604080832083805290915281205490036115d557604051633ba7c2c960e21b815260040160405180910390fd5b806001600160a01b0316846001600160a01b03161061160757604051633ba7c2c960e21b815260040160405180910390fd5b9250600101611344565b506116548b8b8b8b8b8080601f01602080910402602001604051908101604052809392919081815260200183838082843760009201919091525061201092505050565b9b9a5050505050505050505050565b3360008181526001602090815260408083206001600160a01b03871680855290835292819020805460ff191686151590811790915590519081529192917f17307eab39ab6107e8899845ad3d59bd9653f200f220920489ca2b5937696c319101610f74565b60608167ffffffffffffffff8111156116e3576116e3612f8b565b60405190808252806020026020018201604052801561171657816020015b60608152602001906001900390816117015790505b50905060005b82811015610871576000803086868581811061173a5761173a612fa1565b905060200281019061174c919061300d565b60405161175a9291906133bf565b600060405180830381855af49150503d8060008114611795576040519150601f19603f3d011682016040523d82523d6000602084013e61179a565b606091505b509150915081611809576044815110156117b357600080fd5b600481019050808060200190518101906117cd91906133cf565b6040517f08c379a000000000000000000000000000000000000000000000000000000000815260040161180091906129c0565b60405180910390fd5b8084848151811061181c5761181c612fa1565b6020908102919091010152505060010161171c565b60075467ffffffffffffffff1615611875576040517fb2c6f10f00000000000000000000000000000000000000000000000000000000815260040160405180910390fd5b8061187f57600080fd5b818111156118a057604051631534858160e01b815260040160405180910390fd5b83156119605760005b8481101561195e576119558686838181106118c6576118c6612fa1565b90506020028101906118d89190612fb7565b6118e6906020810190612fd7565b8787848181106118f8576118f8612fa1565b905060200281019061190a9190612fb7565b61191b906040810190602001612ff2565b88888581811061192d5761192d612fa1565b905060200281019061193f9190612fb7565b604001358989868181106107ed576107ed612fa1565b506001016118a9565b505b6000806000805b85811015611a3c5786868281811061198157611981612fa1565b90506020020160208101906119969190612ff2565b9350836001600160a01b0316836001600160a01b0316106119ca57604051633ba7c2c960e21b815260040160405180910390fd5b6001600160a01b038416600081815260208181526040808320838052825280832080546001908101909155815184815292830181905281518998509681019695019433927fc3d58168c5ae7397731d063d5bbf3d657854427343f4c083240f7aacaa2d0f6292908290030190a4611967565b506007805463ffffffff8616600160401b026bffffffffffffffffffffffff199091161760011790556000805260036020526fffffffffffffffffffffffffffffffff81167f3617319a054d772f909f7c479a2cebe5066e836a939412e32403c99029b92eff55611b61604080518082018252600881526725b0b634a1b63ab160c11b60209182015281517f8b73c3c69bb8fe3d512ecc4cf759cc79239f7b179b0ffacaa9a75d522b39400f818301527f5b5b1483404ac93e4d9b025a8feb4c5ea9304085ab2e513c578af4cec7eb5319818401527fc89efdaa54c0f20c7adf612882df0950f5a951637e0307cdcb4c672f298b8bc660608201524660808201523060a0808301919091528351808303909101815260c0909101909252815191012090565b6008555050505050505050565b611b786000611fbe565b5080611b8357600080fd5b6000805260036020527f3617319a054d772f909f7c479a2cebe5066e836a939412e32403c99029b92eff5463ffffffff82161115611bd457604051631534858160e01b815260040160405180910390fd5b600780546bffffffff00000000000000001916600160401b63ffffffff84169081029190911790915560405190815233907f6419d2e7a1717fda3cbd30219ea0d317c63608c906b8177a66746517b8c613069060200160405180910390a250565b336001600160a01b03871614801590611c7257506001600160a01b038616600090815260016020908152604080832033845290915290205460ff16155b15611c9057604051633d83866f60e01b815260040160405180910390fd5b60008481526002602052604090205460ff16611cbf57604051634f8cca5b60e11b815260040160405180910390fd5b6001600160a01b03861660009081526020818152604080832087845290915281208054859290611cf09084906131e7565b90915550506001600160a01b038581166000818152602081815260408083208984528252918290208054880190558151888152908101879052919289169133917fc3d58168c5ae7397731d063d5bbf3d657854427343f4c083240f7aacaa2d0f62910160405180910390a46001600160a01b0385163b15611df75760405163f23a6e6160e01b808252906001600160a01b0387169063f23a6e6190611da39033908b908a908a908a908a90600401613471565b6020604051808303816000875af1158015611dc2573d6000803e3d6000fd5b505050506040513d601f19601f82011682018060405250810190611de691906132d4565b6001600160e01b0319161415611e03565b6001600160a01b038516155b15611e215760405163290802d360e11b815260040160405180910390fd5b8315611e4557611e45611e348786610a41565b611e3e8787610a41565b8686612236565b505050505050565b336001600160a01b03841614801590611e8a57506001600160a01b038316600090815260016020908152604080832033845290915290205460ff16155b8015611e9d5750611e9b6000611fbe565b155b15611ebb57604051633d83866f60e01b815260040160405180910390fd5b611ec6838383612520565b81610936576000805260036020527f3617319a054d772f909f7c479a2cebe5066e836a939412e32403c99029b92eff54600754600160401b900463ffffffff16111561093657604051631534858160e01b815260040160405180910390fd5b60006001600160e01b031982167f01ffc9a7000000000000000000000000000000000000000000000000000000001480611f8857507fd9b67a26000000000000000000000000000000000000000000000000000000006001600160e01b03198316145b806106e65750506001600160e01b0319167f0e89341c000000000000000000000000000000000000000000000000000000001490565b600033301480611fe557503360009081526020818152604080832085845290915290205415155b15611ff257506001919050565b604051633d83866f60e01b815260040160405180910390fd5b919050565b6007805467ffffffffffffffff8082166001011667ffffffffffffffff19909116179055600080856003811115612049576120496132f1565b036120c55760008083516020850186885af190508061207b57604051633c47f9b560e21b815260040160405180910390fd5b836001600160a01b03167ffa3c55dc43f5cfdeb2abee243c63ad490db2fee39fd127076ed9e7afa15ad6388685856040516120b8939291906134b6565b60405180910390a2610a77565b60018560038111156120d9576120d96132f1565b0361210a57600080835160208501875af490508061207b57604051633c47f9b560e21b815260040160405180910390fd5b600285600381111561211e5761211e6132f1565b0361219f57600082516020840185f090506001600160a01b03811661215657604051633c47f9b560e21b815260040160405180910390fd5b806001600160a01b03167fd187b7c22150909fa5ee0d652f5966e66148500fabe5615b1079e7ef39fe3fb787866040516121919291906134e5565b60405180910390a250610a77565b6000808560601b6bffffffffffffffffffffffff191690508084518560200187f591506001600160a01b0382166121e957604051633c47f9b560e21b815260040160405180910390fd5b816001600160a01b03167fd187b7c22150909fa5ee0d652f5966e66148500fabe5615b1079e7ef39fe3fb788876040516122249291906134e5565b60405180910390a25050949350505050565b826001600160a01b0316846001600160a01b03161415801561225757508015155b156123c2576001600160a01b03841615612313576001600160a01b03841660009081526005602090815260408083208584529091528120549081810361229e5760006122ef565b6001600160a01b03861660009081526006602090815260408083208784529091528120906122cd6001856131e7565b8152602081019190915260400160002054600160401b90046001600160c01b03165b6001600160c01b031690506123108685848461230b88826131e7565b6125c7565b50505b6001600160a01b038316156123c2576001600160a01b0383166000908152600560209081526040808320858452909152812054908181036123555760006123a6565b6001600160a01b03851660009081526006602090815260408083208784529091528120906123846001856131e7565b8152602081019190915260400160002054600160401b90046001600160c01b03165b6001600160c01b03169050611e458585848461230b8882613500565b50505050565b600084815260036020526040812080548592906123e6908490613500565b90915550506001600160a01b0385166000818152602081815260408083208884528252808320805488019055805188815291820187905233917fc3d58168c5ae7397731d063d5bbf3d657854427343f4c083240f7aacaa2d0f62910160405180910390a46001600160a01b0385163b156124e75760405163f23a6e6160e01b808252906001600160a01b0387169063f23a6e61906124939033906000908a908a908a908a90600401613471565b6020604051808303816000875af11580156124b2573d6000803e3d6000fd5b505050506040513d601f19601f820116820180604052508101906124d691906132d4565b6001600160e01b03191614156124f3565b6001600160a01b038516155b156125115760405163290802d360e11b815260040160405180910390fd5b610f986000611e3e8787610a41565b6001600160a01b038316600090815260208181526040808320858452909152812080548392906125519084906131e7565b909155505060008281526003602090815260408083208054859003905580518581529182018490526001600160a01b0386169133917fc3d58168c5ae7397731d063d5bbf3d657854427343f4c083240f7aacaa2d0f62910160405180910390a46109366125be8484610a41565b60008484612236565b60006125d24261276b565b9050831580159061261e57506001600160a01b038616600090815260066020908152604080832088845282528083206000198801845290915290205467ffffffffffffffff8281169116145b156126865761262c826127af565b6001600160a01b0387166000908152600660209081526040808320898452825280832060001989018452909152902080546001600160c01b0392909216600160401b0267ffffffffffffffff90921691909117905561271d565b60405180604001604052808267ffffffffffffffff1681526020016126aa846127af565b6001600160c01b039081169091526001600160a01b03881660008181526006602090815260408083208b845282528083208a84528252808320865196830151909516600160401b0267ffffffffffffffff9096169590951790935590815260058252828120888252909152206001850190555b50604080518381526020810183905285916001600160a01b038816917f21a99d51b8a0a2e2ead709843a1ecfaab977908135cf1c085c0a6246eea6e0f0910160405180910390a35050505050565b6000600160401b8211156127ab576040517f5b7f254e00000000000000000000000000000000000000000000000000000000815260040160405180910390fd5b5090565b600078010000000000000000000000000000000000000000000000008211156127ab576040517fd5e0d1b200000000000000000000000000000000000000000000000000000000815260040160405180910390fd5b80356001600160a01b038116811461200b57600080fd5b6000806040838503121561282e57600080fd5b61283783612804565b946020939093013593505050565b6001600160e01b03198116811461285b57600080fd5b50565b60006020828403121561287057600080fd5b813561126181612845565b60008083601f84011261288d57600080fd5b50813567ffffffffffffffff8111156128a557600080fd5b6020830191508360208260051b85010111156128c057600080fd5b9250929050565b600080602083850312156128da57600080fd5b823567ffffffffffffffff8111156128f157600080fd5b6128fd8582860161287b565b90969095509350505050565b6020808252825182820181905260009190848201906040850190845b81811015612943578351151583529284019291840191600101612925565b50909695505050505050565b60006020828403121561296157600080fd5b5035919050565b60005b8381101561298357818101518382015260200161296b565b838111156123c25750506000910152565b600081518084526129ac816020860160208601612968565b601f01601f19169290920160200192915050565b6020815260006112616020830184612994565b60008083601f8401126129e557600080fd5b50813567ffffffffffffffff8111156129fd57600080fd5b6020830191508360208285010111156128c057600080fd5b600080600080600060808688031215612a2d57600080fd5b612a3686612804565b9450612a4460208701612804565b935060408601359250606086013567ffffffffffffffff811115612a6757600080fd5b612a73888289016129d3565b969995985093965092949392505050565b600080600060408486031215612a9957600080fd5b83359250602084013567ffffffffffffffff811115612ab757600080fd5b612ac3868287016129d3565b9497909650939450505050565b60008060008060008060008060a0898b031215612aec57600080fd5b612af589612804565b9750612b0360208a01612804565b9650604089013567ffffffffffffffff80821115612b2057600080fd5b612b2c8c838d0161287b565b909850965060608b0135915080821115612b4557600080fd5b612b518c838d0161287b565b909650945060808b0135915080821115612b6a57600080fd5b50612b778b828c016129d3565b999c989b5096995094979396929594505050565b600080600060608486031215612ba057600080fd5b612ba984612804565b95602085013595506040909401359392505050565b60008060008060408587031215612bd457600080fd5b843567ffffffffffffffff80821115612bec57600080fd5b612bf88883890161287b565b90965094506020870135915080821115612c1157600080fd5b50612c1e8782880161287b565b95989497509550505050565b6020808252825182820181905260009190848201906040850190845b8181101561294357835183529284019291840191600101612c46565b8035801515811461200b57600080fd5b60008060408385031215612c8557600080fd5b82359150612c9560208401612c62565b90509250929050565b600080600080600060808688031215612cb657600080fd5b612cbf86612804565b94506020860135935060408601359250606086013567ffffffffffffffff811115612a6757600080fd5b80356004811061200b57600080fd5b600080600080600080600060a0888a031215612d1357600080fd5b612d1c88612ce9565b9650612d2a60208901612804565b955060408801359450606088013567ffffffffffffffff80821115612d4e57600080fd5b612d5a8b838c016129d3565b909650945060808a0135915080821115612d7357600080fd5b818a0191508a601f830112612d8757600080fd5b813581811115612d9657600080fd5b8b6020606083028501011115612dab57600080fd5b60208301945080935050505092959891949750929550565b60008060408385031215612dd657600080fd5b612ddf83612804565b9150612c9560208401612c62565b6000602080830181845280855180835260408601915060408160051b870101925083870160005b82811015612e4257603f19888603018452612e30858351612994565b94509285019290850190600101612e14565b5092979650505050505050565b600080600080600060608688031215612e6757600080fd5b853567ffffffffffffffff80821115612e7f57600080fd5b612e8b89838a0161287b565b90975095506020880135915080821115612ea457600080fd5b50612eb18882890161287b565b96999598509660400135949350505050565b600060208284031215612ed557600080fd5b813563ffffffff8116811461126157600080fd5b60008060408385031215612efc57600080fd5b612f0583612804565b9150612c9560208401612804565b60008060008060008060a08789031215612f2c57600080fd5b612f3587612804565b9550612f4360208801612804565b94506040870135935060608701359250608087013567ffffffffffffffff811115612f6d57600080fd5b612f7989828a016129d3565b979a9699509497509295939492505050565b634e487b7160e01b600052604160045260246000fd5b634e487b7160e01b600052603260045260246000fd5b60008235607e19833603018112612fcd57600080fd5b9190910192915050565b600060208284031215612fe957600080fd5b61126182612ce9565b60006020828403121561300457600080fd5b61126182612804565b6000808335601e1984360301811261302457600080fd5b83018035915067ffffffffffffffff82111561303f57600080fd5b6020019150368190038213156128c057600080fd5b600181811c9082168061306857607f821691505b60208210810361308857634e487b7160e01b600052602260045260246000fd5b50919050565b601f82111561093657600081815260208120601f850160051c810160208610156130b55750805b601f850160051c820191505b81811015611e45578281556001016130c1565b67ffffffffffffffff8311156130ec576130ec612f8b565b613100836130fa8354613054565b8361308e565b6000601f841160018114613134576000851561311c5750838201355b600019600387901b1c1916600186901b178355610f98565b600083815260209020601f19861690835b828110156131655786850135825560209485019460019092019101613145565b50868210156131825760001960f88860031b161c19848701351681555b505060018560011b0183555050505050565b81835281816020850137506000828201602090810191909152601f909101601f19169091010190565b602081526000610a77602083018486613194565b634e487b7160e01b600052601160045260246000fd5b6000828210156131f9576131f96131d1565b500390565b81835260007f07ffffffffffffffffffffffffffffffffffffffffffffffffffffffffffffff83111561323057600080fd5b8260051b8083602087013760009401602001938452509192915050565b6040815260006132616040830186886131fe565b82810360208401526132748185876131fe565b979650505050505050565b60006001600160a01b03808b168352808a1660208401525060a060408301526132ac60a08301888a6131fe565b82810360608401526132bf8187896131fe565b90508281036080840152611654818587613194565b6000602082840312156132e657600080fd5b815161126181612845565b634e487b7160e01b600052602160045260246000fd5b6004811061332557634e487b7160e01b600052602160045260246000fd5b9052565b8781526133396020820188613307565b6001600160a01b038616604082015284606082015260c06080820152600061336560c083018587613194565b905067ffffffffffffffff831660a083015298975050505050505050565b60006020828403121561339557600080fd5b813560ff8116811461126157600080fd5b828152604060208201526000610a776040830184612994565b8183823760009101908152919050565b6000602082840312156133e157600080fd5b815167ffffffffffffffff808211156133f957600080fd5b818401915084601f83011261340d57600080fd5b81518181111561341f5761341f612f8b565b604051601f8201601f19908116603f0116810190838211818310171561344757613447612f8b565b8160405282815287602084870101111561346057600080fd5b613274836020830160208801612968565b60006001600160a01b03808916835280881660208401525085604083015284606083015260a060808301526134aa60a083018486613194565b98975050505050505050565b6134c08185613307565b8260208201526060604082015260006134dc6060830184612994565b95945050505050565b604081016134f38285613307565b8260208301529392505050565b60008219821115613513576135136131d1565b50019056fea2646970667358221220d3dc6adb71478b513b7e9888d677b2520a6bab34466f19585e911e1d30dc3b5a64736f6c634300080f0033",
    "linkReferences": {}
  }
}