{
  "abi": [
    {
      "inputs": [],
      "name": "ALREADY_INIT",
      "type": "error"
    },
    {
      "inputs": [],
      "name": "EXECUTE_FAILED",
      "type": "error"
    },
    {
      "inputs": [],
      "name": "INVALID_RECIPIENT",
      "type": "error"
    },
    {
      "inputs": [],
      "name": "INVALID_SIG",
      "type": "error"
    },
    {
      "inputs": [],
      "name": "LENGTH_MISMATCH",
      "type": "error"
    },
    {
      "inputs": [],
      "name": "NONTRANSFERABLE",
      "type": "error"
    },
    {
      "inputs": [],
      "name": "NOT_AUTHORIZED",
      "type": "error"
    },
    {
      "inputs": [],
      "name": "QUORUM_OVER_SUPPLY",
      "type": "error"
    },
    {
      "inputs": [],
      "name": "UINT192_MAX",
      "type": "error"
    },
    {
      "inputs": [],
      "name": "UINT64_MAX",
      "type": "error"
    },
    {
      "inputs": [],
      "name": "UNDETERMINED",
      "type": "error"
    },
    {
      "anonymous": false,
      "inputs": [
        {
          "indexed": true,
          "internalType": "address",
          "name": "owner",
          "type": "address"
        },
        {
          "indexed": true,
          "internalType": "address",
          "name": "operator",
          "type": "address"
        },
        {
          "indexed": false,
          "internalType": "bool",
          "name": "approved",
          "type": "bool"
        }
      ],
      "name": "ApprovalForAll",
      "type": "event"
    },
    {
      "anonymous": false,
      "inputs": [
        {
          "indexed": false,
          "internalType": "enum Operation",
          "name": "op",
          "type": "uint8"
        },
        {
          "indexed": true,
          "internalType": "address",
          "name": "creation",
          "type": "address"
        },
        {
          "indexed": false,
          "internalType": "uint256",
          "name": "value",
          "type": "uint256"
        }
      ],
      "name": "ContractCreated",
      "type": "event"
    },
    {
      "anonymous": false,
      "inputs": [
        {
          "indexed": true,
          "internalType": "address",
          "name": "delegator",
          "type": "address"
        },
        {
          "indexed": true,
          "internalType": "address",
          "name": "fromDelegate",
          "type": "address"
        },
        {
          "indexed": true,
          "internalType": "address",
          "name": "toDelegate",
          "type": "address"
        },
        {
          "indexed": false,
          "internalType": "uint256",
          "name": "id",
          "type": "uint256"
        }
      ],
      "name": "DelegateChanged",
      "type": "event"
    },
    {
      "anonymous": false,
      "inputs": [
        {
          "indexed": true,
          "internalType": "address",
          "name": "delegate",
          "type": "address"
        },
        {
          "indexed": true,
          "internalType": "uint256",
          "name": "id",
          "type": "uint256"
        },
        {
          "indexed": false,
          "internalType": "uint256",
          "name": "previousBalance",
          "type": "uint256"
        },
        {
          "indexed": false,
          "internalType": "uint256",
          "name": "newBalance",
          "type": "uint256"
        }
      ],
      "name": "DelegateVotesChanged",
      "type": "event"
    },
    {
      "anonymous": false,
      "inputs": [
        {
          "indexed": false,
          "internalType": "enum Operation",
          "name": "op",
          "type": "uint8"
        },
        {
          "indexed": true,
          "internalType": "address",
          "name": "to",
          "type": "address"
        },
        {
          "indexed": false,
          "internalType": "uint256",
          "name": "value",
          "type": "uint256"
        },
        {
          "indexed": false,
          "internalType": "bytes",
          "name": "data",
          "type": "bytes"
        }
      ],
      "name": "Executed",
      "type": "event"
    },
    {
      "anonymous": false,
      "inputs": [
        {
          "indexed": true,
          "internalType": "address",
          "name": "caller",
          "type": "address"
        },
        {
          "indexed": false,
          "internalType": "uint64",
          "name": "threshold",
          "type": "uint64"
        }
      ],
      "name": "QuorumSet",
      "type": "event"
    },
    {
      "anonymous": false,
      "inputs": [
        {
          "indexed": true,
          "internalType": "address",
          "name": "operator",
          "type": "address"
        },
        {
          "indexed": true,
          "internalType": "uint256",
          "name": "id",
          "type": "uint256"
        },
        {
          "indexed": false,
          "internalType": "bool",
          "name": "transferability",
          "type": "bool"
        }
      ],
      "name": "TokenTransferabilitySet",
      "type": "event"
    },
    {
      "anonymous": false,
      "inputs": [
        {
          "indexed": true,
          "internalType": "address",
          "name": "operator",
          "type": "address"
        },
        {
          "indexed": true,
          "internalType": "address",
          "name": "from",
          "type": "address"
        },
        {
          "indexed": true,
          "internalType": "address",
          "name": "to",
          "type": "address"
        },
        {
          "indexed": false,
          "internalType": "uint256[]",
          "name": "ids",
          "type": "uint256[]"
        },
        {
          "indexed": false,
          "internalType": "uint256[]",
          "name": "amounts",
          "type": "uint256[]"
        }
      ],
      "name": "TransferBatch",
      "type": "event"
    },
    {
      "anonymous": false,
      "inputs": [
        {
          "indexed": true,
          "internalType": "address",
          "name": "operator",
          "type": "address"
        },
        {
          "indexed": true,
          "internalType": "address",
          "name": "from",
          "type": "address"
        },
        {
          "indexed": true,
          "internalType": "address",
          "name": "to",
          "type": "address"
        },
        {
          "indexed": false,
          "internalType": "uint256",
          "name": "id",
          "type": "uint256"
        },
        {
          "indexed": false,
          "internalType": "uint256",
          "name": "amount",
          "type": "uint256"
        }
      ],
      "name": "TransferSingle",
      "type": "event"
    },
    {
      "anonymous": false,
      "inputs": [
        {
          "indexed": false,
          "internalType": "string",
          "name": "value",
          "type": "string"
        },
        {
          "indexed": true,
          "internalType": "uint256",
          "name": "id",
          "type": "uint256"
        }
      ],
      "name": "URI",
      "type": "event"
    },
    {
      "inputs": [],
      "name": "DOMAIN_SEPARATOR",
      "outputs": [
        {
          "internalType": "bytes32",
          "name": "",
          "type": "bytes32"
        }
      ],
      "stateMutability": "view",
      "type": "function"
    },
    {
      "inputs": [
        {
          "internalType": "address",
          "name": "",
          "type": "address"
        },
        {
          "internalType": "uint256",
          "name": "",
          "type": "uint256"
        }
      ],
      "name": "balanceOf",
      "outputs": [
        {
          "internalType": "uint256",
          "name": "",
          "type": "uint256"
        }
      ],
      "stateMutability": "view",
      "type": "function"
    },
    {
      "inputs": [
        {
          "internalType": "address[]",
          "name": "owners",
          "type": "address[]"
        },
        {
          "internalType": "uint256[]",
          "name": "ids",
          "type": "uint256[]"
        }
      ],
      "name": "balanceOfBatch",
      "outputs": [
        {
          "internalType": "uint256[]",
          "name": "balances",
          "type": "uint256[]"
        }
      ],
      "stateMutability": "view",
      "type": "function"
    },
    {
      "inputs": [
        {
          "components": [
            {
              "internalType": "enum Operation",
              "name": "op",
              "type": "uint8"
            },
            {
              "internalType": "address",
              "name": "to",
              "type": "address"
            },
            {
              "internalType": "uint256",
              "name": "value",
              "type": "uint256"
            },
            {
              "internalType": "bytes",
              "name": "data",
              "type": "bytes"
            }
          ],
          "internalType": "struct Call[]",
          "name": "calls",
          "type": "tuple[]"
        }
      ],
      "name": "batchExecute",
      "outputs": [
        {
          "internalType": "bool[]",
          "name": "successes",
          "type": "bool[]"
        }
      ],
      "stateMutability": "payable",
      "type": "function"
    },
    {
      "inputs": [
        {
          "internalType": "address",
          "name": "from",
          "type": "address"
        },
        {
          "internalType": "uint256",
          "name": "id",
          "type": "uint256"
        },
        {
          "internalType": "uint256",
          "name": "amount",
          "type": "uint256"
        }
      ],
      "name": "burn",
      "outputs": [],
      "stateMutability": "payable",
      "type": "function"
    },
    {
      "inputs": [
        {
          "internalType": "address",
          "name": "",
          "type": "address"
        },
        {
          "internalType": "uint256",
          "name": "",
          "type": "uint256"
        },
        {
          "internalType": "uint256",
          "name": "",
          "type": "uint256"
        }
      ],
      "name": "checkpoints",
      "outputs": [
        {
          "internalType": "uint64",
          "name": "fromTimestamp",
          "type": "uint64"
        },
        {
          "internalType": "uint192",
          "name": "votes",
          "type": "uint192"
        }
      ],
      "stateMutability": "view",
      "type": "function"
    },
    {
      "inputs": [
        {
          "internalType": "address",
          "name": "delegatee",
          "type": "address"
        },
        {
          "internalType": "uint256",
          "name": "id",
          "type": "uint256"
        }
      ],
      "name": "delegate",
      "outputs": [],
      "stateMutability": "payable",
      "type": "function"
    },
    {
      "inputs": [
        {
          "internalType": "address",
          "name": "account",
          "type": "address"
        },
        {
          "internalType": "uint256",
          "name": "id",
          "type": "uint256"
        }
      ],
      "name": "delegates",
      "outputs": [
        {
          "internalType": "address",
          "name": "",
          "type": "address"
        }
      ],
      "stateMutability": "view",
      "type": "function"
    },
    {
      "inputs": [
        {
          "internalType": "enum Operation",
          "name": "op",
          "type": "uint8"
        },
        {
          "internalType": "address",
          "name": "to",
          "type": "address"
        },
        {
          "internalType": "uint256",
          "name": "value",
          "type": "uint256"
        },
        {
          "internalType": "bytes",
          "name": "data",
          "type": "bytes"
        },
        {
          "components": [
            {
              "internalType": "uint8",
              "name": "v",
              "type": "uint8"
            },
            {
              "internalType": "bytes32",
              "name": "r",
              "type": "bytes32"
            },
            {
              "internalType": "bytes32",
              "name": "s",
              "type": "bytes32"
            }
          ],
          "internalType": "struct Signature[]",
          "name": "sigs",
          "type": "tuple[]"
        }
      ],
      "name": "execute",
      "outputs": [
        {
          "internalType": "bool",
          "name": "success",
          "type": "bool"
        }
      ],
      "stateMutability": "payable",
      "type": "function"
    },
    {
      "inputs": [
        {
          "internalType": "address",
          "name": "account",
          "type": "address"
        },
        {
          "internalType": "uint256",
          "name": "id",
          "type": "uint256"
        }
      ],
      "name": "getCurrentVotes",
      "outputs": [
        {
          "internalType": "uint256",
          "name": "",
          "type": "uint256"
        }
      ],
      "stateMutability": "view",
      "type": "function"
    },
    {
      "inputs": [
        {
          "internalType": "address",
          "name": "account",
          "type": "address"
        },
        {
          "internalType": "uint256",
          "name": "id",
          "type": "uint256"
        },
        {
          "internalType": "uint256",
          "name": "timestamp",
          "type": "uint256"
        }
      ],
      "name": "getPriorVotes",
      "outputs": [
        {
          "internalType": "uint256",
          "name": "",
          "type": "uint256"
        }
      ],
      "stateMutability": "view",
      "type": "function"
    },
    {
      "inputs": [
        {
          "components": [
            {
              "internalType": "enum Operation",
              "name": "op",
              "type": "uint8"
            },
            {
              "internalType": "address",
              "name": "to",
              "type": "address"
            },
            {
              "internalType": "uint256",
              "name": "value",
              "type": "uint256"
            },
            {
              "internalType": "bytes",
              "name": "data",
              "type": "bytes"
            }
          ],
          "internalType": "struct Call[]",
          "name": "calls",
          "type": "tuple[]"
        },
        {
          "internalType": "address[]",
          "name": "signers",
          "type": "address[]"
        },
        {
          "internalType": "uint256",
          "name": "threshold",
          "type": "uint256"
        }
      ],
      "name": "init",
      "outputs": [],
      "stateMutability": "payable",
      "type": "function"
    },
    {
      "inputs": [
        {
          "internalType": "address",
          "name": "",
          "type": "address"
        },
        {
          "internalType": "address",
          "name": "",
          "type": "address"
        }
      ],
      "name": "isApprovedForAll",
      "outputs": [
        {
          "internalType": "bool",
          "name": "",
          "type": "bool"
        }
      ],
      "stateMutability": "view",
      "type": "function"
    },
    {
      "inputs": [
        {
          "internalType": "address",
          "name": "to",
          "type": "address"
        },
        {
          "internalType": "uint256",
          "name": "id",
          "type": "uint256"
        },
        {
          "internalType": "uint256",
          "name": "amount",
          "type": "uint256"
        },
        {
          "internalType": "bytes",
          "name": "data",
          "type": "bytes"
        }
      ],
      "name": "mint",
      "outputs": [],
      "stateMutability": "payable",
      "type": "function"
    },
    {
      "inputs": [
        {
          "internalType": "bytes[]",
          "name": "data",
          "type": "bytes[]"
        }
      ],
      "name": "multicall",
      "outputs": [
        {
          "internalType": "bytes[]",
          "name": "results",
          "type": "bytes[]"
        }
      ],
      "stateMutability": "payable",
      "type": "function"
    },
    {
      "inputs": [],
      "name": "nonce",
      "outputs": [
        {
          "internalType": "uint32",
          "name": "",
          "type": "uint32"
        }
      ],
      "stateMutability": "view",
      "type": "function"
    },
    {
      "inputs": [
        {
          "internalType": "address",
          "name": "",
          "type": "address"
        },
        {
          "internalType": "uint256",
          "name": "",
          "type": "uint256"
        }
      ],
      "name": "numCheckpoints",
      "outputs": [
        {
          "internalType": "uint256",
          "name": "",
          "type": "uint256"
        }
      ],
      "stateMutability": "view",
      "type": "function"
    },
    {
      "inputs": [
        {
          "internalType": "address",
          "name": "",
          "type": "address"
        },
        {
          "internalType": "address",
          "name": "",
          "type": "address"
        },
        {
          "internalType": "uint256[]",
          "name": "",
          "type": "uint256[]"
        },
        {
          "internalType": "uint256[]",
          "name": "",
          "type": "uint256[]"
        },
        {
          "internalType": "bytes",
          "name": "",
          "type": "bytes"
        }
      ],
      "name": "onERC1155BatchReceived",
      "outputs": [
        {
          "internalType": "bytes4",
          "name": "",
          "type": "bytes4"
        }
      ],
      "stateMutability": "payable",
      "type": "function"
    },
    {
      "inputs": [
        {
          "internalType": "address",
          "name": "",
          "type": "address"
        },
        {
          "internalType": "address",
          "name": "",
          "type": "address"
        },
        {
          "internalType": "uint256",
          "name": "",
          "type": "uint256"
        },
        {
          "internalType": "uint256",
          "name": "",
          "type": "uint256"
        },
        {
          "internalType": "bytes",
          "name": "",
          "type": "bytes"
        }
      ],
      "name": "onERC1155Received",
      "outputs": [
        {
          "internalType": "bytes4",
          "name": "",
          "type": "bytes4"
        }
      ],
      "stateMutability": "payable",
      "type": "function"
    },
    {
      "inputs": [
        {
          "internalType": "address",
          "name": "",
          "type": "address"
        },
        {
          "internalType": "address",
          "name": "",
          "type": "address"
        },
        {
          "internalType": "uint256",
          "name": "",
          "type": "uint256"
        },
        {
          "internalType": "bytes",
          "name": "",
          "type": "bytes"
        }
      ],
      "name": "onERC721Received",
      "outputs": [
        {
          "internalType": "bytes4",
          "name": "",
          "type": "bytes4"
        }
      ],
      "stateMutability": "payable",
      "type": "function"
    },
    {
      "inputs": [],
      "name": "quorum",
      "outputs": [
        {
          "internalType": "uint32",
          "name": "",
          "type": "uint32"
        }
      ],
      "stateMutability": "view",
      "type": "function"
    },
    {
      "inputs": [
        {
          "internalType": "address",
          "name": "from",
          "type": "address"
        },
        {
          "internalType": "address",
          "name": "to",
          "type": "address"
        },
        {
          "internalType": "uint256[]",
          "name": "ids",
          "type": "uint256[]"
        },
        {
          "internalType": "uint256[]",
          "name": "amounts",
          "type": "uint256[]"
        },
        {
          "internalType": "bytes",
          "name": "data",
          "type": "bytes"
        }
      ],
      "name": "safeBatchTransferFrom",
      "outputs": [],
      "stateMutability": "payable",
      "type": "function"
    },
    {
      "inputs": [
        {
          "internalType": "address",
          "name": "from",
          "type": "address"
        },
        {
          "internalType": "address",
          "name": "to",
          "type": "address"
        },
        {
          "internalType": "uint256",
          "name": "id",
          "type": "uint256"
        },
        {
          "internalType": "uint256",
          "name": "amount",
          "type": "uint256"
        },
        {
          "internalType": "bytes",
          "name": "data",
          "type": "bytes"
        }
      ],
      "name": "safeTransferFrom",
      "outputs": [],
      "stateMutability": "payable",
      "type": "function"
    },
    {
      "inputs": [
        {
          "internalType": "address",
          "name": "operator",
          "type": "address"
        },
        {
          "internalType": "bool",
          "name": "approved",
          "type": "bool"
        }
      ],
      "name": "setApprovalForAll",
      "outputs": [],
      "stateMutability": "payable",
      "type": "function"
    },
    {
      "inputs": [
        {
          "internalType": "uint32",
          "name": "threshold",
          "type": "uint32"
        }
      ],
      "name": "setQuorum",
      "outputs": [],
      "stateMutability": "payable",
      "type": "function"
    },
    {
      "inputs": [
        {
          "internalType": "uint256",
          "name": "id",
          "type": "uint256"
        },
        {
          "internalType": "bool",
          "name": "transferability",
          "type": "bool"
        }
      ],
      "name": "setTokenTransferability",
      "outputs": [],
      "stateMutability": "payable",
      "type": "function"
    },
    {
      "inputs": [
        {
          "internalType": "uint256",
          "name": "id",
          "type": "uint256"
        },
        {
          "internalType": "string",
          "name": "tokenURI",
          "type": "string"
        }
      ],
      "name": "setTokenURI",
      "outputs": [],
      "stateMutability": "payable",
      "type": "function"
    },
    {
      "inputs": [
        {
          "internalType": "bytes4",
          "name": "interfaceId",
          "type": "bytes4"
        }
      ],
      "name": "supportsInterface",
      "outputs": [
        {
          "internalType": "bool",
          "name": "",
          "type": "bool"
        }
      ],
      "stateMutability": "view",
      "type": "function"
    },
    {
      "inputs": [
        {
          "internalType": "uint256",
          "name": "",
          "type": "uint256"
        }
      ],
      "name": "totalSupply",
      "outputs": [
        {
          "internalType": "uint256",
          "name": "",
          "type": "uint256"
        }
      ],
      "stateMutability": "view",
      "type": "function"
    },
    {
      "inputs": [
        {
          "internalType": "uint256",
          "name": "",
          "type": "uint256"
        }
      ],
      "name": "transferable",
      "outputs": [
        {
          "internalType": "bool",
          "name": "",
          "type": "bool"
        }
      ],
      "stateMutability": "view",
      "type": "function"
    },
    {
      "inputs": [
        {
          "internalType": "uint256",
          "name": "id",
          "type": "uint256"
        }
      ],
      "name": "uri",
      "outputs": [
        {
          "internalType": "string",
          "name": "",
          "type": "string"
        }
      ],
      "stateMutability": "view",
      "type": "function"
    }
  ],
  "bytecode": {
    "object": "0x608060405234801561001057600080fd5b50613623806100206000396000f3fe6080604052600436106101d75760003560e01c8063807df56d11610102578063bd85b03911610095578063f23a6e6111610064578063f23a6e61146105fb578063f242432a1461061b578063f4c3b4d71461062e578063f5298aca1461065e57600080fd5b8063bd85b0391461056d578063c590e89f1461059a578063e329fed7146105ad578063e985e9c5146105c057600080fd5b8063ac9650d8116100d1578063ac9650d8146104d6578063afa88bca146104f6578063affed0e01461052e578063bc197c811461054b57600080fd5b8063807df56d14610470578063836eebee146104905780638c995b91146104b0578063a22cb465146104c357600080fd5b80631703a0181161017a578063387bbabd11610149578063387bbabd1461039b5780634e1273f41461041d57806354d7926f1461044a578063731133e91461045d57600080fd5b80631703a0181461030157806327dd1b001461033b5780632eb2c2d6146103735780633644e5151461038657600080fd5b8063026e402b116101b6578063026e402b146102745780630e89341c14610289578063150b7a02146102b6578063162094c4146102ee57600080fd5b8062fdd58e146101dc57806301ffc9a714610224578063023e8d8414610254575b600080fd5b3480156101e857600080fd5b506102116101f73660046128f4565b600060208181529281526040808220909352908152205481565b6040519081526020015b60405180910390f35b34801561023057600080fd5b5061024461023f366004612937565b610671565b604051901515815260200161021b565b6102676102623660046129a0565b6106d0565b60405161021b91906129e2565b6102876102823660046128f4565b61087b565b005b34801561029557600080fd5b506102a96102a4366004612a28565b61093e565b60405161021b9190612a99565b6102d56102c4366004612aee565b630a85bd0160e11b95945050505050565b6040516001600160e01b0319909116815260200161021b565b6102876102fc366004612b5d565b6109e0565b34801561030d57600080fd5b5060075461032690640100000000900463ffffffff1681565b60405163ffffffff909116815260200161021b565b34801561034757600080fd5b5061035b6103563660046128f4565b610a63565b6040516001600160a01b03909116815260200161021b565b610287610381366004612ba9565b610aa1565b34801561039257600080fd5b50610211610d4e565b3480156103a757600080fd5b506103f56103b6366004612c64565b600660209081526000938452604080852082529284528284209052825290205467ffffffffffffffff811690600160401b90046001600160c01b031682565b6040805167ffffffffffffffff90931683526001600160c01b0390911660208301520161021b565b34801561042957600080fd5b5061043d610438366004612c97565b610e29565b60405161021b9190612d03565b610287610458366004612d4b565b610f3d565b61028761046b366004612d77565b610fc1565b34801561047c57600080fd5b5061021161048b3660046128f4565b610fff565b34801561049c57600080fd5b506102116104ab366004612c64565b611083565b6102446104be366004612dd1565b6112c8565b6102876104d1366004612e9c565b6116c7565b6104e96104e43660046129a0565b61172c565b60405161021b9190612ec6565b34801561050257600080fd5b506102116105113660046128f4565b600560209081526000928352604080842090915290825290205481565b34801561053a57600080fd5b506007546103269063ffffffff1681565b6102d5610559366004612ba9565b63bc197c8160e01b98975050505050505050565b34801561057957600080fd5b50610211610588366004612a28565b60036020526000908152604090205481565b6102876105a8366004612f28565b611895565b6102876105bb366004612f9c565b611be3565b3480156105cc57600080fd5b506102446105db366004612fc2565b600160209081526000928352604080842090915290825290205460ff1681565b6102d5610609366004612fec565b63f23a6e6160e01b9695505050505050565b610287610629366004612fec565b611ccd565b34801561063a57600080fd5b50610244610649366004612a28565b60026020526000908152604090205460ff1681565b61028761066c366004612c64565b611ee5565b60006001600160e01b03198216630a85bd0160e11b14806106bb57507f4e2312e0000000000000000000000000000000000000000000000000000000006001600160e01b03198316145b806106ca57506106ca82612006565b92915050565b60606106fb7f023e8d840000000000000000000000000000000000000000000000000000000061209f565b508167ffffffffffffffff81111561071557610715613064565b60405190808252806020026020018201604052801561073e578160200160208202803683370190505b50905060005b828110156108745761084a8484838181106107615761076161307a565b90506020028101906107739190613090565b6107819060208101906130b0565b8585848181106107935761079361307a565b90506020028101906107a59190613090565b6107b69060408101906020016130cb565b8686858181106107c8576107c861307a565b90506020028101906107da9190613090565b604001358787868181106107f0576107f061307a565b90506020028101906108029190613090565b6108109060608101906130e6565b8080601f0160208091040260200160405190810160405280939291908181526020018383808284376000920191909152506120f192505050565b82828151811061085c5761085c61307a565b91151560209283029190910190910152600101610744565b5092915050565b60006108873383610a63565b33600081815260046020908152604080832087845282529182902080547fffffffffffffffffffffffff0000000000000000000000000000000000000000166001600160a01b038981169182179092559251878152949550919391851692917f287e04de574701d97a55bd9ea85b32defecf76a607b8007ee9ae8c126bf7a746910160405180910390a4336000908152602081815260408083208584529091529020546109399082908590859061230f565b505050565b600081815260096020526040902080546060919061095b9061312d565b80601f01602080910402602001604051908101604052809291908181526020018280546109879061312d565b80156109d45780601f106109a9576101008083540402835291602001916109d4565b820191906000526020600020905b8154815290600101906020018083116109b757829003601f168201915b50505050509050919050565b610a097f162094c40000000000000000000000000000000000000000000000000000000061209f565b506000838152600960205260409020610a238284836131ad565b50827f6bb7ff708619ba0610cba295a58592e0451dee2622938c8755667688daf3529b8383604051610a56929190613296565b60405180910390a2505050565b6001600160a01b0380831660009081526004602090815260408083208584529091528120549091168015610a975780610a99565b835b949350505050565b848314610ac15760405163899ef10d60e01b815260040160405180910390fd5b336001600160a01b03891614801590610afe57506001600160a01b038816600090815260016020908152604080832033845290915290205460ff16155b15610b1c57604051633d83866f60e01b815260040160405180910390fd5b60008060005b87811015610c1c57888882818110610b3c57610b3c61307a565b905060200201359250868682818110610b5757610b5761307a565b6000868152600260209081526040909120549102929092013593505060ff16610b9357604051634f8cca5b60e11b815260040160405180910390fd5b6001600160a01b038b1660009081526020818152604080832086845290915281208054849290610bc49084906132c0565b90915550506001600160a01b038a1660009081526020818152604080832086845290915290208054830190558215610c1457610c14610c038c85610a63565b610c0d8c86610a63565b858561230f565b600101610b22565b50886001600160a01b03168a6001600160a01b0316336001600160a01b03167f4a39dc06d4c0dbc64b70af90fd698a233a518aa5d07e595d983b8c0526c8f7fb8b8b8b8b604051610c709493929190613326565b60405180910390a46001600160a01b0389163b15610d185760405163bc197c8160e01b808252906001600160a01b038b169063bc197c8190610cc49033908f908e908e908e908e908e908e90600401613358565b6020604051808303816000875af1158015610ce3573d6000803e3d6000fd5b505050506040513d601f19601f82011682018060405250810190610d0791906133ad565b6001600160e01b0319161415610d24565b6001600160a01b038916155b15610d425760405163290802d360e11b815260040160405180910390fd5b50505050505050505050565b60003660011981013560f01c9003600301354614610e225750604080518082018252600881526725b0b634a1b63ab160c11b60209182015281517f8b73c3c69bb8fe3d512ecc4cf759cc79239f7b179b0ffacaa9a75d522b39400f818301527f5b5b1483404ac93e4d9b025a8feb4c5ea9304085ab2e513c578af4cec7eb5319818401527fc89efdaa54c0f20c7adf612882df0950f5a951637e0307cdcb4c672f298b8bc660608201524660808201523060a0808301919091528351808303909101815260c0909101909252815191012090565b5060085490565b6060838214610e4b5760405163899ef10d60e01b815260040160405180910390fd5b8367ffffffffffffffff811115610e6457610e64613064565b604051908082528060200260200182016040528015610e8d578160200160208202803683370190505b50905060005b84811015610f3457600080878784818110610eb057610eb061307a565b9050602002016020810190610ec591906130cb565b6001600160a01b03166001600160a01b031681526020019081526020016000206000858584818110610ef957610ef961307a565b90506020020135815260200190815260200160002054828281518110610f2157610f2161307a565b6020908102919091010152600101610e93565b50949350505050565b610f667f54d7926f0000000000000000000000000000000000000000000000000000000061209f565b50600082815260026020908152604091829020805460ff19168415159081179091559151918252839133917f92d6650e3daf0c48674c410d3d8a281fe4d48a5a2236fe505d38e4da2112008791015b60405180910390a35050565b610fea7f731133e90000000000000000000000000000000000000000000000000000000061209f565b50610ff885858585856124a1565b5050505050565b6001600160a01b0382166000908152600560209081526040808320848452909152812054808203611031576000611072565b6001600160a01b0384166000908152600660209081526040808320868452825280832060001985018452909152902054600160401b90046001600160c01b03165b6001600160c01b0316949350505050565b60008142116110be576040517f83aace3d00000000000000000000000000000000000000000000000000000000815260040160405180910390fd5b6001600160a01b0384166000908152600560209081526040808320868452909152812054908190036110f45760009150506112c1565b6001600160a01b038516600090815260066020908152604080832087845282528083206000198501845290915290205467ffffffffffffffff16831061117c576001600160a01b03851660009081526006602090815260408083208784528252808320600019909401835292905220546001600160c01b03600160401b9091041690506112c1565b6001600160a01b0385166000908152600660209081526040808320878452825280832083805290915290205467ffffffffffffffff168310156111c35760009150506112c1565b600060001982015b81811115611281576001600160a01b0387166000908152600660209081526040808320898452825280832060028686030485038085529083529281902081518083019092525467ffffffffffffffff8116808352600160401b9091046001600160c01b0316928201929092529087900361125857602001516001600160c01b031694506112c19350505050565b805167ffffffffffffffff168711156112735781935061127a565b6001820392505b50506111cb565b506001600160a01b038616600090815260066020908152604080832088845282528083209383529290522054600160401b90046001600160c01b03169150505b9392505050565b6000806112d3610d4e565b600754604051611318917f993c8fdfda9d650af97b68e2ae5ff099fc8b92b5b760bd6dc4347d6f89441d19918d918d918d918d918d9163ffffffff1690602001613402565b604051602081830303815290604052805190602001206040516020016113709291907f190100000000000000000000000000000000000000000000000000000000000081526002810192909252602282015260420190565b60408051808303601f190181529190528051602090910120600754909150600090640100000000900463ffffffff16815b818110156116755760006001858989858181106113c0576113c061307a565b6113d69260206060909202019081019150613458565b8a8a868181106113e8576113e861307a565b905060600201602001358b8b878181106114045761140461307a565b9050606002016040013560405160008152602001604052604051611444949392919093845260ff9290921660208401526040830152606082015260800190565b6020604051602081039080840390855afa158015611466573d6000803e3d6000fd5b5050604051601f1901519150506001600160a01b0381163b156115f1577f1626ba7e000000000000000000000000000000000000000000000000000000006001600160a01b038216631626ba7e878b8b878181106114c6576114c661307a565b905060600201602001358c8c888181106114e2576114e261307a565b905060600201604001358d8d898181106114fe576114fe61307a565b6115149260206060909202019081019150613458565b60405160200161155c93929190928352602083019190915260f81b7fff0000000000000000000000000000000000000000000000000000000000000016604082015260410190565b6040516020818303038152906040526040518363ffffffff1660e01b815260040161158892919061347b565b602060405180830381865afa1580156115a5573d6000803e3d6000fd5b505050506040513d601f19601f820116820180604052508101906115c991906133ad565b6001600160e01b031916146115f157604051633ba7c2c960e21b815260040160405180910390fd5b6001600160a01b038116600090815260208181526040808320638c995b9160e01b8452909152812054900361163957604051633ba7c2c960e21b815260040160405180910390fd5b806001600160a01b0316846001600160a01b03161061166b57604051633ba7c2c960e21b815260040160405180910390fd5b92506001016113a1565b506116b88b8b8b8b8b8080601f0160208091040260200160405190810160405280939291908181526020018383808284376000920191909152506120f192505050565b9b9a5050505050505050505050565b3360008181526001602090815260408083206001600160a01b03871680855290835292819020805460ff191686151590811790915590519081529192917f17307eab39ab6107e8899845ad3d59bd9653f200f220920489ca2b5937696c319101610fb5565b60608167ffffffffffffffff81111561174757611747613064565b60405190808252806020026020018201604052801561177a57816020015b60608152602001906001900390816117655790505b50905060005b82811015610874576000803086868581811061179e5761179e61307a565b90506020028101906117b091906130e6565b6040516117be929190613494565b600060405180830381855af49150503d80600081146117f9576040519150601f19603f3d011682016040523d82523d6000602084013e6117fe565b606091505b50915091508161186d5760448151101561181757600080fd5b6004810190508080602001905181019061183191906134a4565b6040517f08c379a00000000000000000000000000000000000000000000000000000000081526004016118649190612a99565b60405180910390fd5b808484815181106118805761188061307a565b60209081029190910101525050600101611780565b60075463ffffffff16156118d5576040517fb2c6f10f00000000000000000000000000000000000000000000000000000000815260040160405180910390fd5b806118df57600080fd5b8181111561190057604051631534858160e01b815260040160405180910390fd5b83156119c05760005b848110156119be576119b58686838181106119265761192661307a565b90506020028101906119389190613090565b6119469060208101906130b0565b8787848181106119585761195861307a565b905060200281019061196a9190613090565b61197b9060408101906020016130cb565b88888581811061198d5761198d61307a565b905060200281019061199f9190613090565b604001358989868181106107f0576107f061307a565b50600101611909565b505b6000806000805b85811015611aad578686828181106119e1576119e161307a565b90506020020160208101906119f691906130cb565b9350836001600160a01b0316836001600160a01b031610611a2a57604051633ba7c2c960e21b815260040160405180910390fd5b6001600160a01b038416600081815260208181526040808320638c995b9160e01b8085529252808320805460019081019091559051889750958101959481019433927fc3d58168c5ae7397731d063d5bbf3d657854427343f4c083240f7aacaa2d0f6292611aa092918252602082015260400190565b60405180910390a46119c7565b506007805463ffffffff86166401000000000267ffffffffffffffff19909116176001179055638c995b9160e01b60005260036020526fffffffffffffffffffffffffffffffff81167f9a8835d54467235524534f0e45c3073a7dc3fa8203fd91cf25b3afd01636d25e55611bd6604080518082018252600881526725b0b634a1b63ab160c11b60209182015281517f8b73c3c69bb8fe3d512ecc4cf759cc79239f7b179b0ffacaa9a75d522b39400f818301527f5b5b1483404ac93e4d9b025a8feb4c5ea9304085ab2e513c578af4cec7eb5319818401527fc89efdaa54c0f20c7adf612882df0950f5a951637e0307cdcb4c672f298b8bc660608201524660808201523060a0808301919091528351808303909101815260c0909101909252815191012090565b6008555050505050505050565b611c0c7fe329fed70000000000000000000000000000000000000000000000000000000061209f565b5080611c1757600080fd5b638c995b9160e01b60005260036020527f9a8835d54467235524534f0e45c3073a7dc3fa8203fd91cf25b3afd01636d25e5463ffffffff82161115611c6f57604051631534858160e01b815260040160405180910390fd5b6007805467ffffffff00000000191664010000000063ffffffff84169081029190911790915560405190815233907f54e7ed672a68dee1fe4f4da8b306a8318894dd65c07123309467447ed34b1aa19060200160405180910390a250565b336001600160a01b03871614801590611d0a57506001600160a01b038616600090815260016020908152604080832033845290915290205460ff16155b15611d2857604051633d83866f60e01b815260040160405180910390fd5b60008481526002602052604090205460ff16611d5757604051634f8cca5b60e11b815260040160405180910390fd5b6001600160a01b03861660009081526020818152604080832087845290915281208054859290611d889084906132c0565b90915550506001600160a01b038581166000818152602081815260408083208984528252918290208054880190558151888152908101879052919289169133917fc3d58168c5ae7397731d063d5bbf3d657854427343f4c083240f7aacaa2d0f62910160405180910390a46001600160a01b0385163b15611e8f5760405163f23a6e6160e01b808252906001600160a01b0387169063f23a6e6190611e3b9033908b908a908a908a908a90600401613546565b6020604051808303816000875af1158015611e5a573d6000803e3d6000fd5b505050506040513d601f19601f82011682018060405250810190611e7e91906133ad565b6001600160e01b0319161415611e9b565b6001600160a01b038516155b15611eb95760405163290802d360e11b815260040160405180910390fd5b8315611edd57611edd611ecc8786610a63565b611ed68787610a63565b868661230f565b505050505050565b336001600160a01b03841614801590611f2257506001600160a01b038316600090815260016020908152604080832033845290915290205460ff16155b8015611f545750611f527ff5298aca0000000000000000000000000000000000000000000000000000000061209f565b155b15611f7257604051633d83866f60e01b815260040160405180910390fd5b611f7d8383836125f9565b7f7366a46f00000000000000000000000000000000000000000000000000000000820161093957638c995b9160e01b60005260036020527f9a8835d54467235524534f0e45c3073a7dc3fa8203fd91cf25b3afd01636d25e54600754640100000000900463ffffffff16111561093957604051631534858160e01b815260040160405180910390fd5b60006001600160e01b031982167f01ffc9a700000000000000000000000000000000000000000000000000000000148061206957507fd9b67a26000000000000000000000000000000000000000000000000000000006001600160e01b03198316145b806106ca5750506001600160e01b0319167f0e89341c000000000000000000000000000000000000000000000000000000001490565b6000333014806120c657503360009081526020818152604080832085845290915290205415155b156120d357506001919050565b604051633d83866f60e01b815260040160405180910390fd5b919050565b6007805463ffffffff8082166001011663ffffffff19909116179055600080856003811115612122576121226133ca565b0361219e5760008083516020850186885af190508061215457604051633c47f9b560e21b815260040160405180910390fd5b836001600160a01b03167ffa3c55dc43f5cfdeb2abee243c63ad490db2fee39fd127076ed9e7afa15ad6388685856040516121919392919061358b565b60405180910390a2610a99565b60018560038111156121b2576121b26133ca565b036121e357600080835160208501875af490508061215457604051633c47f9b560e21b815260040160405180910390fd5b60028560038111156121f7576121f76133ca565b0361227857600082516020840185f090506001600160a01b03811661222f57604051633c47f9b560e21b815260040160405180910390fd5b806001600160a01b03167fd187b7c22150909fa5ee0d652f5966e66148500fabe5615b1079e7ef39fe3fb7878660405161226a9291906135ba565b60405180910390a250610a99565b6000808560601b6bffffffffffffffffffffffff191690508084518560200187f591506001600160a01b0382166122c257604051633c47f9b560e21b815260040160405180910390fd5b816001600160a01b03167fd187b7c22150909fa5ee0d652f5966e66148500fabe5615b1079e7ef39fe3fb788876040516122fd9291906135ba565b60405180910390a25050949350505050565b826001600160a01b0316846001600160a01b03161415801561233057508015155b1561249b576001600160a01b038416156123ec576001600160a01b0384166000908152600560209081526040808320858452909152812054908181036123775760006123c8565b6001600160a01b03861660009081526006602090815260408083208784529091528120906123a66001856132c0565b8152602081019190915260400160002054600160401b90046001600160c01b03165b6001600160c01b031690506123e9868584846123e488826132c0565b6126a0565b50505b6001600160a01b0383161561249b576001600160a01b03831660009081526005602090815260408083208584529091528120549081810361242e57600061247f565b6001600160a01b038516600090815260066020908152604080832087845290915281209061245d6001856132c0565b8152602081019190915260400160002054600160401b90046001600160c01b03165b6001600160c01b03169050611edd858584846123e488826135d5565b50505050565b600084815260036020526040812080548592906124bf9084906135d5565b90915550506001600160a01b0385166000818152602081815260408083208884528252808320805488019055805188815291820187905233917fc3d58168c5ae7397731d063d5bbf3d657854427343f4c083240f7aacaa2d0f62910160405180910390a46001600160a01b0385163b156125c05760405163f23a6e6160e01b808252906001600160a01b0387169063f23a6e619061256c9033906000908a908a908a908a90600401613546565b6020604051808303816000875af115801561258b573d6000803e3d6000fd5b505050506040513d601f19601f820116820180604052508101906125af91906133ad565b6001600160e01b03191614156125cc565b6001600160a01b038516155b156125ea5760405163290802d360e11b815260040160405180910390fd5b610ff86000611ed68787610a63565b6001600160a01b0383166000908152602081815260408083208584529091528120805483929061262a9084906132c0565b909155505060008281526003602090815260408083208054859003905580518581529182018490526001600160a01b0386169133917fc3d58168c5ae7397731d063d5bbf3d657854427343f4c083240f7aacaa2d0f62910160405180910390a46109396126978484610a63565b6000848461230f565b60006126ab42612844565b905083158015906126f757506001600160a01b038616600090815260066020908152604080832088845282528083206000198801845290915290205467ffffffffffffffff8281169116145b1561275f5761270582612888565b6001600160a01b0387166000908152600660209081526040808320898452825280832060001989018452909152902080546001600160c01b0392909216600160401b0267ffffffffffffffff9092169190911790556127f6565b60405180604001604052808267ffffffffffffffff16815260200161278384612888565b6001600160c01b039081169091526001600160a01b03881660008181526006602090815260408083208b845282528083208a84528252808320865196830151909516600160401b0267ffffffffffffffff9096169590951790935590815260058252828120888252909152206001850190555b50604080518381526020810183905285916001600160a01b038816917f21a99d51b8a0a2e2ead709843a1ecfaab977908135cf1c085c0a6246eea6e0f0910160405180910390a35050505050565b6000600160401b821115612884576040517f5b7f254e00000000000000000000000000000000000000000000000000000000815260040160405180910390fd5b5090565b60007801000000000000000000000000000000000000000000000000821115612884576040517fd5e0d1b200000000000000000000000000000000000000000000000000000000815260040160405180910390fd5b80356001600160a01b03811681146120ec57600080fd5b6000806040838503121561290757600080fd5b612910836128dd565b946020939093013593505050565b6001600160e01b03198116811461293457600080fd5b50565b60006020828403121561294957600080fd5b81356112c18161291e565b60008083601f84011261296657600080fd5b50813567ffffffffffffffff81111561297e57600080fd5b6020830191508360208260051b850101111561299957600080fd5b9250929050565b600080602083850312156129b357600080fd5b823567ffffffffffffffff8111156129ca57600080fd5b6129d685828601612954565b90969095509350505050565b6020808252825182820181905260009190848201906040850190845b81811015612a1c5783511515835292840192918401916001016129fe565b50909695505050505050565b600060208284031215612a3a57600080fd5b5035919050565b60005b83811015612a5c578181015183820152602001612a44565b8381111561249b5750506000910152565b60008151808452612a85816020860160208601612a41565b601f01601f19169290920160200192915050565b6020815260006112c16020830184612a6d565b60008083601f840112612abe57600080fd5b50813567ffffffffffffffff811115612ad657600080fd5b60208301915083602082850101111561299957600080fd5b600080600080600060808688031215612b0657600080fd5b612b0f866128dd565b9450612b1d602087016128dd565b935060408601359250606086013567ffffffffffffffff811115612b4057600080fd5b612b4c88828901612aac565b969995985093965092949392505050565b600080600060408486031215612b7257600080fd5b83359250602084013567ffffffffffffffff811115612b9057600080fd5b612b9c86828701612aac565b9497909650939450505050565b60008060008060008060008060a0898b031215612bc557600080fd5b612bce896128dd565b9750612bdc60208a016128dd565b9650604089013567ffffffffffffffff80821115612bf957600080fd5b612c058c838d01612954565b909850965060608b0135915080821115612c1e57600080fd5b612c2a8c838d01612954565b909650945060808b0135915080821115612c4357600080fd5b50612c508b828c01612aac565b999c989b5096995094979396929594505050565b600080600060608486031215612c7957600080fd5b612c82846128dd565b95602085013595506040909401359392505050565b60008060008060408587031215612cad57600080fd5b843567ffffffffffffffff80821115612cc557600080fd5b612cd188838901612954565b90965094506020870135915080821115612cea57600080fd5b50612cf787828801612954565b95989497509550505050565b6020808252825182820181905260009190848201906040850190845b81811015612a1c57835183529284019291840191600101612d1f565b803580151581146120ec57600080fd5b60008060408385031215612d5e57600080fd5b82359150612d6e60208401612d3b565b90509250929050565b600080600080600060808688031215612d8f57600080fd5b612d98866128dd565b94506020860135935060408601359250606086013567ffffffffffffffff811115612b4057600080fd5b8035600481106120ec57600080fd5b600080600080600080600060a0888a031215612dec57600080fd5b612df588612dc2565b9650612e03602089016128dd565b955060408801359450606088013567ffffffffffffffff80821115612e2757600080fd5b612e338b838c01612aac565b909650945060808a0135915080821115612e4c57600080fd5b818a0191508a601f830112612e6057600080fd5b813581811115612e6f57600080fd5b8b6020606083028501011115612e8457600080fd5b60208301945080935050505092959891949750929550565b60008060408385031215612eaf57600080fd5b612eb8836128dd565b9150612d6e60208401612d3b565b6000602080830181845280855180835260408601915060408160051b870101925083870160005b82811015612f1b57603f19888603018452612f09858351612a6d565b94509285019290850190600101612eed565b5092979650505050505050565b600080600080600060608688031215612f4057600080fd5b853567ffffffffffffffff80821115612f5857600080fd5b612f6489838a01612954565b90975095506020880135915080821115612f7d57600080fd5b50612f8a88828901612954565b96999598509660400135949350505050565b600060208284031215612fae57600080fd5b813563ffffffff811681146112c157600080fd5b60008060408385031215612fd557600080fd5b612fde836128dd565b9150612d6e602084016128dd565b60008060008060008060a0878903121561300557600080fd5b61300e876128dd565b955061301c602088016128dd565b94506040870135935060608701359250608087013567ffffffffffffffff81111561304657600080fd5b61305289828a01612aac565b979a9699509497509295939492505050565b634e487b7160e01b600052604160045260246000fd5b634e487b7160e01b600052603260045260246000fd5b60008235607e198336030181126130a657600080fd5b9190910192915050565b6000602082840312156130c257600080fd5b6112c182612dc2565b6000602082840312156130dd57600080fd5b6112c1826128dd565b6000808335601e198436030181126130fd57600080fd5b83018035915067ffffffffffffffff82111561311857600080fd5b60200191503681900382131561299957600080fd5b600181811c9082168061314157607f821691505b60208210810361316157634e487b7160e01b600052602260045260246000fd5b50919050565b601f82111561093957600081815260208120601f850160051c8101602086101561318e5750805b601f850160051c820191505b81811015611edd5782815560010161319a565b67ffffffffffffffff8311156131c5576131c5613064565b6131d9836131d3835461312d565b83613167565b6000601f84116001811461320d57600085156131f55750838201355b600019600387901b1c1916600186901b178355610ff8565b600083815260209020601f19861690835b8281101561323e578685013582556020948501946001909201910161321e565b508682101561325b5760001960f88860031b161c19848701351681555b505060018560011b0183555050505050565b81835281816020850137506000828201602090810191909152601f909101601f19169091010190565b602081526000610a9960208301848661326d565b634e487b7160e01b600052601160045260246000fd5b6000828210156132d2576132d26132aa565b500390565b81835260007f07ffffffffffffffffffffffffffffffffffffffffffffffffffffffffffffff83111561330957600080fd5b8260051b8083602087013760009401602001938452509192915050565b60408152600061333a6040830186886132d7565b828103602084015261334d8185876132d7565b979650505050505050565b60006001600160a01b03808b168352808a1660208401525060a0604083015261338560a08301888a6132d7565b82810360608401526133988187896132d7565b905082810360808401526116b881858761326d565b6000602082840312156133bf57600080fd5b81516112c18161291e565b634e487b7160e01b600052602160045260246000fd5b600481106133fe57634e487b7160e01b600052602160045260246000fd5b9052565b87815261341260208201886133e0565b6001600160a01b038616604082015284606082015260c06080820152600061343e60c08301858761326d565b905063ffffffff831660a083015298975050505050505050565b60006020828403121561346a57600080fd5b813560ff811681146112c157600080fd5b828152604060208201526000610a996040830184612a6d565b8183823760009101908152919050565b6000602082840312156134b657600080fd5b815167ffffffffffffffff808211156134ce57600080fd5b818401915084601f8301126134e257600080fd5b8151818111156134f4576134f4613064565b604051601f8201601f19908116603f0116810190838211818310171561351c5761351c613064565b8160405282815287602084870101111561353557600080fd5b61334d836020830160208801612a41565b60006001600160a01b03808916835280881660208401525085604083015284606083015260a0608083015261357f60a08301848661326d565b98975050505050505050565b61359581856133e0565b8260208201526060604082015260006135b16060830184612a6d565b95945050505050565b604081016135c882856133e0565b8260208301529392505050565b600082198211156135e8576135e86132aa565b50019056fea2646970667358221220d5c0d0463731e41801aa007e32c26a1b0799a49d04f0cf48e1fd82ae411e65a164736f6c634300080f0033",
    "linkReferences": {}
  }
}