{
  "abi": [
    {
      "inputs": [
        {
          "internalType": "contract KaliClub",
          "name": "_uriFetcher",
          "type": "address"
        }
      ],
      "stateMutability": "payable",
      "type": "constructor"
    },
    {
      "inputs": [],
      "name": "ALREADY_INIT",
      "type": "error"
    },
    {
      "inputs": [],
      "name": "EXECUTE_FAILED",
      "type": "error"
    },
    {
      "inputs": [],
      "name": "INVALID_RECIPIENT",
      "type": "error"
    },
    {
      "inputs": [],
      "name": "INVALID_SIG",
      "type": "error"
    },
    {
      "inputs": [],
      "name": "LENGTH_MISMATCH",
      "type": "error"
    },
    {
      "inputs": [],
      "name": "NONTRANSFERABLE",
      "type": "error"
    },
    {
      "inputs": [],
      "name": "NOT_AUTHORIZED",
      "type": "error"
    },
    {
      "inputs": [],
      "name": "QUORUM_OVER_SUPPLY",
      "type": "error"
    },
    {
      "inputs": [],
      "name": "UINT192_MAX",
      "type": "error"
    },
    {
      "inputs": [],
      "name": "UINT64_MAX",
      "type": "error"
    },
    {
      "inputs": [],
      "name": "UNDETERMINED",
      "type": "error"
    },
    {
      "anonymous": false,
      "inputs": [
        {
          "indexed": true,
          "internalType": "address",
          "name": "to",
          "type": "address"
        }
      ],
      "name": "AdminSet",
      "type": "event"
    },
    {
      "anonymous": false,
      "inputs": [
        {
          "indexed": true,
          "internalType": "address",
          "name": "owner",
          "type": "address"
        },
        {
          "indexed": true,
          "internalType": "address",
          "name": "operator",
          "type": "address"
        },
        {
          "indexed": false,
          "internalType": "bool",
          "name": "approved",
          "type": "bool"
        }
      ],
      "name": "ApprovalForAll",
      "type": "event"
    },
    {
      "anonymous": false,
      "inputs": [
        {
          "indexed": true,
          "internalType": "address",
          "name": "delegator",
          "type": "address"
        },
        {
          "indexed": false,
          "internalType": "uint256",
          "name": "id",
          "type": "uint256"
        },
        {
          "indexed": true,
          "internalType": "address",
          "name": "fromDelegate",
          "type": "address"
        },
        {
          "indexed": true,
          "internalType": "address",
          "name": "toDelegate",
          "type": "address"
        }
      ],
      "name": "DelegateChanged",
      "type": "event"
    },
    {
      "anonymous": false,
      "inputs": [
        {
          "indexed": true,
          "internalType": "address",
          "name": "delegate",
          "type": "address"
        },
        {
          "indexed": false,
          "internalType": "uint256",
          "name": "id",
          "type": "uint256"
        },
        {
          "indexed": false,
          "internalType": "uint256",
          "name": "previousBalance",
          "type": "uint256"
        },
        {
          "indexed": false,
          "internalType": "uint256",
          "name": "newBalance",
          "type": "uint256"
        }
      ],
      "name": "DelegateVotesChanged",
      "type": "event"
    },
    {
      "anonymous": false,
      "inputs": [
        {
          "indexed": false,
          "internalType": "enum Operation",
          "name": "op",
          "type": "uint8"
        },
        {
          "indexed": true,
          "internalType": "address",
          "name": "to",
          "type": "address"
        },
        {
          "indexed": false,
          "internalType": "uint256",
          "name": "value",
          "type": "uint256"
        },
        {
          "indexed": false,
          "internalType": "bytes",
          "name": "data",
          "type": "bytes"
        }
      ],
      "name": "Executed",
      "type": "event"
    },
    {
      "anonymous": false,
      "inputs": [
        {
          "indexed": true,
          "internalType": "address",
          "name": "caller",
          "type": "address"
        },
        {
          "indexed": true,
          "internalType": "address",
          "name": "to",
          "type": "address"
        },
        {
          "indexed": false,
          "internalType": "bool",
          "name": "approve",
          "type": "bool"
        }
      ],
      "name": "GovernanceSet",
      "type": "event"
    },
    {
      "anonymous": false,
      "inputs": [
        {
          "indexed": true,
          "internalType": "address",
          "name": "caller",
          "type": "address"
        },
        {
          "indexed": false,
          "internalType": "uint256",
          "name": "threshold",
          "type": "uint256"
        }
      ],
      "name": "QuorumSet",
      "type": "event"
    },
    {
      "anonymous": false,
      "inputs": [
        {
          "indexed": true,
          "internalType": "address",
          "name": "operator",
          "type": "address"
        },
        {
          "indexed": false,
          "internalType": "uint256",
          "name": "id",
          "type": "uint256"
        },
        {
          "indexed": false,
          "internalType": "bool",
          "name": "transferability",
          "type": "bool"
        }
      ],
      "name": "TokenTransferabilitySet",
      "type": "event"
    },
    {
      "anonymous": false,
      "inputs": [
        {
          "indexed": true,
          "internalType": "address",
          "name": "operator",
          "type": "address"
        },
        {
          "indexed": true,
          "internalType": "address",
          "name": "from",
          "type": "address"
        },
        {
          "indexed": true,
          "internalType": "address",
          "name": "to",
          "type": "address"
        },
        {
          "indexed": false,
          "internalType": "uint256[]",
          "name": "ids",
          "type": "uint256[]"
        },
        {
          "indexed": false,
          "internalType": "uint256[]",
          "name": "amounts",
          "type": "uint256[]"
        }
      ],
      "name": "TransferBatch",
      "type": "event"
    },
    {
      "anonymous": false,
      "inputs": [
        {
          "indexed": true,
          "internalType": "address",
          "name": "operator",
          "type": "address"
        },
        {
          "indexed": true,
          "internalType": "address",
          "name": "from",
          "type": "address"
        },
        {
          "indexed": true,
          "internalType": "address",
          "name": "to",
          "type": "address"
        },
        {
          "indexed": false,
          "internalType": "uint256",
          "name": "id",
          "type": "uint256"
        },
        {
          "indexed": false,
          "internalType": "uint256",
          "name": "amount",
          "type": "uint256"
        }
      ],
      "name": "TransferSingle",
      "type": "event"
    },
    {
      "anonymous": false,
      "inputs": [
        {
          "indexed": false,
          "internalType": "string",
          "name": "value",
          "type": "string"
        },
        {
          "indexed": true,
          "internalType": "uint256",
          "name": "id",
          "type": "uint256"
        }
      ],
      "name": "URI",
      "type": "event"
    },
    {
      "inputs": [],
      "name": "DOMAIN_SEPARATOR",
      "outputs": [
        {
          "internalType": "bytes32",
          "name": "",
          "type": "bytes32"
        }
      ],
      "stateMutability": "view",
      "type": "function"
    },
    {
      "inputs": [
        {
          "internalType": "address",
          "name": "",
          "type": "address"
        }
      ],
      "name": "admin",
      "outputs": [
        {
          "internalType": "bool",
          "name": "",
          "type": "bool"
        }
      ],
      "stateMutability": "view",
      "type": "function"
    },
    {
      "inputs": [
        {
          "internalType": "address",
          "name": "",
          "type": "address"
        },
        {
          "internalType": "uint256",
          "name": "",
          "type": "uint256"
        }
      ],
      "name": "balanceOf",
      "outputs": [
        {
          "internalType": "uint256",
          "name": "",
          "type": "uint256"
        }
      ],
      "stateMutability": "view",
      "type": "function"
    },
    {
      "inputs": [
        {
          "internalType": "address[]",
          "name": "owners",
          "type": "address[]"
        },
        {
          "internalType": "uint256[]",
          "name": "ids",
          "type": "uint256[]"
        }
      ],
      "name": "balanceOfBatch",
      "outputs": [
        {
          "internalType": "uint256[]",
          "name": "balances",
          "type": "uint256[]"
        }
      ],
      "stateMutability": "view",
      "type": "function"
    },
    {
      "inputs": [
        {
          "components": [
            {
              "internalType": "enum Operation",
              "name": "op",
              "type": "uint8"
            },
            {
              "internalType": "address",
              "name": "to",
              "type": "address"
            },
            {
              "internalType": "uint256",
              "name": "value",
              "type": "uint256"
            },
            {
              "internalType": "bytes",
              "name": "data",
              "type": "bytes"
            }
          ],
          "internalType": "struct Call[]",
          "name": "calls",
          "type": "tuple[]"
        }
      ],
      "name": "batchExecute",
      "outputs": [
        {
          "internalType": "bool[]",
          "name": "successes",
          "type": "bool[]"
        }
      ],
      "stateMutability": "payable",
      "type": "function"
    },
    {
      "inputs": [
        {
          "internalType": "address",
          "name": "from",
          "type": "address"
        },
        {
          "internalType": "uint256",
          "name": "id",
          "type": "uint256"
        },
        {
          "internalType": "uint256",
          "name": "amount",
          "type": "uint256"
        }
      ],
      "name": "burn",
      "outputs": [],
      "stateMutability": "payable",
      "type": "function"
    },
    {
      "inputs": [
        {
          "internalType": "address",
          "name": "from",
          "type": "address"
        }
      ],
      "name": "burnSigner",
      "outputs": [],
      "stateMutability": "payable",
      "type": "function"
    },
    {
      "inputs": [
        {
          "internalType": "address",
          "name": "",
          "type": "address"
        },
        {
          "internalType": "uint256",
          "name": "",
          "type": "uint256"
        },
        {
          "internalType": "uint256",
          "name": "",
          "type": "uint256"
        }
      ],
      "name": "checkpoints",
      "outputs": [
        {
          "internalType": "uint64",
          "name": "fromTimestamp",
          "type": "uint64"
        },
        {
          "internalType": "uint192",
          "name": "votes",
          "type": "uint192"
        }
      ],
      "stateMutability": "view",
      "type": "function"
    },
    {
      "inputs": [
        {
          "internalType": "address",
          "name": "account",
          "type": "address"
        },
        {
          "internalType": "uint256",
          "name": "id",
          "type": "uint256"
        }
      ],
      "name": "delegate",
      "outputs": [],
      "stateMutability": "payable",
      "type": "function"
    },
    {
      "inputs": [
        {
          "internalType": "address",
          "name": "account",
          "type": "address"
        },
        {
          "internalType": "uint256",
          "name": "id",
          "type": "uint256"
        }
      ],
      "name": "delegates",
      "outputs": [
        {
          "internalType": "address",
          "name": "",
          "type": "address"
        }
      ],
      "stateMutability": "view",
      "type": "function"
    },
    {
      "inputs": [
        {
          "internalType": "enum Operation",
          "name": "op",
          "type": "uint8"
        },
        {
          "internalType": "address",
          "name": "to",
          "type": "address"
        },
        {
          "internalType": "uint256",
          "name": "value",
          "type": "uint256"
        },
        {
          "internalType": "bytes",
          "name": "data",
          "type": "bytes"
        },
        {
          "components": [
            {
              "internalType": "uint8",
              "name": "v",
              "type": "uint8"
            },
            {
              "internalType": "bytes32",
              "name": "r",
              "type": "bytes32"
            },
            {
              "internalType": "bytes32",
              "name": "s",
              "type": "bytes32"
            }
          ],
          "internalType": "struct Signature[]",
          "name": "sigs",
          "type": "tuple[]"
        }
      ],
      "name": "execute",
      "outputs": [
        {
          "internalType": "bool",
          "name": "success",
          "type": "bool"
        }
      ],
      "stateMutability": "payable",
      "type": "function"
    },
    {
      "inputs": [
        {
          "internalType": "address",
          "name": "account",
          "type": "address"
        },
        {
          "internalType": "uint256",
          "name": "id",
          "type": "uint256"
        }
      ],
      "name": "getCurrentVotes",
      "outputs": [
        {
          "internalType": "uint256",
          "name": "",
          "type": "uint256"
        }
      ],
      "stateMutability": "view",
      "type": "function"
    },
    {
      "inputs": [
        {
          "internalType": "enum Operation",
          "name": "op",
          "type": "uint8"
        },
        {
          "internalType": "address",
          "name": "to",
          "type": "address"
        },
        {
          "internalType": "uint256",
          "name": "value",
          "type": "uint256"
        },
        {
          "internalType": "bytes",
          "name": "data",
          "type": "bytes"
        },
        {
          "internalType": "uint256",
          "name": "txNonce",
          "type": "uint256"
        }
      ],
      "name": "getDigest",
      "outputs": [
        {
          "internalType": "bytes32",
          "name": "",
          "type": "bytes32"
        }
      ],
      "stateMutability": "view",
      "type": "function"
    },
    {
      "inputs": [
        {
          "internalType": "address",
          "name": "account",
          "type": "address"
        },
        {
          "internalType": "uint256",
          "name": "id",
          "type": "uint256"
        },
        {
          "internalType": "uint256",
          "name": "timestamp",
          "type": "uint256"
        }
      ],
      "name": "getPriorVotes",
      "outputs": [
        {
          "internalType": "uint256",
          "name": "",
          "type": "uint256"
        }
      ],
      "stateMutability": "view",
      "type": "function"
    },
    {
      "inputs": [
        {
          "internalType": "address",
          "name": "",
          "type": "address"
        }
      ],
      "name": "governance",
      "outputs": [
        {
          "internalType": "bool",
          "name": "",
          "type": "bool"
        }
      ],
      "stateMutability": "view",
      "type": "function"
    },
    {
      "inputs": [
        {
          "components": [
            {
              "internalType": "enum Operation",
              "name": "op",
              "type": "uint8"
            },
            {
              "internalType": "address",
              "name": "to",
              "type": "address"
            },
            {
              "internalType": "uint256",
              "name": "value",
              "type": "uint256"
            },
            {
              "internalType": "bytes",
              "name": "data",
              "type": "bytes"
            }
          ],
          "internalType": "struct Call[]",
          "name": "calls",
          "type": "tuple[]"
        },
        {
          "internalType": "address[]",
          "name": "signers",
          "type": "address[]"
        },
        {
          "internalType": "uint256",
          "name": "threshold",
          "type": "uint256"
        }
      ],
      "name": "init",
      "outputs": [],
      "stateMutability": "payable",
      "type": "function"
    },
    {
      "inputs": [
        {
          "internalType": "address",
          "name": "",
          "type": "address"
        },
        {
          "internalType": "address",
          "name": "",
          "type": "address"
        }
      ],
      "name": "isApprovedForAll",
      "outputs": [
        {
          "internalType": "bool",
          "name": "",
          "type": "bool"
        }
      ],
      "stateMutability": "view",
      "type": "function"
    },
    {
      "inputs": [
        {
          "internalType": "address",
          "name": "to",
          "type": "address"
        },
        {
          "internalType": "uint256",
          "name": "id",
          "type": "uint256"
        },
        {
          "internalType": "uint256",
          "name": "amount",
          "type": "uint256"
        },
        {
          "internalType": "bytes",
          "name": "data",
          "type": "bytes"
        }
      ],
      "name": "mint",
      "outputs": [],
      "stateMutability": "payable",
      "type": "function"
    },
    {
      "inputs": [
        {
          "internalType": "address",
          "name": "to",
          "type": "address"
        }
      ],
      "name": "mintSigner",
      "outputs": [],
      "stateMutability": "payable",
      "type": "function"
    },
    {
      "inputs": [
        {
          "internalType": "bytes[]",
          "name": "data",
          "type": "bytes[]"
        }
      ],
      "name": "multicall",
      "outputs": [
        {
          "internalType": "bytes[]",
          "name": "results",
          "type": "bytes[]"
        }
      ],
      "stateMutability": "payable",
      "type": "function"
    },
    {
      "inputs": [],
      "name": "nonce",
      "outputs": [
        {
          "internalType": "uint64",
          "name": "",
          "type": "uint64"
        }
      ],
      "stateMutability": "view",
      "type": "function"
    },
    {
      "inputs": [
        {
          "internalType": "address",
          "name": "",
          "type": "address"
        },
        {
          "internalType": "uint256",
          "name": "",
          "type": "uint256"
        }
      ],
      "name": "numCheckpoints",
      "outputs": [
        {
          "internalType": "uint256",
          "name": "",
          "type": "uint256"
        }
      ],
      "stateMutability": "view",
      "type": "function"
    },
    {
      "inputs": [
        {
          "internalType": "address",
          "name": "",
          "type": "address"
        },
        {
          "internalType": "address",
          "name": "",
          "type": "address"
        },
        {
          "internalType": "uint256[]",
          "name": "",
          "type": "uint256[]"
        },
        {
          "internalType": "uint256[]",
          "name": "",
          "type": "uint256[]"
        },
        {
          "internalType": "bytes",
          "name": "",
          "type": "bytes"
        }
      ],
      "name": "onERC1155BatchReceived",
      "outputs": [
        {
          "internalType": "bytes4",
          "name": "",
          "type": "bytes4"
        }
      ],
      "stateMutability": "pure",
      "type": "function"
    },
    {
      "inputs": [
        {
          "internalType": "address",
          "name": "",
          "type": "address"
        },
        {
          "internalType": "address",
          "name": "",
          "type": "address"
        },
        {
          "internalType": "uint256",
          "name": "",
          "type": "uint256"
        },
        {
          "internalType": "uint256",
          "name": "",
          "type": "uint256"
        },
        {
          "internalType": "bytes",
          "name": "",
          "type": "bytes"
        }
      ],
      "name": "onERC1155Received",
      "outputs": [
        {
          "internalType": "bytes4",
          "name": "",
          "type": "bytes4"
        }
      ],
      "stateMutability": "pure",
      "type": "function"
    },
    {
      "inputs": [
        {
          "internalType": "address",
          "name": "",
          "type": "address"
        },
        {
          "internalType": "address",
          "name": "",
          "type": "address"
        },
        {
          "internalType": "uint256",
          "name": "",
          "type": "uint256"
        },
        {
          "internalType": "bytes",
          "name": "",
          "type": "bytes"
        }
      ],
      "name": "onERC721Received",
      "outputs": [
        {
          "internalType": "bytes4",
          "name": "",
          "type": "bytes4"
        }
      ],
      "stateMutability": "pure",
      "type": "function"
    },
    {
      "inputs": [],
      "name": "quorum",
      "outputs": [
        {
          "internalType": "uint64",
          "name": "",
          "type": "uint64"
        }
      ],
      "stateMutability": "view",
      "type": "function"
    },
    {
      "inputs": [
        {
          "internalType": "address",
          "name": "from",
          "type": "address"
        },
        {
          "internalType": "address",
          "name": "to",
          "type": "address"
        },
        {
          "internalType": "uint256[]",
          "name": "ids",
          "type": "uint256[]"
        },
        {
          "internalType": "uint256[]",
          "name": "amounts",
          "type": "uint256[]"
        },
        {
          "internalType": "bytes",
          "name": "data",
          "type": "bytes"
        }
      ],
      "name": "safeBatchTransferFrom",
      "outputs": [],
      "stateMutability": "payable",
      "type": "function"
    },
    {
      "inputs": [
        {
          "internalType": "address",
          "name": "from",
          "type": "address"
        },
        {
          "internalType": "address",
          "name": "to",
          "type": "address"
        },
        {
          "internalType": "uint256",
          "name": "id",
          "type": "uint256"
        },
        {
          "internalType": "uint256",
          "name": "amount",
          "type": "uint256"
        },
        {
          "internalType": "bytes",
          "name": "data",
          "type": "bytes"
        }
      ],
      "name": "safeTransferFrom",
      "outputs": [],
      "stateMutability": "payable",
      "type": "function"
    },
    {
      "inputs": [
        {
          "internalType": "address",
          "name": "to",
          "type": "address"
        }
      ],
      "name": "setAdmin",
      "outputs": [],
      "stateMutability": "payable",
      "type": "function"
    },
    {
      "inputs": [
        {
          "internalType": "address",
          "name": "operator",
          "type": "address"
        },
        {
          "internalType": "bool",
          "name": "approved",
          "type": "bool"
        }
      ],
      "name": "setApprovalForAll",
      "outputs": [],
      "stateMutability": "payable",
      "type": "function"
    },
    {
      "inputs": [
        {
          "internalType": "address",
          "name": "to",
          "type": "address"
        },
        {
          "internalType": "bool",
          "name": "approve",
          "type": "bool"
        }
      ],
      "name": "setGovernance",
      "outputs": [],
      "stateMutability": "payable",
      "type": "function"
    },
    {
      "inputs": [
        {
          "internalType": "uint256",
          "name": "threshold",
          "type": "uint256"
        }
      ],
      "name": "setQuorum",
      "outputs": [],
      "stateMutability": "payable",
      "type": "function"
    },
    {
      "inputs": [
        {
          "internalType": "uint256",
          "name": "id",
          "type": "uint256"
        },
        {
          "internalType": "bool",
          "name": "transferability",
          "type": "bool"
        }
      ],
      "name": "setTokenTransferability",
      "outputs": [],
      "stateMutability": "payable",
      "type": "function"
    },
    {
      "inputs": [
        {
          "internalType": "uint256",
          "name": "id",
          "type": "uint256"
        },
        {
          "internalType": "string",
          "name": "tokenURI",
          "type": "string"
        }
      ],
      "name": "setTokenURI",
      "outputs": [],
      "stateMutability": "payable",
      "type": "function"
    },
    {
      "inputs": [
        {
          "internalType": "bytes4",
          "name": "interfaceId",
          "type": "bytes4"
        }
      ],
      "name": "supportsInterface",
      "outputs": [
        {
          "internalType": "bool",
          "name": "",
          "type": "bool"
        }
      ],
      "stateMutability": "pure",
      "type": "function"
    },
    {
      "inputs": [],
      "name": "totalSupply",
      "outputs": [
        {
          "internalType": "uint128",
          "name": "",
          "type": "uint128"
        }
      ],
      "stateMutability": "view",
      "type": "function"
    },
    {
      "inputs": [
        {
          "internalType": "uint256",
          "name": "",
          "type": "uint256"
        }
      ],
      "name": "transferable",
      "outputs": [
        {
          "internalType": "bool",
          "name": "",
          "type": "bool"
        }
      ],
      "stateMutability": "view",
      "type": "function"
    },
    {
      "inputs": [
        {
          "internalType": "uint256",
          "name": "id",
          "type": "uint256"
        }
      ],
      "name": "uri",
      "outputs": [
        {
          "internalType": "string",
          "name": "",
          "type": "string"
        }
      ],
      "stateMutability": "view",
      "type": "function"
    }
  ],
  "bytecode": {
    "object": "0x60a060405260405162003c4238038062003c42833981016040819052620000269162000038565b6001600160a01b03166080526200006a565b6000602082840312156200004b57600080fd5b81516001600160a01b03811681146200006357600080fd5b9392505050565b608051613bbc620000866000396000610bcd0152613bbc6000f3fe6080604052600436106102845760003560e01c8063731133e911610153578063b2839f5e116100cb578063e985e9c51161007f578063f242432a11610064578063f242432a14610806578063f4c3b4d714610819578063f5298aca1461084957600080fd5b8063e985e9c51461079e578063f23a6e61146107d957600080fd5b8063c1ba4e59116100b0578063c1ba4e5914610758578063c590e89f1461076b578063d4606ab91461077e57600080fd5b8063b2839f5e14610716578063bc197c811461072957600080fd5b80638c995b9111610122578063ac9650d811610107578063ac9650d81461069d578063afa88bca146106bd578063affed0e0146106f557600080fd5b80638c995b9114610677578063a22cb4651461068a57600080fd5b8063731133e9146105f4578063807df56d14610607578063836eebee146106275780638426e6c11461064757600080fd5b806318160ddd116102015780634e1273f4116101b557806357ac01ad1161019a57806357ac01ad1461059e57806363a846f8146105b1578063704b6c02146105e157600080fd5b80634e1273f41461055e57806354d7926f1461058b57600080fd5b80632eb2c2d6116101e65780632eb2c2d6146104b45780633644e515146104c7578063387bbabd146104dc57600080fd5b806318160ddd1461042b57806327dd1b001461047c57600080fd5b80630e89341c11610258578063158a1ca11161023d578063158a1ca1146103c4578063162094c4146103d75780631703a018146103ea57600080fd5b80630e89341c14610339578063150b7a021461036657600080fd5b8062fdd58e1461028957806301ffc9a7146102d4578063023e8d8414610304578063026e402b14610324575b600080fd5b34801561029557600080fd5b506102c16102a4366004612e46565b600460209081526000928352604080842090915290825290205481565b6040519081526020015b60405180910390f35b3480156102e057600080fd5b506102f46102ef366004612e89565b61085c565b60405190151581526020016102cb565b610317610312366004612ef2565b6108e0565b6040516102cb9190612f34565b610337610332366004612e46565b610abb565b005b34801561034557600080fd5b50610359610354366004612f7a565b610b91565b6040516102cb9190612feb565b34801561037257600080fd5b506103ab610381366004613040565b7f150b7a020000000000000000000000000000000000000000000000000000000095945050505050565b6040516001600160e01b031990911681526020016102cb565b6103376103d23660046130bf565b610ce7565b6103376103e53660046130f2565b610da3565b3480156103f657600080fd5b5060065461041290600160401b900467ffffffffffffffff1681565b60405167ffffffffffffffff90911681526020016102cb565b34801561043757600080fd5b5060065461045b90600160801b90046fffffffffffffffffffffffffffffffff1681565b6040516fffffffffffffffffffffffffffffffff90911681526020016102cb565b34801561048857600080fd5b5061049c610497366004612e46565b610e56565b6040516001600160a01b0390911681526020016102cb565b6103376104c236600461313e565b610e94565b3480156104d357600080fd5b506102c1611150565b3480156104e857600080fd5b506105366104f73660046131f9565b600360209081526000938452604080852082529284528284209052825290205467ffffffffffffffff811690600160401b90046001600160c01b031682565b6040805167ffffffffffffffff90931683526001600160c01b039091166020830152016102cb565b34801561056a57600080fd5b5061057e61057936600461322c565b611230565b6040516102cb9190613298565b6103376105993660046132d0565b611345565b6103376105ac3660046132f3565b6113f8565b3480156105bd57600080fd5b506102f46105cc3660046132f3565b60086020526000908152604090205460ff1681565b6103376105ef3660046132f3565b611539565b61033761060236600461330e565b6115a5565b34801561061357600080fd5b506102c1610622366004612e46565b61161d565b34801561063357600080fd5b506102c16106423660046131f9565b6116a1565b34801561065357600080fd5b506102f46106623660046132f3565b60096020526000908152604090205460ff1681565b6102f4610685366004613368565b6118e6565b6103376106983660046130bf565b611c33565b6106b06106ab366004612ef2565b611c98565b6040516102cb9190613433565b3480156106c957600080fd5b506102c16106d8366004612e46565b600260209081526000928352604080842090915290825290205481565b34801561070157600080fd5b506006546104129067ffffffffffffffff1681565b6103376107243660046132f3565b611e01565b34801561073557600080fd5b506103ab61074436600461313e565b63bc197c8160e01b98975050505050505050565b610337610766366004612f7a565b611eea565b610337610779366004613495565b612002565b34801561078a57600080fd5b506102c1610799366004613509565b612339565b3480156107aa57600080fd5b506102f46107b9366004613580565b600560209081526000928352604080842090915290825290205460ff1681565b3480156107e557600080fd5b506103ab6107f43660046135aa565b63f23a6e6160e01b9695505050505050565b6103376108143660046135aa565b6123fa565b34801561082557600080fd5b506102f4610834366004612f7a565b60006020819052908152604090205460ff1681565b6103376108573660046131f9565b61262f565b60007f01ffc9a7000000000000000000000000000000000000000000000000000000006001600160e01b0319831614806108bf57507fd9b67a26000000000000000000000000000000000000000000000000000000006001600160e01b03198316145b806108da57506303a24d0760e21b6001600160e01b03198316145b92915050565b606033301480159061090257503360009081526009602052604090205460ff16155b801561091e57503360009081526008602052604090205460ff16155b1561093c57604051633d83866f60e01b815260040160405180910390fd5b8167ffffffffffffffff81111561095557610955613622565b60405190808252806020026020018201604052801561097e578160200160208202803683370190505b50905060005b82811015610ab457610a8a8484838181106109a1576109a1613638565b90506020028101906109b3919061364e565b6109c190602081019061366e565b8585848181106109d3576109d3613638565b90506020028101906109e5919061364e565b6109f69060408101906020016132f3565b868685818110610a0857610a08613638565b9050602002810190610a1a919061364e565b60400135878786818110610a3057610a30613638565b9050602002810190610a42919061364e565b610a50906060810190613689565b8080601f0160208091040260200160405190810160405280939291908181526020018383808284376000920191909152506126e892505050565b828281518110610a9c57610a9c613638565b91151560209283029190910190910152600101610984565b5092915050565b6000610ac73383610e56565b336000818152600160209081526040808320878452825280832080547fffffffffffffffffffffffff0000000000000000000000000000000000000000166001600160a01b038a161790559282526004815282822086835290522054909150610b3590829085908590612865565b826001600160a01b0316816001600160a01b0316336001600160a01b03167fb846dc53d3621f480d692e73f4473156d20f23ff6b2c8237b7130b883226cca985604051610b8491815260200190565b60405180910390a4505050565b6000818152600a60205260409020805460609190610bae906136d0565b9050600003610c44576040516303a24d0760e21b8152600481018390527f00000000000000000000000000000000000000000000000000000000000000006001600160a01b031690630e89341c90602401600060405180830381865afa158015610c1c573d6000803e3d6000fd5b505050506040513d6000823e601f3d908101601f191682016040526108da919081019061370a565b6000828152600a602052604090208054610c5d906136d0565b80601f0160208091040260200160405190810160405280929190818152602001828054610c89906136d0565b8015610cd65780601f10610cab57610100808354040283529160200191610cd6565b820191906000526020600020905b815481529060010190602001808311610cb957829003601f168201915b50505050509050919050565b919050565b333014801590610d0757503360009081526009602052604090205460ff16155b8015610d2357503360009081526008602052604090205460ff16155b15610d4157604051633d83866f60e01b815260040160405180910390fd5b6001600160a01b038216600081815260096020908152604091829020805460ff1916851515908117909155915191825233917f4a095fd4c00c15af45ad40f2fcb94a1066f92e52d9fa4b0be820fab3dfdf665d91015b60405180910390a35050565b333014801590610dc357503360009081526009602052604090205460ff16155b8015610ddf57503360009081526008602052604090205460ff16155b15610dfd57604051633d83866f60e01b815260040160405180910390fd5b6000838152600a60205260409020610e168284836137fd565b50827f6bb7ff708619ba0610cba295a58592e0451dee2622938c8755667688daf3529b8383604051610e499291906138e6565b60405180910390a2505050565b6001600160a01b0380831660009081526001602090815260408083208584529091528120549091168015610e8a5780610e8c565b835b949350505050565b848314610eb45760405163899ef10d60e01b815260040160405180910390fd5b336001600160a01b03891614801590610ef157506001600160a01b038816600090815260056020908152604080832033845290915290205460ff16155b15610f0f57604051633d83866f60e01b815260040160405180910390fd5b60008060005b8781101561102057888882818110610f2f57610f2f613638565b905060200201359250868682818110610f4a57610f4a613638565b600086815260208181526040909120549102929092013593505060ff16610f8457604051634f8cca5b60e11b815260040160405180910390fd5b6001600160a01b038b16600090815260046020908152604080832086845290915281208054849290610fb7908490613910565b90915550506001600160a01b038a16600090815260046020908152604080832086845290915281208054849290610fef908490613927565b90915550508215611018576110186110078c85610e56565b6110118c86610e56565b8585612865565b600101610f15565b50886001600160a01b03168a6001600160a01b0316336001600160a01b03167f4a39dc06d4c0dbc64b70af90fd698a233a518aa5d07e595d983b8c0526c8f7fb8b8b8b8b604051611074949392919061398e565b60405180910390a46001600160a01b0389163b1561111a5760405163bc197c8160e01b808252906001600160a01b038b169063bc197c81906110c89033908f908e908e908e908e908e908e906004016139b5565b602060405180830381865afa1580156110e5573d6000803e3d6000fd5b505050506040513d601f19601f820116820180604052508101906111099190613a0a565b6001600160e01b0319161415611126565b6001600160a01b038916155b156111445760405163290802d360e11b815260040160405180910390fd5b50505050505050505050565b6000611167600119368181013560f01c9003013590565b46146112295750604080518082018252600881526725b0b634a1b63ab160c11b60209182015281517f8b73c3c69bb8fe3d512ecc4cf759cc79239f7b179b0ffacaa9a75d522b39400f818301527f5b5b1483404ac93e4d9b025a8feb4c5ea9304085ab2e513c578af4cec7eb5319818401527fc89efdaa54c0f20c7adf612882df0950f5a951637e0307cdcb4c672f298b8bc660608201524660808201523060a0808301919091528351808303909101815260c0909101909252815191012090565b5060075490565b60608382146112525760405163899ef10d60e01b815260040160405180910390fd5b8367ffffffffffffffff81111561126b5761126b613622565b604051908082528060200260200182016040528015611294578160200160208202803683370190505b50905060005b8481101561133c57600460008787848181106112b8576112b8613638565b90506020020160208101906112cd91906132f3565b6001600160a01b03166001600160a01b03168152602001908152602001600020600085858481811061130157611301613638565b9050602002013581526020019081526020016000205482828151811061132957611329613638565b602090810291909101015260010161129a565b50949350505050565b33301480159061136557503360009081526009602052604090205460ff16155b801561138157503360009081526008602052604090205460ff16155b1561139f57604051633d83866f60e01b815260040160405180910390fd5b60008281526020818152604091829020805460ff191684151590811790915582518581529182015233917f92d6650e3daf0c48674c410d3d8a281fe4d48a5a2236fe505d38e4da21120087910160405180910390a25050565b33301480159061141857503360009081526009602052604090205460ff16155b801561143457503360009081526008602052604090205460ff16155b1561145257604051633d83866f60e01b815260040160405180910390fd5b6001600160a01b03811660009081526004602090815260408083208380529091528120805490919061148390613a27565b90915550600680546fffffffffffffffffffffffffffffffff808216600160801b9283900482166000190182168302179283905590820416600160401b90910467ffffffffffffffff1611156114ec57604051631534858160e01b815260040160405180910390fd5b60408051600080825260016020830152916001600160a01b0384169133917fc3d58168c5ae7397731d063d5bbf3d657854427343f4c083240f7aacaa2d0f6291015b60405180910390a450565b33301461155957604051633d83866f60e01b815260040160405180910390fd5b6001600160a01b038116600081815260086020526040808220805460ff19166001179055517f8fe72c3e0020beb3234e76ae6676fa576fbfcae600af1c4fea44784cf0db329c9190a250565b3330148015906115c557503360009081526009602052604090205460ff16155b80156115e157503360009081526008602052604090205460ff16155b156115ff57604051633d83866f60e01b815260040160405180910390fd5b8361160957600080fd5b6116168585858585612a0b565b5050505050565b6001600160a01b038216600090815260026020908152604080832084845290915281205480820361164f576000611690565b6001600160a01b0384166000908152600360209081526040808320868452825280832060001985018452909152902054600160401b90046001600160c01b03165b6001600160c01b0316949350505050565b60008142116116dc576040517f83aace3d00000000000000000000000000000000000000000000000000000000815260040160405180910390fd5b6001600160a01b0384166000908152600260209081526040808320868452909152812054908190036117125760009150506118df565b6001600160a01b038516600090815260036020908152604080832087845282528083206000198501845290915290205467ffffffffffffffff16831061179a576001600160a01b03851660009081526003602090815260408083208784528252808320600019909401835292905220546001600160c01b03600160401b9091041690506118df565b6001600160a01b0385166000908152600360209081526040808320878452825280832083805290915290205467ffffffffffffffff168310156117e15760009150506118df565b600060001982015b8181111561189f576001600160a01b0387166000908152600360209081526040808320898452825280832060028686030485038085529083529281902081518083019092525467ffffffffffffffff8116808352600160401b9091046001600160c01b0316928201929092529087900361187657602001516001600160c01b031694506118df9350505050565b805167ffffffffffffffff1687111561189157819350611898565b6001820392505b50506117e9565b506001600160a01b038616600090815260036020908152604080832088845282528083209383529290522054600160401b90046001600160c01b03169150505b9392505050565b600654600090819061190b908a908a908a908a908a9067ffffffffffffffff16612339565b600654909150600090600160401b900467ffffffffffffffff16815b81811015611be157600060018589898581811061194657611946613638565b61195c9260206060909202019081019150613a3e565b8a8a8681811061196e5761196e613638565b905060600201602001358b8b8781811061198a5761198a613638565b90506060020160400135604051600081526020016040526040516119ca949392919093845260ff9290921660208401526040830152606082015260800190565b6020604051602081039080840390855afa1580156119ec573d6000803e3d6000fd5b5050604051601f1901519150506001600160a01b0381163b15611b77577f1626ba7e000000000000000000000000000000000000000000000000000000006001600160a01b038216631626ba7e878b8b87818110611a4c57611a4c613638565b905060600201602001358c8c88818110611a6857611a68613638565b905060600201604001358d8d89818110611a8457611a84613638565b611a9a9260206060909202019081019150613a3e565b604051602001611ae293929190928352602083019190915260f81b7fff0000000000000000000000000000000000000000000000000000000000000016604082015260410190565b6040516020818303038152906040526040518363ffffffff1660e01b8152600401611b0e929190613a61565b602060405180830381865afa158015611b2b573d6000803e3d6000fd5b505050506040513d601f19601f82011682018060405250810190611b4f9190613a0a565b6001600160e01b03191614611b7757604051633ba7c2c960e21b815260040160405180910390fd5b6001600160a01b03811660009081526004602090815260408083208380529091529020541580611bb95750806001600160a01b0316846001600160a01b031610155b15611bd757604051633ba7c2c960e21b815260040160405180910390fd5b9250600101611927565b50611c248b8b8b8b8b8080601f0160208091040260200160405190810160405280939291908181526020018383808284376000920191909152506126e892505050565b9b9a5050505050505050505050565b3360008181526005602090815260408083206001600160a01b03871680855290835292819020805460ff191686151590811790915590519081529192917f17307eab39ab6107e8899845ad3d59bd9653f200f220920489ca2b5937696c319101610d97565b60608167ffffffffffffffff811115611cb357611cb3613622565b604051908082528060200260200182016040528015611ce657816020015b6060815260200190600190039081611cd15790505b50905060005b82811015610ab45760008030868685818110611d0a57611d0a613638565b9050602002810190611d1c9190613689565b604051611d2a929190613a7a565b600060405180830381855af49150503d8060008114611d65576040519150601f19603f3d011682016040523d82523d6000602084013e611d6a565b606091505b509150915081611dd957604481511015611d8357600080fd5b60048101905080806020019051810190611d9d919061370a565b6040517f08c379a0000000000000000000000000000000000000000000000000000000008152600401611dd09190612feb565b60405180910390fd5b80848481518110611dec57611dec613638565b60209081029190910101525050600101611cec565b333014801590611e2157503360009081526009602052604090205460ff16155b8015611e3d57503360009081526008602052604090205460ff16155b15611e5b57604051633d83866f60e01b815260040160405180910390fd5b6001600160a01b038116600081815260046020908152604080832083805290915280822080546001908101909155600680546fffffffffffffffffffffffffffffffff600160801b808304821685018216029116179055905133917fc3d58168c5ae7397731d063d5bbf3d657854427343f4c083240f7aacaa2d0f629161152e91858252602082015260400190565b333014801590611f0a57503360009081526009602052604090205460ff16155b8015611f2657503360009081526008602052604090205460ff16155b15611f4457604051633d83866f60e01b815260040160405180910390fd5b600654600160801b90046fffffffffffffffffffffffffffffffff16811115611f8057604051631534858160e01b815260040160405180910390fd5b611f8981612b60565b6006805467ffffffffffffffff92909216600160401b027fffffffffffffffffffffffffffffffff0000000000000000ffffffffffffffff90921691909117905560405181815233907fc8bdbc84626c082832bea9ab3c3626d6941b91b2df27cc2f8b621597415e4d869060200160405180910390a250565b60065467ffffffffffffffff1615612046576040517fb2c6f10f00000000000000000000000000000000000000000000000000000000815260040160405180910390fd5b8061205057600080fd5b8181111561207157604051631534858160e01b815260040160405180910390fd5b83156121315760005b8481101561212f5761212686868381811061209757612097613638565b90506020028101906120a9919061364e565b6120b790602081019061366e565b8787848181106120c9576120c9613638565b90506020028101906120db919061364e565b6120ec9060408101906020016132f3565b8888858181106120fe576120fe613638565b9050602002810190612110919061364e565b60400135898986818110610a3057610a30613638565b5060010161207a565b505b6000806000805b8581101561220f5786868281811061215257612152613638565b905060200201602081019061216791906132f3565b9350836001600160a01b0316836001600160a01b03161061219b57604051633ba7c2c960e21b815260040160405180910390fd5b6001600160a01b0384166000818152600460209081526040808320838052825280832080546001908101909155815184815292830181905281518998509681019695019433927fc3d58168c5ae7397731d063d5bbf3d657854427343f4c083240f7aacaa2d0f6292908290030190a4612138565b50600680546fffffffffffffffffffffffffffffffff808416600160801b0267ffffffffffffffff8816600160401b027fffffffffffffffffffffffffffffffff00000000000000000000000000000000909316929092176001171617905561232c604080518082018252600881526725b0b634a1b63ab160c11b60209182015281517f8b73c3c69bb8fe3d512ecc4cf759cc79239f7b179b0ffacaa9a75d522b39400f818301527f5b5b1483404ac93e4d9b025a8feb4c5ea9304085ab2e513c578af4cec7eb5319818401527fc89efdaa54c0f20c7adf612882df0950f5a951637e0307cdcb4c672f298b8bc660608201524660808201523060a0808301919091528351808303909101815260c0909101909252815191012090565b6007555050505050505050565b6000612343611150565b7f93a4f3ad100766ac785e9e2986ae4f906eea3a67ef943c27112979356b418b358888888888886040516020016123809796959493929190613ac2565b604051602081830303815290604052805190602001206040516020016123d89291907f190100000000000000000000000000000000000000000000000000000000000081526002810192909252602282015260420190565b6040516020818303038152906040528051906020012090509695505050505050565b336001600160a01b0387161480159061243757506001600160a01b038616600090815260056020908152604080832033845290915290205460ff16155b1561245557604051633d83866f60e01b815260040160405180910390fd5b60008481526020819052604090205460ff1661248457604051634f8cca5b60e11b815260040160405180910390fd5b6001600160a01b0386166000908152600460209081526040808320878452909152812080548592906124b7908490613910565b90915550506001600160a01b0385166000908152600460209081526040808320878452909152812080548592906124ef908490613927565b909155505060408051858152602081018590526001600160a01b03808816929089169133917fc3d58168c5ae7397731d063d5bbf3d657854427343f4c083240f7aacaa2d0f62910160405180910390a46001600160a01b0385163b156125d95760405163f23a6e6160e01b808252906001600160a01b0387169063f23a6e61906125879033908b908a908a908a908a90600401613b12565b602060405180830381865afa1580156125a4573d6000803e3d6000fd5b505050506040513d601f19601f820116820180604052508101906125c89190613a0a565b6001600160e01b03191614156125e5565b6001600160a01b038516155b156126035760405163290802d360e11b815260040160405180910390fd5b8315612627576126276126168786610e56565b6126208787610e56565b8686612865565b505050505050565b8161263957600080fd5b336001600160a01b0384161480159061267657506001600160a01b038316600090815260056020908152604080832033845290915290205460ff16155b80156126825750333014155b801561269e57503360009081526009602052604090205460ff16155b80156126ba57503360009081526008602052604090205460ff16155b156126d857604051633d83866f60e01b815260040160405180910390fd5b6126e3838383612ba4565b505050565b6006805467ffffffffffffffff8082166001011667ffffffffffffffff1990911617905560008085600381111561272157612721613a8a565b0361277f5760008083516020850186885af19050836001600160a01b03167ffa3c55dc43f5cfdeb2abee243c63ad490db2fee39fd127076ed9e7afa15ad63886858560405161277293929190613b57565b60405180910390a261282e565b600185600381111561279357612793613a8a565b036127e357600080835160208501875af49050836001600160a01b03167ffa3c55dc43f5cfdeb2abee243c63ad490db2fee39fd127076ed9e7afa15ad63886858560405161277293929190613b57565b60028560038111156127f7576127f7613a8a565b0361280b5781516020830184f0905061282e565b81516bffffffffffffffffffffffff19606086901b169081906020850186f59150505b80610e8c576040517ff11fe6d400000000000000000000000000000000000000000000000000000000815260040160405180910390fd5b826001600160a01b0316846001600160a01b03161415801561288657508015155b15612a05576001600160a01b03841615612948576001600160a01b0384166000908152600260209081526040808320858452909152812054908181036128cd57600061291e565b6001600160a01b03861660009081526003602090815260408083208784529091528120906128fc600185613910565b8152602081019190915260400160002054600160401b90046001600160c01b03165b6001600160c01b0316905060006129358483613910565b90506129448786858585612c39565b5050505b6001600160a01b03831615612a05576001600160a01b03831660009081526002602090815260408083208584529091528120549081810361298a5760006129db565b6001600160a01b03851660009081526003602090815260408083208784529091528120906129b9600185613910565b8152602081019190915260400160002054600160401b90046001600160c01b03165b6001600160c01b0316905060006129f28483613927565b9050612a018686858585612c39565b5050505b50505050565b6001600160a01b038516600090815260046020908152604080832087845290915281208054859290612a3e908490613927565b909155505060408051858152602081018590526001600160a01b0387169160009133917fc3d58168c5ae7397731d063d5bbf3d657854427343f4c083240f7aacaa2d0f62910160405180910390a46001600160a01b0385163b15612b275760405163f23a6e6160e01b808252906001600160a01b0387169063f23a6e6190612ad59033906000908a908a908a908a90600401613b12565b602060405180830381865afa158015612af2573d6000803e3d6000fd5b505050506040513d601f19601f82011682018060405250810190612b169190613a0a565b6001600160e01b0319161415612b33565b6001600160a01b038516155b15612b515760405163290802d360e11b815260040160405180910390fd5b61161660006126208787610e56565b6000600160401b821115612ba0576040517f5b7f254e00000000000000000000000000000000000000000000000000000000815260040160405180910390fd5b5090565b6001600160a01b038316600090815260046020908152604080832085845290915281208054839290612bd7908490613910565b90915550612bf39050612bea8484610e56565b60008484612865565b60408051838152602081018390526000916001600160a01b0386169133917fc3d58168c5ae7397731d063d5bbf3d657854427343f4c083240f7aacaa2d0f629101610b84565b8215801590612c8057506001600160a01b038516600090815260036020908152604080832087845282528083206000198701845290915290205467ffffffffffffffff1642145b15612ce857612c8e81612dda565b6001600160a01b0386166000908152600360209081526040808320888452825280832060001988018452909152902080546001600160c01b0392909216600160401b0267ffffffffffffffff909216919091179055612d87565b6040518060400160405280612cfc42612b60565b67ffffffffffffffff168152602001612d1483612dda565b6001600160c01b039081169091526001600160a01b03871660008181526003602090815260408083208a845282528083208984528252808320865196830151909516600160401b0267ffffffffffffffff9096169590951790935590815260028252828120878252909152206001840190555b60408051858152602081018490529081018290526001600160a01b038616907f21a99d51b8a0a2e2ead709843a1ecfaab977908135cf1c085c0a6246eea6e0f09060600160405180910390a25050505050565b60007801000000000000000000000000000000000000000000000000821115612ba0576040517fd5e0d1b200000000000000000000000000000000000000000000000000000000815260040160405180910390fd5b80356001600160a01b0381168114610ce257600080fd5b60008060408385031215612e5957600080fd5b612e6283612e2f565b946020939093013593505050565b6001600160e01b031981168114612e8657600080fd5b50565b600060208284031215612e9b57600080fd5b81356118df81612e70565b60008083601f840112612eb857600080fd5b50813567ffffffffffffffff811115612ed057600080fd5b6020830191508360208260051b8501011115612eeb57600080fd5b9250929050565b60008060208385031215612f0557600080fd5b823567ffffffffffffffff811115612f1c57600080fd5b612f2885828601612ea6565b90969095509350505050565b6020808252825182820181905260009190848201906040850190845b81811015612f6e578351151583529284019291840191600101612f50565b50909695505050505050565b600060208284031215612f8c57600080fd5b5035919050565b60005b83811015612fae578181015183820152602001612f96565b83811115612a055750506000910152565b60008151808452612fd7816020860160208601612f93565b601f01601f19169290920160200192915050565b6020815260006118df6020830184612fbf565b60008083601f84011261301057600080fd5b50813567ffffffffffffffff81111561302857600080fd5b602083019150836020828501011115612eeb57600080fd5b60008060008060006080868803121561305857600080fd5b61306186612e2f565b945061306f60208701612e2f565b935060408601359250606086013567ffffffffffffffff81111561309257600080fd5b61309e88828901612ffe565b969995985093965092949392505050565b80358015158114610ce257600080fd5b600080604083850312156130d257600080fd5b6130db83612e2f565b91506130e9602084016130af565b90509250929050565b60008060006040848603121561310757600080fd5b83359250602084013567ffffffffffffffff81111561312557600080fd5b61313186828701612ffe565b9497909650939450505050565b60008060008060008060008060a0898b03121561315a57600080fd5b61316389612e2f565b975061317160208a01612e2f565b9650604089013567ffffffffffffffff8082111561318e57600080fd5b61319a8c838d01612ea6565b909850965060608b01359150808211156131b357600080fd5b6131bf8c838d01612ea6565b909650945060808b01359150808211156131d857600080fd5b506131e58b828c01612ffe565b999c989b5096995094979396929594505050565b60008060006060848603121561320e57600080fd5b61321784612e2f565b95602085013595506040909401359392505050565b6000806000806040858703121561324257600080fd5b843567ffffffffffffffff8082111561325a57600080fd5b61326688838901612ea6565b9096509450602087013591508082111561327f57600080fd5b5061328c87828801612ea6565b95989497509550505050565b6020808252825182820181905260009190848201906040850190845b81811015612f6e578351835292840192918401916001016132b4565b600080604083850312156132e357600080fd5b823591506130e9602084016130af565b60006020828403121561330557600080fd5b6118df82612e2f565b60008060008060006080868803121561332657600080fd5b61332f86612e2f565b94506020860135935060408601359250606086013567ffffffffffffffff81111561309257600080fd5b803560048110610ce257600080fd5b600080600080600080600060a0888a03121561338357600080fd5b61338c88613359565b965061339a60208901612e2f565b955060408801359450606088013567ffffffffffffffff808211156133be57600080fd5b6133ca8b838c01612ffe565b909650945060808a01359150808211156133e357600080fd5b818a0191508a601f8301126133f757600080fd5b81358181111561340657600080fd5b8b602060608302850101111561341b57600080fd5b60208301945080935050505092959891949750929550565b6000602080830181845280855180835260408601915060408160051b870101925083870160005b8281101561348857603f19888603018452613476858351612fbf565b9450928501929085019060010161345a565b5092979650505050505050565b6000806000806000606086880312156134ad57600080fd5b853567ffffffffffffffff808211156134c557600080fd5b6134d189838a01612ea6565b909750955060208801359150808211156134ea57600080fd5b506134f788828901612ea6565b96999598509660400135949350505050565b60008060008060008060a0878903121561352257600080fd5b61352b87613359565b955061353960208801612e2f565b945060408701359350606087013567ffffffffffffffff81111561355c57600080fd5b61356889828a01612ffe565b979a9699509497949695608090950135949350505050565b6000806040838503121561359357600080fd5b61359c83612e2f565b91506130e960208401612e2f565b60008060008060008060a087890312156135c357600080fd5b6135cc87612e2f565b95506135da60208801612e2f565b94506040870135935060608701359250608087013567ffffffffffffffff81111561360457600080fd5b61361089828a01612ffe565b979a9699509497509295939492505050565b634e487b7160e01b600052604160045260246000fd5b634e487b7160e01b600052603260045260246000fd5b60008235607e1983360301811261366457600080fd5b9190910192915050565b60006020828403121561368057600080fd5b6118df82613359565b6000808335601e198436030181126136a057600080fd5b83018035915067ffffffffffffffff8211156136bb57600080fd5b602001915036819003821315612eeb57600080fd5b600181811c908216806136e457607f821691505b60208210810361370457634e487b7160e01b600052602260045260246000fd5b50919050565b60006020828403121561371c57600080fd5b815167ffffffffffffffff8082111561373457600080fd5b818401915084601f83011261374857600080fd5b81518181111561375a5761375a613622565b604051601f8201601f19908116603f0116810190838211818310171561378257613782613622565b8160405282815287602084870101111561379b57600080fd5b6137ac836020830160208801612f93565b979650505050505050565b601f8211156126e357600081815260208120601f850160051c810160208610156137de5750805b601f850160051c820191505b81811015612627578281556001016137ea565b67ffffffffffffffff83111561381557613815613622565b6138298361382383546136d0565b836137b7565b6000601f84116001811461385d57600085156138455750838201355b600019600387901b1c1916600186901b178355611616565b600083815260209020601f19861690835b8281101561388e578685013582556020948501946001909201910161386e565b50868210156138ab5760001960f88860031b161c19848701351681555b505060018560011b0183555050505050565b81835281816020850137506000828201602090810191909152601f909101601f19169091010190565b602081526000610e8c6020830184866138bd565b634e487b7160e01b600052601160045260246000fd5b600082821015613922576139226138fa565b500390565b6000821982111561393a5761393a6138fa565b500190565b81835260007f07ffffffffffffffffffffffffffffffffffffffffffffffffffffffffffffff83111561397157600080fd5b8260051b8083602087013760009401602001938452509192915050565b6040815260006139a260408301868861393f565b82810360208401526137ac81858761393f565b60006001600160a01b03808b168352808a1660208401525060a060408301526139e260a08301888a61393f565b82810360608401526139f581878961393f565b90508281036080840152611c248185876138bd565b600060208284031215613a1c57600080fd5b81516118df81612e70565b600081613a3657613a366138fa565b506000190190565b600060208284031215613a5057600080fd5b813560ff811681146118df57600080fd5b828152604060208201526000610e8c6040830184612fbf565b8183823760009101908152919050565b634e487b7160e01b600052602160045260246000fd5b60048110613abe57634e487b7160e01b600052602160045260246000fd5b9052565b878152613ad26020820188613aa0565b6001600160a01b038616604082015284606082015260c060808201526000613afe60c0830185876138bd565b90508260a083015298975050505050505050565b60006001600160a01b03808916835280881660208401525085604083015284606083015260a06080830152613b4b60a0830184866138bd565b98975050505050505050565b613b618185613aa0565b826020820152606060408201526000613b7d6060830184612fbf565b9594505050505056fea26469706673582212205e1eb7aa964b493730f439b36dccf7a127392fa11a9b4589e21c43711320bb4764736f6c634300080f0033",
    "linkReferences": {}
  }
}