{
  "abi": [
    {
      "inputs": [],
      "name": "ALREADY_INIT",
      "type": "error"
    },
    {
      "inputs": [],
      "name": "EXECUTE_FAILED",
      "type": "error"
    },
    {
      "inputs": [],
      "name": "INVALID_RECIPIENT",
      "type": "error"
    },
    {
      "inputs": [],
      "name": "INVALID_SIG",
      "type": "error"
    },
    {
      "inputs": [],
      "name": "LENGTH_MISMATCH",
      "type": "error"
    },
    {
      "inputs": [],
      "name": "NONTRANSFERABLE",
      "type": "error"
    },
    {
      "inputs": [],
      "name": "NOT_AUTHORIZED",
      "type": "error"
    },
    {
      "inputs": [],
      "name": "QUORUM_OVER_SUPPLY",
      "type": "error"
    },
    {
      "inputs": [],
      "name": "UINT192_MAX",
      "type": "error"
    },
    {
      "inputs": [],
      "name": "UINT64_MAX",
      "type": "error"
    },
    {
      "inputs": [],
      "name": "UNDETERMINED",
      "type": "error"
    },
    {
      "anonymous": false,
      "inputs": [
        {
          "indexed": true,
          "internalType": "address",
          "name": "owner",
          "type": "address"
        },
        {
          "indexed": true,
          "internalType": "address",
          "name": "operator",
          "type": "address"
        },
        {
          "indexed": false,
          "internalType": "bool",
          "name": "approved",
          "type": "bool"
        }
      ],
      "name": "ApprovalForAll",
      "type": "event"
    },
    {
      "anonymous": false,
      "inputs": [
        {
          "indexed": false,
          "internalType": "enum Operation",
          "name": "op",
          "type": "uint8"
        },
        {
          "indexed": true,
          "internalType": "address",
          "name": "creation",
          "type": "address"
        },
        {
          "indexed": false,
          "internalType": "uint256",
          "name": "value",
          "type": "uint256"
        }
      ],
      "name": "ContractCreated",
      "type": "event"
    },
    {
      "anonymous": false,
      "inputs": [
        {
          "indexed": true,
          "internalType": "address",
          "name": "delegator",
          "type": "address"
        },
        {
          "indexed": true,
          "internalType": "address",
          "name": "fromDelegate",
          "type": "address"
        },
        {
          "indexed": true,
          "internalType": "address",
          "name": "toDelegate",
          "type": "address"
        },
        {
          "indexed": false,
          "internalType": "uint256",
          "name": "id",
          "type": "uint256"
        }
      ],
      "name": "DelegateChanged",
      "type": "event"
    },
    {
      "anonymous": false,
      "inputs": [
        {
          "indexed": true,
          "internalType": "address",
          "name": "delegate",
          "type": "address"
        },
        {
          "indexed": true,
          "internalType": "uint256",
          "name": "id",
          "type": "uint256"
        },
        {
          "indexed": false,
          "internalType": "uint256",
          "name": "previousBalance",
          "type": "uint256"
        },
        {
          "indexed": false,
          "internalType": "uint256",
          "name": "newBalance",
          "type": "uint256"
        }
      ],
      "name": "DelegateVotesChanged",
      "type": "event"
    },
    {
      "anonymous": false,
      "inputs": [
        {
          "indexed": false,
          "internalType": "enum Operation",
          "name": "op",
          "type": "uint8"
        },
        {
          "indexed": true,
          "internalType": "address",
          "name": "to",
          "type": "address"
        },
        {
          "indexed": false,
          "internalType": "uint256",
          "name": "value",
          "type": "uint256"
        },
        {
          "indexed": false,
          "internalType": "bytes",
          "name": "data",
          "type": "bytes"
        }
      ],
      "name": "Executed",
      "type": "event"
    },
    {
      "anonymous": false,
      "inputs": [
        {
          "indexed": true,
          "internalType": "address",
          "name": "caller",
          "type": "address"
        },
        {
          "indexed": false,
          "internalType": "uint64",
          "name": "threshold",
          "type": "uint64"
        }
      ],
      "name": "QuorumSet",
      "type": "event"
    },
    {
      "anonymous": false,
      "inputs": [
        {
          "indexed": true,
          "internalType": "address",
          "name": "operator",
          "type": "address"
        },
        {
          "indexed": true,
          "internalType": "uint256",
          "name": "id",
          "type": "uint256"
        },
        {
          "indexed": false,
          "internalType": "bool",
          "name": "transferability",
          "type": "bool"
        }
      ],
      "name": "TokenTransferabilitySet",
      "type": "event"
    },
    {
      "anonymous": false,
      "inputs": [
        {
          "indexed": true,
          "internalType": "address",
          "name": "operator",
          "type": "address"
        },
        {
          "indexed": true,
          "internalType": "address",
          "name": "from",
          "type": "address"
        },
        {
          "indexed": true,
          "internalType": "address",
          "name": "to",
          "type": "address"
        },
        {
          "indexed": false,
          "internalType": "uint256[]",
          "name": "ids",
          "type": "uint256[]"
        },
        {
          "indexed": false,
          "internalType": "uint256[]",
          "name": "amounts",
          "type": "uint256[]"
        }
      ],
      "name": "TransferBatch",
      "type": "event"
    },
    {
      "anonymous": false,
      "inputs": [
        {
          "indexed": true,
          "internalType": "address",
          "name": "operator",
          "type": "address"
        },
        {
          "indexed": true,
          "internalType": "address",
          "name": "from",
          "type": "address"
        },
        {
          "indexed": true,
          "internalType": "address",
          "name": "to",
          "type": "address"
        },
        {
          "indexed": false,
          "internalType": "uint256",
          "name": "id",
          "type": "uint256"
        },
        {
          "indexed": false,
          "internalType": "uint256",
          "name": "amount",
          "type": "uint256"
        }
      ],
      "name": "TransferSingle",
      "type": "event"
    },
    {
      "anonymous": false,
      "inputs": [
        {
          "indexed": false,
          "internalType": "string",
          "name": "value",
          "type": "string"
        },
        {
          "indexed": true,
          "internalType": "uint256",
          "name": "id",
          "type": "uint256"
        }
      ],
      "name": "URI",
      "type": "event"
    },
    {
      "inputs": [],
      "name": "DOMAIN_SEPARATOR",
      "outputs": [
        {
          "internalType": "bytes32",
          "name": "",
          "type": "bytes32"
        }
      ],
      "stateMutability": "view",
      "type": "function"
    },
    {
      "inputs": [
        {
          "internalType": "address",
          "name": "",
          "type": "address"
        },
        {
          "internalType": "uint256",
          "name": "",
          "type": "uint256"
        }
      ],
      "name": "balanceOf",
      "outputs": [
        {
          "internalType": "uint256",
          "name": "",
          "type": "uint256"
        }
      ],
      "stateMutability": "view",
      "type": "function"
    },
    {
      "inputs": [
        {
          "internalType": "address[]",
          "name": "owners",
          "type": "address[]"
        },
        {
          "internalType": "uint256[]",
          "name": "ids",
          "type": "uint256[]"
        }
      ],
      "name": "balanceOfBatch",
      "outputs": [
        {
          "internalType": "uint256[]",
          "name": "balances",
          "type": "uint256[]"
        }
      ],
      "stateMutability": "view",
      "type": "function"
    },
    {
      "inputs": [
        {
          "components": [
            {
              "internalType": "enum Operation",
              "name": "op",
              "type": "uint8"
            },
            {
              "internalType": "address",
              "name": "to",
              "type": "address"
            },
            {
              "internalType": "uint256",
              "name": "value",
              "type": "uint256"
            },
            {
              "internalType": "bytes",
              "name": "data",
              "type": "bytes"
            }
          ],
          "internalType": "struct Call[]",
          "name": "calls",
          "type": "tuple[]"
        }
      ],
      "name": "batchExecute",
      "outputs": [
        {
          "internalType": "bool[]",
          "name": "successes",
          "type": "bool[]"
        }
      ],
      "stateMutability": "payable",
      "type": "function"
    },
    {
      "inputs": [
        {
          "internalType": "address",
          "name": "from",
          "type": "address"
        },
        {
          "internalType": "uint256",
          "name": "id",
          "type": "uint256"
        },
        {
          "internalType": "uint256",
          "name": "amount",
          "type": "uint256"
        }
      ],
      "name": "burn",
      "outputs": [],
      "stateMutability": "payable",
      "type": "function"
    },
    {
      "inputs": [
        {
          "internalType": "address",
          "name": "",
          "type": "address"
        },
        {
          "internalType": "uint256",
          "name": "",
          "type": "uint256"
        },
        {
          "internalType": "uint256",
          "name": "",
          "type": "uint256"
        }
      ],
      "name": "checkpoints",
      "outputs": [
        {
          "internalType": "uint64",
          "name": "fromTimestamp",
          "type": "uint64"
        },
        {
          "internalType": "uint192",
          "name": "votes",
          "type": "uint192"
        }
      ],
      "stateMutability": "view",
      "type": "function"
    },
    {
      "inputs": [
        {
          "internalType": "address",
          "name": "delegatee",
          "type": "address"
        },
        {
          "internalType": "uint256",
          "name": "id",
          "type": "uint256"
        }
      ],
      "name": "delegate",
      "outputs": [],
      "stateMutability": "payable",
      "type": "function"
    },
    {
      "inputs": [
        {
          "internalType": "address",
          "name": "account",
          "type": "address"
        },
        {
          "internalType": "uint256",
          "name": "id",
          "type": "uint256"
        }
      ],
      "name": "delegates",
      "outputs": [
        {
          "internalType": "address",
          "name": "",
          "type": "address"
        }
      ],
      "stateMutability": "view",
      "type": "function"
    },
    {
      "inputs": [
        {
          "internalType": "enum Operation",
          "name": "op",
          "type": "uint8"
        },
        {
          "internalType": "address",
          "name": "to",
          "type": "address"
        },
        {
          "internalType": "uint256",
          "name": "value",
          "type": "uint256"
        },
        {
          "internalType": "bytes",
          "name": "data",
          "type": "bytes"
        },
        {
          "components": [
            {
              "internalType": "uint8",
              "name": "v",
              "type": "uint8"
            },
            {
              "internalType": "bytes32",
              "name": "r",
              "type": "bytes32"
            },
            {
              "internalType": "bytes32",
              "name": "s",
              "type": "bytes32"
            }
          ],
          "internalType": "struct Signature[]",
          "name": "sigs",
          "type": "tuple[]"
        }
      ],
      "name": "execute",
      "outputs": [
        {
          "internalType": "bool",
          "name": "success",
          "type": "bool"
        }
      ],
      "stateMutability": "payable",
      "type": "function"
    },
    {
      "inputs": [
        {
          "internalType": "address",
          "name": "account",
          "type": "address"
        },
        {
          "internalType": "uint256",
          "name": "id",
          "type": "uint256"
        }
      ],
      "name": "getCurrentVotes",
      "outputs": [
        {
          "internalType": "uint256",
          "name": "",
          "type": "uint256"
        }
      ],
      "stateMutability": "view",
      "type": "function"
    },
    {
      "inputs": [
        {
          "internalType": "address",
          "name": "account",
          "type": "address"
        },
        {
          "internalType": "uint256",
          "name": "id",
          "type": "uint256"
        },
        {
          "internalType": "uint256",
          "name": "timestamp",
          "type": "uint256"
        }
      ],
      "name": "getPriorVotes",
      "outputs": [
        {
          "internalType": "uint256",
          "name": "",
          "type": "uint256"
        }
      ],
      "stateMutability": "view",
      "type": "function"
    },
    {
      "inputs": [
        {
          "components": [
            {
              "internalType": "enum Operation",
              "name": "op",
              "type": "uint8"
            },
            {
              "internalType": "address",
              "name": "to",
              "type": "address"
            },
            {
              "internalType": "uint256",
              "name": "value",
              "type": "uint256"
            },
            {
              "internalType": "bytes",
              "name": "data",
              "type": "bytes"
            }
          ],
          "internalType": "struct Call[]",
          "name": "calls",
          "type": "tuple[]"
        },
        {
          "internalType": "address[]",
          "name": "signers",
          "type": "address[]"
        },
        {
          "internalType": "uint256",
          "name": "threshold",
          "type": "uint256"
        }
      ],
      "name": "init",
      "outputs": [],
      "stateMutability": "payable",
      "type": "function"
    },
    {
      "inputs": [
        {
          "internalType": "address",
          "name": "",
          "type": "address"
        },
        {
          "internalType": "address",
          "name": "",
          "type": "address"
        }
      ],
      "name": "isApprovedForAll",
      "outputs": [
        {
          "internalType": "bool",
          "name": "",
          "type": "bool"
        }
      ],
      "stateMutability": "view",
      "type": "function"
    },
    {
      "inputs": [
        {
          "internalType": "address",
          "name": "to",
          "type": "address"
        },
        {
          "internalType": "uint256",
          "name": "id",
          "type": "uint256"
        },
        {
          "internalType": "uint256",
          "name": "amount",
          "type": "uint256"
        },
        {
          "internalType": "bytes",
          "name": "data",
          "type": "bytes"
        }
      ],
      "name": "mint",
      "outputs": [],
      "stateMutability": "payable",
      "type": "function"
    },
    {
      "inputs": [
        {
          "internalType": "bytes[]",
          "name": "data",
          "type": "bytes[]"
        }
      ],
      "name": "multicall",
      "outputs": [
        {
          "internalType": "bytes[]",
          "name": "results",
          "type": "bytes[]"
        }
      ],
      "stateMutability": "payable",
      "type": "function"
    },
    {
      "inputs": [],
      "name": "nonce",
      "outputs": [
        {
          "internalType": "uint64",
          "name": "",
          "type": "uint64"
        }
      ],
      "stateMutability": "view",
      "type": "function"
    },
    {
      "inputs": [
        {
          "internalType": "address",
          "name": "",
          "type": "address"
        },
        {
          "internalType": "uint256",
          "name": "",
          "type": "uint256"
        }
      ],
      "name": "numCheckpoints",
      "outputs": [
        {
          "internalType": "uint256",
          "name": "",
          "type": "uint256"
        }
      ],
      "stateMutability": "view",
      "type": "function"
    },
    {
      "inputs": [
        {
          "internalType": "address",
          "name": "",
          "type": "address"
        },
        {
          "internalType": "address",
          "name": "",
          "type": "address"
        },
        {
          "internalType": "uint256[]",
          "name": "",
          "type": "uint256[]"
        },
        {
          "internalType": "uint256[]",
          "name": "",
          "type": "uint256[]"
        },
        {
          "internalType": "bytes",
          "name": "",
          "type": "bytes"
        }
      ],
      "name": "onERC1155BatchReceived",
      "outputs": [
        {
          "internalType": "bytes4",
          "name": "",
          "type": "bytes4"
        }
      ],
      "stateMutability": "payable",
      "type": "function"
    },
    {
      "inputs": [
        {
          "internalType": "address",
          "name": "",
          "type": "address"
        },
        {
          "internalType": "address",
          "name": "",
          "type": "address"
        },
        {
          "internalType": "uint256",
          "name": "",
          "type": "uint256"
        },
        {
          "internalType": "uint256",
          "name": "",
          "type": "uint256"
        },
        {
          "internalType": "bytes",
          "name": "",
          "type": "bytes"
        }
      ],
      "name": "onERC1155Received",
      "outputs": [
        {
          "internalType": "bytes4",
          "name": "",
          "type": "bytes4"
        }
      ],
      "stateMutability": "payable",
      "type": "function"
    },
    {
      "inputs": [
        {
          "internalType": "address",
          "name": "",
          "type": "address"
        },
        {
          "internalType": "address",
          "name": "",
          "type": "address"
        },
        {
          "internalType": "uint256",
          "name": "",
          "type": "uint256"
        },
        {
          "internalType": "bytes",
          "name": "",
          "type": "bytes"
        }
      ],
      "name": "onERC721Received",
      "outputs": [
        {
          "internalType": "bytes4",
          "name": "",
          "type": "bytes4"
        }
      ],
      "stateMutability": "payable",
      "type": "function"
    },
    {
      "inputs": [],
      "name": "quorum",
      "outputs": [
        {
          "internalType": "uint64",
          "name": "",
          "type": "uint64"
        }
      ],
      "stateMutability": "view",
      "type": "function"
    },
    {
      "inputs": [
        {
          "internalType": "address",
          "name": "from",
          "type": "address"
        },
        {
          "internalType": "address",
          "name": "to",
          "type": "address"
        },
        {
          "internalType": "uint256[]",
          "name": "ids",
          "type": "uint256[]"
        },
        {
          "internalType": "uint256[]",
          "name": "amounts",
          "type": "uint256[]"
        },
        {
          "internalType": "bytes",
          "name": "data",
          "type": "bytes"
        }
      ],
      "name": "safeBatchTransferFrom",
      "outputs": [],
      "stateMutability": "payable",
      "type": "function"
    },
    {
      "inputs": [
        {
          "internalType": "address",
          "name": "from",
          "type": "address"
        },
        {
          "internalType": "address",
          "name": "to",
          "type": "address"
        },
        {
          "internalType": "uint256",
          "name": "id",
          "type": "uint256"
        },
        {
          "internalType": "uint256",
          "name": "amount",
          "type": "uint256"
        },
        {
          "internalType": "bytes",
          "name": "data",
          "type": "bytes"
        }
      ],
      "name": "safeTransferFrom",
      "outputs": [],
      "stateMutability": "payable",
      "type": "function"
    },
    {
      "inputs": [
        {
          "internalType": "address",
          "name": "operator",
          "type": "address"
        },
        {
          "internalType": "bool",
          "name": "approved",
          "type": "bool"
        }
      ],
      "name": "setApprovalForAll",
      "outputs": [],
      "stateMutability": "payable",
      "type": "function"
    },
    {
      "inputs": [
        {
          "internalType": "uint64",
          "name": "threshold",
          "type": "uint64"
        }
      ],
      "name": "setQuorum",
      "outputs": [],
      "stateMutability": "payable",
      "type": "function"
    },
    {
      "inputs": [
        {
          "internalType": "uint256",
          "name": "id",
          "type": "uint256"
        },
        {
          "internalType": "bool",
          "name": "transferability",
          "type": "bool"
        }
      ],
      "name": "setTokenTransferability",
      "outputs": [],
      "stateMutability": "payable",
      "type": "function"
    },
    {
      "inputs": [
        {
          "internalType": "uint256",
          "name": "id",
          "type": "uint256"
        },
        {
          "internalType": "string",
          "name": "tokenURI",
          "type": "string"
        }
      ],
      "name": "setTokenURI",
      "outputs": [],
      "stateMutability": "payable",
      "type": "function"
    },
    {
      "inputs": [
        {
          "internalType": "bytes4",
          "name": "interfaceId",
          "type": "bytes4"
        }
      ],
      "name": "supportsInterface",
      "outputs": [
        {
          "internalType": "bool",
          "name": "",
          "type": "bool"
        }
      ],
      "stateMutability": "view",
      "type": "function"
    },
    {
      "inputs": [
        {
          "internalType": "uint256",
          "name": "",
          "type": "uint256"
        }
      ],
      "name": "totalSupply",
      "outputs": [
        {
          "internalType": "uint256",
          "name": "",
          "type": "uint256"
        }
      ],
      "stateMutability": "view",
      "type": "function"
    },
    {
      "inputs": [
        {
          "internalType": "uint256",
          "name": "",
          "type": "uint256"
        }
      ],
      "name": "transferable",
      "outputs": [
        {
          "internalType": "bool",
          "name": "",
          "type": "bool"
        }
      ],
      "stateMutability": "view",
      "type": "function"
    },
    {
      "inputs": [
        {
          "internalType": "uint256",
          "name": "id",
          "type": "uint256"
        }
      ],
      "name": "uri",
      "outputs": [
        {
          "internalType": "string",
          "name": "",
          "type": "string"
        }
      ],
      "stateMutability": "view",
      "type": "function"
    }
  ],
  "bytecode": {
    "object": "0x608060405234801561001057600080fd5b50613684806100206000396000f3fe6080604052600436106101d75760003560e01c8063807df56d11610102578063bc197c8111610095578063f23a6e6111610064578063f23a6e6114610606578063f242432a14610626578063f4c3b4d714610639578063f5298aca1461066957600080fd5b8063bc197c8114610569578063bd85b0391461058b578063c590e89f146105b8578063e985e9c5146105cb57600080fd5b8063a22cb465116100d1578063a22cb465146104dd578063ac9650d8146104f0578063afa88bca14610510578063affed0e01461054857600080fd5b8063807df56d14610477578063836eebee146104975780638585c945146104b75780638c995b91146104ca57600080fd5b80631703a0181161017a578063387bbabd11610149578063387bbabd146103a25780634e1273f41461042457806354d7926f14610451578063731133e91461046457600080fd5b80631703a0181461030157806327dd1b00146103425780632eb2c2d61461037a5780633644e5151461038d57600080fd5b8063026e402b116101b6578063026e402b146102745780630e89341c14610289578063150b7a02146102b6578063162094c4146102ee57600080fd5b8062fdd58e146101dc57806301ffc9a714610224578063023e8d8414610254575b600080fd5b3480156101e857600080fd5b506102116101f736600461294d565b600060208181529281526040808220909352908152205481565b6040519081526020015b60405180910390f35b34801561023057600080fd5b5061024461023f366004612990565b61067c565b604051901515815260200161021b565b6102676102623660046129f9565b6106db565b60405161021b9190612a3b565b61028761028236600461294d565b610886565b005b34801561029557600080fd5b506102a96102a4366004612a81565b610949565b60405161021b9190612af2565b6102d56102c4366004612b47565b630a85bd0160e11b95945050505050565b6040516001600160e01b0319909116815260200161021b565b6102876102fc366004612bb6565b6109eb565b34801561030d57600080fd5b5060075461032990600160401b900467ffffffffffffffff1681565b60405167ffffffffffffffff909116815260200161021b565b34801561034e57600080fd5b5061036261035d36600461294d565b610a6e565b6040516001600160a01b03909116815260200161021b565b610287610388366004612c02565b610aac565b34801561039957600080fd5b50610211610d59565b3480156103ae57600080fd5b506103fc6103bd366004612cbd565b600660209081526000938452604080852082529284528284209052825290205467ffffffffffffffff811690600160401b90046001600160c01b031682565b6040805167ffffffffffffffff90931683526001600160c01b0390911660208301520161021b565b34801561043057600080fd5b5061044461043f366004612cf0565b610e34565b60405161021b9190612d5c565b61028761045f366004612da4565b610f48565b610287610472366004612dd0565b610fcc565b34801561048357600080fd5b5061021161049236600461294d565b61100a565b3480156104a357600080fd5b506102116104b2366004612cbd565b61108e565b6102876104c5366004612e1b565b6112d3565b6102446104d8366004612e54565b6113db565b6102876104eb366004612f1f565b6117e1565b6105036104fe3660046129f9565b611846565b60405161021b9190612f49565b34801561051c57600080fd5b5061021161052b36600461294d565b600560209081526000928352604080842090915290825290205481565b34801561055457600080fd5b506007546103299067ffffffffffffffff1681565b6102d5610577366004612c02565b63bc197c8160e01b98975050505050505050565b34801561059757600080fd5b506102116105a6366004612a81565b60036020526000908152604090205481565b6102876105c6366004612fab565b6119af565b3480156105d757600080fd5b506102446105e636600461301f565b600160209081526000928352604080842090915290825290205460ff1681565b6102d5610614366004613049565b63f23a6e6160e01b9695505050505050565b610287610634366004613049565b611d1b565b34801561064557600080fd5b50610244610654366004612a81565b60026020526000908152604090205460ff1681565b610287610677366004612cbd565b611f33565b60006001600160e01b03198216630a85bd0160e11b14806106c657507f4e2312e0000000000000000000000000000000000000000000000000000000006001600160e01b03198316145b806106d557506106d582612057565b92915050565b60606107067f023e8d84000000000000000000000000000000000000000000000000000000006120f0565b508167ffffffffffffffff811115610720576107206130c1565b604051908082528060200260200182016040528015610749578160200160208202803683370190505b50905060005b8281101561087f5761085584848381811061076c5761076c6130d7565b905060200281019061077e91906130ed565b61078c90602081019061310d565b85858481811061079e5761079e6130d7565b90506020028101906107b091906130ed565b6107c1906040810190602001613128565b8686858181106107d3576107d36130d7565b90506020028101906107e591906130ed565b604001358787868181106107fb576107fb6130d7565b905060200281019061080d91906130ed565b61081b906060810190613143565b8080601f01602080910402602001604051908101604052809392919081815260200183838082843760009201919091525061214292505050565b828281518110610867576108676130d7565b9115156020928302919091019091015260010161074f565b5092915050565b60006108923383610a6e565b33600081815260046020908152604080832087845282529182902080547fffffffffffffffffffffffff0000000000000000000000000000000000000000166001600160a01b038981169182179092559251878152949550919391851692917f287e04de574701d97a55bd9ea85b32defecf76a607b8007ee9ae8c126bf7a746910160405180910390a43360009081526020818152604080832085845290915290205461094490829085908590612368565b505050565b60008181526009602052604090208054606091906109669061318a565b80601f01602080910402602001604051908101604052809291908181526020018280546109929061318a565b80156109df5780601f106109b4576101008083540402835291602001916109df565b820191906000526020600020905b8154815290600101906020018083116109c257829003601f168201915b50505050509050919050565b610a147f162094c4000000000000000000000000000000000000000000000000000000006120f0565b506000838152600960205260409020610a2e82848361320a565b50827f6bb7ff708619ba0610cba295a58592e0451dee2622938c8755667688daf3529b8383604051610a619291906132f3565b60405180910390a2505050565b6001600160a01b0380831660009081526004602090815260408083208584529091528120549091168015610aa25780610aa4565b835b949350505050565b848314610acc5760405163899ef10d60e01b815260040160405180910390fd5b336001600160a01b03891614801590610b0957506001600160a01b038816600090815260016020908152604080832033845290915290205460ff16155b15610b2757604051633d83866f60e01b815260040160405180910390fd5b60008060005b87811015610c2757888882818110610b4757610b476130d7565b905060200201359250868682818110610b6257610b626130d7565b6000868152600260209081526040909120549102929092013593505060ff16610b9e57604051634f8cca5b60e11b815260040160405180910390fd5b6001600160a01b038b1660009081526020818152604080832086845290915281208054849290610bcf90849061331d565b90915550506001600160a01b038a1660009081526020818152604080832086845290915290208054830190558215610c1f57610c1f610c0e8c85610a6e565b610c188c86610a6e565b8585612368565b600101610b2d565b50886001600160a01b03168a6001600160a01b0316336001600160a01b03167f4a39dc06d4c0dbc64b70af90fd698a233a518aa5d07e595d983b8c0526c8f7fb8b8b8b8b604051610c7b9493929190613383565b60405180910390a46001600160a01b0389163b15610d235760405163bc197c8160e01b808252906001600160a01b038b169063bc197c8190610ccf9033908f908e908e908e908e908e908e906004016133b5565b6020604051808303816000875af1158015610cee573d6000803e3d6000fd5b505050506040513d601f19601f82011682018060405250810190610d12919061340a565b6001600160e01b0319161415610d2f565b6001600160a01b038916155b15610d4d5760405163290802d360e11b815260040160405180910390fd5b50505050505050505050565b60003660011981013560f01c9003600301354614610e2d5750604080518082018252600881526725b0b634a1b63ab160c11b60209182015281517f8b73c3c69bb8fe3d512ecc4cf759cc79239f7b179b0ffacaa9a75d522b39400f818301527f5b5b1483404ac93e4d9b025a8feb4c5ea9304085ab2e513c578af4cec7eb5319818401527fc89efdaa54c0f20c7adf612882df0950f5a951637e0307cdcb4c672f298b8bc660608201524660808201523060a0808301919091528351808303909101815260c0909101909252815191012090565b5060085490565b6060838214610e565760405163899ef10d60e01b815260040160405180910390fd5b8367ffffffffffffffff811115610e6f57610e6f6130c1565b604051908082528060200260200182016040528015610e98578160200160208202803683370190505b50905060005b84811015610f3f57600080878784818110610ebb57610ebb6130d7565b9050602002016020810190610ed09190613128565b6001600160a01b03166001600160a01b031681526020019081526020016000206000858584818110610f0457610f046130d7565b90506020020135815260200190815260200160002054828281518110610f2c57610f2c6130d7565b6020908102919091010152600101610e9e565b50949350505050565b610f717f54d7926f000000000000000000000000000000000000000000000000000000006120f0565b50600082815260026020908152604091829020805460ff19168415159081179091559151918252839133917f92d6650e3daf0c48674c410d3d8a281fe4d48a5a2236fe505d38e4da2112008791015b60405180910390a35050565b610ff57f731133e9000000000000000000000000000000000000000000000000000000006120f0565b5061100385858585856124fa565b5050505050565b6001600160a01b038216600090815260056020908152604080832084845290915281205480820361103c57600061107d565b6001600160a01b0384166000908152600660209081526040808320868452825280832060001985018452909152902054600160401b90046001600160c01b03165b6001600160c01b0316949350505050565b60008142116110c9576040517f83aace3d00000000000000000000000000000000000000000000000000000000815260040160405180910390fd5b6001600160a01b0384166000908152600560209081526040808320868452909152812054908190036110ff5760009150506112cc565b6001600160a01b038516600090815260066020908152604080832087845282528083206000198501845290915290205467ffffffffffffffff168310611187576001600160a01b03851660009081526006602090815260408083208784528252808320600019909401835292905220546001600160c01b03600160401b9091041690506112cc565b6001600160a01b0385166000908152600660209081526040808320878452825280832083805290915290205467ffffffffffffffff168310156111ce5760009150506112cc565b600060001982015b8181111561128c576001600160a01b0387166000908152600660209081526040808320898452825280832060028686030485038085529083529281902081518083019092525467ffffffffffffffff8116808352600160401b9091046001600160c01b0316928201929092529087900361126357602001516001600160c01b031694506112cc9350505050565b805167ffffffffffffffff1687111561127e57819350611285565b6001820392505b50506111d6565b506001600160a01b038616600090815260066020908152604080832088845282528083209383529290522054600160401b90046001600160c01b03169150505b9392505050565b6112fc7f8585c945000000000000000000000000000000000000000000000000000000006120f0565b508061130757600080fd5b638c995b9160e01b60005260036020527f9a8835d54467235524534f0e45c3073a7dc3fa8203fd91cf25b3afd01636d25e5467ffffffffffffffff8216111561136357604051631534858160e01b815260040160405180910390fd5b600780547fffffffffffffffffffffffffffffffff0000000000000000ffffffffffffffff16600160401b67ffffffffffffffff84169081029190911790915560405190815233907f54e7ed672a68dee1fe4f4da8b306a8318894dd65c07123309467447ed34b1aa19060200160405180910390a250565b6000806113e6610d59565b60075460405161142f917f993c8fdfda9d650af97b68e2ae5ff099fc8b92b5b760bd6dc4347d6f89441d19918d918d918d918d918d9167ffffffffffffffff169060200161345f565b604051602081830303815290604052805190602001206040516020016114879291907f190100000000000000000000000000000000000000000000000000000000000081526002810192909252602282015260420190565b60408051808303601f190181529190528051602090910120600754909150600090600160401b900467ffffffffffffffff16815b8181101561178f5760006001858989858181106114da576114da6130d7565b6114f092602060609092020190810191506134b9565b8a8a86818110611502576115026130d7565b905060600201602001358b8b8781811061151e5761151e6130d7565b905060600201604001356040516000815260200160405260405161155e949392919093845260ff9290921660208401526040830152606082015260800190565b6020604051602081039080840390855afa158015611580573d6000803e3d6000fd5b5050604051601f1901519150506001600160a01b0381163b1561170b577f1626ba7e000000000000000000000000000000000000000000000000000000006001600160a01b038216631626ba7e878b8b878181106115e0576115e06130d7565b905060600201602001358c8c888181106115fc576115fc6130d7565b905060600201604001358d8d89818110611618576116186130d7565b61162e92602060609092020190810191506134b9565b60405160200161167693929190928352602083019190915260f81b7fff0000000000000000000000000000000000000000000000000000000000000016604082015260410190565b6040516020818303038152906040526040518363ffffffff1660e01b81526004016116a29291906134dc565b602060405180830381865afa1580156116bf573d6000803e3d6000fd5b505050506040513d601f19601f820116820180604052508101906116e3919061340a565b6001600160e01b0319161461170b57604051633ba7c2c960e21b815260040160405180910390fd5b6001600160a01b038116600090815260208181526040808320638c995b9160e01b8452909152812054900361175357604051633ba7c2c960e21b815260040160405180910390fd5b806001600160a01b0316846001600160a01b03161061178557604051633ba7c2c960e21b815260040160405180910390fd5b92506001016114bb565b506117d28b8b8b8b8b8080601f01602080910402602001604051908101604052809392919081815260200183838082843760009201919091525061214292505050565b9b9a5050505050505050505050565b3360008181526001602090815260408083206001600160a01b03871680855290835292819020805460ff191686151590811790915590519081529192917f17307eab39ab6107e8899845ad3d59bd9653f200f220920489ca2b5937696c319101610fc0565b60608167ffffffffffffffff811115611861576118616130c1565b60405190808252806020026020018201604052801561189457816020015b606081526020019060019003908161187f5790505b50905060005b8281101561087f57600080308686858181106118b8576118b86130d7565b90506020028101906118ca9190613143565b6040516118d89291906134f5565b600060405180830381855af49150503d8060008114611913576040519150601f19603f3d011682016040523d82523d6000602084013e611918565b606091505b5091509150816119875760448151101561193157600080fd5b6004810190508080602001905181019061194b9190613505565b6040517f08c379a000000000000000000000000000000000000000000000000000000000815260040161197e9190612af2565b60405180910390fd5b8084848151811061199a5761199a6130d7565b6020908102919091010152505060010161189a565b60075467ffffffffffffffff16156119f3576040517fb2c6f10f00000000000000000000000000000000000000000000000000000000815260040160405180910390fd5b806119fd57600080fd5b81811115611a1e57604051631534858160e01b815260040160405180910390fd5b8315611ade5760005b84811015611adc57611ad3868683818110611a4457611a446130d7565b9050602002810190611a5691906130ed565b611a6490602081019061310d565b878784818110611a7657611a766130d7565b9050602002810190611a8891906130ed565b611a99906040810190602001613128565b888885818110611aab57611aab6130d7565b9050602002810190611abd91906130ed565b604001358989868181106107fb576107fb6130d7565b50600101611a27565b505b6000806000805b85811015611bcb57868682818110611aff57611aff6130d7565b9050602002016020810190611b149190613128565b9350836001600160a01b0316836001600160a01b031610611b4857604051633ba7c2c960e21b815260040160405180910390fd5b6001600160a01b038416600081815260208181526040808320638c995b9160e01b8085529252808320805460019081019091559051889750958101959481019433927fc3d58168c5ae7397731d063d5bbf3d657854427343f4c083240f7aacaa2d0f6292611bbe92918252602082015260400190565b60405180910390a4611ae5565b506007805467ffffffffffffffff8616600160401b027fffffffffffffffffffffffffffffffff00000000000000000000000000000000909116176001179055638c995b9160e01b60005260036020526fffffffffffffffffffffffffffffffff81167f9a8835d54467235524534f0e45c3073a7dc3fa8203fd91cf25b3afd01636d25e55611d0e604080518082018252600881526725b0b634a1b63ab160c11b60209182015281517f8b73c3c69bb8fe3d512ecc4cf759cc79239f7b179b0ffacaa9a75d522b39400f818301527f5b5b1483404ac93e4d9b025a8feb4c5ea9304085ab2e513c578af4cec7eb5319818401527fc89efdaa54c0f20c7adf612882df0950f5a951637e0307cdcb4c672f298b8bc660608201524660808201523060a0808301919091528351808303909101815260c0909101909252815191012090565b6008555050505050505050565b336001600160a01b03871614801590611d5857506001600160a01b038616600090815260016020908152604080832033845290915290205460ff16155b15611d7657604051633d83866f60e01b815260040160405180910390fd5b60008481526002602052604090205460ff16611da557604051634f8cca5b60e11b815260040160405180910390fd5b6001600160a01b03861660009081526020818152604080832087845290915281208054859290611dd690849061331d565b90915550506001600160a01b038581166000818152602081815260408083208984528252918290208054880190558151888152908101879052919289169133917fc3d58168c5ae7397731d063d5bbf3d657854427343f4c083240f7aacaa2d0f62910160405180910390a46001600160a01b0385163b15611edd5760405163f23a6e6160e01b808252906001600160a01b0387169063f23a6e6190611e899033908b908a908a908a908a906004016135a7565b6020604051808303816000875af1158015611ea8573d6000803e3d6000fd5b505050506040513d601f19601f82011682018060405250810190611ecc919061340a565b6001600160e01b0319161415611ee9565b6001600160a01b038516155b15611f075760405163290802d360e11b815260040160405180910390fd5b8315611f2b57611f2b611f1a8786610a6e565b611f248787610a6e565b8686612368565b505050505050565b336001600160a01b03841614801590611f7057506001600160a01b038316600090815260016020908152604080832033845290915290205460ff16155b8015611fa25750611fa07ff5298aca000000000000000000000000000000000000000000000000000000006120f0565b155b15611fc057604051633d83866f60e01b815260040160405180910390fd5b611fcb838383612652565b7f7366a46f00000000000000000000000000000000000000000000000000000000820161094457638c995b9160e01b60005260036020527f9a8835d54467235524534f0e45c3073a7dc3fa8203fd91cf25b3afd01636d25e54600754600160401b900467ffffffffffffffff16111561094457604051631534858160e01b815260040160405180910390fd5b60006001600160e01b031982167f01ffc9a70000000000000000000000000000000000000000000000000000000014806120ba57507fd9b67a26000000000000000000000000000000000000000000000000000000006001600160e01b03198316145b806106d55750506001600160e01b0319167f0e89341c000000000000000000000000000000000000000000000000000000001490565b60003330148061211757503360009081526020818152604080832085845290915290205415155b1561212457506001919050565b604051633d83866f60e01b815260040160405180910390fd5b919050565b6007805467ffffffffffffffff8082166001011667ffffffffffffffff1990911617905560008085600381111561217b5761217b613427565b036121f75760008083516020850186885af19050806121ad57604051633c47f9b560e21b815260040160405180910390fd5b836001600160a01b03167ffa3c55dc43f5cfdeb2abee243c63ad490db2fee39fd127076ed9e7afa15ad6388685856040516121ea939291906135ec565b60405180910390a2610aa4565b600185600381111561220b5761220b613427565b0361223c57600080835160208501875af49050806121ad57604051633c47f9b560e21b815260040160405180910390fd5b600285600381111561225057612250613427565b036122d157600082516020840185f090506001600160a01b03811661228857604051633c47f9b560e21b815260040160405180910390fd5b806001600160a01b03167fd187b7c22150909fa5ee0d652f5966e66148500fabe5615b1079e7ef39fe3fb787866040516122c392919061361b565b60405180910390a250610aa4565b6000808560601b6bffffffffffffffffffffffff191690508084518560200187f591506001600160a01b03821661231b57604051633c47f9b560e21b815260040160405180910390fd5b816001600160a01b03167fd187b7c22150909fa5ee0d652f5966e66148500fabe5615b1079e7ef39fe3fb7888760405161235692919061361b565b60405180910390a25050949350505050565b826001600160a01b0316846001600160a01b03161415801561238957508015155b156124f4576001600160a01b03841615612445576001600160a01b0384166000908152600560209081526040808320858452909152812054908181036123d0576000612421565b6001600160a01b03861660009081526006602090815260408083208784529091528120906123ff60018561331d565b8152602081019190915260400160002054600160401b90046001600160c01b03165b6001600160c01b031690506124428685848461243d888261331d565b6126f9565b50505b6001600160a01b038316156124f4576001600160a01b0383166000908152600560209081526040808320858452909152812054908181036124875760006124d8565b6001600160a01b03851660009081526006602090815260408083208784529091528120906124b660018561331d565b8152602081019190915260400160002054600160401b90046001600160c01b03165b6001600160c01b03169050611f2b8585848461243d8882613636565b50505050565b60008481526003602052604081208054859290612518908490613636565b90915550506001600160a01b0385166000818152602081815260408083208884528252808320805488019055805188815291820187905233917fc3d58168c5ae7397731d063d5bbf3d657854427343f4c083240f7aacaa2d0f62910160405180910390a46001600160a01b0385163b156126195760405163f23a6e6160e01b808252906001600160a01b0387169063f23a6e61906125c59033906000908a908a908a908a906004016135a7565b6020604051808303816000875af11580156125e4573d6000803e3d6000fd5b505050506040513d601f19601f82011682018060405250810190612608919061340a565b6001600160e01b0319161415612625565b6001600160a01b038516155b156126435760405163290802d360e11b815260040160405180910390fd5b6110036000611f248787610a6e565b6001600160a01b0383166000908152602081815260408083208584529091528120805483929061268390849061331d565b909155505060008281526003602090815260408083208054859003905580518581529182018490526001600160a01b0386169133917fc3d58168c5ae7397731d063d5bbf3d657854427343f4c083240f7aacaa2d0f62910160405180910390a46109446126f08484610a6e565b60008484612368565b60006127044261289d565b9050831580159061275057506001600160a01b038616600090815260066020908152604080832088845282528083206000198801845290915290205467ffffffffffffffff8281169116145b156127b85761275e826128e1565b6001600160a01b0387166000908152600660209081526040808320898452825280832060001989018452909152902080546001600160c01b0392909216600160401b0267ffffffffffffffff90921691909117905561284f565b60405180604001604052808267ffffffffffffffff1681526020016127dc846128e1565b6001600160c01b039081169091526001600160a01b03881660008181526006602090815260408083208b845282528083208a84528252808320865196830151909516600160401b0267ffffffffffffffff9096169590951790935590815260058252828120888252909152206001850190555b50604080518381526020810183905285916001600160a01b038816917f21a99d51b8a0a2e2ead709843a1ecfaab977908135cf1c085c0a6246eea6e0f0910160405180910390a35050505050565b6000600160401b8211156128dd576040517f5b7f254e00000000000000000000000000000000000000000000000000000000815260040160405180910390fd5b5090565b600078010000000000000000000000000000000000000000000000008211156128dd576040517fd5e0d1b200000000000000000000000000000000000000000000000000000000815260040160405180910390fd5b80356001600160a01b038116811461213d57600080fd5b6000806040838503121561296057600080fd5b61296983612936565b946020939093013593505050565b6001600160e01b03198116811461298d57600080fd5b50565b6000602082840312156129a257600080fd5b81356112cc81612977565b60008083601f8401126129bf57600080fd5b50813567ffffffffffffffff8111156129d757600080fd5b6020830191508360208260051b85010111156129f257600080fd5b9250929050565b60008060208385031215612a0c57600080fd5b823567ffffffffffffffff811115612a2357600080fd5b612a2f858286016129ad565b90969095509350505050565b6020808252825182820181905260009190848201906040850190845b81811015612a75578351151583529284019291840191600101612a57565b50909695505050505050565b600060208284031215612a9357600080fd5b5035919050565b60005b83811015612ab5578181015183820152602001612a9d565b838111156124f45750506000910152565b60008151808452612ade816020860160208601612a9a565b601f01601f19169290920160200192915050565b6020815260006112cc6020830184612ac6565b60008083601f840112612b1757600080fd5b50813567ffffffffffffffff811115612b2f57600080fd5b6020830191508360208285010111156129f257600080fd5b600080600080600060808688031215612b5f57600080fd5b612b6886612936565b9450612b7660208701612936565b935060408601359250606086013567ffffffffffffffff811115612b9957600080fd5b612ba588828901612b05565b969995985093965092949392505050565b600080600060408486031215612bcb57600080fd5b83359250602084013567ffffffffffffffff811115612be957600080fd5b612bf586828701612b05565b9497909650939450505050565b60008060008060008060008060a0898b031215612c1e57600080fd5b612c2789612936565b9750612c3560208a01612936565b9650604089013567ffffffffffffffff80821115612c5257600080fd5b612c5e8c838d016129ad565b909850965060608b0135915080821115612c7757600080fd5b612c838c838d016129ad565b909650945060808b0135915080821115612c9c57600080fd5b50612ca98b828c01612b05565b999c989b5096995094979396929594505050565b600080600060608486031215612cd257600080fd5b612cdb84612936565b95602085013595506040909401359392505050565b60008060008060408587031215612d0657600080fd5b843567ffffffffffffffff80821115612d1e57600080fd5b612d2a888389016129ad565b90965094506020870135915080821115612d4357600080fd5b50612d50878288016129ad565b95989497509550505050565b6020808252825182820181905260009190848201906040850190845b81811015612a7557835183529284019291840191600101612d78565b8035801515811461213d57600080fd5b60008060408385031215612db757600080fd5b82359150612dc760208401612d94565b90509250929050565b600080600080600060808688031215612de857600080fd5b612df186612936565b94506020860135935060408601359250606086013567ffffffffffffffff811115612b9957600080fd5b600060208284031215612e2d57600080fd5b813567ffffffffffffffff811681146112cc57600080fd5b80356004811061213d57600080fd5b600080600080600080600060a0888a031215612e6f57600080fd5b612e7888612e45565b9650612e8660208901612936565b955060408801359450606088013567ffffffffffffffff80821115612eaa57600080fd5b612eb68b838c01612b05565b909650945060808a0135915080821115612ecf57600080fd5b818a0191508a601f830112612ee357600080fd5b813581811115612ef257600080fd5b8b6020606083028501011115612f0757600080fd5b60208301945080935050505092959891949750929550565b60008060408385031215612f3257600080fd5b612f3b83612936565b9150612dc760208401612d94565b6000602080830181845280855180835260408601915060408160051b870101925083870160005b82811015612f9e57603f19888603018452612f8c858351612ac6565b94509285019290850190600101612f70565b5092979650505050505050565b600080600080600060608688031215612fc357600080fd5b853567ffffffffffffffff80821115612fdb57600080fd5b612fe789838a016129ad565b9097509550602088013591508082111561300057600080fd5b5061300d888289016129ad565b96999598509660400135949350505050565b6000806040838503121561303257600080fd5b61303b83612936565b9150612dc760208401612936565b60008060008060008060a0878903121561306257600080fd5b61306b87612936565b955061307960208801612936565b94506040870135935060608701359250608087013567ffffffffffffffff8111156130a357600080fd5b6130af89828a01612b05565b979a9699509497509295939492505050565b634e487b7160e01b600052604160045260246000fd5b634e487b7160e01b600052603260045260246000fd5b60008235607e1983360301811261310357600080fd5b9190910192915050565b60006020828403121561311f57600080fd5b6112cc82612e45565b60006020828403121561313a57600080fd5b6112cc82612936565b6000808335601e1984360301811261315a57600080fd5b83018035915067ffffffffffffffff82111561317557600080fd5b6020019150368190038213156129f257600080fd5b600181811c9082168061319e57607f821691505b6020821081036131be57634e487b7160e01b600052602260045260246000fd5b50919050565b601f82111561094457600081815260208120601f850160051c810160208610156131eb5750805b601f850160051c820191505b81811015611f2b578281556001016131f7565b67ffffffffffffffff831115613222576132226130c1565b61323683613230835461318a565b836131c4565b6000601f84116001811461326a57600085156132525750838201355b600019600387901b1c1916600186901b178355611003565b600083815260209020601f19861690835b8281101561329b578685013582556020948501946001909201910161327b565b50868210156132b85760001960f88860031b161c19848701351681555b505060018560011b0183555050505050565b81835281816020850137506000828201602090810191909152601f909101601f19169091010190565b602081526000610aa46020830184866132ca565b634e487b7160e01b600052601160045260246000fd5b60008282101561332f5761332f613307565b500390565b81835260007f07ffffffffffffffffffffffffffffffffffffffffffffffffffffffffffffff83111561336657600080fd5b8260051b8083602087013760009401602001938452509192915050565b604081526000613397604083018688613334565b82810360208401526133aa818587613334565b979650505050505050565b60006001600160a01b03808b168352808a1660208401525060a060408301526133e260a08301888a613334565b82810360608401526133f5818789613334565b905082810360808401526117d28185876132ca565b60006020828403121561341c57600080fd5b81516112cc81612977565b634e487b7160e01b600052602160045260246000fd5b6004811061345b57634e487b7160e01b600052602160045260246000fd5b9052565b87815261346f602082018861343d565b6001600160a01b038616604082015284606082015260c06080820152600061349b60c0830185876132ca565b905067ffffffffffffffff831660a083015298975050505050505050565b6000602082840312156134cb57600080fd5b813560ff811681146112cc57600080fd5b828152604060208201526000610aa46040830184612ac6565b8183823760009101908152919050565b60006020828403121561351757600080fd5b815167ffffffffffffffff8082111561352f57600080fd5b818401915084601f83011261354357600080fd5b815181811115613555576135556130c1565b604051601f8201601f19908116603f0116810190838211818310171561357d5761357d6130c1565b8160405282815287602084870101111561359657600080fd5b6133aa836020830160208801612a9a565b60006001600160a01b03808916835280881660208401525085604083015284606083015260a060808301526135e060a0830184866132ca565b98975050505050505050565b6135f6818561343d565b8260208201526060604082015260006136126060830184612ac6565b95945050505050565b60408101613629828561343d565b8260208301529392505050565b6000821982111561364957613649613307565b50019056fea264697066735822122096cbdb0dce0f34d0858d6f4456d80a5504b556a25618f7a27a1f141c6a14f98f64736f6c634300080f0033",
    "linkReferences": {}
  }
}