{
  "abi": [
    {
      "inputs": [
        {
          "internalType": "contract KaliClub",
          "name": "_uriFetcher",
          "type": "address"
        }
      ],
      "stateMutability": "payable",
      "type": "constructor"
    },
    {
      "inputs": [],
      "name": "ALREADY_INIT",
      "type": "error"
    },
    {
      "inputs": [],
      "name": "EXECUTE_FAILED",
      "type": "error"
    },
    {
      "inputs": [],
      "name": "INVALID_RECIPIENT",
      "type": "error"
    },
    {
      "inputs": [],
      "name": "INVALID_SIG",
      "type": "error"
    },
    {
      "inputs": [],
      "name": "LENGTH_MISMATCH",
      "type": "error"
    },
    {
      "inputs": [],
      "name": "NONTRANSFERABLE",
      "type": "error"
    },
    {
      "inputs": [],
      "name": "NOT_AUTHORIZED",
      "type": "error"
    },
    {
      "inputs": [],
      "name": "QUORUM_OVER_SUPPLY",
      "type": "error"
    },
    {
      "inputs": [],
      "name": "UINT192_MAX",
      "type": "error"
    },
    {
      "inputs": [],
      "name": "UINT64_MAX",
      "type": "error"
    },
    {
      "inputs": [],
      "name": "UNDETERMINED",
      "type": "error"
    },
    {
      "anonymous": false,
      "inputs": [
        {
          "indexed": true,
          "internalType": "address",
          "name": "owner",
          "type": "address"
        },
        {
          "indexed": true,
          "internalType": "address",
          "name": "operator",
          "type": "address"
        },
        {
          "indexed": false,
          "internalType": "bool",
          "name": "approved",
          "type": "bool"
        }
      ],
      "name": "ApprovalForAll",
      "type": "event"
    },
    {
      "anonymous": false,
      "inputs": [
        {
          "indexed": false,
          "internalType": "enum Operation",
          "name": "op",
          "type": "uint8"
        },
        {
          "indexed": true,
          "internalType": "address",
          "name": "creation",
          "type": "address"
        },
        {
          "indexed": false,
          "internalType": "uint256",
          "name": "value",
          "type": "uint256"
        }
      ],
      "name": "ContractCreated",
      "type": "event"
    },
    {
      "anonymous": false,
      "inputs": [
        {
          "indexed": true,
          "internalType": "address",
          "name": "delegator",
          "type": "address"
        },
        {
          "indexed": true,
          "internalType": "address",
          "name": "fromDelegate",
          "type": "address"
        },
        {
          "indexed": true,
          "internalType": "address",
          "name": "toDelegate",
          "type": "address"
        },
        {
          "indexed": false,
          "internalType": "uint256",
          "name": "id",
          "type": "uint256"
        }
      ],
      "name": "DelegateChanged",
      "type": "event"
    },
    {
      "anonymous": false,
      "inputs": [
        {
          "indexed": true,
          "internalType": "address",
          "name": "delegate",
          "type": "address"
        },
        {
          "indexed": true,
          "internalType": "uint256",
          "name": "id",
          "type": "uint256"
        },
        {
          "indexed": false,
          "internalType": "uint256",
          "name": "previousBalance",
          "type": "uint256"
        },
        {
          "indexed": false,
          "internalType": "uint256",
          "name": "newBalance",
          "type": "uint256"
        }
      ],
      "name": "DelegateVotesChanged",
      "type": "event"
    },
    {
      "anonymous": false,
      "inputs": [
        {
          "indexed": false,
          "internalType": "enum Operation",
          "name": "op",
          "type": "uint8"
        },
        {
          "indexed": true,
          "internalType": "address",
          "name": "to",
          "type": "address"
        },
        {
          "indexed": false,
          "internalType": "uint256",
          "name": "value",
          "type": "uint256"
        },
        {
          "indexed": false,
          "internalType": "bytes",
          "name": "data",
          "type": "bytes"
        }
      ],
      "name": "Executed",
      "type": "event"
    },
    {
      "anonymous": false,
      "inputs": [
        {
          "indexed": true,
          "internalType": "address",
          "name": "caller",
          "type": "address"
        },
        {
          "indexed": false,
          "internalType": "uint64",
          "name": "threshold",
          "type": "uint64"
        }
      ],
      "name": "QuorumSet",
      "type": "event"
    },
    {
      "anonymous": false,
      "inputs": [
        {
          "indexed": true,
          "internalType": "address",
          "name": "operator",
          "type": "address"
        },
        {
          "indexed": true,
          "internalType": "uint256",
          "name": "id",
          "type": "uint256"
        },
        {
          "indexed": false,
          "internalType": "bool",
          "name": "transferability",
          "type": "bool"
        }
      ],
      "name": "TokenTransferabilitySet",
      "type": "event"
    },
    {
      "anonymous": false,
      "inputs": [
        {
          "indexed": true,
          "internalType": "address",
          "name": "operator",
          "type": "address"
        },
        {
          "indexed": true,
          "internalType": "address",
          "name": "from",
          "type": "address"
        },
        {
          "indexed": true,
          "internalType": "address",
          "name": "to",
          "type": "address"
        },
        {
          "indexed": false,
          "internalType": "uint256[]",
          "name": "ids",
          "type": "uint256[]"
        },
        {
          "indexed": false,
          "internalType": "uint256[]",
          "name": "amounts",
          "type": "uint256[]"
        }
      ],
      "name": "TransferBatch",
      "type": "event"
    },
    {
      "anonymous": false,
      "inputs": [
        {
          "indexed": true,
          "internalType": "address",
          "name": "operator",
          "type": "address"
        },
        {
          "indexed": true,
          "internalType": "address",
          "name": "from",
          "type": "address"
        },
        {
          "indexed": true,
          "internalType": "address",
          "name": "to",
          "type": "address"
        },
        {
          "indexed": false,
          "internalType": "uint256",
          "name": "id",
          "type": "uint256"
        },
        {
          "indexed": false,
          "internalType": "uint256",
          "name": "amount",
          "type": "uint256"
        }
      ],
      "name": "TransferSingle",
      "type": "event"
    },
    {
      "anonymous": false,
      "inputs": [
        {
          "indexed": false,
          "internalType": "string",
          "name": "value",
          "type": "string"
        },
        {
          "indexed": true,
          "internalType": "uint256",
          "name": "id",
          "type": "uint256"
        }
      ],
      "name": "URI",
      "type": "event"
    },
    {
      "inputs": [],
      "name": "DOMAIN_SEPARATOR",
      "outputs": [
        {
          "internalType": "bytes32",
          "name": "",
          "type": "bytes32"
        }
      ],
      "stateMutability": "view",
      "type": "function"
    },
    {
      "inputs": [
        {
          "internalType": "address",
          "name": "",
          "type": "address"
        },
        {
          "internalType": "uint256",
          "name": "",
          "type": "uint256"
        }
      ],
      "name": "balanceOf",
      "outputs": [
        {
          "internalType": "uint256",
          "name": "",
          "type": "uint256"
        }
      ],
      "stateMutability": "view",
      "type": "function"
    },
    {
      "inputs": [
        {
          "internalType": "address[]",
          "name": "owners",
          "type": "address[]"
        },
        {
          "internalType": "uint256[]",
          "name": "ids",
          "type": "uint256[]"
        }
      ],
      "name": "balanceOfBatch",
      "outputs": [
        {
          "internalType": "uint256[]",
          "name": "balances",
          "type": "uint256[]"
        }
      ],
      "stateMutability": "view",
      "type": "function"
    },
    {
      "inputs": [
        {
          "components": [
            {
              "internalType": "enum Operation",
              "name": "op",
              "type": "uint8"
            },
            {
              "internalType": "address",
              "name": "to",
              "type": "address"
            },
            {
              "internalType": "uint256",
              "name": "value",
              "type": "uint256"
            },
            {
              "internalType": "bytes",
              "name": "data",
              "type": "bytes"
            }
          ],
          "internalType": "struct Call[]",
          "name": "calls",
          "type": "tuple[]"
        }
      ],
      "name": "batchExecute",
      "outputs": [
        {
          "internalType": "bool[]",
          "name": "successes",
          "type": "bool[]"
        }
      ],
      "stateMutability": "payable",
      "type": "function"
    },
    {
      "inputs": [
        {
          "internalType": "address",
          "name": "from",
          "type": "address"
        },
        {
          "internalType": "uint256",
          "name": "id",
          "type": "uint256"
        },
        {
          "internalType": "uint256",
          "name": "amount",
          "type": "uint256"
        }
      ],
      "name": "burn",
      "outputs": [],
      "stateMutability": "payable",
      "type": "function"
    },
    {
      "inputs": [
        {
          "internalType": "address",
          "name": "from",
          "type": "address"
        },
        {
          "internalType": "uint256",
          "name": "id",
          "type": "uint256"
        },
        {
          "internalType": "uint256",
          "name": "amount",
          "type": "uint256"
        }
      ],
      "name": "burnFrom",
      "outputs": [],
      "stateMutability": "payable",
      "type": "function"
    },
    {
      "inputs": [
        {
          "internalType": "address",
          "name": "from",
          "type": "address"
        }
      ],
      "name": "burnSigner",
      "outputs": [],
      "stateMutability": "payable",
      "type": "function"
    },
    {
      "inputs": [
        {
          "internalType": "address",
          "name": "",
          "type": "address"
        },
        {
          "internalType": "uint256",
          "name": "",
          "type": "uint256"
        },
        {
          "internalType": "uint256",
          "name": "",
          "type": "uint256"
        }
      ],
      "name": "checkpoints",
      "outputs": [
        {
          "internalType": "uint64",
          "name": "fromTimestamp",
          "type": "uint64"
        },
        {
          "internalType": "uint192",
          "name": "votes",
          "type": "uint192"
        }
      ],
      "stateMutability": "view",
      "type": "function"
    },
    {
      "inputs": [
        {
          "internalType": "address",
          "name": "delegatee",
          "type": "address"
        },
        {
          "internalType": "uint256",
          "name": "id",
          "type": "uint256"
        }
      ],
      "name": "delegate",
      "outputs": [],
      "stateMutability": "payable",
      "type": "function"
    },
    {
      "inputs": [
        {
          "internalType": "address",
          "name": "account",
          "type": "address"
        },
        {
          "internalType": "uint256",
          "name": "id",
          "type": "uint256"
        }
      ],
      "name": "delegates",
      "outputs": [
        {
          "internalType": "address",
          "name": "",
          "type": "address"
        }
      ],
      "stateMutability": "view",
      "type": "function"
    },
    {
      "inputs": [
        {
          "internalType": "enum Operation",
          "name": "op",
          "type": "uint8"
        },
        {
          "internalType": "address",
          "name": "to",
          "type": "address"
        },
        {
          "internalType": "uint256",
          "name": "value",
          "type": "uint256"
        },
        {
          "internalType": "bytes",
          "name": "data",
          "type": "bytes"
        },
        {
          "components": [
            {
              "internalType": "uint8",
              "name": "v",
              "type": "uint8"
            },
            {
              "internalType": "bytes32",
              "name": "r",
              "type": "bytes32"
            },
            {
              "internalType": "bytes32",
              "name": "s",
              "type": "bytes32"
            }
          ],
          "internalType": "struct Signature[]",
          "name": "sigs",
          "type": "tuple[]"
        }
      ],
      "name": "execute",
      "outputs": [
        {
          "internalType": "bool",
          "name": "success",
          "type": "bool"
        }
      ],
      "stateMutability": "payable",
      "type": "function"
    },
    {
      "inputs": [
        {
          "internalType": "address",
          "name": "account",
          "type": "address"
        },
        {
          "internalType": "uint256",
          "name": "id",
          "type": "uint256"
        }
      ],
      "name": "getCurrentVotes",
      "outputs": [
        {
          "internalType": "uint256",
          "name": "",
          "type": "uint256"
        }
      ],
      "stateMutability": "view",
      "type": "function"
    },
    {
      "inputs": [
        {
          "internalType": "address",
          "name": "account",
          "type": "address"
        },
        {
          "internalType": "uint256",
          "name": "id",
          "type": "uint256"
        },
        {
          "internalType": "uint256",
          "name": "timestamp",
          "type": "uint256"
        }
      ],
      "name": "getPriorVotes",
      "outputs": [
        {
          "internalType": "uint256",
          "name": "",
          "type": "uint256"
        }
      ],
      "stateMutability": "view",
      "type": "function"
    },
    {
      "inputs": [
        {
          "components": [
            {
              "internalType": "enum Operation",
              "name": "op",
              "type": "uint8"
            },
            {
              "internalType": "address",
              "name": "to",
              "type": "address"
            },
            {
              "internalType": "uint256",
              "name": "value",
              "type": "uint256"
            },
            {
              "internalType": "bytes",
              "name": "data",
              "type": "bytes"
            }
          ],
          "internalType": "struct Call[]",
          "name": "calls",
          "type": "tuple[]"
        },
        {
          "internalType": "address[]",
          "name": "signers",
          "type": "address[]"
        },
        {
          "internalType": "uint256",
          "name": "threshold",
          "type": "uint256"
        }
      ],
      "name": "init",
      "outputs": [],
      "stateMutability": "payable",
      "type": "function"
    },
    {
      "inputs": [
        {
          "internalType": "address",
          "name": "",
          "type": "address"
        },
        {
          "internalType": "address",
          "name": "",
          "type": "address"
        }
      ],
      "name": "isApprovedForAll",
      "outputs": [
        {
          "internalType": "bool",
          "name": "",
          "type": "bool"
        }
      ],
      "stateMutability": "view",
      "type": "function"
    },
    {
      "inputs": [
        {
          "internalType": "address",
          "name": "to",
          "type": "address"
        },
        {
          "internalType": "uint256",
          "name": "id",
          "type": "uint256"
        },
        {
          "internalType": "uint256",
          "name": "amount",
          "type": "uint256"
        },
        {
          "internalType": "bytes",
          "name": "data",
          "type": "bytes"
        }
      ],
      "name": "mint",
      "outputs": [],
      "stateMutability": "payable",
      "type": "function"
    },
    {
      "inputs": [
        {
          "internalType": "address",
          "name": "to",
          "type": "address"
        }
      ],
      "name": "mintSigner",
      "outputs": [],
      "stateMutability": "payable",
      "type": "function"
    },
    {
      "inputs": [
        {
          "internalType": "bytes[]",
          "name": "data",
          "type": "bytes[]"
        }
      ],
      "name": "multicall",
      "outputs": [
        {
          "internalType": "bytes[]",
          "name": "results",
          "type": "bytes[]"
        }
      ],
      "stateMutability": "payable",
      "type": "function"
    },
    {
      "inputs": [],
      "name": "nonce",
      "outputs": [
        {
          "internalType": "uint64",
          "name": "",
          "type": "uint64"
        }
      ],
      "stateMutability": "view",
      "type": "function"
    },
    {
      "inputs": [
        {
          "internalType": "address",
          "name": "",
          "type": "address"
        },
        {
          "internalType": "uint256",
          "name": "",
          "type": "uint256"
        }
      ],
      "name": "numCheckpoints",
      "outputs": [
        {
          "internalType": "uint256",
          "name": "",
          "type": "uint256"
        }
      ],
      "stateMutability": "view",
      "type": "function"
    },
    {
      "inputs": [
        {
          "internalType": "address",
          "name": "",
          "type": "address"
        },
        {
          "internalType": "address",
          "name": "",
          "type": "address"
        },
        {
          "internalType": "uint256[]",
          "name": "",
          "type": "uint256[]"
        },
        {
          "internalType": "uint256[]",
          "name": "",
          "type": "uint256[]"
        },
        {
          "internalType": "bytes",
          "name": "",
          "type": "bytes"
        }
      ],
      "name": "onERC1155BatchReceived",
      "outputs": [
        {
          "internalType": "bytes4",
          "name": "",
          "type": "bytes4"
        }
      ],
      "stateMutability": "payable",
      "type": "function"
    },
    {
      "inputs": [
        {
          "internalType": "address",
          "name": "",
          "type": "address"
        },
        {
          "internalType": "address",
          "name": "",
          "type": "address"
        },
        {
          "internalType": "uint256",
          "name": "",
          "type": "uint256"
        },
        {
          "internalType": "uint256",
          "name": "",
          "type": "uint256"
        },
        {
          "internalType": "bytes",
          "name": "",
          "type": "bytes"
        }
      ],
      "name": "onERC1155Received",
      "outputs": [
        {
          "internalType": "bytes4",
          "name": "",
          "type": "bytes4"
        }
      ],
      "stateMutability": "payable",
      "type": "function"
    },
    {
      "inputs": [
        {
          "internalType": "address",
          "name": "",
          "type": "address"
        },
        {
          "internalType": "address",
          "name": "",
          "type": "address"
        },
        {
          "internalType": "uint256",
          "name": "",
          "type": "uint256"
        },
        {
          "internalType": "bytes",
          "name": "",
          "type": "bytes"
        }
      ],
      "name": "onERC721Received",
      "outputs": [
        {
          "internalType": "bytes4",
          "name": "",
          "type": "bytes4"
        }
      ],
      "stateMutability": "payable",
      "type": "function"
    },
    {
      "inputs": [],
      "name": "quorum",
      "outputs": [
        {
          "internalType": "uint64",
          "name": "",
          "type": "uint64"
        }
      ],
      "stateMutability": "view",
      "type": "function"
    },
    {
      "inputs": [
        {
          "internalType": "address",
          "name": "from",
          "type": "address"
        },
        {
          "internalType": "address",
          "name": "to",
          "type": "address"
        },
        {
          "internalType": "uint256[]",
          "name": "ids",
          "type": "uint256[]"
        },
        {
          "internalType": "uint256[]",
          "name": "amounts",
          "type": "uint256[]"
        },
        {
          "internalType": "bytes",
          "name": "data",
          "type": "bytes"
        }
      ],
      "name": "safeBatchTransferFrom",
      "outputs": [],
      "stateMutability": "payable",
      "type": "function"
    },
    {
      "inputs": [
        {
          "internalType": "address",
          "name": "from",
          "type": "address"
        },
        {
          "internalType": "address",
          "name": "to",
          "type": "address"
        },
        {
          "internalType": "uint256",
          "name": "id",
          "type": "uint256"
        },
        {
          "internalType": "uint256",
          "name": "amount",
          "type": "uint256"
        },
        {
          "internalType": "bytes",
          "name": "data",
          "type": "bytes"
        }
      ],
      "name": "safeTransferFrom",
      "outputs": [],
      "stateMutability": "payable",
      "type": "function"
    },
    {
      "inputs": [
        {
          "internalType": "address",
          "name": "operator",
          "type": "address"
        },
        {
          "internalType": "bool",
          "name": "approved",
          "type": "bool"
        }
      ],
      "name": "setApprovalForAll",
      "outputs": [],
      "stateMutability": "payable",
      "type": "function"
    },
    {
      "inputs": [
        {
          "internalType": "uint64",
          "name": "threshold",
          "type": "uint64"
        }
      ],
      "name": "setQuorum",
      "outputs": [],
      "stateMutability": "payable",
      "type": "function"
    },
    {
      "inputs": [
        {
          "internalType": "uint256",
          "name": "id",
          "type": "uint256"
        },
        {
          "internalType": "bool",
          "name": "transferability",
          "type": "bool"
        }
      ],
      "name": "setTokenTransferability",
      "outputs": [],
      "stateMutability": "payable",
      "type": "function"
    },
    {
      "inputs": [
        {
          "internalType": "uint256",
          "name": "id",
          "type": "uint256"
        },
        {
          "internalType": "string",
          "name": "tokenURI",
          "type": "string"
        }
      ],
      "name": "setTokenURI",
      "outputs": [],
      "stateMutability": "payable",
      "type": "function"
    },
    {
      "inputs": [
        {
          "internalType": "bytes4",
          "name": "interfaceId",
          "type": "bytes4"
        }
      ],
      "name": "supportsInterface",
      "outputs": [
        {
          "internalType": "bool",
          "name": "",
          "type": "bool"
        }
      ],
      "stateMutability": "view",
      "type": "function"
    },
    {
      "inputs": [
        {
          "internalType": "uint256",
          "name": "",
          "type": "uint256"
        }
      ],
      "name": "totalSupply",
      "outputs": [
        {
          "internalType": "uint256",
          "name": "",
          "type": "uint256"
        }
      ],
      "stateMutability": "view",
      "type": "function"
    },
    {
      "inputs": [
        {
          "internalType": "uint256",
          "name": "",
          "type": "uint256"
        }
      ],
      "name": "transferable",
      "outputs": [
        {
          "internalType": "bool",
          "name": "",
          "type": "bool"
        }
      ],
      "stateMutability": "view",
      "type": "function"
    },
    {
      "inputs": [
        {
          "internalType": "uint256",
          "name": "id",
          "type": "uint256"
        }
      ],
      "name": "uri",
      "outputs": [
        {
          "internalType": "string",
          "name": "",
          "type": "string"
        }
      ],
      "stateMutability": "view",
      "type": "function"
    }
  ],
  "bytecode": {
    "object": "0x60a06040526040516200393b3803806200393b833981016040819052620000269162000038565b6001600160a01b03166080526200006a565b6000602082840312156200004b57600080fd5b81516001600160a01b03811681146200006357600080fd5b9392505050565b6080516138b5620000866000396000610a7f01526138b56000f3fe6080604052600436106102185760003560e01c8063807df56d1161011d578063b2839f5e116100b0578063e985e9c51161007f578063f242432a11610064578063f242432a146106a0578063f4c3b4d7146106b3578063f5298aca146106e357600080fd5b8063e985e9c514610645578063f23a6e611461068057600080fd5b8063b2839f5e146105d0578063bc197c81146105e3578063bd85b03914610605578063c590e89f1461063257600080fd5b8063a22cb465116100ec578063a22cb46514610544578063ac9650d814610557578063afa88bca14610577578063affed0e0146105af57600080fd5b8063807df56d146104de578063836eebee146104fe5780638585c9451461051e5780638c995b911461053157600080fd5b80631703a018116101b0578063387bbabd1161017f57806354d7926f1161016457806354d7926f146104a557806357ac01ad146104b8578063731133e9146104cb57600080fd5b8063387bbabd146103f65780634e1273f41461047857600080fd5b80631703a0181461035557806327dd1b00146103965780632eb2c2d6146103ce5780633644e515146103e157600080fd5b80630e89341c116101ec5780630e89341c146102ca578063124d91e5146102f7578063150b7a021461030a578063162094c41461034257600080fd5b8062fdd58e1461021d57806301ffc9a714610265578063023e8d8414610295578063026e402b146102b5575b600080fd5b34801561022957600080fd5b50610252610238366004612b70565b600060208181529281526040808220909352908152205481565b6040519081526020015b60405180910390f35b34801561027157600080fd5b50610285610280366004612bb0565b6106f6565b604051901515815260200161025c565b6102a86102a3366004612c19565b610755565b60405161025c9190612c5b565b6102c86102c3366004612b70565b6108ff565b005b3480156102d657600080fd5b506102ea6102e5366004612ca1565b6109c2565b60405161025c9190612d12565b6102c8610305366004612d25565b610b03565b610329610318366004612d9a565b630a85bd0160e11b95945050505050565b6040516001600160e01b0319909116815260200161025c565b6102c8610350366004612e09565b610b41565b34801561036157600080fd5b5060075461037d90600160401b900467ffffffffffffffff1681565b60405167ffffffffffffffff909116815260200161025c565b3480156103a257600080fd5b506103b66103b1366004612b70565b610bc3565b6040516001600160a01b03909116815260200161025c565b6102c86103dc366004612e55565b610c01565b3480156103ed57600080fd5b50610252610eae565b34801561040257600080fd5b50610450610411366004612d25565b600660209081526000938452604080852082529284528284209052825290205467ffffffffffffffff811690600160401b90046001600160c01b031682565b6040805167ffffffffffffffff90931683526001600160c01b0390911660208301520161025c565b34801561048457600080fd5b50610498610493366004612f10565b610f89565b60405161025c9190612f7c565b6102c86104b3366004612fc4565b61109d565b6102c86104c6366004612ff0565b611120565b6102c86104d936600461300b565b611230565b3480156104ea57600080fd5b506102526104f9366004612b70565b611277565b34801561050a57600080fd5b50610252610519366004612d25565b6112fb565b6102c861052c366004613056565b61153f565b61028561053f36600461308f565b61163f565b6102c861055236600461315a565b611a3e565b61056a610565366004612c19565b611aa3565b60405161025c9190613184565b34801561058357600080fd5b50610252610592366004612b70565b600560209081526000928352604080842090915290825290205481565b3480156105bb57600080fd5b5060075461037d9067ffffffffffffffff1681565b6102c86105de366004612ff0565b611c0c565b6103296105f1366004612e55565b63bc197c8160e01b98975050505050505050565b34801561061157600080fd5b50610252610620366004612ca1565b60036020526000908152604090205481565b6102c86106403660046131e6565b611cbe565b34801561065157600080fd5b5061028561066036600461325a565b600160209081526000928352604080842090915290825290205460ff1681565b61032961068e366004613284565b63f23a6e6160e01b9695505050505050565b6102c86106ae366004613284565b612012565b3480156106bf57600080fd5b506102856106ce366004612ca1565b60026020526000908152604090205460ff1681565b6102c86106f1366004612d25565b61222a565b60006001600160e01b03198216630a85bd0160e11b148061074057507f4e2312e0000000000000000000000000000000000000000000000000000000006001600160e01b03198316145b8061074f575061074f8261228f565b92915050565b60606107807f023e8d840000000000000000000000000000000000000000000000000000000061230f565b8167ffffffffffffffff811115610799576107996132fc565b6040519080825280602002602001820160405280156107c2578160200160208202803683370190505b50905060005b828110156108f8576108ce8484838181106107e5576107e5613312565b90506020028101906107f79190613328565b610805906020810190613348565b85858481811061081757610817613312565b90506020028101906108299190613328565b61083a906040810190602001612ff0565b86868581811061084c5761084c613312565b905060200281019061085e9190613328565b6040013587878681811061087457610874613312565b90506020028101906108869190613328565b610894906060810190613363565b8080601f01602080910402602001604051908101604052809392919081815260200183838082843760009201919091525061236092505050565b8282815181106108e0576108e0613312565b911515602092830291909101909101526001016107c8565b5092915050565b600061090b3383610bc3565b33600081815260046020908152604080832087845282529182902080547fffffffffffffffffffffffff0000000000000000000000000000000000000000166001600160a01b038981169182179092559251878152949550919391851692917f287e04de574701d97a55bd9ea85b32defecf76a607b8007ee9ae8c126bf7a746910160405180910390a4336000908152602081815260408083208584529091529020546109bd90829085908590612586565b505050565b6000818152600960205260408120805460609291906109e0906133aa565b80601f0160208091040260200160405190810160405280929190818152602001828054610a0c906133aa565b8015610a595780601f10610a2e57610100808354040283529160200191610a59565b820191906000526020600020905b815481529060010190602001808311610a3c57829003601f168201915b50505050509050805160000361074f576040516303a24d0760e21b8152600481018490527f00000000000000000000000000000000000000000000000000000000000000006001600160a01b031690630e89341c90602401600060405180830381865afa158015610ace573d6000803e3d6000fd5b505050506040513d6000823e601f3d908101601f19168201604052610af691908101906133de565b9392505050565b50919050565b81610b0d57600080fd5b610b367f124d91e50000000000000000000000000000000000000000000000000000000061230f565b6109bd838383612718565b610b6a7f162094c40000000000000000000000000000000000000000000000000000000061230f565b6000838152600960205260409020610b838284836134d1565b50827f6bb7ff708619ba0610cba295a58592e0451dee2622938c8755667688daf3529b8383604051610bb69291906135ba565b60405180910390a2505050565b6001600160a01b0380831660009081526004602090815260408083208584529091528120549091168015610bf75780610bf9565b835b949350505050565b848314610c215760405163899ef10d60e01b815260040160405180910390fd5b336001600160a01b03891614801590610c5e57506001600160a01b038816600090815260016020908152604080832033845290915290205460ff16155b15610c7c57604051633d83866f60e01b815260040160405180910390fd5b60008060005b87811015610d7c57888882818110610c9c57610c9c613312565b905060200201359250868682818110610cb757610cb7613312565b6000868152600260209081526040909120549102929092013593505060ff16610cf357604051634f8cca5b60e11b815260040160405180910390fd5b6001600160a01b038b1660009081526020818152604080832086845290915281208054849290610d249084906135e4565b90915550506001600160a01b038a1660009081526020818152604080832086845290915290208054830190558215610d7457610d74610d638c85610bc3565b610d6d8c86610bc3565b8585612586565b600101610c82565b50886001600160a01b03168a6001600160a01b0316336001600160a01b03167f4a39dc06d4c0dbc64b70af90fd698a233a518aa5d07e595d983b8c0526c8f7fb8b8b8b8b604051610dd0949392919061364a565b60405180910390a46001600160a01b0389163b15610e785760405163bc197c8160e01b808252906001600160a01b038b169063bc197c8190610e249033908f908e908e908e908e908e908e90600401613671565b6020604051808303816000875af1158015610e43573d6000803e3d6000fd5b505050506040513d601f19601f82011682018060405250810190610e6791906136c6565b6001600160e01b0319161415610e84565b6001600160a01b038916155b15610ea25760405163290802d360e11b815260040160405180910390fd5b50505050505050505050565b60003660011981013560f01c9003600301354614610f825750604080518082018252600881526725b0b634a1b63ab160c11b60209182015281517f8b73c3c69bb8fe3d512ecc4cf759cc79239f7b179b0ffacaa9a75d522b39400f818301527f5b5b1483404ac93e4d9b025a8feb4c5ea9304085ab2e513c578af4cec7eb5319818401527fc89efdaa54c0f20c7adf612882df0950f5a951637e0307cdcb4c672f298b8bc660608201524660808201523060a0808301919091528351808303909101815260c0909101909252815191012090565b5060085490565b6060838214610fab5760405163899ef10d60e01b815260040160405180910390fd5b8367ffffffffffffffff811115610fc457610fc46132fc565b604051908082528060200260200182016040528015610fed578160200160208202803683370190505b50905060005b848110156110945760008087878481811061101057611010613312565b90506020020160208101906110259190612ff0565b6001600160a01b03166001600160a01b03168152602001908152602001600020600085858481811061105957611059613312565b9050602002013581526020019081526020016000205482828151811061108157611081613312565b6020908102919091010152600101610ff3565b50949350505050565b6110c67f54d7926f0000000000000000000000000000000000000000000000000000000061230f565b600082815260026020908152604091829020805460ff19168415159081179091559151918252839133917f92d6650e3daf0c48674c410d3d8a281fe4d48a5a2236fe505d38e4da2112008791015b60405180910390a35050565b6111497f57ac01ad0000000000000000000000000000000000000000000000000000000061230f565b6001600160a01b03811660009081526020818152604080832083805290915281208054909190611178906136e3565b909155506000805260036020527f3617319a054d772f909f7c479a2cebe5066e836a939412e32403c99029b92eff80546000190190819055600754600160401b900467ffffffffffffffff1611156111e357604051631534858160e01b815260040160405180910390fd5b60408051600080825260016020830152916001600160a01b0384169133917fc3d58168c5ae7397731d063d5bbf3d657854427343f4c083240f7aacaa2d0f6291015b60405180910390a450565b6112597f731133e90000000000000000000000000000000000000000000000000000000061230f565b8361126357600080fd5b61127085858585856127bf565b5050505050565b6001600160a01b03821660009081526005602090815260408083208484529091528120548082036112a95760006112ea565b6001600160a01b0384166000908152600660209081526040808320868452825280832060001985018452909152902054600160401b90046001600160c01b03165b6001600160c01b0316949350505050565b6000814211611336576040517f83aace3d00000000000000000000000000000000000000000000000000000000815260040160405180910390fd5b6001600160a01b03841660009081526005602090815260408083208684529091528120549081900361136c576000915050610af6565b6001600160a01b038516600090815260066020908152604080832087845282528083206000198501845290915290205467ffffffffffffffff1683106113f4576001600160a01b03851660009081526006602090815260408083208784528252808320600019909401835292905220546001600160c01b03600160401b909104169050610af6565b6001600160a01b0385166000908152600660209081526040808320878452825280832083805290915290205467ffffffffffffffff1683101561143b576000915050610af6565b600060001982015b818111156114f9576001600160a01b0387166000908152600660209081526040808320898452825280832060028686030485038085529083529281902081518083019092525467ffffffffffffffff8116808352600160401b9091046001600160c01b031692820192909252908790036114d057602001516001600160c01b03169450610af69350505050565b805167ffffffffffffffff168711156114eb578193506114f2565b6001820392505b5050611443565b506001600160a01b038616600090815260066020908152604080832088845282528083209383529290522054600160401b90046001600160c01b03169150509392505050565b6115687f8585c9450000000000000000000000000000000000000000000000000000000061230f565b8061157257600080fd5b6000805260036020527f3617319a054d772f909f7c479a2cebe5066e836a939412e32403c99029b92eff5467ffffffffffffffff821611156115c757604051631534858160e01b815260040160405180910390fd5b600780547fffffffffffffffffffffffffffffffff0000000000000000ffffffffffffffff16600160401b67ffffffffffffffff84169081029190911790915560405190815233907f54e7ed672a68dee1fe4f4da8b306a8318894dd65c07123309467447ed34b1aa19060200160405180910390a250565b60008061164a610eae565b600754604051611693917f993c8fdfda9d650af97b68e2ae5ff099fc8b92b5b760bd6dc4347d6f89441d19918d918d918d918d918d9167ffffffffffffffff1690602001613732565b604051602081830303815290604052805190602001206040516020016116eb9291907f190100000000000000000000000000000000000000000000000000000000000081526002810192909252602282015260420190565b60408051808303601f190181529190528051602090910120600754909150600090600160401b900467ffffffffffffffff16815b818110156119ec57600060018589898581811061173e5761173e613312565b611754926020606090920201908101915061378c565b8a8a8681811061176657611766613312565b905060600201602001358b8b8781811061178257611782613312565b90506060020160400135604051600081526020016040526040516117c2949392919093845260ff9290921660208401526040830152606082015260800190565b6020604051602081039080840390855afa1580156117e4573d6000803e3d6000fd5b5050604051601f1901519150506001600160a01b0381163b1561196f577f1626ba7e000000000000000000000000000000000000000000000000000000006001600160a01b038216631626ba7e878b8b8781811061184457611844613312565b905060600201602001358c8c8881811061186057611860613312565b905060600201604001358d8d8981811061187c5761187c613312565b611892926020606090920201908101915061378c565b6040516020016118da93929190928352602083019190915260f81b7fff0000000000000000000000000000000000000000000000000000000000000016604082015260410190565b6040516020818303038152906040526040518363ffffffff1660e01b81526004016119069291906137af565b602060405180830381865afa158015611923573d6000803e3d6000fd5b505050506040513d601f19601f8201168201806040525081019061194791906136c6565b6001600160e01b0319161461196f57604051633ba7c2c960e21b815260040160405180910390fd5b6001600160a01b03811660009081526020818152604080832083805290915281205490036119b057604051633ba7c2c960e21b815260040160405180910390fd5b806001600160a01b0316846001600160a01b0316106119e257604051633ba7c2c960e21b815260040160405180910390fd5b925060010161171f565b50611a2f8b8b8b8b8b8080601f01602080910402602001604051908101604052809392919081815260200183838082843760009201919091525061236092505050565b9b9a5050505050505050505050565b3360008181526001602090815260408083206001600160a01b03871680855290835292819020805460ff191686151590811790915590519081529192917f17307eab39ab6107e8899845ad3d59bd9653f200f220920489ca2b5937696c319101611114565b60608167ffffffffffffffff811115611abe57611abe6132fc565b604051908082528060200260200182016040528015611af157816020015b6060815260200190600190039081611adc5790505b50905060005b828110156108f85760008030868685818110611b1557611b15613312565b9050602002810190611b279190613363565b604051611b359291906137c8565b600060405180830381855af49150503d8060008114611b70576040519150601f19603f3d011682016040523d82523d6000602084013e611b75565b606091505b509150915081611be457604481511015611b8e57600080fd5b60048101905080806020019051810190611ba891906133de565b6040517f08c379a0000000000000000000000000000000000000000000000000000000008152600401611bdb9190612d12565b60405180910390fd5b80848481518110611bf757611bf7613312565b60209081029190910101525050600101611af7565b611c357fb2839f5e0000000000000000000000000000000000000000000000000000000061230f565b6001600160a01b038116600081815260208181526040808320838052825280832080546001908101909155600383527f3617319a054d772f909f7c479a2cebe5066e836a939412e32403c99029b92eff80548201905581518481529283015233917fc3d58168c5ae7397731d063d5bbf3d657854427343f4c083240f7aacaa2d0f629101611225565b60075467ffffffffffffffff1615611d02576040517fb2c6f10f00000000000000000000000000000000000000000000000000000000815260040160405180910390fd5b80611d0c57600080fd5b81811115611d2d57604051631534858160e01b815260040160405180910390fd5b8315611ded5760005b84811015611deb57611de2868683818110611d5357611d53613312565b9050602002810190611d659190613328565b611d73906020810190613348565b878784818110611d8557611d85613312565b9050602002810190611d979190613328565b611da8906040810190602001612ff0565b888885818110611dba57611dba613312565b9050602002810190611dcc9190613328565b6040013589898681811061087457610874613312565b50600101611d36565b505b6000806000805b85811015611ec957868682818110611e0e57611e0e613312565b9050602002016020810190611e239190612ff0565b9350836001600160a01b0316836001600160a01b031610611e5757604051633ba7c2c960e21b815260040160405180910390fd5b6001600160a01b038416600081815260208181526040808320838052825280832080546001908101909155815184815292830181905281518998509681019695019433927fc3d58168c5ae7397731d063d5bbf3d657854427343f4c083240f7aacaa2d0f6292908290030190a4611df4565b506007805467ffffffffffffffff8616600160401b027fffffffffffffffffffffffffffffffff000000000000000000000000000000009091161760011790556000805260036020526fffffffffffffffffffffffffffffffff81167f3617319a054d772f909f7c479a2cebe5066e836a939412e32403c99029b92eff55612005604080518082018252600881526725b0b634a1b63ab160c11b60209182015281517f8b73c3c69bb8fe3d512ecc4cf759cc79239f7b179b0ffacaa9a75d522b39400f818301527f5b5b1483404ac93e4d9b025a8feb4c5ea9304085ab2e513c578af4cec7eb5319818401527fc89efdaa54c0f20c7adf612882df0950f5a951637e0307cdcb4c672f298b8bc660608201524660808201523060a0808301919091528351808303909101815260c0909101909252815191012090565b6008555050505050505050565b336001600160a01b0387161480159061204f57506001600160a01b038616600090815260016020908152604080832033845290915290205460ff16155b1561206d57604051633d83866f60e01b815260040160405180910390fd5b60008481526002602052604090205460ff1661209c57604051634f8cca5b60e11b815260040160405180910390fd5b6001600160a01b038616600090815260208181526040808320878452909152812080548592906120cd9084906135e4565b90915550506001600160a01b038581166000818152602081815260408083208984528252918290208054880190558151888152908101879052919289169133917fc3d58168c5ae7397731d063d5bbf3d657854427343f4c083240f7aacaa2d0f62910160405180910390a46001600160a01b0385163b156121d45760405163f23a6e6160e01b808252906001600160a01b0387169063f23a6e61906121809033908b908a908a908a908a906004016137d8565b6020604051808303816000875af115801561219f573d6000803e3d6000fd5b505050506040513d601f19601f820116820180604052508101906121c391906136c6565b6001600160e01b03191614156121e0565b6001600160a01b038516155b156121fe5760405163290802d360e11b815260040160405180910390fd5b8315612222576122226122118786610bc3565b61221b8787610bc3565b8686612586565b505050505050565b8161223457600080fd5b336001600160a01b0384161480159061227157506001600160a01b038316600090815260016020908152604080832033845290915290205460ff16155b15610b3657604051633d83866f60e01b815260040160405180910390fd5b60006001600160e01b031982167f01ffc9a70000000000000000000000000000000000000000000000000000000014806122f257507fd9b67a26000000000000000000000000000000000000000000000000000000006001600160e01b03198316145b8061074f5750506001600160e01b0319166303a24d0760e21b1490565b33301480159061233f5750336000908152602081815260408083206001600160e01b031985168452909152902054155b1561235d57604051633d83866f60e01b815260040160405180910390fd5b50565b6007805467ffffffffffffffff8082166001011667ffffffffffffffff19909116179055600080856003811115612399576123996136fa565b036124155760008083516020850186885af19050806123cb57604051633c47f9b560e21b815260040160405180910390fd5b836001600160a01b03167ffa3c55dc43f5cfdeb2abee243c63ad490db2fee39fd127076ed9e7afa15ad6388685856040516124089392919061381d565b60405180910390a2610bf9565b6001856003811115612429576124296136fa565b0361245a57600080835160208501875af49050806123cb57604051633c47f9b560e21b815260040160405180910390fd5b600285600381111561246e5761246e6136fa565b036124ef57600082516020840185f090506001600160a01b0381166124a657604051633c47f9b560e21b815260040160405180910390fd5b806001600160a01b03167fd187b7c22150909fa5ee0d652f5966e66148500fabe5615b1079e7ef39fe3fb787866040516124e192919061384c565b60405180910390a250610bf9565b6000808560601b6bffffffffffffffffffffffff191690508084518560200187f591506001600160a01b03821661253957604051633c47f9b560e21b815260040160405180910390fd5b816001600160a01b03167fd187b7c22150909fa5ee0d652f5966e66148500fabe5615b1079e7ef39fe3fb7888760405161257492919061384c565b60405180910390a25050949350505050565b826001600160a01b0316846001600160a01b0316141580156125a757508015155b15612712576001600160a01b03841615612663576001600160a01b0384166000908152600560209081526040808320858452909152812054908181036125ee57600061263f565b6001600160a01b038616600090815260066020908152604080832087845290915281209061261d6001856135e4565b8152602081019190915260400160002054600160401b90046001600160c01b03165b6001600160c01b031690506126608685848461265b88826135e4565b612917565b50505b6001600160a01b03831615612712576001600160a01b0383166000908152600560209081526040808320858452909152812054908181036126a55760006126f6565b6001600160a01b03851660009081526006602090815260408083208784529091528120906126d46001856135e4565b8152602081019190915260400160002054600160401b90046001600160c01b03165b6001600160c01b031690506122228585848461265b8882613867565b50505050565b6001600160a01b038316600090815260208181526040808320858452909152812080548392906127499084906135e4565b909155505060008281526003602090815260408083208054859003905580518581529182018490526001600160a01b0386169133917fc3d58168c5ae7397731d063d5bbf3d657854427343f4c083240f7aacaa2d0f62910160405180910390a46109bd6127b68484610bc3565b60008484612586565b600084815260036020526040812080548592906127dd908490613867565b90915550506001600160a01b0385166000818152602081815260408083208884528252808320805488019055805188815291820187905233917fc3d58168c5ae7397731d063d5bbf3d657854427343f4c083240f7aacaa2d0f62910160405180910390a46001600160a01b0385163b156128de5760405163f23a6e6160e01b808252906001600160a01b0387169063f23a6e619061288a9033906000908a908a908a908a906004016137d8565b6020604051808303816000875af11580156128a9573d6000803e3d6000fd5b505050506040513d601f19601f820116820180604052508101906128cd91906136c6565b6001600160e01b03191614156128ea565b6001600160a01b038516155b156129085760405163290802d360e11b815260040160405180910390fd5b611270600061221b8787610bc3565b600061292242612abb565b9050831580159061296e57506001600160a01b038616600090815260066020908152604080832088845282528083206000198801845290915290205467ffffffffffffffff8281169116145b156129d65761297c82612aff565b6001600160a01b0387166000908152600660209081526040808320898452825280832060001989018452909152902080546001600160c01b0392909216600160401b0267ffffffffffffffff909216919091179055612a6d565b60405180604001604052808267ffffffffffffffff1681526020016129fa84612aff565b6001600160c01b039081169091526001600160a01b03881660008181526006602090815260408083208b845282528083208a84528252808320865196830151909516600160401b0267ffffffffffffffff9096169590951790935590815260058252828120888252909152206001850190555b50604080518381526020810183905285916001600160a01b038816917f21a99d51b8a0a2e2ead709843a1ecfaab977908135cf1c085c0a6246eea6e0f0910160405180910390a35050505050565b6000600160401b821115612afb576040517f5b7f254e00000000000000000000000000000000000000000000000000000000815260040160405180910390fd5b5090565b60007801000000000000000000000000000000000000000000000000821115612afb576040517fd5e0d1b200000000000000000000000000000000000000000000000000000000815260040160405180910390fd5b80356001600160a01b0381168114612b6b57600080fd5b919050565b60008060408385031215612b8357600080fd5b612b8c83612b54565b946020939093013593505050565b6001600160e01b03198116811461235d57600080fd5b600060208284031215612bc257600080fd5b8135610af681612b9a565b60008083601f840112612bdf57600080fd5b50813567ffffffffffffffff811115612bf757600080fd5b6020830191508360208260051b8501011115612c1257600080fd5b9250929050565b60008060208385031215612c2c57600080fd5b823567ffffffffffffffff811115612c4357600080fd5b612c4f85828601612bcd565b90969095509350505050565b6020808252825182820181905260009190848201906040850190845b81811015612c95578351151583529284019291840191600101612c77565b50909695505050505050565b600060208284031215612cb357600080fd5b5035919050565b60005b83811015612cd5578181015183820152602001612cbd565b838111156127125750506000910152565b60008151808452612cfe816020860160208601612cba565b601f01601f19169290920160200192915050565b602081526000610af66020830184612ce6565b600080600060608486031215612d3a57600080fd5b612d4384612b54565b95602085013595506040909401359392505050565b60008083601f840112612d6a57600080fd5b50813567ffffffffffffffff811115612d8257600080fd5b602083019150836020828501011115612c1257600080fd5b600080600080600060808688031215612db257600080fd5b612dbb86612b54565b9450612dc960208701612b54565b935060408601359250606086013567ffffffffffffffff811115612dec57600080fd5b612df888828901612d58565b969995985093965092949392505050565b600080600060408486031215612e1e57600080fd5b83359250602084013567ffffffffffffffff811115612e3c57600080fd5b612e4886828701612d58565b9497909650939450505050565b60008060008060008060008060a0898b031215612e7157600080fd5b612e7a89612b54565b9750612e8860208a01612b54565b9650604089013567ffffffffffffffff80821115612ea557600080fd5b612eb18c838d01612bcd565b909850965060608b0135915080821115612eca57600080fd5b612ed68c838d01612bcd565b909650945060808b0135915080821115612eef57600080fd5b50612efc8b828c01612d58565b999c989b5096995094979396929594505050565b60008060008060408587031215612f2657600080fd5b843567ffffffffffffffff80821115612f3e57600080fd5b612f4a88838901612bcd565b90965094506020870135915080821115612f6357600080fd5b50612f7087828801612bcd565b95989497509550505050565b6020808252825182820181905260009190848201906040850190845b81811015612c9557835183529284019291840191600101612f98565b80358015158114612b6b57600080fd5b60008060408385031215612fd757600080fd5b82359150612fe760208401612fb4565b90509250929050565b60006020828403121561300257600080fd5b610af682612b54565b60008060008060006080868803121561302357600080fd5b61302c86612b54565b94506020860135935060408601359250606086013567ffffffffffffffff811115612dec57600080fd5b60006020828403121561306857600080fd5b813567ffffffffffffffff81168114610af657600080fd5b803560048110612b6b57600080fd5b600080600080600080600060a0888a0312156130aa57600080fd5b6130b388613080565b96506130c160208901612b54565b955060408801359450606088013567ffffffffffffffff808211156130e557600080fd5b6130f18b838c01612d58565b909650945060808a013591508082111561310a57600080fd5b818a0191508a601f83011261311e57600080fd5b81358181111561312d57600080fd5b8b602060608302850101111561314257600080fd5b60208301945080935050505092959891949750929550565b6000806040838503121561316d57600080fd5b61317683612b54565b9150612fe760208401612fb4565b6000602080830181845280855180835260408601915060408160051b870101925083870160005b828110156131d957603f198886030184526131c7858351612ce6565b945092850192908501906001016131ab565b5092979650505050505050565b6000806000806000606086880312156131fe57600080fd5b853567ffffffffffffffff8082111561321657600080fd5b61322289838a01612bcd565b9097509550602088013591508082111561323b57600080fd5b5061324888828901612bcd565b96999598509660400135949350505050565b6000806040838503121561326d57600080fd5b61327683612b54565b9150612fe760208401612b54565b60008060008060008060a0878903121561329d57600080fd5b6132a687612b54565b95506132b460208801612b54565b94506040870135935060608701359250608087013567ffffffffffffffff8111156132de57600080fd5b6132ea89828a01612d58565b979a9699509497509295939492505050565b634e487b7160e01b600052604160045260246000fd5b634e487b7160e01b600052603260045260246000fd5b60008235607e1983360301811261333e57600080fd5b9190910192915050565b60006020828403121561335a57600080fd5b610af682613080565b6000808335601e1984360301811261337a57600080fd5b83018035915067ffffffffffffffff82111561339557600080fd5b602001915036819003821315612c1257600080fd5b600181811c908216806133be57607f821691505b602082108103610afd57634e487b7160e01b600052602260045260246000fd5b6000602082840312156133f057600080fd5b815167ffffffffffffffff8082111561340857600080fd5b818401915084601f83011261341c57600080fd5b81518181111561342e5761342e6132fc565b604051601f8201601f19908116603f01168101908382118183101715613456576134566132fc565b8160405282815287602084870101111561346f57600080fd5b613480836020830160208801612cba565b979650505050505050565b601f8211156109bd57600081815260208120601f850160051c810160208610156134b25750805b601f850160051c820191505b81811015612222578281556001016134be565b67ffffffffffffffff8311156134e9576134e96132fc565b6134fd836134f783546133aa565b8361348b565b6000601f84116001811461353157600085156135195750838201355b600019600387901b1c1916600186901b178355611270565b600083815260209020601f19861690835b828110156135625786850135825560209485019460019092019101613542565b508682101561357f5760001960f88860031b161c19848701351681555b505060018560011b0183555050505050565b81835281816020850137506000828201602090810191909152601f909101601f19169091010190565b602081526000610bf9602083018486613591565b634e487b7160e01b600052601160045260246000fd5b6000828210156135f6576135f66135ce565b500390565b81835260007f07ffffffffffffffffffffffffffffffffffffffffffffffffffffffffffffff83111561362d57600080fd5b8260051b8083602087013760009401602001938452509192915050565b60408152600061365e6040830186886135fb565b82810360208401526134808185876135fb565b60006001600160a01b03808b168352808a1660208401525060a0604083015261369e60a08301888a6135fb565b82810360608401526136b18187896135fb565b90508281036080840152611a2f818587613591565b6000602082840312156136d857600080fd5b8151610af681612b9a565b6000816136f2576136f26135ce565b506000190190565b634e487b7160e01b600052602160045260246000fd5b6004811061372e57634e487b7160e01b600052602160045260246000fd5b9052565b8781526137426020820188613710565b6001600160a01b038616604082015284606082015260c06080820152600061376e60c083018587613591565b905067ffffffffffffffff831660a083015298975050505050505050565b60006020828403121561379e57600080fd5b813560ff81168114610af657600080fd5b828152604060208201526000610bf96040830184612ce6565b8183823760009101908152919050565b60006001600160a01b03808916835280881660208401525085604083015284606083015260a0608083015261381160a083018486613591565b98975050505050505050565b6138278185613710565b8260208201526060604082015260006138436060830184612ce6565b95945050505050565b6040810161385a8285613710565b8260208301529392505050565b6000821982111561387a5761387a6135ce565b50019056fea2646970667358221220a2a78dcbb05f5c8c41dbf05b0049fdaf011d3eacf41afef2145f5a0a09bb1b6364736f6c634300080f0033",
    "linkReferences": {}
  }
}