{
  "abi": [
    {
      "inputs": [
        {
          "internalType": "contract KaliClub",
          "name": "_uriFetcher",
          "type": "address"
        }
      ],
      "stateMutability": "payable",
      "type": "constructor"
    },
    {
      "inputs": [],
      "name": "ALREADY_INIT",
      "type": "error"
    },
    {
      "inputs": [],
      "name": "EXECUTE_FAILED",
      "type": "error"
    },
    {
      "inputs": [],
      "name": "INVALID_RECIPIENT",
      "type": "error"
    },
    {
      "inputs": [],
      "name": "INVALID_SIG",
      "type": "error"
    },
    {
      "inputs": [],
      "name": "LENGTH_MISMATCH",
      "type": "error"
    },
    {
      "inputs": [],
      "name": "NONTRANSFERABLE",
      "type": "error"
    },
    {
      "inputs": [],
      "name": "NOT_AUTHORIZED",
      "type": "error"
    },
    {
      "inputs": [],
      "name": "QUORUM_OVER_SUPPLY",
      "type": "error"
    },
    {
      "inputs": [],
      "name": "UINT192_MAX",
      "type": "error"
    },
    {
      "inputs": [],
      "name": "UINT64_MAX",
      "type": "error"
    },
    {
      "inputs": [],
      "name": "UNDETERMINED",
      "type": "error"
    },
    {
      "anonymous": false,
      "inputs": [
        {
          "indexed": true,
          "internalType": "address",
          "name": "to",
          "type": "address"
        }
      ],
      "name": "AdminSet",
      "type": "event"
    },
    {
      "anonymous": false,
      "inputs": [
        {
          "indexed": true,
          "internalType": "address",
          "name": "owner",
          "type": "address"
        },
        {
          "indexed": true,
          "internalType": "address",
          "name": "operator",
          "type": "address"
        },
        {
          "indexed": false,
          "internalType": "bool",
          "name": "approved",
          "type": "bool"
        }
      ],
      "name": "ApprovalForAll",
      "type": "event"
    },
    {
      "anonymous": false,
      "inputs": [
        {
          "indexed": false,
          "internalType": "enum Operation",
          "name": "op",
          "type": "uint8"
        },
        {
          "indexed": true,
          "internalType": "address",
          "name": "creation",
          "type": "address"
        },
        {
          "indexed": false,
          "internalType": "uint256",
          "name": "value",
          "type": "uint256"
        }
      ],
      "name": "ContractCreated",
      "type": "event"
    },
    {
      "anonymous": false,
      "inputs": [
        {
          "indexed": true,
          "internalType": "address",
          "name": "delegator",
          "type": "address"
        },
        {
          "indexed": true,
          "internalType": "address",
          "name": "fromDelegate",
          "type": "address"
        },
        {
          "indexed": true,
          "internalType": "address",
          "name": "toDelegate",
          "type": "address"
        },
        {
          "indexed": false,
          "internalType": "uint256",
          "name": "id",
          "type": "uint256"
        }
      ],
      "name": "DelegateChanged",
      "type": "event"
    },
    {
      "anonymous": false,
      "inputs": [
        {
          "indexed": true,
          "internalType": "address",
          "name": "delegate",
          "type": "address"
        },
        {
          "indexed": true,
          "internalType": "uint256",
          "name": "id",
          "type": "uint256"
        },
        {
          "indexed": false,
          "internalType": "uint256",
          "name": "previousBalance",
          "type": "uint256"
        },
        {
          "indexed": false,
          "internalType": "uint256",
          "name": "newBalance",
          "type": "uint256"
        }
      ],
      "name": "DelegateVotesChanged",
      "type": "event"
    },
    {
      "anonymous": false,
      "inputs": [
        {
          "indexed": false,
          "internalType": "enum Operation",
          "name": "op",
          "type": "uint8"
        },
        {
          "indexed": true,
          "internalType": "address",
          "name": "to",
          "type": "address"
        },
        {
          "indexed": false,
          "internalType": "uint256",
          "name": "value",
          "type": "uint256"
        },
        {
          "indexed": false,
          "internalType": "bytes",
          "name": "data",
          "type": "bytes"
        }
      ],
      "name": "Executed",
      "type": "event"
    },
    {
      "anonymous": false,
      "inputs": [
        {
          "indexed": true,
          "internalType": "address",
          "name": "caller",
          "type": "address"
        },
        {
          "indexed": true,
          "internalType": "address",
          "name": "to",
          "type": "address"
        },
        {
          "indexed": false,
          "internalType": "bool",
          "name": "approve",
          "type": "bool"
        }
      ],
      "name": "GovernanceSet",
      "type": "event"
    },
    {
      "anonymous": false,
      "inputs": [
        {
          "indexed": true,
          "internalType": "address",
          "name": "caller",
          "type": "address"
        },
        {
          "indexed": false,
          "internalType": "uint64",
          "name": "threshold",
          "type": "uint64"
        }
      ],
      "name": "QuorumSet",
      "type": "event"
    },
    {
      "anonymous": false,
      "inputs": [
        {
          "indexed": true,
          "internalType": "address",
          "name": "operator",
          "type": "address"
        },
        {
          "indexed": true,
          "internalType": "uint256",
          "name": "id",
          "type": "uint256"
        },
        {
          "indexed": false,
          "internalType": "bool",
          "name": "transferability",
          "type": "bool"
        }
      ],
      "name": "TokenTransferabilitySet",
      "type": "event"
    },
    {
      "anonymous": false,
      "inputs": [
        {
          "indexed": true,
          "internalType": "address",
          "name": "operator",
          "type": "address"
        },
        {
          "indexed": true,
          "internalType": "address",
          "name": "from",
          "type": "address"
        },
        {
          "indexed": true,
          "internalType": "address",
          "name": "to",
          "type": "address"
        },
        {
          "indexed": false,
          "internalType": "uint256[]",
          "name": "ids",
          "type": "uint256[]"
        },
        {
          "indexed": false,
          "internalType": "uint256[]",
          "name": "amounts",
          "type": "uint256[]"
        }
      ],
      "name": "TransferBatch",
      "type": "event"
    },
    {
      "anonymous": false,
      "inputs": [
        {
          "indexed": true,
          "internalType": "address",
          "name": "operator",
          "type": "address"
        },
        {
          "indexed": true,
          "internalType": "address",
          "name": "from",
          "type": "address"
        },
        {
          "indexed": true,
          "internalType": "address",
          "name": "to",
          "type": "address"
        },
        {
          "indexed": false,
          "internalType": "uint256",
          "name": "id",
          "type": "uint256"
        },
        {
          "indexed": false,
          "internalType": "uint256",
          "name": "amount",
          "type": "uint256"
        }
      ],
      "name": "TransferSingle",
      "type": "event"
    },
    {
      "anonymous": false,
      "inputs": [
        {
          "indexed": false,
          "internalType": "string",
          "name": "value",
          "type": "string"
        },
        {
          "indexed": true,
          "internalType": "uint256",
          "name": "id",
          "type": "uint256"
        }
      ],
      "name": "URI",
      "type": "event"
    },
    {
      "inputs": [],
      "name": "DOMAIN_SEPARATOR",
      "outputs": [
        {
          "internalType": "bytes32",
          "name": "",
          "type": "bytes32"
        }
      ],
      "stateMutability": "view",
      "type": "function"
    },
    {
      "inputs": [
        {
          "internalType": "address",
          "name": "",
          "type": "address"
        }
      ],
      "name": "admin",
      "outputs": [
        {
          "internalType": "bool",
          "name": "",
          "type": "bool"
        }
      ],
      "stateMutability": "view",
      "type": "function"
    },
    {
      "inputs": [
        {
          "internalType": "address",
          "name": "",
          "type": "address"
        },
        {
          "internalType": "uint256",
          "name": "",
          "type": "uint256"
        }
      ],
      "name": "balanceOf",
      "outputs": [
        {
          "internalType": "uint256",
          "name": "",
          "type": "uint256"
        }
      ],
      "stateMutability": "view",
      "type": "function"
    },
    {
      "inputs": [
        {
          "internalType": "address[]",
          "name": "owners",
          "type": "address[]"
        },
        {
          "internalType": "uint256[]",
          "name": "ids",
          "type": "uint256[]"
        }
      ],
      "name": "balanceOfBatch",
      "outputs": [
        {
          "internalType": "uint256[]",
          "name": "balances",
          "type": "uint256[]"
        }
      ],
      "stateMutability": "view",
      "type": "function"
    },
    {
      "inputs": [
        {
          "components": [
            {
              "internalType": "enum Operation",
              "name": "op",
              "type": "uint8"
            },
            {
              "internalType": "address",
              "name": "to",
              "type": "address"
            },
            {
              "internalType": "uint256",
              "name": "value",
              "type": "uint256"
            },
            {
              "internalType": "bytes",
              "name": "data",
              "type": "bytes"
            }
          ],
          "internalType": "struct Call[]",
          "name": "calls",
          "type": "tuple[]"
        }
      ],
      "name": "batchExecute",
      "outputs": [
        {
          "internalType": "bool[]",
          "name": "successes",
          "type": "bool[]"
        }
      ],
      "stateMutability": "payable",
      "type": "function"
    },
    {
      "inputs": [
        {
          "internalType": "address",
          "name": "from",
          "type": "address"
        },
        {
          "internalType": "uint256",
          "name": "id",
          "type": "uint256"
        },
        {
          "internalType": "uint256",
          "name": "amount",
          "type": "uint256"
        }
      ],
      "name": "burn",
      "outputs": [],
      "stateMutability": "payable",
      "type": "function"
    },
    {
      "inputs": [
        {
          "internalType": "address",
          "name": "from",
          "type": "address"
        }
      ],
      "name": "burnSigner",
      "outputs": [],
      "stateMutability": "payable",
      "type": "function"
    },
    {
      "inputs": [
        {
          "internalType": "address",
          "name": "",
          "type": "address"
        },
        {
          "internalType": "uint256",
          "name": "",
          "type": "uint256"
        },
        {
          "internalType": "uint256",
          "name": "",
          "type": "uint256"
        }
      ],
      "name": "checkpoints",
      "outputs": [
        {
          "internalType": "uint64",
          "name": "fromTimestamp",
          "type": "uint64"
        },
        {
          "internalType": "uint192",
          "name": "votes",
          "type": "uint192"
        }
      ],
      "stateMutability": "view",
      "type": "function"
    },
    {
      "inputs": [
        {
          "internalType": "address",
          "name": "delegatee",
          "type": "address"
        },
        {
          "internalType": "uint256",
          "name": "id",
          "type": "uint256"
        }
      ],
      "name": "delegate",
      "outputs": [],
      "stateMutability": "payable",
      "type": "function"
    },
    {
      "inputs": [
        {
          "internalType": "address",
          "name": "account",
          "type": "address"
        },
        {
          "internalType": "uint256",
          "name": "id",
          "type": "uint256"
        }
      ],
      "name": "delegates",
      "outputs": [
        {
          "internalType": "address",
          "name": "",
          "type": "address"
        }
      ],
      "stateMutability": "view",
      "type": "function"
    },
    {
      "inputs": [
        {
          "internalType": "enum Operation",
          "name": "op",
          "type": "uint8"
        },
        {
          "internalType": "address",
          "name": "to",
          "type": "address"
        },
        {
          "internalType": "uint256",
          "name": "value",
          "type": "uint256"
        },
        {
          "internalType": "bytes",
          "name": "data",
          "type": "bytes"
        },
        {
          "components": [
            {
              "internalType": "uint8",
              "name": "v",
              "type": "uint8"
            },
            {
              "internalType": "bytes32",
              "name": "r",
              "type": "bytes32"
            },
            {
              "internalType": "bytes32",
              "name": "s",
              "type": "bytes32"
            }
          ],
          "internalType": "struct Signature[]",
          "name": "sigs",
          "type": "tuple[]"
        }
      ],
      "name": "execute",
      "outputs": [
        {
          "internalType": "bool",
          "name": "success",
          "type": "bool"
        }
      ],
      "stateMutability": "payable",
      "type": "function"
    },
    {
      "inputs": [
        {
          "internalType": "address",
          "name": "account",
          "type": "address"
        },
        {
          "internalType": "uint256",
          "name": "id",
          "type": "uint256"
        }
      ],
      "name": "getCurrentVotes",
      "outputs": [
        {
          "internalType": "uint256",
          "name": "",
          "type": "uint256"
        }
      ],
      "stateMutability": "view",
      "type": "function"
    },
    {
      "inputs": [
        {
          "internalType": "address",
          "name": "account",
          "type": "address"
        },
        {
          "internalType": "uint256",
          "name": "id",
          "type": "uint256"
        },
        {
          "internalType": "uint256",
          "name": "timestamp",
          "type": "uint256"
        }
      ],
      "name": "getPriorVotes",
      "outputs": [
        {
          "internalType": "uint256",
          "name": "",
          "type": "uint256"
        }
      ],
      "stateMutability": "view",
      "type": "function"
    },
    {
      "inputs": [
        {
          "internalType": "address",
          "name": "",
          "type": "address"
        }
      ],
      "name": "governance",
      "outputs": [
        {
          "internalType": "bool",
          "name": "",
          "type": "bool"
        }
      ],
      "stateMutability": "view",
      "type": "function"
    },
    {
      "inputs": [
        {
          "components": [
            {
              "internalType": "enum Operation",
              "name": "op",
              "type": "uint8"
            },
            {
              "internalType": "address",
              "name": "to",
              "type": "address"
            },
            {
              "internalType": "uint256",
              "name": "value",
              "type": "uint256"
            },
            {
              "internalType": "bytes",
              "name": "data",
              "type": "bytes"
            }
          ],
          "internalType": "struct Call[]",
          "name": "calls",
          "type": "tuple[]"
        },
        {
          "internalType": "address[]",
          "name": "signers",
          "type": "address[]"
        },
        {
          "internalType": "uint256",
          "name": "threshold",
          "type": "uint256"
        }
      ],
      "name": "init",
      "outputs": [],
      "stateMutability": "payable",
      "type": "function"
    },
    {
      "inputs": [
        {
          "internalType": "address",
          "name": "",
          "type": "address"
        },
        {
          "internalType": "address",
          "name": "",
          "type": "address"
        }
      ],
      "name": "isApprovedForAll",
      "outputs": [
        {
          "internalType": "bool",
          "name": "",
          "type": "bool"
        }
      ],
      "stateMutability": "view",
      "type": "function"
    },
    {
      "inputs": [
        {
          "internalType": "address",
          "name": "to",
          "type": "address"
        },
        {
          "internalType": "uint256",
          "name": "id",
          "type": "uint256"
        },
        {
          "internalType": "uint256",
          "name": "amount",
          "type": "uint256"
        },
        {
          "internalType": "bytes",
          "name": "data",
          "type": "bytes"
        }
      ],
      "name": "mint",
      "outputs": [],
      "stateMutability": "payable",
      "type": "function"
    },
    {
      "inputs": [
        {
          "internalType": "address",
          "name": "to",
          "type": "address"
        }
      ],
      "name": "mintSigner",
      "outputs": [],
      "stateMutability": "payable",
      "type": "function"
    },
    {
      "inputs": [
        {
          "internalType": "bytes[]",
          "name": "data",
          "type": "bytes[]"
        }
      ],
      "name": "multicall",
      "outputs": [
        {
          "internalType": "bytes[]",
          "name": "results",
          "type": "bytes[]"
        }
      ],
      "stateMutability": "payable",
      "type": "function"
    },
    {
      "inputs": [],
      "name": "nonce",
      "outputs": [
        {
          "internalType": "uint64",
          "name": "",
          "type": "uint64"
        }
      ],
      "stateMutability": "view",
      "type": "function"
    },
    {
      "inputs": [
        {
          "internalType": "address",
          "name": "",
          "type": "address"
        },
        {
          "internalType": "uint256",
          "name": "",
          "type": "uint256"
        }
      ],
      "name": "numCheckpoints",
      "outputs": [
        {
          "internalType": "uint256",
          "name": "",
          "type": "uint256"
        }
      ],
      "stateMutability": "view",
      "type": "function"
    },
    {
      "inputs": [
        {
          "internalType": "address",
          "name": "",
          "type": "address"
        },
        {
          "internalType": "address",
          "name": "",
          "type": "address"
        },
        {
          "internalType": "uint256[]",
          "name": "",
          "type": "uint256[]"
        },
        {
          "internalType": "uint256[]",
          "name": "",
          "type": "uint256[]"
        },
        {
          "internalType": "bytes",
          "name": "",
          "type": "bytes"
        }
      ],
      "name": "onERC1155BatchReceived",
      "outputs": [
        {
          "internalType": "bytes4",
          "name": "",
          "type": "bytes4"
        }
      ],
      "stateMutability": "pure",
      "type": "function"
    },
    {
      "inputs": [
        {
          "internalType": "address",
          "name": "",
          "type": "address"
        },
        {
          "internalType": "address",
          "name": "",
          "type": "address"
        },
        {
          "internalType": "uint256",
          "name": "",
          "type": "uint256"
        },
        {
          "internalType": "uint256",
          "name": "",
          "type": "uint256"
        },
        {
          "internalType": "bytes",
          "name": "",
          "type": "bytes"
        }
      ],
      "name": "onERC1155Received",
      "outputs": [
        {
          "internalType": "bytes4",
          "name": "",
          "type": "bytes4"
        }
      ],
      "stateMutability": "pure",
      "type": "function"
    },
    {
      "inputs": [
        {
          "internalType": "address",
          "name": "",
          "type": "address"
        },
        {
          "internalType": "address",
          "name": "",
          "type": "address"
        },
        {
          "internalType": "uint256",
          "name": "",
          "type": "uint256"
        },
        {
          "internalType": "bytes",
          "name": "",
          "type": "bytes"
        }
      ],
      "name": "onERC721Received",
      "outputs": [
        {
          "internalType": "bytes4",
          "name": "",
          "type": "bytes4"
        }
      ],
      "stateMutability": "pure",
      "type": "function"
    },
    {
      "inputs": [],
      "name": "quorum",
      "outputs": [
        {
          "internalType": "uint64",
          "name": "",
          "type": "uint64"
        }
      ],
      "stateMutability": "view",
      "type": "function"
    },
    {
      "inputs": [
        {
          "internalType": "address",
          "name": "from",
          "type": "address"
        },
        {
          "internalType": "address",
          "name": "to",
          "type": "address"
        },
        {
          "internalType": "uint256[]",
          "name": "ids",
          "type": "uint256[]"
        },
        {
          "internalType": "uint256[]",
          "name": "amounts",
          "type": "uint256[]"
        },
        {
          "internalType": "bytes",
          "name": "data",
          "type": "bytes"
        }
      ],
      "name": "safeBatchTransferFrom",
      "outputs": [],
      "stateMutability": "payable",
      "type": "function"
    },
    {
      "inputs": [
        {
          "internalType": "address",
          "name": "from",
          "type": "address"
        },
        {
          "internalType": "address",
          "name": "to",
          "type": "address"
        },
        {
          "internalType": "uint256",
          "name": "id",
          "type": "uint256"
        },
        {
          "internalType": "uint256",
          "name": "amount",
          "type": "uint256"
        },
        {
          "internalType": "bytes",
          "name": "data",
          "type": "bytes"
        }
      ],
      "name": "safeTransferFrom",
      "outputs": [],
      "stateMutability": "payable",
      "type": "function"
    },
    {
      "inputs": [
        {
          "internalType": "address",
          "name": "to",
          "type": "address"
        }
      ],
      "name": "setAdmin",
      "outputs": [],
      "stateMutability": "payable",
      "type": "function"
    },
    {
      "inputs": [
        {
          "internalType": "address",
          "name": "operator",
          "type": "address"
        },
        {
          "internalType": "bool",
          "name": "approved",
          "type": "bool"
        }
      ],
      "name": "setApprovalForAll",
      "outputs": [],
      "stateMutability": "payable",
      "type": "function"
    },
    {
      "inputs": [
        {
          "internalType": "address",
          "name": "to",
          "type": "address"
        },
        {
          "internalType": "bool",
          "name": "approve",
          "type": "bool"
        }
      ],
      "name": "setGovernance",
      "outputs": [],
      "stateMutability": "payable",
      "type": "function"
    },
    {
      "inputs": [
        {
          "internalType": "uint64",
          "name": "threshold",
          "type": "uint64"
        }
      ],
      "name": "setQuorum",
      "outputs": [],
      "stateMutability": "payable",
      "type": "function"
    },
    {
      "inputs": [
        {
          "internalType": "uint256",
          "name": "id",
          "type": "uint256"
        },
        {
          "internalType": "bool",
          "name": "transferability",
          "type": "bool"
        }
      ],
      "name": "setTokenTransferability",
      "outputs": [],
      "stateMutability": "payable",
      "type": "function"
    },
    {
      "inputs": [
        {
          "internalType": "uint256",
          "name": "id",
          "type": "uint256"
        },
        {
          "internalType": "string",
          "name": "tokenURI",
          "type": "string"
        }
      ],
      "name": "setTokenURI",
      "outputs": [],
      "stateMutability": "payable",
      "type": "function"
    },
    {
      "inputs": [
        {
          "internalType": "bytes4",
          "name": "interfaceId",
          "type": "bytes4"
        }
      ],
      "name": "supportsInterface",
      "outputs": [
        {
          "internalType": "bool",
          "name": "",
          "type": "bool"
        }
      ],
      "stateMutability": "view",
      "type": "function"
    },
    {
      "inputs": [],
      "name": "totalSupply",
      "outputs": [
        {
          "internalType": "uint128",
          "name": "",
          "type": "uint128"
        }
      ],
      "stateMutability": "view",
      "type": "function"
    },
    {
      "inputs": [
        {
          "internalType": "uint256",
          "name": "",
          "type": "uint256"
        }
      ],
      "name": "transferable",
      "outputs": [
        {
          "internalType": "bool",
          "name": "",
          "type": "bool"
        }
      ],
      "stateMutability": "view",
      "type": "function"
    },
    {
      "inputs": [
        {
          "internalType": "uint256",
          "name": "id",
          "type": "uint256"
        }
      ],
      "name": "uri",
      "outputs": [
        {
          "internalType": "string",
          "name": "",
          "type": "string"
        }
      ],
      "stateMutability": "view",
      "type": "function"
    }
  ],
  "bytecode": {
    "object": "0x60a060405260405162003c5d38038062003c5d833981016040819052620000269162000038565b6001600160a01b03166080526200006a565b6000602082840312156200004b57600080fd5b81516001600160a01b03811681146200006357600080fd5b9392505050565b608051613bd7620000866000396000610bbf0152613bd76000f3fe6080604052600436106102695760003560e01c8063704b6c0211610153578063afa88bca116100cb578063e985e9c51161007f578063f242432a11610064578063f242432a146107af578063f4c3b4d7146107c2578063f5298aca146107f257600080fd5b8063e985e9c514610747578063f23a6e611461078257600080fd5b8063b2839f5e116100b0578063b2839f5e146106f2578063bc197c8114610705578063c590e89f1461073457600080fd5b8063afa88bca14610699578063affed0e0146106d157600080fd5b80638426e6c1116101225780638c995b91116101075780638c995b9114610653578063a22cb46514610666578063ac9650d81461067957600080fd5b80638426e6c1146106105780638585c9451461064057600080fd5b8063704b6c02146105aa578063731133e9146105bd578063807df56d146105d0578063836eebee146105f057600080fd5b806318160ddd116101e6578063387bbabd116101b557806354d7926f1161019a57806354d7926f1461055457806357ac01ad1461056757806363a846f81461057a57600080fd5b8063387bbabd146104a55780634e1273f41461052757600080fd5b806318160ddd146103f457806327dd1b00146104455780632eb2c2d61461047d5780633644e5151461049057600080fd5b80630e89341c1161023d578063158a1ca111610222578063158a1ca11461038d578063162094c4146103a05780631703a018146103b357600080fd5b80630e89341c1461031b578063150b7a021461034857600080fd5b8062fdd58e1461026e57806301ffc9a7146102b6578063023e8d84146102e6578063026e402b14610306575b600080fd5b34801561027a57600080fd5b506102a3610289366004612e8f565b600060208181529281526040808220909352908152205481565b6040519081526020015b60405180910390f35b3480156102c257600080fd5b506102d66102d1366004612ed2565b610805565b60405190151581526020016102ad565b6102f96102f4366004612f3b565b610864565b6040516102ad9190612f7d565b610319610314366004612e8f565b610a3f565b005b34801561032757600080fd5b5061033b610336366004612fc3565b610b02565b6040516102ad9190613034565b34801561035457600080fd5b50610374610363366004613089565b630a85bd0160e11b95945050505050565b6040516001600160e01b031990911681526020016102ad565b61031961039b366004613108565b610c43565b6103196103ae36600461313b565b610cff565b3480156103bf57600080fd5b506006546103db90600160401b900467ffffffffffffffff1681565b60405167ffffffffffffffff90911681526020016102ad565b34801561040057600080fd5b5060065461042490600160801b90046fffffffffffffffffffffffffffffffff1681565b6040516fffffffffffffffffffffffffffffffff90911681526020016102ad565b34801561045157600080fd5b50610465610460366004612e8f565b610db2565b6040516001600160a01b0390911681526020016102ad565b61031961048b366004613187565b610df0565b34801561049c57600080fd5b506102a36110aa565b3480156104b157600080fd5b506104ff6104c0366004613242565b600560209081526000938452604080852082529284528284209052825290205467ffffffffffffffff811690600160401b90046001600160c01b031682565b6040805167ffffffffffffffff90931683526001600160c01b039091166020830152016102ad565b34801561053357600080fd5b50610547610542366004613275565b611185565b6040516102ad91906132e1565b610319610562366004613319565b611299565b61031961057536600461333c565b611345565b34801561058657600080fd5b506102d661059536600461333c565b60086020526000908152604090205460ff1681565b6103196105b836600461333c565b611484565b6103196105cb366004613357565b6114f0565b3480156105dc57600080fd5b506102a36105eb366004612e8f565b611568565b3480156105fc57600080fd5b506102a361060b366004613242565b6115ec565b34801561061c57600080fd5b506102d661062b36600461333c565b60096020526000908152604090205460ff1681565b61031961064e3660046133a2565b611830565b6102d66106613660046133db565b611948565b610319610674366004613108565b611d47565b61068c610687366004612f3b565b611dac565b6040516102ad91906134a6565b3480156106a557600080fd5b506102a36106b4366004612e8f565b600460209081526000928352604080842090915290825290205481565b3480156106dd57600080fd5b506006546103db9067ffffffffffffffff1681565b61031961070036600461333c565b611f15565b34801561071157600080fd5b50610374610720366004613187565b63bc197c8160e01b98975050505050505050565b610319610742366004613508565b611ffc565b34801561075357600080fd5b506102d661076236600461357c565b600160209081526000928352604080842090915290825290205460ff1681565b34801561078e57600080fd5b5061037461079d3660046135a6565b63f23a6e6160e01b9695505050505050565b6103196107bd3660046135a6565b612331565b3480156107ce57600080fd5b506102d66107dd366004612fc3565b60026020526000908152604090205460ff1681565b610319610800366004613242565b612562565b60006001600160e01b03198216630a85bd0160e11b148061084f57507f4e2312e0000000000000000000000000000000000000000000000000000000006001600160e01b03198316145b8061085e575061085e82612616565b92915050565b606033301480159061088657503360009081526009602052604090205460ff16155b80156108a257503360009081526008602052604090205460ff16155b156108c057604051633d83866f60e01b815260040160405180910390fd5b8167ffffffffffffffff8111156108d9576108d961361e565b604051908082528060200260200182016040528015610902578160200160208202803683370190505b50905060005b82811015610a3857610a0e84848381811061092557610925613634565b9050602002810190610937919061364a565b61094590602081019061366a565b85858481811061095757610957613634565b9050602002810190610969919061364a565b61097a90604081019060200161333c565b86868581811061098c5761098c613634565b905060200281019061099e919061364a565b604001358787868181106109b4576109b4613634565b90506020028101906109c6919061364a565b6109d4906060810190613685565b8080601f01602080910402602001604051908101604052809392919081815260200183838082843760009201919091525061269692505050565b828281518110610a2057610a20613634565b91151560209283029190910190910152600101610908565b5092915050565b6000610a4b3383610db2565b33600081815260036020908152604080832087845282529182902080547fffffffffffffffffffffffff0000000000000000000000000000000000000000166001600160a01b038981169182179092559251878152949550919391851692917f287e04de574701d97a55bd9ea85b32defecf76a607b8007ee9ae8c126bf7a746910160405180910390a433600090815260208181526040808320858452909152902054610afd908290859085906128bc565b505050565b6000818152600a6020526040812080546060929190610b20906136cc565b80601f0160208091040260200160405190810160405280929190818152602001828054610b4c906136cc565b8015610b995780601f10610b6e57610100808354040283529160200191610b99565b820191906000526020600020905b815481529060010190602001808311610b7c57829003601f168201915b50505050509050805160000361085e576040516303a24d0760e21b8152600481018490527f00000000000000000000000000000000000000000000000000000000000000006001600160a01b031690630e89341c90602401600060405180830381865afa158015610c0e573d6000803e3d6000fd5b505050506040513d6000823e601f3d908101601f19168201604052610c369190810190613700565b9392505050565b50919050565b333014801590610c6357503360009081526009602052604090205460ff16155b8015610c7f57503360009081526008602052604090205460ff16155b15610c9d57604051633d83866f60e01b815260040160405180910390fd5b6001600160a01b038216600081815260096020908152604091829020805460ff1916851515908117909155915191825233917f4a095fd4c00c15af45ad40f2fcb94a1066f92e52d9fa4b0be820fab3dfdf665d91015b60405180910390a35050565b333014801590610d1f57503360009081526009602052604090205460ff16155b8015610d3b57503360009081526008602052604090205460ff16155b15610d5957604051633d83866f60e01b815260040160405180910390fd5b6000838152600a60205260409020610d728284836137f3565b50827f6bb7ff708619ba0610cba295a58592e0451dee2622938c8755667688daf3529b8383604051610da59291906138dc565b60405180910390a2505050565b6001600160a01b0380831660009081526003602090815260408083208584529091528120549091168015610de65780610de8565b835b949350505050565b848314610e105760405163899ef10d60e01b815260040160405180910390fd5b336001600160a01b03891614801590610e4d57506001600160a01b038816600090815260016020908152604080832033845290915290205460ff16155b15610e6b57604051633d83866f60e01b815260040160405180910390fd5b60008060005b87811015610f7a57888882818110610e8b57610e8b613634565b905060200201359250868682818110610ea657610ea6613634565b6000868152600260209081526040909120549102929092013593505060ff16610ee257604051634f8cca5b60e11b815260040160405180910390fd5b6001600160a01b038b1660009081526020818152604080832086845290915281208054849290610f13908490613906565b90915550506001600160a01b038a1660009081526020818152604080832086845290915281208054849290610f4990849061391d565b90915550508215610f7257610f72610f618c85610db2565b610f6b8c86610db2565b85856128bc565b600101610e71565b50886001600160a01b03168a6001600160a01b0316336001600160a01b03167f4a39dc06d4c0dbc64b70af90fd698a233a518aa5d07e595d983b8c0526c8f7fb8b8b8b8b604051610fce9493929190613984565b60405180910390a46001600160a01b0389163b156110745760405163bc197c8160e01b808252906001600160a01b038b169063bc197c81906110229033908f908e908e908e908e908e908e906004016139ab565b602060405180830381865afa15801561103f573d6000803e3d6000fd5b505050506040513d601f19601f820116820180604052508101906110639190613a00565b6001600160e01b0319161415611080565b6001600160a01b038916155b1561109e5760405163290802d360e11b815260040160405180910390fd5b50505050505050505050565b60003660011981013560f01c900360030135461461117e5750604080518082018252600881526725b0b634a1b63ab160c11b60209182015281517f8b73c3c69bb8fe3d512ecc4cf759cc79239f7b179b0ffacaa9a75d522b39400f818301527f5b5b1483404ac93e4d9b025a8feb4c5ea9304085ab2e513c578af4cec7eb5319818401527fc89efdaa54c0f20c7adf612882df0950f5a951637e0307cdcb4c672f298b8bc660608201524660808201523060a0808301919091528351808303909101815260c0909101909252815191012090565b5060075490565b60608382146111a75760405163899ef10d60e01b815260040160405180910390fd5b8367ffffffffffffffff8111156111c0576111c061361e565b6040519080825280602002602001820160405280156111e9578160200160208202803683370190505b50905060005b848110156112905760008087878481811061120c5761120c613634565b9050602002016020810190611221919061333c565b6001600160a01b03166001600160a01b03168152602001908152602001600020600085858481811061125557611255613634565b9050602002013581526020019081526020016000205482828151811061127d5761127d613634565b60209081029190910101526001016111ef565b50949350505050565b3330148015906112b957503360009081526009602052604090205460ff16155b80156112d557503360009081526008602052604090205460ff16155b156112f357604051633d83866f60e01b815260040160405180910390fd5b600082815260026020908152604091829020805460ff19168415159081179091559151918252839133917f92d6650e3daf0c48674c410d3d8a281fe4d48a5a2236fe505d38e4da211200879101610cf3565b33301480159061136557503360009081526009602052604090205460ff16155b801561138157503360009081526008602052604090205460ff16155b1561139f57604051633d83866f60e01b815260040160405180910390fd5b6001600160a01b038116600090815260208181526040808320838052909152812080549091906113ce90613a1d565b90915550600680546fffffffffffffffffffffffffffffffff808216600160801b9283900482166000190182168302179283905590820416600160401b90910467ffffffffffffffff16111561143757604051631534858160e01b815260040160405180910390fd5b60408051600080825260016020830152916001600160a01b0384169133917fc3d58168c5ae7397731d063d5bbf3d657854427343f4c083240f7aacaa2d0f6291015b60405180910390a450565b3330146114a457604051633d83866f60e01b815260040160405180910390fd5b6001600160a01b038116600081815260086020526040808220805460ff19166001179055517f8fe72c3e0020beb3234e76ae6676fa576fbfcae600af1c4fea44784cf0db329c9190a250565b33301480159061151057503360009081526009602052604090205460ff16155b801561152c57503360009081526008602052604090205460ff16155b1561154a57604051633d83866f60e01b815260040160405180910390fd5b8361155457600080fd5b6115618585858585612a4e565b5050505050565b6001600160a01b038216600090815260046020908152604080832084845290915281205480820361159a5760006115db565b6001600160a01b0384166000908152600560209081526040808320868452825280832060001985018452909152902054600160401b90046001600160c01b03165b6001600160c01b0316949350505050565b6000814211611627576040517f83aace3d00000000000000000000000000000000000000000000000000000000815260040160405180910390fd5b6001600160a01b03841660009081526004602090815260408083208684529091528120549081900361165d576000915050610c36565b6001600160a01b038516600090815260056020908152604080832087845282528083206000198501845290915290205467ffffffffffffffff1683106116e5576001600160a01b03851660009081526005602090815260408083208784528252808320600019909401835292905220546001600160c01b03600160401b909104169050610c36565b6001600160a01b0385166000908152600560209081526040808320878452825280832083805290915290205467ffffffffffffffff1683101561172c576000915050610c36565b600060001982015b818111156117ea576001600160a01b0387166000908152600560209081526040808320898452825280832060028686030485038085529083529281902081518083019092525467ffffffffffffffff8116808352600160401b9091046001600160c01b031692820192909252908790036117c157602001516001600160c01b03169450610c369350505050565b805167ffffffffffffffff168711156117dc578193506117e3565b6001820392505b5050611734565b506001600160a01b038616600090815260056020908152604080832088845282528083209383529290522054600160401b90046001600160c01b03169150509392505050565b33301480159061185057503360009081526009602052604090205460ff16155b801561186c57503360009081526008602052604090205460ff16155b1561188a57604051633d83866f60e01b815260040160405180910390fd5b600654600160801b90046fffffffffffffffffffffffffffffffff1667ffffffffffffffff821611156118d057604051631534858160e01b815260040160405180910390fd5b600680547fffffffffffffffffffffffffffffffff0000000000000000ffffffffffffffff16600160401b67ffffffffffffffff84169081029190911790915560405190815233907f54e7ed672a68dee1fe4f4da8b306a8318894dd65c07123309467447ed34b1aa19060200160405180910390a250565b6000806119536110aa565b60065460405161199c917f93a4f3ad100766ac785e9e2986ae4f906eea3a67ef943c27112979356b418b35918d918d918d918d918d9167ffffffffffffffff1690602001613a6c565b604051602081830303815290604052805190602001206040516020016119f49291907f190100000000000000000000000000000000000000000000000000000000000081526002810192909252602282015260420190565b60408051808303601f190181529190528051602090910120600654909150600090600160401b900467ffffffffffffffff16815b81811015611cf5576000600185898985818110611a4757611a47613634565b611a5d9260206060909202019081019150613ac6565b8a8a86818110611a6f57611a6f613634565b905060600201602001358b8b87818110611a8b57611a8b613634565b9050606002016040013560405160008152602001604052604051611acb949392919093845260ff9290921660208401526040830152606082015260800190565b6020604051602081039080840390855afa158015611aed573d6000803e3d6000fd5b5050604051601f1901519150506001600160a01b0381163b15611c78577f1626ba7e000000000000000000000000000000000000000000000000000000006001600160a01b038216631626ba7e878b8b87818110611b4d57611b4d613634565b905060600201602001358c8c88818110611b6957611b69613634565b905060600201604001358d8d89818110611b8557611b85613634565b611b9b9260206060909202019081019150613ac6565b604051602001611be393929190928352602083019190915260f81b7fff0000000000000000000000000000000000000000000000000000000000000016604082015260410190565b6040516020818303038152906040526040518363ffffffff1660e01b8152600401611c0f929190613ae9565b602060405180830381865afa158015611c2c573d6000803e3d6000fd5b505050506040513d601f19601f82011682018060405250810190611c509190613a00565b6001600160e01b03191614611c7857604051633ba7c2c960e21b815260040160405180910390fd5b6001600160a01b0381166000908152602081815260408083208380529091528120549003611cb957604051633ba7c2c960e21b815260040160405180910390fd5b806001600160a01b0316846001600160a01b031610611ceb57604051633ba7c2c960e21b815260040160405180910390fd5b9250600101611a28565b50611d388b8b8b8b8b8080601f01602080910402602001604051908101604052809392919081815260200183838082843760009201919091525061269692505050565b9b9a5050505050505050505050565b3360008181526001602090815260408083206001600160a01b03871680855290835292819020805460ff191686151590811790915590519081529192917f17307eab39ab6107e8899845ad3d59bd9653f200f220920489ca2b5937696c319101610cf3565b60608167ffffffffffffffff811115611dc757611dc761361e565b604051908082528060200260200182016040528015611dfa57816020015b6060815260200190600190039081611de55790505b50905060005b82811015610a385760008030868685818110611e1e57611e1e613634565b9050602002810190611e309190613685565b604051611e3e929190613b02565b600060405180830381855af49150503d8060008114611e79576040519150601f19603f3d011682016040523d82523d6000602084013e611e7e565b606091505b509150915081611eed57604481511015611e9757600080fd5b60048101905080806020019051810190611eb19190613700565b6040517f08c379a0000000000000000000000000000000000000000000000000000000008152600401611ee49190613034565b60405180910390fd5b80848481518110611f0057611f00613634565b60209081029190910101525050600101611e00565b333014801590611f3557503360009081526009602052604090205460ff16155b8015611f5157503360009081526008602052604090205460ff16155b15611f6f57604051633d83866f60e01b815260040160405180910390fd5b6001600160a01b03811660008181526020818152604080832083805290915280822080546001908101909155600680546fffffffffffffffffffffffffffffffff600160801b808304821685018216029116179055905133917fc3d58168c5ae7397731d063d5bbf3d657854427343f4c083240f7aacaa2d0f629161147991858252602082015260400190565b60065467ffffffffffffffff1615612040576040517fb2c6f10f00000000000000000000000000000000000000000000000000000000815260040160405180910390fd5b8061204a57600080fd5b8181111561206b57604051631534858160e01b815260040160405180910390fd5b831561212b5760005b848110156121295761212086868381811061209157612091613634565b90506020028101906120a3919061364a565b6120b190602081019061366a565b8787848181106120c3576120c3613634565b90506020028101906120d5919061364a565b6120e690604081019060200161333c565b8888858181106120f8576120f8613634565b905060200281019061210a919061364a565b604001358989868181106109b4576109b4613634565b50600101612074565b505b6000806000805b858110156122075786868281811061214c5761214c613634565b9050602002016020810190612161919061333c565b9350836001600160a01b0316836001600160a01b03161061219557604051633ba7c2c960e21b815260040160405180910390fd5b6001600160a01b038416600081815260208181526040808320838052825280832080546001908101909155815184815292830181905281518998509681019695019433927fc3d58168c5ae7397731d063d5bbf3d657854427343f4c083240f7aacaa2d0f6292908290030190a4612132565b50600680546fffffffffffffffffffffffffffffffff808416600160801b0267ffffffffffffffff8816600160401b027fffffffffffffffffffffffffffffffff000000000000000000000000000000009093169290921760011716179055612324604080518082018252600881526725b0b634a1b63ab160c11b60209182015281517f8b73c3c69bb8fe3d512ecc4cf759cc79239f7b179b0ffacaa9a75d522b39400f818301527f5b5b1483404ac93e4d9b025a8feb4c5ea9304085ab2e513c578af4cec7eb5319818401527fc89efdaa54c0f20c7adf612882df0950f5a951637e0307cdcb4c672f298b8bc660608201524660808201523060a0808301919091528351808303909101815260c0909101909252815191012090565b6007555050505050505050565b336001600160a01b0387161480159061236e57506001600160a01b038616600090815260016020908152604080832033845290915290205460ff16155b1561238c57604051633d83866f60e01b815260040160405180910390fd5b60008481526002602052604090205460ff166123bb57604051634f8cca5b60e11b815260040160405180910390fd5b6001600160a01b038616600090815260208181526040808320878452909152812080548592906123ec908490613906565b90915550506001600160a01b0385166000908152602081815260408083208784529091528120805485929061242290849061391d565b909155505060408051858152602081018590526001600160a01b03808816929089169133917fc3d58168c5ae7397731d063d5bbf3d657854427343f4c083240f7aacaa2d0f62910160405180910390a46001600160a01b0385163b1561250c5760405163f23a6e6160e01b808252906001600160a01b0387169063f23a6e61906124ba9033908b908a908a908a908a90600401613b12565b602060405180830381865afa1580156124d7573d6000803e3d6000fd5b505050506040513d601f19601f820116820180604052508101906124fb9190613a00565b6001600160e01b0319161415612518565b6001600160a01b038516155b156125365760405163290802d360e11b815260040160405180910390fd5b831561255a5761255a6125498786610db2565b6125538787610db2565b86866128bc565b505050505050565b8161256c57600080fd5b336001600160a01b038416148015906125a957506001600160a01b038316600090815260016020908152604080832033845290915290205460ff16155b80156125b55750333014155b80156125d157503360009081526009602052604090205460ff16155b80156125ed57503360009081526008602052604090205460ff16155b1561260b57604051633d83866f60e01b815260040160405180910390fd5b610afd838383612ba1565b60006001600160e01b031982167f01ffc9a700000000000000000000000000000000000000000000000000000000148061267957507fd9b67a26000000000000000000000000000000000000000000000000000000006001600160e01b03198316145b8061085e5750506001600160e01b0319166303a24d0760e21b1490565b6006805467ffffffffffffffff8082166001011667ffffffffffffffff199091161790556000808560038111156126cf576126cf613a34565b0361274b5760008083516020850186885af190508061270157604051633c47f9b560e21b815260040160405180910390fd5b836001600160a01b03167ffa3c55dc43f5cfdeb2abee243c63ad490db2fee39fd127076ed9e7afa15ad63886858560405161273e93929190613b57565b60405180910390a2610de8565b600185600381111561275f5761275f613a34565b0361279057600080835160208501875af490508061270157604051633c47f9b560e21b815260040160405180910390fd5b60028560038111156127a4576127a4613a34565b0361282557600082516020840185f090506001600160a01b0381166127dc57604051633c47f9b560e21b815260040160405180910390fd5b806001600160a01b03167fd187b7c22150909fa5ee0d652f5966e66148500fabe5615b1079e7ef39fe3fb78786604051612817929190613b86565b60405180910390a250610de8565b6000808560601b6bffffffffffffffffffffffff191690508084518560200187f591506001600160a01b03821661286f57604051633c47f9b560e21b815260040160405180910390fd5b816001600160a01b03167fd187b7c22150909fa5ee0d652f5966e66148500fabe5615b1079e7ef39fe3fb788876040516128aa929190613b86565b60405180910390a25050949350505050565b826001600160a01b0316846001600160a01b0316141580156128dd57508015155b15612a48576001600160a01b03841615612999576001600160a01b038416600090815260046020908152604080832085845290915281205490818103612924576000612975565b6001600160a01b0386166000908152600560209081526040808320878452909152812090612953600185613906565b8152602081019190915260400160002054600160401b90046001600160c01b03165b6001600160c01b03169050612996868584846129918882613906565b612c36565b50505b6001600160a01b03831615612a48576001600160a01b0383166000908152600460209081526040808320858452909152812054908181036129db576000612a2c565b6001600160a01b0385166000908152600560209081526040808320878452909152812090612a0a600185613906565b8152602081019190915260400160002054600160401b90046001600160c01b03165b6001600160c01b0316905061255a85858484612991888261391d565b50505050565b6001600160a01b03851660009081526020818152604080832087845290915281208054859290612a7f90849061391d565b909155505060408051858152602081018590526001600160a01b0387169160009133917fc3d58168c5ae7397731d063d5bbf3d657854427343f4c083240f7aacaa2d0f62910160405180910390a46001600160a01b0385163b15612b685760405163f23a6e6160e01b808252906001600160a01b0387169063f23a6e6190612b169033906000908a908a908a908a90600401613b12565b602060405180830381865afa158015612b33573d6000803e3d6000fd5b505050506040513d601f19601f82011682018060405250810190612b579190613a00565b6001600160e01b0319161415612b74565b6001600160a01b038516155b15612b925760405163290802d360e11b815260040160405180910390fd5b61156160006125538787610db2565b6001600160a01b03831660009081526020818152604080832085845290915281208054839290612bd2908490613906565b909155505060408051838152602081018390526000916001600160a01b0386169133917fc3d58168c5ae7397731d063d5bbf3d657854427343f4c083240f7aacaa2d0f62910160405180910390a4610afd612c2d8484610db2565b600084846128bc565b6000612c4142612dda565b90508315801590612c8d57506001600160a01b038616600090815260056020908152604080832088845282528083206000198801845290915290205467ffffffffffffffff8281169116145b15612cf557612c9b82612e1e565b6001600160a01b0387166000908152600560209081526040808320898452825280832060001989018452909152902080546001600160c01b0392909216600160401b0267ffffffffffffffff909216919091179055612d8c565b60405180604001604052808267ffffffffffffffff168152602001612d1984612e1e565b6001600160c01b039081169091526001600160a01b03881660008181526005602090815260408083208b845282528083208a84528252808320865196830151909516600160401b0267ffffffffffffffff9096169590951790935590815260048252828120888252909152206001850190555b50604080518381526020810183905285916001600160a01b038816917f21a99d51b8a0a2e2ead709843a1ecfaab977908135cf1c085c0a6246eea6e0f0910160405180910390a35050505050565b6000600160401b821115612e1a576040517f5b7f254e00000000000000000000000000000000000000000000000000000000815260040160405180910390fd5b5090565b60007801000000000000000000000000000000000000000000000000821115612e1a576040517fd5e0d1b200000000000000000000000000000000000000000000000000000000815260040160405180910390fd5b80356001600160a01b0381168114612e8a57600080fd5b919050565b60008060408385031215612ea257600080fd5b612eab83612e73565b946020939093013593505050565b6001600160e01b031981168114612ecf57600080fd5b50565b600060208284031215612ee457600080fd5b8135610c3681612eb9565b60008083601f840112612f0157600080fd5b50813567ffffffffffffffff811115612f1957600080fd5b6020830191508360208260051b8501011115612f3457600080fd5b9250929050565b60008060208385031215612f4e57600080fd5b823567ffffffffffffffff811115612f6557600080fd5b612f7185828601612eef565b90969095509350505050565b6020808252825182820181905260009190848201906040850190845b81811015612fb7578351151583529284019291840191600101612f99565b50909695505050505050565b600060208284031215612fd557600080fd5b5035919050565b60005b83811015612ff7578181015183820152602001612fdf565b83811115612a485750506000910152565b60008151808452613020816020860160208601612fdc565b601f01601f19169290920160200192915050565b602081526000610c366020830184613008565b60008083601f84011261305957600080fd5b50813567ffffffffffffffff81111561307157600080fd5b602083019150836020828501011115612f3457600080fd5b6000806000806000608086880312156130a157600080fd5b6130aa86612e73565b94506130b860208701612e73565b935060408601359250606086013567ffffffffffffffff8111156130db57600080fd5b6130e788828901613047565b969995985093965092949392505050565b80358015158114612e8a57600080fd5b6000806040838503121561311b57600080fd5b61312483612e73565b9150613132602084016130f8565b90509250929050565b60008060006040848603121561315057600080fd5b83359250602084013567ffffffffffffffff81111561316e57600080fd5b61317a86828701613047565b9497909650939450505050565b60008060008060008060008060a0898b0312156131a357600080fd5b6131ac89612e73565b97506131ba60208a01612e73565b9650604089013567ffffffffffffffff808211156131d757600080fd5b6131e38c838d01612eef565b909850965060608b01359150808211156131fc57600080fd5b6132088c838d01612eef565b909650945060808b013591508082111561322157600080fd5b5061322e8b828c01613047565b999c989b5096995094979396929594505050565b60008060006060848603121561325757600080fd5b61326084612e73565b95602085013595506040909401359392505050565b6000806000806040858703121561328b57600080fd5b843567ffffffffffffffff808211156132a357600080fd5b6132af88838901612eef565b909650945060208701359150808211156132c857600080fd5b506132d587828801612eef565b95989497509550505050565b6020808252825182820181905260009190848201906040850190845b81811015612fb7578351835292840192918401916001016132fd565b6000806040838503121561332c57600080fd5b82359150613132602084016130f8565b60006020828403121561334e57600080fd5b610c3682612e73565b60008060008060006080868803121561336f57600080fd5b61337886612e73565b94506020860135935060408601359250606086013567ffffffffffffffff8111156130db57600080fd5b6000602082840312156133b457600080fd5b813567ffffffffffffffff81168114610c3657600080fd5b803560048110612e8a57600080fd5b600080600080600080600060a0888a0312156133f657600080fd5b6133ff886133cc565b965061340d60208901612e73565b955060408801359450606088013567ffffffffffffffff8082111561343157600080fd5b61343d8b838c01613047565b909650945060808a013591508082111561345657600080fd5b818a0191508a601f83011261346a57600080fd5b81358181111561347957600080fd5b8b602060608302850101111561348e57600080fd5b60208301945080935050505092959891949750929550565b6000602080830181845280855180835260408601915060408160051b870101925083870160005b828110156134fb57603f198886030184526134e9858351613008565b945092850192908501906001016134cd565b5092979650505050505050565b60008060008060006060868803121561352057600080fd5b853567ffffffffffffffff8082111561353857600080fd5b61354489838a01612eef565b9097509550602088013591508082111561355d57600080fd5b5061356a88828901612eef565b96999598509660400135949350505050565b6000806040838503121561358f57600080fd5b61359883612e73565b915061313260208401612e73565b60008060008060008060a087890312156135bf57600080fd5b6135c887612e73565b95506135d660208801612e73565b94506040870135935060608701359250608087013567ffffffffffffffff81111561360057600080fd5b61360c89828a01613047565b979a9699509497509295939492505050565b634e487b7160e01b600052604160045260246000fd5b634e487b7160e01b600052603260045260246000fd5b60008235607e1983360301811261366057600080fd5b9190910192915050565b60006020828403121561367c57600080fd5b610c36826133cc565b6000808335601e1984360301811261369c57600080fd5b83018035915067ffffffffffffffff8211156136b757600080fd5b602001915036819003821315612f3457600080fd5b600181811c908216806136e057607f821691505b602082108103610c3d57634e487b7160e01b600052602260045260246000fd5b60006020828403121561371257600080fd5b815167ffffffffffffffff8082111561372a57600080fd5b818401915084601f83011261373e57600080fd5b8151818111156137505761375061361e565b604051601f8201601f19908116603f011681019083821181831017156137785761377861361e565b8160405282815287602084870101111561379157600080fd5b6137a2836020830160208801612fdc565b979650505050505050565b601f821115610afd57600081815260208120601f850160051c810160208610156137d45750805b601f850160051c820191505b8181101561255a578281556001016137e0565b67ffffffffffffffff83111561380b5761380b61361e565b61381f8361381983546136cc565b836137ad565b6000601f841160018114613853576000851561383b5750838201355b600019600387901b1c1916600186901b178355611561565b600083815260209020601f19861690835b828110156138845786850135825560209485019460019092019101613864565b50868210156138a15760001960f88860031b161c19848701351681555b505060018560011b0183555050505050565b81835281816020850137506000828201602090810191909152601f909101601f19169091010190565b602081526000610de86020830184866138b3565b634e487b7160e01b600052601160045260246000fd5b600082821015613918576139186138f0565b500390565b60008219821115613930576139306138f0565b500190565b81835260007f07ffffffffffffffffffffffffffffffffffffffffffffffffffffffffffffff83111561396757600080fd5b8260051b8083602087013760009401602001938452509192915050565b604081526000613998604083018688613935565b82810360208401526137a2818587613935565b60006001600160a01b03808b168352808a1660208401525060a060408301526139d860a08301888a613935565b82810360608401526139eb818789613935565b90508281036080840152611d388185876138b3565b600060208284031215613a1257600080fd5b8151610c3681612eb9565b600081613a2c57613a2c6138f0565b506000190190565b634e487b7160e01b600052602160045260246000fd5b60048110613a6857634e487b7160e01b600052602160045260246000fd5b9052565b878152613a7c6020820188613a4a565b6001600160a01b038616604082015284606082015260c060808201526000613aa860c0830185876138b3565b905067ffffffffffffffff831660a083015298975050505050505050565b600060208284031215613ad857600080fd5b813560ff81168114610c3657600080fd5b828152604060208201526000610de86040830184613008565b8183823760009101908152919050565b60006001600160a01b03808916835280881660208401525085604083015284606083015260a06080830152613b4b60a0830184866138b3565b98975050505050505050565b613b618185613a4a565b826020820152606060408201526000613b7d6060830184613008565b95945050505050565b60408101613b948285613a4a565b826020830152939250505056fea2646970667358221220da093f3277c2da2b3a1d0f2ca0d274846a81669669bde9a77f6b8f28d9d756c264736f6c634300080f0033",
    "linkReferences": {}
  }
}